{
  "abi": [
    {
      "inputs": [
        {
          "internalType": "uint160",
          "name": "sqrtRatioAX96",
          "type": "uint160"
        },
        {
          "internalType": "uint160",
          "name": "sqrtRatioBX96",
          "type": "uint160"
        },
        {
          "internalType": "uint128",
          "name": "liquidity",
          "type": "uint128"
        },
        {
          "internalType": "bool",
          "name": "roundUp",
          "type": "bool"
        }
      ],
      "name": "getAmount0Delta",
      "outputs": [
        {
          "internalType": "uint256",
          "name": "amount0",
          "type": "uint256"
        }
      ],
      "stateMutability": "pure",
      "type": "function"
    },
    {
      "inputs": [
        {
          "internalType": "uint160",
          "name": "sqrtRatioAX96",
          "type": "uint160"
        },
        {
          "internalType": "uint160",
          "name": "sqrtRatioBX96",
          "type": "uint160"
        },
        {
          "internalType": "uint128",
          "name": "liquidity",
          "type": "uint128"
        },
        {
          "internalType": "bool",
          "name": "roundUp",
          "type": "bool"
        }
      ],
      "name": "getAmount1Delta",
      "outputs": [
        {
          "internalType": "uint256",
          "name": "amount1",
          "type": "uint256"
        }
      ],
      "stateMutability": "pure",
      "type": "function"
    }
  ],
  "bytecode": {
    "object": "0x61033d610026600b82828239805160001a60731461001957fe5b30600052607381538281f3fe73000000000000000000000000000000000000000030146080604052600436106100405760003560e01c80632c32d4b61461004557806348a0c5bd1461009e575b600080fd5b61008c6004803603608081101561005b57600080fd5b506001600160a01b0381358116916020810135909116906001600160801b03604082013516906060013515156100e5565b60408051918252519081900360200190f35b61008c600480360360808110156100b457600080fd5b506001600160a01b0381358116916020810135909116906001600160801b0360408201351690606001351515610199565b6000836001600160a01b0316856001600160a01b03161115610105579293925b6fffffffffffffffffffffffffffffffff60601b606084901b166001600160a01b03868603811690871661013857600080fd5b8361016857866001600160a01b031661015b8383896001600160a01b0316610212565b8161016257fe5b0461018e565b61018e61017f8383896001600160a01b03166102c2565b886001600160a01b03166102fc565b979650505050505050565b6000836001600160a01b0316856001600160a01b031611156101b9579293925b816101e6576101e1836001600160801b03168686036001600160a01b0316600160601b610212565b610209565b610209836001600160801b03168686036001600160a01b0316600160601b6102c2565b95945050505050565b6000808060001985870986860292508281109083900303905080610248576000841161023d57600080fd5b5082900490506102bb565b80841161025457600080fd5b6000848688096000868103871696879004966002600389028118808a02820302808a02820302808a02820302808a02820302808a02820302808a02909103029181900381900460010186841190950394909402919094039290920491909117919091029150505b9392505050565b60006102cf848484610212565b9050600082806102db57fe5b84860911156102bb5760001981106102f257600080fd5b6001019392505050565b80820491061515019056fea2646970667358221220a70eea22a47bf45ce6fb1a378361284d132fe6aa8c4dbedc03ff0c724046711664736f6c63430007060033",
    "linkReferences": {}
  },
  "methodIdentifiers": {
    "getAmount0Delta(uint160,uint160,uint128,bool)": "2c32d4b6",
    "getAmount1Delta(uint160,uint160,uint128,bool)": "48a0c5bd"
  },
  "id": 10
}