{
  "address": "0xfa86d43b41Fa7a759c606130cc81970A955ff816",
  "abi": [
    {
      "inputs": [
        {
          "internalType": "address",
          "name": "_controller",
          "type": "address"
        },
        {
          "internalType": "address",
          "name": "_nonfungiblePositionManager",
          "type": "address"
        },
        {
          "internalType": "address",
          "name": "_uniswapFactory",
          "type": "address"
        },
        {
          "internalType": "address",
          "name": "_exec",
          "type": "address"
        },
        {
          "internalType": "address",
          "name": "_euler",
          "type": "address"
        },
        {
          "internalType": "address",
          "name": "_dToken",
          "type": "address"
        }
      ],
      "stateMutability": "nonpayable",
      "type": "constructor"
    },
    {
      "inputs": [
        {
          "components": [
            {
              "internalType": "uint256",
              "name": "vaultId",
              "type": "uint256"
            },
            {
              "internalType": "uint256",
              "name": "tokenId",
              "type": "uint256"
            },
            {
              "internalType": "uint256",
              "name": "liquidity",
              "type": "uint256"
            },
            {
              "internalType": "uint256",
              "name": "liquidityPercentage",
              "type": "uint256"
            },
            {
              "internalType": "uint256",
              "name": "wPowerPerpAmountToBurn",
              "type": "uint256"
            },
            {
              "internalType": "uint256",
              "name": "collateralToWithdraw",
              "type": "uint256"
            },
            {
              "internalType": "uint256",
              "name": "limitPriceEthPerPowerPerp",
              "type": "uint256"
            },
            {
              "internalType": "uint128",
              "name": "amount0Min",
              "type": "uint128"
            },
            {
              "internalType": "uint128",
              "name": "amount1Min",
              "type": "uint128"
            },
            {
              "internalType": "uint24",
              "name": "poolFee",
              "type": "uint24"
            },
            {
              "internalType": "bool",
              "name": "burnExactRemoved",
              "type": "bool"
            }
          ],
          "internalType": "struct ControllerHelperDataType.CloseShortWithUserNftParams",
          "name": "_params",
          "type": "tuple"
        }
      ],
      "name": "closeShortWithUserNft",
      "outputs": [],
      "stateMutability": "payable",
      "type": "function"
    },
    {
      "inputs": [],
      "name": "dToken",
      "outputs": [
        {
          "internalType": "address",
          "name": "",
          "type": "address"
        }
      ],
      "stateMutability": "view",
      "type": "function"
    },
    {
      "inputs": [],
      "name": "euler",
      "outputs": [
        {
          "internalType": "address",
          "name": "",
          "type": "address"
        }
      ],
      "stateMutability": "view",
      "type": "function"
    },
    {
      "inputs": [],
      "name": "exec",
      "outputs": [
        {
          "internalType": "address",
          "name": "",
          "type": "address"
        }
      ],
      "stateMutability": "view",
      "type": "function"
    },
    {
      "inputs": [],
      "name": "factory",
      "outputs": [
        {
          "internalType": "address",
          "name": "",
          "type": "address"
        }
      ],
      "stateMutability": "view",
      "type": "function"
    },
    {
      "inputs": [
        {
          "components": [
            {
              "internalType": "uint256",
              "name": "vaultId",
              "type": "uint256"
            },
            {
              "internalType": "uint256",
              "name": "tokenId",
              "type": "uint256"
            },
            {
              "internalType": "uint256",
              "name": "liquidity",
              "type": "uint256"
            },
            {
              "internalType": "uint256",
              "name": "liquidityPercentage",
              "type": "uint256"
            },
            {
              "internalType": "uint256",
              "name": "wPowerPerpAmountToBurn",
              "type": "uint256"
            },
            {
              "internalType": "uint256",
              "name": "collateralToFlashloan",
              "type": "uint256"
            },
            {
              "internalType": "uint256",
              "name": "collateralToWithdraw",
              "type": "uint256"
            },
            {
              "internalType": "uint256",
              "name": "limitPriceEthPerPowerPerp",
              "type": "uint256"
            },
            {
              "internalType": "uint128",
              "name": "amount0Min",
              "type": "uint128"
            },
            {
              "internalType": "uint128",
              "name": "amount1Min",
              "type": "uint128"
            },
            {
              "internalType": "uint24",
              "name": "poolFee",
              "type": "uint24"
            },
            {
              "internalType": "bool",
              "name": "burnExactRemoved",
              "type": "bool"
            }
          ],
          "internalType": "struct ControllerHelperDataType.FlashloanCloseVaultLpNftParam",
          "name": "_params",
          "type": "tuple"
        }
      ],
      "name": "flashloanCloseVaultLpNft",
      "outputs": [],
      "stateMutability": "payable",
      "type": "function"
    },
    {
      "inputs": [
        {
          "components": [
            {
              "internalType": "address",
              "name": "wPowerPerpPool",
              "type": "address"
            },
            {
              "internalType": "uint256",
              "name": "vaultId",
              "type": "uint256"
            },
            {
              "internalType": "uint256",
              "name": "wPowerPerpAmount",
              "type": "uint256"
            },
            {
              "internalType": "uint256",
              "name": "collateralToDeposit",
              "type": "uint256"
            },
            {
              "internalType": "uint256",
              "name": "collateralToFlashloan",
              "type": "uint256"
            },
            {
              "internalType": "uint256",
              "name": "collateralToLp",
              "type": "uint256"
            },
            {
              "internalType": "uint256",
              "name": "collateralToWithdraw",
              "type": "uint256"
            },
            {
              "internalType": "uint256",
              "name": "amount0Min",
              "type": "uint256"
            },
            {
              "internalType": "uint256",
              "name": "amount1Min",
              "type": "uint256"
            },
            {
              "internalType": "int24",
              "name": "lowerTick",
              "type": "int24"
            },
            {
              "internalType": "int24",
              "name": "upperTick",
              "type": "int24"
            }
          ],
          "internalType": "struct ControllerHelperDataType.FlashloanWMintLpDepositNftParams",
          "name": "_params",
          "type": "tuple"
        }
      ],
      "name": "flashloanWMintLpDepositNft",
      "outputs": [],
      "stateMutability": "payable",
      "type": "function"
    },
    {
      "inputs": [
        {
          "components": [
            {
              "internalType": "uint256",
              "name": "vaultId",
              "type": "uint256"
            },
            {
              "internalType": "uint256",
              "name": "wPowerPerpAmountToMint",
              "type": "uint256"
            },
            {
              "internalType": "uint256",
              "name": "collateralToDeposit",
              "type": "uint256"
            },
            {
              "internalType": "uint256",
              "name": "wPowerPerpAmountToSell",
              "type": "uint256"
            },
            {
              "internalType": "uint256",
              "name": "minToReceive",
              "type": "uint256"
            },
            {
              "internalType": "uint24",
              "name": "poolFee",
              "type": "uint24"
            }
          ],
          "internalType": "struct ControllerHelperDataType.FlashSellLongWMintParams",
          "name": "_params",
          "type": "tuple"
        }
      ],
      "name": "flashswapSellLongWMint",
      "outputs": [],
      "stateMutability": "payable",
      "type": "function"
    },
    {
      "inputs": [
        {
          "components": [
            {
              "internalType": "uint256",
              "name": "vaultId",
              "type": "uint256"
            },
            {
              "internalType": "uint256",
              "name": "wPowerPerpAmountToBurn",
              "type": "uint256"
            },
            {
              "internalType": "uint256",
              "name": "wPowerPerpAmountToBuy",
              "type": "uint256"
            },
            {
              "internalType": "uint256",
              "name": "collateralToWithdraw",
              "type": "uint256"
            },
            {
              "internalType": "uint256",
              "name": "maxToPay",
              "type": "uint256"
            },
            {
              "internalType": "uint24",
              "name": "poolFee",
              "type": "uint24"
            }
          ],
          "internalType": "struct ControllerHelperDataType.FlashswapWBurnBuyLongParams",
          "name": "_params",
          "type": "tuple"
        }
      ],
      "name": "flashswapWBurnBuyLong",
      "outputs": [],
      "stateMutability": "payable",
      "type": "function"
    },
    {
      "inputs": [
        {
          "internalType": "bytes",
          "name": "encodedData",
          "type": "bytes"
        }
      ],
      "name": "onDeferredLiquidityCheck",
      "outputs": [],
      "stateMutability": "nonpayable",
      "type": "function"
    },
    {
      "inputs": [
        {
          "internalType": "address",
          "name": "",
          "type": "address"
        },
        {
          "internalType": "address",
          "name": "",
          "type": "address"
        },
        {
          "internalType": "uint256",
          "name": "",
          "type": "uint256"
        },
        {
          "internalType": "bytes",
          "name": "",
          "type": "bytes"
        }
      ],
      "name": "onERC721Received",
      "outputs": [
        {
          "internalType": "bytes4",
          "name": "",
          "type": "bytes4"
        }
      ],
      "stateMutability": "nonpayable",
      "type": "function"
    },
    {
      "inputs": [
        {
          "internalType": "uint256",
          "name": "_vaultId",
          "type": "uint256"
        },
        {
          "internalType": "uint256",
          "name": "_collateralToFlashloan",
          "type": "uint256"
        },
        {
          "components": [
            {
              "internalType": "enum ControllerHelperDataType.RebalanceVaultNftType",
              "name": "rebalanceLpInVaultType",
              "type": "uint8"
            },
            {
              "internalType": "bytes",
              "name": "data",
              "type": "bytes"
            }
          ],
          "internalType": "struct ControllerHelperDataType.RebalanceLpInVaultParams[]",
          "name": "_params",
          "type": "tuple[]"
        }
      ],
      "name": "rebalanceLpInVault",
      "outputs": [],
      "stateMutability": "payable",
      "type": "function"
    },
    {
      "inputs": [
        {
          "components": [
            {
              "internalType": "address",
              "name": "wPowerPerpPool",
              "type": "address"
            },
            {
              "internalType": "uint256",
              "name": "tokenId",
              "type": "uint256"
            },
            {
              "internalType": "uint256",
              "name": "liquidity",
              "type": "uint256"
            },
            {
              "internalType": "uint256",
              "name": "wPowerPerpAmountDesired",
              "type": "uint256"
            },
            {
              "internalType": "uint256",
              "name": "wethAmountDesired",
              "type": "uint256"
            },
            {
              "internalType": "uint256",
              "name": "amount0DesiredMin",
              "type": "uint256"
            },
            {
              "internalType": "uint256",
              "name": "amount1DesiredMin",
              "type": "uint256"
            },
            {
              "internalType": "uint256",
              "name": "limitPriceEthPerPowerPerp",
              "type": "uint256"
            },
            {
              "internalType": "uint256",
              "name": "amount0Min",
              "type": "uint256"
            },
            {
              "internalType": "uint256",
              "name": "amount1Min",
              "type": "uint256"
            },
            {
              "internalType": "int24",
              "name": "lowerTick",
              "type": "int24"
            },
            {
              "internalType": "int24",
              "name": "upperTick",
              "type": "int24"
            },
            {
              "internalType": "uint24",
              "name": "poolFee",
              "type": "uint24"
            }
          ],
          "internalType": "struct ControllerHelperDataType.RebalanceLpWithoutVaultParams",
          "name": "_params",
          "type": "tuple"
        }
      ],
      "name": "rebalanceLpWithoutVault",
      "outputs": [],
      "stateMutability": "payable",
      "type": "function"
    },
    {
      "inputs": [
        {
          "components": [
            {
              "internalType": "uint256",
              "name": "tokenId",
              "type": "uint256"
            },
            {
              "internalType": "uint256",
              "name": "liquidity",
              "type": "uint256"
            },
            {
              "internalType": "uint256",
              "name": "liquidityPercentage",
              "type": "uint256"
            },
            {
              "internalType": "uint128",
              "name": "amount0Min",
              "type": "uint128"
            },
            {
              "internalType": "uint128",
              "name": "amount1Min",
              "type": "uint128"
            },
            {
              "internalType": "uint256",
              "name": "limitPriceEthPerPowerPerp",
              "type": "uint256"
            },
            {
              "internalType": "uint24",
              "name": "poolFee",
              "type": "uint24"
            }
          ],
          "internalType": "struct ControllerHelperDataType.ReduceLiquidityAndSellParams",
          "name": "_params",
          "type": "tuple"
        }
      ],
      "name": "reduceLiquidityAndSell",
      "outputs": [],
      "stateMutability": "nonpayable",
      "type": "function"
    },
    {
      "inputs": [],
      "name": "token",
      "outputs": [
        {
          "internalType": "address",
          "name": "",
          "type": "address"
        }
      ],
      "stateMutability": "view",
      "type": "function"
    },
    {
      "inputs": [
        {
          "internalType": "int256",
          "name": "amount0Delta",
          "type": "int256"
        },
        {
          "internalType": "int256",
          "name": "amount1Delta",
          "type": "int256"
        },
        {
          "internalType": "bytes",
          "name": "_data",
          "type": "bytes"
        }
      ],
      "name": "uniswapV3SwapCallback",
      "outputs": [],
      "stateMutability": "nonpayable",
      "type": "function"
    },
    {
      "inputs": [
        {
          "components": [
            {
              "internalType": "address",
              "name": "recipient",
              "type": "address"
            },
            {
              "internalType": "address",
              "name": "wPowerPerpPool",
              "type": "address"
            },
            {
              "internalType": "uint256",
              "name": "vaultId",
              "type": "uint256"
            },
            {
              "internalType": "uint256",
              "name": "wPowerPerpAmount",
              "type": "uint256"
            },
            {
              "internalType": "uint256",
              "name": "collateralToDeposit",
              "type": "uint256"
            },
            {
              "internalType": "uint256",
              "name": "collateralToLp",
              "type": "uint256"
            },
            {
              "internalType": "uint256",
              "name": "amount0Min",
              "type": "uint256"
            },
            {
              "internalType": "uint256",
              "name": "amount1Min",
              "type": "uint256"
            },
            {
              "internalType": "int24",
              "name": "lowerTick",
              "type": "int24"
            },
            {
              "internalType": "int24",
              "name": "upperTick",
              "type": "int24"
            }
          ],
          "internalType": "struct ControllerHelperDataType.MintAndLpParams",
          "name": "_params",
          "type": "tuple"
        }
      ],
      "name": "wMintLp",
      "outputs": [],
      "stateMutability": "payable",
      "type": "function"
    },
    {
      "stateMutability": "payable",
      "type": "receive"
    }
  ],
  "transactionHash": "0xf3f25650676901174d6c66dd5cdeb91aa0e74010790e2e2d42105305d98402b4",
  "args": [
    "0x64187ae08781B09368e6253F9E94951243A493D5",
    "0xC36442b4a4522E871399CD717aBDD847Ab11FE88",
    "0x1F98431c8aD98523631AE4a59f267346ea31F984",
    "0x59828FdF7ee634AaaD3f58B19fDBa3b03E2D9d80",
    "0x27182842E098f60e3D576794A5bFFb0777E025d3",
    "0x62e28f054efc24b26A794F5C1249B6349454352C"
  ],
  "solcInputHash": "fc32ed9e00a9017e491333926bef5473",
  "bytecode": "0x6101e06040523480156200001257600080fd5b5060405162006a3e38038062006a3e833981016040819052620000359162000679565b8282876001600160a01b0316633fc8cef36040518163ffffffff1660e01b815260040160206040518083038186803b1580156200007157600080fd5b505afa15801562000086573d6000803e3d6000fd5b505050506040513d601f19601f82011682018060405250810190620000ac919062000655565b83876001600160a01b038116620000c257600080fd5b6001600160601b0319606091821b811660805294811b851660a05292831b841660c05290821b831660e052811b82166101005287901b166101405260408051634ea64a2160e11b815290516001600160a01b03881691639d4c9442916004808301926020929190829003018186803b1580156200013e57600080fd5b505afa15801562000153573d6000803e3d6000fd5b505050506040513d601f19601f8201168201806040525081019062000179919062000655565b6001600160a01b0316610160816001600160a01b031660601b81525050856001600160a01b0316637f07b1306040518163ffffffff1660e01b815260040160206040518083038186803b158015620001d057600080fd5b505afa158015620001e5573d6000803e3d6000fd5b505050506040513d601f19601f820116820180604052508101906200020b919062000655565b6001600160a01b0316610180816001600160a01b031660601b81525050856001600160a01b0316633fc8cef36040518163ffffffff1660e01b815260040160206040518083038186803b1580156200026257600080fd5b505afa15801562000277573d6000803e3d6000fd5b505050506040513d601f19601f820116820180604052508101906200029d919062000655565b6001600160601b0319606091821b81166101a0529086901b166101c052604080516307f07b1360e41b815290516001600160a01b03881691637f07b130916004808301926020929190829003018186803b158015620002fb57600080fd5b505afa15801562000310573d6000803e3d6000fd5b505050506040513d601f19601f8201168201806040525081019062000336919062000655565b6001600160a01b0316866001600160a01b0316633fc8cef36040518163ffffffff1660e01b815260040160206040518083038186803b1580156200037957600080fd5b505afa1580156200038e573d6000803e3d6000fd5b505050506040513d601f19601f82011682018060405250810190620003b4919062000655565b6001600160a01b031610151561012081151560f81b81525050856001600160a01b0316637f07b1306040518163ffffffff1660e01b815260040160206040518083038186803b1580156200040757600080fd5b505afa1580156200041c573d6000803e3d6000fd5b505050506040513d601f19601f8201168201806040525081019062000442919062000655565b6001600160a01b031663095ea7b3866000196040518363ffffffff1660e01b81526004016200047392919062000736565b602060405180830381600087803b1580156200048e57600080fd5b505af1158015620004a3573d6000803e3d6000fd5b505050506040513d601f19601f82011682018060405250810190620004c99190620006f9565b50856001600160a01b0316633fc8cef36040518163ffffffff1660e01b815260040160206040518083038186803b1580156200050457600080fd5b505afa15801562000519573d6000803e3d6000fd5b505050506040513d601f19601f820116820180604052508101906200053f919062000655565b6001600160a01b031663095ea7b3866000196040518363ffffffff1660e01b81526004016200057092919062000736565b602060405180830381600087803b1580156200058b57600080fd5b505af1158015620005a0573d6000803e3d6000fd5b505050506040513d601f19601f82011682018060405250810190620005c69190620006f9565b5060405163a22cb46560e01b81526001600160a01b0386169063a22cb46590620005f89089906001906004016200071b565b600060405180830381600087803b1580156200061357600080fd5b505af115801562000628573d6000803e3d6000fd5b505050505050505050506200074f565b80516001600160a01b03811681146200065057600080fd5b919050565b60006020828403121562000667578081fd5b620006728262000638565b9392505050565b60008060008060008060c0878903121562000692578182fd5b6200069d8762000638565b9550620006ad6020880162000638565b9450620006bd6040880162000638565b9350620006cd6060880162000638565b9250620006dd6080880162000638565b9150620006ed60a0880162000638565b90509295509295509295565b6000602082840312156200070b578081fd5b8151801515811462000672578182fd5b6001600160a01b039290921682521515602082015260400190565b6001600160a01b03929092168252602082015260400190565b60805160601c60a05160601c60c05160601c60e05160601c6101005160601c6101205160f81c6101405160601c6101605160601c6101805160601c6101a05160601c6101c05160601c615fe162000a5d600039806102f452806103dc52806104cd52806108aa5280610b315280610cca5280610efc5280610f8652806110f1528061183f52806118d55280611a4152806120bc52806125eb528061274a5280612a5f5280612bff5280612d5552806132cb528061367e52508061074952806108275280610a385280610acf5280610bef5280610d0e5280610e67528061118252806111fc528061125e52806112c4528061136652806113d3528061177a5280611c0552806120fe52806122f5528061246852806128405280612e0b5280612f13528061310852806131d0528061330d528061349b528061355b528061384d528061392552806139a45280613a6a5280613b0b5280613c405280613cad5280613df5528061404e528061411d52508061076a52806108065280610a5a5280610c115280610cec5280610e895280611161528061121e52806112e652806113f452806116ae528061175952806120dd5280612a815280612ff352806132ec52806134db528061351b52806139c55280613aea5280613f165280613f86525080610dcc5280611e7252806123a25280613e915250806104ab5280610ca852806110cf5280611a1f528061209b528061224f52806122d452806124e65280612565528061272852806128bc528061293b5280612a3d5280612b145280612d335280612ef152806130e652806131ae52806132aa52806133da5280613789528061382b52806139035280613a485280613c1e5280613dd352806140fb52806144985250806103ff528061053d52806105b852806106a852806108f252806109245280610d32528061100d528061195e52806121a4528061265b5280612aa85280612c6d528061332f5250806114b052806116195280611aea525080611bdb52508061146c52806115695280611b0e5250806117d85280611f145250806117fc5280611b7752806147505250615fe16000f3fe6080604052600436106101125760003560e01c8063a15db5c5116100a5578063d8fa26f011610074578063db661b7111610059578063db661b711461027a578063fa461e331461028f578063fc0c546a146102af57610119565b8063d8fa26f014610252578063d9d7858a1461026557610119565b8063a15db5c5146101e8578063bc638a7914610208578063c1c0e9c41461021b578063c45a01551461023d57610119565b80633ca8402b116100e15780633ca8402b1461018f5780634fc5864f146101af57806383b17e4d146101c2578063923247ae146101d557610119565b8063150b7a021461011e57806315d23b04146101545780632ef1f08214610169578063334cc3651461017c57610119565b3661011957005b600080fd5b34801561012a57600080fd5b5061013e610139366004614aaf565b6102c4565b60405161014b9190615b22565b60405180910390f35b6101676101623660046151a6565b6102d4565b005b610167610177366004615506565b610ab8565b61016761018a3660046150fe565b610c39565b34801561019b57600080fd5b506101676101aa3660046151b8565b610ee5565b6101676101bd366004614ea3565b611246565b6101676101d0366004614c3e565b611341565b6101676101e3366004614db7565b61139d565b3480156101f457600080fd5b50610167610203366004614b51565b611461565b610167610216366004614db7565b61167d565b34801561022757600080fd5b506102306117d6565b60405161014b91906156ad565b34801561024957600080fd5b506102306117fa565b610167610260366004614c3e565b61181e565b34801561027157600080fd5b50610230611ae8565b34801561028657600080fd5b50610230611b0c565b34801561029b57600080fd5b506101676102aa366004614bc3565b611b30565b3480156102bb57600080fd5b50610230611bd9565b630a85bd0160e11b949350505050565b6102dd34611bfd565b604051632142170760e11b81526001600160a01b037f000000000000000000000000000000000000000000000000000000000000000016906342842e0e9061033190339030906020870135906004016156c1565b600060405180830381600087803b15801561034b57600080fd5b505af115801561035f573d6000803e3d6000fd5b50506040805160a08101825260208086013582528583013590820152670de0b6b3a7640000818301526001600160801b0361010086013581166060830152610120860135166080820152905163760a3f2b60e11b81526000935073B53c2eE92A24B08521912e1687Bc8142a7E6a9EE925063ec147e5691610427917f000000000000000000000000000000000000000000000000000000000000000091907f000000000000000000000000000000000000000000000000000000000000000090600401615a6c565b604080518083038186803b15801561043e57600080fd5b505af4158015610452573d6000803e3d6000fd5b505050506040513d601f19601f820116820180604052508101906104769190614ba0565b50604051630725e4e160e31b815290915073B53c2eE92A24B08521912e1687Bc8142a7E6a9EE9063392f2708906105089033907f0000000000000000000000000000000000000000000000000000000000000000907f00000000000000000000000000000000000000000000000000000000000000009060009060208a013590670de0b6b3a7640000906004016156e5565b60006040518083038186803b15801561052057600080fd5b505af4158015610534573d6000803e3d6000fd5b505050506000807f0000000000000000000000000000000000000000000000000000000000000000156106515773B53c2eE92A24B08521912e1687Bc8142a7E6a9EE63b573fa8b6105886020870187614a77565b608087013560608801356105a46101608a016101408b01614b84565b6105b66101808b016101608c01614b84565b7f00000000000000000000000000000000000000000000000000000000000000006040518763ffffffff1660e01b81526004016105f896959493929190615ae7565b604080518083038186803b15801561060f57600080fd5b505af4158015610623573d6000803e3d6000fd5b505050506040513d601f19601f820116820180604052508101906106479190614ba0565b909250905061073c565b73B53c2eE92A24B08521912e1687Bc8142a7E6a9EE63b573fa8b6106786020870187614a77565b608087013560608801356106946101608a016101408b01614b84565b6106a66101808b016101608c01614b84565b7f00000000000000000000000000000000000000000000000000000000000000006040518763ffffffff1660e01b81526004016106e896959493929190615ae7565b604080518083038186803b1580156106ff57600080fd5b505af4158015610713573d6000803e3d6000fd5b505050506040513d601f19601f820116820180604052508101906107379190614ba0565b925090505b828111156107eb576107e67f00000000000000000000000000000000000000000000000000000000000000007f000000000000000000000000000000000000000000000000000000000000000061079b6101a0880161018089016153db565b6107a58588611c61565b6107cf670de0b6b3a76400006107c96107be898c611c61565b60e08d013590611cc3565b90611d23565b600460405180602001604052806000815250611d8a565b61088e565b8281101561088e5760006107ff8483611c61565b905061088b7f00000000000000000000000000000000000000000000000000000000000000007f00000000000000000000000000000000000000000000000000000000000000006108586101a089016101808a016153db565b84610873670de0b6b3a76400006107c960e08d013584611cc3565b60035b60405180602001604052806000815250611dee565b50505b73B53c2eE92A24B08521912e1687Bc8142a7E6a9EE63aee2533b7f00000000000000000000000000000000000000000000000000000000000000006108d66020880188614a77565b6040518060e00160405280336001600160a01b031681526020017f000000000000000000000000000000000000000000000000000000000000000061091b578661091d565b875b81526020017f000000000000000000000000000000000000000000000000000000000000000061094d578761094f565b865b815260a08a0135602082015260c08a0135604082015260600161097a6101608b016101408c01614b84565b60020b81526020016109946101808b016101608c01614b84565b60020b8152506040518463ffffffff1660e01b81526004016109b89392919061596c565b60206040518083038186803b1580156109d057600080fd5b505af41580156109e4573d6000803e3d6000fd5b505050506040513d601f19601f82011682018060405250810190610a0891906153f7565b506040516328bb252f60e11b815273B53c2eE92A24B08521912e1687Bc8142a7E6a9EE906351764a5e90610a82907f0000000000000000000000000000000000000000000000000000000000000000907f00000000000000000000000000000000000000000000000000000000000000009060040161571e565b60006040518083038186803b158015610a9a57600080fd5b505af4158015610aae573d6000803e3d6000fd5b5050505050505050565b610ac184611e61565b610aca34611bfd565b610b1a7f0000000000000000000000000000000000000000000000000000000000000000846008878686604051602001610b0693929190615dc6565b604051602081830303815290604052611f12565b6040516370a0823160e01b81526001600160a01b037f000000000000000000000000000000000000000000000000000000000000000016906370a0823190610b669030906004016156ad565b60206040518083038186803b158015610b7e57600080fd5b505afa158015610b92573d6000803e3d6000fd5b505050506040513d601f19601f82011682018060405250810190610bb691906153f7565b15610bc057600080fd5b6040516328bb252f60e11b815273B53c2eE92A24B08521912e1687Bc8142a7E6a9EE906351764a5e90610a82907f0000000000000000000000000000000000000000000000000000000000000000907f00000000000000000000000000000000000000000000000000000000000000009060040161571e565b604081013515610c5057610c508160400135611e61565b610c62608082013560a0830135611fe8565b3414610c6d57600080fd5b610c7634611bfd565b6040516308e6940f60e41b815260009073B53c2eE92A24B08521912e1687Bc8142a7E6a9EE90638e6940f090610d5a907f0000000000000000000000000000000000000000000000000000000000000000907f0000000000000000000000000000000000000000000000000000000000000000907f0000000000000000000000000000000000000000000000000000000000000000907f00000000000000000000000000000000000000000000000000000000000000009089907f000000000000000000000000000000000000000000000000000000000000000090600401615738565b604080518083038186803b158015610d7157600080fd5b505af4158015610d85573d6000803e3d6000fd5b505050506040513d601f19601f82011682018060405250810190610da99190614ba0565b5090506040820135610e3857604051632142170760e11b81526001600160a01b037f000000000000000000000000000000000000000000000000000000000000000016906342842e0e90610e05903090339086906004016156c1565b600060405180830381600087803b158015610e1f57600080fd5b505af1158015610e33573d6000803e3d6000fd5b505050505b6040516328bb252f60e11b815273B53c2eE92A24B08521912e1687Bc8142a7E6a9EE906351764a5e90610eb1907f0000000000000000000000000000000000000000000000000000000000000000907f00000000000000000000000000000000000000000000000000000000000000009060040161571e565b60006040518083038186803b158015610ec957600080fd5b505af4158015610edd573d6000803e3d6000fd5b505050505050565b604051632142170760e11b81526001600160a01b037f000000000000000000000000000000000000000000000000000000000000000016906342842e0e90610f3690339030908635906004016156c1565b600060405180830381600087803b158015610f5057600080fd5b505af1158015610f64573d6000803e3d6000fd5b50505050600073B53c2eE92A24B08521912e1687Bc8142a7E6a9EE63ec147e567f00000000000000000000000000000000000000000000000000000000000000006040518060a00160405280866000013581526020018660200135815260200186604001358152602001866060016020810190610fe191906153bf565b6001600160801b03168152602001610fff60a08801608089016153bf565b6001600160801b03168152507f00000000000000000000000000000000000000000000000000000000000000006040518463ffffffff1660e01b815260040161104a93929190615a6c565b604080518083038186803b15801561106157600080fd5b505af4158015611075573d6000803e3d6000fd5b505050506040513d601f19601f820116820180604052508101906110999190614ba0565b5060408051630725e4e160e31b815291925073B53c2eE92A24B08521912e1687Bc8142a7E6a9EE9163392f2708916111239133917f0000000000000000000000000000000000000000000000000000000000000000917f0000000000000000000000000000000000000000000000000000000000000000916000918a35918b0135906004016156e5565b60006040518083038186803b15801561113b57600080fd5b505af415801561114f573d6000803e3d6000fd5b505050506000811115610e38576111cc7f00000000000000000000000000000000000000000000000000000000000000007f00000000000000000000000000000000000000000000000000000000000000006111b160e0860160c087016153db565b84610873670de0b6b3a76400006107c960a08a013584611cc3565b506040516328bb252f60e11b815273B53c2eE92A24B08521912e1687Bc8142a7E6a9EE906351764a5e90610eb1907f0000000000000000000000000000000000000000000000000000000000000000907f00000000000000000000000000000000000000000000000000000000000000009060040161571e565b6112508135611e61565b61125934611bfd565b6112957f000000000000000000000000000000000000000000000000000000000000000060a0830135600784604051602001610b069190615c01565b6040516328bb252f60e11b815273B53c2eE92A24B08521912e1687Bc8142a7E6a9EE906351764a5e9061130e907f0000000000000000000000000000000000000000000000000000000000000000907f00000000000000000000000000000000000000000000000000000000000000009060040161571e565b60006040518083038186803b15801561132657600080fd5b505af415801561133a573d6000803e3d6000fd5b5050505050565b602081013515611358576113588160200135611e61565b61136134611bfd565b6112957f00000000000000000000000000000000000000000000000000000000000000006080830135600684604051602001610b069190615cca565b6113a78135611e61565b6113b5606082013534611fe8565b816080013511156113c557600080fd5b6113ce34611bfd565b6112957f00000000000000000000000000000000000000000000000000000000000000007f000000000000000000000000000000000000000000000000000000000000000061142360c0850160a086016153db565b61143560208601356040870135611fe8565b608086013560018760405160200161144d9190615ba0565b604051602081830303815290604052611d8a565b336001600160a01b037f0000000000000000000000000000000000000000000000000000000000000000161461149657600080fd5b6000818060200190518101906114ac9190614ded565b90507f00000000000000000000000000000000000000000000000000000000000000006001600160a01b0316630ecbcdab600083604001516040518363ffffffff1660e01b8152600401611501929190615b4f565b600060405180830381600087803b15801561151b57600080fd5b505af115801561152f573d6000803e3d6000fd5b5050505061155481600001518260200151836040015184606001518560800151612042565b80602001516001600160a01b031663095ea7b37f000000000000000000000000000000000000000000000000000000000000000083604001516040518363ffffffff1660e01b81526004016115aa929190615ace565b602060405180830381600087803b1580156115c457600080fd5b505af11580156115d8573d6000803e3d6000fd5b505050506040513d601f19601f820116820180604052508101906115fc9190614b35565b50604080820151905163d8aed14560e01b81526001600160a01b037f0000000000000000000000000000000000000000000000000000000000000000169163d8aed1459161164f91600091600401615b4f565b600060405180830381600087803b15801561166957600080fd5b505af1158015610edd573d6000803e3d6000fd5b80351561168e5761168e8135611e61565b61169734611bfd565b6040516323b872dd60e01b81526001600160a01b037f000000000000000000000000000000000000000000000000000000000000000016906323b872dd906116eb90339030906060870135906004016156c1565b602060405180830381600087803b15801561170557600080fd5b505af1158015611719573d6000803e3d6000fd5b505050506040513d601f19601f8201168201806040525081019061173d9190614b35565b50600061175260208301356060840135611fe8565b90506111cc7f00000000000000000000000000000000000000000000000000000000000000007f00000000000000000000000000000000000000000000000000000000000000006117a960c0860160a087016153db565b8460808701356002886040516020016117c29190615ba0565b604051602081830303815290604052611dee565b7f000000000000000000000000000000000000000000000000000000000000000081565b7f000000000000000000000000000000000000000000000000000000000000000081565b6118288135611e61565b604051632142170760e11b81526001600160a01b037f000000000000000000000000000000000000000000000000000000000000000016906342842e0e9061187c90339030906020870135906004016156c1565b600060405180830381600087803b15801561189657600080fd5b505af11580156118aa573d6000803e3d6000fd5b505050506118b734611bfd565b600073B53c2eE92A24B08521912e1687Bc8142a7E6a9EE63ec147e567f00000000000000000000000000000000000000000000000000000000000000006040518060a001604052808660200135815260200186604001358152602001866060013581526020018660e001602081019061193091906153bf565b6001600160801b03168152602001611950610120880161010089016153bf565b6001600160801b03168152507f00000000000000000000000000000000000000000000000000000000000000006040518463ffffffff1660e01b815260040161199b93929190615a6c565b604080518083038186803b1580156119b257600080fd5b505af41580156119c6573d6000803e3d6000fd5b505050506040513d601f19601f820116820180604052508101906119ea9190614ba0565b50604051630725e4e160e31b815290915073B53c2eE92A24B08521912e1687Bc8142a7E6a9EE9063392f270890611a789033907f0000000000000000000000000000000000000000000000000000000000000000907f00000000000000000000000000000000000000000000000000000000000000009060009060208a01359060608b0135906004016156e5565b60006040518083038186803b158015611a9057600080fd5b505af4158015611aa4573d6000803e3d6000fd5b50610e389250508335905082608085013560a086013560c0870135611ad161014089016101208a016153db565b611ae36101608a016101408b01614b19565b6138b5565b7f000000000000000000000000000000000000000000000000000000000000000081565b7f000000000000000000000000000000000000000000000000000000000000000081565b6000841380611b3f5750600083135b611b4857600080fd5b6000611b56828401846151c9565b90506000806000611b6a8460000151613b58565b9250925092506000611b9e7f0000000000000000000000000000000000000000000000000000000000000000858585613b89565b90506000808a13611baf5788611bb1565b895b9050611bcd86602001518684848a606001518b60400151613ba8565b50505050505050505050565b7f000000000000000000000000000000000000000000000000000000000000000081565b8015611c5e577f00000000000000000000000000000000000000000000000000000000000000006001600160a01b031663d0e30db0826040518263ffffffff1660e01b81526004016000604051808303818588803b15801561166957600080fd5b50565b600082821115611cb8576040805162461bcd60e51b815260206004820152601e60248201527f536166654d6174683a207375627472616374696f6e206f766572666c6f770000604482015290519081900360640190fd5b508082035b92915050565b600082611cd257506000611cbd565b82820282848281611cdf57fe5b0414611d1c5760405162461bcd60e51b8152600401808060200182810382526021815260200180615f8b6021913960400191505060405180910390fd5b9392505050565b6000808211611d79576040805162461bcd60e51b815260206004820152601a60248201527f536166654d6174683a206469766973696f6e206279207a65726f000000000000604482015290519081900360640190fd5b818381611d8257fe5b049392505050565b6000611ddf8530600060405180608001604052808c8c8f604051602001611db393929190615644565b60408051601f1981840301815291815290825233602083015260ff8a16908201526060018790526141e7565b905083811115610aae57600080fd5b600080611e448630600060405180608001604052808e8d8f604051602001611e1893929190615644565b60408051601f1981840301815291815290825233602083015260ff8b1690820152606001889052614354565b905084811015611e5357600080fd5b90505b979650505050505050565b6040516331a9108f60e11b815233907f00000000000000000000000000000000000000000000000000000000000000006001600160a01b031690636352211e90611eaf908590600401615dbd565b60206040518083038186803b158015611ec757600080fd5b505afa158015611edb573d6000803e3d6000fd5b505050506040513d601f19601f82011682018060405250810190611eff9190614a93565b6001600160a01b031614611c5e57600080fd5b7f00000000000000000000000000000000000000000000000000000000000000006001600160a01b03166389b7b7a6306040518060a00160405280336001600160a01b03168152602001886001600160a01b031681526020018781526020018660ff16815260200185815250604051602001611f8e9190615bae565b6040516020818303038152906040526040518363ffffffff1660e01b8152600401611fba929190615a4a565b600060405180830381600087803b158015611fd457600080fd5b505af1158015610aae573d6000803e3d6000fd5b600082820183811015611d1c576040805162461bcd60e51b815260206004820152601b60248201527f536166654d6174683a206164646974696f6e206f766572666c6f770000000000604482015290519081900360640190fd5b60068260ff16600981111561205357fe5b600981111561205e57fe5b14156124165760008180602001905181019061207a9190614f6c565b905060008073B53c2eE92A24B08521912e1687Bc8142a7E6a9EE638e6940f07f00000000000000000000000000000000000000000000000000000000000000007f00000000000000000000000000000000000000000000000000000000000000007f00000000000000000000000000000000000000000000000000000000000000007f0000000000000000000000000000000000000000000000000000000000000000604051806101400160405280306001600160a01b031681526020018a600001516001600160a01b031681526020018a6020015181526020018a6040015181526020018a6060015181526020018a60a0015181526020018a60e0015181526020018a610100015181526020018a610120015160020b81526020018a610140015160020b8152507f00000000000000000000000000000000000000000000000000000000000000006040518763ffffffff1660e01b81526004016121e496959493929190615818565b604080518083038186803b1580156121fb57600080fd5b505af415801561220f573d6000803e3d6000fd5b505050506040513d601f19601f820116820180604052508101906122339190614ba0565b6040516348dc69a560e11b815291935091506001600160a01b037f000000000000000000000000000000000000000000000000000000000000000016906391b8d34a906122869085908590600401615b4f565b600060405180830381600087803b1580156122a057600080fd5b505af11580156122b4573d6000803e3d6000fd5b5050505073B53c2eE92A24B08521912e1687Bc8142a7E6a9EE6363410a867f00000000000000000000000000000000000000000000000000000000000000007f000000000000000000000000000000000000000000000000000000000000000085600061232e8960c001518d611fe890919063ffffffff16565b6040518663ffffffff1660e01b815260040161234e9594939291906159df565b60006040518083038186803b15801561236657600080fd5b505af415801561237a573d6000803e3d6000fd5b5050505082602001516000141561240e57604051632142170760e11b81526001600160a01b037f000000000000000000000000000000000000000000000000000000000000000016906342842e0e906123db9030908c9087906004016156c1565b600060405180830381600087803b1580156123f557600080fd5b505af1158015612409573d6000803e3d6000fd5b505050505b50505061133a565b60078260ff16600981111561242757fe5b600981111561243257fe5b14156127eb5760008180602001905181019061244e9190614eb5565b604051632e1a7d4d60e01b81529091506001600160a01b037f00000000000000000000000000000000000000000000000000000000000000001690632e1a7d4d9061249d908790600401615dbd565b600060405180830381600087803b1580156124b757600080fd5b505af11580156124cb573d6000803e3d6000fd5b5050825160405163b6b55f2560e01b81526001600160a01b037f000000000000000000000000000000000000000000000000000000000000000016935063b6b55f259250879161251d91600401615dbd565b6000604051808303818588803b15801561253657600080fd5b505af115801561254a573d6000803e3d6000fd5b5050835160405163713d517f60e01b81526001600160a01b037f000000000000000000000000000000000000000000000000000000000000000016945063713d517f935061259b9250600401615dbd565b600060405180830381600087803b1580156125b557600080fd5b505af11580156125c9573d6000803e3d6000fd5b50505050600073B53c2eE92A24B08521912e1687Bc8142a7E6a9EE63ec147e567f00000000000000000000000000000000000000000000000000000000000000006040518060a001604052808660200151815260200186604001518152602001866060015181526020018661010001516001600160801b031681526020018661012001516001600160801b03168152507f00000000000000000000000000000000000000000000000000000000000000006040518463ffffffff1660e01b815260040161269893929190615a6c565b604080518083038186803b1580156126af57600080fd5b505af41580156126c3573d6000803e3d6000fd5b505050506040513d601f19601f820116820180604052508101906126e79190614ba0565b50825160208401516060850151604051630725e4e160e31b815293945073B53c2eE92A24B08521912e1687Bc8142a7E6a9EE9363392f270893612775938d937f0000000000000000000000000000000000000000000000000000000000000000937f0000000000000000000000000000000000000000000000000000000000000000939291906004016156e5565b60006040518083038186803b15801561278d57600080fd5b505af41580156127a1573d6000803e3d6000fd5b505050506127e482600001518284608001516127ce8660a001518760c00151611fe890919063ffffffff16565b8660e001518761014001518861016001516138b5565b505061133a565b60088260ff1660098111156127fc57fe5b600981111561280757fe5b141561133a5760008082806020019051810190612824919061540f565b604051632e1a7d4d60e01b815291935091506001600160a01b037f00000000000000000000000000000000000000000000000000000000000000001690632e1a7d4d90612875908890600401615dbd565b600060405180830381600087803b15801561288f57600080fd5b505af11580156128a3573d6000803e3d6000fd5b505060405163b6b55f2560e01b81526001600160a01b037f000000000000000000000000000000000000000000000000000000000000000016925063b6b55f25915087906128f5908690600401615dbd565b6000604051808303818588803b15801561290e57600080fd5b505af1158015612922573d6000803e3d6000fd5b505060405163713d517f60e01b81526001600160a01b037f000000000000000000000000000000000000000000000000000000000000000016935063713d517f925061297391508590600401615dbd565b600060405180830381600087803b15801561298d57600080fd5b505af11580156129a1573d6000803e3d6000fd5b5050505060005b81518110156137fb5760008282815181106129bf57fe5b60200260200101516000015160078111156129d657fe5b1415612b895760008282815181106129ea57fe5b602002602001015160200151806020019051810190612a09919061507c565b8051604051637a04dbd760e01b815291925073B53c2eE92A24B08521912e1687Bc8142a7E6a9EE91637a04dbd791612ad0917f0000000000000000000000000000000000000000000000000000000000000000917f0000000000000000000000000000000000000000000000000000000000000000917f000000000000000000000000000000000000000000000000000000000000000091908b9089907f0000000000000000000000000000000000000000000000000000000000000000906004016158d4565b60006040518083038186803b158015612ae857600080fd5b505af4158015612afc573d6000803e3d6000fd5b5050505060208101516040516348dc69a560e11b81527f00000000000000000000000000000000000000000000000000000000000000006001600160a01b0316916391b8d34a91612b51918891600401615b4f565b600060405180830381600087803b158015612b6b57600080fd5b505af1158015612b7f573d6000803e3d6000fd5b50505050506137f3565b6001828281518110612b9757fe5b6020026020010151600001516007811115612bae57fe5b1415612dad576000828281518110612bc257fe5b602002602001015160200151806020019051810190612be19190614cbc565b905073B53c2eE92A24B08521912e1687Bc8142a7E6a9EE63ec147e567f00000000000000000000000000000000000000000000000000000000000000006040518060a0016040528085600001518152602001856020015181526020018560400151815260200185606001516001600160801b0316815260200185608001516001600160801b03168152507f00000000000000000000000000000000000000000000000000000000000000006040518463ffffffff1660e01b8152600401612caa93929190615a6c565b604080518083038186803b158015612cc157600080fd5b505af4158015612cd5573d6000803e3d6000fd5b505050506040513d601f19601f82011682018060405250810190612cf99190614ba0565b505080516040808301519051630725e4e160e31b815273B53c2eE92A24B08521912e1687Bc8142a7E6a9EE9263392f270892612d81928e927f0000000000000000000000000000000000000000000000000000000000000000927f0000000000000000000000000000000000000000000000000000000000000000928c9291906004016156e5565b60006040518083038186803b158015612d9957600080fd5b505af4158015612b7f573d6000803e3d6000fd5b6002828281518110612dbb57fe5b6020026020010151600001516007811115612dd257fe5b1415612f95576000828281518110612de657fe5b602002602001015160200151806020019051810190612e059190614d6f565b905060007f00000000000000000000000000000000000000000000000000000000000000006001600160a01b03166370a08231306040518263ffffffff1660e01b8152600401612e5591906156ad565b60206040518083038186803b158015612e6d57600080fd5b505afa158015612e81573d6000803e3d6000fd5b505050506040513d601f19601f82011682018060405250810190612ea591906153f7565b90508160200151811015612ebb57602082018190525b81516020830151604051639f70f9e560e01b815273B53c2eE92A24B08521912e1687Bc8142a7E6a9EE92639f70f9e592612f3d927f0000000000000000000000000000000000000000000000000000000000000000927f0000000000000000000000000000000000000000000000000000000000000000928c926004016159df565b60206040518083038186803b158015612f5557600080fd5b505af4158015612f69573d6000803e3d6000fd5b505050506040513d601f19601f82011682018060405250810190612f8d91906153f7565b5050506137f3565b6003828281518110612fa357fe5b6020026020010151600001516007811115612fba57fe5b1415613232576000828281518110612fce57fe5b602002602001015160200151806020019051810190612fed9190615370565b905060007f00000000000000000000000000000000000000000000000000000000000000006001600160a01b03166370a08231306040518263ffffffff1660e01b815260040161303d91906156ad565b60206040518083038186803b15801561305557600080fd5b505afa158015613069573d6000803e3d6000fd5b505050506040513d601f19601f8201168201806040525081019061308d91906153f7565b905081604001511561316b5760006130a486614493565b9050818110156130b2578091505b60208301516040516331a0854360e11b815273B53c2eE92A24B08521912e1687Bc8142a7E6a9EE916363410a8691613135917f0000000000000000000000000000000000000000000000000000000000000000917f0000000000000000000000000000000000000000000000000000000000000000918c918991906004016159df565b60006040518083038186803b15801561314d57600080fd5b505af4158015613161573d6000803e3d6000fd5b505050505061322b565b8151811015613178578082525b815160208301516040516331a0854360e11b815273B53c2eE92A24B08521912e1687Bc8142a7E6a9EE926363410a86926131fa927f0000000000000000000000000000000000000000000000000000000000000000927f0000000000000000000000000000000000000000000000000000000000000000928c926004016159df565b60006040518083038186803b15801561321257600080fd5b505af4158015613226573d6000803e3d6000fd5b505050505b50506137f3565b600482828151811061324057fe5b602002602001015160000151600781111561325757fe5b141561343f57600082828151811061326b57fe5b60200260200101516020015180602001905181019061328a9190615110565b9050600073B53c2eE92A24B08521912e1687Bc8142a7E6a9EE638e6940f07f00000000000000000000000000000000000000000000000000000000000000007f00000000000000000000000000000000000000000000000000000000000000007f00000000000000000000000000000000000000000000000000000000000000007f0000000000000000000000000000000000000000000000000000000000000000877f00000000000000000000000000000000000000000000000000000000000000006040518763ffffffff1660e01b815260040161336f96959493929190615818565b604080518083038186803b15801561338657600080fd5b505af415801561339a573d6000803e3d6000fd5b505050506040513d601f19601f820116820180604052508101906133be9190614ba0565b6040516348dc69a560e11b815291965091506001600160a01b037f000000000000000000000000000000000000000000000000000000000000000016906391b8d34a906134119088908590600401615b4f565b600060405180830381600087803b15801561342b57600080fd5b505af1158015613226573d6000803e3d6000fd5b600582828151811061344d57fe5b602002602001015160000151600781111561346457fe5b14156135e157600082828151811061347857fe5b6020026020010151602001518060200190518101906134979190615007565b90507f00000000000000000000000000000000000000000000000000000000000000006001600160a01b031681600001516001600160a01b031614801561351357507f00000000000000000000000000000000000000000000000000000000000000006001600160a01b031681602001516001600160a01b0316145b8061359357507f00000000000000000000000000000000000000000000000000000000000000006001600160a01b031681600001516001600160a01b031614801561359357507f00000000000000000000000000000000000000000000000000000000000000006001600160a01b031681602001516001600160a01b0316145b61359c57600080fd5b61322b81600001518260200151836080015184604001516135da670de0b6b3a76400006107c988604001518960600151611cc390919063ffffffff16565b6009610876565b60068282815181106135ef57fe5b602002602001015160000151600781111561360657fe5b141561371557600082828151811061361a57fe5b6020026020010151602001518060200190518101906136399190614c5a565b604080516080810182528251815230602080830191909152830180516001600160801b03908116838501529051166060820152905163fc6f786560e01b8152919250907f00000000000000000000000000000000000000000000000000000000000000006001600160a01b03169063fc6f7865906136bb908490600401615b5d565b6040805180830381600087803b1580156136d457600080fd5b505af11580156136e8573d6000803e3d6000fd5b505050506040513d601f19601f8201168201806040525081019061370c9190614ba0565b505050506137f3565b600782828151811061372357fe5b602002602001015160000151600781111561373a57fe5b14156137f357600082828151811061374e57fe5b60200260200101516020015180602001905181019061376d9190614d34565b80516040516348dc69a560e11b81529192506001600160a01b037f000000000000000000000000000000000000000000000000000000000000000016916391b8d34a916137bf91889190600401615b4f565b600060405180830381600087803b1580156137d957600080fd5b505af11580156137ed573d6000803e3d6000fd5b50505050505b6001016129a8565b506040516331a0854360e11b815273B53c2eE92A24B08521912e1687Bc8142a7E6a9EE906363410a869061387c907f0000000000000000000000000000000000000000000000000000000000000000907f00000000000000000000000000000000000000000000000000000000000000009087906000908c906004016159df565b60006040518083038186803b15801561389457600080fd5b505af41580156138a8573d6000803e3d6000fd5b5050505050505050505050565b80156139895760006138c688614493565b9050868110156138d4578096505b6040516331a0854360e11b815273B53c2eE92A24B08521912e1687Bc8142a7E6a9EE906363410a8690613953907f0000000000000000000000000000000000000000000000000000000000000000907f0000000000000000000000000000000000000000000000000000000000000000908d908d908c906004016159df565b60006040518083038186803b15801561396b57600080fd5b505af415801561397f573d6000803e3d6000fd5b5050505050613b46565b84861015613a1957600061399d8688611c61565b9050613a137f00000000000000000000000000000000000000000000000000000000000000007f000000000000000000000000000000000000000000000000000000000000000085846139fc670de0b6b3a76400006107c98b84611cc3565b60058e8d8d60405160200161144d93929190615697565b50613b46565b6040516331a0854360e11b815273B53c2eE92A24B08521912e1687Bc8142a7E6a9EE906363410a8690613a98907f0000000000000000000000000000000000000000000000000000000000000000907f0000000000000000000000000000000000000000000000000000000000000000908c908b908b906004016159df565b60006040518083038186803b158015613ab057600080fd5b505af4158015613ac4573d6000803e3d6000fd5b505050506000613add8688611c6190919063ffffffff16565b90508015613b4457613b427f00000000000000000000000000000000000000000000000000000000000000007f00000000000000000000000000000000000000000000000000000000000000008584610873670de0b6b3a76400006107c98b84611cc3565b505b505b613b4f47611bfd565b50505050505050565b60008080613b668482614548565b9250613b73846014614614565b9050613b80846017614548565b91509193909250565b6000613b9f85613b9a8686866146d0565b614726565b95945050505050565b60018160ff166009811115613bb957fe5b6009811115613bc457fe5b1415613d3f57600082806020019051810190613be09190614dd2565b8051602082015160608301516040516331a0854360e11b815293945073B53c2eE92A24B08521912e1687Bc8142a7E6a9EE936363410a8693613c68937f0000000000000000000000000000000000000000000000000000000000000000937f0000000000000000000000000000000000000000000000000000000000000000936004016159df565b60006040518083038186803b158015613c8057600080fd5b505af4158015613c94573d6000803e3d6000fd5b505060405163a9059cbb60e01b81526001600160a01b037f000000000000000000000000000000000000000000000000000000000000000016925063a9059cbb9150613ce69088908890600401615ace565b602060405180830381600087803b158015613d0057600080fd5b505af1158015613d14573d6000803e3d6000fd5b505050506040513d601f19601f82011682018060405250810190613d389190614b35565b5050610edd565b60028160ff166009811115613d5057fe5b6009811115613d5b57fe5b1415613f4d57600082806020019051810190613d779190614dd2565b9050600081602001511180613d90575060008160400151115b15613eff57805160208201516040808401519051639f70f9e560e01b815260009373B53c2eE92A24B08521912e1687Bc8142a7E6a9EE93639f70f9e593613e21937f0000000000000000000000000000000000000000000000000000000000000000937f000000000000000000000000000000000000000000000000000000000000000093909290916004016159df565b60206040518083038186803b158015613e3957600080fd5b505af4158015613e4d573d6000803e3d6000fd5b505050506040513d601f19601f82011682018060405250810190613e7191906153f7565b8251909150613efd57604051632142170760e11b81526001600160a01b037f000000000000000000000000000000000000000000000000000000000000000016906342842e0e90613eca9030908c9086906004016156c1565b600060405180830381600087803b158015613ee457600080fd5b505af1158015613ef8573d6000803e3d6000fd5b505050505b505b60405163a9059cbb60e01b81526001600160a01b037f0000000000000000000000000000000000000000000000000000000000000000169063a9059cbb90613ce69088908890600401615ace565b60038160ff166009811115613f5e57fe5b6009811115613f6957fe5b14156140155760405163a9059cbb60e01b81526001600160a01b037f0000000000000000000000000000000000000000000000000000000000000000169063a9059cbb90613fbd9087908790600401615ace565b602060405180830381600087803b158015613fd757600080fd5b505af1158015613feb573d6000803e3d6000fd5b505050506040513d601f19601f8201168201806040525081019061400f9190614b35565b50610edd565b60048160ff16600981111561402657fe5b600981111561403157fe5b14156140855760405163a9059cbb60e01b81526001600160a01b037f0000000000000000000000000000000000000000000000000000000000000000169063a9059cbb90613fbd9087908790600401615ace565b60058160ff16600981111561409657fe5b60098111156140a157fe5b1415614145576000828060200190518101906140bd9190615287565b8051602082015160408084015190516331a0854360e11b815293945073B53c2eE92A24B08521912e1687Bc8142a7E6a9EE936363410a8693613c68937f0000000000000000000000000000000000000000000000000000000000000000937f0000000000000000000000000000000000000000000000000000000000000000936004016159df565b60098160ff16600981111561415657fe5b600981111561416157fe5b1415610edd5760405163a9059cbb60e01b81526001600160a01b0386169063a9059cbb906141959087908790600401615ace565b602060405180830381600087803b1580156141af57600080fd5b505af11580156141c3573d6000803e3d6000fd5b505050506040513d601f19601f82011682018060405250810190613b4f9190614b35565b6000806000806141fa8560000151613b58565b919450925090506001600160a01b038084169083161060008061421e858786614749565b6001600160a01b031663128acb088b856142378f614787565b6000036001600160a01b038e161561424f578d614275565b8761426e5773fffd8963efd1fc6a506488495d951d5263988d25614275565b6401000276a45b8d6040516020016142869190615d64565b6040516020818303038152906040526040518663ffffffff1660e01b81526004016142b5959493929190615a10565b6040805180830381600087803b1580156142ce57600080fd5b505af11580156142e2573d6000803e3d6000fd5b505050506040513d601f19601f820116820180604052508101906143069190614ba0565b915091506000808461431c578284600003614322565b83836000035b915091508a6001600160a01b031660001415614344578c811461434457600080fd5b509b9a5050505050505050505050565b6000806000806143678560000151613b58565b919450925090506001600160a01b038083169084161060008061438b868686614749565b6001600160a01b031663128acb088b856143a48f614787565b6001600160a01b038e16156143b9578d6143df565b876143d85773fffd8963efd1fc6a506488495d951d5263988d256143df565b6401000276a45b8d6040516020016143f09190615d64565b6040516020818303038152906040526040518663ffffffff1660e01b815260040161441f959493929190615a10565b6040805180830381600087803b15801561443857600080fd5b505af115801561444c573d6000803e3d6000fd5b505050506040513d601f19601f820116820180604052508101906144709190614ba0565b915091508261447f5781614481565b805b6000039b9a5050505050505050505050565b6000807f00000000000000000000000000000000000000000000000000000000000000006001600160a01b0316638c64ea4a846040518263ffffffff1660e01b81526004016144e29190615dbd565b60806040518083038186803b1580156144fa57600080fd5b505afa15801561450e573d6000803e3d6000fd5b505050506040513d601f19601f8201168201806040525081019061453291906152dc565b606001516001600160801b03169150505b919050565b6000818260140110156145a2576040805162461bcd60e51b815260206004820152601260248201527f746f416464726573735f6f766572666c6f770000000000000000000000000000604482015290519081900360640190fd5b81601401835110156145fb576040805162461bcd60e51b815260206004820152601560248201527f746f416464726573735f6f75744f66426f756e64730000000000000000000000604482015290519081900360640190fd5b5001602001516c01000000000000000000000000900490565b60008182600301101561466e576040805162461bcd60e51b815260206004820152601160248201527f746f55696e7432345f6f766572666c6f77000000000000000000000000000000604482015290519081900360640190fd5b81600301835110156146c7576040805162461bcd60e51b815260206004820152601460248201527f746f55696e7432345f6f75744f66426f756e6473000000000000000000000000604482015290519081900360640190fd5b50016003015190565b6146d8614899565b826001600160a01b0316846001600160a01b031611156146f6579192915b50604080516060810182526001600160a01b03948516815292909316602083015262ffffff169181019190915290565b6000614732838361479d565b9050336001600160a01b03821614611cbd57600080fd5b600061477f7f000000000000000000000000000000000000000000000000000000000000000061477a8686866146d0565b61479d565b949350505050565b6000600160ff1b821061479957600080fd5b5090565b600081602001516001600160a01b031682600001516001600160a01b0316106147c557600080fd5b50805160208083015160409384015184516001600160a01b0394851681850152939091168385015262ffffff166060808401919091528351808403820181526080840185528051908301207fff0000000000000000000000000000000000000000000000000000000000000060a085015294901b6bffffffffffffffffffffffff191660a183015260b58201939093527fe34f199b19b2b4f47f68442619d555527d244f78a3297ea89325f843f87b8b5460d5808301919091528251808303909101815260f5909101909152805191012090565b604080516060810182526000808252602082018190529181019190915290565b803561454381615f16565b805161454381615f16565b803561454381615f2b565b805161454381615f2b565b600082601f8301126148f5578081fd5b813561490861490382615ec4565b615ea0565b81815284602083860101111561491c578283fd5b816020850160208301379081016020019190915292915050565b600082601f830112614946578081fd5b815161495461490382615ec4565b818152846020838601011115614968578283fd5b61477f826020830160208701615ee6565b803561454381615f46565b805161454381615f46565b600061016082840312156149a1578081fd5b50919050565b600060c082840312156149a1578081fd5b600060c082840312156149c9578081fd5b60405160c0810181811067ffffffffffffffff821117156149e657fe5b8060405250809150825181526020830151602082015260408301516040820152606083015160608201526080830151608082015260a0830151614a2881615f6a565b60a0919091015292915050565b803561454381615f55565b805161454381615f55565b803561454381615f6a565b805161454381615f6a565b803561454381615f7b565b805161454381615f7b565b600060208284031215614a88578081fd5b8135611d1c81615f16565b600060208284031215614aa4578081fd5b8151611d1c81615f16565b60008060008060808587031215614ac4578283fd5b8435614acf81615f16565b93506020850135614adf81615f16565b925060408501359150606085013567ffffffffffffffff811115614b01578182fd5b614b0d878288016148e5565b91505092959194509250565b600060208284031215614b2a578081fd5b8135611d1c81615f2b565b600060208284031215614b46578081fd5b8151611d1c81615f2b565b600060208284031215614b62578081fd5b813567ffffffffffffffff811115614b78578182fd5b61477f848285016148e5565b600060208284031215614b95578081fd5b8135611d1c81615f46565b60008060408385031215614bb2578182fd5b505080516020909101519092909150565b60008060008060608587031215614bd8578182fd5b8435935060208501359250604085013567ffffffffffffffff80821115614bfd578384fd5b818701915087601f830112614c10578384fd5b813581811115614c1e578485fd5b886020828501011115614c2f578485fd5b95989497505060200194505050565b60006101608284031215614c50578081fd5b611d1c838361498f565b600060608284031215614c6b578081fd5b6040516060810181811067ffffffffffffffff82111715614c8857fe5b604052825181526020830151614c9d81615f55565b60208201526040830151614cb081615f55565b60408201529392505050565b600060a08284031215614ccd578081fd5b60405160a0810181811067ffffffffffffffff82111715614cea57fe5b80604052508251815260208301516020820152604083015160408201526060830151614d1581615f55565b60608201526080830151614d2881615f55565b60808201529392505050565b600060208284031215614d45578081fd5b6040516020810181811067ffffffffffffffff82111715614d6257fe5b6040529151825250919050565b600060408284031215614d80578081fd5b6040516040810181811067ffffffffffffffff82111715614d9d57fe5b604052825181526020928301519281019290925250919050565b600060c08284031215614dc8578081fd5b611d1c83836149a7565b600060c08284031215614de3578081fd5b611d1c83836149b8565b600060208284031215614dfe578081fd5b815167ffffffffffffffff80821115614e15578283fd5b9083019060a08286031215614e28578283fd5b60405160a081018181108382111715614e3d57fe5b604052614e49836148c4565b8152614e57602084016148c4565b602082015260408301516040820152614e7260608401614a6c565b6060820152608083015182811115614e88578485fd5b614e9487828601614936565b60808301525095945050505050565b600061018082840312156149a1578081fd5b6000610180808385031215614ec8578182fd5b614ed181615ea0565b9050825181526020830151602082015260408301516040820152606083015160608201526080830151608082015260a083015160a082015260c083015160c082015260e083015160e0820152610100614f2b818501614a40565b90820152610120614f3d848201614a40565b90820152610140614f4f848201614a56565b90820152610160614f618482016148da565b908201529392505050565b6000610160808385031215614f7f578182fd5b614f8881615ea0565b9050614f93836148c4565b81526020830151602082015260408301516040820152606083015160608201526080830151608082015260a083015160a082015260c083015160c082015260e083015160e0820152610100808401518183015250610120614ff5818501614984565b90820152610140614f61848201614984565b600060a08284031215615018578081fd5b60405160a0810181811067ffffffffffffffff8211171561503557fe5b604052825161504381615f16565b8152602083015161505381615f16565b8060208301525060408301516040820152606083015160608201526080830151614d2881615f6a565b600060e0828403121561508d578081fd5b60405160e0810181811067ffffffffffffffff821117156150aa57fe5b6040526150b6836148c4565b81526020830151602082015260408301516040820152606083015160608201526080830151608082015260a083015160a082015260c083015160c08201528091505092915050565b600061014082840312156149a1578081fd5b6000610140808385031215615123578182fd5b61512c81615ea0565b9050615137836148c4565b8152615145602084016148c4565b602082015260408301516040820152606083015160608201526080830151608082015260a083015160a082015260c083015160c082015260e083015160e0820152610100615194818501614984565b90820152610120614f61848201614984565b60006101a082840312156149a1578081fd5b600060e082840312156149a1578081fd5b6000602082840312156151da578081fd5b813567ffffffffffffffff808211156151f1578283fd5b9083019060808286031215615204578283fd5b60405160808101818110838211171561521957fe5b60405282358281111561522a578485fd5b615236878286016148e5565b825250615245602084016148b9565b602082015261525660408401614a61565b604082015260608301358281111561526c578485fd5b615278878286016148e5565b60608301525095945050505050565b600060608284031215615298578081fd5b6040516060810181811067ffffffffffffffff821117156152b557fe5b80604052508251815260208301516020820152604083015160408201528091505092915050565b6000608082840312156152ed578081fd5b6040516080810181811067ffffffffffffffff8211171561530a57fe5b604052825161531881615f16565b8152602083015163ffffffff81168114615330578283fd5b602082015260408301516bffffffffffffffffffffffff81168114615353578283fd5b604082015261536460608401614a40565b60608201529392505050565b600060608284031215615381578081fd5b6040516060810181811067ffffffffffffffff8211171561539e57fe5b806040525082518152602083015160208201526040830151614cb081615f2b565b6000602082840312156153d0578081fd5b8135611d1c81615f55565b6000602082840312156153ec578081fd5b8135611d1c81615f6a565b600060208284031215615408578081fd5b5051919050565b60008060408385031215615421578182fd5b8251915060208084015167ffffffffffffffff80821115615440578384fd5b818601915086601f830112615453578384fd5b81518181111561545f57fe5b61546c8485830201615ea0565b81815284810190848601875b848110156154f557815187016040818e03601f1901121561549757898afd5b6040516040810181811089821117156154ac57fe5b604052818a01516154bc81615f39565b81526040820151888111156154cf578b8cfd5b6154dd8f8c83860101614936565b828c0152508552509287019290870190600101615478565b50979a909950975050505050505050565b6000806000806060858703121561551b578182fd5b8435935060208501359250604085013567ffffffffffffffff80821115615540578384fd5b818701915087601f830112615553578384fd5b813581811115615561578485fd5b8860208083028501011115614c2f578485fd5b6001600160a01b03169052565b15159052565b60008284528282602086013780602084860101526020601f19601f85011685010190509392505050565b600081518084526155c9816020860160208601615ee6565b601f01601f19169290920160200192915050565b60020b9052565b803582526020810135602083015260408101356040830152606081013560608301526080810135608083015260a081013561561e81615f6a565b62ffffff811660a0840152505050565b6001600160801b03169052565b62ffffff169052565b606093841b6bffffffffffffffffffffffff19908116825260e89390931b7fffffff0000000000000000000000000000000000000000000000000000000000166014820152921b166017820152602b0190565b9283526020830191909152604082015260600190565b6001600160a01b0391909116815260200190565b6001600160a01b039384168152919092166020820152604081019190915260600190565b6001600160a01b03968716815294861660208601529290941660408401526060830152608082019290925260a081019190915260c00190565b6001600160a01b0392831681529116602082015260400190565b6001600160a01b03878116825286811660208301528581166040830152841660608201526101e0810161577660808301615771866148b9565b615574565b615782602085016148b9565b61578f60a0840182615574565b50604084013560c0830152606084013560e083015261010060808501358184015261012060a08601358185015260c086013561014085015260e08601356101608501526157dd828701614979565b91506157ed6101808501836155dd565b6157f8818701614979565b9150506158096101a08401826155dd565b50611e566101c0830184615581565b6001600160a01b038781168252868116602083015285811660408301528416606082015282516101e0820190615852906080840190615574565b602084015161586460a0840182615574565b50604084015160c0830152606084015160e08301526080840151610100818185015260a08601519150610120828186015260c087015161014086015260e08701516101608601528187015192506158bf6101808601846155dd565b860151915061580990506101a08401826155dd565b60006101a0820190506001600160a01b03808a1683528089166020840152808816604084015280871660608401528560808401528085511660a084015250602084015160c0830152604084015160e08301526060840151610100830152608084015161012083015260a084015161014083015260c0840151610160830152615960610180830184615581565b98975050505050505050565b6000610120820190506001600160a01b0380861683528085166020840152808451166040840152506020830151606083015260408301516080830152606083015160a0830152608083015160c083015260a083015160020b60e083015260c083015160020b610100830152949350505050565b6001600160a01b03958616815293909416602084015260408301919091526060820152608081019190915260a00190565b60006001600160a01b038088168352861515602084015285604084015280851660608401525060a06080830152611e5660a08301846155b1565b60006001600160a01b03841682526040602083015261477f60408301846155b1565b600060e0820190506001600160a01b038516825283516020830152602084015160408301526040840151606083015260608401516001600160801b0380821660808501528060808701511660a0850152505082151560c0830152949350505050565b6001600160a01b03929092168252602082015260400190565b6001600160a01b0396909616865260208601949094526040850192909252600290810b60608501520b6080830152151560a082015260c00190565b7fffffffff0000000000000000000000000000000000000000000000000000000091909116815260200190565b918252602082015260400190565b815181526020808301516001600160a01b0316908201526040808301516001600160801b0390811691830191909152606092830151169181019190915260800190565b60c08101611cbd82846155e4565b6000602082526001600160a01b03808451166020840152806020850151166040840152506040830151606083015260ff6060840151166080830152608083015160a08084015261477f60c08401826155b1565b600061018082019050823582526020830135602083015260408301356040830152606083013560608301526080830135608083015260a083013560a083015260c083013560c083015260e083013560e0830152610100615c62818501614a35565b615c6e8285018261562e565b5050610120615c7e818501614a35565b615c8a8285018261562e565b5050610140615c9a818501614a4b565b615ca68285018261563b565b5050610160615cb68185016148cf565b615cc282850182615581565b505092915050565b6101608101615cdc82615771856148b9565b6020830135602083015260408301356040830152606083013560608301526080830135608083015260a083013560a083015260c083013560c083015260e083013560e0830152610100808401358184015250610120615d3c818501614979565b615d48828501826155dd565b5050610140615d58818501614979565b615cc2828501826155dd565b600060208252825160806020840152615d8060a08401826155b1565b90506001600160a01b03602085015116604084015260ff60408501511660608401526060840151601f19848303016080850152613b9f82826155b1565b90815260200190565b6000604080830186845260208281860152818683526060860190506060828802870101925087855b88811015615e9157878503605f190183528135368b9003603e19018112615e13578788fd5b8a018035615e2081615f39565b60088110615e2a57fe5b86528085013536829003601e19018112615e42578889fd5b8101803567ffffffffffffffff811115615e5a57898afd5b803603831315615e6857898afd5b8887890152615e7c89890182898501615587565b97505050928401925090830190600101615dee565b50929998505050505050505050565b60405181810167ffffffffffffffff81118282101715615ebc57fe5b604052919050565b600067ffffffffffffffff821115615ed857fe5b50601f01601f191660200190565b60005b83811015615f01578181015183820152602001615ee9565b83811115615f10576000848401525b50505050565b6001600160a01b0381168114611c5e57600080fd5b8015158114611c5e57600080fd5b60088110611c5e57600080fd5b8060020b8114611c5e57600080fd5b6001600160801b0381168114611c5e57600080fd5b62ffffff81168114611c5e57600080fd5b60ff81168114611c5e57600080fdfe536166654d6174683a206d756c7469706c69636174696f6e206f766572666c6f77a2646970667358221220564c27264bc33c078d9c75afb2f26fb0c092712e686cacc101aaeee9df569b6e64736f6c63430007060033",
  "deployedBytecode": "0x6080604052600436106101125760003560e01c8063a15db5c5116100a5578063d8fa26f011610074578063db661b7111610059578063db661b711461027a578063fa461e331461028f578063fc0c546a146102af57610119565b8063d8fa26f014610252578063d9d7858a1461026557610119565b8063a15db5c5146101e8578063bc638a7914610208578063c1c0e9c41461021b578063c45a01551461023d57610119565b80633ca8402b116100e15780633ca8402b1461018f5780634fc5864f146101af57806383b17e4d146101c2578063923247ae146101d557610119565b8063150b7a021461011e57806315d23b04146101545780632ef1f08214610169578063334cc3651461017c57610119565b3661011957005b600080fd5b34801561012a57600080fd5b5061013e610139366004614aaf565b6102c4565b60405161014b9190615b22565b60405180910390f35b6101676101623660046151a6565b6102d4565b005b610167610177366004615506565b610ab8565b61016761018a3660046150fe565b610c39565b34801561019b57600080fd5b506101676101aa3660046151b8565b610ee5565b6101676101bd366004614ea3565b611246565b6101676101d0366004614c3e565b611341565b6101676101e3366004614db7565b61139d565b3480156101f457600080fd5b50610167610203366004614b51565b611461565b610167610216366004614db7565b61167d565b34801561022757600080fd5b506102306117d6565b60405161014b91906156ad565b34801561024957600080fd5b506102306117fa565b610167610260366004614c3e565b61181e565b34801561027157600080fd5b50610230611ae8565b34801561028657600080fd5b50610230611b0c565b34801561029b57600080fd5b506101676102aa366004614bc3565b611b30565b3480156102bb57600080fd5b50610230611bd9565b630a85bd0160e11b949350505050565b6102dd34611bfd565b604051632142170760e11b81526001600160a01b037f000000000000000000000000000000000000000000000000000000000000000016906342842e0e9061033190339030906020870135906004016156c1565b600060405180830381600087803b15801561034b57600080fd5b505af115801561035f573d6000803e3d6000fd5b50506040805160a08101825260208086013582528583013590820152670de0b6b3a7640000818301526001600160801b0361010086013581166060830152610120860135166080820152905163760a3f2b60e11b81526000935073__$561e80098325da493156966792c25e3551$__925063ec147e5691610427917f000000000000000000000000000000000000000000000000000000000000000091907f000000000000000000000000000000000000000000000000000000000000000090600401615a6c565b604080518083038186803b15801561043e57600080fd5b505af4158015610452573d6000803e3d6000fd5b505050506040513d601f19601f820116820180604052508101906104769190614ba0565b50604051630725e4e160e31b815290915073__$561e80098325da493156966792c25e3551$__9063392f2708906105089033907f0000000000000000000000000000000000000000000000000000000000000000907f00000000000000000000000000000000000000000000000000000000000000009060009060208a013590670de0b6b3a7640000906004016156e5565b60006040518083038186803b15801561052057600080fd5b505af4158015610534573d6000803e3d6000fd5b505050506000807f0000000000000000000000000000000000000000000000000000000000000000156106515773__$561e80098325da493156966792c25e3551$__63b573fa8b6105886020870187614a77565b608087013560608801356105a46101608a016101408b01614b84565b6105b66101808b016101608c01614b84565b7f00000000000000000000000000000000000000000000000000000000000000006040518763ffffffff1660e01b81526004016105f896959493929190615ae7565b604080518083038186803b15801561060f57600080fd5b505af4158015610623573d6000803e3d6000fd5b505050506040513d601f19601f820116820180604052508101906106479190614ba0565b909250905061073c565b73__$561e80098325da493156966792c25e3551$__63b573fa8b6106786020870187614a77565b608087013560608801356106946101608a016101408b01614b84565b6106a66101808b016101608c01614b84565b7f00000000000000000000000000000000000000000000000000000000000000006040518763ffffffff1660e01b81526004016106e896959493929190615ae7565b604080518083038186803b1580156106ff57600080fd5b505af4158015610713573d6000803e3d6000fd5b505050506040513d601f19601f820116820180604052508101906107379190614ba0565b925090505b828111156107eb576107e67f00000000000000000000000000000000000000000000000000000000000000007f000000000000000000000000000000000000000000000000000000000000000061079b6101a0880161018089016153db565b6107a58588611c61565b6107cf670de0b6b3a76400006107c96107be898c611c61565b60e08d013590611cc3565b90611d23565b600460405180602001604052806000815250611d8a565b61088e565b8281101561088e5760006107ff8483611c61565b905061088b7f00000000000000000000000000000000000000000000000000000000000000007f00000000000000000000000000000000000000000000000000000000000000006108586101a089016101808a016153db565b84610873670de0b6b3a76400006107c960e08d013584611cc3565b60035b60405180602001604052806000815250611dee565b50505b73__$561e80098325da493156966792c25e3551$__63aee2533b7f00000000000000000000000000000000000000000000000000000000000000006108d66020880188614a77565b6040518060e00160405280336001600160a01b031681526020017f000000000000000000000000000000000000000000000000000000000000000061091b578661091d565b875b81526020017f000000000000000000000000000000000000000000000000000000000000000061094d578761094f565b865b815260a08a0135602082015260c08a0135604082015260600161097a6101608b016101408c01614b84565b60020b81526020016109946101808b016101608c01614b84565b60020b8152506040518463ffffffff1660e01b81526004016109b89392919061596c565b60206040518083038186803b1580156109d057600080fd5b505af41580156109e4573d6000803e3d6000fd5b505050506040513d601f19601f82011682018060405250810190610a0891906153f7565b506040516328bb252f60e11b815273__$561e80098325da493156966792c25e3551$__906351764a5e90610a82907f0000000000000000000000000000000000000000000000000000000000000000907f00000000000000000000000000000000000000000000000000000000000000009060040161571e565b60006040518083038186803b158015610a9a57600080fd5b505af4158015610aae573d6000803e3d6000fd5b5050505050505050565b610ac184611e61565b610aca34611bfd565b610b1a7f0000000000000000000000000000000000000000000000000000000000000000846008878686604051602001610b0693929190615dc6565b604051602081830303815290604052611f12565b6040516370a0823160e01b81526001600160a01b037f000000000000000000000000000000000000000000000000000000000000000016906370a0823190610b669030906004016156ad565b60206040518083038186803b158015610b7e57600080fd5b505afa158015610b92573d6000803e3d6000fd5b505050506040513d601f19601f82011682018060405250810190610bb691906153f7565b15610bc057600080fd5b6040516328bb252f60e11b815273__$561e80098325da493156966792c25e3551$__906351764a5e90610a82907f0000000000000000000000000000000000000000000000000000000000000000907f00000000000000000000000000000000000000000000000000000000000000009060040161571e565b604081013515610c5057610c508160400135611e61565b610c62608082013560a0830135611fe8565b3414610c6d57600080fd5b610c7634611bfd565b6040516308e6940f60e41b815260009073__$561e80098325da493156966792c25e3551$__90638e6940f090610d5a907f0000000000000000000000000000000000000000000000000000000000000000907f0000000000000000000000000000000000000000000000000000000000000000907f0000000000000000000000000000000000000000000000000000000000000000907f00000000000000000000000000000000000000000000000000000000000000009089907f000000000000000000000000000000000000000000000000000000000000000090600401615738565b604080518083038186803b158015610d7157600080fd5b505af4158015610d85573d6000803e3d6000fd5b505050506040513d601f19601f82011682018060405250810190610da99190614ba0565b5090506040820135610e3857604051632142170760e11b81526001600160a01b037f000000000000000000000000000000000000000000000000000000000000000016906342842e0e90610e05903090339086906004016156c1565b600060405180830381600087803b158015610e1f57600080fd5b505af1158015610e33573d6000803e3d6000fd5b505050505b6040516328bb252f60e11b815273__$561e80098325da493156966792c25e3551$__906351764a5e90610eb1907f0000000000000000000000000000000000000000000000000000000000000000907f00000000000000000000000000000000000000000000000000000000000000009060040161571e565b60006040518083038186803b158015610ec957600080fd5b505af4158015610edd573d6000803e3d6000fd5b505050505050565b604051632142170760e11b81526001600160a01b037f000000000000000000000000000000000000000000000000000000000000000016906342842e0e90610f3690339030908635906004016156c1565b600060405180830381600087803b158015610f5057600080fd5b505af1158015610f64573d6000803e3d6000fd5b50505050600073__$561e80098325da493156966792c25e3551$__63ec147e567f00000000000000000000000000000000000000000000000000000000000000006040518060a00160405280866000013581526020018660200135815260200186604001358152602001866060016020810190610fe191906153bf565b6001600160801b03168152602001610fff60a08801608089016153bf565b6001600160801b03168152507f00000000000000000000000000000000000000000000000000000000000000006040518463ffffffff1660e01b815260040161104a93929190615a6c565b604080518083038186803b15801561106157600080fd5b505af4158015611075573d6000803e3d6000fd5b505050506040513d601f19601f820116820180604052508101906110999190614ba0565b5060408051630725e4e160e31b815291925073__$561e80098325da493156966792c25e3551$__9163392f2708916111239133917f0000000000000000000000000000000000000000000000000000000000000000917f0000000000000000000000000000000000000000000000000000000000000000916000918a35918b0135906004016156e5565b60006040518083038186803b15801561113b57600080fd5b505af415801561114f573d6000803e3d6000fd5b505050506000811115610e38576111cc7f00000000000000000000000000000000000000000000000000000000000000007f00000000000000000000000000000000000000000000000000000000000000006111b160e0860160c087016153db565b84610873670de0b6b3a76400006107c960a08a013584611cc3565b506040516328bb252f60e11b815273__$561e80098325da493156966792c25e3551$__906351764a5e90610eb1907f0000000000000000000000000000000000000000000000000000000000000000907f00000000000000000000000000000000000000000000000000000000000000009060040161571e565b6112508135611e61565b61125934611bfd565b6112957f000000000000000000000000000000000000000000000000000000000000000060a0830135600784604051602001610b069190615c01565b6040516328bb252f60e11b815273__$561e80098325da493156966792c25e3551$__906351764a5e9061130e907f0000000000000000000000000000000000000000000000000000000000000000907f00000000000000000000000000000000000000000000000000000000000000009060040161571e565b60006040518083038186803b15801561132657600080fd5b505af415801561133a573d6000803e3d6000fd5b5050505050565b602081013515611358576113588160200135611e61565b61136134611bfd565b6112957f00000000000000000000000000000000000000000000000000000000000000006080830135600684604051602001610b069190615cca565b6113a78135611e61565b6113b5606082013534611fe8565b816080013511156113c557600080fd5b6113ce34611bfd565b6112957f00000000000000000000000000000000000000000000000000000000000000007f000000000000000000000000000000000000000000000000000000000000000061142360c0850160a086016153db565b61143560208601356040870135611fe8565b608086013560018760405160200161144d9190615ba0565b604051602081830303815290604052611d8a565b336001600160a01b037f0000000000000000000000000000000000000000000000000000000000000000161461149657600080fd5b6000818060200190518101906114ac9190614ded565b90507f00000000000000000000000000000000000000000000000000000000000000006001600160a01b0316630ecbcdab600083604001516040518363ffffffff1660e01b8152600401611501929190615b4f565b600060405180830381600087803b15801561151b57600080fd5b505af115801561152f573d6000803e3d6000fd5b5050505061155481600001518260200151836040015184606001518560800151612042565b80602001516001600160a01b031663095ea7b37f000000000000000000000000000000000000000000000000000000000000000083604001516040518363ffffffff1660e01b81526004016115aa929190615ace565b602060405180830381600087803b1580156115c457600080fd5b505af11580156115d8573d6000803e3d6000fd5b505050506040513d601f19601f820116820180604052508101906115fc9190614b35565b50604080820151905163d8aed14560e01b81526001600160a01b037f0000000000000000000000000000000000000000000000000000000000000000169163d8aed1459161164f91600091600401615b4f565b600060405180830381600087803b15801561166957600080fd5b505af1158015610edd573d6000803e3d6000fd5b80351561168e5761168e8135611e61565b61169734611bfd565b6040516323b872dd60e01b81526001600160a01b037f000000000000000000000000000000000000000000000000000000000000000016906323b872dd906116eb90339030906060870135906004016156c1565b602060405180830381600087803b15801561170557600080fd5b505af1158015611719573d6000803e3d6000fd5b505050506040513d601f19601f8201168201806040525081019061173d9190614b35565b50600061175260208301356060840135611fe8565b90506111cc7f00000000000000000000000000000000000000000000000000000000000000007f00000000000000000000000000000000000000000000000000000000000000006117a960c0860160a087016153db565b8460808701356002886040516020016117c29190615ba0565b604051602081830303815290604052611dee565b7f000000000000000000000000000000000000000000000000000000000000000081565b7f000000000000000000000000000000000000000000000000000000000000000081565b6118288135611e61565b604051632142170760e11b81526001600160a01b037f000000000000000000000000000000000000000000000000000000000000000016906342842e0e9061187c90339030906020870135906004016156c1565b600060405180830381600087803b15801561189657600080fd5b505af11580156118aa573d6000803e3d6000fd5b505050506118b734611bfd565b600073__$561e80098325da493156966792c25e3551$__63ec147e567f00000000000000000000000000000000000000000000000000000000000000006040518060a001604052808660200135815260200186604001358152602001866060013581526020018660e001602081019061193091906153bf565b6001600160801b03168152602001611950610120880161010089016153bf565b6001600160801b03168152507f00000000000000000000000000000000000000000000000000000000000000006040518463ffffffff1660e01b815260040161199b93929190615a6c565b604080518083038186803b1580156119b257600080fd5b505af41580156119c6573d6000803e3d6000fd5b505050506040513d601f19601f820116820180604052508101906119ea9190614ba0565b50604051630725e4e160e31b815290915073__$561e80098325da493156966792c25e3551$__9063392f270890611a789033907f0000000000000000000000000000000000000000000000000000000000000000907f00000000000000000000000000000000000000000000000000000000000000009060009060208a01359060608b0135906004016156e5565b60006040518083038186803b158015611a9057600080fd5b505af4158015611aa4573d6000803e3d6000fd5b50610e389250508335905082608085013560a086013560c0870135611ad161014089016101208a016153db565b611ae36101608a016101408b01614b19565b6138b5565b7f000000000000000000000000000000000000000000000000000000000000000081565b7f000000000000000000000000000000000000000000000000000000000000000081565b6000841380611b3f5750600083135b611b4857600080fd5b6000611b56828401846151c9565b90506000806000611b6a8460000151613b58565b9250925092506000611b9e7f0000000000000000000000000000000000000000000000000000000000000000858585613b89565b90506000808a13611baf5788611bb1565b895b9050611bcd86602001518684848a606001518b60400151613ba8565b50505050505050505050565b7f000000000000000000000000000000000000000000000000000000000000000081565b8015611c5e577f00000000000000000000000000000000000000000000000000000000000000006001600160a01b031663d0e30db0826040518263ffffffff1660e01b81526004016000604051808303818588803b15801561166957600080fd5b50565b600082821115611cb8576040805162461bcd60e51b815260206004820152601e60248201527f536166654d6174683a207375627472616374696f6e206f766572666c6f770000604482015290519081900360640190fd5b508082035b92915050565b600082611cd257506000611cbd565b82820282848281611cdf57fe5b0414611d1c5760405162461bcd60e51b8152600401808060200182810382526021815260200180615f8b6021913960400191505060405180910390fd5b9392505050565b6000808211611d79576040805162461bcd60e51b815260206004820152601a60248201527f536166654d6174683a206469766973696f6e206279207a65726f000000000000604482015290519081900360640190fd5b818381611d8257fe5b049392505050565b6000611ddf8530600060405180608001604052808c8c8f604051602001611db393929190615644565b60408051601f1981840301815291815290825233602083015260ff8a16908201526060018790526141e7565b905083811115610aae57600080fd5b600080611e448630600060405180608001604052808e8d8f604051602001611e1893929190615644565b60408051601f1981840301815291815290825233602083015260ff8b1690820152606001889052614354565b905084811015611e5357600080fd5b90505b979650505050505050565b6040516331a9108f60e11b815233907f00000000000000000000000000000000000000000000000000000000000000006001600160a01b031690636352211e90611eaf908590600401615dbd565b60206040518083038186803b158015611ec757600080fd5b505afa158015611edb573d6000803e3d6000fd5b505050506040513d601f19601f82011682018060405250810190611eff9190614a93565b6001600160a01b031614611c5e57600080fd5b7f00000000000000000000000000000000000000000000000000000000000000006001600160a01b03166389b7b7a6306040518060a00160405280336001600160a01b03168152602001886001600160a01b031681526020018781526020018660ff16815260200185815250604051602001611f8e9190615bae565b6040516020818303038152906040526040518363ffffffff1660e01b8152600401611fba929190615a4a565b600060405180830381600087803b158015611fd457600080fd5b505af1158015610aae573d6000803e3d6000fd5b600082820183811015611d1c576040805162461bcd60e51b815260206004820152601b60248201527f536166654d6174683a206164646974696f6e206f766572666c6f770000000000604482015290519081900360640190fd5b60068260ff16600981111561205357fe5b600981111561205e57fe5b14156124165760008180602001905181019061207a9190614f6c565b905060008073__$561e80098325da493156966792c25e3551$__638e6940f07f00000000000000000000000000000000000000000000000000000000000000007f00000000000000000000000000000000000000000000000000000000000000007f00000000000000000000000000000000000000000000000000000000000000007f0000000000000000000000000000000000000000000000000000000000000000604051806101400160405280306001600160a01b031681526020018a600001516001600160a01b031681526020018a6020015181526020018a6040015181526020018a6060015181526020018a60a0015181526020018a60e0015181526020018a610100015181526020018a610120015160020b81526020018a610140015160020b8152507f00000000000000000000000000000000000000000000000000000000000000006040518763ffffffff1660e01b81526004016121e496959493929190615818565b604080518083038186803b1580156121fb57600080fd5b505af415801561220f573d6000803e3d6000fd5b505050506040513d601f19601f820116820180604052508101906122339190614ba0565b6040516348dc69a560e11b815291935091506001600160a01b037f000000000000000000000000000000000000000000000000000000000000000016906391b8d34a906122869085908590600401615b4f565b600060405180830381600087803b1580156122a057600080fd5b505af11580156122b4573d6000803e3d6000fd5b5050505073__$561e80098325da493156966792c25e3551$__6363410a867f00000000000000000000000000000000000000000000000000000000000000007f000000000000000000000000000000000000000000000000000000000000000085600061232e8960c001518d611fe890919063ffffffff16565b6040518663ffffffff1660e01b815260040161234e9594939291906159df565b60006040518083038186803b15801561236657600080fd5b505af415801561237a573d6000803e3d6000fd5b5050505082602001516000141561240e57604051632142170760e11b81526001600160a01b037f000000000000000000000000000000000000000000000000000000000000000016906342842e0e906123db9030908c9087906004016156c1565b600060405180830381600087803b1580156123f557600080fd5b505af1158015612409573d6000803e3d6000fd5b505050505b50505061133a565b60078260ff16600981111561242757fe5b600981111561243257fe5b14156127eb5760008180602001905181019061244e9190614eb5565b604051632e1a7d4d60e01b81529091506001600160a01b037f00000000000000000000000000000000000000000000000000000000000000001690632e1a7d4d9061249d908790600401615dbd565b600060405180830381600087803b1580156124b757600080fd5b505af11580156124cb573d6000803e3d6000fd5b5050825160405163b6b55f2560e01b81526001600160a01b037f000000000000000000000000000000000000000000000000000000000000000016935063b6b55f259250879161251d91600401615dbd565b6000604051808303818588803b15801561253657600080fd5b505af115801561254a573d6000803e3d6000fd5b5050835160405163713d517f60e01b81526001600160a01b037f000000000000000000000000000000000000000000000000000000000000000016945063713d517f935061259b9250600401615dbd565b600060405180830381600087803b1580156125b557600080fd5b505af11580156125c9573d6000803e3d6000fd5b50505050600073__$561e80098325da493156966792c25e3551$__63ec147e567f00000000000000000000000000000000000000000000000000000000000000006040518060a001604052808660200151815260200186604001518152602001866060015181526020018661010001516001600160801b031681526020018661012001516001600160801b03168152507f00000000000000000000000000000000000000000000000000000000000000006040518463ffffffff1660e01b815260040161269893929190615a6c565b604080518083038186803b1580156126af57600080fd5b505af41580156126c3573d6000803e3d6000fd5b505050506040513d601f19601f820116820180604052508101906126e79190614ba0565b50825160208401516060850151604051630725e4e160e31b815293945073__$561e80098325da493156966792c25e3551$__9363392f270893612775938d937f0000000000000000000000000000000000000000000000000000000000000000937f0000000000000000000000000000000000000000000000000000000000000000939291906004016156e5565b60006040518083038186803b15801561278d57600080fd5b505af41580156127a1573d6000803e3d6000fd5b505050506127e482600001518284608001516127ce8660a001518760c00151611fe890919063ffffffff16565b8660e001518761014001518861016001516138b5565b505061133a565b60088260ff1660098111156127fc57fe5b600981111561280757fe5b141561133a5760008082806020019051810190612824919061540f565b604051632e1a7d4d60e01b815291935091506001600160a01b037f00000000000000000000000000000000000000000000000000000000000000001690632e1a7d4d90612875908890600401615dbd565b600060405180830381600087803b15801561288f57600080fd5b505af11580156128a3573d6000803e3d6000fd5b505060405163b6b55f2560e01b81526001600160a01b037f000000000000000000000000000000000000000000000000000000000000000016925063b6b55f25915087906128f5908690600401615dbd565b6000604051808303818588803b15801561290e57600080fd5b505af1158015612922573d6000803e3d6000fd5b505060405163713d517f60e01b81526001600160a01b037f000000000000000000000000000000000000000000000000000000000000000016935063713d517f925061297391508590600401615dbd565b600060405180830381600087803b15801561298d57600080fd5b505af11580156129a1573d6000803e3d6000fd5b5050505060005b81518110156137fb5760008282815181106129bf57fe5b60200260200101516000015160078111156129d657fe5b1415612b895760008282815181106129ea57fe5b602002602001015160200151806020019051810190612a09919061507c565b8051604051637a04dbd760e01b815291925073__$561e80098325da493156966792c25e3551$__91637a04dbd791612ad0917f0000000000000000000000000000000000000000000000000000000000000000917f0000000000000000000000000000000000000000000000000000000000000000917f000000000000000000000000000000000000000000000000000000000000000091908b9089907f0000000000000000000000000000000000000000000000000000000000000000906004016158d4565b60006040518083038186803b158015612ae857600080fd5b505af4158015612afc573d6000803e3d6000fd5b5050505060208101516040516348dc69a560e11b81527f00000000000000000000000000000000000000000000000000000000000000006001600160a01b0316916391b8d34a91612b51918891600401615b4f565b600060405180830381600087803b158015612b6b57600080fd5b505af1158015612b7f573d6000803e3d6000fd5b50505050506137f3565b6001828281518110612b9757fe5b6020026020010151600001516007811115612bae57fe5b1415612dad576000828281518110612bc257fe5b602002602001015160200151806020019051810190612be19190614cbc565b905073__$561e80098325da493156966792c25e3551$__63ec147e567f00000000000000000000000000000000000000000000000000000000000000006040518060a0016040528085600001518152602001856020015181526020018560400151815260200185606001516001600160801b0316815260200185608001516001600160801b03168152507f00000000000000000000000000000000000000000000000000000000000000006040518463ffffffff1660e01b8152600401612caa93929190615a6c565b604080518083038186803b158015612cc157600080fd5b505af4158015612cd5573d6000803e3d6000fd5b505050506040513d601f19601f82011682018060405250810190612cf99190614ba0565b505080516040808301519051630725e4e160e31b815273__$561e80098325da493156966792c25e3551$__9263392f270892612d81928e927f0000000000000000000000000000000000000000000000000000000000000000927f0000000000000000000000000000000000000000000000000000000000000000928c9291906004016156e5565b60006040518083038186803b158015612d9957600080fd5b505af4158015612b7f573d6000803e3d6000fd5b6002828281518110612dbb57fe5b6020026020010151600001516007811115612dd257fe5b1415612f95576000828281518110612de657fe5b602002602001015160200151806020019051810190612e059190614d6f565b905060007f00000000000000000000000000000000000000000000000000000000000000006001600160a01b03166370a08231306040518263ffffffff1660e01b8152600401612e5591906156ad565b60206040518083038186803b158015612e6d57600080fd5b505afa158015612e81573d6000803e3d6000fd5b505050506040513d601f19601f82011682018060405250810190612ea591906153f7565b90508160200151811015612ebb57602082018190525b81516020830151604051639f70f9e560e01b815273__$561e80098325da493156966792c25e3551$__92639f70f9e592612f3d927f0000000000000000000000000000000000000000000000000000000000000000927f0000000000000000000000000000000000000000000000000000000000000000928c926004016159df565b60206040518083038186803b158015612f5557600080fd5b505af4158015612f69573d6000803e3d6000fd5b505050506040513d601f19601f82011682018060405250810190612f8d91906153f7565b5050506137f3565b6003828281518110612fa357fe5b6020026020010151600001516007811115612fba57fe5b1415613232576000828281518110612fce57fe5b602002602001015160200151806020019051810190612fed9190615370565b905060007f00000000000000000000000000000000000000000000000000000000000000006001600160a01b03166370a08231306040518263ffffffff1660e01b815260040161303d91906156ad565b60206040518083038186803b15801561305557600080fd5b505afa158015613069573d6000803e3d6000fd5b505050506040513d601f19601f8201168201806040525081019061308d91906153f7565b905081604001511561316b5760006130a486614493565b9050818110156130b2578091505b60208301516040516331a0854360e11b815273__$561e80098325da493156966792c25e3551$__916363410a8691613135917f0000000000000000000000000000000000000000000000000000000000000000917f0000000000000000000000000000000000000000000000000000000000000000918c918991906004016159df565b60006040518083038186803b15801561314d57600080fd5b505af4158015613161573d6000803e3d6000fd5b505050505061322b565b8151811015613178578082525b815160208301516040516331a0854360e11b815273__$561e80098325da493156966792c25e3551$__926363410a86926131fa927f0000000000000000000000000000000000000000000000000000000000000000927f0000000000000000000000000000000000000000000000000000000000000000928c926004016159df565b60006040518083038186803b15801561321257600080fd5b505af4158015613226573d6000803e3d6000fd5b505050505b50506137f3565b600482828151811061324057fe5b602002602001015160000151600781111561325757fe5b141561343f57600082828151811061326b57fe5b60200260200101516020015180602001905181019061328a9190615110565b9050600073__$561e80098325da493156966792c25e3551$__638e6940f07f00000000000000000000000000000000000000000000000000000000000000007f00000000000000000000000000000000000000000000000000000000000000007f00000000000000000000000000000000000000000000000000000000000000007f0000000000000000000000000000000000000000000000000000000000000000877f00000000000000000000000000000000000000000000000000000000000000006040518763ffffffff1660e01b815260040161336f96959493929190615818565b604080518083038186803b15801561338657600080fd5b505af415801561339a573d6000803e3d6000fd5b505050506040513d601f19601f820116820180604052508101906133be9190614ba0565b6040516348dc69a560e11b815291965091506001600160a01b037f000000000000000000000000000000000000000000000000000000000000000016906391b8d34a906134119088908590600401615b4f565b600060405180830381600087803b15801561342b57600080fd5b505af1158015613226573d6000803e3d6000fd5b600582828151811061344d57fe5b602002602001015160000151600781111561346457fe5b14156135e157600082828151811061347857fe5b6020026020010151602001518060200190518101906134979190615007565b90507f00000000000000000000000000000000000000000000000000000000000000006001600160a01b031681600001516001600160a01b031614801561351357507f00000000000000000000000000000000000000000000000000000000000000006001600160a01b031681602001516001600160a01b0316145b8061359357507f00000000000000000000000000000000000000000000000000000000000000006001600160a01b031681600001516001600160a01b031614801561359357507f00000000000000000000000000000000000000000000000000000000000000006001600160a01b031681602001516001600160a01b0316145b61359c57600080fd5b61322b81600001518260200151836080015184604001516135da670de0b6b3a76400006107c988604001518960600151611cc390919063ffffffff16565b6009610876565b60068282815181106135ef57fe5b602002602001015160000151600781111561360657fe5b141561371557600082828151811061361a57fe5b6020026020010151602001518060200190518101906136399190614c5a565b604080516080810182528251815230602080830191909152830180516001600160801b03908116838501529051166060820152905163fc6f786560e01b8152919250907f00000000000000000000000000000000000000000000000000000000000000006001600160a01b03169063fc6f7865906136bb908490600401615b5d565b6040805180830381600087803b1580156136d457600080fd5b505af11580156136e8573d6000803e3d6000fd5b505050506040513d601f19601f8201168201806040525081019061370c9190614ba0565b505050506137f3565b600782828151811061372357fe5b602002602001015160000151600781111561373a57fe5b14156137f357600082828151811061374e57fe5b60200260200101516020015180602001905181019061376d9190614d34565b80516040516348dc69a560e11b81529192506001600160a01b037f000000000000000000000000000000000000000000000000000000000000000016916391b8d34a916137bf91889190600401615b4f565b600060405180830381600087803b1580156137d957600080fd5b505af11580156137ed573d6000803e3d6000fd5b50505050505b6001016129a8565b506040516331a0854360e11b815273__$561e80098325da493156966792c25e3551$__906363410a869061387c907f0000000000000000000000000000000000000000000000000000000000000000907f00000000000000000000000000000000000000000000000000000000000000009087906000908c906004016159df565b60006040518083038186803b15801561389457600080fd5b505af41580156138a8573d6000803e3d6000fd5b5050505050505050505050565b80156139895760006138c688614493565b9050868110156138d4578096505b6040516331a0854360e11b815273__$561e80098325da493156966792c25e3551$__906363410a8690613953907f0000000000000000000000000000000000000000000000000000000000000000907f0000000000000000000000000000000000000000000000000000000000000000908d908d908c906004016159df565b60006040518083038186803b15801561396b57600080fd5b505af415801561397f573d6000803e3d6000fd5b5050505050613b46565b84861015613a1957600061399d8688611c61565b9050613a137f00000000000000000000000000000000000000000000000000000000000000007f000000000000000000000000000000000000000000000000000000000000000085846139fc670de0b6b3a76400006107c98b84611cc3565b60058e8d8d60405160200161144d93929190615697565b50613b46565b6040516331a0854360e11b815273__$561e80098325da493156966792c25e3551$__906363410a8690613a98907f0000000000000000000000000000000000000000000000000000000000000000907f0000000000000000000000000000000000000000000000000000000000000000908c908b908b906004016159df565b60006040518083038186803b158015613ab057600080fd5b505af4158015613ac4573d6000803e3d6000fd5b505050506000613add8688611c6190919063ffffffff16565b90508015613b4457613b427f00000000000000000000000000000000000000000000000000000000000000007f00000000000000000000000000000000000000000000000000000000000000008584610873670de0b6b3a76400006107c98b84611cc3565b505b505b613b4f47611bfd565b50505050505050565b60008080613b668482614548565b9250613b73846014614614565b9050613b80846017614548565b91509193909250565b6000613b9f85613b9a8686866146d0565b614726565b95945050505050565b60018160ff166009811115613bb957fe5b6009811115613bc457fe5b1415613d3f57600082806020019051810190613be09190614dd2565b8051602082015160608301516040516331a0854360e11b815293945073__$561e80098325da493156966792c25e3551$__936363410a8693613c68937f0000000000000000000000000000000000000000000000000000000000000000937f0000000000000000000000000000000000000000000000000000000000000000936004016159df565b60006040518083038186803b158015613c8057600080fd5b505af4158015613c94573d6000803e3d6000fd5b505060405163a9059cbb60e01b81526001600160a01b037f000000000000000000000000000000000000000000000000000000000000000016925063a9059cbb9150613ce69088908890600401615ace565b602060405180830381600087803b158015613d0057600080fd5b505af1158015613d14573d6000803e3d6000fd5b505050506040513d601f19601f82011682018060405250810190613d389190614b35565b5050610edd565b60028160ff166009811115613d5057fe5b6009811115613d5b57fe5b1415613f4d57600082806020019051810190613d779190614dd2565b9050600081602001511180613d90575060008160400151115b15613eff57805160208201516040808401519051639f70f9e560e01b815260009373__$561e80098325da493156966792c25e3551$__93639f70f9e593613e21937f0000000000000000000000000000000000000000000000000000000000000000937f000000000000000000000000000000000000000000000000000000000000000093909290916004016159df565b60206040518083038186803b158015613e3957600080fd5b505af4158015613e4d573d6000803e3d6000fd5b505050506040513d601f19601f82011682018060405250810190613e7191906153f7565b8251909150613efd57604051632142170760e11b81526001600160a01b037f000000000000000000000000000000000000000000000000000000000000000016906342842e0e90613eca9030908c9086906004016156c1565b600060405180830381600087803b158015613ee457600080fd5b505af1158015613ef8573d6000803e3d6000fd5b505050505b505b60405163a9059cbb60e01b81526001600160a01b037f0000000000000000000000000000000000000000000000000000000000000000169063a9059cbb90613ce69088908890600401615ace565b60038160ff166009811115613f5e57fe5b6009811115613f6957fe5b14156140155760405163a9059cbb60e01b81526001600160a01b037f0000000000000000000000000000000000000000000000000000000000000000169063a9059cbb90613fbd9087908790600401615ace565b602060405180830381600087803b158015613fd757600080fd5b505af1158015613feb573d6000803e3d6000fd5b505050506040513d601f19601f8201168201806040525081019061400f9190614b35565b50610edd565b60048160ff16600981111561402657fe5b600981111561403157fe5b14156140855760405163a9059cbb60e01b81526001600160a01b037f0000000000000000000000000000000000000000000000000000000000000000169063a9059cbb90613fbd9087908790600401615ace565b60058160ff16600981111561409657fe5b60098111156140a157fe5b1415614145576000828060200190518101906140bd9190615287565b8051602082015160408084015190516331a0854360e11b815293945073__$561e80098325da493156966792c25e3551$__936363410a8693613c68937f0000000000000000000000000000000000000000000000000000000000000000937f0000000000000000000000000000000000000000000000000000000000000000936004016159df565b60098160ff16600981111561415657fe5b600981111561416157fe5b1415610edd5760405163a9059cbb60e01b81526001600160a01b0386169063a9059cbb906141959087908790600401615ace565b602060405180830381600087803b1580156141af57600080fd5b505af11580156141c3573d6000803e3d6000fd5b505050506040513d601f19601f82011682018060405250810190613b4f9190614b35565b6000806000806141fa8560000151613b58565b919450925090506001600160a01b038084169083161060008061421e858786614749565b6001600160a01b031663128acb088b856142378f614787565b6000036001600160a01b038e161561424f578d614275565b8761426e5773fffd8963efd1fc6a506488495d951d5263988d25614275565b6401000276a45b8d6040516020016142869190615d64565b6040516020818303038152906040526040518663ffffffff1660e01b81526004016142b5959493929190615a10565b6040805180830381600087803b1580156142ce57600080fd5b505af11580156142e2573d6000803e3d6000fd5b505050506040513d601f19601f820116820180604052508101906143069190614ba0565b915091506000808461431c578284600003614322565b83836000035b915091508a6001600160a01b031660001415614344578c811461434457600080fd5b509b9a5050505050505050505050565b6000806000806143678560000151613b58565b919450925090506001600160a01b038083169084161060008061438b868686614749565b6001600160a01b031663128acb088b856143a48f614787565b6001600160a01b038e16156143b9578d6143df565b876143d85773fffd8963efd1fc6a506488495d951d5263988d256143df565b6401000276a45b8d6040516020016143f09190615d64565b6040516020818303038152906040526040518663ffffffff1660e01b815260040161441f959493929190615a10565b6040805180830381600087803b15801561443857600080fd5b505af115801561444c573d6000803e3d6000fd5b505050506040513d601f19601f820116820180604052508101906144709190614ba0565b915091508261447f5781614481565b805b6000039b9a5050505050505050505050565b6000807f00000000000000000000000000000000000000000000000000000000000000006001600160a01b0316638c64ea4a846040518263ffffffff1660e01b81526004016144e29190615dbd565b60806040518083038186803b1580156144fa57600080fd5b505afa15801561450e573d6000803e3d6000fd5b505050506040513d601f19601f8201168201806040525081019061453291906152dc565b606001516001600160801b03169150505b919050565b6000818260140110156145a2576040805162461bcd60e51b815260206004820152601260248201527f746f416464726573735f6f766572666c6f770000000000000000000000000000604482015290519081900360640190fd5b81601401835110156145fb576040805162461bcd60e51b815260206004820152601560248201527f746f416464726573735f6f75744f66426f756e64730000000000000000000000604482015290519081900360640190fd5b5001602001516c01000000000000000000000000900490565b60008182600301101561466e576040805162461bcd60e51b815260206004820152601160248201527f746f55696e7432345f6f766572666c6f77000000000000000000000000000000604482015290519081900360640190fd5b81600301835110156146c7576040805162461bcd60e51b815260206004820152601460248201527f746f55696e7432345f6f75744f66426f756e6473000000000000000000000000604482015290519081900360640190fd5b50016003015190565b6146d8614899565b826001600160a01b0316846001600160a01b031611156146f6579192915b50604080516060810182526001600160a01b03948516815292909316602083015262ffffff169181019190915290565b6000614732838361479d565b9050336001600160a01b03821614611cbd57600080fd5b600061477f7f000000000000000000000000000000000000000000000000000000000000000061477a8686866146d0565b61479d565b949350505050565b6000600160ff1b821061479957600080fd5b5090565b600081602001516001600160a01b031682600001516001600160a01b0316106147c557600080fd5b50805160208083015160409384015184516001600160a01b0394851681850152939091168385015262ffffff166060808401919091528351808403820181526080840185528051908301207fff0000000000000000000000000000000000000000000000000000000000000060a085015294901b6bffffffffffffffffffffffff191660a183015260b58201939093527fe34f199b19b2b4f47f68442619d555527d244f78a3297ea89325f843f87b8b5460d5808301919091528251808303909101815260f5909101909152805191012090565b604080516060810182526000808252602082018190529181019190915290565b803561454381615f16565b805161454381615f16565b803561454381615f2b565b805161454381615f2b565b600082601f8301126148f5578081fd5b813561490861490382615ec4565b615ea0565b81815284602083860101111561491c578283fd5b816020850160208301379081016020019190915292915050565b600082601f830112614946578081fd5b815161495461490382615ec4565b818152846020838601011115614968578283fd5b61477f826020830160208701615ee6565b803561454381615f46565b805161454381615f46565b600061016082840312156149a1578081fd5b50919050565b600060c082840312156149a1578081fd5b600060c082840312156149c9578081fd5b60405160c0810181811067ffffffffffffffff821117156149e657fe5b8060405250809150825181526020830151602082015260408301516040820152606083015160608201526080830151608082015260a0830151614a2881615f6a565b60a0919091015292915050565b803561454381615f55565b805161454381615f55565b803561454381615f6a565b805161454381615f6a565b803561454381615f7b565b805161454381615f7b565b600060208284031215614a88578081fd5b8135611d1c81615f16565b600060208284031215614aa4578081fd5b8151611d1c81615f16565b60008060008060808587031215614ac4578283fd5b8435614acf81615f16565b93506020850135614adf81615f16565b925060408501359150606085013567ffffffffffffffff811115614b01578182fd5b614b0d878288016148e5565b91505092959194509250565b600060208284031215614b2a578081fd5b8135611d1c81615f2b565b600060208284031215614b46578081fd5b8151611d1c81615f2b565b600060208284031215614b62578081fd5b813567ffffffffffffffff811115614b78578182fd5b61477f848285016148e5565b600060208284031215614b95578081fd5b8135611d1c81615f46565b60008060408385031215614bb2578182fd5b505080516020909101519092909150565b60008060008060608587031215614bd8578182fd5b8435935060208501359250604085013567ffffffffffffffff80821115614bfd578384fd5b818701915087601f830112614c10578384fd5b813581811115614c1e578485fd5b886020828501011115614c2f578485fd5b95989497505060200194505050565b60006101608284031215614c50578081fd5b611d1c838361498f565b600060608284031215614c6b578081fd5b6040516060810181811067ffffffffffffffff82111715614c8857fe5b604052825181526020830151614c9d81615f55565b60208201526040830151614cb081615f55565b60408201529392505050565b600060a08284031215614ccd578081fd5b60405160a0810181811067ffffffffffffffff82111715614cea57fe5b80604052508251815260208301516020820152604083015160408201526060830151614d1581615f55565b60608201526080830151614d2881615f55565b60808201529392505050565b600060208284031215614d45578081fd5b6040516020810181811067ffffffffffffffff82111715614d6257fe5b6040529151825250919050565b600060408284031215614d80578081fd5b6040516040810181811067ffffffffffffffff82111715614d9d57fe5b604052825181526020928301519281019290925250919050565b600060c08284031215614dc8578081fd5b611d1c83836149a7565b600060c08284031215614de3578081fd5b611d1c83836149b8565b600060208284031215614dfe578081fd5b815167ffffffffffffffff80821115614e15578283fd5b9083019060a08286031215614e28578283fd5b60405160a081018181108382111715614e3d57fe5b604052614e49836148c4565b8152614e57602084016148c4565b602082015260408301516040820152614e7260608401614a6c565b6060820152608083015182811115614e88578485fd5b614e9487828601614936565b60808301525095945050505050565b600061018082840312156149a1578081fd5b6000610180808385031215614ec8578182fd5b614ed181615ea0565b9050825181526020830151602082015260408301516040820152606083015160608201526080830151608082015260a083015160a082015260c083015160c082015260e083015160e0820152610100614f2b818501614a40565b90820152610120614f3d848201614a40565b90820152610140614f4f848201614a56565b90820152610160614f618482016148da565b908201529392505050565b6000610160808385031215614f7f578182fd5b614f8881615ea0565b9050614f93836148c4565b81526020830151602082015260408301516040820152606083015160608201526080830151608082015260a083015160a082015260c083015160c082015260e083015160e0820152610100808401518183015250610120614ff5818501614984565b90820152610140614f61848201614984565b600060a08284031215615018578081fd5b60405160a0810181811067ffffffffffffffff8211171561503557fe5b604052825161504381615f16565b8152602083015161505381615f16565b8060208301525060408301516040820152606083015160608201526080830151614d2881615f6a565b600060e0828403121561508d578081fd5b60405160e0810181811067ffffffffffffffff821117156150aa57fe5b6040526150b6836148c4565b81526020830151602082015260408301516040820152606083015160608201526080830151608082015260a083015160a082015260c083015160c08201528091505092915050565b600061014082840312156149a1578081fd5b6000610140808385031215615123578182fd5b61512c81615ea0565b9050615137836148c4565b8152615145602084016148c4565b602082015260408301516040820152606083015160608201526080830151608082015260a083015160a082015260c083015160c082015260e083015160e0820152610100615194818501614984565b90820152610120614f61848201614984565b60006101a082840312156149a1578081fd5b600060e082840312156149a1578081fd5b6000602082840312156151da578081fd5b813567ffffffffffffffff808211156151f1578283fd5b9083019060808286031215615204578283fd5b60405160808101818110838211171561521957fe5b60405282358281111561522a578485fd5b615236878286016148e5565b825250615245602084016148b9565b602082015261525660408401614a61565b604082015260608301358281111561526c578485fd5b615278878286016148e5565b60608301525095945050505050565b600060608284031215615298578081fd5b6040516060810181811067ffffffffffffffff821117156152b557fe5b80604052508251815260208301516020820152604083015160408201528091505092915050565b6000608082840312156152ed578081fd5b6040516080810181811067ffffffffffffffff8211171561530a57fe5b604052825161531881615f16565b8152602083015163ffffffff81168114615330578283fd5b602082015260408301516bffffffffffffffffffffffff81168114615353578283fd5b604082015261536460608401614a40565b60608201529392505050565b600060608284031215615381578081fd5b6040516060810181811067ffffffffffffffff8211171561539e57fe5b806040525082518152602083015160208201526040830151614cb081615f2b565b6000602082840312156153d0578081fd5b8135611d1c81615f55565b6000602082840312156153ec578081fd5b8135611d1c81615f6a565b600060208284031215615408578081fd5b5051919050565b60008060408385031215615421578182fd5b8251915060208084015167ffffffffffffffff80821115615440578384fd5b818601915086601f830112615453578384fd5b81518181111561545f57fe5b61546c8485830201615ea0565b81815284810190848601875b848110156154f557815187016040818e03601f1901121561549757898afd5b6040516040810181811089821117156154ac57fe5b604052818a01516154bc81615f39565b81526040820151888111156154cf578b8cfd5b6154dd8f8c83860101614936565b828c0152508552509287019290870190600101615478565b50979a909950975050505050505050565b6000806000806060858703121561551b578182fd5b8435935060208501359250604085013567ffffffffffffffff80821115615540578384fd5b818701915087601f830112615553578384fd5b813581811115615561578485fd5b8860208083028501011115614c2f578485fd5b6001600160a01b03169052565b15159052565b60008284528282602086013780602084860101526020601f19601f85011685010190509392505050565b600081518084526155c9816020860160208601615ee6565b601f01601f19169290920160200192915050565b60020b9052565b803582526020810135602083015260408101356040830152606081013560608301526080810135608083015260a081013561561e81615f6a565b62ffffff811660a0840152505050565b6001600160801b03169052565b62ffffff169052565b606093841b6bffffffffffffffffffffffff19908116825260e89390931b7fffffff0000000000000000000000000000000000000000000000000000000000166014820152921b166017820152602b0190565b9283526020830191909152604082015260600190565b6001600160a01b0391909116815260200190565b6001600160a01b039384168152919092166020820152604081019190915260600190565b6001600160a01b03968716815294861660208601529290941660408401526060830152608082019290925260a081019190915260c00190565b6001600160a01b0392831681529116602082015260400190565b6001600160a01b03878116825286811660208301528581166040830152841660608201526101e0810161577660808301615771866148b9565b615574565b615782602085016148b9565b61578f60a0840182615574565b50604084013560c0830152606084013560e083015261010060808501358184015261012060a08601358185015260c086013561014085015260e08601356101608501526157dd828701614979565b91506157ed6101808501836155dd565b6157f8818701614979565b9150506158096101a08401826155dd565b50611e566101c0830184615581565b6001600160a01b038781168252868116602083015285811660408301528416606082015282516101e0820190615852906080840190615574565b602084015161586460a0840182615574565b50604084015160c0830152606084015160e08301526080840151610100818185015260a08601519150610120828186015260c087015161014086015260e08701516101608601528187015192506158bf6101808601846155dd565b860151915061580990506101a08401826155dd565b60006101a0820190506001600160a01b03808a1683528089166020840152808816604084015280871660608401528560808401528085511660a084015250602084015160c0830152604084015160e08301526060840151610100830152608084015161012083015260a084015161014083015260c0840151610160830152615960610180830184615581565b98975050505050505050565b6000610120820190506001600160a01b0380861683528085166020840152808451166040840152506020830151606083015260408301516080830152606083015160a0830152608083015160c083015260a083015160020b60e083015260c083015160020b610100830152949350505050565b6001600160a01b03958616815293909416602084015260408301919091526060820152608081019190915260a00190565b60006001600160a01b038088168352861515602084015285604084015280851660608401525060a06080830152611e5660a08301846155b1565b60006001600160a01b03841682526040602083015261477f60408301846155b1565b600060e0820190506001600160a01b038516825283516020830152602084015160408301526040840151606083015260608401516001600160801b0380821660808501528060808701511660a0850152505082151560c0830152949350505050565b6001600160a01b03929092168252602082015260400190565b6001600160a01b0396909616865260208601949094526040850192909252600290810b60608501520b6080830152151560a082015260c00190565b7fffffffff0000000000000000000000000000000000000000000000000000000091909116815260200190565b918252602082015260400190565b815181526020808301516001600160a01b0316908201526040808301516001600160801b0390811691830191909152606092830151169181019190915260800190565b60c08101611cbd82846155e4565b6000602082526001600160a01b03808451166020840152806020850151166040840152506040830151606083015260ff6060840151166080830152608083015160a08084015261477f60c08401826155b1565b600061018082019050823582526020830135602083015260408301356040830152606083013560608301526080830135608083015260a083013560a083015260c083013560c083015260e083013560e0830152610100615c62818501614a35565b615c6e8285018261562e565b5050610120615c7e818501614a35565b615c8a8285018261562e565b5050610140615c9a818501614a4b565b615ca68285018261563b565b5050610160615cb68185016148cf565b615cc282850182615581565b505092915050565b6101608101615cdc82615771856148b9565b6020830135602083015260408301356040830152606083013560608301526080830135608083015260a083013560a083015260c083013560c083015260e083013560e0830152610100808401358184015250610120615d3c818501614979565b615d48828501826155dd565b5050610140615d58818501614979565b615cc2828501826155dd565b600060208252825160806020840152615d8060a08401826155b1565b90506001600160a01b03602085015116604084015260ff60408501511660608401526060840151601f19848303016080850152613b9f82826155b1565b90815260200190565b6000604080830186845260208281860152818683526060860190506060828802870101925087855b88811015615e9157878503605f190183528135368b9003603e19018112615e13578788fd5b8a018035615e2081615f39565b60088110615e2a57fe5b86528085013536829003601e19018112615e42578889fd5b8101803567ffffffffffffffff811115615e5a57898afd5b803603831315615e6857898afd5b8887890152615e7c89890182898501615587565b97505050928401925090830190600101615dee565b50929998505050505050505050565b60405181810167ffffffffffffffff81118282101715615ebc57fe5b604052919050565b600067ffffffffffffffff821115615ed857fe5b50601f01601f191660200190565b60005b83811015615f01578181015183820152602001615ee9565b83811115615f10576000848401525b50505050565b6001600160a01b0381168114611c5e57600080fd5b8015158114611c5e57600080fd5b60088110611c5e57600080fd5b8060020b8114611c5e57600080fd5b6001600160801b0381168114611c5e57600080fd5b62ffffff81168114611c5e57600080fd5b60ff81168114611c5e57600080fdfe536166654d6174683a206d756c7469706c69636174696f6e206f766572666c6f77a2646970667358221220564c27264bc33c078d9c75afb2f26fb0c092712e686cacc101aaeee9df569b6e64736f6c63430007060033",
  "libraries": {
    "ControllerHelperUtil": "0xB53c2eE92A24B08521912e1687Bc8142a7E6a9EE"
  },
  "devdoc": {
    "kind": "dev",
    "methods": {
      "closeShortWithUserNft((uint256,uint256,uint256,uint256,uint256,uint256,uint256,uint128,uint128,uint24,bool))": {
        "details": "user should approve this contract for Uni NFT transfer",
        "params": {
          "_params": "ControllerHelperDataType.CloseShortWithUserNftParams struct"
        }
      },
      "flashloanWMintLpDepositNft((address,uint256,uint256,uint256,uint256,uint256,uint256,uint256,uint256,int24,int24))": {
        "details": "sender can specify the amount of ETH collateral to withdraw in case vault.collateralAmount > ETH to repay for loan",
        "params": {
          "_params": "ControllerHelperDataType.FlashloanWMintLpDepositNftParams struct"
        }
      },
      "flashswapSellLongWMint((uint256,uint256,uint256,uint256,uint256,uint24))": {
        "details": "flashswap amount = collateral amount - msg.value - ETH from selling long wPowerPerp",
        "params": {
          "_params": "ControllerHelperDataType.FlashSellLongWMintParams struct"
        }
      },
      "flashswapWBurnBuyLong((uint256,uint256,uint256,uint256,uint256,uint24))": {
        "details": "this function",
        "params": {
          "_params": "ControllerHelperDataType.FlashswapWBurnBuyLongParams struct"
        }
      },
      "onERC721Received(address,address,uint256,bytes)": {
        "details": "accept erc721 from safeTransferFrom and safeMint after callback",
        "returns": {
          "_0": "returns received selector"
        }
      },
      "rebalanceLpInVault(uint256,uint256,(uint8,bytes)[])": {
        "params": {
          "_collateralToFlashloan": "collateral amount to flashloan and deposit into vault to be able to withdraw Uni LP NFT",
          "_params": "array of ControllerHelperDataType.RebalanceLpInVaultParams structs",
          "_vaultId": "vault ID"
        }
      },
      "rebalanceLpWithoutVault((address,uint256,uint256,uint256,uint256,uint256,uint256,uint256,uint256,uint256,int24,int24,uint24))": {
        "params": {
          "_params": "ControllerHelperDataType.RebalanceLpWithoutVaultParams struct"
        }
      },
      "reduceLiquidityAndSell((uint256,uint256,uint256,uint128,uint128,uint256,uint24))": {
        "params": {
          "_params": "ControllerHelperDataType.ReduceLiquidityAndSellParams struct"
        }
      },
      "uniswapV3SwapCallback(int256,int256,bytes)": {
        "params": {
          "_data": "callback data encoded as SwapCallbackData struct",
          "amount0Delta": "amount of token0",
          "amount1Delta": "amount of token1"
        }
      },
      "wMintLp((address,address,uint256,uint256,uint256,uint256,uint256,uint256,int24,int24))": {
        "params": {
          "_params": "ControllerHelperDataType.MintAndLpParams struct"
        }
      }
    },
    "version": 1
  },
  "userdoc": {
    "kind": "user",
    "methods": {
      "closeShortWithUserNft((uint256,uint256,uint256,uint256,uint256,uint256,uint256,uint128,uint128,uint24,bool))": {
        "notice": "close short position with user Uniswap v3 LP NFT"
      },
      "flashloanWMintLpDepositNft((address,uint256,uint256,uint256,uint256,uint256,uint256,uint256,uint256,int24,int24))": {
        "notice": "FLash mint short position, LP in Uni v3, use LP NFT as collateral and withdraw ETH collateral to repay flashloan"
      },
      "flashswapSellLongWMint((uint256,uint256,uint256,uint256,uint256,uint24))": {
        "notice": "sell long wPowerPerp and flashswap mint short position"
      },
      "flashswapWBurnBuyLong((uint256,uint256,uint256,uint256,uint256,uint24))": {
        "notice": "flash close position and buy long squeeth"
      },
      "rebalanceLpInVault(uint256,uint256,(uint8,bytes)[])": {
        "notice": "Rebalance, increase and decrease LP liquidity through minting/burning wPowerPerp in vault"
      },
      "rebalanceLpWithoutVault((address,uint256,uint256,uint256,uint256,uint256,uint256,uint256,uint256,uint256,int24,int24,uint24))": {
        "notice": "Rebalance LP nft through trading"
      },
      "reduceLiquidityAndSell((uint256,uint256,uint256,uint128,uint128,uint256,uint24))": {
        "notice": "sell all LP wPowerPerp amounts to WETH and send back to user"
      },
      "uniswapV3SwapCallback(int256,int256,bytes)": {
        "notice": "uniswap swap callback function for flashswap"
      },
      "wMintLp((address,address,uint256,uint256,uint256,uint256,uint256,uint256,int24,int24))": {
        "notice": "mint WPowerPerp and LP into Uniswap v3 pool"
      }
    },
    "version": 1
  },
  "storageLayout": {
    "storage": [],
    "types": null
  }
}