{
  "abi": [
    {
      "inputs": [
        {
          "internalType": "address",
          "name": "_powerTokenController",
          "type": "address"
        }
      ],
      "stateMutability": "nonpayable",
      "type": "constructor"
    },
    {
      "inputs": [],
      "name": "getStrategyVaultId",
      "outputs": [
        {
          "internalType": "uint256",
          "name": "",
          "type": "uint256"
        }
      ],
      "stateMutability": "view",
      "type": "function"
    },
    {
      "inputs": [],
      "name": "getVaultDetails",
      "outputs": [
        {
          "internalType": "address",
          "name": "",
          "type": "address"
        },
        {
          "internalType": "uint256",
          "name": "",
          "type": "uint256"
        },
        {
          "internalType": "uint256",
          "name": "",
          "type": "uint256"
        },
        {
          "internalType": "uint256",
          "name": "",
          "type": "uint256"
        }
      ],
      "stateMutability": "view",
      "type": "function"
    },
    {
      "inputs": [],
      "name": "powerTokenController",
      "outputs": [
        {
          "internalType": "contract IController",
          "name": "",
          "type": "address"
        }
      ],
      "stateMutability": "view",
      "type": "function"
    },
    {
      "inputs": [],
      "name": "vaultId",
      "outputs": [
        {
          "internalType": "uint256",
          "name": "",
          "type": "uint256"
        }
      ],
      "stateMutability": "view",
      "type": "function"
    },
    {
      "inputs": [],
      "name": "wPowerPerp",
      "outputs": [
        {
          "internalType": "address",
          "name": "",
          "type": "address"
        }
      ],
      "stateMutability": "view",
      "type": "function"
    }
  ],
  "bytecode": {
    "object": "0x60c060405234801561001057600080fd5b506040516105c83803806105c883398101604081905261002f91610191565b6001600160a01b03811661005e5760405162461bcd60e51b8152600401610055906101ed565b60405180910390fd5b600080546001600160a01b0319166001600160a01b038381169190911791829055604080516307f07b1360e41b815290519290911691637f07b13091600480820192602092909190829003018186803b1580156100ba57600080fd5b505afa1580156100ce573d6000803e3d6000fd5b505050506040513d601f19601f820116820180604052508101906100f29190610191565b60601b6001600160601b03191660805260008054604051630728cf2360e31b81526001600160a01b03909116916339467918916101369190819081906004016101d7565b602060405180830381600087803b15801561015057600080fd5b505af1158015610164573d6000803e3d6000fd5b505050506040513d601f19601f8201168201806040525081019061018891906101bf565b60a05250610224565b6000602082840312156101a2578081fd5b81516001600160a01b03811681146101b8578182fd5b9392505050565b6000602082840312156101d0578081fd5b5051919050565b9283526020830191909152604082015260600190565b6020808252601a908201527f696e76616c696420636f6e74726f6c6c65722061646472657373000000000000604082015260600190565b60805160601c60a0516103756102536000398060b95280610108528061017f52508061012c52506103756000f3fe608060405234801561001057600080fd5b50600436106100575760003560e01c806333194c0a1461005c5780633dcb0c5d1461007a578063533092ef1461008f5780636c1040a9146100a75780637f07b130146100af575b600080fd5b6100646100b7565b6040516100719190610336565b60405180910390f35b6100826100db565b60405161007191906102fc565b6100976100ea565b6040516100719493929190610310565b610064610106565b61008261012a565b7f000000000000000000000000000000000000000000000000000000000000000081565b6000546001600160a01b031681565b6000806000806100f861014e565b935093509350935090919293565b7f000000000000000000000000000000000000000000000000000000000000000090565b7f000000000000000000000000000000000000000000000000000000000000000081565b60008054604051634632752560e11b815282918291829182916001600160a01b0390911690638c64ea4a906101a7907f000000000000000000000000000000000000000000000000000000000000000090600401610336565b60806040518083038186803b1580156101bf57600080fd5b505afa1580156101d3573d6000803e3d6000fd5b505050506040513d601f19601f820116820180604052508101906101f7919061026f565b805160208201516040830151606090930151919863ffffffff90911697506bffffffffffffffffffffffff90921695506001600160801b03169350915050565b80516001600160801b038116811461024e57600080fd5b919050565b80516bffffffffffffffffffffffff8116811461024e57600080fd5b600060808284031215610280578081fd5b6040516080810181811067ffffffffffffffff8211171561029d57fe5b60405282516001600160a01b03811681146102b6578283fd5b8152602083015163ffffffff811681146102ce578283fd5b60208201526102df60408401610253565b60408201526102f060608401610237565b60608201529392505050565b6001600160a01b0391909116815260200190565b6001600160a01b0394909416845260208401929092526040830152606082015260800190565b9081526020019056fea26469706673582212200c2d8209c26c10ac16acc516f91045bdab7b00b5f66c875ab2d25c327cf0d25864736f6c63430007060033",
    "linkReferences": {}
  },
  "methodIdentifiers": {
    "getStrategyVaultId()": "6c1040a9",
    "getVaultDetails()": "533092ef",
    "powerTokenController()": "3dcb0c5d",
    "vaultId()": "33194c0a",
    "wPowerPerp()": "7f07b130"
  },
  "id": 25
}