{
  "abi": [
    {
      "inputs": [
        {
          "internalType": "int24",
          "name": "tick",
          "type": "int24"
        }
      ],
      "name": "getSqrtRatioAtTick",
      "outputs": [
        {
          "internalType": "uint160",
          "name": "sqrtPriceX96",
          "type": "uint160"
        }
      ],
      "stateMutability": "pure",
      "type": "function"
    },
    {
      "inputs": [
        {
          "internalType": "uint160",
          "name": "sqrtPriceX96",
          "type": "uint160"
        }
      ],
      "name": "getTickAtSqrtRatio",
      "outputs": [
        {
          "internalType": "int24",
          "name": "tick",
          "type": "int24"
        }
      ],
      "stateMutability": "pure",
      "type": "function"
    }
  ],
  "bytecode": {
    "object": "0x61074e610026600b82828239805160001a60731461001957fe5b30600052607381538281f3fe73000000000000000000000000000000000000000030146080604052600436106100405760003560e01c80634f76c05814610045578063986cfba314610082575b600080fd5b61006b6004803603602081101561005b57600080fd5b50356001600160a01b03166100be565b6040805160029290920b8252519081900360200190f35b6100a26004803603602081101561009857600080fd5b503560020b6103e6565b604080516001600160a01b039092168252519081900360200190f35b60006401000276a36001600160a01b038316108015906100fa575073fffd8963efd1fc6a506488495d951d5263988d266001600160a01b038316105b61012f576040805162461bcd60e51b81526020600482015260016024820152602960f91b604482015290519081900360640190fd5b640100000000600160c01b03602083901b166fffffffffffffffffffffffffffffffff811160071b81811c67ffffffffffffffff811160061b90811c63ffffffff811160051b90811c61ffff811160041b90811c60ff8111600390811b91821c600f811160021b90811c918211600190811b92831c979088119617909417909217179091171717608081106101cc57607f810383901c91506101d6565b80607f0383901b91505b908002607f81811c60ff83811c9190911c800280831c81831c1c800280841c81841c1c800280851c81851c1c800280861c81861c1c800280871c81871c1c800280881c81881c1c800280891c81891c1c8002808a1c818a1c1c8002808b1c818b1c1c8002808c1c818c1c1c8002808d1c818d1c1c8002808e1c9c81901c9c909c1c80029c8d901c9e9d607f198f0160401b60c09190911c678000000000000000161760c19b909b1c674000000000000000169a909a1760c29990991c672000000000000000169890981760c39790971c671000000000000000169690961760c49590951c670800000000000000169490941760c59390931c670400000000000000169290921760c69190911c670200000000000000161760c79190911c670100000000000000161760c89190911c6680000000000000161760c99190911c6640000000000000161760ca9190911c6620000000000000161760cb9190911c6610000000000000161760cc9190911c6608000000000000161760cd9190911c66040000000000001617693627a301d71055774c8581026f028f6481ab7f045a5af012a19d003aa9198101608090811d906fdb2df09e81959a81455e260799a0632f8301901d600281810b9083900b146103d757886001600160a01b03166103bb826103e6565b6001600160a01b031611156103d057816103d2565b805b6103d9565b815b9998505050505050505050565b60008060008360020b126103fd578260020b610405565b8260020b6000035b9050620d89e8811115610443576040805162461bcd60e51b81526020600482015260016024820152601560fa1b604482015290519081900360640190fd5b60006001821661045757600160801b610469565b6ffffcb933bd6fad37aa2d162d1a5940015b70ffffffffffffffffffffffffffffffffff169050600282161561049d576ffff97272373d413259a46990580e213a0260801c5b60048216156104bc576ffff2e50f5f656932ef12357cf3c7fdcc0260801c5b60088216156104db576fffe5caca7e10e4e61c3624eaa0941cd00260801c5b60108216156104fa576fffcb9843d60f6159c9db58835c9266440260801c5b6020821615610519576fff973b41fa98c081472e6896dfb254c00260801c5b6040821615610538576fff2ea16466c96a3843ec78b326b528610260801c5b6080821615610557576ffe5dee046a99a2a811c461f1969c30530260801c5b610100821615610577576ffcbe86c7900a88aedcffc83b479aa3a40260801c5b610200821615610597576ff987a7253ac413176f2b074cf7815e540260801c5b6104008216156105b7576ff3392b0822b70005940c7a398e4b70f30260801c5b6108008216156105d7576fe7159475a2c29b7443b29c7fa6e889d90260801c5b6110008216156105f7576fd097f3bdfd2022b8845ad8f792aa58250260801c5b612000821615610617576fa9f746462d870fdf8a65dc1f90e061e50260801c5b614000821615610637576f70d869a156d2a1b890bb3df62baf32f70260801c5b618000821615610657576f31be135f97d08fd981231505542fcfa60260801c5b62010000821615610678576f09aa508b5b7a84e1c677de54f3e99bc90260801c5b62020000821615610698576e5d6af8dedb81196699c329225ee6040260801c5b620400008216156106b7576d2216e584f5fa1ea926041bedfe980260801c5b620800008216156106d4576b048a170391f7dc42444e8fa20260801c5b60008460020b13156106ef5780600019816106eb57fe5b0490505b640100000000810615610703576001610706565b60005b60ff16602082901c019250505091905056fea2646970667358221220c24a8b73052c6460db6ee6dcc4c472b330d75034d835d06c2cb45bef809cffda64736f6c63430007060033",
    "linkReferences": {}
  },
  "methodIdentifiers": {
    "getSqrtRatioAtTick(int24)": "986cfba3",
    "getTickAtSqrtRatio(uint160)": "4f76c058"
  },
  "id": 11
}