{
    "address": "0xA469D78845Ef38846B2bf86de358Dc093FF07BC3",
    "abi": [
        {
            "inputs": [
                {
                    "internalType": "uint256",
                    "name": "x",
                    "type": "uint256"
                },
                {
                    "internalType": "uint256",
                    "name": "y",
                    "type": "uint256"
                }
            ],
            "name": "divu",
            "outputs": [
                {
                    "internalType": "int128",
                    "name": "",
                    "type": "int128"
                }
            ],
            "stateMutability": "pure",
            "type": "function"
        },
        {
            "inputs": [
                {
                    "internalType": "int128",
                    "name": "x",
                    "type": "int128"
                }
            ],
            "name": "exp_2",
            "outputs": [
                {
                    "internalType": "int128",
                    "name": "",
                    "type": "int128"
                }
            ],
            "stateMutability": "pure",
            "type": "function"
        },
        {
            "inputs": [
                {
                    "internalType": "int128",
                    "name": "x",
                    "type": "int128"
                }
            ],
            "name": "log_2",
            "outputs": [
                {
                    "internalType": "int128",
                    "name": "",
                    "type": "int128"
                }
            ],
            "stateMutability": "pure",
            "type": "function"
        }
    ],
    "transactionHash": "0x1fecce38416637f5d5932a40586330418aeb7143a36a9e5cd23979189257bfd4",
    "args": [],
    "solcInputHash": "c53867cdbf46138ab42de1c7a1689875",
    "bytecode": "0x611035610026600b82828239805160001a60731461001957fe5b30600052607381538281f3fe730000000000000000000000000000000000000000301460806040526004361061004b5760003560e01c80632cbbdee514610050578063fc193cf214610087578063fc505d37146100a7575b600080fd5b6100706004803603602081101561006657600080fd5b5035600f0b6100ca565b60408051600f9290920b8252519081900360200190f35b6100706004803603602081101561009d57600080fd5b5035600f0b6101f8565b610070600480360360408110156100bd57600080fd5b5080359060200135610d19565b60008082600f0b13610123576040805162461bcd60e51b815260206004820152600860248201527f4c4f475f322d5830000000000000000000000000000000000000000000000000604482015290519081900360640190fd5b6000600f83900b680100000000000000008112610142576040918201911d5b6401000000008112610156576020918201911d5b620100008112610168576010918201911d5b6101008112610179576008918201911d5b60108112610189576004918201911d5b60048112610199576002918201911d5b600281126101a8576001820191505b603f19820160401b600f85900b607f8490031b6780000000000000005b60008113156101eb5790800260ff81901c8281029390930192607f011c9060011d6101c5565b509093505050505b919050565b60006840000000000000000082600f0b1261025a576040805162461bcd60e51b815260206004820152600860248201527f4558505f322d4f46000000000000000000000000000000000000000000000000604482015290519081900360640190fd5b683fffffffffffffffff1982600f0b1215610277575060006101f3565b6f8000000000000000000000000000000060006780000000000000008416600f0b13156102b55770016a09e667f3bcc908b2fb1366ea957d3e0260801c5b60008367400000000000000016600f0b13156102e2577001306fe0a31b7152de8d5a46305c85edec0260801c5b60008367200000000000000016600f0b131561030f577001172b83c7d517adcdf7c8c50eb14a791f0260801c5b60008367100000000000000016600f0b131561033c5770010b5586cf9890f6298b92b71842a983630260801c5b60008367080000000000000016600f0b1315610369577001059b0d31585743ae7c548eb68ca417fd0260801c5b60008367040000000000000016600f0b131561039657700102c9a3e778060ee6f7caca4f7a29bde80260801c5b60008367020000000000000016600f0b13156103c35770010163da9fb33356d84a66ae336dcdfa3f0260801c5b60008367010000000000000016600f0b13156103f057700100b1afa5abcbed6129ab13ec11dc95430260801c5b600083668000000000000016600f0b131561041c5770010058c86da1c09ea1ff19d294cf2f679b0260801c5b600083664000000000000016600f0b1315610448577001002c605e2e8cec506d21bfc89a23a00f0260801c5b600083662000000000000016600f0b131561047457700100162f3904051fa128bca9c55c31e5df0260801c5b600083661000000000000016600f0b13156104a0577001000b175effdc76ba38e31671ca9397250260801c5b600083660800000000000016600f0b13156104cc57700100058ba01fb9f96d6cacd4b180917c3d0260801c5b600083660400000000000016600f0b13156104f85770010002c5cc37da9491d0985c348c68e7b30260801c5b600083660200000000000016600f0b1315610524577001000162e525ee054754457d59952920260260801c5b600083660100000000000016600f0b13156105505770010000b17255775c040618bf4a4ade83fc0260801c5b6000836580000000000016600f0b131561057b577001000058b91b5bc9ae2eed81e9b7d4cfab0260801c5b6000836540000000000016600f0b13156105a657700100002c5c89d5ec6ca4d7c8acc017b7c90260801c5b6000836520000000000016600f0b13156105d15770010000162e43f4f831060e02d839a9d16d0260801c5b6000836510000000000016600f0b13156105fc57700100000b1721bcfc99d9f890ea069117630260801c5b6000836508000000000016600f0b13156106275770010000058b90cf1e6d97f9ca14dbcc16280260801c5b6000836504000000000016600f0b1315610652577001000002c5c863b73f016468f6bac5ca2b0260801c5b6000836502000000000016600f0b131561067d57700100000162e430e5a18f6119e3c02282a50260801c5b6000836501000000000016600f0b13156106a8577001000000b1721835514b86e6d96efd1bfe0260801c5b60008364800000000016600f0b13156106d257700100000058b90c0b48c6be5df846c5b2ef0260801c5b60008364400000000016600f0b13156106fc5770010000002c5c8601cc6b9e94213c72737a0260801c5b60008364200000000016600f0b1315610726577001000000162e42fff037df38aa2b219f060260801c5b60008364100000000016600f0b13156107505770010000000b17217fba9c739aa5819f44f90260801c5b60008364080000000016600f0b131561077a577001000000058b90bfcdee5acd3c1cedc8230260801c5b60008364040000000016600f0b13156107a457700100000002c5c85fe31f35a6a30da1be500260801c5b60008364020000000016600f0b13156107ce5770010000000162e42ff0999ce3541b9fffcf0260801c5b60008364010000000016600f0b13156107f857700100000000b17217f80f4ef5aadda455540260801c5b600083638000000016600f0b13156108215770010000000058b90bfbf8479bd5a81b51ad0260801c5b600083634000000016600f0b131561084a577001000000002c5c85fdf84bd62ae30a74cc0260801c5b600083632000000016600f0b131561087357700100000000162e42fefb2fed257559bdaa0260801c5b600083631000000016600f0b131561089c577001000000000b17217f7d5a7716bba4a9ae0260801c5b600083630800000016600f0b13156108c557700100000000058b90bfbe9ddbac5e109cce0260801c5b600083630400000016600f0b13156108ee5770010000000002c5c85fdf4b15de6f17eb0d0260801c5b600083630200000016600f0b1315610917577001000000000162e42fefa494f1478fde050260801c5b600083630100000016600f0b13156109405770010000000000b17217f7d20cf927c8e94c0260801c5b6000836280000016600f0b1315610968577001000000000058b90bfbe8f71cb4e4b33d0260801c5b6000836240000016600f0b131561099057700100000000002c5c85fdf477b662b269450260801c5b6000836220000016600f0b13156109b85770010000000000162e42fefa3ae53369388c0260801c5b6000836210000016600f0b13156109e057700100000000000b17217f7d1d351a389d400260801c5b6000836208000016600f0b1315610a085770010000000000058b90bfbe8e8b2d3d4ede0260801c5b6000836204000016600f0b1315610a30577001000000000002c5c85fdf4741bea6e77e0260801c5b6000836202000016600f0b1315610a5857700100000000000162e42fefa39fe95583c20260801c5b6000836201000016600f0b1315610a80577001000000000000b17217f7d1cfb72b45e10260801c5b60008361800016600f0b1315610aa757700100000000000058b90bfbe8e7cc35c3f00260801c5b60008361400016600f0b1315610ace5770010000000000002c5c85fdf473e242ea380260801c5b60008361200016600f0b1315610af5577001000000000000162e42fefa39f02b772c0260801c5b60008361100016600f0b1315610b1c5770010000000000000b17217f7d1cf7d83c1a0260801c5b60008361080016600f0b1315610b43577001000000000000058b90bfbe8e7bdcbe2e0260801c5b60008361040016600f0b1315610b6a57700100000000000002c5c85fdf473dea871f0260801c5b60008361020016600f0b1315610b915770010000000000000162e42fefa39ef44d910260801c5b60008361010016600f0b1315610bb857700100000000000000b17217f7d1cf79e9490260801c5b600083608016600f0b1315610bde5770010000000000000058b90bfbe8e7bce5440260801c5b600083604016600f0b1315610c04577001000000000000002c5c85fdf473de6eca0260801c5b600083602016600f0b1315610c2a57700100000000000000162e42fefa39ef366f0260801c5b600083601016600f0b1315610c50577001000000000000000b17217f7d1cf79afa0260801c5b600083600816600f0b1315610c7657700100000000000000058b90bfbe8e7bcd6d0260801c5b600083600416600f0b1315610c9c5770010000000000000002c5c85fdf473de6b20260801c5b600083600216600f0b1315610cc2577001000000000000000162e42fefa39ef3580260801c5b600083600116600f0b1315610ce85770010000000000000000b17217f7d1cf79ab0260801c5b600f83810b60401d603f03900b1c6f7fffffffffffffffffffffffffffffff811115610d1357600080fd5b92915050565b600081610d6d576040805162461bcd60e51b815260206004820152600860248201527f444956552d494e46000000000000000000000000000000000000000000000000604482015290519081900360640190fd5b6000610d798484610df9565b90506f7fffffffffffffffffffffffffffffff6fffffffffffffffffffffffffffffffff82161115610df2576040805162461bcd60e51b815260206004820152600760248201527f444956552d4f4600000000000000000000000000000000000000000000000000604482015290519081900360640190fd5b9392505050565b600081610e0557600080fd5b600077ffffffffffffffffffffffffffffffffffffffffffffffff8411610e3b5782604085901b81610e3357fe5b049050610f9a565b60c084811c6401000000008110610e54576020918201911c5b620100008110610e66576010918201911c5b6101008110610e77576008918201911c5b60108110610e87576004918201911c5b60048110610e97576002918201911c5b60028110610ea6576001820191505b60bf820360018603901c6001018260ff0387901b81610ec157fe5b0492506fffffffffffffffffffffffffffffffff831115610f29576040805162461bcd60e51b815260206004820152600960248201527f44495655552d4f46310000000000000000000000000000000000000000000000604482015290519081900360640190fd5b608085901c83026fffffffffffffffffffffffffffffffff8616840260c088901c604089901b82811015610f5e576001820391505b608084901b92900382811015610f75576001820391505b829003608084901c8214610f8557fe5b888181610f8e57fe5b04870196505050505050505b6fffffffffffffffffffffffffffffffff811115610df2576040805162461bcd60e51b815260206004820152600960248201527f44495655552d4f46320000000000000000000000000000000000000000000000604482015290519081900360640190fdfea2646970667358221220df4e4ccd16b278e7c05ac3ef1eb9305435ba9d3de32df96561025dbc371ca54e64736f6c63430007060033",
    "devdoc": {
        "kind": "dev",
        "methods": {
            "divu(uint256,uint256)": {
                "params": {
                    "x": "unsigned 256-bit integer number",
                    "y": "unsigned 256-bit integer number"
                },
                "returns": {
                    "_0": "signed 64.64-bit fixed point number"
                }
            },
            "exp_2(int128)": {
                "params": {
                    "x": "signed 64.64-bit fixed point number"
                },
                "returns": {
                    "_0": "signed 64.64-bit fixed point number"
                }
            },
            "log_2(int128)": {
                "params": {
                    "x": "signed 64.64-bit fixed point number"
                },
                "returns": {
                    "_0": "signed 64.64-bit fixed point number"
                }
            }
        },
        "version": 1
    },
    "userdoc": {
        "kind": "user",
        "methods": {
            "divu(uint256,uint256)": {
                "notice": "Calculate x / y rounding towards zero, where x and y are unsigned 256-bit integer numbers.  Revert on overflow or when y is zero."
            },
            "exp_2(int128)": {
                "notice": "Calculate binary exponent of x.  Revert on overflow."
            },
            "log_2(int128)": {
                "notice": "Calculate binary logarithm of x.  Revert if x <= 0."
            }
        },
        "notice": "Smart contract library of mathematical functions operating with signed 64.64-bit fixed point numbers.  Signed 64.64-bit fixed point number is basically a simple fraction whose numerator is signed 128-bit integer and denominator is 2^64.  As long as denominator is always the same, there is no need to store it, thus in Solidity signed 64.64-bit fixed point numbers are represented by int128 type holding only the numerator. Commit used - 16d7e1dd8628dfa2f88d5dadab731df7ada70bdd Copied from - https://github.com/abdk-consulting/abdk-libraries-solidity/tree/v2.4 Changes - some function visibility switched to public, solidity version set to 0.7.x Changes (cont) - revert strings added solidity version set to ^0.7.0",
        "version": 1
    },
    "storageLayout": {
        "storage": [],
        "types": null
    }
}