{
  "address": "0x49a423Bc9F1dEe5A052b1E72a1dbE9de488d4411",
  "abi": [
    {
      "inputs": [
        {
          "internalType": "address",
          "name": "_wSqueethController",
          "type": "address"
        },
        {
          "internalType": "address",
          "name": "_oracle",
          "type": "address"
        },
        {
          "internalType": "address",
          "name": "_weth",
          "type": "address"
        },
        {
          "internalType": "address",
          "name": "_uniswapFactory",
          "type": "address"
        },
        {
          "internalType": "address",
          "name": "_ethWSqueethPool",
          "type": "address"
        },
        {
          "internalType": "address",
          "name": "_timelock",
          "type": "address"
        },
        {
          "internalType": "address",
          "name": "_crabMigration",
          "type": "address"
        },
        {
          "internalType": "uint256",
          "name": "_hedgeTimeThreshold",
          "type": "uint256"
        },
        {
          "internalType": "uint256",
          "name": "_hedgePriceThreshold",
          "type": "uint256"
        }
      ],
      "stateMutability": "nonpayable",
      "type": "constructor"
    },
    {
      "anonymous": false,
      "inputs": [
        {
          "indexed": true,
          "internalType": "address",
          "name": "owner",
          "type": "address"
        },
        {
          "indexed": true,
          "internalType": "address",
          "name": "spender",
          "type": "address"
        },
        {
          "indexed": false,
          "internalType": "uint256",
          "name": "value",
          "type": "uint256"
        }
      ],
      "name": "Approval",
      "type": "event"
    },
    {
      "anonymous": false,
      "inputs": [
        {
          "indexed": true,
          "internalType": "address",
          "name": "depositor",
          "type": "address"
        },
        {
          "indexed": false,
          "internalType": "uint256",
          "name": "wSqueethAmount",
          "type": "uint256"
        },
        {
          "indexed": false,
          "internalType": "uint256",
          "name": "lpAmount",
          "type": "uint256"
        }
      ],
      "name": "Deposit",
      "type": "event"
    },
    {
      "anonymous": false,
      "inputs": [
        {
          "indexed": true,
          "internalType": "address",
          "name": "depositor",
          "type": "address"
        },
        {
          "indexed": false,
          "internalType": "uint256",
          "name": "depositedAmount",
          "type": "uint256"
        },
        {
          "indexed": false,
          "internalType": "uint256",
          "name": "tradedAmountOut",
          "type": "uint256"
        }
      ],
      "name": "FlashDeposit",
      "type": "event"
    },
    {
      "anonymous": false,
      "inputs": [
        {
          "indexed": true,
          "internalType": "address",
          "name": "depositor",
          "type": "address"
        },
        {
          "indexed": false,
          "internalType": "uint256",
          "name": "flashswapDebt",
          "type": "uint256"
        },
        {
          "indexed": false,
          "internalType": "uint256",
          "name": "excess",
          "type": "uint256"
        }
      ],
      "name": "FlashDepositCallback",
      "type": "event"
    },
    {
      "anonymous": false,
      "inputs": [
        {
          "indexed": true,
          "internalType": "address",
          "name": "withdrawer",
          "type": "address"
        },
        {
          "indexed": false,
          "internalType": "uint256",
          "name": "crabAmount",
          "type": "uint256"
        },
        {
          "indexed": false,
          "internalType": "uint256",
          "name": "wSqueethAmount",
          "type": "uint256"
        }
      ],
      "name": "FlashWithdraw",
      "type": "event"
    },
    {
      "anonymous": false,
      "inputs": [
        {
          "indexed": true,
          "internalType": "address",
          "name": "withdrawer",
          "type": "address"
        },
        {
          "indexed": false,
          "internalType": "uint256",
          "name": "flashswapDebt",
          "type": "uint256"
        },
        {
          "indexed": false,
          "internalType": "uint256",
          "name": "excess",
          "type": "uint256"
        }
      ],
      "name": "FlashWithdrawCallback",
      "type": "event"
    },
    {
      "anonymous": false,
      "inputs": [
        {
          "indexed": false,
          "internalType": "uint256",
          "name": "bidId",
          "type": "uint256"
        },
        {
          "indexed": false,
          "internalType": "uint256",
          "name": "quantity",
          "type": "uint256"
        },
        {
          "indexed": false,
          "internalType": "bool",
          "name": "isBuying",
          "type": "bool"
        },
        {
          "indexed": false,
          "internalType": "uint256",
          "name": "clearingPrice",
          "type": "uint256"
        }
      ],
      "name": "HedgeOTC",
      "type": "event"
    },
    {
      "anonymous": false,
      "inputs": [
        {
          "indexed": false,
          "internalType": "address",
          "name": "trader",
          "type": "address"
        },
        {
          "indexed": false,
          "internalType": "uint256",
          "name": "bidId",
          "type": "uint256"
        },
        {
          "indexed": false,
          "internalType": "uint256",
          "name": "quantity",
          "type": "uint256"
        },
        {
          "indexed": false,
          "internalType": "uint256",
          "name": "price",
          "type": "uint256"
        },
        {
          "indexed": false,
          "internalType": "bool",
          "name": "isBuying",
          "type": "bool"
        },
        {
          "indexed": false,
          "internalType": "uint256",
          "name": "clearingPrice",
          "type": "uint256"
        }
      ],
      "name": "HedgeOTCSingle",
      "type": "event"
    },
    {
      "anonymous": false,
      "inputs": [
        {
          "indexed": true,
          "internalType": "address",
          "name": "previousOwner",
          "type": "address"
        },
        {
          "indexed": true,
          "internalType": "address",
          "name": "newOwner",
          "type": "address"
        }
      ],
      "name": "OwnershipTransferred",
      "type": "event"
    },
    {
      "anonymous": false,
      "inputs": [
        {
          "indexed": false,
          "internalType": "uint256",
          "name": "newHedgePriceThreshold",
          "type": "uint256"
        }
      ],
      "name": "SetHedgePriceThreshold",
      "type": "event"
    },
    {
      "anonymous": false,
      "inputs": [
        {
          "indexed": false,
          "internalType": "uint256",
          "name": "newHedgeTimeThreshold",
          "type": "uint256"
        }
      ],
      "name": "SetHedgeTimeThreshold",
      "type": "event"
    },
    {
      "anonymous": false,
      "inputs": [
        {
          "indexed": false,
          "internalType": "uint32",
          "name": "newHedgingTwapPeriod",
          "type": "uint32"
        }
      ],
      "name": "SetHedgingTwapPeriod",
      "type": "event"
    },
    {
      "anonymous": false,
      "inputs": [
        {
          "indexed": false,
          "internalType": "uint256",
          "name": "otcPriceTolerance",
          "type": "uint256"
        }
      ],
      "name": "SetOTCPriceTolerance",
      "type": "event"
    },
    {
      "anonymous": false,
      "inputs": [
        {
          "indexed": false,
          "internalType": "uint256",
          "name": "newCapAmount",
          "type": "uint256"
        }
      ],
      "name": "SetStrategyCap",
      "type": "event"
    },
    {
      "anonymous": false,
      "inputs": [
        {
          "indexed": true,
          "internalType": "address",
          "name": "from",
          "type": "address"
        },
        {
          "indexed": true,
          "internalType": "address",
          "name": "to",
          "type": "address"
        },
        {
          "indexed": false,
          "internalType": "uint256",
          "name": "value",
          "type": "uint256"
        }
      ],
      "name": "Transfer",
      "type": "event"
    },
    {
      "anonymous": false,
      "inputs": [
        {
          "indexed": true,
          "internalType": "address",
          "name": "newStrategy",
          "type": "address"
        },
        {
          "indexed": false,
          "internalType": "uint256",
          "name": "vaultId",
          "type": "uint256"
        }
      ],
      "name": "VaultTransferred",
      "type": "event"
    },
    {
      "anonymous": false,
      "inputs": [
        {
          "indexed": true,
          "internalType": "address",
          "name": "withdrawer",
          "type": "address"
        },
        {
          "indexed": false,
          "internalType": "uint256",
          "name": "crabAmount",
          "type": "uint256"
        },
        {
          "indexed": false,
          "internalType": "uint256",
          "name": "wSqueethAmount",
          "type": "uint256"
        },
        {
          "indexed": false,
          "internalType": "uint256",
          "name": "ethWithdrawn",
          "type": "uint256"
        }
      ],
      "name": "Withdraw",
      "type": "event"
    },
    {
      "anonymous": false,
      "inputs": [
        {
          "indexed": true,
          "internalType": "address",
          "name": "withdrawer",
          "type": "address"
        },
        {
          "indexed": false,
          "internalType": "uint256",
          "name": "crabAmount",
          "type": "uint256"
        },
        {
          "indexed": false,
          "internalType": "uint256",
          "name": "ethWithdrawn",
          "type": "uint256"
        }
      ],
      "name": "WithdrawShutdown",
      "type": "event"
    },
    {
      "inputs": [],
      "name": "DOMAIN_SEPARATOR",
      "outputs": [
        {
          "internalType": "bytes32",
          "name": "",
          "type": "bytes32"
        }
      ],
      "stateMutability": "view",
      "type": "function"
    },
    {
      "inputs": [],
      "name": "MAX_OTC_PRICE_TOLERANCE",
      "outputs": [
        {
          "internalType": "uint256",
          "name": "",
          "type": "uint256"
        }
      ],
      "stateMutability": "view",
      "type": "function"
    },
    {
      "inputs": [],
      "name": "POWER_PERP_PERIOD",
      "outputs": [
        {
          "internalType": "uint32",
          "name": "",
          "type": "uint32"
        }
      ],
      "stateMutability": "view",
      "type": "function"
    },
    {
      "inputs": [
        {
          "internalType": "address",
          "name": "owner",
          "type": "address"
        },
        {
          "internalType": "address",
          "name": "spender",
          "type": "address"
        }
      ],
      "name": "allowance",
      "outputs": [
        {
          "internalType": "uint256",
          "name": "",
          "type": "uint256"
        }
      ],
      "stateMutability": "view",
      "type": "function"
    },
    {
      "inputs": [
        {
          "internalType": "address",
          "name": "spender",
          "type": "address"
        },
        {
          "internalType": "uint256",
          "name": "amount",
          "type": "uint256"
        }
      ],
      "name": "approve",
      "outputs": [
        {
          "internalType": "bool",
          "name": "",
          "type": "bool"
        }
      ],
      "stateMutability": "nonpayable",
      "type": "function"
    },
    {
      "inputs": [
        {
          "internalType": "address",
          "name": "account",
          "type": "address"
        }
      ],
      "name": "balanceOf",
      "outputs": [
        {
          "internalType": "uint256",
          "name": "",
          "type": "uint256"
        }
      ],
      "stateMutability": "view",
      "type": "function"
    },
    {
      "inputs": [],
      "name": "checkPriceHedge",
      "outputs": [
        {
          "internalType": "bool",
          "name": "",
          "type": "bool"
        }
      ],
      "stateMutability": "view",
      "type": "function"
    },
    {
      "inputs": [],
      "name": "checkTimeHedge",
      "outputs": [
        {
          "internalType": "bool",
          "name": "",
          "type": "bool"
        }
      ],
      "stateMutability": "view",
      "type": "function"
    },
    {
      "inputs": [],
      "name": "crabMigration",
      "outputs": [
        {
          "internalType": "address",
          "name": "",
          "type": "address"
        }
      ],
      "stateMutability": "view",
      "type": "function"
    },
    {
      "inputs": [],
      "name": "decimals",
      "outputs": [
        {
          "internalType": "uint8",
          "name": "",
          "type": "uint8"
        }
      ],
      "stateMutability": "view",
      "type": "function"
    },
    {
      "inputs": [
        {
          "internalType": "address",
          "name": "spender",
          "type": "address"
        },
        {
          "internalType": "uint256",
          "name": "subtractedValue",
          "type": "uint256"
        }
      ],
      "name": "decreaseAllowance",
      "outputs": [
        {
          "internalType": "bool",
          "name": "",
          "type": "bool"
        }
      ],
      "stateMutability": "nonpayable",
      "type": "function"
    },
    {
      "inputs": [],
      "name": "deposit",
      "outputs": [],
      "stateMutability": "payable",
      "type": "function"
    },
    {
      "inputs": [],
      "name": "ethWSqueethPool",
      "outputs": [
        {
          "internalType": "address",
          "name": "",
          "type": "address"
        }
      ],
      "stateMutability": "view",
      "type": "function"
    },
    {
      "inputs": [],
      "name": "factory",
      "outputs": [
        {
          "internalType": "address",
          "name": "",
          "type": "address"
        }
      ],
      "stateMutability": "view",
      "type": "function"
    },
    {
      "inputs": [
        {
          "internalType": "uint256",
          "name": "_ethToDeposit",
          "type": "uint256"
        },
        {
          "internalType": "uint24",
          "name": "_poolFee",
          "type": "uint24"
        }
      ],
      "name": "flashDeposit",
      "outputs": [],
      "stateMutability": "payable",
      "type": "function"
    },
    {
      "inputs": [
        {
          "internalType": "uint256",
          "name": "_crabAmount",
          "type": "uint256"
        },
        {
          "internalType": "uint256",
          "name": "_maxEthToPay",
          "type": "uint256"
        },
        {
          "internalType": "uint24",
          "name": "_poolFee",
          "type": "uint24"
        }
      ],
      "name": "flashWithdraw",
      "outputs": [],
      "stateMutability": "nonpayable",
      "type": "function"
    },
    {
      "inputs": [],
      "name": "getStrategyVaultId",
      "outputs": [
        {
          "internalType": "uint256",
          "name": "",
          "type": "uint256"
        }
      ],
      "stateMutability": "view",
      "type": "function"
    },
    {
      "inputs": [],
      "name": "getVaultDetails",
      "outputs": [
        {
          "internalType": "address",
          "name": "",
          "type": "address"
        },
        {
          "internalType": "uint256",
          "name": "",
          "type": "uint256"
        },
        {
          "internalType": "uint256",
          "name": "",
          "type": "uint256"
        },
        {
          "internalType": "uint256",
          "name": "",
          "type": "uint256"
        }
      ],
      "stateMutability": "view",
      "type": "function"
    },
    {
      "inputs": [
        {
          "internalType": "uint256",
          "name": "_crabAmount",
          "type": "uint256"
        }
      ],
      "name": "getWsqueethFromCrabAmount",
      "outputs": [
        {
          "internalType": "uint256",
          "name": "",
          "type": "uint256"
        }
      ],
      "stateMutability": "view",
      "type": "function"
    },
    {
      "inputs": [
        {
          "internalType": "uint256",
          "name": "_totalQuantity",
          "type": "uint256"
        },
        {
          "internalType": "uint256",
          "name": "_clearingPrice",
          "type": "uint256"
        },
        {
          "internalType": "bool",
          "name": "_isHedgeBuying",
          "type": "bool"
        },
        {
          "components": [
            {
              "internalType": "uint256",
              "name": "bidId",
              "type": "uint256"
            },
            {
              "internalType": "address",
              "name": "trader",
              "type": "address"
            },
            {
              "internalType": "uint256",
              "name": "quantity",
              "type": "uint256"
            },
            {
              "internalType": "uint256",
              "name": "price",
              "type": "uint256"
            },
            {
              "internalType": "bool",
              "name": "isBuying",
              "type": "bool"
            },
            {
              "internalType": "uint256",
              "name": "expiry",
              "type": "uint256"
            },
            {
              "internalType": "uint256",
              "name": "nonce",
              "type": "uint256"
            },
            {
              "internalType": "uint8",
              "name": "v",
              "type": "uint8"
            },
            {
              "internalType": "bytes32",
              "name": "r",
              "type": "bytes32"
            },
            {
              "internalType": "bytes32",
              "name": "s",
              "type": "bytes32"
            }
          ],
          "internalType": "struct CrabStrategyV2.Order[]",
          "name": "_orders",
          "type": "tuple[]"
        }
      ],
      "name": "hedgeOTC",
      "outputs": [],
      "stateMutability": "nonpayable",
      "type": "function"
    },
    {
      "inputs": [],
      "name": "hedgePriceThreshold",
      "outputs": [
        {
          "internalType": "uint256",
          "name": "",
          "type": "uint256"
        }
      ],
      "stateMutability": "view",
      "type": "function"
    },
    {
      "inputs": [],
      "name": "hedgeTimeThreshold",
      "outputs": [
        {
          "internalType": "uint256",
          "name": "",
          "type": "uint256"
        }
      ],
      "stateMutability": "view",
      "type": "function"
    },
    {
      "inputs": [],
      "name": "hedgingTwapPeriod",
      "outputs": [
        {
          "internalType": "uint32",
          "name": "",
          "type": "uint32"
        }
      ],
      "stateMutability": "view",
      "type": "function"
    },
    {
      "inputs": [
        {
          "internalType": "address",
          "name": "spender",
          "type": "address"
        },
        {
          "internalType": "uint256",
          "name": "addedValue",
          "type": "uint256"
        }
      ],
      "name": "increaseAllowance",
      "outputs": [
        {
          "internalType": "bool",
          "name": "",
          "type": "bool"
        }
      ],
      "stateMutability": "nonpayable",
      "type": "function"
    },
    {
      "inputs": [
        {
          "internalType": "uint256",
          "name": "_wSqueethToMint",
          "type": "uint256"
        },
        {
          "internalType": "uint256",
          "name": "_crabSharesToMint",
          "type": "uint256"
        },
        {
          "internalType": "uint256",
          "name": "_timeAtLastHedge",
          "type": "uint256"
        },
        {
          "internalType": "uint256",
          "name": "_priceAtLastHedge",
          "type": "uint256"
        },
        {
          "internalType": "uint256",
          "name": "_strategyCap",
          "type": "uint256"
        }
      ],
      "name": "initialize",
      "outputs": [],
      "stateMutability": "payable",
      "type": "function"
    },
    {
      "inputs": [],
      "name": "isInitialized",
      "outputs": [
        {
          "internalType": "bool",
          "name": "",
          "type": "bool"
        }
      ],
      "stateMutability": "view",
      "type": "function"
    },
    {
      "inputs": [],
      "name": "name",
      "outputs": [
        {
          "internalType": "string",
          "name": "",
          "type": "string"
        }
      ],
      "stateMutability": "view",
      "type": "function"
    },
    {
      "inputs": [
        {
          "internalType": "address",
          "name": "",
          "type": "address"
        },
        {
          "internalType": "uint256",
          "name": "",
          "type": "uint256"
        }
      ],
      "name": "nonces",
      "outputs": [
        {
          "internalType": "bool",
          "name": "",
          "type": "bool"
        }
      ],
      "stateMutability": "view",
      "type": "function"
    },
    {
      "inputs": [],
      "name": "oracle",
      "outputs": [
        {
          "internalType": "address",
          "name": "",
          "type": "address"
        }
      ],
      "stateMutability": "view",
      "type": "function"
    },
    {
      "inputs": [],
      "name": "otcPriceTolerance",
      "outputs": [
        {
          "internalType": "uint256",
          "name": "",
          "type": "uint256"
        }
      ],
      "stateMutability": "view",
      "type": "function"
    },
    {
      "inputs": [],
      "name": "owner",
      "outputs": [
        {
          "internalType": "address",
          "name": "",
          "type": "address"
        }
      ],
      "stateMutability": "view",
      "type": "function"
    },
    {
      "inputs": [],
      "name": "powerTokenController",
      "outputs": [
        {
          "internalType": "contract IController",
          "name": "",
          "type": "address"
        }
      ],
      "stateMutability": "view",
      "type": "function"
    },
    {
      "inputs": [],
      "name": "priceAtLastHedge",
      "outputs": [
        {
          "internalType": "uint256",
          "name": "",
          "type": "uint256"
        }
      ],
      "stateMutability": "view",
      "type": "function"
    },
    {
      "inputs": [],
      "name": "redeemShortShutdown",
      "outputs": [],
      "stateMutability": "nonpayable",
      "type": "function"
    },
    {
      "inputs": [],
      "name": "renounceOwnership",
      "outputs": [],
      "stateMutability": "nonpayable",
      "type": "function"
    },
    {
      "inputs": [
        {
          "internalType": "uint256",
          "name": "_hedgePriceThreshold",
          "type": "uint256"
        }
      ],
      "name": "setHedgePriceThreshold",
      "outputs": [],
      "stateMutability": "nonpayable",
      "type": "function"
    },
    {
      "inputs": [
        {
          "internalType": "uint256",
          "name": "_hedgeTimeThreshold",
          "type": "uint256"
        }
      ],
      "name": "setHedgeTimeThreshold",
      "outputs": [],
      "stateMutability": "nonpayable",
      "type": "function"
    },
    {
      "inputs": [
        {
          "internalType": "uint32",
          "name": "_hedgingTwapPeriod",
          "type": "uint32"
        }
      ],
      "name": "setHedgingTwapPeriod",
      "outputs": [],
      "stateMutability": "nonpayable",
      "type": "function"
    },
    {
      "inputs": [
        {
          "internalType": "uint256",
          "name": "_nonce",
          "type": "uint256"
        }
      ],
      "name": "setNonceTrue",
      "outputs": [],
      "stateMutability": "nonpayable",
      "type": "function"
    },
    {
      "inputs": [
        {
          "internalType": "uint256",
          "name": "_otcPriceTolerance",
          "type": "uint256"
        }
      ],
      "name": "setOTCPriceTolerance",
      "outputs": [],
      "stateMutability": "nonpayable",
      "type": "function"
    },
    {
      "inputs": [
        {
          "internalType": "uint256",
          "name": "_capAmount",
          "type": "uint256"
        }
      ],
      "name": "setStrategyCap",
      "outputs": [],
      "stateMutability": "nonpayable",
      "type": "function"
    },
    {
      "inputs": [],
      "name": "strategyCap",
      "outputs": [
        {
          "internalType": "uint256",
          "name": "",
          "type": "uint256"
        }
      ],
      "stateMutability": "view",
      "type": "function"
    },
    {
      "inputs": [],
      "name": "symbol",
      "outputs": [
        {
          "internalType": "string",
          "name": "",
          "type": "string"
        }
      ],
      "stateMutability": "view",
      "type": "function"
    },
    {
      "inputs": [],
      "name": "timeAtLastHedge",
      "outputs": [
        {
          "internalType": "uint256",
          "name": "",
          "type": "uint256"
        }
      ],
      "stateMutability": "view",
      "type": "function"
    },
    {
      "inputs": [],
      "name": "timelock",
      "outputs": [
        {
          "internalType": "address",
          "name": "",
          "type": "address"
        }
      ],
      "stateMutability": "view",
      "type": "function"
    },
    {
      "inputs": [],
      "name": "totalSupply",
      "outputs": [
        {
          "internalType": "uint256",
          "name": "",
          "type": "uint256"
        }
      ],
      "stateMutability": "view",
      "type": "function"
    },
    {
      "inputs": [
        {
          "internalType": "address",
          "name": "recipient",
          "type": "address"
        },
        {
          "internalType": "uint256",
          "name": "amount",
          "type": "uint256"
        }
      ],
      "name": "transfer",
      "outputs": [
        {
          "internalType": "bool",
          "name": "",
          "type": "bool"
        }
      ],
      "stateMutability": "nonpayable",
      "type": "function"
    },
    {
      "inputs": [
        {
          "internalType": "address",
          "name": "sender",
          "type": "address"
        },
        {
          "internalType": "address",
          "name": "recipient",
          "type": "address"
        },
        {
          "internalType": "uint256",
          "name": "amount",
          "type": "uint256"
        }
      ],
      "name": "transferFrom",
      "outputs": [
        {
          "internalType": "bool",
          "name": "",
          "type": "bool"
        }
      ],
      "stateMutability": "nonpayable",
      "type": "function"
    },
    {
      "inputs": [
        {
          "internalType": "address",
          "name": "newOwner",
          "type": "address"
        }
      ],
      "name": "transferOwnership",
      "outputs": [],
      "stateMutability": "nonpayable",
      "type": "function"
    },
    {
      "inputs": [
        {
          "internalType": "address",
          "name": "_newStrategy",
          "type": "address"
        }
      ],
      "name": "transferVault",
      "outputs": [],
      "stateMutability": "nonpayable",
      "type": "function"
    },
    {
      "inputs": [
        {
          "internalType": "int256",
          "name": "amount0Delta",
          "type": "int256"
        },
        {
          "internalType": "int256",
          "name": "amount1Delta",
          "type": "int256"
        },
        {
          "internalType": "bytes",
          "name": "_data",
          "type": "bytes"
        }
      ],
      "name": "uniswapV3SwapCallback",
      "outputs": [],
      "stateMutability": "nonpayable",
      "type": "function"
    },
    {
      "inputs": [],
      "name": "vaultId",
      "outputs": [
        {
          "internalType": "uint256",
          "name": "",
          "type": "uint256"
        }
      ],
      "stateMutability": "view",
      "type": "function"
    },
    {
      "inputs": [],
      "name": "wPowerPerp",
      "outputs": [
        {
          "internalType": "address",
          "name": "",
          "type": "address"
        }
      ],
      "stateMutability": "view",
      "type": "function"
    },
    {
      "inputs": [],
      "name": "weth",
      "outputs": [
        {
          "internalType": "address",
          "name": "",
          "type": "address"
        }
      ],
      "stateMutability": "view",
      "type": "function"
    },
    {
      "inputs": [
        {
          "internalType": "uint256",
          "name": "_crabAmount",
          "type": "uint256"
        }
      ],
      "name": "withdraw",
      "outputs": [],
      "stateMutability": "nonpayable",
      "type": "function"
    },
    {
      "inputs": [
        {
          "internalType": "uint256",
          "name": "_crabAmount",
          "type": "uint256"
        }
      ],
      "name": "withdrawShutdown",
      "outputs": [],
      "stateMutability": "nonpayable",
      "type": "function"
    },
    {
      "stateMutability": "payable",
      "type": "receive"
    }
  ],
  "transactionHash": "0x4d4869427232010f2581012b2750becdcad7ac0e524bf152ce298d00f3a97437",
  "args": [
    "0x2c60f986260c8412De7fA3384C7f0Bab1a4F72bf",
    "0x3A1B8e5D405F4080442C878aA114B17a1D60E14B",
    "0x0719E63EC564259D1ce12dFFD1431269C7d88700",
    "0x2Db05f50645a7EAEd686bdf64DE3F90Fde2041b3",
    "0xB583EA07699c5DEa4da084056273d6D70c2C3309",
    "0x59a9303907038A2be0e8837343E1A93Bd69004A3",
    "0x59a9303907038A2be0e8837343E1A93Bd69004A3",
    3600,
    "200000000000000000"
  ],
  "solcInputHash": "c53867cdbf46138ab42de1c7a1689875",
  "bytecode": "0x61022060405266b1a2bc2ec50000600955600a805463ffffffff19166101a41790553480156200002e57600080fd5b506040516200621538038062006215833981016040819052620000519162000669565b60405180604001604052806007815260200166437261624f544360c81b815250604051806040016040528060018152602001601960f91b815250878b8a6040518060400160405280601081526020016f21b930b11029ba3930ba32b3bc903b1960811b8152506040518060400160405280600681526020016521b930b13b1960d11b81525081818160039080519060200190620000f09291906200057c565b508051620001069060049060208401906200057c565b50506005805460ff19166012179055506001600160a01b038416620001485760405162461bcd60e51b81526004016200013f90620007af565b60405180910390fd5b6001600160a01b038316620001715760405162461bcd60e51b81526004016200013f90620007e6565b606083901b6001600160601b03191660805260058054610100600160a81b0319166101006001600160a01b0387811682029290921792839055604080516307f07b1360e41b815290519190930490911691637f07b130916004808301926020929190829003018186803b158015620001e857600080fd5b505afa158015620001fd573d6000803e3d6000fd5b505050506040513d601f19601f8201168201806040525081019062000223919062000645565b6001600160601b031960609190911b1660a052600554604051630728cf2360e31b81526101009091046001600160a01b0316906339467918906200027190600090819081906004016200072a565b602060405180830381600087803b1580156200028c57600080fd5b505af1158015620002a1573d6000803e3d6000fd5b505050506040513d601f19601f82011682018060405250810190620002c7919062000711565b60c052505050506001600160a01b038116620002f75760405162461bcd60e51b81526004016200013f906200075c565b60601b6001600160601b03191660e052600160065560006200031862000510565b600780546001600160a01b0319166001600160a01b038316908117909155604051919250906000907f8be0079c531659141344cd1fd0a4f28419497f9722a3daafe3b4186f6b6457e0908290a35081516020808401919091208251918301919091206101408290526101608190527f8b73c3c69bb8fe3d512ecc4cf759cc79239f7b179b0ffacaa9a75d522b39400f620003b162000514565b61012052620003c281848462000518565b6101005261018052505050506001600160a01b038816620003f75760405162461bcd60e51b81526004016200013f9062000855565b6001600160a01b038416620004205760405162461bcd60e51b81526004016200013f906200081d565b6001600160a01b038516620004495760405162461bcd60e51b81526004016200013f9062000871565b6001600160a01b038316620004725760405162461bcd60e51b81526004016200013f9062000740565b60008211620004955760405162461bcd60e51b81526004016200013f9062000793565b600081118015620004ae5750670de0b6b3a76400008111155b620004cd5760405162461bcd60e51b81526004016200013f9062000839565b6001600160601b0319606098891b81166101c05294881b85166101a052600b91909155600c5590851b82166101e05290931b90921661020052506200088d915050565b3390565b4690565b60008383836200052762000514565b3060405160200180868152602001858152602001848152602001838152602001826001600160a01b03168152602001955050505050506040516020818303038152906040528051906020012090509392505050565b828054600181600116156101000203166002900490600052602060002090601f016020900481019282620005b45760008555620005ff565b82601f10620005cf57805160ff1916838001178555620005ff565b82800160010185558215620005ff579182015b82811115620005ff578251825591602001919060010190620005e2565b506200060d92915062000611565b5090565b5b808211156200060d576000815560010162000612565b80516001600160a01b03811681146200064057600080fd5b919050565b60006020828403121562000657578081fd5b620006628262000628565b9392505050565b60008060008060008060008060006101208a8c03121562000688578485fd5b620006938a62000628565b9850620006a360208b0162000628565b9750620006b360408b0162000628565b9650620006c360608b0162000628565b9550620006d360808b0162000628565b9450620006e360a08b0162000628565b9350620006f360c08b0162000628565b925060e08a015191506101008a015190509295985092959850929598565b60006020828403121562000723578081fd5b5051919050565b9283526020830191909152604082015260600190565b602080825260029082015261219b60f11b604082015260600190565b60208082526017908201527f696e76616c696420666163746f72792061646472657373000000000000000000604082015260600190565b602080825260029082015261433760f01b604082015260600190565b6020808252601a908201527f696e76616c696420636f6e74726f6c6c65722061646472657373000000000000604082015260600190565b60208082526014908201527f696e76616c696420776574682061646472657373000000000000000000000000604082015260600190565b60208082526002908201526110cd60f21b604082015260600190565b602080825260029082015261086760f31b604082015260600190565b602080825260029082015261433360f01b604082015260600190565b602080825260029082015261433560f01b604082015260600190565b60805160601c60a05160601c60c05160e05160601c61010051610120516101405161016051610180516101a05160601c6101c05160601c6101e05160601c6102005160601c615820620009f560003980610bb55280611d54525080611b495280611d2752508061119852806129395280612ace52806144a2525080610f4452806129665280612afb52806144c352508061264852508061268a5250806126695250806125ef52508061261f525080611a5f5280611fc45280614463525080610cb65280610fb6528061146e5280611c485280611cee5280612859528061328d5280613b3a5250806111bc52806118df52806120b052806129885280612b1d5280613329528061357952806136ad5280613a8152806144e452508061037f5280610f2052806118be52806120d152806129aa5280612b3f5280612e345280612ed65280612f6e5280612ff35280613465528061376152806137e7528061450552506158206000f3fe60806040526004361061036f5760003560e01c80637f07b130116101c6578063cae74029116100f7578063e9c3cb4f11610095578063f5d278e41161006f578063f5d278e41461095e578063f73e19c314610973578063fa461e3314610993578063fc5b73ff146109b3576103e1565b8063e9c3cb4f14610914578063f101d92f14610929578063f2fde38b1461093e576103e1565b8063d2dd9f79116100d1578063d2dd9f79146108ac578063d33219b4146108cc578063dcbab608146108e1578063dd62ed3e146108f4576103e1565b8063cae740291461087a578063cfa70b181461088f578063d0e30db0146108a4576103e1565b8063a457c2d711610164578063b52b7ff01161013e578063b52b7ff014610810578063bdd438b814610830578063c245168914610850578063c45a015514610865576103e1565b8063a457c2d7146107b0578063a9059cbb146107d0578063b24f719b146107f0576103e1565b80638f8b8dbc116101a05780638f8b8dbc1461074657806395d89b41146107665780639ff69a511461077b578063a319b29f1461079b576103e1565b80637f07b1301461070757806388626eb81461071c5780638da5cb5b14610731576103e1565b80633d65fdac116102a057806366a91b761161023e57806370a082311161021857806370a082311461069d578063715018a6146106bd5780637bcdc16e146106d25780637dc0d1d0146106f2576103e1565b806366a91b761461065e57806367b8c345146106735780636c1040a914610688576103e1565b80634d76e6fc1161027a5780634d76e6fc146105ef578063502e1a1614610604578063533092ef1461062457806363bbc4b614610649576103e1565b80633d65fdac146105a55780633dcb0c5d146105c55780633fc8cef3146105da576103e1565b8063313ce5671161030d578063392e53cd116102e7578063392e53cd1461052e5780633950935114610543578063395ebb69146105635780633d3a62ee14610585576103e1565b8063313ce567146104e257806333194c0a146105045780633644e51514610519576103e1565b806318160ddd1161034957806318160ddd1461045e57806323b872dd14610480578063281e78d1146104a05780632e1a7d4d146104c2576103e1565b806306fdde03146103e6578063095ea7b3146104115780630ca514cd1461043e576103e1565b366103e157336001600160a01b037f00000000000000000000000000000000000000000000000000000000000000001614806103ba575060055461010090046001600160a01b031633145b6103df5760405162461bcd60e51b81526004016103d69061547e565b60405180910390fd5b005b600080fd5b3480156103f257600080fd5b506103fb6109c6565b604051610408919061511f565b60405180910390f35b34801561041d57600080fd5b5061043161042c366004614a72565b610a5d565b60405161040891906150d3565b34801561044a57600080fd5b506103df610459366004614cd2565b610a7b565b34801561046a57600080fd5b50610473610b25565b6040516104089190614fab565b34801561048c57600080fd5b5061043161049b366004614a32565b610b2b565b3480156104ac57600080fd5b506104b5610bb3565b6040516104089190614fb4565b3480156104ce57600080fd5b506103df6104dd366004614cd2565b610bd7565b3480156104ee57600080fd5b506104f7610cab565b604051610408919061559b565b34801561051057600080fd5b50610473610cb4565b34801561052557600080fd5b50610473610cd8565b34801561053a57600080fd5b50610431610ce7565b34801561054f57600080fd5b5061043161055e366004614a72565b610cf8565b34801561056f57600080fd5b50610578610d46565b604051610408919061558a565b34801561059157600080fd5b506103df6105a0366004614cd2565b610d4c565b3480156105b157600080fd5b506103df6105c0366004614cd2565b610ee4565b3480156105d157600080fd5b506104b5610f0a565b3480156105e657600080fd5b506104b5610f1e565b3480156105fb57600080fd5b506104b5610f42565b34801561061057600080fd5b5061043161061f366004614a72565b610f66565b34801561063057600080fd5b50610639610f86565b6040516104089493929190615078565b34801561065557600080fd5b50610473610fa2565b34801561066a57600080fd5b50610473610fa8565b34801561067f57600080fd5b50610473610fae565b34801561069457600080fd5b50610473610fb4565b3480156106a957600080fd5b506104736106b83660046149c2565b610fd8565b3480156106c957600080fd5b506103df610ff7565b3480156106de57600080fd5b506103df6106ed366004614cd2565b6110c2565b3480156106fe57600080fd5b506104b5611196565b34801561071357600080fd5b506104b56111ba565b34801561072857600080fd5b506104316111de565b34801561073d57600080fd5b506104b56111e8565b34801561075257600080fd5b506103df610761366004614ef1565b6111f7565b34801561077257600080fd5b506103fb6112d7565b34801561078757600080fd5b506103df610796366004614cd2565b611338565b3480156107a757600080fd5b506103df611409565b3480156107bc57600080fd5b506104316107cb366004614a72565b6114ca565b3480156107dc57600080fd5b506104316107eb366004614a72565b611532565b3480156107fc57600080fd5b506103df61080b366004614d2d565b611546565b34801561081c57600080fd5b506103df61082b366004614e83565b61184f565b34801561083c57600080fd5b506103df61084b366004614cd2565b611976565b34801561085c57600080fd5b50610431611a53565b34801561087157600080fd5b506104b5611a5d565b34801561088657600080fd5b50610473611a81565b34801561089b57600080fd5b50610473611a87565b6103df611a93565b3480156108b857600080fd5b506103df6108c73660046149c2565b611b3e565b3480156108d857600080fd5b506104b5611d25565b6103df6108ef366004614eb7565b611d49565b34801561090057600080fd5b5061047361090f3660046149fa565b611e0f565b34801561092057600080fd5b50610473611e3a565b34801561093557600080fd5b50610473611e40565b34801561094a57600080fd5b506103df6109593660046149c2565b611e46565b34801561096a57600080fd5b50610578611f68565b34801561097f57600080fd5b5061047361098e366004614cd2565b611f74565b34801561099f57600080fd5b506103df6109ae366004614adc565b611f7f565b6103df6109c1366004614d02565b612025565b60038054604080516020601f6002600019610100600188161502019095169490940493840181900481028201810190925282815260609390929091830182828015610a525780601f10610a2757610100808354040283529160200191610a52565b820191906000526020600020905b815481529060010190602001808311610a3557829003601f168201915b505050505090505b90565b6000610a71610a6a612172565b8484612176565b5060015b92915050565b610a83612172565b6001600160a01b0316610a946111e8565b6001600160a01b031614610aef576040805162461bcd60e51b815260206004820181905260248201527f4f776e61626c653a2063616c6c6572206973206e6f7420746865206f776e6572604482015290519081900360640190fd5b600a54640100000000900460ff16610b195760405162461bcd60e51b81526004016103d6906151f7565b610b2281612262565b50565b60025490565b6000610b38848484612297565b610ba884610b44612172565b610ba385604051806060016040528060288152602001615734602891396001600160a01b038a16600090815260016020526040812090610b82612172565b6001600160a01b0316815260208101919091526040016000205491906123f2565b612176565b5060015b9392505050565b7f000000000000000000000000000000000000000000000000000000000000000081565b60026006541415610c2f576040805162461bcd60e51b815260206004820152601f60248201527f5265656e7472616e637947756172643a207265656e7472616e742063616c6c00604482015290519081900360640190fd5b60026006556000610c3f82612489565b90506000610c5033848460006124b4565b9050610c5c3382612501565b336001600160a01b03167f02f25270a4d87bea75db541cdfe559334a275b4a233520ed6c0a2429667cca94848484604051610c9993929190615574565b60405180910390a25050600160065550565b60055460ff1690565b7f000000000000000000000000000000000000000000000000000000000000000081565b6000610ce26125eb565b905090565b600a54640100000000900460ff1681565b6000610a71610d05612172565b84610ba38560016000610d16612172565b6001600160a01b03908116825260208083019390935260409182016000908120918c1681529252902054906126b5565b6101a481565b60026006541415610da4576040805162461bcd60e51b815260206004820152601f60248201527f5265656e7472616e637947756172643a207265656e7472616e742063616c6c00604482015290519081900360640190fd5b6002600681905550600560019054906101000a90046001600160a01b03166001600160a01b031663ff9475256040518163ffffffff1660e01b8152600401602060405180830381600087803b158015610dfc57600080fd5b505af1158015610e10573d6000803e3d6000fd5b505050506040513d601f19601f82011682018060405250810190610e349190614a9d565b610e505760405162461bcd60e51b81526004016103d6906153ee565b600f5460ff16610e725760405162461bcd60e51b81526004016103d6906152aa565b6000610e8582610e80610b25565b61270f565b90506000610e93824761271b565b9050610e9f3384612727565b610ea93382612501565b336001600160a01b03167fe9ab9870b9093d99f8e981919f65ad09b7ae90ff80f1031639af9e0357eb9ed68483604051610c99929190615549565b33600090815260106020908152604080832093835292905220805460ff19166001179055565b60055461010090046001600160a01b031681565b7f000000000000000000000000000000000000000000000000000000000000000081565b7f000000000000000000000000000000000000000000000000000000000000000081565b601060209081526000928352604080842090915290825290205460ff1681565b600080600080610f94612823565b935093509350935090919293565b600e5481565b600b5481565b600d5481565b7f000000000000000000000000000000000000000000000000000000000000000090565b6001600160a01b0381166000908152602081905260409020545b919050565b610fff612172565b6001600160a01b03166110106111e8565b6001600160a01b03161461106b576040805162461bcd60e51b815260206004820181905260248201527f4f776e61626c653a2063616c6c6572206973206e6f7420746865206f776e6572604482015290519081900360640190fd5b6007546040516000916001600160a01b0316907f8be0079c531659141344cd1fd0a4f28419497f9722a3daafe3b4186f6b6457e0908390a36007805473ffffffffffffffffffffffffffffffffffffffff19169055565b6110ca612172565b6001600160a01b03166110db6111e8565b6001600160a01b031614611136576040805162461bcd60e51b815260206004820181905260248201527f4f776e61626c653a2063616c6c6572206973206e6f7420746865206f776e6572604482015290519081900360640190fd5b600081116111565760405162461bcd60e51b81526004016103d69061540b565b600b8190556040517f28e0e4ee0b14d4b056ce88e1bcd890ccd32b22e213723c8765901381b5eae7059061118b908390614fab565b60405180910390a150565b7f000000000000000000000000000000000000000000000000000000000000000081565b7f000000000000000000000000000000000000000000000000000000000000000081565b6000610ce261291a565b6007546001600160a01b031690565b6111ff612172565b6001600160a01b03166112106111e8565b6001600160a01b03161461126b576040805162461bcd60e51b815260206004820181905260248201527f4f776e61626c653a2063616c6c6572206973206e6f7420746865206f776e6572604482015290519081900360640190fd5b60b48163ffffffff1610156112925760405162461bcd60e51b81526004016103d690615169565b600a805463ffffffff191663ffffffff83161790556040517f1cd9c7f99a5530a38c8f2b387dcc78e8a76cb5b203e0c4316a66777d993dee359061118b90839061558a565b60048054604080516020601f6002600019610100600188161502019095169490940493840181900481028201810190925282815260609390929091830182828015610a525780601f10610a2757610100808354040283529160200191610a52565b611340612172565b6001600160a01b03166113516111e8565b6001600160a01b0316146113ac576040805162461bcd60e51b815260206004820181905260248201527f4f776e61626c653a2063616c6c6572206973206e6f7420746865206f776e6572604482015290519081900360640190fd5b6702c68af0bb1400008111156113d45760405162461bcd60e51b81526004016103d6906153d1565b60098190556040517f829c71710efa317bbdb8e5c4ca2b6d2551b7c2d7d37ea199975807eb3f5c0e7c9061118b908390614fab565b600a54640100000000900460ff166114335760405162461bcd60e51b81526004016103d6906151f7565b600f8054600160ff19909116179055600554604051634bf7d4a160e11b81526101009091046001600160a01b0316906397efa94290611496907f000000000000000000000000000000000000000000000000000000000000000090600401614fab565b600060405180830381600087803b1580156114b057600080fd5b505af11580156114c4573d6000803e3d6000fd5b50505050565b6000610a716114d7612172565b84610ba3856040518060600160405280602581526020016157c66025913960016000611501612172565b6001600160a01b03908116825260208083019390935260409182016000908120918d168152925290205491906123f2565b6000610a7161153f612172565b8484612297565b61154e612172565b6001600160a01b031661155f6111e8565b6001600160a01b0316146115ba576040805162461bcd60e51b815260206004820181905260248201527f4f776e61626c653a2063616c6c6572206973206e6f7420746865206f776e6572604482015290519081900360640190fd5b600a54640100000000900460ff166115e45760405162461bcd60e51b81526004016103d6906151f7565b600083116116045760405162461bcd60e51b81526004016103d690615398565b61160c612a90565b8061161a575061161a61291a565b6116365760405162461bcd60e51b81526004016103d690615444565b6116408383612ab1565b42600d55600e839055805184906000908390829061165a57fe5b602002602001015160600151905060008360008151811061167757fe5b602002602001015160600151905060008460008151811061169457fe5b602002602001015160800151905080151586151514156116c65760405162461bcd60e51b81526004016103d690615324565b60005b85518110156117ef578581815181106116de57fe5b60200260200101516060015192508115158682815181106116fb57fe5b6020026020010151608001511515146117265760405162461bcd60e51b81526004016103d690615427565b8615611751578383101561174c5760405162461bcd60e51b81526004016103d690615341565b611771565b838311156117715760405162461bcd60e51b81526004016103d690615341565b829350611792858988848151811061178557fe5b6020026020010151612c71565b85818151811061179e57fe5b6020026020010151604001518511156117e2576117db8682815181106117c057fe5b602002602001015160400151866130e390919063ffffffff16565b94506117e7565b6117ef565b6001016116c9565b507fbbc3ba742efe346cfdf333000069964e0ee3087c68da267dac977d299f2366fb8560008151811061181e57fe5b60200260200101516000015189888a60405161183d9493929190615557565b60405180910390a15050505050505050565b600260065414156118a7576040805162461bcd60e51b815260206004820152601f60248201527f5265656e7472616e637947756172643a207265656e7472616e742063616c6c00604482015290519081900360640190fd5b600260065560006118b784612489565b90506119287f00000000000000000000000000000000000000000000000000000000000000007f000000000000000000000000000000000000000000000000000000000000000084848760018a6040516020016119149190614fab565b60405160208183030381529060405261313b565b336001600160a01b03167fa13b272c1cf13ba724064d3d4809d9f557aab8da2bb582cba031a2f57e728e9d8583604051611963929190615549565b60405180910390a2505060016006555050565b61197e612172565b6001600160a01b031661198f6111e8565b6001600160a01b0316146119ea576040805162461bcd60e51b815260206004820181905260248201527f4f776e61626c653a2063616c6c6572206973206e6f7420746865206f776e6572604482015290519081900360640190fd5b600081118015611a025750670de0b6b3a76400008111155b611a1e5760405162461bcd60e51b81526004016103d6906154d4565b600c8190556040517f789e4b8ad1c375952cea7f07c9b3b6619a84b406432b948246cecb8ced96b9fa9061118b908390614fab565b6000610ce2612a90565b7f000000000000000000000000000000000000000000000000000000000000000081565b60085481565b6702c68af0bb14000081565b60026006541415611aeb576040805162461bcd60e51b815260206004820152601f60248201527f5265656e7472616e637947756172643a207265656e7472616e742063616c6c00604482015290519081900360640190fd5b600260065534600080611aff3384836131bc565b91509150336001600160a01b03167f90890809c654f11d6e72a28fa60149770a0d11ec6c92319d6ceb2bb0a4ea1a158383604051610c99929190615549565b336001600160a01b037f00000000000000000000000000000000000000000000000000000000000000001614611b865760405162461bcd60e51b81526004016103d6906153b5565b600a54640100000000900460ff16611bb05760405162461bcd60e51b81526004016103d6906151f7565b600560019054906101000a90046001600160a01b03166001600160a01b0316639d4c94426040518163ffffffff1660e01b815260040160206040518083038186803b158015611bfe57600080fd5b505afa158015611c12573d6000803e3d6000fd5b505050506040513d601f19601f82011682018060405250810190611c3691906149de565b6001600160a01b03166342842e0e30837f00000000000000000000000000000000000000000000000000000000000000006040518463ffffffff1660e01b8152600401611c8593929190614fc8565b600060405180830381600087803b158015611c9f57600080fd5b505af1158015611cb3573d6000803e3d6000fd5b50505050611cc16000612262565b806001600160a01b03167fae97956757017853415251f661bfe857898f44ddb9c90b2483065719b84b0c697f0000000000000000000000000000000000000000000000000000000000000000604051611d1a9190614fab565b60405180910390a250565b7f000000000000000000000000000000000000000000000000000000000000000081565b336001600160a01b037f00000000000000000000000000000000000000000000000000000000000000001614611d915760405162461bcd60e51b81526004016103d69061528d565b600a54640100000000900460ff1615611dbc5760405162461bcd60e51b81526004016103d69061535e565b611dc581612262565b34611dd1816000613230565b600d849055600e839055611de8338783600061325f565b611df233866133b9565b5050600a805464ff00000000191664010000000017905550505050565b6001600160a01b03918216600090815260016020908152604080832093909416825291909152205490565b60095481565b600c5481565b611e4e612172565b6001600160a01b0316611e5f6111e8565b6001600160a01b031614611eba576040805162461bcd60e51b815260206004820181905260248201527f4f776e61626c653a2063616c6c6572206973206e6f7420746865206f776e6572604482015290519081900360640190fd5b6001600160a01b038116611eff5760405162461bcd60e51b81526004018080602001828103825260268152602001806156486026913960400191505060405180910390fd5b6007546040516001600160a01b038084169216907f8be0079c531659141344cd1fd0a4f28419497f9722a3daafe3b4186f6b6457e090600090a36007805473ffffffffffffffffffffffffffffffffffffffff19166001600160a01b0392909216919091179055565b600a5463ffffffff1681565b6000610a7582612489565b6000841380611f8e5750600083135b611f9757600080fd5b6000611fa582840184614b72565b90506000806000611fb984600001516133c3565b925092509250611feb7f00000000000000000000000000000000000000000000000000000000000000008484846133f4565b506000808913611ffb5787611ffd565b885b905061201a8560200151858585858a606001518b60400151613413565b505050505050505050565b6002600654141561207d576040805162461bcd60e51b815260206004820152601f60248201527f5265656e7472616e637947756172643a207265656e7472616e742063616c6c00604482015290519081900360640190fd5b600260065560008061208d6138ec565b9150915061209b8482613230565b60006120a8858484613906565b5090506121237f00000000000000000000000000000000000000000000000000000000000000007f000000000000000000000000000000000000000000000000000000000000000086846120fc8a346130e3565b60008b60405160200161210f9190614fab565b604051602081830303815290604052613995565b336001600160a01b03167f5d85169ff8329e90f3225f9798e0eba54d00c55d3bbfe201a0d1606febb23a8e868360405161215e929190615549565b60405180910390a250506001600655505050565b3390565b6001600160a01b0383166121bb5760405162461bcd60e51b81526004018080602001828103825260248152602001806157a26024913960400191505060405180910390fd5b6001600160a01b0382166122005760405162461bcd60e51b815260040180806020018281038252602281526020018061566e6022913960400191505060405180910390fd5b6001600160a01b03808416600081815260016020908152604080832094871680845294825291829020859055815185815291517f8c5be1e5ebec7d5bd14f71427d1e84f3dd0314c0f7b2291e5b200ac8c7c3b9259281900390910190a3505050565b60088190556040517f29600e2e028c8c5c2b112d021938e0d0237d8fafcbb20394c56cf9fa4661ca279061118b908390614fab565b6001600160a01b0383166122dc5760405162461bcd60e51b815260040180806020018281038252602581526020018061577d6025913960400191505060405180910390fd5b6001600160a01b0382166123215760405162461bcd60e51b81526004018080602001828103825260238152602001806156036023913960400191505060405180910390fd5b61232c8383836125e6565b61236981604051806060016040528060268152602001615690602691396001600160a01b03861660009081526020819052604090205491906123f2565b6001600160a01b03808516600090815260208190526040808220939093559084168152205461239890826126b5565b6001600160a01b038084166000818152602081815260409182902094909455805185815290519193928716927fddf252ad1be2c89b69c2b068fc378daa952ba7f163c4a11628f55a4df523b3ef92918290030190a3505050565b600081848411156124815760405162461bcd60e51b81526004018080602001828103825283818151815260200191508051906020019080838360005b8381101561244657818101518382015260200161242e565b50505050905090810190601f1680156124735780820380516001836020036101000a031916815260200191505b509250505060405180910390fd5b505050900390565b600080612494612823565b9350505050610bac6124a4610b25565b6124ae8386613a0c565b90613a45565b6000806124bf6138ec565b91505060006124d086610e80610b25565b905060006124de828461271b565b90506124ec88878388613a65565b6124f68888612727565b979650505050505050565b80471015612556576040805162461bcd60e51b815260206004820152601d60248201527f416464726573733a20696e73756666696369656e742062616c616e6365000000604482015290519081900360640190fd5b6040516000906001600160a01b0384169083908381818185875af1925050503d80600081146125a1576040519150601f19603f3d011682016040523d82523d6000602084013e6125a6565b606091505b50509050806125e65760405162461bcd60e51b815260040180806020018281038252603a8152602001806156b6603a913960400191505060405180910390fd5b505050565b60007f0000000000000000000000000000000000000000000000000000000000000000612616613b94565b141561264357507f0000000000000000000000000000000000000000000000000000000000000000610a5a565b6126ae7f00000000000000000000000000000000000000000000000000000000000000007f00000000000000000000000000000000000000000000000000000000000000007f0000000000000000000000000000000000000000000000000000000000000000613b98565b9050610a5a565b600082820183811015610bac576040805162461bcd60e51b815260206004820152601b60248201527f536166654d6174683a206164646974696f6e206f766572666c6f770000000000604482015290519081900360640190fd5b6000610bac8383613a45565b6000610bac8284613a0c565b6001600160a01b03821661276c5760405162461bcd60e51b815260040180806020018281038252602181526020018061575c6021913960400191505060405180910390fd5b612778826000836125e6565b6127b581604051806060016040528060228152602001615626602291396001600160a01b03851660009081526020819052604090205491906123f2565b6001600160a01b0383166000908152602081905260409020556002546127db9082613bfa565b6002556040805182815290516000916001600160a01b038516917fddf252ad1be2c89b69c2b068fc378daa952ba7f163c4a11628f55a4df523b3ef9181900360200190a35050565b600554604051634632752560e11b8152600091829182918291829161010090046001600160a01b031690638c64ea4a90612881907f000000000000000000000000000000000000000000000000000000000000000090600401614fab565b60806040518083038186803b15801561289957600080fd5b505afa1580156128ad573d6000803e3d6000fd5b505050506040513d601f19601f820116820180604052508101906128d19190614c30565b805160208201516040830151606090930151919863ffffffff90911697506bffffffffffffffffffffffff90921695506fffffffffffffffffffffffffffffffff169350915050565b600a5460405163cce79bd560e01b815260009182916001600160a01b037f0000000000000000000000000000000000000000000000000000000000000000169163cce79bd5916129de917f0000000000000000000000000000000000000000000000000000000000000000917f0000000000000000000000000000000000000000000000000000000000000000917f00000000000000000000000000000000000000000000000000000000000000009163ffffffff90911690600190600401614fec565b60206040518083038186803b1580156129f657600080fd5b505afa158015612a0a573d6000803e3d6000fd5b505050506040513d601f19601f82011682018060405250810190612a2e9190614cea565b90506000612a47600e5483613a4590919063ffffffff16565b90506000670de0b6b3a76400008211612a7157612a6c670de0b6b3a7640000836130e3565b612a83565b612a8382670de0b6b3a76400006130e3565b600c541115935050505090565b6000612aa9600b54600d54613c5790919063ffffffff16565b421015905090565b600a5460405163cce79bd560e01b81526000916001600160a01b037f0000000000000000000000000000000000000000000000000000000000000000169163cce79bd591612b71917f0000000000000000000000000000000000000000000000000000000000000000917f0000000000000000000000000000000000000000000000000000000000000000917f00000000000000000000000000000000000000000000000000000000000000009163ffffffff1690600190600401614fec565b60206040518083038186803b158015612b8957600080fd5b505afa158015612b9d573d6000803e3d6000fd5b505050506040513d601f19601f82011682018060405250810190612bc19190614cea565b90508115612c2657612c02670de0b6b3a7640000612bfc612bf5600954670de0b6b3a7640000613c5790919063ffffffff16565b8490613caf565b90613d1b565b831115612c215760405162461bcd60e51b81526004016103d6906152c7565b6125e6565b612c52670de0b6b3a7640000612bfc612bf5600954670de0b6b3a76400006130e390919063ffffffff16565b8310156125e65760405162461bcd60e51b81526004016103d690615230565b806080015115612ca4578060600151821115612c9f5760405162461bcd60e51b81526004016103d69061549a565b612cc8565b8060600151821015612cc85760405162461bcd60e51b81526004016103d69061537b565b612cda81602001518260c00151613d7a565b60007fc8aea8e60353611f3ed5409dad2d3173390bd252431198e7300eda67fefb66b1826000015183602001518460400151856060015186608001518760a001518860c00151604051602001612d379897969594939291906150de565b6040516020818303038152906040528051906020012090506000612d5a82613dee565b90506000612d78828560e00151866101000151876101200151613e3a565b905083602001516001600160a01b0316816001600160a01b031614612daf5760405162461bcd60e51b81526004016103d690615461565b428460a001511015612dd35760405162461bcd60e51b81526004016103d690615186565b8360400151861015612de757604084018690525b6000612e0c670de0b6b3a7640000612bfc888860400151613caf90919063ffffffff16565b9050846080015115612f575760208501516040516323b872dd60e01b81526001600160a01b037f000000000000000000000000000000000000000000000000000000000000000016916323b872dd91612e6c919030908690600401614fc8565b602060405180830381600087803b158015612e8657600080fd5b505af1158015612e9a573d6000803e3d6000fd5b505050506040513d601f19601f82011682018060405250810190612ebe9190614a9d565b50604051632e1a7d4d60e01b81526001600160a01b037f00000000000000000000000000000000000000000000000000000000000000001690632e1a7d4d90612f0b908490600401614fab565b600060405180830381600087803b158015612f2557600080fd5b505af1158015612f39573d6000803e3d6000fd5b50505050612f528560200151866040015183600061325f565b613085565b612f6c85602001518660400151836000613a65565b7f00000000000000000000000000000000000000000000000000000000000000006001600160a01b031663d0e30db0826040518263ffffffff1660e01b81526004016000604051808303818588803b158015612fc757600080fd5b505af1158015612fdb573d6000803e3d6000fd5b50505050602086015160405163a9059cbb60e01b81527f00000000000000000000000000000000000000000000000000000000000000006001600160a01b0316925063a9059cbb9161303191859060040161505f565b602060405180830381600087803b15801561304b57600080fd5b505af115801561305f573d6000803e3d6000fd5b505050506040513d601f19601f820116820180604052508101906130839190614a9d565b505b7f68c36f17c620d197a81d3aeff305f83abf3bb29943a38cd6efc299041238652d856020015186600001518760400151886060015189608001518b6040516130d29695949392919061509e565b60405180910390a150505050505050565b80820382811115610a75576040805162461bcd60e51b815260206004820152601560248201527f64732d6d6174682d7375622d756e646572666c6f770000000000000000000000604482015290519081900360640190fd5b60006131908530600060405180608001604052808c8c8f60405160200161316493929190614f58565b60408051601f1981840301815291815290825233602083015260ff8a1690820152606001879052613faf565b9050838111156131b25760405162461bcd60e51b81526004016103d6906151c0565b5050505050505050565b6000806000806131ca6138ec565b915091506131d88682613230565b6000806131e6888585613906565b909250905060006132086131fa8a846130e3565b85613203610b25565b61411c565b90506132168a848b8b61325f565b6132208a826133b9565b9199919850909650505050505050565b60085461323d8284613c57565b111561325b5760405162461bcd60e51b81526004016103d690615213565b5050565b600554604051630728cf2360e31b81526101009091046001600160a01b03169063394679189084906132ba907f0000000000000000000000000000000000000000000000000000000000000000908890600090600401615574565b6020604051808303818588803b1580156132d357600080fd5b505af11580156132e7573d6000803e3d6000fd5b50505050506040513d601f19601f8201168201806040525081019061330c9190614cea565b50806114c45760405163a9059cbb60e01b81526001600160a01b037f0000000000000000000000000000000000000000000000000000000000000000169063a9059cbb90613360908790879060040161505f565b602060405180830381600087803b15801561337a57600080fd5b505af115801561338e573d6000803e3d6000fd5b505050506040513d601f19601f820116820180604052508101906133b29190614a9d565b5050505050565b61325b828261416b565b600080806133d1848261425b565b92506133de846014614327565b90506133eb84601761425b565b91509193909250565b600061340a856134058686866143e3565b614439565b95945050505050565b60008160ff16600181111561342457fe5b600181111561342f57fe5b14156136665760008280602001905181019061344b9190614b57565b6040516370a0823160e01b81529091506001600160a01b037f00000000000000000000000000000000000000000000000000000000000000001690632e1a7d4d9082906370a08231906134a2903090600401614fb4565b60206040518083038186803b1580156134ba57600080fd5b505afa1580156134ce573d6000803e3d6000fd5b505050506040513d601f19601f820116820180604052508101906134f29190614cea565b6040518263ffffffff1660e01b815260040161350e9190614fab565b600060405180830381600087803b15801561352857600080fd5b505af115801561353c573d6000803e3d6000fd5b5050505061355088826000015160016131bc565b5050600061355f88888861445c565b60405163a9059cbb60e01b81529091506001600160a01b037f0000000000000000000000000000000000000000000000000000000000000000169063a9059cbb906135b0908490899060040161505f565b602060405180830381600087803b1580156135ca57600080fd5b505af11580156135de573d6000803e3d6000fd5b505050506040513d601f19601f820116820180604052508101906136029190614a9d565b50886001600160a01b03167fc355ebece16d7e85e486911f0cde1074bc4bd3fec251c88cdddc7076d3e99adb864760405161363e929190615549565b60405180910390a2471561365f5761365f6001600160a01b038a1647612501565b50506138e3565b60018160ff16600181111561367757fe5b600181111561368257fe5b14156138e35760008280602001905181019061369e9190614b57565b9050600061374e8983600001517f00000000000000000000000000000000000000000000000000000000000000006001600160a01b03166370a08231306040518263ffffffff1660e01b81526004016136f79190614fb4565b60206040518083038186803b15801561370f57600080fd5b505afa158015613723573d6000803e3d6000fd5b505050506040513d601f19601f820116820180604052508101906137479190614cea565b60016124b4565b9050600061375d89898961445c565b90507f00000000000000000000000000000000000000000000000000000000000000006001600160a01b031663d0e30db0876040518263ffffffff1660e01b81526004016000604051808303818588803b1580156137ba57600080fd5b505af11580156137ce573d6000803e3d6000fd5b505060405163a9059cbb60e01b81526001600160a01b037f000000000000000000000000000000000000000000000000000000000000000016935063a9059cbb9250613821915084908a9060040161505f565b602060405180830381600087803b15801561383b57600080fd5b505af115801561384f573d6000803e3d6000fd5b505050506040513d601f19601f820116820180604052508101906138739190614a9d565b50600061388083886130e3565b90508a6001600160a01b03167f6f3269a64126ef2a1959892f3d921e81865181e09a7f72f55d3a49550c53b48d88836040516138bd929190615549565b60405180910390a280156138de576138de6001600160a01b038c1682612501565b505050505b50505050505050565b6000806000806138fa612823565b96509450505050509091565b60008060008061391461449a565b9050600086158015613924575085155b80156139365750613933610b25565b15155b905080156139565760405162461bcd60e51b81526004016103d6906151a3565b61397761396d6139668985613a0c565b8890613c57565b6124ae8a8a613a0c565b925060006139858484613a0c565b9399939850929650505050505050565b60006139ea8530600060405180608001604052808d8c8e6040516020016139be93929190614f58565b60408051601f1981840301815291815290825233602083015260ff8a16908201526060018790526145d1565b9050838110156131b25760405162461bcd60e51b81526004016103d690615132565b6000670de0b6b3a7640000613a36613a248585613caf565b6002670de0b6b3a76400005b04613c57565b81613a3d57fe5b049392505050565b600081613a36613a5d85670de0b6b3a7640000613caf565b600285613a30565b80613b0e576040516323b872dd60e01b81526001600160a01b037f000000000000000000000000000000000000000000000000000000000000000016906323b872dd90613aba90879030908890600401614fc8565b602060405180830381600087803b158015613ad457600080fd5b505af1158015613ae8573d6000803e3d6000fd5b505050506040513d601f19601f82011682018060405250810190613b0c9190614a9d565b505b600554604051638632cb0360e01b81526101009091046001600160a01b031690638632cb0390613b66907f00000000000000000000000000000000000000000000000000000000000000009087908790600401615574565b600060405180830381600087803b158015613b8057600080fd5b505af11580156131b2573d6000803e3d6000fd5b4690565b6000838383613ba5613b94565b3060405160200180868152602001858152602001848152602001838152602001826001600160a01b03168152602001955050505050506040516020818303038152906040528051906020012090509392505050565b600082821115613c51576040805162461bcd60e51b815260206004820152601e60248201527f536166654d6174683a207375627472616374696f6e206f766572666c6f770000604482015290519081900360640190fd5b50900390565b80820182811015610a75576040805162461bcd60e51b815260206004820152601460248201527f64732d6d6174682d6164642d6f766572666c6f77000000000000000000000000604482015290519081900360640190fd5b6000811580613cca57505080820282828281613cc757fe5b04145b610a75576040805162461bcd60e51b815260206004820152601460248201527f64732d6d6174682d6d756c2d6f766572666c6f77000000000000000000000000604482015290519081900360640190fd5b6000808211613d71576040805162461bcd60e51b815260206004820152601a60248201527f536166654d6174683a206469766973696f6e206279207a65726f000000000000604482015290519081900360640190fd5b818381613a3d57fe5b6001600160a01b038216600090815260106020908152604080832084845290915290205460ff1615613dbe5760405162461bcd60e51b81526004016103d6906154b7565b6001600160a01b03909116600090815260106020908152604080832093835292905220805460ff19166001179055565b6000613df86125eb565b82604051602001808061190160f01b81525060020183815260200182815260200192505050604051602081830303815290604052805190602001209050919050565b60007f7fffffffffffffffffffffffffffffff5d576e7357a4501ddfe92f46681b20a0821115613e9b5760405162461bcd60e51b81526004018080602001828103825260228152602001806156f06022913960400191505060405180910390fd5b8360ff16601b1480613eb057508360ff16601c145b613eeb5760405162461bcd60e51b81526004018080602001828103825260228152602001806157126022913960400191505060405180910390fd5b600060018686868660405160008152602001604052604051808581526020018460ff1681526020018381526020018281526020019450505050506020604051602081039080840390855afa158015613f47573d6000803e3d6000fd5b5050604051601f1901519150506001600160a01b03811661340a576040805162461bcd60e51b815260206004820152601860248201527f45434453413a20696e76616c6964207369676e61747572650000000000000000604482015290519081900360640190fd5b600080600080613fc285600001516133c3565b919450925090506001600160a01b0380841690831610600080613fe685878661445c565b6001600160a01b031663128acb088b85613fff8f614710565b6000036001600160a01b038e1615614017578d61403d565b876140365773fffd8963efd1fc6a506488495d951d5263988d2561403d565b6401000276a45b8d60405160200161404e91906154f0565b6040516020818303038152906040526040518663ffffffff1660e01b815260040161407d959493929190615025565b6040805180830381600087803b15801561409657600080fd5b505af11580156140aa573d6000803e3d6000fd5b505050506040513d601f19601f820116820180604052508101906140ce9190614ab9565b91509150600080846140e45782846000036140ea565b83836000035b915091508a6001600160a01b03166000141561410c578c811461410c57600080fd5b509b9a5050505050505050505050565b60008061413361412c8587613c57565b8690613a45565b905082156141625761415a614150670de0b6b3a7640000836130e3565b6124ae8584613a0c565b915050610bac565b50929392505050565b6001600160a01b0382166141c6576040805162461bcd60e51b815260206004820152601f60248201527f45524332303a206d696e7420746f20746865207a65726f206164647265737300604482015290519081900360640190fd5b6141d2600083836125e6565b6002546141df90826126b5565b6002556001600160a01b03821660009081526020819052604090205461420590826126b5565b6001600160a01b0383166000818152602081815260408083209490945583518581529351929391927fddf252ad1be2c89b69c2b068fc378daa952ba7f163c4a11628f55a4df523b3ef9281900390910190a35050565b6000818260140110156142b5576040805162461bcd60e51b815260206004820152601260248201527f746f416464726573735f6f766572666c6f770000000000000000000000000000604482015290519081900360640190fd5b816014018351101561430e576040805162461bcd60e51b815260206004820152601560248201527f746f416464726573735f6f75744f66426f756e64730000000000000000000000604482015290519081900360640190fd5b5001602001516c01000000000000000000000000900490565b600081826003011015614381576040805162461bcd60e51b815260206004820152601160248201527f746f55696e7432345f6f766572666c6f77000000000000000000000000000000604482015290519081900360640190fd5b81600301835110156143da576040805162461bcd60e51b815260206004820152601460248201527f746f55696e7432345f6f75744f66426f756e6473000000000000000000000000604482015290519081900360640190fd5b50016003015190565b6143eb6148c8565b826001600160a01b0316846001600160a01b03161115614409579192915b50604080516060810182526001600160a01b03948516815292909316602083015262ffffff169181019190915290565b60006144458383614726565b9050336001600160a01b03821614610a7557600080fd5b60006144927f000000000000000000000000000000000000000000000000000000000000000061448d8686866143e3565b614726565b949350505050565b60008061452e7f00000000000000000000000000000000000000000000000000000000000000007f00000000000000000000000000000000000000000000000000000000000000007f00000000000000000000000000000000000000000000000000000000000000007f00000000000000000000000000000000000000000000000000000000000000006101a46000614822565b90506000600560019054906101000a90046001600160a01b03166001600160a01b031663978bbdb96040518163ffffffff1660e01b815260040160206040518083038186803b15801561458057600080fd5b505afa158015614594573d6000803e3d6000fd5b505050506040513d601f19601f820116820180604052508101906145b89190614cea565b90506145ca612710612bfc8484613caf565b9250505090565b6000806000806145e485600001516133c3565b919450925090506001600160a01b038083169084161060008061460886868661445c565b6001600160a01b031663128acb088b856146218f614710565b6001600160a01b038e1615614636578d61465c565b876146555773fffd8963efd1fc6a506488495d951d5263988d2561465c565b6401000276a45b8d60405160200161466d91906154f0565b6040516020818303038152906040526040518663ffffffff1660e01b815260040161469c959493929190615025565b6040805180830381600087803b1580156146b557600080fd5b505af11580156146c9573d6000803e3d6000fd5b505050506040513d601f19601f820116820180604052508101906146ed9190614ab9565b91509150826146fc57816146fe565b805b6000039b9a5050505050505050505050565b6000600160ff1b821061472257600080fd5b5090565b600081602001516001600160a01b031682600001516001600160a01b03161061474e57600080fd5b50805160208083015160409384015184516001600160a01b0394851681850152939091168385015262ffffff166060808401919091528351808403820181526080840185528051908301207fff0000000000000000000000000000000000000000000000000000000000000060a085015294901b6bffffffffffffffffffffffff191660a183015260b58201939093527fe34f199b19b2b4f47f68442619d555527d244f78a3297ea89325f843f87b8b5460d5808301919091528251808303909101815260f5909101909152805191012090565b6040805163cce79bd560e01b81526001600160a01b0387811660048301528681166024830152858116604483015263ffffffff851660648301528315156084830152915160009289169163cce79bd59160a4808301926020929190829003018186803b15801561489157600080fd5b505afa1580156148a5573d6000803e3d6000fd5b505050506040513d60208110156148bb57600080fd5b5051979650505050505050565b604080516060810182526000808252602082018190529181019190915290565b8035610ff2816155cd565b8035610ff2816155e2565b600082601f83011261490e578081fd5b813567ffffffffffffffff81111561492257fe5b614935601f8201601f19166020016155a9565b818152846020838601011115614949578283fd5b816020850160208301379081016020019190915292915050565b600060208284031215614974578081fd5b6040516020810181811067ffffffffffffffff8211171561499157fe5b6040529151825250919050565b803562ffffff81168114610ff257600080fd5b803560ff81168114610ff257600080fd5b6000602082840312156149d3578081fd5b8135610bac816155cd565b6000602082840312156149ef578081fd5b8151610bac816155cd565b60008060408385031215614a0c578081fd5b8235614a17816155cd565b91506020830135614a27816155cd565b809150509250929050565b600080600060608486031215614a46578081fd5b8335614a51816155cd565b92506020840135614a61816155cd565b929592945050506040919091013590565b60008060408385031215614a84578182fd5b8235614a8f816155cd565b946020939093013593505050565b600060208284031215614aae578081fd5b8151610bac816155e2565b60008060408385031215614acb578182fd5b505080516020909101519092909150565b60008060008060608587031215614af1578182fd5b8435935060208501359250604085013567ffffffffffffffff80821115614b16578384fd5b818701915087601f830112614b29578384fd5b813581811115614b37578485fd5b886020828501011115614b48578485fd5b95989497505060200194505050565b600060208284031215614b68578081fd5b610bac8383614963565b600060208284031215614b83578081fd5b813567ffffffffffffffff80821115614b9a578283fd5b9083019060808286031215614bad578283fd5b604051608081018181108382111715614bc257fe5b604052823582811115614bd3578485fd5b614bdf878286016148fe565b825250614bee602084016148e8565b6020820152614bff604084016149b1565b6040820152606083013582811115614c15578485fd5b614c21878286016148fe565b60608301525095945050505050565b600060808284031215614c41578081fd5b6040516080810181811067ffffffffffffffff82111715614c5e57fe5b6040528251614c6c816155cd565b81526020830151614c7c816155f0565b602082015260408301516bffffffffffffffffffffffff81168114614c9f578283fd5b604082015260608301516fffffffffffffffffffffffffffffffff81168114614cc6578283fd5b60608201529392505050565b600060208284031215614ce3578081fd5b5035919050565b600060208284031215614cfb578081fd5b5051919050565b60008060408385031215614d14578182fd5b82359150614d246020840161499e565b90509250929050565b60008060008060808587031215614d42578182fd5b843593506020808601359350604080870135614d5d816155e2565b9350606087013567ffffffffffffffff80821115614d79578485fd5b818901915089601f830112614d8c578485fd5b813581811115614d9857fe5b614da585868302016155a9565b8181528581019250838601610140808402860188018e1015614dc5578889fd5b8895505b83861015614e6f5780828f031215614ddf578889fd5b614de8816155a9565b82358152614df78984016148e8565b89820152878301358882015260608301356060820152614e19608084016148f3565b608082015260a0838101359082015260c0808401359082015260e0614e3f8185016149b1565b90820152610100838101359082015261012080840135908201528552600195909501949387019390810190614dc9565b505080965050505050505092959194509250565b600080600060608486031215614e97578081fd5b8335925060208401359150614eae6040850161499e565b90509250925092565b600080600080600060a08688031215614ece578283fd5b505083359560208501359550604085013594606081013594506080013592509050565b600060208284031215614f02578081fd5b8135610bac816155f0565b60008151808452815b81811015614f3257602081850181015186830182015201614f16565b81811115614f435782602083870101525b50601f01601f19169290920160200192915050565b606093841b6bffffffffffffffffffffffff19908116825260e89390931b7fffffff0000000000000000000000000000000000000000000000000000000000166014820152921b166017820152602b0190565b90815260200190565b6001600160a01b0391909116815260200190565b6001600160a01b039384168152919092166020820152604081019190915260600190565b6001600160a01b039586168152938516602085015291909316604083015263ffffffff9092166060820152901515608082015260a00190565b60006001600160a01b038088168352861515602084015285604084015280851660608401525060a060808301526124f660a0830184614f0d565b6001600160a01b03929092168252602082015260400190565b6001600160a01b0394909416845260208401929092526040830152606082015260800190565b6001600160a01b039690961686526020860194909452604085019290925260608401521515608083015260a082015260c00190565b901515815260200190565b97885260208801969096526001600160a01b0394909416604087015260608601929092526080850152151560a084015260c083015260e08201526101000190565b600060208252610bac6020830184614f0d565b60208082526018908201527f616d6f756e74206f7574206c657373207468616e206d696e0000000000000000604082015260600190565b60208082526003908201526210cc4d60ea1b604082015260600190565b60208082526003908201526204332360ec1b604082015260600190565b60208082526003908201526221991b60e91b604082015260600190565b6020808252601a908201527f616d6f756e7420696e2067726561746572207468616e206d6178000000000000604082015260600190565b602080825260029082015261219960f11b604082015260600190565b60208082526003908201526221989b60e91b604082015260600190565b60208082526027908201527f507269636520746f6f206c6f772072656c617469766520746f20556e6973776160408201527f7020747761702e00000000000000000000000000000000000000000000000000606082015260800190565b60208082526003908201526204331360ec1b604082015260600190565b60208082526003908201526243313360e81b604082015260600190565b60208082526028908201527f507269636520746f6f20686967682072656c617469766520746f20556e69737760408201527f617020747761702e000000000000000000000000000000000000000000000000606082015260800190565b60208082526003908201526243323360e81b604082015260600190565b60208082526003908201526243323560e81b604082015260600190565b60208082526003908201526243313160e81b604082015260600190565b60208082526003908201526208662760eb1b604082015260600190565b60208082526003908201526243323160e81b604082015260600190565b602080825260029082015261433160f01b604082015260600190565b60208082526003908201526243313560e81b604082015260600190565b60208082526003908201526221989960e91b604082015260600190565b602080825260029082015261433760f01b604082015260600190565b60208082526003908201526210cc8d60ea1b604082015260600190565b60208082526003908201526221991960e91b604082015260600190565b60208082526003908201526243313960e81b604082015260600190565b602080825260029082015261433960f01b604082015260600190565b60208082526003908201526243313760e81b604082015260600190565b60208082526003908201526243323760e81b604082015260600190565b602080825260029082015261086760f31b604082015260600190565b60006020825282516080602084015261550c60a0840182614f0d565b90506001600160a01b03602085015116604084015260ff60408501511660608401526060840151601f1984830301608085015261340a8282614f0d565b918252602082015260400190565b938452602084019290925215156040830152606082015260800190565b9283526020830191909152604082015260600190565b63ffffffff91909116815260200190565b60ff91909116815260200190565b60405181810167ffffffffffffffff811182821017156155c557fe5b604052919050565b6001600160a01b0381168114610b2257600080fd5b8015158114610b2257600080fd5b63ffffffff81168114610b2257600080fdfe45524332303a207472616e7366657220746f20746865207a65726f206164647265737345524332303a206275726e20616d6f756e7420657863656564732062616c616e63654f776e61626c653a206e6577206f776e657220697320746865207a65726f206164647265737345524332303a20617070726f766520746f20746865207a65726f206164647265737345524332303a207472616e7366657220616d6f756e7420657863656564732062616c616e6365416464726573733a20756e61626c6520746f2073656e642076616c75652c20726563697069656e74206d6179206861766520726576657274656445434453413a20696e76616c6964207369676e6174757265202773272076616c756545434453413a20696e76616c6964207369676e6174757265202776272076616c756545524332303a207472616e7366657220616d6f756e74206578636565647320616c6c6f77616e636545524332303a206275726e2066726f6d20746865207a65726f206164647265737345524332303a207472616e736665722066726f6d20746865207a65726f206164647265737345524332303a20617070726f76652066726f6d20746865207a65726f206164647265737345524332303a2064656372656173656420616c6c6f77616e63652062656c6f77207a65726fa26469706673582212205588e36b593aca521cd7221641031ca4fe125d2300af7c70ba2abc8ce18bf28564736f6c63430007060033",
  "devdoc": {
    "author": "Opyn team",
    "details": "CrabStrategyV2 contract",
    "kind": "dev",
    "methods": {
      "DOMAIN_SEPARATOR()": {
        "details": "view function to get the domain seperator used in signing"
      },
      "allowance(address,address)": {
        "details": "See {IERC20-allowance}."
      },
      "approve(address,uint256)": {
        "details": "See {IERC20-approve}. Requirements: - `spender` cannot be the zero address."
      },
      "balanceOf(address)": {
        "details": "See {IERC20-balanceOf}."
      },
      "checkPriceHedge()": {
        "returns": {
          "_0": "true if hedging is allowed"
        }
      },
      "checkTimeHedge()": {
        "returns": {
          "_0": "true if hedging is allowed"
        }
      },
      "constructor": {
        "details": "this will open a vault in the power token contract and store the vault ID",
        "params": {
          "_crabMigration": "crab migration contract address",
          "_ethWSqueethPool": "eth:wSqueeth uniswap pool address",
          "_hedgePriceThreshold": "hedge price threshold (0.1*1e18 = 10%)",
          "_hedgeTimeThreshold": "hedge time threshold (seconds)",
          "_oracle": "oracle address",
          "_timelock": "timelock contract address",
          "_uniswapFactory": "uniswap factory address",
          "_wSqueethController": "power token controller address",
          "_weth": "weth address"
        }
      },
      "decimals()": {
        "details": "Returns the number of decimals used to get its user representation. For example, if `decimals` equals `2`, a balance of `505` tokens should be displayed to a user as `5,05` (`505 / 10 ** 2`). Tokens usually opt for a value of 18, imitating the relationship between Ether and Wei. This is the value {ERC20} uses, unless {_setupDecimals} is called. NOTE: This information is only used for _display_ purposes: it in no way affects any of the arithmetic of the contract, including {IERC20-balanceOf} and {IERC20-transfer}."
      },
      "decreaseAllowance(address,uint256)": {
        "details": "Atomically decreases the allowance granted to `spender` by the caller. This is an alternative to {approve} that can be used as a mitigation for problems described in {IERC20-approve}. Emits an {Approval} event indicating the updated allowance. Requirements: - `spender` cannot be the zero address. - `spender` must have allowance for the caller of at least `subtractedValue`."
      },
      "deposit()": {
        "details": "provide ETH, return wSqueeth and strategy token"
      },
      "flashDeposit(uint256,uint24)": {
        "details": "this function will execute a flash swap where it receives ETH, deposits and mints using flash swap proceeds and msg.value, and then repays the flash swap with wSqueeth_ethToDeposit must be less than msg.value plus the proceeds from the flash swapthe difference between _ethToDeposit and msg.value provides the minimum that a user can receive for their sold wSqueeth",
        "params": {
          "_ethToDeposit": "total ETH that will be deposited in to the strategy which is a combination of msg.value and flash swap proceeds",
          "_poolFee": "Uniswap pool fee"
        }
      },
      "flashWithdraw(uint256,uint256,uint24)": {
        "details": "this function will execute a flash swap where it receives wSqueeth, burns, withdraws ETH and then repays the flash swap with ETH",
        "params": {
          "_crabAmount": "strategy token amount to burn",
          "_maxEthToPay": "maximum ETH to pay to buy back the wSqueeth debt",
          "_poolFee": "Uniswap pool fee"
        }
      },
      "getStrategyVaultId()": {
        "returns": {
          "_0": "vault ID"
        }
      },
      "getVaultDetails()": {
        "returns": {
          "_0": "operator",
          "_1": "nft collateral id",
          "_2": "collateral amount",
          "_3": "short amount"
        }
      },
      "getWsqueethFromCrabAmount(uint256)": {
        "params": {
          "_crabAmount": "strategy token amount"
        },
        "returns": {
          "_0": "wSqueeth amount"
        }
      },
      "hedgeOTC(uint256,uint256,bool,(uint256,address,uint256,uint256,bool,uint256,uint256,uint8,bytes32,bytes32)[])": {
        "details": "hedge function to reduce delta using an array of signed orders",
        "params": {
          "_clearingPrice": "clearing price in weth",
          "_isHedgeBuying": "direction of hedge trade",
          "_orders": "an array of signed order to swap tokens",
          "_totalQuantity": "quantity the manager wants to trade"
        }
      },
      "increaseAllowance(address,uint256)": {
        "details": "Atomically increases the allowance granted to `spender` by the caller. This is an alternative to {approve} that can be used as a mitigation for problems described in {IERC20-approve}. Emits an {Approval} event indicating the updated allowance. Requirements: - `spender` cannot be the zero address."
      },
      "initialize(uint256,uint256,uint256,uint256,uint256)": {
        "params": {
          "_crabSharesToMint": "crab shares to mint",
          "_priceAtLastHedge": "price at last hedge for crab V1",
          "_strategyCap": "strategy cap for crab V2",
          "_timeAtLastHedge": "time at last hedge for crab V1",
          "_wSqueethToMint": "amount of wPowerPerp to mint"
        }
      },
      "name()": {
        "details": "Returns the name of the token."
      },
      "owner()": {
        "details": "Returns the address of the current owner."
      },
      "redeemShortShutdown()": {
        "details": "needs to be called before users can exit strategy using withdrawShutdown"
      },
      "renounceOwnership()": {
        "details": "Leaves the contract without owner. It will not be possible to call `onlyOwner` functions anymore. Can only be called by the current owner. NOTE: Renouncing ownership will leave the contract without an owner, thereby removing any functionality that is only available to the owner."
      },
      "setHedgePriceThreshold(uint256)": {
        "params": {
          "_hedgePriceThreshold": "the hedge price threshold, in percent, scaled by 1e18"
        }
      },
      "setHedgeTimeThreshold(uint256)": {
        "params": {
          "_hedgeTimeThreshold": "the hedge time threshold, in seconds"
        }
      },
      "setHedgingTwapPeriod(uint32)": {
        "params": {
          "_hedgingTwapPeriod": "the twap period, in seconds"
        }
      },
      "setNonceTrue(uint256)": {
        "params": {
          "_nonce": "the number to be set true"
        }
      },
      "setOTCPriceTolerance(uint256)": {
        "params": {
          "_otcPriceTolerance": "the OTC price tolerance, in percent, scaled by 1e18"
        }
      },
      "setStrategyCap(uint256)": {
        "details": "deposits are rejected if it would put the strategy above the cap amountstrategy collateral can be above the cap amount due to hedging activities",
        "params": {
          "_capAmount": "the maximum strategy collateral in ETH, checked on deposits"
        }
      },
      "symbol()": {
        "details": "Returns the symbol of the token, usually a shorter version of the name."
      },
      "totalSupply()": {
        "details": "See {IERC20-totalSupply}."
      },
      "transfer(address,uint256)": {
        "details": "See {IERC20-transfer}. Requirements: - `recipient` cannot be the zero address. - the caller must have a balance of at least `amount`."
      },
      "transferFrom(address,address,uint256)": {
        "details": "See {IERC20-transferFrom}. Emits an {Approval} event indicating the updated allowance. This is not required by the EIP. See the note at the beginning of {ERC20}. Requirements: - `sender` and `recipient` cannot be the zero address. - `sender` must have a balance of at least `amount`. - the caller must have allowance for ``sender``'s tokens of at least `amount`."
      },
      "transferOwnership(address)": {
        "details": "Transfers ownership of the contract to a new account (`newOwner`). Can only be called by the current owner."
      },
      "transferVault(address)": {
        "details": "strategy cap is set to 0 to avoid future deposits",
        "params": {
          "_newStrategy": "new strategy contract address"
        }
      },
      "uniswapV3SwapCallback(int256,int256,bytes)": {
        "params": {
          "_data": "callback data encoded as SwapCallbackData struct",
          "amount0Delta": "amount of token0",
          "amount1Delta": "amount of token1"
        }
      },
      "withdraw(uint256)": {
        "details": "provide strategy tokens and wSqueeth, returns ETH",
        "params": {
          "_crabAmount": "amount of strategy token to burn"
        }
      },
      "withdrawShutdown(uint256)": {
        "params": {
          "_crabAmount": "amount of strategy token to burn"
        }
      }
    },
    "stateVariables": {
      "ONE": {
        "details": "basic unit used for calculation"
      },
      "POWER_PERP_PERIOD": {
        "details": "the TWAP_PERIOD used in the PowerPerp Controller contract"
      },
      "_CRAB_BALANCE_TYPEHASH": {
        "details": "typehash for signed orders"
      },
      "ethWSqueethPool": {
        "details": "ETH:wSqueeth uniswap pool"
      },
      "hasRedeemedInShutdown": {
        "details": "set to true when redeemShortShutdown has been called"
      },
      "hedgePriceThreshold": {
        "details": "price movement to trigger a hedge (0.1*1e18 = 10%)"
      },
      "hedgeTimeThreshold": {
        "details": "time difference to trigger a hedge (seconds)"
      },
      "hedgingTwapPeriod": {
        "details": "twap period to use for hedge calculations"
      },
      "isInitialized": {
        "details": "true if CrabV2 was initialized"
      },
      "nonces": {
        "details": "store the used flag for a nonce for each address"
      },
      "oracle": {
        "details": "strategy uniswap oracle"
      },
      "priceAtLastHedge": {
        "details": "wSqueeth/Eth price when last hedge executed"
      },
      "strategyCap": {
        "details": "the cap in ETH for the strategy, above which deposits will be rejected"
      },
      "timeAtLastHedge": {
        "details": "timestamp when last hedge executed"
      }
    },
    "version": 1
  },
  "userdoc": {
    "kind": "user",
    "methods": {
      "checkPriceHedge()": {
        "notice": "check if hedging based on price threshold is allowed"
      },
      "checkTimeHedge()": {
        "notice": "check if hedging based on time threshold is allowed"
      },
      "constructor": {
        "notice": "strategy constructor"
      },
      "deposit()": {
        "notice": "deposit ETH into strategy"
      },
      "flashDeposit(uint256,uint24)": {
        "notice": "flash deposit into strategy, providing ETH, selling wSqueeth and receiving strategy tokens"
      },
      "flashWithdraw(uint256,uint256,uint24)": {
        "notice": "flash withdraw from strategy, providing strategy tokens, buying wSqueeth, burning and receiving ETH"
      },
      "getStrategyVaultId()": {
        "notice": "get power token strategy vault ID "
      },
      "getVaultDetails()": {
        "notice": "get the vault composition of the strategy "
      },
      "getWsqueethFromCrabAmount(uint256)": {
        "notice": "get wSqueeth debt amount associated with strategy token amount"
      },
      "initialize(uint256,uint256,uint256,uint256,uint256)": {
        "notice": "initializes the collateral ratio after the first migration"
      },
      "redeemShortShutdown()": {
        "notice": "called to redeem the net value of a vault post shutdown"
      },
      "setHedgePriceThreshold(uint256)": {
        "notice": "owner can set the hedge time threshold in percent, scaled by 1e18 that determines the deviation in wPowerPerp price that can trigger a rebalance"
      },
      "setHedgeTimeThreshold(uint256)": {
        "notice": "owner can set the hedge time threshold in seconds that determines how often the strategy can be hedged"
      },
      "setHedgingTwapPeriod(uint32)": {
        "notice": "owner can set the twap period in seconds that is used for calculating twaps for hedging"
      },
      "setNonceTrue(uint256)": {
        "notice": "set nonce to true"
      },
      "setOTCPriceTolerance(uint256)": {
        "notice": "owner can set a threshold, scaled by 1e18 that determines the maximum discount of a clearing sale price to the current uniswap twap price"
      },
      "setStrategyCap(uint256)": {
        "notice": "owner can set the strategy cap in ETH collateral terms"
      },
      "transferVault(address)": {
        "notice": "transfer vault NFT to new contract"
      },
      "uniswapV3SwapCallback(int256,int256,bytes)": {
        "notice": "uniswap swap callback function for flashes"
      },
      "withdraw(uint256)": {
        "notice": "withdraw WETH from strategy"
      },
      "withdrawShutdown(uint256)": {
        "notice": "called to exit a vault if the Squeeth Power Perp contracts are shutdown"
      }
    },
    "notice": "Contract for Crab strategy",
    "version": 1
  },
  "storageLayout": {
    "storage": [
      {
        "astId": 881,
        "contract": "contracts/strategy/CrabStrategyV2.sol:CrabStrategyV2",
        "label": "_balances",
        "offset": 0,
        "slot": "0",
        "type": "t_mapping(t_address,t_uint256)"
      },
      {
        "astId": 887,
        "contract": "contracts/strategy/CrabStrategyV2.sol:CrabStrategyV2",
        "label": "_allowances",
        "offset": 0,
        "slot": "1",
        "type": "t_mapping(t_address,t_mapping(t_address,t_uint256))"
      },
      {
        "astId": 889,
        "contract": "contracts/strategy/CrabStrategyV2.sol:CrabStrategyV2",
        "label": "_totalSupply",
        "offset": 0,
        "slot": "2",
        "type": "t_uint256"
      },
      {
        "astId": 891,
        "contract": "contracts/strategy/CrabStrategyV2.sol:CrabStrategyV2",
        "label": "_name",
        "offset": 0,
        "slot": "3",
        "type": "t_string_storage"
      },
      {
        "astId": 893,
        "contract": "contracts/strategy/CrabStrategyV2.sol:CrabStrategyV2",
        "label": "_symbol",
        "offset": 0,
        "slot": "4",
        "type": "t_string_storage"
      },
      {
        "astId": 895,
        "contract": "contracts/strategy/CrabStrategyV2.sol:CrabStrategyV2",
        "label": "_decimals",
        "offset": 0,
        "slot": "5",
        "type": "t_uint8"
      },
      {
        "astId": 27266,
        "contract": "contracts/strategy/CrabStrategyV2.sol:CrabStrategyV2",
        "label": "powerTokenController",
        "offset": 1,
        "slot": "5",
        "type": "t_contract(IController)11604"
      },
      {
        "astId": 4176,
        "contract": "contracts/strategy/CrabStrategyV2.sol:CrabStrategyV2",
        "label": "_status",
        "offset": 0,
        "slot": "6",
        "type": "t_uint256"
      },
      {
        "astId": 7,
        "contract": "contracts/strategy/CrabStrategyV2.sol:CrabStrategyV2",
        "label": "_owner",
        "offset": 0,
        "slot": "7",
        "type": "t_address"
      },
      {
        "astId": 25279,
        "contract": "contracts/strategy/CrabStrategyV2.sol:CrabStrategyV2",
        "label": "strategyCap",
        "offset": 0,
        "slot": "8",
        "type": "t_uint256"
      },
      {
        "astId": 25293,
        "contract": "contracts/strategy/CrabStrategyV2.sol:CrabStrategyV2",
        "label": "otcPriceTolerance",
        "offset": 0,
        "slot": "9",
        "type": "t_uint256"
      },
      {
        "astId": 25300,
        "contract": "contracts/strategy/CrabStrategyV2.sol:CrabStrategyV2",
        "label": "hedgingTwapPeriod",
        "offset": 0,
        "slot": "10",
        "type": "t_uint32"
      },
      {
        "astId": 25303,
        "contract": "contracts/strategy/CrabStrategyV2.sol:CrabStrategyV2",
        "label": "isInitialized",
        "offset": 4,
        "slot": "10",
        "type": "t_bool"
      },
      {
        "astId": 25325,
        "contract": "contracts/strategy/CrabStrategyV2.sol:CrabStrategyV2",
        "label": "hedgeTimeThreshold",
        "offset": 0,
        "slot": "11",
        "type": "t_uint256"
      },
      {
        "astId": 25328,
        "contract": "contracts/strategy/CrabStrategyV2.sol:CrabStrategyV2",
        "label": "hedgePriceThreshold",
        "offset": 0,
        "slot": "12",
        "type": "t_uint256"
      },
      {
        "astId": 25331,
        "contract": "contracts/strategy/CrabStrategyV2.sol:CrabStrategyV2",
        "label": "timeAtLastHedge",
        "offset": 0,
        "slot": "13",
        "type": "t_uint256"
      },
      {
        "astId": 25334,
        "contract": "contracts/strategy/CrabStrategyV2.sol:CrabStrategyV2",
        "label": "priceAtLastHedge",
        "offset": 0,
        "slot": "14",
        "type": "t_uint256"
      },
      {
        "astId": 25337,
        "contract": "contracts/strategy/CrabStrategyV2.sol:CrabStrategyV2",
        "label": "hasRedeemedInShutdown",
        "offset": 0,
        "slot": "15",
        "type": "t_bool"
      },
      {
        "astId": 25344,
        "contract": "contracts/strategy/CrabStrategyV2.sol:CrabStrategyV2",
        "label": "nonces",
        "offset": 0,
        "slot": "16",
        "type": "t_mapping(t_address,t_mapping(t_uint256,t_bool))"
      }
    ],
    "types": {
      "t_address": {
        "encoding": "inplace",
        "label": "address",
        "numberOfBytes": "20"
      },
      "t_bool": {
        "encoding": "inplace",
        "label": "bool",
        "numberOfBytes": "1"
      },
      "t_contract(IController)11604": {
        "encoding": "inplace",
        "label": "contract IController",
        "numberOfBytes": "20"
      },
      "t_mapping(t_address,t_mapping(t_address,t_uint256))": {
        "encoding": "mapping",
        "key": "t_address",
        "label": "mapping(address => mapping(address => uint256))",
        "numberOfBytes": "32",
        "value": "t_mapping(t_address,t_uint256)"
      },
      "t_mapping(t_address,t_mapping(t_uint256,t_bool))": {
        "encoding": "mapping",
        "key": "t_address",
        "label": "mapping(address => mapping(uint256 => bool))",
        "numberOfBytes": "32",
        "value": "t_mapping(t_uint256,t_bool)"
      },
      "t_mapping(t_address,t_uint256)": {
        "encoding": "mapping",
        "key": "t_address",
        "label": "mapping(address => uint256)",
        "numberOfBytes": "32",
        "value": "t_uint256"
      },
      "t_mapping(t_uint256,t_bool)": {
        "encoding": "mapping",
        "key": "t_uint256",
        "label": "mapping(uint256 => bool)",
        "numberOfBytes": "32",
        "value": "t_bool"
      },
      "t_string_storage": {
        "encoding": "bytes",
        "label": "string",
        "numberOfBytes": "32"
      },
      "t_uint256": {
        "encoding": "inplace",
        "label": "uint256",
        "numberOfBytes": "32"
      },
      "t_uint32": {
        "encoding": "inplace",
        "label": "uint32",
        "numberOfBytes": "4"
      },
      "t_uint8": {
        "encoding": "inplace",
        "label": "uint8",
        "numberOfBytes": "1"
      }
    }
  }
}