{
  "address": "0x660BA6A7EedbF18CC3041cE3B1223385298e3275",
  "abi": [
    {
      "inputs": [
        {
          "internalType": "address",
          "name": "_crab",
          "type": "address"
        },
        {
          "internalType": "address",
          "name": "_swapRouter",
          "type": "address"
        }
      ],
      "stateMutability": "nonpayable",
      "type": "constructor"
    },
    {
      "anonymous": false,
      "inputs": [
        {
          "indexed": true,
          "internalType": "address",
          "name": "depositor",
          "type": "address"
        },
        {
          "indexed": false,
          "internalType": "address",
          "name": "depositedERC20",
          "type": "address"
        },
        {
          "indexed": false,
          "internalType": "uint256",
          "name": "depositedAmount",
          "type": "uint256"
        },
        {
          "indexed": false,
          "internalType": "uint256",
          "name": "depositedEthAmount",
          "type": "uint256"
        },
        {
          "indexed": false,
          "internalType": "uint256",
          "name": "crabAmount",
          "type": "uint256"
        },
        {
          "indexed": false,
          "internalType": "uint256",
          "name": "returnedEth",
          "type": "uint256"
        }
      ],
      "name": "FlashDepositERC20",
      "type": "event"
    },
    {
      "anonymous": false,
      "inputs": [
        {
          "indexed": true,
          "internalType": "address",
          "name": "withdrawer",
          "type": "address"
        },
        {
          "indexed": false,
          "internalType": "address",
          "name": "withdrawnERC20",
          "type": "address"
        },
        {
          "indexed": false,
          "internalType": "uint256",
          "name": "withdrawnAmount",
          "type": "uint256"
        },
        {
          "indexed": false,
          "internalType": "uint256",
          "name": "withdrawnEthAmount",
          "type": "uint256"
        },
        {
          "indexed": false,
          "internalType": "uint256",
          "name": "crabAmount",
          "type": "uint256"
        }
      ],
      "name": "FlashWithdrawERC20",
      "type": "event"
    },
    {
      "inputs": [],
      "name": "crab",
      "outputs": [
        {
          "internalType": "address",
          "name": "",
          "type": "address"
        }
      ],
      "stateMutability": "view",
      "type": "function"
    },
    {
      "inputs": [
        {
          "internalType": "uint256",
          "name": "_ethToDeposit",
          "type": "uint256"
        },
        {
          "internalType": "uint256",
          "name": "_amountIn",
          "type": "uint256"
        },
        {
          "internalType": "uint256",
          "name": "_minEthToGet",
          "type": "uint256"
        },
        {
          "internalType": "uint24",
          "name": "_erc20Fee",
          "type": "uint24"
        },
        {
          "internalType": "uint24",
          "name": "_wPowerPerpFee",
          "type": "uint24"
        },
        {
          "internalType": "address",
          "name": "_tokenIn",
          "type": "address"
        }
      ],
      "name": "flashDepositERC20",
      "outputs": [],
      "stateMutability": "nonpayable",
      "type": "function"
    },
    {
      "inputs": [
        {
          "internalType": "uint256",
          "name": "_crabAmount",
          "type": "uint256"
        },
        {
          "internalType": "uint256",
          "name": "_maxEthToPay",
          "type": "uint256"
        },
        {
          "internalType": "address",
          "name": "_tokenOut",
          "type": "address"
        },
        {
          "internalType": "uint256",
          "name": "_minAmountOut",
          "type": "uint256"
        },
        {
          "internalType": "uint24",
          "name": "_erc20Fee",
          "type": "uint24"
        },
        {
          "internalType": "uint24",
          "name": "_wPowerPerpFee",
          "type": "uint24"
        }
      ],
      "name": "flashWithdrawERC20",
      "outputs": [],
      "stateMutability": "nonpayable",
      "type": "function"
    },
    {
      "inputs": [],
      "name": "swapRouter",
      "outputs": [
        {
          "internalType": "contract ISwapRouter",
          "name": "",
          "type": "address"
        }
      ],
      "stateMutability": "view",
      "type": "function"
    },
    {
      "inputs": [],
      "name": "weth",
      "outputs": [
        {
          "internalType": "address",
          "name": "",
          "type": "address"
        }
      ],
      "stateMutability": "view",
      "type": "function"
    },
    {
      "stateMutability": "payable",
      "type": "receive"
    }
  ],
  "transactionHash": "0x2360decdd08c349868a42485d6d6e105a9364afd6fa21eacc38db8a37ace0540",
  "args": [
    "0x49a423Bc9F1dEe5A052b1E72a1dbE9de488d4411",
    "0x200775Be10EA5dCee478C193E6B6E66E13d878C0"
  ],
  "solcInputHash": "c53867cdbf46138ab42de1c7a1689875",
  "bytecode": "0x60e060405234801561001057600080fd5b50604051610f84380380610f848339818101604052604081101561003357600080fd5b508051602090910151806001600160a01b03811661006c5760405162461bcd60e51b815260040161006390610176565b60405180910390fd5b60601b6001600160601b03191660805260016000556001600160a01b0382166100dc576040805162461bcd60e51b815260206004820152601460248201527f496e76616c696420637261622061646472657373000000000000000000000000604482015290519081900360640190fd5b816001600160a01b031660a0816001600160a01b031660601b81525050816001600160a01b0316633fc8cef36040518163ffffffff1660e01b815260040160206040518083038186803b15801561013257600080fd5b505afa158015610146573d6000803e3d6000fd5b505050506040513d602081101561015c57600080fd5b505160601b6001600160601b03191660c052506101ad9050565b6020808252601b908201527f696e76616c6964207377617020726f7574657220616464726573730000000000604082015260600190565b60805160601c60a05160601c60c05160601c610d6361022160003980606e52806103c3528061043c52806104cc528061057552806105bf52508060a052806102b4528061035d52806104f052806106a9528061073752806108505250806108e452806109b05280610a8a5250610d636000f3fe60806040526004361061005e5760003560e01c80634285512d116100435780634285512d146101a3578063bca4f628146101b8578063c31c9c071461021357610115565b806302c6600c1461011a5780633fc8cef31461017257610115565b3661011557336001600160a01b037f00000000000000000000000000000000000000000000000000000000000000001614806100c25750336001600160a01b037f000000000000000000000000000000000000000000000000000000000000000016145b610113576040805162461bcd60e51b815260206004820152601260248201527f43616e6e6f742072656365697665206574680000000000000000000000000000604482015290519081900360640190fd5b005b600080fd5b34801561012657600080fd5b50610113600480360360c081101561013d57600080fd5b508035906020810135906001600160a01b036040820135169060608101359062ffffff608082013581169160a0013516610228565b34801561017e57600080fd5b506101876104ca565b604080516001600160a01b039092168252519081900360200190f35b3480156101af57600080fd5b506101876104ee565b3480156101c457600080fd5b50610113600480360360c08110156101db57600080fd5b50803590602081013590604081013590606081013562ffffff9081169160808101359091169060a001356001600160a01b0316610512565b34801561021f57600080fd5b506101876108e2565b60026000541415610280576040805162461bcd60e51b815260206004820152601f60248201527f5265656e7472616e637947756172643a207265656e7472616e742063616c6c00604482015290519081900360640190fd5b60026000908155604080516323b872dd60e01b81523360048201523060248201526044810189905290516001600160a01b037f000000000000000000000000000000000000000000000000000000000000000016926323b872dd92606480820193602093909283900390910190829087803b1580156102fe57600080fd5b505af1158015610312573d6000803e3d6000fd5b505050506040513d602081101561032857600080fd5b505060408051630b52b7ff60e41b8152600481018890526024810187905262ffffff8316604482015290516001600160a01b037f0000000000000000000000000000000000000000000000000000000000000000169163b52b7ff091606480830192600092919082900301818387803b1580156103a457600080fd5b505af11580156103b8573d6000803e3d6000fd5b5050505060004790507f00000000000000000000000000000000000000000000000000000000000000006001600160a01b031663d0e30db0826040518263ffffffff1660e01b81526004016000604051808303818588803b15801561041c57600080fd5b505af1158015610430573d6000803e3d6000fd5b505050505060006104667f0000000000000000000000000000000000000000000000000000000000000000873033868a8a610906565b604080516001600160a01b038916815260208101839052808201859052606081018b9052905191925033917f614f663be393aac8fd2c2993040a634f5b013b3d5f418cc59ad013e96eef53f99181900360800190a250506001600055505050505050565b7f000000000000000000000000000000000000000000000000000000000000000081565b7f000000000000000000000000000000000000000000000000000000000000000081565b6002600054141561056a576040805162461bcd60e51b815260206004820152601f60248201527f5265656e7472616e637947756172643a207265656e7472616e742063616c6c00604482015290519081900360640190fd5b600260005561059e817f00000000000000000000000000000000000000000000000000000000000000003330898989610906565b50604080516370a0823160e01b815230600482015290516001600160a01b037f00000000000000000000000000000000000000000000000000000000000000001691632e1a7d4d9183916370a08231916024808301926020929190829003018186803b15801561060d57600080fd5b505afa158015610621573d6000803e3d6000fd5b505050506040513d602081101561063757600080fd5b5051604080517fffffffff0000000000000000000000000000000000000000000000000000000060e085901b168152600481019290925251602480830192600092919082900301818387803b15801561068f57600080fd5b505af11580156106a3573d6000803e3d6000fd5b505050507f00000000000000000000000000000000000000000000000000000000000000006001600160a01b031663fc5b73ff4788856040518463ffffffff1660e01b8152600401808381526020018262ffffff168152602001925050506000604051808303818588803b15801561071a57600080fd5b505af115801561072e573d6000803e3d6000fd5b505050505060007f00000000000000000000000000000000000000000000000000000000000000006001600160a01b03166370a08231306040518263ffffffff1660e01b815260040180826001600160a01b0316815260200191505060206040518083038186803b1580156107a257600080fd5b505afa1580156107b6573d6000803e3d6000fd5b505050506040513d60208110156107cc57600080fd5b5051604080516001600160a01b0385168152602081018990528082018a905260608101839052476080820152905191925033917fc723e34ef5da33ff97116afe67fb4330d3189467330363a49eb6c9d2fd762a8c9181900360a00190a26040805163a9059cbb60e01b81523360048201526024810183905290516001600160a01b037f0000000000000000000000000000000000000000000000000000000000000000169163a9059cbb9160448083019260209291908290030181600087803b15801561089857600080fd5b505af11580156108ac573d6000803e3d6000fd5b505050506040513d60208110156108c257600080fd5b505047156108d4576108d43347610b1e565b505060016000555050505050565b7f000000000000000000000000000000000000000000000000000000000000000081565b6040516323b872dd60e01b81526000906001600160a01b038916906323b872dd9061093990899030908990600401610c47565b602060405180830381600087803b15801561095357600080fd5b505af1158015610967573d6000803e3d6000fd5b505050506040513d601f19601f8201168201806040525081019061098b9190610c08565b5060405163095ea7b360e01b81526001600160a01b0389169063095ea7b3906109da907f0000000000000000000000000000000000000000000000000000000000000000908890600401610c6b565b602060405180830381600087803b1580156109f457600080fd5b505af1158015610a08573d6000803e3d6000fd5b505050506040513d601f19601f82011682018060405250810190610a2c9190610c08565b5060408051610100810182526001600160a01b03808b168252898116602083015262ffffff851682840152878116606083015242608083015260a0820187905260c08201869052600060e0830152915163414bf38960e01b815290917f0000000000000000000000000000000000000000000000000000000000000000169063414bf38990610abf908490600401610c84565b602060405180830381600087803b158015610ad957600080fd5b505af1158015610aed573d6000803e3d6000fd5b505050506040513d601f19601f82011682018060405250810190610b119190610c2f565b9998505050505050505050565b80471015610b73576040805162461bcd60e51b815260206004820152601d60248201527f416464726573733a20696e73756666696369656e742062616c616e6365000000604482015290519081900360640190fd5b6040516000906001600160a01b0384169083908381818185875af1925050503d8060008114610bbe576040519150601f19603f3d011682016040523d82523d6000602084013e610bc3565b606091505b5050905080610c035760405162461bcd60e51b815260040180806020018281038252603a815260200180610cf4603a913960400191505060405180910390fd5b505050565b600060208284031215610c19578081fd5b81518015158114610c28578182fd5b9392505050565b600060208284031215610c40578081fd5b5051919050565b6001600160a01b039384168152919092166020820152604081019190915260600190565b6001600160a01b03929092168252602082015260400190565b6000610100820190506001600160a01b0380845116835280602085015116602084015262ffffff60408501511660408401528060608501511660608401526080840151608084015260a084015160a084015260c084015160c08401528060e08501511660e0840152509291505056fe416464726573733a20756e61626c6520746f2073656e642076616c75652c20726563697069656e74206d61792068617665207265766572746564a2646970667358221220fcd43e471a4f1be2f1f1ccf4169e3d06484dd0cc15e022ffbfc5207a7fbbdf4664736f6c63430007060033",
  "devdoc": {
    "author": "Opyn team",
    "details": "CrabHelper contract",
    "kind": "dev",
    "methods": {
      "constructor": {
        "params": {
          "_crab": "address of crabV2 contract",
          "_swapRouter": "address of Uniswap swap router"
        }
      },
      "flashDepositERC20(uint256,uint256,uint256,uint24,uint24,address)": {
        "params": {
          "_amountIn": "amount of ERC20 token to swap for weth",
          "_erc20Fee": "pool fee for transfer ERC20/eth pool (3000 = 30bps)",
          "_ethToDeposit": "amount of ETH to deposit",
          "_minEthToGet": "min amount of ETH to receive in the swap",
          "_tokenIn": "ERC20 token to pay",
          "_wPowerPerpFee": "pool fee for wPowerPerp/eth pool (3000 = 30bps)"
        }
      },
      "flashWithdrawERC20(uint256,uint256,address,uint256,uint24,uint24)": {
        "params": {
          "_crabAmount": "amount of crab shares to withdraw",
          "_erc20Fee": "pool fee for transfer ERC20/eth pool (3000 = 30bps)",
          "_maxEthToPay": "max eth to pay in swap for wPowerPerp",
          "_minAmountOut": "min amount of ERC20 to receive",
          "_tokenOut": "ERC20 token to receive",
          "_wPowerPerpFee": "pool fee for wPowerPerp/eth pool (3000 = 30bps)"
        }
      }
    },
    "version": 1
  },
  "userdoc": {
    "kind": "user",
    "methods": {
      "constructor": {
        "notice": "constructor"
      },
      "flashDepositERC20(uint256,uint256,uint256,uint24,uint24,address)": {
        "notice": "allows user to flash deposit into crab from an aribtrary ERC20"
      },
      "flashWithdrawERC20(uint256,uint256,address,uint256,uint24,uint24)": {
        "notice": "allows user to flash withdraw from crab to an aribtrary ERC20"
      }
    },
    "notice": "Contract for Crab helper functions",
    "version": 1
  },
  "storageLayout": {
    "storage": [
      {
        "astId": 4176,
        "contract": "contracts/strategy/CrabHelper.sol:CrabHelper",
        "label": "_status",
        "offset": 0,
        "slot": "0",
        "type": "t_uint256"
      }
    ],
    "types": {
      "t_uint256": {
        "encoding": "inplace",
        "label": "uint256",
        "numberOfBytes": "32"
      }
    }
  }
}