{
  "address": "0x306bf03b689f7d7e5e9D3aAC87a068F16AFF9482",
  "abi": [
    {
      "inputs": [
        {
          "internalType": "string",
          "name": "_name",
          "type": "string"
        },
        {
          "internalType": "string",
          "name": "_symbol",
          "type": "string"
        },
        {
          "internalType": "uint8",
          "name": "_decimals",
          "type": "uint8"
        }
      ],
      "stateMutability": "nonpayable",
      "type": "constructor"
    },
    {
      "anonymous": false,
      "inputs": [
        {
          "indexed": true,
          "internalType": "address",
          "name": "owner",
          "type": "address"
        },
        {
          "indexed": true,
          "internalType": "address",
          "name": "spender",
          "type": "address"
        },
        {
          "indexed": false,
          "internalType": "uint256",
          "name": "value",
          "type": "uint256"
        }
      ],
      "name": "Approval",
      "type": "event"
    },
    {
      "anonymous": false,
      "inputs": [
        {
          "indexed": true,
          "internalType": "address",
          "name": "account",
          "type": "address"
        }
      ],
      "name": "MinterBlacklisted",
      "type": "event"
    },
    {
      "anonymous": false,
      "inputs": [
        {
          "indexed": true,
          "internalType": "address",
          "name": "account",
          "type": "address"
        }
      ],
      "name": "MinterWhitelisted",
      "type": "event"
    },
    {
      "anonymous": false,
      "inputs": [
        {
          "indexed": true,
          "internalType": "address",
          "name": "previousOwner",
          "type": "address"
        },
        {
          "indexed": true,
          "internalType": "address",
          "name": "newOwner",
          "type": "address"
        }
      ],
      "name": "OwnershipTransferred",
      "type": "event"
    },
    {
      "anonymous": false,
      "inputs": [
        {
          "indexed": true,
          "internalType": "address",
          "name": "from",
          "type": "address"
        },
        {
          "indexed": true,
          "internalType": "address",
          "name": "to",
          "type": "address"
        },
        {
          "indexed": false,
          "internalType": "uint256",
          "name": "value",
          "type": "uint256"
        }
      ],
      "name": "Transfer",
      "type": "event"
    },
    {
      "inputs": [
        {
          "internalType": "address",
          "name": "owner",
          "type": "address"
        },
        {
          "internalType": "address",
          "name": "spender",
          "type": "address"
        }
      ],
      "name": "allowance",
      "outputs": [
        {
          "internalType": "uint256",
          "name": "",
          "type": "uint256"
        }
      ],
      "stateMutability": "view",
      "type": "function"
    },
    {
      "inputs": [
        {
          "internalType": "address",
          "name": "spender",
          "type": "address"
        },
        {
          "internalType": "uint256",
          "name": "amount",
          "type": "uint256"
        }
      ],
      "name": "approve",
      "outputs": [
        {
          "internalType": "bool",
          "name": "",
          "type": "bool"
        }
      ],
      "stateMutability": "nonpayable",
      "type": "function"
    },
    {
      "inputs": [
        {
          "internalType": "address",
          "name": "account",
          "type": "address"
        }
      ],
      "name": "balanceOf",
      "outputs": [
        {
          "internalType": "uint256",
          "name": "",
          "type": "uint256"
        }
      ],
      "stateMutability": "view",
      "type": "function"
    },
    {
      "inputs": [
        {
          "internalType": "address",
          "name": "_account",
          "type": "address"
        }
      ],
      "name": "blacklistMinter",
      "outputs": [],
      "stateMutability": "nonpayable",
      "type": "function"
    },
    {
      "inputs": [
        {
          "internalType": "address",
          "name": "_account",
          "type": "address"
        },
        {
          "internalType": "uint256",
          "name": "_amount",
          "type": "uint256"
        }
      ],
      "name": "burn",
      "outputs": [],
      "stateMutability": "nonpayable",
      "type": "function"
    },
    {
      "inputs": [],
      "name": "decimals",
      "outputs": [
        {
          "internalType": "uint8",
          "name": "",
          "type": "uint8"
        }
      ],
      "stateMutability": "view",
      "type": "function"
    },
    {
      "inputs": [
        {
          "internalType": "address",
          "name": "spender",
          "type": "address"
        },
        {
          "internalType": "uint256",
          "name": "subtractedValue",
          "type": "uint256"
        }
      ],
      "name": "decreaseAllowance",
      "outputs": [
        {
          "internalType": "bool",
          "name": "",
          "type": "bool"
        }
      ],
      "stateMutability": "nonpayable",
      "type": "function"
    },
    {
      "inputs": [
        {
          "internalType": "address",
          "name": "spender",
          "type": "address"
        },
        {
          "internalType": "uint256",
          "name": "addedValue",
          "type": "uint256"
        }
      ],
      "name": "increaseAllowance",
      "outputs": [
        {
          "internalType": "bool",
          "name": "",
          "type": "bool"
        }
      ],
      "stateMutability": "nonpayable",
      "type": "function"
    },
    {
      "inputs": [
        {
          "internalType": "address",
          "name": "_account",
          "type": "address"
        }
      ],
      "name": "isWhitelistedMinter",
      "outputs": [
        {
          "internalType": "bool",
          "name": "",
          "type": "bool"
        }
      ],
      "stateMutability": "view",
      "type": "function"
    },
    {
      "inputs": [
        {
          "internalType": "address",
          "name": "_account",
          "type": "address"
        },
        {
          "internalType": "uint256",
          "name": "_amount",
          "type": "uint256"
        }
      ],
      "name": "mint",
      "outputs": [],
      "stateMutability": "nonpayable",
      "type": "function"
    },
    {
      "inputs": [],
      "name": "name",
      "outputs": [
        {
          "internalType": "string",
          "name": "",
          "type": "string"
        }
      ],
      "stateMutability": "view",
      "type": "function"
    },
    {
      "inputs": [],
      "name": "owner",
      "outputs": [
        {
          "internalType": "address",
          "name": "",
          "type": "address"
        }
      ],
      "stateMutability": "view",
      "type": "function"
    },
    {
      "inputs": [],
      "name": "renounceOwnership",
      "outputs": [],
      "stateMutability": "nonpayable",
      "type": "function"
    },
    {
      "inputs": [],
      "name": "symbol",
      "outputs": [
        {
          "internalType": "string",
          "name": "",
          "type": "string"
        }
      ],
      "stateMutability": "view",
      "type": "function"
    },
    {
      "inputs": [],
      "name": "totalSupply",
      "outputs": [
        {
          "internalType": "uint256",
          "name": "",
          "type": "uint256"
        }
      ],
      "stateMutability": "view",
      "type": "function"
    },
    {
      "inputs": [
        {
          "internalType": "address",
          "name": "recipient",
          "type": "address"
        },
        {
          "internalType": "uint256",
          "name": "amount",
          "type": "uint256"
        }
      ],
      "name": "transfer",
      "outputs": [
        {
          "internalType": "bool",
          "name": "",
          "type": "bool"
        }
      ],
      "stateMutability": "nonpayable",
      "type": "function"
    },
    {
      "inputs": [
        {
          "internalType": "address",
          "name": "sender",
          "type": "address"
        },
        {
          "internalType": "address",
          "name": "recipient",
          "type": "address"
        },
        {
          "internalType": "uint256",
          "name": "amount",
          "type": "uint256"
        }
      ],
      "name": "transferFrom",
      "outputs": [
        {
          "internalType": "bool",
          "name": "",
          "type": "bool"
        }
      ],
      "stateMutability": "nonpayable",
      "type": "function"
    },
    {
      "inputs": [
        {
          "internalType": "address",
          "name": "newOwner",
          "type": "address"
        }
      ],
      "name": "transferOwnership",
      "outputs": [],
      "stateMutability": "nonpayable",
      "type": "function"
    },
    {
      "inputs": [
        {
          "internalType": "address",
          "name": "_account",
          "type": "address"
        }
      ],
      "name": "whitelistMinter",
      "outputs": [],
      "stateMutability": "nonpayable",
      "type": "function"
    }
  ],
  "transactionHash": "0x4fa1253cbd721d0ed0e0dc26d71fe13bd088629a621bf62167a774ea46f36f34",
  "args": [
    "OpynUSDC",
    "OpynUSDC",
    6
  ],
  "solcInputHash": "05b9c7d057ff8b2bf36168b053759720",
  "bytecode": "0x60806040523480156200001157600080fd5b506040516200169238038062001692833981810160405260608110156200003757600080fd5b81019080805160405193929190846401000000008211156200005857600080fd5b9083019060208201858111156200006e57600080fd5b82516401000000008111828201881017156200008957600080fd5b82525081516020918201929091019080838360005b83811015620000b85781810151838201526020016200009e565b50505050905090810190601f168015620000e65780820380516001836020036101000a031916815260200191505b50604052602001805160405193929190846401000000008211156200010a57600080fd5b9083019060208201858111156200012057600080fd5b82516401000000008111828201881017156200013b57600080fd5b82525081516020918201929091019080838360005b838110156200016a57818101518382015260200162000150565b50505050905090810190601f168015620001985780820380516001836020036101000a031916815260200191505b5060405260209081015185519093508592508491620001bd9160039185019062000273565b508051620001d390600490602084019062000273565b50506005805460ff19166012179055506000620001ef62000259565b60058054610100600160a81b0319166101006001600160a01b03841690810291909117909155604051919250906000907f8be0079c531659141344cd1fd0a4f28419497f9722a3daafe3b4186f6b6457e0908290a35062000250816200025d565b5050506200031f565b3390565b6005805460ff191660ff92909216919091179055565b828054600181600116156101000203166002900490600052602060002090601f016020900481019282620002ab5760008555620002f6565b82601f10620002c657805160ff1916838001178555620002f6565b82800160010185558215620002f6579182015b82811115620002f6578251825591602001919060010190620002d9565b506200030492915062000308565b5090565b5b8082111562000304576000815560010162000309565b611363806200032f6000396000f3fe608060405234801561001057600080fd5b50600436106101515760003560e01c8063715018a6116100cd578063a457c2d711610081578063dd62ed3e11610066578063dd62ed3e14610405578063e5affcb814610433578063f2fde38b1461045957610151565b8063a457c2d7146103ad578063a9059cbb146103d957610151565b806395d89b41116100b257806395d89b41146103535780639bb257ad1461035b5780639dc29fac1461038157610151565b8063715018a6146103275780638da5cb5b1461032f57610151565b8063313ce5671161012457806340c10f191161010957806340c10f19146102ad578063555c3002146102db57806370a082311461030157610151565b8063313ce56714610263578063395093511461028157610151565b806306fdde0314610156578063095ea7b3146101d357806318160ddd1461021357806323b872dd1461022d575b600080fd5b61015e61047f565b6040805160208082528351818301528351919283929083019185019080838360005b83811015610198578181015183820152602001610180565b50505050905090810190601f1680156101c55780820380516001836020036101000a031916815260200191505b509250505060405180910390f35b6101ff600480360360408110156101e957600080fd5b506001600160a01b038135169060200135610515565b604080519115158252519081900360200190f35b61021b610532565b60408051918252519081900360200190f35b6101ff6004803603606081101561024357600080fd5b506001600160a01b03813581169160208101359091169060400135610538565b61026b6105bf565b6040805160ff9092168252519081900360200190f35b6101ff6004803603604081101561029757600080fd5b506001600160a01b0381351690602001356105c8565b6102d9600480360360408110156102c357600080fd5b506001600160a01b038135169060200135610616565b005b6101ff600480360360208110156102f157600080fd5b50356001600160a01b03166106ab565b61021b6004803603602081101561031757600080fd5b50356001600160a01b03166106c9565b6102d96106e4565b6103376107b5565b604080516001600160a01b039092168252519081900360200190f35b61015e6107c9565b6102d96004803603602081101561037157600080fd5b50356001600160a01b031661082a565b6102d96004803603604081101561039757600080fd5b506001600160a01b0381351690602001356108fd565b6101ff600480360360408110156103c357600080fd5b506001600160a01b03813516906020013561098e565b6101ff600480360360408110156103ef57600080fd5b506001600160a01b0381351690602001356109f6565b61021b6004803603604081101561041b57600080fd5b506001600160a01b0381358116916020013516610a0a565b6102d96004803603602081101561044957600080fd5b50356001600160a01b0316610a35565b6102d96004803603602081101561046f57600080fd5b50356001600160a01b0316610b05565b60038054604080516020601f600260001961010060018816150201909516949094049384018190048102820181019092528281526060939092909183018282801561050b5780601f106104e05761010080835404028352916020019161050b565b820191906000526020600020905b8154815290600101906020018083116104ee57829003601f168201915b5050505050905090565b6000610529610522610c32565b8484610c36565b50600192915050565b60025490565b6000610545848484610d22565b6105b584610551610c32565b6105b085604051806060016040528060288152602001611277602891396001600160a01b038a1660009081526001602052604081209061058f610c32565b6001600160a01b031681526020810191909152604001600020549190610e7d565b610c36565b5060019392505050565b60055460ff1690565b60006105296105d5610c32565b846105b085600160006105e6610c32565b6001600160a01b03908116825260208083019390935260409182016000908120918c168152925290205490610f14565b3360009081526006602052604090205460ff168061064c57506106376107b5565b6001600160a01b0316336001600160a01b0316145b61069d576040805162461bcd60e51b815260206004820181905260248201527f41646472657373206e6f7420612077686974656c6973746564206d696e746572604482015290519081900360640190fd5b6106a78282610f75565b5050565b6001600160a01b031660009081526006602052604090205460ff1690565b6001600160a01b031660009081526020819052604090205490565b6106ec610c32565b6001600160a01b03166106fd6107b5565b6001600160a01b031614610758576040805162461bcd60e51b815260206004820181905260248201527f4f776e61626c653a2063616c6c6572206973206e6f7420746865206f776e6572604482015290519081900360640190fd5b60055460405160009161010090046001600160a01b0316907f8be0079c531659141344cd1fd0a4f28419497f9722a3daafe3b4186f6b6457e0908390a36005805474ffffffffffffffffffffffffffffffffffffffff0019169055565b60055461010090046001600160a01b031690565b60048054604080516020601f600260001961010060018816150201909516949094049384018190048102820181019092528281526060939092909183018282801561050b5780601f106104e05761010080835404028352916020019161050b565b3360009081526006602052604090205460ff1680610860575061084b6107b5565b6001600160a01b0316336001600160a01b0316145b6108b1576040805162461bcd60e51b815260206004820181905260248201527f41646472657373206e6f7420612077686974656c6973746564206d696e746572604482015290519081900360640190fd5b6001600160a01b038116600081815260066020526040808220805460ff19166001179055517feb61edd6570e8798f968e1e8c0114e1e25557b015c7ac44f7aeaf4a67ef3bc239190a250565b3360009081526006602052604090205460ff1680610933575061091e6107b5565b6001600160a01b0316336001600160a01b0316145b610984576040805162461bcd60e51b815260206004820181905260248201527f41646472657373206e6f7420612077686974656c6973746564206d696e746572604482015290519081900360640190fd5b6106a78282611065565b600061052961099b610c32565b846105b08560405180606001604052806025815260200161130960259139600160006109c5610c32565b6001600160a01b03908116825260208083019390935260409182016000908120918d16815292529020549190610e7d565b6000610529610a03610c32565b8484610d22565b6001600160a01b03918216600090815260016020908152604080832093909416825291909152205490565b3360009081526006602052604090205460ff1680610a6b5750610a566107b5565b6001600160a01b0316336001600160a01b0316145b610abc576040805162461bcd60e51b815260206004820181905260248201527f41646472657373206e6f7420612077686974656c6973746564206d696e746572604482015290519081900360640190fd5b6001600160a01b038116600081815260066020526040808220805460ff19169055517feedc52ad501f0ddd2dca82b61f1b96f1f84b898d242eced1210037c8a569074e9190a250565b610b0d610c32565b6001600160a01b0316610b1e6107b5565b6001600160a01b031614610b79576040805162461bcd60e51b815260206004820181905260248201527f4f776e61626c653a2063616c6c6572206973206e6f7420746865206f776e6572604482015290519081900360640190fd5b6001600160a01b038116610bbe5760405162461bcd60e51b81526004018080602001828103825260268152602001806112096026913960400191505060405180910390fd5b6005546040516001600160a01b0380841692610100900416907f8be0079c531659141344cd1fd0a4f28419497f9722a3daafe3b4186f6b6457e090600090a3600580546001600160a01b039092166101000274ffffffffffffffffffffffffffffffffffffffff0019909216919091179055565b3390565b6001600160a01b038316610c7b5760405162461bcd60e51b81526004018080602001828103825260248152602001806112e56024913960400191505060405180910390fd5b6001600160a01b038216610cc05760405162461bcd60e51b815260040180806020018281038252602281526020018061122f6022913960400191505060405180910390fd5b6001600160a01b03808416600081815260016020908152604080832094871680845294825291829020859055815185815291517f8c5be1e5ebec7d5bd14f71427d1e84f3dd0314c0f7b2291e5b200ac8c7c3b9259281900390910190a3505050565b6001600160a01b038316610d675760405162461bcd60e51b81526004018080602001828103825260258152602001806112c06025913960400191505060405180910390fd5b6001600160a01b038216610dac5760405162461bcd60e51b81526004018080602001828103825260238152602001806111c46023913960400191505060405180910390fd5b610db7838383611161565b610df481604051806060016040528060268152602001611251602691396001600160a01b0386166000908152602081905260409020549190610e7d565b6001600160a01b038085166000908152602081905260408082209390935590841681522054610e239082610f14565b6001600160a01b038084166000818152602081815260409182902094909455805185815290519193928716927fddf252ad1be2c89b69c2b068fc378daa952ba7f163c4a11628f55a4df523b3ef92918290030190a3505050565b60008184841115610f0c5760405162461bcd60e51b81526004018080602001828103825283818151815260200191508051906020019080838360005b83811015610ed1578181015183820152602001610eb9565b50505050905090810190601f168015610efe5780820380516001836020036101000a031916815260200191505b509250505060405180910390fd5b505050900390565b600082820183811015610f6e576040805162461bcd60e51b815260206004820152601b60248201527f536166654d6174683a206164646974696f6e206f766572666c6f770000000000604482015290519081900360640190fd5b9392505050565b6001600160a01b038216610fd0576040805162461bcd60e51b815260206004820152601f60248201527f45524332303a206d696e7420746f20746865207a65726f206164647265737300604482015290519081900360640190fd5b610fdc60008383611161565b600254610fe99082610f14565b6002556001600160a01b03821660009081526020819052604090205461100f9082610f14565b6001600160a01b0383166000818152602081815260408083209490945583518581529351929391927fddf252ad1be2c89b69c2b068fc378daa952ba7f163c4a11628f55a4df523b3ef9281900390910190a35050565b6001600160a01b0382166110aa5760405162461bcd60e51b815260040180806020018281038252602181526020018061129f6021913960400191505060405180910390fd5b6110b682600083611161565b6110f3816040518060600160405280602281526020016111e7602291396001600160a01b0385166000908152602081905260409020549190610e7d565b6001600160a01b0383166000908152602081905260409020556002546111199082611166565b6002556040805182815290516000916001600160a01b038516917fddf252ad1be2c89b69c2b068fc378daa952ba7f163c4a11628f55a4df523b3ef9181900360200190a35050565b505050565b6000828211156111bd576040805162461bcd60e51b815260206004820152601e60248201527f536166654d6174683a207375627472616374696f6e206f766572666c6f770000604482015290519081900360640190fd5b5090039056fe45524332303a207472616e7366657220746f20746865207a65726f206164647265737345524332303a206275726e20616d6f756e7420657863656564732062616c616e63654f776e61626c653a206e6577206f776e657220697320746865207a65726f206164647265737345524332303a20617070726f766520746f20746865207a65726f206164647265737345524332303a207472616e7366657220616d6f756e7420657863656564732062616c616e636545524332303a207472616e7366657220616d6f756e74206578636565647320616c6c6f77616e636545524332303a206275726e2066726f6d20746865207a65726f206164647265737345524332303a207472616e736665722066726f6d20746865207a65726f206164647265737345524332303a20617070726f76652066726f6d20746865207a65726f206164647265737345524332303a2064656372656173656420616c6c6f77616e63652062656c6f77207a65726fa2646970667358221220a39fba253f0b337163e8189855d1b968a7dc60c9ff4c9b34746d175c58e3cc8c64736f6c63430007060033",
  "devdoc": {
    "kind": "dev",
    "methods": {
      "allowance(address,address)": {
        "details": "See {IERC20-allowance}."
      },
      "approve(address,uint256)": {
        "details": "See {IERC20-approve}. Requirements: - `spender` cannot be the zero address."
      },
      "balanceOf(address)": {
        "details": "See {IERC20-balanceOf}."
      },
      "blacklistMinter(address)": {
        "params": {
          "_account": "address of minter to be blacklisted"
        }
      },
      "decimals()": {
        "details": "Returns the number of decimals used to get its user representation. For example, if `decimals` equals `2`, a balance of `505` tokens should be displayed to a user as `5,05` (`505 / 10 ** 2`). Tokens usually opt for a value of 18, imitating the relationship between Ether and Wei. This is the value {ERC20} uses, unless {_setupDecimals} is called. NOTE: This information is only used for _display_ purposes: it in no way affects any of the arithmetic of the contract, including {IERC20-balanceOf} and {IERC20-transfer}."
      },
      "decreaseAllowance(address,uint256)": {
        "details": "Atomically decreases the allowance granted to `spender` by the caller. This is an alternative to {approve} that can be used as a mitigation for problems described in {IERC20-approve}. Emits an {Approval} event indicating the updated allowance. Requirements: - `spender` cannot be the zero address. - `spender` must have allowance for the caller of at least `subtractedValue`."
      },
      "increaseAllowance(address,uint256)": {
        "details": "Atomically increases the allowance granted to `spender` by the caller. This is an alternative to {approve} that can be used as a mitigation for problems described in {IERC20-approve}. Emits an {Approval} event indicating the updated allowance. Requirements: - `spender` cannot be the zero address."
      },
      "isWhitelistedMinter(address)": {
        "params": {
          "_account": "address of minter"
        },
        "returns": {
          "_0": "boolean, True if address is a whitelisted minter"
        }
      },
      "name()": {
        "details": "Returns the name of the token."
      },
      "owner()": {
        "details": "Returns the address of the current owner."
      },
      "renounceOwnership()": {
        "details": "Leaves the contract without owner. It will not be possible to call `onlyOwner` functions anymore. Can only be called by the current owner. NOTE: Renouncing ownership will leave the contract without an owner, thereby removing any functionality that is only available to the owner."
      },
      "symbol()": {
        "details": "Returns the symbol of the token, usually a shorter version of the name."
      },
      "totalSupply()": {
        "details": "See {IERC20-totalSupply}."
      },
      "transfer(address,uint256)": {
        "details": "See {IERC20-transfer}. Requirements: - `recipient` cannot be the zero address. - the caller must have a balance of at least `amount`."
      },
      "transferFrom(address,address,uint256)": {
        "details": "See {IERC20-transferFrom}. Emits an {Approval} event indicating the updated allowance. This is not required by the EIP. See the note at the beginning of {ERC20}. Requirements: - `sender` and `recipient` cannot be the zero address. - `sender` must have a balance of at least `amount`. - the caller must have allowance for ``sender``'s tokens of at least `amount`."
      },
      "transferOwnership(address)": {
        "details": "Transfers ownership of the contract to a new account (`newOwner`). Can only be called by the current owner."
      },
      "whitelistMinter(address)": {
        "params": {
          "_account": "address of minter to be whitelisted"
        }
      }
    },
    "stateVariables": {
      "whitelistedMinters": {
        "details": "mapping to track whitelisted minters"
      }
    },
    "version": 1
  },
  "userdoc": {
    "events": {
      "MinterBlacklisted(address)": {
        "notice": "emits an event when a minter is blacklisted "
      },
      "MinterWhitelisted(address)": {
        "notice": "emits an event when a minter is whitelisted "
      }
    },
    "kind": "user",
    "methods": {
      "blacklistMinter(address)": {
        "notice": "allow the minter to blacklist other minters"
      },
      "isWhitelistedMinter(address)": {
        "notice": "check if a minter is whitelisted"
      },
      "whitelistMinter(address)": {
        "notice": "allows the minter to whitelist other minters"
      }
    },
    "version": 1
  },
  "storageLayout": {
    "storage": [
      {
        "astId": 881,
        "contract": "contracts/mocks/MockErc20.sol:MockErc20",
        "label": "_balances",
        "offset": 0,
        "slot": "0",
        "type": "t_mapping(t_address,t_uint256)"
      },
      {
        "astId": 887,
        "contract": "contracts/mocks/MockErc20.sol:MockErc20",
        "label": "_allowances",
        "offset": 0,
        "slot": "1",
        "type": "t_mapping(t_address,t_mapping(t_address,t_uint256))"
      },
      {
        "astId": 889,
        "contract": "contracts/mocks/MockErc20.sol:MockErc20",
        "label": "_totalSupply",
        "offset": 0,
        "slot": "2",
        "type": "t_uint256"
      },
      {
        "astId": 891,
        "contract": "contracts/mocks/MockErc20.sol:MockErc20",
        "label": "_name",
        "offset": 0,
        "slot": "3",
        "type": "t_string_storage"
      },
      {
        "astId": 893,
        "contract": "contracts/mocks/MockErc20.sol:MockErc20",
        "label": "_symbol",
        "offset": 0,
        "slot": "4",
        "type": "t_string_storage"
      },
      {
        "astId": 895,
        "contract": "contracts/mocks/MockErc20.sol:MockErc20",
        "label": "_decimals",
        "offset": 0,
        "slot": "5",
        "type": "t_uint8"
      },
      {
        "astId": 7,
        "contract": "contracts/mocks/MockErc20.sol:MockErc20",
        "label": "_owner",
        "offset": 1,
        "slot": "5",
        "type": "t_address"
      },
      {
        "astId": 15651,
        "contract": "contracts/mocks/MockErc20.sol:MockErc20",
        "label": "whitelistedMinters",
        "offset": 0,
        "slot": "6",
        "type": "t_mapping(t_address,t_bool)"
      }
    ],
    "types": {
      "t_address": {
        "encoding": "inplace",
        "label": "address",
        "numberOfBytes": "20"
      },
      "t_bool": {
        "encoding": "inplace",
        "label": "bool",
        "numberOfBytes": "1"
      },
      "t_mapping(t_address,t_bool)": {
        "encoding": "mapping",
        "key": "t_address",
        "label": "mapping(address => bool)",
        "numberOfBytes": "32",
        "value": "t_bool"
      },
      "t_mapping(t_address,t_mapping(t_address,t_uint256))": {
        "encoding": "mapping",
        "key": "t_address",
        "label": "mapping(address => mapping(address => uint256))",
        "numberOfBytes": "32",
        "value": "t_mapping(t_address,t_uint256)"
      },
      "t_mapping(t_address,t_uint256)": {
        "encoding": "mapping",
        "key": "t_address",
        "label": "mapping(address => uint256)",
        "numberOfBytes": "32",
        "value": "t_uint256"
      },
      "t_string_storage": {
        "encoding": "bytes",
        "label": "string",
        "numberOfBytes": "32"
      },
      "t_uint256": {
        "encoding": "inplace",
        "label": "uint256",
        "numberOfBytes": "32"
      },
      "t_uint8": {
        "encoding": "inplace",
        "label": "uint8",
        "numberOfBytes": "1"
      }
    }
  }
}