{
  "address": "0x0344f8706947321FA87881D3DaD0EB1b8C65E732",
  "abi": [
    {
      "inputs": [
        {
          "internalType": "address",
          "name": "_oracle",
          "type": "address"
        },
        {
          "internalType": "address",
          "name": "_shortPowerPerp",
          "type": "address"
        },
        {
          "internalType": "address",
          "name": "_wPowerPerp",
          "type": "address"
        },
        {
          "internalType": "address",
          "name": "_weth",
          "type": "address"
        },
        {
          "internalType": "address",
          "name": "_quoteCurrency",
          "type": "address"
        },
        {
          "internalType": "address",
          "name": "_ethQuoteCurrencyPool",
          "type": "address"
        },
        {
          "internalType": "address",
          "name": "_wPowerPerpPool",
          "type": "address"
        },
        {
          "internalType": "address",
          "name": "_uniPositionManager",
          "type": "address"
        },
        {
          "internalType": "uint24",
          "name": "_feeTier",
          "type": "uint24"
        }
      ],
      "stateMutability": "nonpayable",
      "type": "constructor"
    },
    {
      "anonymous": false,
      "inputs": [
        {
          "indexed": false,
          "internalType": "address",
          "name": "sender",
          "type": "address"
        },
        {
          "indexed": false,
          "internalType": "uint256",
          "name": "amount",
          "type": "uint256"
        },
        {
          "indexed": false,
          "internalType": "uint256",
          "name": "vaultId",
          "type": "uint256"
        }
      ],
      "name": "BurnShort",
      "type": "event"
    },
    {
      "anonymous": false,
      "inputs": [
        {
          "indexed": false,
          "internalType": "address",
          "name": "sender",
          "type": "address"
        },
        {
          "indexed": false,
          "internalType": "uint256",
          "name": "vaultId",
          "type": "uint256"
        },
        {
          "indexed": false,
          "internalType": "uint256",
          "name": "amount",
          "type": "uint256"
        }
      ],
      "name": "DepositCollateral",
      "type": "event"
    },
    {
      "anonymous": false,
      "inputs": [
        {
          "indexed": false,
          "internalType": "address",
          "name": "sender",
          "type": "address"
        },
        {
          "indexed": false,
          "internalType": "uint256",
          "name": "vaultId",
          "type": "uint256"
        },
        {
          "indexed": false,
          "internalType": "uint256",
          "name": "tokenId",
          "type": "uint256"
        }
      ],
      "name": "DepositUniPositionToken",
      "type": "event"
    },
    {
      "anonymous": false,
      "inputs": [
        {
          "indexed": false,
          "internalType": "uint256",
          "name": "oldFee",
          "type": "uint256"
        },
        {
          "indexed": false,
          "internalType": "uint256",
          "name": "newFee",
          "type": "uint256"
        }
      ],
      "name": "FeeRateUpdated",
      "type": "event"
    },
    {
      "anonymous": false,
      "inputs": [
        {
          "indexed": false,
          "internalType": "address",
          "name": "oldFeeRecipient",
          "type": "address"
        },
        {
          "indexed": false,
          "internalType": "address",
          "name": "newFeeRecipient",
          "type": "address"
        }
      ],
      "name": "FeeRecipientUpdated",
      "type": "event"
    },
    {
      "anonymous": false,
      "inputs": [
        {
          "indexed": false,
          "internalType": "address",
          "name": "liquidator",
          "type": "address"
        },
        {
          "indexed": false,
          "internalType": "uint256",
          "name": "vaultId",
          "type": "uint256"
        },
        {
          "indexed": false,
          "internalType": "uint256",
          "name": "debtAmount",
          "type": "uint256"
        },
        {
          "indexed": false,
          "internalType": "uint256",
          "name": "collateralPaid",
          "type": "uint256"
        }
      ],
      "name": "Liquidate",
      "type": "event"
    },
    {
      "anonymous": false,
      "inputs": [
        {
          "indexed": false,
          "internalType": "address",
          "name": "sender",
          "type": "address"
        },
        {
          "indexed": false,
          "internalType": "uint256",
          "name": "amount",
          "type": "uint256"
        },
        {
          "indexed": false,
          "internalType": "uint256",
          "name": "vaultId",
          "type": "uint256"
        }
      ],
      "name": "MintShort",
      "type": "event"
    },
    {
      "anonymous": false,
      "inputs": [
        {
          "indexed": false,
          "internalType": "uint256",
          "name": "oldNormFactor",
          "type": "uint256"
        },
        {
          "indexed": false,
          "internalType": "uint256",
          "name": "newNormFactor",
          "type": "uint256"
        },
        {
          "indexed": false,
          "internalType": "uint256",
          "name": "lastModificationTimestamp",
          "type": "uint256"
        },
        {
          "indexed": false,
          "internalType": "uint256",
          "name": "timestamp",
          "type": "uint256"
        }
      ],
      "name": "NormalizationFactorUpdated",
      "type": "event"
    },
    {
      "anonymous": false,
      "inputs": [
        {
          "indexed": false,
          "internalType": "address",
          "name": "sender",
          "type": "address"
        },
        {
          "indexed": false,
          "internalType": "uint256",
          "name": "vaultId",
          "type": "uint256"
        }
      ],
      "name": "OpenVault",
      "type": "event"
    },
    {
      "anonymous": false,
      "inputs": [
        {
          "indexed": true,
          "internalType": "address",
          "name": "previousOwner",
          "type": "address"
        },
        {
          "indexed": true,
          "internalType": "address",
          "name": "newOwner",
          "type": "address"
        }
      ],
      "name": "OwnershipTransferred",
      "type": "event"
    },
    {
      "anonymous": false,
      "inputs": [
        {
          "indexed": false,
          "internalType": "uint256",
          "name": "pausesLeft",
          "type": "uint256"
        }
      ],
      "name": "Paused",
      "type": "event"
    },
    {
      "anonymous": false,
      "inputs": [
        {
          "indexed": false,
          "internalType": "address",
          "name": "sender",
          "type": "address"
        },
        {
          "indexed": false,
          "internalType": "uint256",
          "name": "wPowerPerpAmount",
          "type": "uint256"
        },
        {
          "indexed": false,
          "internalType": "uint256",
          "name": "payoutAmount",
          "type": "uint256"
        }
      ],
      "name": "RedeemLong",
      "type": "event"
    },
    {
      "anonymous": false,
      "inputs": [
        {
          "indexed": false,
          "internalType": "address",
          "name": "sender",
          "type": "address"
        },
        {
          "indexed": false,
          "internalType": "uint256",
          "name": "vauldId",
          "type": "uint256"
        },
        {
          "indexed": false,
          "internalType": "uint256",
          "name": "collateralAmount",
          "type": "uint256"
        }
      ],
      "name": "RedeemShort",
      "type": "event"
    },
    {
      "anonymous": false,
      "inputs": [
        {
          "indexed": false,
          "internalType": "address",
          "name": "sender",
          "type": "address"
        },
        {
          "indexed": false,
          "internalType": "uint256",
          "name": "vaultId",
          "type": "uint256"
        },
        {
          "indexed": false,
          "internalType": "uint256",
          "name": "ethRedeemed",
          "type": "uint256"
        },
        {
          "indexed": false,
          "internalType": "uint256",
          "name": "wPowerPerpRedeemed",
          "type": "uint256"
        },
        {
          "indexed": false,
          "internalType": "uint256",
          "name": "wPowerPerpBurned",
          "type": "uint256"
        },
        {
          "indexed": false,
          "internalType": "uint256",
          "name": "wPowerPerpExcess",
          "type": "uint256"
        },
        {
          "indexed": false,
          "internalType": "uint256",
          "name": "bounty",
          "type": "uint256"
        }
      ],
      "name": "ReduceDebt",
      "type": "event"
    },
    {
      "anonymous": false,
      "inputs": [
        {
          "indexed": false,
          "internalType": "uint256",
          "name": "indexForSettlement",
          "type": "uint256"
        }
      ],
      "name": "Shutdown",
      "type": "event"
    },
    {
      "anonymous": false,
      "inputs": [
        {
          "indexed": false,
          "internalType": "address",
          "name": "unpauser",
          "type": "address"
        }
      ],
      "name": "UnPaused",
      "type": "event"
    },
    {
      "anonymous": false,
      "inputs": [
        {
          "indexed": false,
          "internalType": "address",
          "name": "sender",
          "type": "address"
        },
        {
          "indexed": false,
          "internalType": "uint256",
          "name": "vaultId",
          "type": "uint256"
        },
        {
          "indexed": false,
          "internalType": "address",
          "name": "operator",
          "type": "address"
        }
      ],
      "name": "UpdateOperator",
      "type": "event"
    },
    {
      "anonymous": false,
      "inputs": [
        {
          "indexed": false,
          "internalType": "address",
          "name": "sender",
          "type": "address"
        },
        {
          "indexed": false,
          "internalType": "uint256",
          "name": "vaultId",
          "type": "uint256"
        },
        {
          "indexed": false,
          "internalType": "uint256",
          "name": "amount",
          "type": "uint256"
        }
      ],
      "name": "WithdrawCollateral",
      "type": "event"
    },
    {
      "anonymous": false,
      "inputs": [
        {
          "indexed": false,
          "internalType": "address",
          "name": "sender",
          "type": "address"
        },
        {
          "indexed": false,
          "internalType": "uint256",
          "name": "vaultId",
          "type": "uint256"
        },
        {
          "indexed": false,
          "internalType": "uint256",
          "name": "tokenId",
          "type": "uint256"
        }
      ],
      "name": "WithdrawUniPositionToken",
      "type": "event"
    },
    {
      "inputs": [],
      "name": "FUNDING_PERIOD",
      "outputs": [
        {
          "internalType": "uint256",
          "name": "",
          "type": "uint256"
        }
      ],
      "stateMutability": "view",
      "type": "function"
    },
    {
      "inputs": [],
      "name": "TWAP_PERIOD",
      "outputs": [
        {
          "internalType": "uint32",
          "name": "",
          "type": "uint32"
        }
      ],
      "stateMutability": "view",
      "type": "function"
    },
    {
      "inputs": [],
      "name": "applyFunding",
      "outputs": [],
      "stateMutability": "nonpayable",
      "type": "function"
    },
    {
      "inputs": [
        {
          "internalType": "uint256",
          "name": "_vaultId",
          "type": "uint256"
        },
        {
          "internalType": "uint256",
          "name": "_powerPerpAmount",
          "type": "uint256"
        },
        {
          "internalType": "uint256",
          "name": "_withdrawAmount",
          "type": "uint256"
        }
      ],
      "name": "burnPowerPerpAmount",
      "outputs": [
        {
          "internalType": "uint256",
          "name": "",
          "type": "uint256"
        }
      ],
      "stateMutability": "nonpayable",
      "type": "function"
    },
    {
      "inputs": [
        {
          "internalType": "uint256",
          "name": "_vaultId",
          "type": "uint256"
        },
        {
          "internalType": "uint256",
          "name": "_wPowerPerpAmount",
          "type": "uint256"
        },
        {
          "internalType": "uint256",
          "name": "_withdrawAmount",
          "type": "uint256"
        }
      ],
      "name": "burnWPowerPerpAmount",
      "outputs": [],
      "stateMutability": "nonpayable",
      "type": "function"
    },
    {
      "inputs": [
        {
          "internalType": "uint256",
          "name": "_vaultId",
          "type": "uint256"
        }
      ],
      "name": "deposit",
      "outputs": [],
      "stateMutability": "payable",
      "type": "function"
    },
    {
      "inputs": [
        {
          "internalType": "uint256",
          "name": "_vaultId",
          "type": "uint256"
        },
        {
          "internalType": "uint256",
          "name": "_uniTokenId",
          "type": "uint256"
        }
      ],
      "name": "depositUniPositionToken",
      "outputs": [],
      "stateMutability": "nonpayable",
      "type": "function"
    },
    {
      "inputs": [],
      "name": "donate",
      "outputs": [],
      "stateMutability": "payable",
      "type": "function"
    },
    {
      "inputs": [],
      "name": "ethQuoteCurrencyPool",
      "outputs": [
        {
          "internalType": "address",
          "name": "",
          "type": "address"
        }
      ],
      "stateMutability": "view",
      "type": "function"
    },
    {
      "inputs": [],
      "name": "feeRate",
      "outputs": [
        {
          "internalType": "uint256",
          "name": "",
          "type": "uint256"
        }
      ],
      "stateMutability": "view",
      "type": "function"
    },
    {
      "inputs": [],
      "name": "feeRecipient",
      "outputs": [
        {
          "internalType": "address",
          "name": "",
          "type": "address"
        }
      ],
      "stateMutability": "view",
      "type": "function"
    },
    {
      "inputs": [],
      "name": "feeTier",
      "outputs": [
        {
          "internalType": "uint24",
          "name": "",
          "type": "uint24"
        }
      ],
      "stateMutability": "view",
      "type": "function"
    },
    {
      "inputs": [
        {
          "internalType": "uint32",
          "name": "_period",
          "type": "uint32"
        }
      ],
      "name": "getDenormalizedMark",
      "outputs": [
        {
          "internalType": "uint256",
          "name": "",
          "type": "uint256"
        }
      ],
      "stateMutability": "view",
      "type": "function"
    },
    {
      "inputs": [
        {
          "internalType": "uint32",
          "name": "_period",
          "type": "uint32"
        }
      ],
      "name": "getDenormalizedMarkForFunding",
      "outputs": [
        {
          "internalType": "uint256",
          "name": "",
          "type": "uint256"
        }
      ],
      "stateMutability": "view",
      "type": "function"
    },
    {
      "inputs": [],
      "name": "getExpectedNormalizationFactor",
      "outputs": [
        {
          "internalType": "uint256",
          "name": "",
          "type": "uint256"
        }
      ],
      "stateMutability": "view",
      "type": "function"
    },
    {
      "inputs": [
        {
          "internalType": "uint32",
          "name": "_period",
          "type": "uint32"
        }
      ],
      "name": "getIndex",
      "outputs": [
        {
          "internalType": "uint256",
          "name": "",
          "type": "uint256"
        }
      ],
      "stateMutability": "view",
      "type": "function"
    },
    {
      "inputs": [
        {
          "internalType": "uint32",
          "name": "_period",
          "type": "uint32"
        }
      ],
      "name": "getUnscaledIndex",
      "outputs": [
        {
          "internalType": "uint256",
          "name": "",
          "type": "uint256"
        }
      ],
      "stateMutability": "view",
      "type": "function"
    },
    {
      "inputs": [],
      "name": "indexForSettlement",
      "outputs": [
        {
          "internalType": "uint256",
          "name": "",
          "type": "uint256"
        }
      ],
      "stateMutability": "view",
      "type": "function"
    },
    {
      "inputs": [],
      "name": "isShutDown",
      "outputs": [
        {
          "internalType": "bool",
          "name": "",
          "type": "bool"
        }
      ],
      "stateMutability": "view",
      "type": "function"
    },
    {
      "inputs": [],
      "name": "isSystemPaused",
      "outputs": [
        {
          "internalType": "bool",
          "name": "",
          "type": "bool"
        }
      ],
      "stateMutability": "view",
      "type": "function"
    },
    {
      "inputs": [
        {
          "internalType": "uint256",
          "name": "_vaultId",
          "type": "uint256"
        }
      ],
      "name": "isVaultSafe",
      "outputs": [
        {
          "internalType": "bool",
          "name": "",
          "type": "bool"
        }
      ],
      "stateMutability": "view",
      "type": "function"
    },
    {
      "inputs": [],
      "name": "lastFundingUpdateTimestamp",
      "outputs": [
        {
          "internalType": "uint128",
          "name": "",
          "type": "uint128"
        }
      ],
      "stateMutability": "view",
      "type": "function"
    },
    {
      "inputs": [],
      "name": "lastPauseTime",
      "outputs": [
        {
          "internalType": "uint256",
          "name": "",
          "type": "uint256"
        }
      ],
      "stateMutability": "view",
      "type": "function"
    },
    {
      "inputs": [
        {
          "internalType": "uint256",
          "name": "_vaultId",
          "type": "uint256"
        },
        {
          "internalType": "uint256",
          "name": "_maxDebtAmount",
          "type": "uint256"
        }
      ],
      "name": "liquidate",
      "outputs": [
        {
          "internalType": "uint256",
          "name": "",
          "type": "uint256"
        }
      ],
      "stateMutability": "nonpayable",
      "type": "function"
    },
    {
      "inputs": [
        {
          "internalType": "uint256",
          "name": "_vaultId",
          "type": "uint256"
        },
        {
          "internalType": "uint256",
          "name": "_powerPerpAmount",
          "type": "uint256"
        },
        {
          "internalType": "uint256",
          "name": "_uniTokenId",
          "type": "uint256"
        }
      ],
      "name": "mintPowerPerpAmount",
      "outputs": [
        {
          "internalType": "uint256",
          "name": "",
          "type": "uint256"
        },
        {
          "internalType": "uint256",
          "name": "",
          "type": "uint256"
        }
      ],
      "stateMutability": "payable",
      "type": "function"
    },
    {
      "inputs": [
        {
          "internalType": "uint256",
          "name": "_vaultId",
          "type": "uint256"
        },
        {
          "internalType": "uint256",
          "name": "_wPowerPerpAmount",
          "type": "uint256"
        },
        {
          "internalType": "uint256",
          "name": "_uniTokenId",
          "type": "uint256"
        }
      ],
      "name": "mintWPowerPerpAmount",
      "outputs": [
        {
          "internalType": "uint256",
          "name": "",
          "type": "uint256"
        }
      ],
      "stateMutability": "payable",
      "type": "function"
    },
    {
      "inputs": [],
      "name": "normalizationFactor",
      "outputs": [
        {
          "internalType": "uint128",
          "name": "",
          "type": "uint128"
        }
      ],
      "stateMutability": "view",
      "type": "function"
    },
    {
      "inputs": [
        {
          "internalType": "address",
          "name": "",
          "type": "address"
        },
        {
          "internalType": "address",
          "name": "",
          "type": "address"
        },
        {
          "internalType": "uint256",
          "name": "",
          "type": "uint256"
        },
        {
          "internalType": "bytes",
          "name": "",
          "type": "bytes"
        }
      ],
      "name": "onERC721Received",
      "outputs": [
        {
          "internalType": "bytes4",
          "name": "",
          "type": "bytes4"
        }
      ],
      "stateMutability": "nonpayable",
      "type": "function"
    },
    {
      "inputs": [],
      "name": "oracle",
      "outputs": [
        {
          "internalType": "address",
          "name": "",
          "type": "address"
        }
      ],
      "stateMutability": "view",
      "type": "function"
    },
    {
      "inputs": [],
      "name": "owner",
      "outputs": [
        {
          "internalType": "address",
          "name": "",
          "type": "address"
        }
      ],
      "stateMutability": "view",
      "type": "function"
    },
    {
      "inputs": [],
      "name": "pause",
      "outputs": [],
      "stateMutability": "nonpayable",
      "type": "function"
    },
    {
      "inputs": [],
      "name": "pausesLeft",
      "outputs": [
        {
          "internalType": "uint256",
          "name": "",
          "type": "uint256"
        }
      ],
      "stateMutability": "view",
      "type": "function"
    },
    {
      "inputs": [],
      "name": "quoteCurrency",
      "outputs": [
        {
          "internalType": "address",
          "name": "",
          "type": "address"
        }
      ],
      "stateMutability": "view",
      "type": "function"
    },
    {
      "inputs": [
        {
          "internalType": "uint256",
          "name": "_wPerpAmount",
          "type": "uint256"
        }
      ],
      "name": "redeemLong",
      "outputs": [],
      "stateMutability": "nonpayable",
      "type": "function"
    },
    {
      "inputs": [
        {
          "internalType": "uint256",
          "name": "_vaultId",
          "type": "uint256"
        }
      ],
      "name": "redeemShort",
      "outputs": [],
      "stateMutability": "nonpayable",
      "type": "function"
    },
    {
      "inputs": [
        {
          "internalType": "uint256",
          "name": "_vaultId",
          "type": "uint256"
        }
      ],
      "name": "reduceDebt",
      "outputs": [],
      "stateMutability": "nonpayable",
      "type": "function"
    },
    {
      "inputs": [
        {
          "internalType": "uint256",
          "name": "_vaultId",
          "type": "uint256"
        }
      ],
      "name": "reduceDebtShutdown",
      "outputs": [],
      "stateMutability": "nonpayable",
      "type": "function"
    },
    {
      "inputs": [],
      "name": "renounceOwnership",
      "outputs": [],
      "stateMutability": "nonpayable",
      "type": "function"
    },
    {
      "inputs": [
        {
          "internalType": "uint256",
          "name": "_newFeeRate",
          "type": "uint256"
        }
      ],
      "name": "setFeeRate",
      "outputs": [],
      "stateMutability": "nonpayable",
      "type": "function"
    },
    {
      "inputs": [
        {
          "internalType": "address",
          "name": "_newFeeRecipient",
          "type": "address"
        }
      ],
      "name": "setFeeRecipient",
      "outputs": [],
      "stateMutability": "nonpayable",
      "type": "function"
    },
    {
      "inputs": [],
      "name": "shortPowerPerp",
      "outputs": [
        {
          "internalType": "address",
          "name": "",
          "type": "address"
        }
      ],
      "stateMutability": "view",
      "type": "function"
    },
    {
      "inputs": [],
      "name": "shutDown",
      "outputs": [],
      "stateMutability": "nonpayable",
      "type": "function"
    },
    {
      "inputs": [
        {
          "internalType": "address",
          "name": "newOwner",
          "type": "address"
        }
      ],
      "name": "transferOwnership",
      "outputs": [],
      "stateMutability": "nonpayable",
      "type": "function"
    },
    {
      "inputs": [],
      "name": "unPauseAnyone",
      "outputs": [],
      "stateMutability": "nonpayable",
      "type": "function"
    },
    {
      "inputs": [],
      "name": "unPauseOwner",
      "outputs": [],
      "stateMutability": "nonpayable",
      "type": "function"
    },
    {
      "inputs": [
        {
          "internalType": "uint256",
          "name": "_vaultId",
          "type": "uint256"
        },
        {
          "internalType": "address",
          "name": "_operator",
          "type": "address"
        }
      ],
      "name": "updateOperator",
      "outputs": [],
      "stateMutability": "nonpayable",
      "type": "function"
    },
    {
      "inputs": [
        {
          "internalType": "uint256",
          "name": "",
          "type": "uint256"
        }
      ],
      "name": "vaults",
      "outputs": [
        {
          "internalType": "address",
          "name": "operator",
          "type": "address"
        },
        {
          "internalType": "uint32",
          "name": "NftCollateralId",
          "type": "uint32"
        },
        {
          "internalType": "uint96",
          "name": "collateralAmount",
          "type": "uint96"
        },
        {
          "internalType": "uint128",
          "name": "shortAmount",
          "type": "uint128"
        }
      ],
      "stateMutability": "view",
      "type": "function"
    },
    {
      "inputs": [],
      "name": "wPowerPerp",
      "outputs": [
        {
          "internalType": "address",
          "name": "",
          "type": "address"
        }
      ],
      "stateMutability": "view",
      "type": "function"
    },
    {
      "inputs": [],
      "name": "wPowerPerpPool",
      "outputs": [
        {
          "internalType": "address",
          "name": "",
          "type": "address"
        }
      ],
      "stateMutability": "view",
      "type": "function"
    },
    {
      "inputs": [],
      "name": "weth",
      "outputs": [
        {
          "internalType": "address",
          "name": "",
          "type": "address"
        }
      ],
      "stateMutability": "view",
      "type": "function"
    },
    {
      "inputs": [
        {
          "internalType": "uint256",
          "name": "_vaultId",
          "type": "uint256"
        },
        {
          "internalType": "uint256",
          "name": "_amount",
          "type": "uint256"
        }
      ],
      "name": "withdraw",
      "outputs": [],
      "stateMutability": "nonpayable",
      "type": "function"
    },
    {
      "inputs": [
        {
          "internalType": "uint256",
          "name": "_vaultId",
          "type": "uint256"
        }
      ],
      "name": "withdrawUniPositionToken",
      "outputs": [],
      "stateMutability": "nonpayable",
      "type": "function"
    },
    {
      "stateMutability": "payable",
      "type": "receive"
    }
  ],
  "transactionHash": "0x9d47e92664cf4f860e532d9fdd20781108e4d0bef9855d22c3da47bad1b886a8",
  "args": [
    "0xF3822177e77319528a82cad3AC5aa55c4B3792f3",
    "0x4757F744ec0CF2e3500Dc655F55100C943a59cbb",
    "0x4a49c7aC69de6cf23da5872b7A7c7D2f2D48fC87",
    "0xc02aaa39b223fe8d0a0e5c4f27ead9083c756cc2",
    "0xa0b86991c6218b36c1d19d4a2e9eb0ce3606eb48",
    "0x8ad599c3A0ff1De082011EFDDc58f1908eb6e6D8",
    "0x79941Aa39Eb093596c88ff43cEC0470Fa680b461",
    "0xC36442b4a4522E871399CD717aBDD847Ab11FE88",
    3000
  ],
  "solcInputHash": "56b4ec4ab07157f3d2fb7e1de805d93e",
  "bytecode": "0x6101e060405260046005553480156200001757600080fd5b50604051620066fc380380620066fc8339810160408190526200003a916200032c565b600062000046620002c4565b600080546001600160a01b0319166001600160a01b0383169081178255604051929350917f8be0079c531659141344cd1fd0a4f28419497f9722a3daafe3b4186f6b6457e0908290a350600180556001600160a01b038916620000c65760405162461bcd60e51b8152600401620000bd9062000462565b60405180910390fd5b6001600160a01b038816620000ef5760405162461bcd60e51b8152600401620000bd90620004b6565b6001600160a01b038716620001185760405162461bcd60e51b8152600401620000bd90620003f0565b6001600160a01b038616620001415760405162461bcd60e51b8152600401620000bd9062000446565b6001600160a01b0385166200016a5760405162461bcd60e51b8152600401620000bd906200049a565b6001600160a01b038416620001935760405162461bcd60e51b8152600401620000bd906200047e565b6001600160a01b038316620001bc5760405162461bcd60e51b8152600401620000bd906200040c565b6001600160a01b038216620001e55760405162461bcd60e51b8152600401620000bd9062000429565b6001600160601b031960608a811b82166101805289811b82166101405288811b82166101605287811b821660a05286811b821660c05285811b821660e05284811b82166101005283901b16610120526001600160e81b031960e882901b166080526001600160a01b038781169087161060f81b6101c052600780546001600160801b031916670de0b6b3a7640000179055426101a0819052620002979062002768620002c8602090811b91909117901c565b600780546001600160801b03928316600160801b02921691909117905550620004d2975050505050505050565b3390565b806001600160801b03811681146200030f576040805162461bcd60e51b815260206004820152600560248201526409e8c6264760db1b604482015290519081900360640190fd5b919050565b80516001600160a01b03811681146200030f57600080fd5b60008060008060008060008060006101208a8c0312156200034b578485fd5b620003568a62000314565b98506200036660208b0162000314565b97506200037660408b0162000314565b96506200038660608b0162000314565b95506200039660808b0162000314565b9450620003a660a08b0162000314565b9350620003b660c08b0162000314565b9250620003c660e08b0162000314565b91506101008a015162ffffff81168114620003df578182fd5b809150509295985092959850929598565b602080825260029082015261219b60f11b604082015260600190565b60208082526003908201526204331360ec1b604082015260600190565b60208082526003908201526243313160e81b604082015260600190565b602080825260029082015261433760f01b604082015260600190565b60208082526002908201526110cd60f21b604082015260600190565b602080825260029082015261433960f01b604082015260600190565b602080825260029082015261086760f31b604082015260600190565b602080825260029082015261433560f01b604082015260600190565b60805160e81c60a05160601c60c05160601c60e05160601c6101005160601c6101205160601c6101405160601c6101605160601c6101805160601c6101a0516101c05160f81c615ffb62000701600039806147385280614a0b5250806115d5525080610af15280610be25280610d535280611412528061175552806124555280612adf5280612bb35280613f28528061413452806141f452806145b852806146785280614e025280614ead525080610df852806114365280611bb252806124fa5280612b845280613625528061369d528061391452806139bc5280613b995280613f6a528061403652806144f65280614e445280614eef525080611a925280611db85280611df9528061200c52806121bf52806127285280612f845280613e165250806133de5280613506528061374a528061464c528061484d525080610d745280611d9452806124765280612b005280613f49528061422352806146a75280614e235280614ece525080610b125280610c035280610d9552806110b7528061177652806124975280612b215280612bd4528061416352806145d9525080610b545280610c455280610dd752806114ca52806117b852806124d95280612b635280612c16528061461b5250806103535280610b335280610c245280610db65280610ed5528061179752806124b85280612b425280612bf5528061366152806136d9528061385e5280613f8b52806145fa5280614e655280614f105250806113da52806135dc5250615ffb6000f3fe6080604052600436106103435760003560e01c80638456cb59116101b0578063b707ab99116100ec578063e74b981b11610095578063f2fde38b1161006f578063f2fde38b146108d0578063f90c3f27146108f0578063fbfc6bc014610905578063ff947525146109255761039b565b8063e74b981b14610888578063ed88c68e146108a8578063ee3189ff146108b05761039b565b8063d296d1f1116100c6578063d296d1f11461083e578063d52725841461085e578063de4a427a146108735761039b565b8063b707ab99146107e9578063c65a391d146107fe578063c9e77ee81461081e5761039b565b806391b8d34a116101595780639d4c9442116101335780639d4c944214610781578063a847e67414610796578063ac6cd5ef146107b6578063b6b55f25146107d65761039b565b806391b8d34a1461072c578063978bbdb91461074c57806397efa942146107615761039b565b80638cd21d7c1161018a5780638cd21d7c146106e25780638da5cb5b1461070257806391b4ded9146107175761039b565b80638456cb591461067d5780638632cb03146106925780638c64ea4a146106b25761039b565b806345596e2e1161027f57806372f5d98a116102285780637dc0d1d0116102025780637dc0d1d0146106295780637f07b1301461063e5780638146b09f1461065357806382564bca146106685761039b565b806372f5d98a146105c35780637691c4ac146105e55780637ca25184146106075761039b565b806363b38ae41161025957806363b38ae414610579578063713d517f1461058e578063715018a6146105ae5761039b565b806345596e2e1461052257806346904840146105425780634be2822c146105575761039b565b806324f5f531116102ec5780633fc8cef3116102c65780633fc8cef3146104ab5780634394318d146104cd578063441a3e70146104ed5780634468c0221461050d5761039b565b806324f5f53114610463578063377a19361461047857806339467918146104985761039b565b806315aded831161031d57806315aded83146104005780631bf7bf6c1461042d578063200f4b8d1461044e5761039b565b806307633669146103a057806310b9e583146103b5578063150b7a02146103ca5761039b565b3661039b57336001600160a01b037f000000000000000000000000000000000000000000000000000000000000000016146103995760405162461bcd60e51b815260040161039090615d95565b60405180910390fd5b005b600080fd5b3480156103ac57600080fd5b5061039961093a565b3480156103c157600080fd5b50610399610a3d565b3480156103d657600080fd5b506103ea6103e5366004615716565b610bb0565b6040516103f79190615b8d565b60405180910390f35b34801561040c57600080fd5b5061042061041b366004615903565b610bda565b6040516103f79190615ebf565b61044061043b3660046158d8565b610c71565b6040516103f7929190615ec8565b34801561045a57600080fd5b50610399610d08565b34801561046f57600080fd5b50610420610d3b565b34801561048457600080fd5b50610420610493366004615903565b610d4b565b6104206104a63660046158d8565b610e3b565b3480156104b757600080fd5b506104c0610ed3565b6040516103f79190615a15565b3480156104d957600080fd5b506104206104e83660046158d8565b610ef7565b3480156104f957600080fd5b50610399610508366004615894565b610f91565b34801561051957600080fd5b506104c06110b5565b34801561052e57600080fd5b5061039961053d366004615835565b6110d9565b34801561054e57600080fd5b506104c06111d6565b34801561056357600080fd5b5061056c6111e5565b6040516103f79190615e71565b34801561058557600080fd5b506104206111fb565b34801561059a57600080fd5b506103996105a9366004615835565b611201565b3480156105ba57600080fd5b5061039961131a565b3480156105cf57600080fd5b506105d86113d8565b6040516103f79190615eaf565b3480156105f157600080fd5b506105fa6113fc565b6040516103f79190615b82565b34801561061357600080fd5b5061061c61140a565b6040516103f79190615ed6565b34801561063557600080fd5b506104c0611410565b34801561064a57600080fd5b506104c0611434565b34801561065f57600080fd5b50610399611458565b34801561067457600080fd5b506104c06114c8565b34801561068957600080fd5b506103996114ec565b34801561069e57600080fd5b506103996106ad3660046158d8565b611675565b3480156106be57600080fd5b506106d26106cd366004615835565b611700565b6040516103f79493929190615b44565b3480156106ee57600080fd5b506104206106fd366004615903565b61174d565b34801561070e57600080fd5b506104c06117dc565b34801561072357600080fd5b506104206117eb565b34801561073857600080fd5b50610399610747366004615894565b6117f1565b34801561075857600080fd5b506104206118ea565b34801561076d57600080fd5b5061039961077c366004615835565b6118f0565b34801561078d57600080fd5b506104c0611a90565b3480156107a257600080fd5b506105fa6107b1366004615835565b611ab4565b3480156107c257600080fd5b506103996107d1366004615835565b611b2e565b6103996107e4366004615835565b611c88565b3480156107f557600080fd5b506104c0611d92565b34801561080a57600080fd5b50610399610819366004615865565b611db6565b34801561082a57600080fd5b50610399610839366004615835565b611f14565b34801561084a57600080fd5b50610420610859366004615894565b6120a6565b34801561086a57600080fd5b5061056c612311565b34801561087f57600080fd5b50610420612320565b34801561089457600080fd5b506103996108a33660046156de565b612326565b610399612429565b3480156108bc57600080fd5b506104206108cb366004615903565b61244d565b3480156108dc57600080fd5b506103996108eb3660046156de565b612526565b3480156108fc57600080fd5b5061042061263a565b34801561091157600080fd5b50610399610920366004615835565b612641565b34801561093157600080fd5b506105fa61275f565b6109426127c6565b6001600160a01b03166109536117dc565b6001600160a01b0316146109ae576040805162461bcd60e51b815260206004820181905260248201527f4f776e61626c653a2063616c6c6572206973206e6f7420746865206f776e6572604482015290519081900360640190fd5b600854610100900460ff166109d55760405162461bcd60e51b815260040161039090615ce9565b60085460ff16156109f85760405162461bcd60e51b815260040161039090615c1f565b6008805461ff00191690556040517fff2b959f2bcdb44c7ecb4b16dae055431019d7350607125cfc2b74a06632c90e90610a33903390615a15565b60405180910390a1565b610a456127c6565b6001600160a01b0316610a566117dc565b6001600160a01b031614610ab1576040805162461bcd60e51b815260206004820181905260248201527f4f776e61626c653a2063616c6c6572206973206e6f7420746865206f776e6572604482015290519081900360640190fd5b60085460ff1615610ad45760405162461bcd60e51b815260040161039090615c1f565b6008805460ff1961ff001990911661010017166001179055610b7d7f00000000000000000000000000000000000000000000000000000000000000007f00000000000000000000000000000000000000000000000000000000000000007f00000000000000000000000000000000000000000000000000000000000000007f00000000000000000000000000000000000000000000000000000000000000006101a460006127ca565b60048190556040517f574214b195bf5273a95bb4498e35cf1fde0ce327c727a95ec2ab359f7ba4e11a91610a3391615ebf565b7f150b7a02000000000000000000000000000000000000000000000000000000005b949350505050565b6000610c69827f00000000000000000000000000000000000000000000000000000000000000007f00000000000000000000000000000000000000000000000000000000000000007f00000000000000000000000000000000000000000000000000000000000000007f00000000000000000000000000000000000000000000000000000000000000006127f7565b90505b919050565b6008546000908190610100900460ff1615610c9e5760405162461bcd60e51b815260040161039090615d05565b60026001541415610ce4576040805162461bcd60e51b815260206004820152601f6024820152600080516020615f25833981519152604482015290519081900360640190fd5b6002600155610cf833868634876000612832565b6001805590969095509350505050565b600854610100900460ff1615610d305760405162461bcd60e51b815260040161039090615d05565b610d38612983565b50565b6000610d45612a71565b90505b90565b6000610c69827f00000000000000000000000000000000000000000000000000000000000000007f00000000000000000000000000000000000000000000000000000000000000007f00000000000000000000000000000000000000000000000000000000000000007f00000000000000000000000000000000000000000000000000000000000000007f00000000000000000000000000000000000000000000000000000000000000007f0000000000000000000000000000000000000000000000000000000000000000600760009054906101000a90046001600160801b03166001600160801b0316612f34565b600854600090610100900460ff1615610e665760405162461bcd60e51b815260040161039090615d05565b60026001541415610eac576040805162461bcd60e51b815260206004820152601f6024820152600080516020615f25833981519152604482015290519081900360640190fd5b60026001819055506000610ec533868634876001612832565b506001805595945050505050565b7f000000000000000000000000000000000000000000000000000000000000000081565b600854600090610100900460ff1615610f225760405162461bcd60e51b815260040161039090615d05565b60026001541415610f68576040805162461bcd60e51b815260206004820152601f6024820152600080516020615f25833981519152604482015290519081900360640190fd5b6002600155610f778433612f78565b610f8533858585600061306c565b60018055949350505050565b600854610100900460ff1615610fb95760405162461bcd60e51b815260040161039090615d05565b60026001541415610fff576040805162461bcd60e51b815260206004820152601f6024820152600080516020615f25833981519152604482015290519081900360640190fd5b600260015561100e8233612f78565b6000611018612983565b600084815260096020908152604091829020825160808101845281546001600160a01b0381168252600160a01b900463ffffffff1692810192909252600101546001600160601b03811692820192909252600160601b9091046001600160801b0316606082015290915061108d81858561315a565b61109781836131a4565b6110a184826131f6565b6110ab33846132c9565b5050600180555050565b7f000000000000000000000000000000000000000000000000000000000000000081565b6110e16127c6565b6001600160a01b03166110f26117dc565b6001600160a01b03161461114d576040805162461bcd60e51b815260206004820181905260248201527f4f776e61626c653a2063616c6c6572206973206e6f7420746865206f776e6572604482015290519081900360640190fd5b6002546001600160a01b03166111755760405162461bcd60e51b815260040161039090615bc8565b60648111156111965760405162461bcd60e51b815260040161039090615d21565b7f14914da2bf76024616fbe1859783fcd4dbddcb179b1f3a854949fbf920dcb957600354826040516111c9929190615ec8565b60405180910390a1600355565b6002546001600160a01b031681565b600754600160801b90046001600160801b031681565b60055481565b600854610100900460ff16156112295760405162461bcd60e51b815260040161039090615d05565b6002600154141561126f576040805162461bcd60e51b815260206004820152601f6024820152600080516020615f25833981519152604482015290519081900360640190fd5b600260015561127e8133612f78565b6000611288612983565b600083815260096020908152604091829020825160808101845281546001600160a01b0381168252600160a01b900463ffffffff1692810192909252600101546001600160601b03811692820192909252600160601b9091046001600160801b031660608201529091506112fd8133856133b3565b61130781836131a4565b61131183826131f6565b50506001805550565b6113226127c6565b6001600160a01b03166113336117dc565b6001600160a01b03161461138e576040805162461bcd60e51b815260206004820181905260248201527f4f776e61626c653a2063616c6c6572206973206e6f7420746865206f776e6572604482015290519081900360640190fd5b600080546040516001600160a01b03909116907f8be0079c531659141344cd1fd0a4f28419497f9722a3daafe3b4186f6b6457e0908390a3600080546001600160a01b0319169055565b7f000000000000000000000000000000000000000000000000000000000000000081565b600854610100900460ff1681565b6101a481565b7f000000000000000000000000000000000000000000000000000000000000000081565b7f000000000000000000000000000000000000000000000000000000000000000081565b600854610100900460ff1661147f5760405162461bcd60e51b815260040161039090615ce9565b60085460ff16156114a25760405162461bcd60e51b815260040161039090615c1f565b600654620151800142116109f85760405162461bcd60e51b815260040161039090615caf565b7f000000000000000000000000000000000000000000000000000000000000000081565b6114f46127c6565b6001600160a01b03166115056117dc565b6001600160a01b031614611560576040805162461bcd60e51b815260206004820181905260248201527f4f776e61626c653a2063616c6c6572206973206e6f7420746865206f776e6572604482015290519081900360640190fd5b60085460ff16156115835760405162461bcd60e51b815260040161039090615c1f565b600854610100900460ff16156115ab5760405162461bcd60e51b815260040161039090615d05565b6000600554116115cd5760405162461bcd60e51b815260040161039090615c3b565b60006115f9427f000000000000000000000000000000000000000000000000000000000000000061348a565b905062eff100811061161d5760405162461bcd60e51b815260040161039090615db2565b6008805461ff001916610100179055600580546000190190819055426006556040517f32fb7c9891bc4f963c7de9f1186d2a7755c7d6e9f4604dabe1d8bb3027c2f49e9161166a91615ebf565b60405180910390a150565b600854610100900460ff161561169d5760405162461bcd60e51b815260040161039090615d05565b600260015414156116e3576040805162461bcd60e51b815260206004820152601f6024820152600080516020615f25833981519152604482015290519081900360640190fd5b60026001556116f28333612f78565b6110ab33848484600161306c565b600960205260009081526040902080546001909101546001600160a01b03821691600160a01b900463ffffffff16906001600160601b03811690600160601b90046001600160801b031684565b6000610c69827f00000000000000000000000000000000000000000000000000000000000000007f00000000000000000000000000000000000000000000000000000000000000007f00000000000000000000000000000000000000000000000000000000000000007f00000000000000000000000000000000000000000000000000000000000000006134ec565b6000546001600160a01b031690565b60065481565b600854610100900460ff16156118195760405162461bcd60e51b815260040161039090615d05565b6002600154141561185f576040805162461bcd60e51b815260206004820152601f6024820152600080516020615f25833981519152604482015290519081900360640190fd5b600260015561186e8233612f78565b611876612983565b50600082815260096020908152604091829020825160808101845281546001600160a01b0381168252600160a01b900463ffffffff1692810192909252600101546001600160601b03811692820192909252600160601b9091046001600160801b03166060820152611307813385856134fe565b60035481565b60085460ff166119125760405162461bcd60e51b815260040161039090615dcf565b60026001541415611958576040805162461bcd60e51b815260206004820152601f6024820152600080516020615f25833981519152604482015290519081900360640190fd5b60026001556119678133612f78565b6000818152600960209081526040808320815160808101835281546001600160a01b0381168252600160a01b900463ffffffff1693810193909352600101546001600160601b03811691830191909152600160601b90046001600160801b03908116606083015260075491929116906119e5908390339086906137fa565b506000611a0283606001516001600160801b031660045484613a77565b90506000611a268285604001516001600160601b031661348a90919063ffffffff16565b60006060860181905260408601529050611a4085856131f6565b611a4a33826132c9565b7f7dff8cdaec6a8d4d1ad32d3c947ed0f0281c3d6456621ef928defae96ec6cddb338683604051611a7d93929190615a89565b60405180910390a1505060018055505050565b7f000000000000000000000000000000000000000000000000000000000000000081565b6000818152600960209081526040808320815160808101835281546001600160a01b0381168252600160a01b900463ffffffff1693810193909352600101546001600160601b03811691830191909152600160601b90046001600160801b0316606082015281611b22612a71565b9050610bd28282613aaa565b60085460ff16611b505760405162461bcd60e51b815260040161039090615dcf565b60026001541415611b96576040805162461bcd60e51b815260206004820152601f6024820152600080516020615f25833981519152604482015290519081900360640190fd5b6002600155604051632770a7eb60e21b81526001600160a01b037f00000000000000000000000000000000000000000000000000000000000000001690639dc29fac90611be99033908590600401615a4d565b600060405180830381600087803b158015611c0357600080fd5b505af1158015611c17573d6000803e3d6000fd5b505060045460075460009350611c3992508491906001600160801b0316613a77565b9050611c4533826132c9565b7f2131ef4f2f82ca75fe7d2e646ebfa45b6be25e53510c829629c76b641500ec67338383604051611c7893929190615a89565b60405180910390a1505060018055565b600854610100900460ff1615611cb05760405162461bcd60e51b815260040161039090615d05565b60026001541415611cf6576040805162461bcd60e51b815260206004820152601f6024820152600080516020615f25833981519152604482015290519081900360640190fd5b6002600155611d058133612f78565b611d0d612983565b50600081815260096020908152604091829020825160808101845281546001600160a01b0381168252600160a01b900463ffffffff1692810192909252600101546001600160601b03811692820192909252600160601b9091046001600160801b03166060820152611d80818334613ac0565b611d8a82826131f6565b505060018055565b7f000000000000000000000000000000000000000000000000000000000000000081565b7f00000000000000000000000000000000000000000000000000000000000000006001600160a01b0316331480611e9157506040516331a9108f60e11b815233907f00000000000000000000000000000000000000000000000000000000000000006001600160a01b031690636352211e90611e36908690600401615ebf565b60206040518083038186803b158015611e4e57600080fd5b505afa158015611e62573d6000803e3d6000fd5b505050506040513d601f19601f82011682018060405250810190611e8691906156fa565b6001600160a01b0316145b611ead5760405162461bcd60e51b815260040161039090615be5565b6000828152600960205260409081902080546001600160a01b0319166001600160a01b038416179055517f3137fc9cd2e33c34f86e29c24d81f3c75b0bce639d3c4ed0d31eeff1160a7ff590611f0890339085908590615a66565b60405180910390a15050565b600854610100900460ff1615611f3c5760405162461bcd60e51b815260040161039090615d05565b60026001541415611f82576040805162461bcd60e51b815260206004820152601f6024820152600080516020615f25833981519152604482015290519081900360640190fd5b6002600155611f918133612f78565b600081815260096020908152604091829020825160808101845281546001600160a01b038082168352600160a01b90910463ffffffff16938201939093526001909101546001600160601b03811682850152600160601b90046001600160801b0316606082015291516331a9108f60e11b815261209b9183917f000000000000000000000000000000000000000000000000000000000000000090911690636352211e90612043908790600401615ebf565b60206040518083038186803b15801561205b57600080fd5b505afa15801561206f573d6000803e3d6000fd5b505050506040513d601f19601f8201168201806040525081019061209391906156fa565b8460006137fa565b50611d8a82826131f6565b600854600090610100900460ff16156120d15760405162461bcd60e51b815260040161039090615d05565b60026001541415612117576040805162461bcd60e51b815260206004820152601f6024820152600080516020615f25833981519152604482015290519081900360640190fd5b60026001556000612126612983565b600085815260096020908152604091829020825160808101845281546001600160a01b0381168252600160a01b900463ffffffff1692810192909252600101546001600160601b03811692820192909252600160601b9091046001600160801b0316606082015290915061219a8183613aaa565b156121b75760405162461bcd60e51b815260040161039090615d3e565b6000612261827f00000000000000000000000000000000000000000000000000000000000000006001600160a01b0316636352211e896040518263ffffffff1660e01b81526004016122099190615ebf565b60206040518083038186803b15801561222157600080fd5b505afa158015612235573d6000803e3d6000fd5b505050506040513d601f19601f8201168201806040525081019061225991906156fa565b8860016137fa565b905061226d8284613aaa565b156122925761227c86836131f6565b61228633826132c9565b60009350505050612307565b61229c8282613afd565b6000806122ab84888733613b33565b915091507f158ba9ab7bbbd08eeffa4753bad41f4d450e24831d293427308badf3eadd8c76338984846040516122e49493929190615aaa565b60405180910390a16122f688856131f6565b61230033826132c9565b5093505050505b6001805592915050565b6007546001600160801b031681565b60045481565b61232e6127c6565b6001600160a01b031661233f6117dc565b6001600160a01b03161461239a576040805162461bcd60e51b815260206004820181905260248201527f4f776e61626c653a2063616c6c6572206973206e6f7420746865206f776e6572604482015290519081900360640190fd5b6001600160a01b0381166123c05760405162461bcd60e51b815260040161039090615c58565b6002546040517faaebcf1bfa00580e41d966056b48521fa9f202645c86d4ddf28113e617c1b1d3916123ff916001600160a01b03909116908490615b0b565b60405180910390a1600280546001600160a01b0319166001600160a01b0392909216919091179055565b60085460ff1661244b5760405162461bcd60e51b815260040161039090615dcf565b565b6000610c69827f00000000000000000000000000000000000000000000000000000000000000007f00000000000000000000000000000000000000000000000000000000000000007f00000000000000000000000000000000000000000000000000000000000000007f00000000000000000000000000000000000000000000000000000000000000007f00000000000000000000000000000000000000000000000000000000000000007f0000000000000000000000000000000000000000000000000000000000000000612521612a71565b612f34565b61252e6127c6565b6001600160a01b031661253f6117dc565b6001600160a01b03161461259a576040805162461bcd60e51b815260206004820181905260248201527f4f776e61626c653a2063616c6c6572206973206e6f7420746865206f776e6572604482015290519081900360640190fd5b6001600160a01b0381166125df5760405162461bcd60e51b8152600401808060200182810382526026815260200180615f456026913960400191505060405180910390fd5b600080546040516001600160a01b03808516939216917f8be0079c531659141344cd1fd0a4f28419497f9722a3daafe3b4186f6b6457e091a3600080546001600160a01b0319166001600160a01b0392909216919091179055565b6217124081565b60085460ff166126635760405162461bcd60e51b815260040161039090615dcf565b600260015414156126a9576040805162461bcd60e51b815260206004820152601f6024820152600080516020615f25833981519152604482015290519081900360640190fd5b60026001908155600082815260096020908152604091829020825160808101845281546001600160a01b038082168352600160a01b90910463ffffffff16938201939093529301546001600160601b03811684840152600160601b90046001600160801b0316606084015290516331a9108f60e11b815261209b9183917f000000000000000000000000000000000000000000000000000000000000000090911690636352211e90612043908790600401615ebf565b60085460ff1681565b806001600160801b0381168114610c6c576040805162461bcd60e51b815260206004820152600560248201527f4f46313238000000000000000000000000000000000000000000000000000000604482015290519081900360640190fd5b3390565b6000806127db888888888888613c5a565b90506127e981612710613d19565b9150505b9695505050505050565b600080612809868686868b6000613c5a565b9050612827670de0b6b3a76400006128218380613d80565b90613d19565b979650505050505050565b600080600061283f612983565b9050856000856128645761285f836128218b670de0b6b3a7640000613d80565b612866565b885b90506000612872615670565b8b61288a576128808d613dd9565b909c5090506128fd565b6128948c33612f78565b5060008b815260096020908152604091829020825160808101845281546001600160a01b0381168252600160a01b900463ffffffff1692810192909252600101546001600160601b03811692820192909252600160601b9091046001600160801b031660608201525b821561291e5761290e81848c613f05565b9450915061291e818e8e86613ffc565b891561292f5761292f818d86613ac0565b881561294157612941818e8e8c6134fe565b61294b81866131a4565b6129558c826131f6565b811561297157600254612971906001600160a01b0316836132c9565b50999b909a5098505050505050505050565b6007546000906001600160801b03600160801b909104164214156129b357506007546001600160801b0316610d48565b60006129bd612a71565b6007546040519192507f339e53729b0447795ff69e70a74fed98fc7fef6fe94b7521099b32f0f8de482291612a0c916001600160801b03808216928692600160801b9004909116904290615e85565b60405180910390a1612a1d81612768565b600780546fffffffffffffffffffffffffffffffff19166001600160801b0392909216919091179055612a4f42612768565b600780546001600160801b03928316600160801b029216919091179055905090565b6007546000908190612a9d90612a98904290600160801b90046001600160801b031661348a565b6140d2565b905063ffffffff8116612abd5750506007546001600160801b0316610d48565b6000612ac88261412f565b6007549091506001600160801b03166000612ba9837f00000000000000000000000000000000000000000000000000000000000000007f00000000000000000000000000000000000000000000000000000000000000007f00000000000000000000000000000000000000000000000000000000000000007f00000000000000000000000000000000000000000000000000000000000000007f00000000000000000000000000000000000000000000000000000000000000007f000000000000000000000000000000000000000000000000000000000000000089612f34565b90506000612c3a847f00000000000000000000000000000000000000000000000000000000000000007f00000000000000000000000000000000000000000000000000000000000000007f00000000000000000000000000000000000000000000000000000000000000007f00000000000000000000000000000000000000000000000000000000000000006134ec565b9050600073B0069E6586F70003342309B9289e07035cC4140063fc505d3787621712406040518363ffffffff1660e01b8152600401612c7a929190615ee7565b60206040518083038186803b158015612c9257600080fd5b505af4158015612ca6573d6000803e3d6000fd5b505050506040513d601f19601f82011682018060405250810190612cca91906157fa565b90506000612cec670de0b6b3a764000061282185670b1a2bc2ec500000613d80565b905080841015612cfe57809350612d2e565b6000612d1e670de0b6b3a76400006128218667136dcc951d8c0000613d80565b905080851115612d2c578094505b505b6040517ffc505d3700000000000000000000000000000000000000000000000000000000815260009073B0069E6586F70003342309B9289e07035cC414009063fc505d3790612d839087908990600401615ec8565b60206040518083038186803b158015612d9b57600080fd5b505af4158015612daf573d6000803e3d6000fd5b505050506040513d601f19601f82011682018060405250810190612dd391906157fa565b90506000612e6b8473B0069E6586F70003342309B9289e07035cC41400632cbbdee5856040518263ffffffff1660e01b8152600401612e129190615bba565b60206040518083038186803b158015612e2a57600080fd5b505af4158015612e3e573d6000803e3d6000fd5b505050506040513d601f19601f82011682018060405250810190612e6291906157fa565b600f0b906142f3565b6040517ffc193cf200000000000000000000000000000000000000000000000000000000815290915060009073B0069E6586F70003342309B9289e07035cC414009063fc193cf290612ec590600f86900b90600401615bba565b60206040518083038186803b158015612edd57600080fd5b505af4158015612ef1573d6000803e3d6000fd5b505050506040513d601f19601f82011682018060405250810190612f1591906157fa565b9050612f25600f82900b89614384565b9a505050505050505050505090565b600080612f46898888888e60006127ca565b90506000612f598a8a878a8f6000613c5a565b9050612f69846128218385613d80565b9b9a5050505050505050505050565b806001600160a01b03167f00000000000000000000000000000000000000000000000000000000000000006001600160a01b0316636352211e846040518263ffffffff1660e01b8152600401612fce9190615ebf565b60206040518083038186803b158015612fe657600080fd5b505afa158015612ffa573d6000803e3d6000fd5b505050506040513d601f19601f8201168201806040525081019061301e91906156fa565b6001600160a01b0316148061304c57506000828152600960205260409020546001600160a01b038281169116145b6130685760405162461bcd60e51b815260040161039090615be5565b5050565b600080613077612983565b905060008361309b576130968261282188670de0b6b3a7640000613d80565b61309d565b855b600088815260096020908152604091829020825160808101845281546001600160a01b0381168252600160a01b900463ffffffff1692810192909252600101546001600160601b03811692820192909252600160601b9091046001600160801b03166060820152909150811561311957613119818a8a856144d5565b851561312a5761312a81898861315a565b61313481846131a4565b61313e88826131f6565b851561314e5761314e33876132c9565b50979650505050505050565b6131648382614592565b7f627a692d5a03ab34732c0d2aa319f3ecdebdc4528f383eabcb25441dc0a70cfb33838360405161319793929190615a89565b60405180910390a1505050565b6000806131b184846145ae565b91509150816131d25760405162461bcd60e51b815260040161039090615d5b565b80156131f05760405162461bcd60e51b815260040161039090615d78565b50505050565b600091825260096020908152604092839020825181549284015163ffffffff16600160a01b027fffffffffffffffff00000000ffffffffffffffffffffffffffffffffffffffff6001600160a01b039092166001600160a01b0319909416939093171691909117815591810151600190920180546060909201516001600160801b0316600160601b027fffffffff00000000000000000000000000000000ffffffffffffffffffffffff6001600160601b039094166bffffffffffffffffffffffff199093169290921792909216179055565b8047101561331e576040805162461bcd60e51b815260206004820152601d60248201527f416464726573733a20696e73756666696369656e742062616c616e6365000000604482015290519081900360640190fd5b6040516000906001600160a01b0384169083908381818185875af1925050503d8060008114613369576040519150601f19603f3d011682016040523d82523d6000602084013e61336e565b606091505b50509050806133ae5760405162461bcd60e51b815260040180806020018281038252603a815260200180615f6b603a913960400191505060405180910390fd5b505050565b602083015163ffffffff166133c784614768565b604051632142170760e11b81526001600160a01b037f000000000000000000000000000000000000000000000000000000000000000016906342842e0e9061341790309087908690600401615a29565b600060405180830381600087803b15801561343157600080fd5b505af1158015613445573d6000803e3d6000fd5b505050507fe59f38fa1264fc25c9f0185eee136eaf810d90b8e7293b342e4037c68720177a33838360405161347c93929190615a89565b60405180910390a150505050565b6000828211156134e1576040805162461bcd60e51b815260206004820152601e60248201527f536166654d6174683a207375627472616374696f6e206f766572666c6f770000604482015290519081900360640190fd5b508082035b92915050565b600080612809868686868b60006127ca565b6000806000807f00000000000000000000000000000000000000000000000000000000000000006001600160a01b03166399fbab88866040518263ffffffff1660e01b81526004016135509190615ebf565b6101806040518083038186803b15801561356957600080fd5b505afa15801561357d573d6000803e3d6000fd5b505050506040513d601f19601f820116820180604052508101906135a1919061593b565b505050509750505095509550955050506000816001600160801b0316116135da5760405162461bcd60e51b815260040161039090615c92565b7f000000000000000000000000000000000000000000000000000000000000000062ffffff168262ffffff16146136235760405162461bcd60e51b815260040161039090615c02565b7f00000000000000000000000000000000000000000000000000000000000000006001600160a01b0316846001600160a01b031614801561369557507f00000000000000000000000000000000000000000000000000000000000000006001600160a01b0316836001600160a01b0316145b8061370d57507f00000000000000000000000000000000000000000000000000000000000000006001600160a01b0316836001600160a01b031614801561370d57507f00000000000000000000000000000000000000000000000000000000000000006001600160a01b0316846001600160a01b0316145b6137295760405162461bcd60e51b815260040161039090615c75565b61373388866147b3565b604051632142170760e11b81526001600160a01b037f000000000000000000000000000000000000000000000000000000000000000016906342842e0e90613783908a9030908a90600401615a29565b600060405180830381600087803b15801561379d57600080fd5b505af11580156137b1573d6000803e3d6000fd5b505050507f3917c2f26ce18614e3aedd1289da672ef6563c5c295f49e9b1697ae0ad3155623387876040516137e893929190615a89565b60405180910390a15050505050505050565b602084015160009063ffffffff1680613817576000915050610bd2565b60008061382383614848565b909250905081156138c6576040517f2e1a7d4d0000000000000000000000000000000000000000000000000000000081526001600160a01b037f00000000000000000000000000000000000000000000000000000000000000001690632e1a7d4d90613893908590600401615ebf565b600060405180830381600087803b1580156138ad57600080fd5b505af11580156138c1573d6000803e3d6000fd5b505050505b60008060006138d78b86868b614a47565b91945092509050811561399f576040517fa9059cbb0000000000000000000000000000000000000000000000000000000081526001600160a01b037f0000000000000000000000000000000000000000000000000000000000000000169063a9059cbb9061394b908d908690600401615a4d565b602060405180830381600087803b15801561396557600080fd5b505af1158015613979573d6000803e3d6000fd5b505050506040513d601f19601f8201168201806040525081019061399d91906157da565b505b8215613a2657604051632770a7eb60e21b81526001600160a01b037f00000000000000000000000000000000000000000000000000000000000000001690639dc29fac906139f39030908790600401615a4d565b600060405180830381600087803b158015613a0d57600080fd5b505af1158015613a21573d6000803e3d6000fd5b505050505b7ffd0ae2fd36bd955810ae42615bc5ff277c0d0dfcb930f06c9f1777c0ef0752e3338a8787878787604051613a619796959493929190615ad0565b60405180910390a19a9950505050505050505050565b6000613aa06ec097ce7bc90715b34b9f100000000061282185613a9a8887613d80565b90613d80565b90505b9392505050565b600080613ab784846145ae565b50949350505050565b613aca8382613afd565b7f3ca13b7aab12bad7472691fe558faa6b25e99099824a0070a88bd5aa84be610f33838360405161319793929190615a89565b6040820151613b1e90613b19906001600160601b031683614add565b614b37565b6001600160601b031660409092019190915250565b600080600080613b5e8789606001516001600160801b03168a604001516001600160601b0316614b97565b9150915081871015613b825760405162461bcd60e51b815260040161039090615ccc565b604051632770a7eb60e21b81526001600160a01b037f00000000000000000000000000000000000000000000000000000000000000001690639dc29fac90613bd09088908690600401615a4d565b600060405180830381600087803b158015613bea57600080fd5b505af1158015613bfe573d6000803e3d6000fd5b50505050613c158289614bff90919063ffffffff16565b613c1f8882614592565b6000613c2b89886145ae565b9150508015613c4c5760405162461bcd60e51b815260040161039090615d78565b509097909650945050505050565b604080517fcce79bd50000000000000000000000000000000000000000000000000000000081526001600160a01b0387811660048301528681166024830152858116604483015263ffffffff851660648301528315156084830152915160009289169163cce79bd59160a4808301926020929190829003018186803b158015613ce257600080fd5b505afa158015613cf6573d6000803e3d6000fd5b505050506040513d6020811015613d0c57600080fd5b5051979650505050505050565b6000808211613d6f576040805162461bcd60e51b815260206004820152601a60248201527f536166654d6174683a206469766973696f6e206279207a65726f000000000000604482015290519081900360640190fd5b818381613d7857fe5b049392505050565b600082613d8f575060006134e6565b82820282848281613d9c57fe5b0414613aa35760405162461bcd60e51b8152600401808060200182810382526021815260200180615fa56021913960400191505060405180910390fd5b6000613de3615670565b6040517f54ba0f270000000000000000000000000000000000000000000000000000000081526000906001600160a01b037f000000000000000000000000000000000000000000000000000000000000000016906354ba0f2790613e4b908790600401615a15565b602060405180830381600087803b158015613e6557600080fd5b505af1158015613e79573d6000803e3d6000fd5b505050506040513d601f19601f82011682018060405250810190613e9d919061584d565b6040805160808101825260008082526020820181905281830181905260608201529051919250907f25ff1e0131762176a9084e92880f880f39d6d0e62134607f37e631efe1bad87190613ef39033908590615a4d565b60405180910390a19092509050915091565b600354600090819080613f1f576000849250925050613ff4565b600080613faf877f00000000000000000000000000000000000000000000000000000000000000007f00000000000000000000000000000000000000000000000000000000000000007f00000000000000000000000000000000000000000000000000000000000000007f0000000000000000000000000000000000000000000000000000000000000000614c35565b90506000613fc36127106128218487613d80565b905080871115613fde57613fd7878261348a565b9250613fec565b613fe88982614592565b8692505b945090925050505b935093915050565b6140068482614c61565b6040517f40c10f190000000000000000000000000000000000000000000000000000000081526001600160a01b037f000000000000000000000000000000000000000000000000000000000000000016906340c10f199061406d9086908590600401615a4d565b600060405180830381600087803b15801561408757600080fd5b505af115801561409b573d6000803e3d6000fd5b505050507fb19fa182730a088464dad0e9e0badeb470d0d8d937d854f5caf15c6ad1992c3633828460405161347c93929190615a89565b8063ffffffff81168114610c6c576040805162461bcd60e51b8152602060048083019190915260248201527f4f46333200000000000000000000000000000000000000000000000000000000604482015290519081900360640190fd5b6000807f00000000000000000000000000000000000000000000000000000000000000006001600160a01b031663de5a6e227f00000000000000000000000000000000000000000000000000000000000000006040518263ffffffff1660e01b815260040161419e9190615a15565b60206040518083038186803b1580156141b657600080fd5b505afa1580156141ca573d6000803e3d6000fd5b505050506040513d601f19601f820116820180604052508101906141ee919061591f565b905060007f00000000000000000000000000000000000000000000000000000000000000006001600160a01b031663de5a6e227f00000000000000000000000000000000000000000000000000000000000000006040518263ffffffff1660e01b815260040161425e9190615a15565b60206040518083038186803b15801561427657600080fd5b505afa15801561428a573d6000803e3d6000fd5b505050506040513d601f19601f820116820180604052508101906142ae919061591f565b905060008163ffffffff168363ffffffff16116142cb57826142cd565b815b90508063ffffffff168563ffffffff16116142e857846142ea565b805b95945050505050565b6000600f83810b9083900b0260401d6f7fffffffffffffffffffffffffffffff19811280159061433357506f7fffffffffffffffffffffffffffffff8113155b613aa3576040805162461bcd60e51b815260206004820152600860248201527f4d554c2d4f565546000000000000000000000000000000000000000000000000604482015290519081900360640190fd5b600081614393575060006134e6565b600083600f0b12156143ec576040805162461bcd60e51b815260206004820152600760248201527f4d554c552d583000000000000000000000000000000000000000000000000000604482015290519081900360640190fd5b600f83900b6001600160801b038316810260401c90608084901c0277ffffffffffffffffffffffffffffffffffffffffffffffff811115614474576040805162461bcd60e51b815260206004820152600860248201527f4d554c552d4f4631000000000000000000000000000000000000000000000000604482015290519081900360640190fd5b60401b81198111156144cd576040805162461bcd60e51b815260206004820152600860248201527f4d554c552d4f4632000000000000000000000000000000000000000000000000604482015290519081900360640190fd5b019392505050565b6144df8482614bff565b604051632770a7eb60e21b81526001600160a01b037f00000000000000000000000000000000000000000000000000000000000000001690639dc29fac9061452d9086908590600401615a4d565b600060405180830381600087803b15801561454757600080fd5b505af115801561455b573d6000803e3d6000fd5b505050507fea19ffc45b48de6d95594aacff7214dd24595fdb0c60e98c8f0b269058c2f79233828460405161347c93929190615a89565b6040820151613b1e90613b19906001600160601b03168361348a565b60008060006146447f00000000000000000000000000000000000000000000000000000000000000007f00000000000000000000000000000000000000000000000000000000000000007f00000000000000000000000000000000000000000000000000000000000000007f00000000000000000000000000000000000000000000000000000000000000006101a460016127ca565b905061475c857f00000000000000000000000000000000000000000000000000000000000000008684675fc1b971363200007f00000000000000000000000000000000000000000000000000000000000000006001600160a01b0316634a0a96eb7f00000000000000000000000000000000000000000000000000000000000000006101a46040518363ffffffff1660e01b81526004016146e6929190615b25565b60206040518083038186803b1580156146fe57600080fd5b505afa158015614712573d6000803e3d6000fd5b505050506040513d601f19601f82011682018060405250810190614736919061581b565b7f0000000000000000000000000000000000000000000000000000000000000000614c7d565b92509250509250929050565b602081015163ffffffff166147a9576040805162461bcd60e51b81526020600482015260026024820152612b1960f11b604482015290519081900360640190fd5b6000602090910152565b602082015163ffffffff16156147f5576040805162461bcd60e51b8152602060048201526002602482015261563160f01b604482015290519081900360640190fd5b8061482d576040805162461bcd60e51b815260206004820152600360248201526243323360e81b604482015290519081900360640190fd5b614836816140d2565b63ffffffff1660209092019190915250565b6000807f0000000000000000000000000000000000000000000000000000000000000000816148778286614d21565b50506040805160a0810182528981526001600160801b03831660208201526000818301819052606082015242608082015290517f0c49ccbe00000000000000000000000000000000000000000000000000000000815291945092506001600160a01b0385169150630c49ccbe906148f2908490600401615e2e565b6040805180830381600087803b15801561490b57600080fd5b505af115801561491f573d6000803e3d6000fd5b505050506040513d601f19601f8201168201806040525081019061494391906158b5565b5050604080516080810182528781523060208201526001600160801b03818301819052606082015290517ffc6f786500000000000000000000000000000000000000000000000000000000815260009081906001600160a01b0387169063fc6f7865906149b4908690600401615deb565b6040805180830381600087803b1580156149cd57600080fd5b505af11580156149e1573d6000803e3d6000fd5b505050506040513d601f19601f82011682018060405250810190614a0591906158b5565b915091507f0000000000000000000000000000000000000000000000000000000000000000614a35578082614a38565b81815b97509750505050505050915091565b6000806000808415614a6057614a5d8787614ddf565b90505b606088015186906000906001600160801b0316821115614aa65760608a0151614a939089906001600160801b031661348a565b905089606001516001600160801b031691505b614ab08a83614bff565b614ab98a614768565b614ac38a8a613afd565b614acd8a84614592565b9099909850909650945050505050565b600082820183811015613aa3576040805162461bcd60e51b815260206004820152601b60248201527f536166654d6174683a206164646974696f6e206f766572666c6f770000000000604482015290519081900360640190fd5b806001600160601b0381168114610c6c576040805162461bcd60e51b8152602060048083019190915260248201527f4f46393600000000000000000000000000000000000000000000000000000000604482015290519081900360640190fd5b6000808080614bb087614bab886002613d19565b614e8f565b9150915080851115614be557675fc1b97136320000614bcf868361348a565b1015614be557614bdf8787614e8f565b90925090505b84811115614bf35750849050835b90969095509350505050565b6060820151614c2090614c1b906001600160801b03168361348a565b612768565b6001600160801b031660609092019190915250565b600080614c49868686866101a46000613c5a565b9050612827670de0b6b3a76400006128218984613d80565b6060820151614c2090614c1b906001600160801b031683614add565b60008088606001516001600160801b031660001415614ca25750600190506000614d15565b6000614cdb6ec097ce7bc90715b34b9f100000000061282189613a9a8c8f606001516001600160801b0316613d8090919063ffffffff16565b90506000614ced8b8b8b8b8a8a614f6b565b90508681106000614cff846003613d80565b614d0a846002613d80565b101595509093505050505b97509795505050505050565b6000806000806000808790506000806000806000856001600160a01b03166399fbab888d6040518263ffffffff1660e01b8152600401808281526020019150506101806040518083038186803b158015614d7a57600080fd5b505afa158015614d8e573d6000803e3d6000fd5b505050506040513d610180811015614da557600080fd5b5060a081015160c082015160e083015161014084015161016090940151929e50909c509a5090985096505050505050509295509295909350565b6000613aa3670de0b6b3a764000061282166470de4df820000613a9a87614e89887f00000000000000000000000000000000000000000000000000000000000000007f00000000000000000000000000000000000000000000000000000000000000007f00000000000000000000000000000000000000000000000000000000000000007f0000000000000000000000000000000000000000000000000000000000000000614c35565b90614add565b6000806000838511614ea15784614ea3565b835b90506000614f34827f00000000000000000000000000000000000000000000000000000000000000007f00000000000000000000000000000000000000000000000000000000000000007f00000000000000000000000000000000000000000000000000000000000000007f0000000000000000000000000000000000000000000000000000000000000000614c35565b9050614f5e614f57670de0b6b3a76400006128218467016345785d8a0000613d80565b8290614add565b9196919550909350505050565b6000866020015163ffffffff1660001415614f94575060408601516001600160601b03166127ed565b600080614fad888a6020015163ffffffff168787615002565b90925090506000614fd56ec097ce7bc90715b34b9f100000000061282189613a9a868d613d80565b60408b0151909150614ff4906001600160601b0316614e898584614add565b9a9950505050505050505050565b60008060008060008060006150178b8b614d21565b9450945094509450945060008061503087878d88615083565b915091508961505657826001600160801b03168101846001600160801b0316830161506f565b836001600160801b03168201836001600160801b031682015b985098505050505050505094509492505050565b600080600061509185615128565b90508660020b8560020b12156150c5576150be6150ad88615128565b6150b688615128565b86600161545a565b925061511e565b8560020b8560020b12156150fe576150e0816150b688615128565b92506150f76150ee88615128565b8286600161550c565b915061511e565b61511b61510a88615128565b61511388615128565b86600161550c565b91505b5094509492505050565b60008060008360020b1261513f578260020b615147565b8260020b6000035b9050620d89e8811115615185576040805162461bcd60e51b81526020600482015260016024820152601560fa1b604482015290519081900360640190fd5b60006001821661519957600160801b6151ab565b6ffffcb933bd6fad37aa2d162d1a5940015b70ffffffffffffffffffffffffffffffffff16905060028216156151df576ffff97272373d413259a46990580e213a0260801c5b60048216156151fe576ffff2e50f5f656932ef12357cf3c7fdcc0260801c5b600882161561521d576fffe5caca7e10e4e61c3624eaa0941cd00260801c5b601082161561523c576fffcb9843d60f6159c9db58835c9266440260801c5b602082161561525b576fff973b41fa98c081472e6896dfb254c00260801c5b604082161561527a576fff2ea16466c96a3843ec78b326b528610260801c5b6080821615615299576ffe5dee046a99a2a811c461f1969c30530260801c5b6101008216156152b9576ffcbe86c7900a88aedcffc83b479aa3a40260801c5b6102008216156152d9576ff987a7253ac413176f2b074cf7815e540260801c5b6104008216156152f9576ff3392b0822b70005940c7a398e4b70f30260801c5b610800821615615319576fe7159475a2c29b7443b29c7fa6e889d90260801c5b611000821615615339576fd097f3bdfd2022b8845ad8f792aa58250260801c5b612000821615615359576fa9f746462d870fdf8a65dc1f90e061e50260801c5b614000821615615379576f70d869a156d2a1b890bb3df62baf32f70260801c5b618000821615615399576f31be135f97d08fd981231505542fcfa60260801c5b620100008216156153ba576f09aa508b5b7a84e1c677de54f3e99bc90260801c5b620200008216156153da576e5d6af8dedb81196699c329225ee6040260801c5b620400008216156153f9576d2216e584f5fa1ea926041bedfe980260801c5b62080000821615615416576b048a170391f7dc42444e8fa20260801c5b60008460020b131561543157806000198161542d57fe5b0490505b640100000000810615615445576001615448565b60005b60ff16602082901c0192505050919050565b6000836001600160a01b0316856001600160a01b0316111561547a579293925b7bffffffffffffffffffffffffffffffff000000000000000000000000606084901b166001600160a01b0386860381169087166154b657600080fd5b836154e657866001600160a01b03166154d98383896001600160a01b031661557c565b816154e057fe5b04612827565b6128276154fd8383896001600160a01b031661562b565b886001600160a01b0316615665565b6000836001600160a01b0316856001600160a01b0316111561552c579293925b8161555957615554836001600160801b03168686036001600160a01b0316600160601b61557c565b6142ea565b6142ea836001600160801b03168686036001600160a01b0316600160601b61562b565b60008080600019858709868602925082811090839003039050806155b257600084116155a757600080fd5b508290049050613aa3565b8084116155be57600080fd5b6000848688096000868103871696879004966002600389028118808a02820302808a02820302808a02820302808a02820302808a02820302808a02909103029181900381900460010186841190950394909402919094039290920491909117919091029150509392505050565b600061563884848461557c565b90506000828061564457fe5b8486091115613aa357600019811061565b57600080fd5b6001019392505050565b808204910615150190565b60408051608081018252600080825260208201819052918101829052606081019190915290565b8051610c6c81615efd565b8051600281900b8114610c6c57600080fd5b80516001600160801b0381168114610c6c57600080fd5b805162ffffff81168114610c6c57600080fd5b6000602082840312156156ef578081fd5b8135613aa381615efd565b60006020828403121561570b578081fd5b8151613aa381615efd565b6000806000806080858703121561572b578283fd5b843561573681615efd565b935060208581013561574781615efd565b935060408601359250606086013567ffffffffffffffff8082111561576a578384fd5b818801915088601f83011261577d578384fd5b81358181111561578957fe5b604051601f8201601f19168101850183811182821017156157a657fe5b60405281815283820185018b10156157bc578586fd5b81858501868301379081019093019390935250939692955090935050565b6000602082840312156157eb578081fd5b81518015158114613aa3578182fd5b60006020828403121561580b578081fd5b815180600f0b8114613aa3578182fd5b60006020828403121561582c578081fd5b613aa3826156a2565b600060208284031215615846578081fd5b5035919050565b60006020828403121561585e578081fd5b5051919050565b60008060408385031215615877578182fd5b82359150602083013561588981615efd565b809150509250929050565b600080604083850312156158a6578182fd5b50508035926020909101359150565b600080604083850312156158c7578182fd5b505080516020909101519092909150565b6000806000606084860312156158ec578283fd5b505081359360208301359350604090920135919050565b600060208284031215615914578081fd5b8135613aa381615f12565b600060208284031215615930578081fd5b8151613aa381615f12565b6000806000806000806000806000806000806101808d8f03121561595d57898afd5b8c516001600160601b0381168114615973578a8bfd5b9b5061598160208e01615697565b9a5061598f60408e01615697565b995061599d60608e01615697565b98506159ab60808e016156cb565b97506159b960a08e016156a2565b96506159c760c08e016156a2565b95506159d560e08e016156b4565b94506101008d015193506101208d015192506159f46101408e016156b4565b9150615a036101608e016156b4565b90509295989b509295989b509295989b565b6001600160a01b0391909116815260200190565b6001600160a01b039384168152919092166020820152604081019190915260600190565b6001600160a01b03929092168252602082015260400190565b6001600160a01b0393841681526020810192909252909116604082015260600190565b6001600160a01b039390931683526020830191909152604082015260600190565b6001600160a01b0394909416845260208401929092526040830152606082015260800190565b6001600160a01b03979097168752602087019590955260408601939093526060850191909152608084015260a083015260c082015260e00190565b6001600160a01b0392831681529116602082015260400190565b6001600160a01b0392909216825263ffffffff16602082015260400190565b6001600160a01b0394909416845263ffffffff9290921660208401526001600160601b031660408301526001600160801b0316606082015260800190565b901515815260200190565b7fffffffff0000000000000000000000000000000000000000000000000000000091909116815260200190565b600f9190910b815260200190565b60208082526003908201526210cc4d60ea1b604082015260600190565b60208082526003908201526204332360ec1b604082015260600190565b60208082526003908201526221991b60e91b604082015260600190565b602080825260029082015261219960f11b604082015260600190565b60208082526003908201526221989b60e91b604082015260600190565b60208082526003908201526243313360e81b604082015260600190565b60208082526003908201526243323360e81b604082015260600190565b60208082526003908201526243323560e81b604082015260600190565b60208082526003908201526208662760eb1b604082015260600190565b60208082526003908201526243323160e81b604082015260600190565b602080825260029082015261433160f01b604082015260600190565b602080825260029082015261043360f41b604082015260600190565b60208082526003908201526243313560e81b604082015260600190565b60208082526003908201526221989960e91b604082015260600190565b60208082526003908201526210cc8d60ea1b604082015260600190565b60208082526003908201526221991960e91b604082015260600190565b60208082526003908201526243313960e81b604082015260600190565b60208082526003908201526243313760e81b604082015260600190565b602080825260029082015261433360f01b604082015260600190565b815181526020808301516001600160a01b0316908201526040808301516001600160801b0390811691830191909152606092830151169181019190915260800190565b600060a082019050825182526001600160801b03602084015116602083015260408301516040830152606083015160608301526080830151608083015292915050565b6001600160801b0391909116815260200190565b6001600160801b039485168152602081019390935292166040820152606081019190915260800190565b62ffffff91909116815260200190565b90815260200190565b918252602082015260400190565b63ffffffff91909116815260200190565b63ffffffff929092168252602082015260400190565b6001600160a01b0381168114610d3857600080fd5b63ffffffff81168114610d3857600080fdfe5265656e7472616e637947756172643a207265656e7472616e742063616c6c004f776e61626c653a206e6577206f776e657220697320746865207a65726f2061646472657373416464726573733a20756e61626c6520746f2073656e642076616c75652c20726563697069656e74206d61792068617665207265766572746564536166654d6174683a206d756c7469706c69636174696f6e206f766572666c6f77a264697066735822122067d14fd1333db15cb72cd2b7553b52b4edf574b5ecc5983c9fbf5527769a740664736f6c63430007060033",
  "deployedBytecode": "0x6080604052600436106103435760003560e01c80638456cb59116101b0578063b707ab99116100ec578063e74b981b11610095578063f2fde38b1161006f578063f2fde38b146108d0578063f90c3f27146108f0578063fbfc6bc014610905578063ff947525146109255761039b565b8063e74b981b14610888578063ed88c68e146108a8578063ee3189ff146108b05761039b565b8063d296d1f1116100c6578063d296d1f11461083e578063d52725841461085e578063de4a427a146108735761039b565b8063b707ab99146107e9578063c65a391d146107fe578063c9e77ee81461081e5761039b565b806391b8d34a116101595780639d4c9442116101335780639d4c944214610781578063a847e67414610796578063ac6cd5ef146107b6578063b6b55f25146107d65761039b565b806391b8d34a1461072c578063978bbdb91461074c57806397efa942146107615761039b565b80638cd21d7c1161018a5780638cd21d7c146106e25780638da5cb5b1461070257806391b4ded9146107175761039b565b80638456cb591461067d5780638632cb03146106925780638c64ea4a146106b25761039b565b806345596e2e1161027f57806372f5d98a116102285780637dc0d1d0116102025780637dc0d1d0146106295780637f07b1301461063e5780638146b09f1461065357806382564bca146106685761039b565b806372f5d98a146105c35780637691c4ac146105e55780637ca25184146106075761039b565b806363b38ae41161025957806363b38ae414610579578063713d517f1461058e578063715018a6146105ae5761039b565b806345596e2e1461052257806346904840146105425780634be2822c146105575761039b565b806324f5f531116102ec5780633fc8cef3116102c65780633fc8cef3146104ab5780634394318d146104cd578063441a3e70146104ed5780634468c0221461050d5761039b565b806324f5f53114610463578063377a19361461047857806339467918146104985761039b565b806315aded831161031d57806315aded83146104005780631bf7bf6c1461042d578063200f4b8d1461044e5761039b565b806307633669146103a057806310b9e583146103b5578063150b7a02146103ca5761039b565b3661039b57336001600160a01b037f000000000000000000000000000000000000000000000000000000000000000016146103995760405162461bcd60e51b815260040161039090615d95565b60405180910390fd5b005b600080fd5b3480156103ac57600080fd5b5061039961093a565b3480156103c157600080fd5b50610399610a3d565b3480156103d657600080fd5b506103ea6103e5366004615716565b610bb0565b6040516103f79190615b8d565b60405180910390f35b34801561040c57600080fd5b5061042061041b366004615903565b610bda565b6040516103f79190615ebf565b61044061043b3660046158d8565b610c71565b6040516103f7929190615ec8565b34801561045a57600080fd5b50610399610d08565b34801561046f57600080fd5b50610420610d3b565b34801561048457600080fd5b50610420610493366004615903565b610d4b565b6104206104a63660046158d8565b610e3b565b3480156104b757600080fd5b506104c0610ed3565b6040516103f79190615a15565b3480156104d957600080fd5b506104206104e83660046158d8565b610ef7565b3480156104f957600080fd5b50610399610508366004615894565b610f91565b34801561051957600080fd5b506104c06110b5565b34801561052e57600080fd5b5061039961053d366004615835565b6110d9565b34801561054e57600080fd5b506104c06111d6565b34801561056357600080fd5b5061056c6111e5565b6040516103f79190615e71565b34801561058557600080fd5b506104206111fb565b34801561059a57600080fd5b506103996105a9366004615835565b611201565b3480156105ba57600080fd5b5061039961131a565b3480156105cf57600080fd5b506105d86113d8565b6040516103f79190615eaf565b3480156105f157600080fd5b506105fa6113fc565b6040516103f79190615b82565b34801561061357600080fd5b5061061c61140a565b6040516103f79190615ed6565b34801561063557600080fd5b506104c0611410565b34801561064a57600080fd5b506104c0611434565b34801561065f57600080fd5b50610399611458565b34801561067457600080fd5b506104c06114c8565b34801561068957600080fd5b506103996114ec565b34801561069e57600080fd5b506103996106ad3660046158d8565b611675565b3480156106be57600080fd5b506106d26106cd366004615835565b611700565b6040516103f79493929190615b44565b3480156106ee57600080fd5b506104206106fd366004615903565b61174d565b34801561070e57600080fd5b506104c06117dc565b34801561072357600080fd5b506104206117eb565b34801561073857600080fd5b50610399610747366004615894565b6117f1565b34801561075857600080fd5b506104206118ea565b34801561076d57600080fd5b5061039961077c366004615835565b6118f0565b34801561078d57600080fd5b506104c0611a90565b3480156107a257600080fd5b506105fa6107b1366004615835565b611ab4565b3480156107c257600080fd5b506103996107d1366004615835565b611b2e565b6103996107e4366004615835565b611c88565b3480156107f557600080fd5b506104c0611d92565b34801561080a57600080fd5b50610399610819366004615865565b611db6565b34801561082a57600080fd5b50610399610839366004615835565b611f14565b34801561084a57600080fd5b50610420610859366004615894565b6120a6565b34801561086a57600080fd5b5061056c612311565b34801561087f57600080fd5b50610420612320565b34801561089457600080fd5b506103996108a33660046156de565b612326565b610399612429565b3480156108bc57600080fd5b506104206108cb366004615903565b61244d565b3480156108dc57600080fd5b506103996108eb3660046156de565b612526565b3480156108fc57600080fd5b5061042061263a565b34801561091157600080fd5b50610399610920366004615835565b612641565b34801561093157600080fd5b506105fa61275f565b6109426127c6565b6001600160a01b03166109536117dc565b6001600160a01b0316146109ae576040805162461bcd60e51b815260206004820181905260248201527f4f776e61626c653a2063616c6c6572206973206e6f7420746865206f776e6572604482015290519081900360640190fd5b600854610100900460ff166109d55760405162461bcd60e51b815260040161039090615ce9565b60085460ff16156109f85760405162461bcd60e51b815260040161039090615c1f565b6008805461ff00191690556040517fff2b959f2bcdb44c7ecb4b16dae055431019d7350607125cfc2b74a06632c90e90610a33903390615a15565b60405180910390a1565b610a456127c6565b6001600160a01b0316610a566117dc565b6001600160a01b031614610ab1576040805162461bcd60e51b815260206004820181905260248201527f4f776e61626c653a2063616c6c6572206973206e6f7420746865206f776e6572604482015290519081900360640190fd5b60085460ff1615610ad45760405162461bcd60e51b815260040161039090615c1f565b6008805460ff1961ff001990911661010017166001179055610b7d7f00000000000000000000000000000000000000000000000000000000000000007f00000000000000000000000000000000000000000000000000000000000000007f00000000000000000000000000000000000000000000000000000000000000007f00000000000000000000000000000000000000000000000000000000000000006101a460006127ca565b60048190556040517f574214b195bf5273a95bb4498e35cf1fde0ce327c727a95ec2ab359f7ba4e11a91610a3391615ebf565b7f150b7a02000000000000000000000000000000000000000000000000000000005b949350505050565b6000610c69827f00000000000000000000000000000000000000000000000000000000000000007f00000000000000000000000000000000000000000000000000000000000000007f00000000000000000000000000000000000000000000000000000000000000007f00000000000000000000000000000000000000000000000000000000000000006127f7565b90505b919050565b6008546000908190610100900460ff1615610c9e5760405162461bcd60e51b815260040161039090615d05565b60026001541415610ce4576040805162461bcd60e51b815260206004820152601f6024820152600080516020615f25833981519152604482015290519081900360640190fd5b6002600155610cf833868634876000612832565b6001805590969095509350505050565b600854610100900460ff1615610d305760405162461bcd60e51b815260040161039090615d05565b610d38612983565b50565b6000610d45612a71565b90505b90565b6000610c69827f00000000000000000000000000000000000000000000000000000000000000007f00000000000000000000000000000000000000000000000000000000000000007f00000000000000000000000000000000000000000000000000000000000000007f00000000000000000000000000000000000000000000000000000000000000007f00000000000000000000000000000000000000000000000000000000000000007f0000000000000000000000000000000000000000000000000000000000000000600760009054906101000a90046001600160801b03166001600160801b0316612f34565b600854600090610100900460ff1615610e665760405162461bcd60e51b815260040161039090615d05565b60026001541415610eac576040805162461bcd60e51b815260206004820152601f6024820152600080516020615f25833981519152604482015290519081900360640190fd5b60026001819055506000610ec533868634876001612832565b506001805595945050505050565b7f000000000000000000000000000000000000000000000000000000000000000081565b600854600090610100900460ff1615610f225760405162461bcd60e51b815260040161039090615d05565b60026001541415610f68576040805162461bcd60e51b815260206004820152601f6024820152600080516020615f25833981519152604482015290519081900360640190fd5b6002600155610f778433612f78565b610f8533858585600061306c565b60018055949350505050565b600854610100900460ff1615610fb95760405162461bcd60e51b815260040161039090615d05565b60026001541415610fff576040805162461bcd60e51b815260206004820152601f6024820152600080516020615f25833981519152604482015290519081900360640190fd5b600260015561100e8233612f78565b6000611018612983565b600084815260096020908152604091829020825160808101845281546001600160a01b0381168252600160a01b900463ffffffff1692810192909252600101546001600160601b03811692820192909252600160601b9091046001600160801b0316606082015290915061108d81858561315a565b61109781836131a4565b6110a184826131f6565b6110ab33846132c9565b5050600180555050565b7f000000000000000000000000000000000000000000000000000000000000000081565b6110e16127c6565b6001600160a01b03166110f26117dc565b6001600160a01b03161461114d576040805162461bcd60e51b815260206004820181905260248201527f4f776e61626c653a2063616c6c6572206973206e6f7420746865206f776e6572604482015290519081900360640190fd5b6002546001600160a01b03166111755760405162461bcd60e51b815260040161039090615bc8565b60648111156111965760405162461bcd60e51b815260040161039090615d21565b7f14914da2bf76024616fbe1859783fcd4dbddcb179b1f3a854949fbf920dcb957600354826040516111c9929190615ec8565b60405180910390a1600355565b6002546001600160a01b031681565b600754600160801b90046001600160801b031681565b60055481565b600854610100900460ff16156112295760405162461bcd60e51b815260040161039090615d05565b6002600154141561126f576040805162461bcd60e51b815260206004820152601f6024820152600080516020615f25833981519152604482015290519081900360640190fd5b600260015561127e8133612f78565b6000611288612983565b600083815260096020908152604091829020825160808101845281546001600160a01b0381168252600160a01b900463ffffffff1692810192909252600101546001600160601b03811692820192909252600160601b9091046001600160801b031660608201529091506112fd8133856133b3565b61130781836131a4565b61131183826131f6565b50506001805550565b6113226127c6565b6001600160a01b03166113336117dc565b6001600160a01b03161461138e576040805162461bcd60e51b815260206004820181905260248201527f4f776e61626c653a2063616c6c6572206973206e6f7420746865206f776e6572604482015290519081900360640190fd5b600080546040516001600160a01b03909116907f8be0079c531659141344cd1fd0a4f28419497f9722a3daafe3b4186f6b6457e0908390a3600080546001600160a01b0319169055565b7f000000000000000000000000000000000000000000000000000000000000000081565b600854610100900460ff1681565b6101a481565b7f000000000000000000000000000000000000000000000000000000000000000081565b7f000000000000000000000000000000000000000000000000000000000000000081565b600854610100900460ff1661147f5760405162461bcd60e51b815260040161039090615ce9565b60085460ff16156114a25760405162461bcd60e51b815260040161039090615c1f565b600654620151800142116109f85760405162461bcd60e51b815260040161039090615caf565b7f000000000000000000000000000000000000000000000000000000000000000081565b6114f46127c6565b6001600160a01b03166115056117dc565b6001600160a01b031614611560576040805162461bcd60e51b815260206004820181905260248201527f4f776e61626c653a2063616c6c6572206973206e6f7420746865206f776e6572604482015290519081900360640190fd5b60085460ff16156115835760405162461bcd60e51b815260040161039090615c1f565b600854610100900460ff16156115ab5760405162461bcd60e51b815260040161039090615d05565b6000600554116115cd5760405162461bcd60e51b815260040161039090615c3b565b60006115f9427f000000000000000000000000000000000000000000000000000000000000000061348a565b905062eff100811061161d5760405162461bcd60e51b815260040161039090615db2565b6008805461ff001916610100179055600580546000190190819055426006556040517f32fb7c9891bc4f963c7de9f1186d2a7755c7d6e9f4604dabe1d8bb3027c2f49e9161166a91615ebf565b60405180910390a150565b600854610100900460ff161561169d5760405162461bcd60e51b815260040161039090615d05565b600260015414156116e3576040805162461bcd60e51b815260206004820152601f6024820152600080516020615f25833981519152604482015290519081900360640190fd5b60026001556116f28333612f78565b6110ab33848484600161306c565b600960205260009081526040902080546001909101546001600160a01b03821691600160a01b900463ffffffff16906001600160601b03811690600160601b90046001600160801b031684565b6000610c69827f00000000000000000000000000000000000000000000000000000000000000007f00000000000000000000000000000000000000000000000000000000000000007f00000000000000000000000000000000000000000000000000000000000000007f00000000000000000000000000000000000000000000000000000000000000006134ec565b6000546001600160a01b031690565b60065481565b600854610100900460ff16156118195760405162461bcd60e51b815260040161039090615d05565b6002600154141561185f576040805162461bcd60e51b815260206004820152601f6024820152600080516020615f25833981519152604482015290519081900360640190fd5b600260015561186e8233612f78565b611876612983565b50600082815260096020908152604091829020825160808101845281546001600160a01b0381168252600160a01b900463ffffffff1692810192909252600101546001600160601b03811692820192909252600160601b9091046001600160801b03166060820152611307813385856134fe565b60035481565b60085460ff166119125760405162461bcd60e51b815260040161039090615dcf565b60026001541415611958576040805162461bcd60e51b815260206004820152601f6024820152600080516020615f25833981519152604482015290519081900360640190fd5b60026001556119678133612f78565b6000818152600960209081526040808320815160808101835281546001600160a01b0381168252600160a01b900463ffffffff1693810193909352600101546001600160601b03811691830191909152600160601b90046001600160801b03908116606083015260075491929116906119e5908390339086906137fa565b506000611a0283606001516001600160801b031660045484613a77565b90506000611a268285604001516001600160601b031661348a90919063ffffffff16565b60006060860181905260408601529050611a4085856131f6565b611a4a33826132c9565b7f7dff8cdaec6a8d4d1ad32d3c947ed0f0281c3d6456621ef928defae96ec6cddb338683604051611a7d93929190615a89565b60405180910390a1505060018055505050565b7f000000000000000000000000000000000000000000000000000000000000000081565b6000818152600960209081526040808320815160808101835281546001600160a01b0381168252600160a01b900463ffffffff1693810193909352600101546001600160601b03811691830191909152600160601b90046001600160801b0316606082015281611b22612a71565b9050610bd28282613aaa565b60085460ff16611b505760405162461bcd60e51b815260040161039090615dcf565b60026001541415611b96576040805162461bcd60e51b815260206004820152601f6024820152600080516020615f25833981519152604482015290519081900360640190fd5b6002600155604051632770a7eb60e21b81526001600160a01b037f00000000000000000000000000000000000000000000000000000000000000001690639dc29fac90611be99033908590600401615a4d565b600060405180830381600087803b158015611c0357600080fd5b505af1158015611c17573d6000803e3d6000fd5b505060045460075460009350611c3992508491906001600160801b0316613a77565b9050611c4533826132c9565b7f2131ef4f2f82ca75fe7d2e646ebfa45b6be25e53510c829629c76b641500ec67338383604051611c7893929190615a89565b60405180910390a1505060018055565b600854610100900460ff1615611cb05760405162461bcd60e51b815260040161039090615d05565b60026001541415611cf6576040805162461bcd60e51b815260206004820152601f6024820152600080516020615f25833981519152604482015290519081900360640190fd5b6002600155611d058133612f78565b611d0d612983565b50600081815260096020908152604091829020825160808101845281546001600160a01b0381168252600160a01b900463ffffffff1692810192909252600101546001600160601b03811692820192909252600160601b9091046001600160801b03166060820152611d80818334613ac0565b611d8a82826131f6565b505060018055565b7f000000000000000000000000000000000000000000000000000000000000000081565b7f00000000000000000000000000000000000000000000000000000000000000006001600160a01b0316331480611e9157506040516331a9108f60e11b815233907f00000000000000000000000000000000000000000000000000000000000000006001600160a01b031690636352211e90611e36908690600401615ebf565b60206040518083038186803b158015611e4e57600080fd5b505afa158015611e62573d6000803e3d6000fd5b505050506040513d601f19601f82011682018060405250810190611e8691906156fa565b6001600160a01b0316145b611ead5760405162461bcd60e51b815260040161039090615be5565b6000828152600960205260409081902080546001600160a01b0319166001600160a01b038416179055517f3137fc9cd2e33c34f86e29c24d81f3c75b0bce639d3c4ed0d31eeff1160a7ff590611f0890339085908590615a66565b60405180910390a15050565b600854610100900460ff1615611f3c5760405162461bcd60e51b815260040161039090615d05565b60026001541415611f82576040805162461bcd60e51b815260206004820152601f6024820152600080516020615f25833981519152604482015290519081900360640190fd5b6002600155611f918133612f78565b600081815260096020908152604091829020825160808101845281546001600160a01b038082168352600160a01b90910463ffffffff16938201939093526001909101546001600160601b03811682850152600160601b90046001600160801b0316606082015291516331a9108f60e11b815261209b9183917f000000000000000000000000000000000000000000000000000000000000000090911690636352211e90612043908790600401615ebf565b60206040518083038186803b15801561205b57600080fd5b505afa15801561206f573d6000803e3d6000fd5b505050506040513d601f19601f8201168201806040525081019061209391906156fa565b8460006137fa565b50611d8a82826131f6565b600854600090610100900460ff16156120d15760405162461bcd60e51b815260040161039090615d05565b60026001541415612117576040805162461bcd60e51b815260206004820152601f6024820152600080516020615f25833981519152604482015290519081900360640190fd5b60026001556000612126612983565b600085815260096020908152604091829020825160808101845281546001600160a01b0381168252600160a01b900463ffffffff1692810192909252600101546001600160601b03811692820192909252600160601b9091046001600160801b0316606082015290915061219a8183613aaa565b156121b75760405162461bcd60e51b815260040161039090615d3e565b6000612261827f00000000000000000000000000000000000000000000000000000000000000006001600160a01b0316636352211e896040518263ffffffff1660e01b81526004016122099190615ebf565b60206040518083038186803b15801561222157600080fd5b505afa158015612235573d6000803e3d6000fd5b505050506040513d601f19601f8201168201806040525081019061225991906156fa565b8860016137fa565b905061226d8284613aaa565b156122925761227c86836131f6565b61228633826132c9565b60009350505050612307565b61229c8282613afd565b6000806122ab84888733613b33565b915091507f158ba9ab7bbbd08eeffa4753bad41f4d450e24831d293427308badf3eadd8c76338984846040516122e49493929190615aaa565b60405180910390a16122f688856131f6565b61230033826132c9565b5093505050505b6001805592915050565b6007546001600160801b031681565b60045481565b61232e6127c6565b6001600160a01b031661233f6117dc565b6001600160a01b03161461239a576040805162461bcd60e51b815260206004820181905260248201527f4f776e61626c653a2063616c6c6572206973206e6f7420746865206f776e6572604482015290519081900360640190fd5b6001600160a01b0381166123c05760405162461bcd60e51b815260040161039090615c58565b6002546040517faaebcf1bfa00580e41d966056b48521fa9f202645c86d4ddf28113e617c1b1d3916123ff916001600160a01b03909116908490615b0b565b60405180910390a1600280546001600160a01b0319166001600160a01b0392909216919091179055565b60085460ff1661244b5760405162461bcd60e51b815260040161039090615dcf565b565b6000610c69827f00000000000000000000000000000000000000000000000000000000000000007f00000000000000000000000000000000000000000000000000000000000000007f00000000000000000000000000000000000000000000000000000000000000007f00000000000000000000000000000000000000000000000000000000000000007f00000000000000000000000000000000000000000000000000000000000000007f0000000000000000000000000000000000000000000000000000000000000000612521612a71565b612f34565b61252e6127c6565b6001600160a01b031661253f6117dc565b6001600160a01b03161461259a576040805162461bcd60e51b815260206004820181905260248201527f4f776e61626c653a2063616c6c6572206973206e6f7420746865206f776e6572604482015290519081900360640190fd5b6001600160a01b0381166125df5760405162461bcd60e51b8152600401808060200182810382526026815260200180615f456026913960400191505060405180910390fd5b600080546040516001600160a01b03808516939216917f8be0079c531659141344cd1fd0a4f28419497f9722a3daafe3b4186f6b6457e091a3600080546001600160a01b0319166001600160a01b0392909216919091179055565b6217124081565b60085460ff166126635760405162461bcd60e51b815260040161039090615dcf565b600260015414156126a9576040805162461bcd60e51b815260206004820152601f6024820152600080516020615f25833981519152604482015290519081900360640190fd5b60026001908155600082815260096020908152604091829020825160808101845281546001600160a01b038082168352600160a01b90910463ffffffff16938201939093529301546001600160601b03811684840152600160601b90046001600160801b0316606084015290516331a9108f60e11b815261209b9183917f000000000000000000000000000000000000000000000000000000000000000090911690636352211e90612043908790600401615ebf565b60085460ff1681565b806001600160801b0381168114610c6c576040805162461bcd60e51b815260206004820152600560248201527f4f46313238000000000000000000000000000000000000000000000000000000604482015290519081900360640190fd5b3390565b6000806127db888888888888613c5a565b90506127e981612710613d19565b9150505b9695505050505050565b600080612809868686868b6000613c5a565b9050612827670de0b6b3a76400006128218380613d80565b90613d19565b979650505050505050565b600080600061283f612983565b9050856000856128645761285f836128218b670de0b6b3a7640000613d80565b612866565b885b90506000612872615670565b8b61288a576128808d613dd9565b909c5090506128fd565b6128948c33612f78565b5060008b815260096020908152604091829020825160808101845281546001600160a01b0381168252600160a01b900463ffffffff1692810192909252600101546001600160601b03811692820192909252600160601b9091046001600160801b031660608201525b821561291e5761290e81848c613f05565b9450915061291e818e8e86613ffc565b891561292f5761292f818d86613ac0565b881561294157612941818e8e8c6134fe565b61294b81866131a4565b6129558c826131f6565b811561297157600254612971906001600160a01b0316836132c9565b50999b909a5098505050505050505050565b6007546000906001600160801b03600160801b909104164214156129b357506007546001600160801b0316610d48565b60006129bd612a71565b6007546040519192507f339e53729b0447795ff69e70a74fed98fc7fef6fe94b7521099b32f0f8de482291612a0c916001600160801b03808216928692600160801b9004909116904290615e85565b60405180910390a1612a1d81612768565b600780546fffffffffffffffffffffffffffffffff19166001600160801b0392909216919091179055612a4f42612768565b600780546001600160801b03928316600160801b029216919091179055905090565b6007546000908190612a9d90612a98904290600160801b90046001600160801b031661348a565b6140d2565b905063ffffffff8116612abd5750506007546001600160801b0316610d48565b6000612ac88261412f565b6007549091506001600160801b03166000612ba9837f00000000000000000000000000000000000000000000000000000000000000007f00000000000000000000000000000000000000000000000000000000000000007f00000000000000000000000000000000000000000000000000000000000000007f00000000000000000000000000000000000000000000000000000000000000007f00000000000000000000000000000000000000000000000000000000000000007f000000000000000000000000000000000000000000000000000000000000000089612f34565b90506000612c3a847f00000000000000000000000000000000000000000000000000000000000000007f00000000000000000000000000000000000000000000000000000000000000007f00000000000000000000000000000000000000000000000000000000000000007f00000000000000000000000000000000000000000000000000000000000000006134ec565b9050600073__$f98cbc68e241c61b30349ba6b91a975736$__63fc505d3787621712406040518363ffffffff1660e01b8152600401612c7a929190615ee7565b60206040518083038186803b158015612c9257600080fd5b505af4158015612ca6573d6000803e3d6000fd5b505050506040513d601f19601f82011682018060405250810190612cca91906157fa565b90506000612cec670de0b6b3a764000061282185670b1a2bc2ec500000613d80565b905080841015612cfe57809350612d2e565b6000612d1e670de0b6b3a76400006128218667136dcc951d8c0000613d80565b905080851115612d2c578094505b505b6040517ffc505d3700000000000000000000000000000000000000000000000000000000815260009073__$f98cbc68e241c61b30349ba6b91a975736$__9063fc505d3790612d839087908990600401615ec8565b60206040518083038186803b158015612d9b57600080fd5b505af4158015612daf573d6000803e3d6000fd5b505050506040513d601f19601f82011682018060405250810190612dd391906157fa565b90506000612e6b8473__$f98cbc68e241c61b30349ba6b91a975736$__632cbbdee5856040518263ffffffff1660e01b8152600401612e129190615bba565b60206040518083038186803b158015612e2a57600080fd5b505af4158015612e3e573d6000803e3d6000fd5b505050506040513d601f19601f82011682018060405250810190612e6291906157fa565b600f0b906142f3565b6040517ffc193cf200000000000000000000000000000000000000000000000000000000815290915060009073__$f98cbc68e241c61b30349ba6b91a975736$__9063fc193cf290612ec590600f86900b90600401615bba565b60206040518083038186803b158015612edd57600080fd5b505af4158015612ef1573d6000803e3d6000fd5b505050506040513d601f19601f82011682018060405250810190612f1591906157fa565b9050612f25600f82900b89614384565b9a505050505050505050505090565b600080612f46898888888e60006127ca565b90506000612f598a8a878a8f6000613c5a565b9050612f69846128218385613d80565b9b9a5050505050505050505050565b806001600160a01b03167f00000000000000000000000000000000000000000000000000000000000000006001600160a01b0316636352211e846040518263ffffffff1660e01b8152600401612fce9190615ebf565b60206040518083038186803b158015612fe657600080fd5b505afa158015612ffa573d6000803e3d6000fd5b505050506040513d601f19601f8201168201806040525081019061301e91906156fa565b6001600160a01b0316148061304c57506000828152600960205260409020546001600160a01b038281169116145b6130685760405162461bcd60e51b815260040161039090615be5565b5050565b600080613077612983565b905060008361309b576130968261282188670de0b6b3a7640000613d80565b61309d565b855b600088815260096020908152604091829020825160808101845281546001600160a01b0381168252600160a01b900463ffffffff1692810192909252600101546001600160601b03811692820192909252600160601b9091046001600160801b03166060820152909150811561311957613119818a8a856144d5565b851561312a5761312a81898861315a565b61313481846131a4565b61313e88826131f6565b851561314e5761314e33876132c9565b50979650505050505050565b6131648382614592565b7f627a692d5a03ab34732c0d2aa319f3ecdebdc4528f383eabcb25441dc0a70cfb33838360405161319793929190615a89565b60405180910390a1505050565b6000806131b184846145ae565b91509150816131d25760405162461bcd60e51b815260040161039090615d5b565b80156131f05760405162461bcd60e51b815260040161039090615d78565b50505050565b600091825260096020908152604092839020825181549284015163ffffffff16600160a01b027fffffffffffffffff00000000ffffffffffffffffffffffffffffffffffffffff6001600160a01b039092166001600160a01b0319909416939093171691909117815591810151600190920180546060909201516001600160801b0316600160601b027fffffffff00000000000000000000000000000000ffffffffffffffffffffffff6001600160601b039094166bffffffffffffffffffffffff199093169290921792909216179055565b8047101561331e576040805162461bcd60e51b815260206004820152601d60248201527f416464726573733a20696e73756666696369656e742062616c616e6365000000604482015290519081900360640190fd5b6040516000906001600160a01b0384169083908381818185875af1925050503d8060008114613369576040519150601f19603f3d011682016040523d82523d6000602084013e61336e565b606091505b50509050806133ae5760405162461bcd60e51b815260040180806020018281038252603a815260200180615f6b603a913960400191505060405180910390fd5b505050565b602083015163ffffffff166133c784614768565b604051632142170760e11b81526001600160a01b037f000000000000000000000000000000000000000000000000000000000000000016906342842e0e9061341790309087908690600401615a29565b600060405180830381600087803b15801561343157600080fd5b505af1158015613445573d6000803e3d6000fd5b505050507fe59f38fa1264fc25c9f0185eee136eaf810d90b8e7293b342e4037c68720177a33838360405161347c93929190615a89565b60405180910390a150505050565b6000828211156134e1576040805162461bcd60e51b815260206004820152601e60248201527f536166654d6174683a207375627472616374696f6e206f766572666c6f770000604482015290519081900360640190fd5b508082035b92915050565b600080612809868686868b60006127ca565b6000806000807f00000000000000000000000000000000000000000000000000000000000000006001600160a01b03166399fbab88866040518263ffffffff1660e01b81526004016135509190615ebf565b6101806040518083038186803b15801561356957600080fd5b505afa15801561357d573d6000803e3d6000fd5b505050506040513d601f19601f820116820180604052508101906135a1919061593b565b505050509750505095509550955050506000816001600160801b0316116135da5760405162461bcd60e51b815260040161039090615c92565b7f000000000000000000000000000000000000000000000000000000000000000062ffffff168262ffffff16146136235760405162461bcd60e51b815260040161039090615c02565b7f00000000000000000000000000000000000000000000000000000000000000006001600160a01b0316846001600160a01b031614801561369557507f00000000000000000000000000000000000000000000000000000000000000006001600160a01b0316836001600160a01b0316145b8061370d57507f00000000000000000000000000000000000000000000000000000000000000006001600160a01b0316836001600160a01b031614801561370d57507f00000000000000000000000000000000000000000000000000000000000000006001600160a01b0316846001600160a01b0316145b6137295760405162461bcd60e51b815260040161039090615c75565b61373388866147b3565b604051632142170760e11b81526001600160a01b037f000000000000000000000000000000000000000000000000000000000000000016906342842e0e90613783908a9030908a90600401615a29565b600060405180830381600087803b15801561379d57600080fd5b505af11580156137b1573d6000803e3d6000fd5b505050507f3917c2f26ce18614e3aedd1289da672ef6563c5c295f49e9b1697ae0ad3155623387876040516137e893929190615a89565b60405180910390a15050505050505050565b602084015160009063ffffffff1680613817576000915050610bd2565b60008061382383614848565b909250905081156138c6576040517f2e1a7d4d0000000000000000000000000000000000000000000000000000000081526001600160a01b037f00000000000000000000000000000000000000000000000000000000000000001690632e1a7d4d90613893908590600401615ebf565b600060405180830381600087803b1580156138ad57600080fd5b505af11580156138c1573d6000803e3d6000fd5b505050505b60008060006138d78b86868b614a47565b91945092509050811561399f576040517fa9059cbb0000000000000000000000000000000000000000000000000000000081526001600160a01b037f0000000000000000000000000000000000000000000000000000000000000000169063a9059cbb9061394b908d908690600401615a4d565b602060405180830381600087803b15801561396557600080fd5b505af1158015613979573d6000803e3d6000fd5b505050506040513d601f19601f8201168201806040525081019061399d91906157da565b505b8215613a2657604051632770a7eb60e21b81526001600160a01b037f00000000000000000000000000000000000000000000000000000000000000001690639dc29fac906139f39030908790600401615a4d565b600060405180830381600087803b158015613a0d57600080fd5b505af1158015613a21573d6000803e3d6000fd5b505050505b7ffd0ae2fd36bd955810ae42615bc5ff277c0d0dfcb930f06c9f1777c0ef0752e3338a8787878787604051613a619796959493929190615ad0565b60405180910390a19a9950505050505050505050565b6000613aa06ec097ce7bc90715b34b9f100000000061282185613a9a8887613d80565b90613d80565b90505b9392505050565b600080613ab784846145ae565b50949350505050565b613aca8382613afd565b7f3ca13b7aab12bad7472691fe558faa6b25e99099824a0070a88bd5aa84be610f33838360405161319793929190615a89565b6040820151613b1e90613b19906001600160601b031683614add565b614b37565b6001600160601b031660409092019190915250565b600080600080613b5e8789606001516001600160801b03168a604001516001600160601b0316614b97565b9150915081871015613b825760405162461bcd60e51b815260040161039090615ccc565b604051632770a7eb60e21b81526001600160a01b037f00000000000000000000000000000000000000000000000000000000000000001690639dc29fac90613bd09088908690600401615a4d565b600060405180830381600087803b158015613bea57600080fd5b505af1158015613bfe573d6000803e3d6000fd5b50505050613c158289614bff90919063ffffffff16565b613c1f8882614592565b6000613c2b89886145ae565b9150508015613c4c5760405162461bcd60e51b815260040161039090615d78565b509097909650945050505050565b604080517fcce79bd50000000000000000000000000000000000000000000000000000000081526001600160a01b0387811660048301528681166024830152858116604483015263ffffffff851660648301528315156084830152915160009289169163cce79bd59160a4808301926020929190829003018186803b158015613ce257600080fd5b505afa158015613cf6573d6000803e3d6000fd5b505050506040513d6020811015613d0c57600080fd5b5051979650505050505050565b6000808211613d6f576040805162461bcd60e51b815260206004820152601a60248201527f536166654d6174683a206469766973696f6e206279207a65726f000000000000604482015290519081900360640190fd5b818381613d7857fe5b049392505050565b600082613d8f575060006134e6565b82820282848281613d9c57fe5b0414613aa35760405162461bcd60e51b8152600401808060200182810382526021815260200180615fa56021913960400191505060405180910390fd5b6000613de3615670565b6040517f54ba0f270000000000000000000000000000000000000000000000000000000081526000906001600160a01b037f000000000000000000000000000000000000000000000000000000000000000016906354ba0f2790613e4b908790600401615a15565b602060405180830381600087803b158015613e6557600080fd5b505af1158015613e79573d6000803e3d6000fd5b505050506040513d601f19601f82011682018060405250810190613e9d919061584d565b6040805160808101825260008082526020820181905281830181905260608201529051919250907f25ff1e0131762176a9084e92880f880f39d6d0e62134607f37e631efe1bad87190613ef39033908590615a4d565b60405180910390a19092509050915091565b600354600090819080613f1f576000849250925050613ff4565b600080613faf877f00000000000000000000000000000000000000000000000000000000000000007f00000000000000000000000000000000000000000000000000000000000000007f00000000000000000000000000000000000000000000000000000000000000007f0000000000000000000000000000000000000000000000000000000000000000614c35565b90506000613fc36127106128218487613d80565b905080871115613fde57613fd7878261348a565b9250613fec565b613fe88982614592565b8692505b945090925050505b935093915050565b6140068482614c61565b6040517f40c10f190000000000000000000000000000000000000000000000000000000081526001600160a01b037f000000000000000000000000000000000000000000000000000000000000000016906340c10f199061406d9086908590600401615a4d565b600060405180830381600087803b15801561408757600080fd5b505af115801561409b573d6000803e3d6000fd5b505050507fb19fa182730a088464dad0e9e0badeb470d0d8d937d854f5caf15c6ad1992c3633828460405161347c93929190615a89565b8063ffffffff81168114610c6c576040805162461bcd60e51b8152602060048083019190915260248201527f4f46333200000000000000000000000000000000000000000000000000000000604482015290519081900360640190fd5b6000807f00000000000000000000000000000000000000000000000000000000000000006001600160a01b031663de5a6e227f00000000000000000000000000000000000000000000000000000000000000006040518263ffffffff1660e01b815260040161419e9190615a15565b60206040518083038186803b1580156141b657600080fd5b505afa1580156141ca573d6000803e3d6000fd5b505050506040513d601f19601f820116820180604052508101906141ee919061591f565b905060007f00000000000000000000000000000000000000000000000000000000000000006001600160a01b031663de5a6e227f00000000000000000000000000000000000000000000000000000000000000006040518263ffffffff1660e01b815260040161425e9190615a15565b60206040518083038186803b15801561427657600080fd5b505afa15801561428a573d6000803e3d6000fd5b505050506040513d601f19601f820116820180604052508101906142ae919061591f565b905060008163ffffffff168363ffffffff16116142cb57826142cd565b815b90508063ffffffff168563ffffffff16116142e857846142ea565b805b95945050505050565b6000600f83810b9083900b0260401d6f7fffffffffffffffffffffffffffffff19811280159061433357506f7fffffffffffffffffffffffffffffff8113155b613aa3576040805162461bcd60e51b815260206004820152600860248201527f4d554c2d4f565546000000000000000000000000000000000000000000000000604482015290519081900360640190fd5b600081614393575060006134e6565b600083600f0b12156143ec576040805162461bcd60e51b815260206004820152600760248201527f4d554c552d583000000000000000000000000000000000000000000000000000604482015290519081900360640190fd5b600f83900b6001600160801b038316810260401c90608084901c0277ffffffffffffffffffffffffffffffffffffffffffffffff811115614474576040805162461bcd60e51b815260206004820152600860248201527f4d554c552d4f4631000000000000000000000000000000000000000000000000604482015290519081900360640190fd5b60401b81198111156144cd576040805162461bcd60e51b815260206004820152600860248201527f4d554c552d4f4632000000000000000000000000000000000000000000000000604482015290519081900360640190fd5b019392505050565b6144df8482614bff565b604051632770a7eb60e21b81526001600160a01b037f00000000000000000000000000000000000000000000000000000000000000001690639dc29fac9061452d9086908590600401615a4d565b600060405180830381600087803b15801561454757600080fd5b505af115801561455b573d6000803e3d6000fd5b505050507fea19ffc45b48de6d95594aacff7214dd24595fdb0c60e98c8f0b269058c2f79233828460405161347c93929190615a89565b6040820151613b1e90613b19906001600160601b03168361348a565b60008060006146447f00000000000000000000000000000000000000000000000000000000000000007f00000000000000000000000000000000000000000000000000000000000000007f00000000000000000000000000000000000000000000000000000000000000007f00000000000000000000000000000000000000000000000000000000000000006101a460016127ca565b905061475c857f00000000000000000000000000000000000000000000000000000000000000008684675fc1b971363200007f00000000000000000000000000000000000000000000000000000000000000006001600160a01b0316634a0a96eb7f00000000000000000000000000000000000000000000000000000000000000006101a46040518363ffffffff1660e01b81526004016146e6929190615b25565b60206040518083038186803b1580156146fe57600080fd5b505afa158015614712573d6000803e3d6000fd5b505050506040513d601f19601f82011682018060405250810190614736919061581b565b7f0000000000000000000000000000000000000000000000000000000000000000614c7d565b92509250509250929050565b602081015163ffffffff166147a9576040805162461bcd60e51b81526020600482015260026024820152612b1960f11b604482015290519081900360640190fd5b6000602090910152565b602082015163ffffffff16156147f5576040805162461bcd60e51b8152602060048201526002602482015261563160f01b604482015290519081900360640190fd5b8061482d576040805162461bcd60e51b815260206004820152600360248201526243323360e81b604482015290519081900360640190fd5b614836816140d2565b63ffffffff1660209092019190915250565b6000807f0000000000000000000000000000000000000000000000000000000000000000816148778286614d21565b50506040805160a0810182528981526001600160801b03831660208201526000818301819052606082015242608082015290517f0c49ccbe00000000000000000000000000000000000000000000000000000000815291945092506001600160a01b0385169150630c49ccbe906148f2908490600401615e2e565b6040805180830381600087803b15801561490b57600080fd5b505af115801561491f573d6000803e3d6000fd5b505050506040513d601f19601f8201168201806040525081019061494391906158b5565b5050604080516080810182528781523060208201526001600160801b03818301819052606082015290517ffc6f786500000000000000000000000000000000000000000000000000000000815260009081906001600160a01b0387169063fc6f7865906149b4908690600401615deb565b6040805180830381600087803b1580156149cd57600080fd5b505af11580156149e1573d6000803e3d6000fd5b505050506040513d601f19601f82011682018060405250810190614a0591906158b5565b915091507f0000000000000000000000000000000000000000000000000000000000000000614a35578082614a38565b81815b97509750505050505050915091565b6000806000808415614a6057614a5d8787614ddf565b90505b606088015186906000906001600160801b0316821115614aa65760608a0151614a939089906001600160801b031661348a565b905089606001516001600160801b031691505b614ab08a83614bff565b614ab98a614768565b614ac38a8a613afd565b614acd8a84614592565b9099909850909650945050505050565b600082820183811015613aa3576040805162461bcd60e51b815260206004820152601b60248201527f536166654d6174683a206164646974696f6e206f766572666c6f770000000000604482015290519081900360640190fd5b806001600160601b0381168114610c6c576040805162461bcd60e51b8152602060048083019190915260248201527f4f46393600000000000000000000000000000000000000000000000000000000604482015290519081900360640190fd5b6000808080614bb087614bab886002613d19565b614e8f565b9150915080851115614be557675fc1b97136320000614bcf868361348a565b1015614be557614bdf8787614e8f565b90925090505b84811115614bf35750849050835b90969095509350505050565b6060820151614c2090614c1b906001600160801b03168361348a565b612768565b6001600160801b031660609092019190915250565b600080614c49868686866101a46000613c5a565b9050612827670de0b6b3a76400006128218984613d80565b6060820151614c2090614c1b906001600160801b031683614add565b60008088606001516001600160801b031660001415614ca25750600190506000614d15565b6000614cdb6ec097ce7bc90715b34b9f100000000061282189613a9a8c8f606001516001600160801b0316613d8090919063ffffffff16565b90506000614ced8b8b8b8b8a8a614f6b565b90508681106000614cff846003613d80565b614d0a846002613d80565b101595509093505050505b97509795505050505050565b6000806000806000808790506000806000806000856001600160a01b03166399fbab888d6040518263ffffffff1660e01b8152600401808281526020019150506101806040518083038186803b158015614d7a57600080fd5b505afa158015614d8e573d6000803e3d6000fd5b505050506040513d610180811015614da557600080fd5b5060a081015160c082015160e083015161014084015161016090940151929e50909c509a5090985096505050505050509295509295909350565b6000613aa3670de0b6b3a764000061282166470de4df820000613a9a87614e89887f00000000000000000000000000000000000000000000000000000000000000007f00000000000000000000000000000000000000000000000000000000000000007f00000000000000000000000000000000000000000000000000000000000000007f0000000000000000000000000000000000000000000000000000000000000000614c35565b90614add565b6000806000838511614ea15784614ea3565b835b90506000614f34827f00000000000000000000000000000000000000000000000000000000000000007f00000000000000000000000000000000000000000000000000000000000000007f00000000000000000000000000000000000000000000000000000000000000007f0000000000000000000000000000000000000000000000000000000000000000614c35565b9050614f5e614f57670de0b6b3a76400006128218467016345785d8a0000613d80565b8290614add565b9196919550909350505050565b6000866020015163ffffffff1660001415614f94575060408601516001600160601b03166127ed565b600080614fad888a6020015163ffffffff168787615002565b90925090506000614fd56ec097ce7bc90715b34b9f100000000061282189613a9a868d613d80565b60408b0151909150614ff4906001600160601b0316614e898584614add565b9a9950505050505050505050565b60008060008060008060006150178b8b614d21565b9450945094509450945060008061503087878d88615083565b915091508961505657826001600160801b03168101846001600160801b0316830161506f565b836001600160801b03168201836001600160801b031682015b985098505050505050505094509492505050565b600080600061509185615128565b90508660020b8560020b12156150c5576150be6150ad88615128565b6150b688615128565b86600161545a565b925061511e565b8560020b8560020b12156150fe576150e0816150b688615128565b92506150f76150ee88615128565b8286600161550c565b915061511e565b61511b61510a88615128565b61511388615128565b86600161550c565b91505b5094509492505050565b60008060008360020b1261513f578260020b615147565b8260020b6000035b9050620d89e8811115615185576040805162461bcd60e51b81526020600482015260016024820152601560fa1b604482015290519081900360640190fd5b60006001821661519957600160801b6151ab565b6ffffcb933bd6fad37aa2d162d1a5940015b70ffffffffffffffffffffffffffffffffff16905060028216156151df576ffff97272373d413259a46990580e213a0260801c5b60048216156151fe576ffff2e50f5f656932ef12357cf3c7fdcc0260801c5b600882161561521d576fffe5caca7e10e4e61c3624eaa0941cd00260801c5b601082161561523c576fffcb9843d60f6159c9db58835c9266440260801c5b602082161561525b576fff973b41fa98c081472e6896dfb254c00260801c5b604082161561527a576fff2ea16466c96a3843ec78b326b528610260801c5b6080821615615299576ffe5dee046a99a2a811c461f1969c30530260801c5b6101008216156152b9576ffcbe86c7900a88aedcffc83b479aa3a40260801c5b6102008216156152d9576ff987a7253ac413176f2b074cf7815e540260801c5b6104008216156152f9576ff3392b0822b70005940c7a398e4b70f30260801c5b610800821615615319576fe7159475a2c29b7443b29c7fa6e889d90260801c5b611000821615615339576fd097f3bdfd2022b8845ad8f792aa58250260801c5b612000821615615359576fa9f746462d870fdf8a65dc1f90e061e50260801c5b614000821615615379576f70d869a156d2a1b890bb3df62baf32f70260801c5b618000821615615399576f31be135f97d08fd981231505542fcfa60260801c5b620100008216156153ba576f09aa508b5b7a84e1c677de54f3e99bc90260801c5b620200008216156153da576e5d6af8dedb81196699c329225ee6040260801c5b620400008216156153f9576d2216e584f5fa1ea926041bedfe980260801c5b62080000821615615416576b048a170391f7dc42444e8fa20260801c5b60008460020b131561543157806000198161542d57fe5b0490505b640100000000810615615445576001615448565b60005b60ff16602082901c0192505050919050565b6000836001600160a01b0316856001600160a01b0316111561547a579293925b7bffffffffffffffffffffffffffffffff000000000000000000000000606084901b166001600160a01b0386860381169087166154b657600080fd5b836154e657866001600160a01b03166154d98383896001600160a01b031661557c565b816154e057fe5b04612827565b6128276154fd8383896001600160a01b031661562b565b886001600160a01b0316615665565b6000836001600160a01b0316856001600160a01b0316111561552c579293925b8161555957615554836001600160801b03168686036001600160a01b0316600160601b61557c565b6142ea565b6142ea836001600160801b03168686036001600160a01b0316600160601b61562b565b60008080600019858709868602925082811090839003039050806155b257600084116155a757600080fd5b508290049050613aa3565b8084116155be57600080fd5b6000848688096000868103871696879004966002600389028118808a02820302808a02820302808a02820302808a02820302808a02820302808a02909103029181900381900460010186841190950394909402919094039290920491909117919091029150509392505050565b600061563884848461557c565b90506000828061564457fe5b8486091115613aa357600019811061565b57600080fd5b6001019392505050565b808204910615150190565b60408051608081018252600080825260208201819052918101829052606081019190915290565b8051610c6c81615efd565b8051600281900b8114610c6c57600080fd5b80516001600160801b0381168114610c6c57600080fd5b805162ffffff81168114610c6c57600080fd5b6000602082840312156156ef578081fd5b8135613aa381615efd565b60006020828403121561570b578081fd5b8151613aa381615efd565b6000806000806080858703121561572b578283fd5b843561573681615efd565b935060208581013561574781615efd565b935060408601359250606086013567ffffffffffffffff8082111561576a578384fd5b818801915088601f83011261577d578384fd5b81358181111561578957fe5b604051601f8201601f19168101850183811182821017156157a657fe5b60405281815283820185018b10156157bc578586fd5b81858501868301379081019093019390935250939692955090935050565b6000602082840312156157eb578081fd5b81518015158114613aa3578182fd5b60006020828403121561580b578081fd5b815180600f0b8114613aa3578182fd5b60006020828403121561582c578081fd5b613aa3826156a2565b600060208284031215615846578081fd5b5035919050565b60006020828403121561585e578081fd5b5051919050565b60008060408385031215615877578182fd5b82359150602083013561588981615efd565b809150509250929050565b600080604083850312156158a6578182fd5b50508035926020909101359150565b600080604083850312156158c7578182fd5b505080516020909101519092909150565b6000806000606084860312156158ec578283fd5b505081359360208301359350604090920135919050565b600060208284031215615914578081fd5b8135613aa381615f12565b600060208284031215615930578081fd5b8151613aa381615f12565b6000806000806000806000806000806000806101808d8f03121561595d57898afd5b8c516001600160601b0381168114615973578a8bfd5b9b5061598160208e01615697565b9a5061598f60408e01615697565b995061599d60608e01615697565b98506159ab60808e016156cb565b97506159b960a08e016156a2565b96506159c760c08e016156a2565b95506159d560e08e016156b4565b94506101008d015193506101208d015192506159f46101408e016156b4565b9150615a036101608e016156b4565b90509295989b509295989b509295989b565b6001600160a01b0391909116815260200190565b6001600160a01b039384168152919092166020820152604081019190915260600190565b6001600160a01b03929092168252602082015260400190565b6001600160a01b0393841681526020810192909252909116604082015260600190565b6001600160a01b039390931683526020830191909152604082015260600190565b6001600160a01b0394909416845260208401929092526040830152606082015260800190565b6001600160a01b03979097168752602087019590955260408601939093526060850191909152608084015260a083015260c082015260e00190565b6001600160a01b0392831681529116602082015260400190565b6001600160a01b0392909216825263ffffffff16602082015260400190565b6001600160a01b0394909416845263ffffffff9290921660208401526001600160601b031660408301526001600160801b0316606082015260800190565b901515815260200190565b7fffffffff0000000000000000000000000000000000000000000000000000000091909116815260200190565b600f9190910b815260200190565b60208082526003908201526210cc4d60ea1b604082015260600190565b60208082526003908201526204332360ec1b604082015260600190565b60208082526003908201526221991b60e91b604082015260600190565b602080825260029082015261219960f11b604082015260600190565b60208082526003908201526221989b60e91b604082015260600190565b60208082526003908201526243313360e81b604082015260600190565b60208082526003908201526243323360e81b604082015260600190565b60208082526003908201526243323560e81b604082015260600190565b60208082526003908201526208662760eb1b604082015260600190565b60208082526003908201526243323160e81b604082015260600190565b602080825260029082015261433160f01b604082015260600190565b602080825260029082015261043360f41b604082015260600190565b60208082526003908201526243313560e81b604082015260600190565b60208082526003908201526221989960e91b604082015260600190565b60208082526003908201526210cc8d60ea1b604082015260600190565b60208082526003908201526221991960e91b604082015260600190565b60208082526003908201526243313960e81b604082015260600190565b60208082526003908201526243313760e81b604082015260600190565b602080825260029082015261433360f01b604082015260600190565b815181526020808301516001600160a01b0316908201526040808301516001600160801b0390811691830191909152606092830151169181019190915260800190565b600060a082019050825182526001600160801b03602084015116602083015260408301516040830152606083015160608301526080830151608083015292915050565b6001600160801b0391909116815260200190565b6001600160801b039485168152602081019390935292166040820152606081019190915260800190565b62ffffff91909116815260200190565b90815260200190565b918252602082015260400190565b63ffffffff91909116815260200190565b63ffffffff929092168252602082015260400190565b6001600160a01b0381168114610d3857600080fd5b63ffffffff81168114610d3857600080fdfe5265656e7472616e637947756172643a207265656e7472616e742063616c6c004f776e61626c653a206e6577206f776e657220697320746865207a65726f2061646472657373416464726573733a20756e61626c6520746f2073656e642076616c75652c20726563697069656e74206d61792068617665207265766572746564536166654d6174683a206d756c7469706c69636174696f6e206f766572666c6f77a264697066735822122067d14fd1333db15cb72cd2b7553b52b4edf574b5ecc5983c9fbf5527769a740664736f6c63430007060033",
  "libraries": {
    "ABDKMath64x64": "0xB0069E6586F70003342309B9289e07035cC41400"
  },
  "devdoc": {
    "kind": "dev",
    "methods": {
      "burnPowerPerpAmount(uint256,uint256,uint256)": {
        "params": {
          "_powerPerpAmount": "amount of powerPerp to burn",
          "_vaultId": "id of the vault",
          "_withdrawAmount": "amount of eth to withdraw"
        },
        "returns": {
          "_0": "amount of wPowerPerp burned"
        }
      },
      "burnWPowerPerpAmount(uint256,uint256,uint256)": {
        "params": {
          "_vaultId": "id of the vault",
          "_wPowerPerpAmount": "amount of wPowerPerp to burn",
          "_withdrawAmount": "amount of eth to withdraw"
        }
      },
      "constructor": {
        "params": {
          "_ethQuoteCurrencyPool": "uniswap v3 pool for weth / quoteCurrency",
          "_oracle": "oracle address",
          "_quoteCurrency": "quoteCurrency address",
          "_shortPowerPerp": "ERC721 token address representing the short position",
          "_uniPositionManager": "uniswap v3 position manager address",
          "_wPowerPerp": "ERC20 token address representing the long position",
          "_wPowerPerpPool": "uniswap v3 pool for wPowerPerp / weth",
          "_weth": "weth address"
        }
      },
      "deposit(uint256)": {
        "details": "deposit collateral into a vault",
        "params": {
          "_vaultId": "id of the vault"
        }
      },
      "depositUniPositionToken(uint256,uint256)": {
        "params": {
          "_uniTokenId": "uniswap position token id",
          "_vaultId": "id of the vault"
        }
      },
      "getDenormalizedMark(uint32)": {
        "params": {
          "_period": "period of time for the twap in seconds"
        },
        "returns": {
          "_0": "mark price denominated in $USD, scaled by 1e18"
        }
      },
      "getDenormalizedMarkForFunding(uint32)": {
        "details": "this is the mark that would be used to calculate a new normalization factor if funding was calculated now",
        "params": {
          "_period": "period which you want to calculate twap with"
        },
        "returns": {
          "_0": "mark price denominated in $USD, scaled by 1e18"
        }
      },
      "getExpectedNormalizationFactor()": {
        "details": "can be used for on-chain and off-chain calculations"
      },
      "getIndex(uint32)": {
        "details": "the index price is scaled down by INDEX_SCALE in the associated PowerXBase librarythis is the index price used when calculating funding and for collateralization",
        "params": {
          "_period": "period which you want to calculate twap with"
        },
        "returns": {
          "_0": "index price denominated in $USD, scaled by 1e18"
        }
      },
      "getUnscaledIndex(uint32)": {
        "details": "this is the mark that would be be used for future funding after a new normalization factor is applied",
        "params": {
          "_period": "period which you want to calculate twap with"
        },
        "returns": {
          "_0": "index price denominated in $USD, scaled by 1e18"
        }
      },
      "isVaultSafe(uint256)": {
        "details": "return if the vault is properly collateralized",
        "params": {
          "_vaultId": "id of the vault"
        },
        "returns": {
          "_0": "true if the vault is properly collateralized"
        }
      },
      "liquidate(uint256,uint256)": {
        "details": "liquidator can get back (wPowerPerp burned) * (index price) * (normalizationFactor)  * 110% in collateralnormally can only liquidate 50% of a vault's debtif a vault is under dust limit after a liquidation can fully liquidatewill attempt to reduceDebt first, and can earn a bounty if sucessful",
        "params": {
          "_maxDebtAmount": "max amount of wPowerPerpetual to repay",
          "_vaultId": "vault to liquidate"
        },
        "returns": {
          "_0": "amount of wPowerPerp repaid"
        }
      },
      "mintPowerPerpAmount(uint256,uint256,uint256)": {
        "params": {
          "_powerPerpAmount": "amount of powerPerp to mint",
          "_uniTokenId": "uniswap v3 position token id (additional collateral)",
          "_vaultId": "vault to mint wPowerPerp in"
        },
        "returns": {
          "_0": "vaultId",
          "_1": "amount of wPowerPerp minted"
        }
      },
      "mintWPowerPerpAmount(uint256,uint256,uint256)": {
        "params": {
          "_uniTokenId": "uniswap v3 position token id (additional collateral)",
          "_vaultId": "vault to mint wPowerPerp in",
          "_wPowerPerpAmount": "amount of wPowerPerp to mint"
        },
        "returns": {
          "_0": "vaultId"
        }
      },
      "onERC721Received(address,address,uint256,bytes)": {
        "details": "accept erc721 from safeTransferFrom and safeMint after callback",
        "returns": {
          "_0": "returns received selector"
        }
      },
      "owner()": {
        "details": "Returns the address of the current owner."
      },
      "pause()": {
        "details": "can only be called for 365 days since the contract was launched or 4 times"
      },
      "redeemLong(uint256)": {
        "params": {
          "_wPerpAmount": "amount of wPowerPerp to burn"
        }
      },
      "redeemShort(uint256)": {
        "details": "short position is redeemed by valuing the debt at the (settlement index value) * normalizationFactor",
        "params": {
          "_vaultId": "vault id"
        }
      },
      "reduceDebt(uint256)": {
        "details": "the caller won't get any bounty. this is expected to be used by vault owner",
        "params": {
          "_vaultId": "target vault"
        }
      },
      "reduceDebtShutdown(uint256)": {
        "details": "the caller won't get any bounty. this is expected to be used for insolvent vaults in shutdown",
        "params": {
          "_vaultId": "vault containing uniswap v3 position to liquidate"
        }
      },
      "renounceOwnership()": {
        "details": "Leaves the contract without owner. It will not be possible to call `onlyOwner` functions anymore. Can only be called by the current owner. NOTE: Renouncing ownership will leave the contract without an owner, thereby removing any functionality that is only available to the owner."
      },
      "setFeeRate(uint256)": {
        "details": "this function cannot be called if the feeRecipient is still un-set",
        "params": {
          "_newFeeRate": "new fee rate in basis points. can't be higher than 1%"
        }
      },
      "setFeeRecipient(address)": {
        "details": "this should be a contract handling insurance",
        "params": {
          "_newFeeRecipient": "new fee recipient"
        }
      },
      "shutDown()": {
        "details": "this bypasses the check on number of pauses or time based checks, but is irreversible and enables emergency settlement"
      },
      "transferOwnership(address)": {
        "details": "Transfers ownership of the contract to a new account (`newOwner`). Can only be called by the current owner."
      },
      "unPauseAnyone()": {
        "details": "anyone can unpause the contract after 24 hours"
      },
      "unPauseOwner()": {
        "details": "owner can unpause at any time"
      },
      "updateOperator(uint256,address)": {
        "details": "can be revoke by setting address to 0",
        "params": {
          "_operator": "new operator address",
          "_vaultId": "id of the vault"
        }
      },
      "withdraw(uint256,uint256)": {
        "params": {
          "_amount": "amount of eth to withdraw",
          "_vaultId": "id of the vault"
        }
      },
      "withdrawUniPositionToken(uint256)": {
        "params": {
          "_vaultId": "id of the vault"
        }
      }
    },
    "stateVariables": {
      "ONE": {
        "details": "basic unit used for calculation"
      },
      "PAUSE_TIME_LIMIT": {
        "details": "system can only be paused for 182 days from deployment"
      },
      "feeRate": {
        "details": "fee rate in basis point. feeRate of 1 = 0.01%"
      },
      "indexForSettlement": {
        "details": "the settlement price for each wPowerPerp for settlement"
      },
      "vaults": {
        "details": "vault data storage"
      },
      "wPowerPerpPool": {
        "details": "address of the powerPerp/weth pool"
      }
    },
    "version": 1
  },
  "userdoc": {
    "events": {
      "OpenVault(address,uint256)": {
        "notice": "Events"
      }
    },
    "kind": "user",
    "methods": {
      "applyFunding()": {
        "notice": "update the normalization factor as a way to pay funding"
      },
      "burnPowerPerpAmount(uint256,uint256,uint256)": {
        "notice": "burn powerPerp and remove collateral from a vault"
      },
      "burnWPowerPerpAmount(uint256,uint256,uint256)": {
        "notice": "burn wPowerPerp and remove collateral from a vault"
      },
      "constructor": {
        "notice": "constructor"
      },
      "depositUniPositionToken(uint256,uint256)": {
        "notice": "deposit uniswap position token into a vault to increase collateral ratio"
      },
      "donate()": {
        "notice": "add eth into a contract. used in case contract has insufficient eth to pay for settlement transactions"
      },
      "getDenormalizedMark(uint32)": {
        "notice": "get the expected mark price of powerPerp after funding has been applied"
      },
      "getDenormalizedMarkForFunding(uint32)": {
        "notice": "get the mark price of powerPerp before funding has been applied"
      },
      "getExpectedNormalizationFactor()": {
        "notice": "returns the expected normalization factor, if the funding is paid right now"
      },
      "getIndex(uint32)": {
        "notice": "get the index price of the powerPerp, scaled down"
      },
      "getUnscaledIndex(uint32)": {
        "notice": "the unscaled index of the power perp in USD, scaled by 18 decimals"
      },
      "liquidate(uint256,uint256)": {
        "notice": "if a vault is under the 150% collateral ratio, anyone can liquidate the vault by burning wPowerPerp"
      },
      "mintPowerPerpAmount(uint256,uint256,uint256)": {
        "notice": "deposit collateral and mint wPowerPerp (non-rebasing) for specified powerPerp (rebasing) amount"
      },
      "mintWPowerPerpAmount(uint256,uint256,uint256)": {
        "notice": "deposit collateral and mint wPowerPerp"
      },
      "pause()": {
        "notice": "pause the system for up to 24 hours after which any one can unpause"
      },
      "redeemLong(uint256)": {
        "notice": "redeem wPowerPerp for (settlement index value) * normalizationFactor when the system is shutdown"
      },
      "redeemShort(uint256)": {
        "notice": "redeem short position when the system is shutdown"
      },
      "reduceDebt(uint256)": {
        "notice": "withdraw assets from uniswap v3 position, reducing debt and increasing collateral in the vault"
      },
      "reduceDebtShutdown(uint256)": {
        "notice": "after the system is shutdown, insolvent vaults need to be have their uniswap v3 token assets withdrawn by forceif a vault has a uniswap v3 position in it, anyone can call to withdraw uniswap v3 token assets, reducing debt and increasing collateral in the vault"
      },
      "setFeeRate(uint256)": {
        "notice": "set the fee rate when user mints"
      },
      "setFeeRecipient(address)": {
        "notice": "set the recipient who will receive the fee"
      },
      "shutDown()": {
        "notice": "shutting down the system allows all long wPowerPerp to be settled at index * normalizationFactorshort positions can be redeemed for vault collateral minus value of debtpause (if not paused) and then immediately shutdown the system, can be called when paused already"
      },
      "unPauseAnyone()": {
        "notice": "unpause the contract"
      },
      "unPauseOwner()": {
        "notice": "unpause the contract"
      },
      "updateOperator(uint256,address)": {
        "notice": "authorize an address to modify the vault"
      },
      "withdraw(uint256,uint256)": {
        "notice": "withdraw collateral from a vault"
      },
      "withdrawUniPositionToken(uint256)": {
        "notice": "withdraw uniswap v3 position token from a vault"
      }
    },
    "notice": "Error C0: Paused C1: Not paused C2: Shutdown C3: Not shutdown C4: Invalid oracle address C5: Invalid shortPowerPerp address C6: Invalid wPowerPerp address C7: Invalid weth address C8: Invalid quote currency address C9: Invalid eth:quoteCurrency pool address C10: Invalid wPowerPerp:eth pool address C11: Invalid Uniswap position manager C12: Can not liquidate safe vault C13: Invalid address C14: Set fee recipient first C15: Fee too high C16: Paused too many times C17: Pause time limit exceeded C18: Not enough paused time has passed C19: Cannot receive eth C20: Not allowed C21: Need full liquidation C22: Dust vault left C23: Invalid nft C24: Invalid state C25: 0 liquidity Uniswap position token C26: Wrong fee tier for NFT deposit",
    "version": 1
  },
  "storageLayout": {
    "storage": [
      {
        "astId": 7,
        "contract": "contracts/core/Controller.sol:Controller",
        "label": "_owner",
        "offset": 0,
        "slot": "0",
        "type": "t_address"
      },
      {
        "astId": 3698,
        "contract": "contracts/core/Controller.sol:Controller",
        "label": "_status",
        "offset": 0,
        "slot": "1",
        "type": "t_uint256"
      },
      {
        "astId": 7756,
        "contract": "contracts/core/Controller.sol:Controller",
        "label": "feeRecipient",
        "offset": 0,
        "slot": "2",
        "type": "t_address"
      },
      {
        "astId": 7761,
        "contract": "contracts/core/Controller.sol:Controller",
        "label": "feeRate",
        "offset": 0,
        "slot": "3",
        "type": "t_uint256"
      },
      {
        "astId": 7764,
        "contract": "contracts/core/Controller.sol:Controller",
        "label": "indexForSettlement",
        "offset": 0,
        "slot": "4",
        "type": "t_uint256"
      },
      {
        "astId": 7767,
        "contract": "contracts/core/Controller.sol:Controller",
        "label": "pausesLeft",
        "offset": 0,
        "slot": "5",
        "type": "t_uint256"
      },
      {
        "astId": 7769,
        "contract": "contracts/core/Controller.sol:Controller",
        "label": "lastPauseTime",
        "offset": 0,
        "slot": "6",
        "type": "t_uint256"
      },
      {
        "astId": 7771,
        "contract": "contracts/core/Controller.sol:Controller",
        "label": "normalizationFactor",
        "offset": 0,
        "slot": "7",
        "type": "t_uint128"
      },
      {
        "astId": 7773,
        "contract": "contracts/core/Controller.sol:Controller",
        "label": "lastFundingUpdateTimestamp",
        "offset": 16,
        "slot": "7",
        "type": "t_uint128"
      },
      {
        "astId": 7777,
        "contract": "contracts/core/Controller.sol:Controller",
        "label": "isShutDown",
        "offset": 0,
        "slot": "8",
        "type": "t_bool"
      },
      {
        "astId": 7779,
        "contract": "contracts/core/Controller.sol:Controller",
        "label": "isSystemPaused",
        "offset": 1,
        "slot": "8",
        "type": "t_bool"
      },
      {
        "astId": 7784,
        "contract": "contracts/core/Controller.sol:Controller",
        "label": "vaults",
        "offset": 0,
        "slot": "9",
        "type": "t_mapping(t_uint256,t_struct(Vault)13635_storage)"
      }
    ],
    "types": {
      "t_address": {
        "encoding": "inplace",
        "label": "address",
        "numberOfBytes": "20"
      },
      "t_bool": {
        "encoding": "inplace",
        "label": "bool",
        "numberOfBytes": "1"
      },
      "t_mapping(t_uint256,t_struct(Vault)13635_storage)": {
        "encoding": "mapping",
        "key": "t_uint256",
        "label": "mapping(uint256 => struct VaultLib.Vault)",
        "numberOfBytes": "32",
        "value": "t_struct(Vault)13635_storage"
      },
      "t_struct(Vault)13635_storage": {
        "encoding": "inplace",
        "label": "struct VaultLib.Vault",
        "members": [
          {
            "astId": 13628,
            "contract": "contracts/core/Controller.sol:Controller",
            "label": "operator",
            "offset": 0,
            "slot": "0",
            "type": "t_address"
          },
          {
            "astId": 13630,
            "contract": "contracts/core/Controller.sol:Controller",
            "label": "NftCollateralId",
            "offset": 20,
            "slot": "0",
            "type": "t_uint32"
          },
          {
            "astId": 13632,
            "contract": "contracts/core/Controller.sol:Controller",
            "label": "collateralAmount",
            "offset": 0,
            "slot": "1",
            "type": "t_uint96"
          },
          {
            "astId": 13634,
            "contract": "contracts/core/Controller.sol:Controller",
            "label": "shortAmount",
            "offset": 12,
            "slot": "1",
            "type": "t_uint128"
          }
        ],
        "numberOfBytes": "64"
      },
      "t_uint128": {
        "encoding": "inplace",
        "label": "uint128",
        "numberOfBytes": "16"
      },
      "t_uint256": {
        "encoding": "inplace",
        "label": "uint256",
        "numberOfBytes": "32"
      },
      "t_uint32": {
        "encoding": "inplace",
        "label": "uint32",
        "numberOfBytes": "4"
      },
      "t_uint96": {
        "encoding": "inplace",
        "label": "uint96",
        "numberOfBytes": "12"
      }
    }
  }
}