{
  "address": "0xB53c2eE92A24B08521912e1687Bc8142a7E6a9EE",
  "abi": [
    {
      "inputs": [
        {
          "internalType": "address",
          "name": "_wPowerPerpPool",
          "type": "address"
        },
        {
          "internalType": "uint256",
          "name": "_collateralToLp",
          "type": "uint256"
        },
        {
          "internalType": "uint256",
          "name": "_wPowerPerpAmount",
          "type": "uint256"
        },
        {
          "internalType": "int24",
          "name": "_lowerTick",
          "type": "int24"
        },
        {
          "internalType": "int24",
          "name": "_upperTick",
          "type": "int24"
        },
        {
          "internalType": "bool",
          "name": "_isWethToken0",
          "type": "bool"
        }
      ],
      "name": "getAmountsToLp",
      "outputs": [
        {
          "internalType": "uint256",
          "name": "",
          "type": "uint256"
        },
        {
          "internalType": "uint256",
          "name": "",
          "type": "uint256"
        }
      ],
      "stateMutability": "view",
      "type": "function"
    }
  ],
  "transactionHash": "0x5c1260bffa8cb4db9aee68e84371f4a87b986d71e4461a00b90cf44d976aebd1",
  "args": [],
  "solcInputHash": "fc32ed9e00a9017e491333926bef5473",
  "bytecode": "0x61294e610026600b82828239805160001a60731461001957fe5b30600052607381538281f3fe73000000000000000000000000000000000000000030146080604052600436106100ad5760003560e01c80638e6940f011610080578063aee2533b11610065578063aee2533b14610198578063b573fa8b146101b8578063ec147e56146101cb576100ad565b80638e6940f0146101345780639f70f9e51461016b576100ad565b8063392f2708146100b257806351764a5e146100d457806363410a86146100f45780637a04dbd714610114575b600080fd5b8180156100be57600080fd5b506100d26100cd366004612153565b6101eb565b005b8180156100e057600080fd5b506100d26100ef366004611f91565b6102d4565b81801561010057600080fd5b506100d261010f366004612282565b6104c1565b81801561012057600080fd5b506100d261012f366004612056565b61056e565b81801561014057600080fd5b5061015461014f366004611fc9565b610865565b60405161016292919061284f565b60405180910390f35b81801561017757600080fd5b5061018b610186366004612282565b610b78565b6040516101629190612846565b8180156101a457600080fd5b5061018b6101b33660046121b7565b610cdf565b6101546101c636600461237c565b610f52565b8180156101d757600080fd5b506101546101e63660046122d2565b6111bd565b8215806101ff575080670de0b6b3a7640000145b1561026b57604051632142170760e11b81526001600160a01b038516906342842e0e906102349030908a90879060040161269c565b600060405180830381600087803b15801561024e57600080fd5b505af1158015610262573d6000803e3d6000fd5b505050506102cc565b6040516348dc69a560e11b81526001600160a01b038616906391b8d34a90610299908690869060040161284f565b600060405180830381600087803b1580156102b357600080fd5b505af11580156102c7573d6000803e3d6000fd5b505050505b505050505050565b6040516370a0823160e01b81526001600160a01b03831690632e1a7d4d9082906370a082319061030890309060040161266f565b60206040518083038186803b15801561032057600080fd5b505afa158015610334573d6000803e3d6000fd5b505050506040513d601f19601f8201168201806040525081019061035891906124fb565b6040518263ffffffff1660e01b81526004016103749190612846565b600060405180830381600087803b15801561038e57600080fd5b505af11580156103a2573d6000803e3d6000fd5b506103b39250339150479050611424565b6040516370a0823160e01b81526000906001600160a01b038316906370a08231906103e290309060040161266f565b60206040518083038186803b1580156103fa57600080fd5b505afa15801561040e573d6000803e3d6000fd5b505050506040513d601f19601f8201168201806040525081019061043291906124fb565b905080156104bc5760405163a9059cbb60e01b81526001600160a01b0383169063a9059cbb906104689033908590600401612683565b602060405180830381600087803b15801561048257600080fd5b505af1158015610496573d6000803e3d6000fd5b505050506040513d601f19601f820116820180604052508101906104ba91906123dd565b505b505050565b604051638632cb0360e01b81526001600160a01b03861690638632cb03906104f19086908690869060040161285d565b600060405180830381600087803b15801561050b57600080fd5b505af115801561051f573d6000803e3d6000fd5b50505050600081111561056757836001600160a01b031663d0e30db0826040518263ffffffff1660e01b81526004016000604051808303818588803b1580156102b357600080fd5b5050505050565b60408201511561077557600080876001600160a01b03166399fbab8885602001516040518263ffffffff1660e01b81526004016105ab9190612846565b6101806040518083038186803b1580156105c457600080fd5b505afa1580156105d8573d6000803e3d6000fd5b505050506040513d601f19601f820116820180604052508101906105fc9190612573565b5050505050965096505050505050600080610623888760800151886040015187878a610f52565b9150915084610633578181610636565b80825b6080880152604080880191909152516370a0823160e01b81526000906001600160a01b038b16906370a082319061067190309060040161266f565b60206040518083038186803b15801561068957600080fd5b505afa15801561069d573d6000803e3d6000fd5b505050506040513d601f19601f820116820180604052508101906106c191906124fb565b9050866040015181101561076f578b6001600160a01b0316633946791888606001518a6106fb858c6040015161150990919063ffffffff16565b60006040518563ffffffff1660e01b815260040161071b9392919061285d565b6020604051808303818588803b15801561073457600080fd5b505af1158015610748573d6000803e3d6000fd5b50505050506040513d601f19601f8201168201806040525081019061076d91906124fb565b505b50505050505b60006040518060c00160405280846020015181526020018361079b5784604001516107a1565b84608001515b8152602001836107b55784608001516107bb565b84604001515b81526020018460a0015181526020018460c001518152602001428152509050866001600160a01b031663219f5d17826040518263ffffffff1660e01b81526004016108069190612754565b606060405180830381600087803b15801561082057600080fd5b505af1158015610834573d6000803e3d6000fd5b505050506040513d601f19601f820116820180604052508101906108589190612415565b5050505050505050505050565b600080846001600160a01b0316632e1a7d4d85608001356040518263ffffffff1660e01b81526004016108989190612846565b600060405180830381600087803b1580156108b257600080fd5b505af11580156108c6573d6000803e3d6000fd5b505050506000806109178660200160208101906108e39190611f59565b60a088013560608901356108ff6101208b016101008c016123f9565b6109116101408c016101208d016123f9565b8a610f52565b9092509050604086013560008661092e5783610930565b825b9050808a6001600160a01b03166370a08231306040518263ffffffff1660e01b815260040161095f919061266f565b60206040518083038186803b15801561097757600080fd5b505afa15801561098b573d6000803e3d6000fd5b505050506040513d601f19601f820116820180604052508101906109af91906124fb565b1015610acd576040516370a0823160e01b8152610a3c906001600160a01b038c16906370a08231906109e590309060040161266f565b60206040518083038186803b1580156109fd57600080fd5b505afa158015610a11573d6000803e3d6000fd5b505050506040513d601f19601f82011682018060405250810190610a3591906124fb565b8290611509565b90508b6001600160a01b0316633946791889608001358a604001358460006040518563ffffffff1660e01b8152600401610a789392919061285d565b6020604051808303818588803b158015610a9157600080fd5b505af1158015610aa5573d6000803e3d6000fd5b50505050506040513d601f19601f82011682018060405250810190610aca91906124fb565b91505b6000610b648c610ae360408c0160208d01611f59565b6040805160e0810190915280610afc60208f018f611f59565b6001600160a01b031681526020018981526020018881526020018d60c0013581526020018d60e0013581526020018d610100016020810190610b3e91906123f9565b60020b81526020018d610120016020810190610b5a91906123f9565b60020b9052610cdf565b929d929c50919a5050505050505050505050565b60008115610bdf57604051632e1a7d4d60e01b81526001600160a01b03861690632e1a7d4d90610bac908590600401612846565b600060405180830381600087803b158015610bc657600080fd5b505af1158015610bda573d6000803e3d6000fd5b505050505b838315610c7257604051630728cf2360e31b81526001600160a01b038816906339467918908590610c19908990899060009060040161285d565b6020604051808303818588803b158015610c3257600080fd5b505af1158015610c46573d6000803e3d6000fd5b50505050506040513d601f19601f82011682018060405250810190610c6b91906124fb565b9050610cd3565b60405163b6b55f2560e01b81526001600160a01b0388169063b6b55f25908590610ca0908990600401612846565b6000604051808303818588803b158015610cb957600080fd5b505af1158015610ccd573d6000803e3d6000fd5b50505050505b90505b95945050505050565b600080604051806101600160405280856001600160a01b0316630dfe16816040518163ffffffff1660e01b815260040160206040518083038186803b158015610d2757600080fd5b505afa158015610d3b573d6000803e3d6000fd5b505050506040513d601f19601f82011682018060405250810190610d5f9190611f75565b6001600160a01b03168152602001856001600160a01b031663d21220a76040518163ffffffff1660e01b815260040160206040518083038186803b158015610da657600080fd5b505afa158015610dba573d6000803e3d6000fd5b505050506040513d601f19601f82011682018060405250810190610dde9190611f75565b6001600160a01b03168152602001856001600160a01b031663ddca3f436040518163ffffffff1660e01b815260040160206040518083038186803b158015610e2557600080fd5b505afa158015610e39573d6000803e3d6000fd5b505050506040513d601f19601f82011682018060405250810190610e5d91906124e1565b62ffffff1681526020018460a0015160020b81526020018460c0015160020b81526020018460200151815260200184604001518152602001846060015181526020018460800151815260200184600001516001600160a01b031681526020014281525090506000856001600160a01b03166388316456836040518263ffffffff1660e01b8152600401610ef09190612798565b608060405180830381600087803b158015610f0a57600080fd5b505af1158015610f1e573d6000803e3d6000fd5b505050506040513d601f19601f82011682018060405250810190610f429190612513565b50919450505050505b9392505050565b60008060008060008a6001600160a01b0316633850c7bd6040518163ffffffff1660e01b815260040160e06040518083038186803b158015610f9357600080fd5b505afa158015610fa7573d6000803e3d6000fd5b505050506040513d601f19601f82011682018060405250810190610fcb919061244b565b50505050509150506000738f92cfB1BF6eD1ce79F2E8Eb0DC96e0F3b61276D63986cfba3836040518263ffffffff1660e01b815260040161100c91906126c0565b60206040518083038186803b15801561102457600080fd5b505af4158015611038573d6000803e3d6000fd5b505050506040513d601f19601f8201168201806040525081019061105c9190611f75565b90506000738f92cfB1BF6eD1ce79F2E8Eb0DC96e0F3b61276D63986cfba38b6040518263ffffffff1660e01b815260040161109791906126c0565b60206040518083038186803b1580156110af57600080fd5b505af41580156110c3573d6000803e3d6000fd5b505050506040513d601f19601f820116820180604052508101906110e79190611f75565b90506000738f92cfB1BF6eD1ce79F2E8Eb0DC96e0F3b61276D63986cfba38b6040518263ffffffff1660e01b815260040161112291906126c0565b60206040518083038186803b15801561113a57600080fd5b505af415801561114e573d6000803e3d6000fd5b505050506040513d601f19601f820116820180604052508101906111729190611f75565b905088611180578b8d611183565b8c8c5b909650945060006111978484848a8a61156b565b90506111a684868e8e85611623565b909950975050505050505050965096945050505050565b60008060006040518060a0016040528086600001518152602001611204670de0b6b3a76400006111fe89604001518a6020015161196490919063ffffffff16565b906119bd565b6001600160801b0316815260200186606001516001600160801b0316815260200186608001516001600160801b03168152602001428152509050856001600160a01b0316630c49ccbe826040518263ffffffff1660e01b815260040161126a9190612711565b6040805180830381600087803b15801561128357600080fd5b505af1158015611297573d6000803e3d6000fd5b505050506040513d601f19601f820116820180604052508101906112bb9190612550565b5050600080856113705760408051608081018252885181523060208201526001600160801b038183018190526060820152905163fc6f786560e01b81526001600160a01b038a169163fc6f78659161131691906004016126ce565b6040805180830381600087803b15801561132f57600080fd5b505af1158015611343573d6000803e3d6000fd5b505050506040513d601f19601f820116820180604052508101906113679190612550565b92509050611418565b60408051608081018252885181523060208201526001600160801b038183018190526060820152905163fc6f786560e01b81526001600160a01b038a169163fc6f7865916113c191906004016126ce565b6040805180830381600087803b1580156113da57600080fd5b505af11580156113ee573d6000803e3d6000fd5b505050506040513d601f19601f820116820180604052508101906114129190612550565b90925090505b97909650945050505050565b80471015611479576040805162461bcd60e51b815260206004820152601d60248201527f416464726573733a20696e73756666696369656e742062616c616e6365000000604482015290519081900360640190fd5b6040516000906001600160a01b0384169083908381818185875af1925050503d80600081146114c4576040519150601f19603f3d011682016040523d82523d6000602084013e6114c9565b606091505b50509050806104bc5760405162461bcd60e51b815260040180806020018281038252603a8152602001806128be603a913960400191505060405180910390fd5b600082821115611560576040805162461bcd60e51b815260206004820152601e60248201527f536166654d6174683a207375627472616374696f6e206f766572666c6f770000604482015290519081900360640190fd5b508082035b92915050565b6000836001600160a01b0316856001600160a01b0316111561158b579293925b846001600160a01b0316866001600160a01b0316116115b6576115af858585611a24565b9050610cd6565b836001600160a01b0316866001600160a01b031610156116185760006115dd878686611a24565b905060006115ec878986611a90565b9050806001600160801b0316826001600160801b03161061160d578061160f565b815b92505050610cd6565b610cd3858584611a90565b6000808460020b8660020b12156116fc5773b9127F2e97F6816DCd7b85d8617B7AcFe5E15419632c32d4b661165787611ade565b61166087611ade565b8660006040518563ffffffff1660e01b815260040180856001600160a01b03168152602001846001600160a01b03168152602001836001600160801b03168152602001821515815260200194505050505060206040518083038186803b1580156116c957600080fd5b505af41580156116dd573d6000803e3d6000fd5b505050506040513d60208110156116f357600080fd5b5051915061195a565b8360020b8660020b12156118965773b9127F2e97F6816DCd7b85d8617B7AcFe5E15419632c32d4b68861172e87611ade565b8660006040518563ffffffff1660e01b815260040180856001600160a01b03168152602001846001600160a01b03168152602001836001600160801b03168152602001821515815260200194505050505060206040518083038186803b15801561179757600080fd5b505af41580156117ab573d6000803e3d6000fd5b505050506040513d60208110156117c157600080fd5b5051915073b9127F2e97F6816DCd7b85d8617B7AcFe5E154196348a0c5bd6117e887611ade565b604080517fffffffff0000000000000000000000000000000000000000000000000000000060e085901b1681526001600160a01b039283166004820152918b1660248301526001600160801b038716604483015260006064830152516084808301926020929190829003018186803b15801561186357600080fd5b505af4158015611877573d6000803e3d6000fd5b505050506040513d602081101561188d57600080fd5b5051905061195a565b73b9127F2e97F6816DCd7b85d8617B7AcFe5E154196348a0c5bd6118b987611ade565b6118c287611ade565b8660006040518563ffffffff1660e01b815260040180856001600160a01b03168152602001846001600160a01b03168152602001836001600160801b03168152602001821515815260200194505050505060206040518083038186803b15801561192b57600080fd5b505af415801561193f573d6000803e3d6000fd5b505050506040513d602081101561195557600080fd5b505190505b9550959350505050565b60008261197357506000611565565b8282028284828161198057fe5b0414610f4b5760405162461bcd60e51b81526004018080602001828103825260218152602001806128f86021913960400191505060405180910390fd5b6000808211611a13576040805162461bcd60e51b815260206004820152601a60248201527f536166654d6174683a206469766973696f6e206279207a65726f000000000000604482015290519081900360640190fd5b818381611a1c57fe5b049392505050565b6000826001600160a01b0316846001600160a01b03161115611a44579192915b6000611a70856001600160a01b0316856001600160a01b03166c01000000000000000000000000611e1d565b9050610cd6611a8b84838888036001600160a01b0316611e1d565b611ecc565b6000826001600160a01b0316846001600160a01b03161115611ab0579192915b611ad6611a8b836c010000000000000000000000008787036001600160a01b0316611e1d565b949350505050565b60008060008360020b12611af5578260020b611afd565b8260020b6000035b9050620d89e8811115611b3b576040805162461bcd60e51b81526020600482015260016024820152601560fa1b604482015290519081900360640190fd5b600060018216611b5c57700100000000000000000000000000000000611b6e565b6ffffcb933bd6fad37aa2d162d1a5940015b70ffffffffffffffffffffffffffffffffff1690506002821615611ba2576ffff97272373d413259a46990580e213a0260801c5b6004821615611bc1576ffff2e50f5f656932ef12357cf3c7fdcc0260801c5b6008821615611be0576fffe5caca7e10e4e61c3624eaa0941cd00260801c5b6010821615611bff576fffcb9843d60f6159c9db58835c9266440260801c5b6020821615611c1e576fff973b41fa98c081472e6896dfb254c00260801c5b6040821615611c3d576fff2ea16466c96a3843ec78b326b528610260801c5b6080821615611c5c576ffe5dee046a99a2a811c461f1969c30530260801c5b610100821615611c7c576ffcbe86c7900a88aedcffc83b479aa3a40260801c5b610200821615611c9c576ff987a7253ac413176f2b074cf7815e540260801c5b610400821615611cbc576ff3392b0822b70005940c7a398e4b70f30260801c5b610800821615611cdc576fe7159475a2c29b7443b29c7fa6e889d90260801c5b611000821615611cfc576fd097f3bdfd2022b8845ad8f792aa58250260801c5b612000821615611d1c576fa9f746462d870fdf8a65dc1f90e061e50260801c5b614000821615611d3c576f70d869a156d2a1b890bb3df62baf32f70260801c5b618000821615611d5c576f31be135f97d08fd981231505542fcfa60260801c5b62010000821615611d7d576f09aa508b5b7a84e1c677de54f3e99bc90260801c5b62020000821615611d9d576e5d6af8dedb81196699c329225ee6040260801c5b62040000821615611dbc576d2216e584f5fa1ea926041bedfe980260801c5b62080000821615611dd9576b048a170391f7dc42444e8fa20260801c5b60008460020b1315611df4578060001981611df057fe5b0490505b640100000000810615611e08576001611e0b565b60005b60ff16602082901c0192505050919050565b6000808060001985870986860292508281109083900303905080611e535760008411611e4857600080fd5b508290049050610f4b565b808411611e5f57600080fd5b6000848688096000868103871696879004966002600389028118808a02820302808a02820302808a02820302808a02820302808a02820302808a02909103029181900381900460010186841190950394909402919094039290920491909117919091029150509392505050565b806001600160801b0381168114611ee257600080fd5b919050565b8035611ee281612873565b8051611ee281612873565b8035611ee28161288b565b8035611ee281612899565b8051611ee281612899565b8035611ee2816128a8565b8051611ee2816128a8565b805161ffff81168114611ee257600080fd5b805162ffffff81168114611ee257600080fd5b600060208284031215611f6a578081fd5b8135610f4b81612873565b600060208284031215611f86578081fd5b8151610f4b81612873565b60008060408385031215611fa3578081fd5b8235611fae81612873565b91506020830135611fbe81612873565b809150509250929050565b6000806000806000808688036101e0811215611fe3578283fd5b8735611fee81612873565b96506020880135611ffe81612873565b9550604088013561200e81612873565b9450606088013561201e81612873565b9350610140607f1982011215612032578283fd5b506080870191506101c08701356120488161288b565b809150509295509295509295565b60008060008060008060008789036101a0811215612072578182fd5b883561207d81612873565b9750602089013561208d81612873565b9650604089013561209d81612873565b955060608901356120ad81612873565b94506080890135935060e0609f19820112156120c7578182fd5b5060405160e0810181811067ffffffffffffffff821117156120e557fe5b6040526120f460a08a01611ee7565b815260c089810135602083015260e08a013560408301526101008a013560608301526101208a013560808301526101408a013560a08301526101608a01359082015291506121456101808901611efd565b905092959891949750929550565b60008060008060008060c0878903121561216b578384fd5b863561217681612873565b9550602087013561218681612873565b9450604087013561219681612873565b959894975094956060810135955060808101359460a0909101359350915050565b60008060008385036101208112156121cd578182fd5b84356121d881612873565b935060208501356121e881612873565b925060e0603f19820112156121fb578182fd5b5060405160e0810181811067ffffffffffffffff8211171561221957fe5b806040525061222a60408601611ee7565b8152606085013560208201526080850135604082015260a0850135606082015260c0850135608082015261226060e08601611f08565b60a08201526122726101008601611f08565b60c0820152809150509250925092565b600080600080600060a08688031215612299578283fd5b85356122a481612873565b945060208601356122b481612873565b94979496505050506040830135926060810135926080909101359150565b600080600083850360e08112156122e7578182fd5b84356122f281612873565b935060a0601f1982011215612305578182fd5b5060405160a0810181811067ffffffffffffffff8211171561232357fe5b806040525060208501358152604085013560208201526060850135604082015261234f60808601611f1e565b606082015261236060a08601611f1e565b6080820152915061237360c08501611efd565b90509250925092565b60008060008060008060c08789031215612394578384fd5b863561239f81612873565b9550602087013594506040870135935060608701356123bd81612899565b925060808701356123cd81612899565b915060a08701356120488161288b565b6000602082840312156123ee578081fd5b8151610f4b8161288b565b60006020828403121561240a578081fd5b8135610f4b81612899565b600080600060608486031215612429578081fd5b8351612434816128a8565b602085015160409095015190969495509392505050565b600080600080600080600060e0888a031215612465578081fd5b875161247081612873565b602089015190975061248181612899565b955061248f60408901611f34565b945061249d60608901611f34565b93506124ab60808901611f34565b925060a088015160ff811681146124c0578182fd5b60c08901519092506124d18161288b565b8091505092959891949750929550565b6000602082840312156124f2578081fd5b610f4b82611f46565b60006020828403121561250c578081fd5b5051919050565b60008060008060808587031215612528578182fd5b84519350602085015161253a816128a8565b6040860151606090960151949790965092505050565b60008060408385031215612562578182fd5b505080516020909101519092909150565b6000806000806000806000806000806000806101808d8f031215612595578586fd5b8c516bffffffffffffffffffffffff811681146125b0578687fd5b9b506125be60208e01611ef2565b9a506125cc60408e01611ef2565b99506125da60608e01611ef2565b98506125e860808e01611f46565b97506125f660a08e01611f13565b965061260460c08e01611f13565b955061261260e08e01611f29565b94506101008d015193506101208d015192506126316101408e01611f29565b91506126406101608e01611f29565b90509295989b509295989b509295989b565b6001600160a01b03169052565b60020b9052565b62ffffff169052565b6001600160a01b0391909116815260200190565b6001600160a01b03929092168252602082015260400190565b6001600160a01b039384168152919092166020820152604081019190915260600190565b60029190910b815260200190565b815181526020808301516001600160a01b0316908201526040808301516001600160801b0390811691830191909152606092830151169181019190915260800190565b600060a082019050825182526001600160801b03602084015116602083015260408301516040830152606083015160608301526080830151608083015292915050565b600060c082019050825182526020830151602083015260408301516040830152606083015160608301526080830151608083015260a083015160a083015292915050565b6000610160820190506127ac828451612652565b60208301516127be6020840182612652565b5060408301516127d16040840182612666565b5060608301516127e4606084018261265f565b5060808301516127f7608084018261265f565b5060a083015160a083015260c083015160c083015260e083015160e08301526101008084015181840152506101208084015161283582850182612652565b505061014092830151919092015290565b90815260200190565b918252602082015260400190565b9283526020830191909152604082015260600190565b6001600160a01b038116811461288857600080fd5b50565b801515811461288857600080fd5b8060020b811461288857600080fd5b6001600160801b038116811461288857600080fdfe416464726573733a20756e61626c6520746f2073656e642076616c75652c20726563697069656e74206d61792068617665207265766572746564536166654d6174683a206d756c7469706c69636174696f6e206f766572666c6f77a2646970667358221220cfb89b72f5833964391283454a5a095d88e171c58035cad9299687278c762ec164736f6c63430007060033",
  "deployedBytecode": "0x73000000000000000000000000000000000000000030146080604052600436106100ad5760003560e01c80638e6940f011610080578063aee2533b11610065578063aee2533b14610198578063b573fa8b146101b8578063ec147e56146101cb576100ad565b80638e6940f0146101345780639f70f9e51461016b576100ad565b8063392f2708146100b257806351764a5e146100d457806363410a86146100f45780637a04dbd714610114575b600080fd5b8180156100be57600080fd5b506100d26100cd366004612153565b6101eb565b005b8180156100e057600080fd5b506100d26100ef366004611f91565b6102d4565b81801561010057600080fd5b506100d261010f366004612282565b6104c1565b81801561012057600080fd5b506100d261012f366004612056565b61056e565b81801561014057600080fd5b5061015461014f366004611fc9565b610865565b60405161016292919061284f565b60405180910390f35b81801561017757600080fd5b5061018b610186366004612282565b610b78565b6040516101629190612846565b8180156101a457600080fd5b5061018b6101b33660046121b7565b610cdf565b6101546101c636600461237c565b610f52565b8180156101d757600080fd5b506101546101e63660046122d2565b6111bd565b8215806101ff575080670de0b6b3a7640000145b1561026b57604051632142170760e11b81526001600160a01b038516906342842e0e906102349030908a90879060040161269c565b600060405180830381600087803b15801561024e57600080fd5b505af1158015610262573d6000803e3d6000fd5b505050506102cc565b6040516348dc69a560e11b81526001600160a01b038616906391b8d34a90610299908690869060040161284f565b600060405180830381600087803b1580156102b357600080fd5b505af11580156102c7573d6000803e3d6000fd5b505050505b505050505050565b6040516370a0823160e01b81526001600160a01b03831690632e1a7d4d9082906370a082319061030890309060040161266f565b60206040518083038186803b15801561032057600080fd5b505afa158015610334573d6000803e3d6000fd5b505050506040513d601f19601f8201168201806040525081019061035891906124fb565b6040518263ffffffff1660e01b81526004016103749190612846565b600060405180830381600087803b15801561038e57600080fd5b505af11580156103a2573d6000803e3d6000fd5b506103b39250339150479050611424565b6040516370a0823160e01b81526000906001600160a01b038316906370a08231906103e290309060040161266f565b60206040518083038186803b1580156103fa57600080fd5b505afa15801561040e573d6000803e3d6000fd5b505050506040513d601f19601f8201168201806040525081019061043291906124fb565b905080156104bc5760405163a9059cbb60e01b81526001600160a01b0383169063a9059cbb906104689033908590600401612683565b602060405180830381600087803b15801561048257600080fd5b505af1158015610496573d6000803e3d6000fd5b505050506040513d601f19601f820116820180604052508101906104ba91906123dd565b505b505050565b604051638632cb0360e01b81526001600160a01b03861690638632cb03906104f19086908690869060040161285d565b600060405180830381600087803b15801561050b57600080fd5b505af115801561051f573d6000803e3d6000fd5b50505050600081111561056757836001600160a01b031663d0e30db0826040518263ffffffff1660e01b81526004016000604051808303818588803b1580156102b357600080fd5b5050505050565b60408201511561077557600080876001600160a01b03166399fbab8885602001516040518263ffffffff1660e01b81526004016105ab9190612846565b6101806040518083038186803b1580156105c457600080fd5b505afa1580156105d8573d6000803e3d6000fd5b505050506040513d601f19601f820116820180604052508101906105fc9190612573565b5050505050965096505050505050600080610623888760800151886040015187878a610f52565b9150915084610633578181610636565b80825b6080880152604080880191909152516370a0823160e01b81526000906001600160a01b038b16906370a082319061067190309060040161266f565b60206040518083038186803b15801561068957600080fd5b505afa15801561069d573d6000803e3d6000fd5b505050506040513d601f19601f820116820180604052508101906106c191906124fb565b9050866040015181101561076f578b6001600160a01b0316633946791888606001518a6106fb858c6040015161150990919063ffffffff16565b60006040518563ffffffff1660e01b815260040161071b9392919061285d565b6020604051808303818588803b15801561073457600080fd5b505af1158015610748573d6000803e3d6000fd5b50505050506040513d601f19601f8201168201806040525081019061076d91906124fb565b505b50505050505b60006040518060c00160405280846020015181526020018361079b5784604001516107a1565b84608001515b8152602001836107b55784608001516107bb565b84604001515b81526020018460a0015181526020018460c001518152602001428152509050866001600160a01b031663219f5d17826040518263ffffffff1660e01b81526004016108069190612754565b606060405180830381600087803b15801561082057600080fd5b505af1158015610834573d6000803e3d6000fd5b505050506040513d601f19601f820116820180604052508101906108589190612415565b5050505050505050505050565b600080846001600160a01b0316632e1a7d4d85608001356040518263ffffffff1660e01b81526004016108989190612846565b600060405180830381600087803b1580156108b257600080fd5b505af11580156108c6573d6000803e3d6000fd5b505050506000806109178660200160208101906108e39190611f59565b60a088013560608901356108ff6101208b016101008c016123f9565b6109116101408c016101208d016123f9565b8a610f52565b9092509050604086013560008661092e5783610930565b825b9050808a6001600160a01b03166370a08231306040518263ffffffff1660e01b815260040161095f919061266f565b60206040518083038186803b15801561097757600080fd5b505afa15801561098b573d6000803e3d6000fd5b505050506040513d601f19601f820116820180604052508101906109af91906124fb565b1015610acd576040516370a0823160e01b8152610a3c906001600160a01b038c16906370a08231906109e590309060040161266f565b60206040518083038186803b1580156109fd57600080fd5b505afa158015610a11573d6000803e3d6000fd5b505050506040513d601f19601f82011682018060405250810190610a3591906124fb565b8290611509565b90508b6001600160a01b0316633946791889608001358a604001358460006040518563ffffffff1660e01b8152600401610a789392919061285d565b6020604051808303818588803b158015610a9157600080fd5b505af1158015610aa5573d6000803e3d6000fd5b50505050506040513d601f19601f82011682018060405250810190610aca91906124fb565b91505b6000610b648c610ae360408c0160208d01611f59565b6040805160e0810190915280610afc60208f018f611f59565b6001600160a01b031681526020018981526020018881526020018d60c0013581526020018d60e0013581526020018d610100016020810190610b3e91906123f9565b60020b81526020018d610120016020810190610b5a91906123f9565b60020b9052610cdf565b929d929c50919a5050505050505050505050565b60008115610bdf57604051632e1a7d4d60e01b81526001600160a01b03861690632e1a7d4d90610bac908590600401612846565b600060405180830381600087803b158015610bc657600080fd5b505af1158015610bda573d6000803e3d6000fd5b505050505b838315610c7257604051630728cf2360e31b81526001600160a01b038816906339467918908590610c19908990899060009060040161285d565b6020604051808303818588803b158015610c3257600080fd5b505af1158015610c46573d6000803e3d6000fd5b50505050506040513d601f19601f82011682018060405250810190610c6b91906124fb565b9050610cd3565b60405163b6b55f2560e01b81526001600160a01b0388169063b6b55f25908590610ca0908990600401612846565b6000604051808303818588803b158015610cb957600080fd5b505af1158015610ccd573d6000803e3d6000fd5b50505050505b90505b95945050505050565b600080604051806101600160405280856001600160a01b0316630dfe16816040518163ffffffff1660e01b815260040160206040518083038186803b158015610d2757600080fd5b505afa158015610d3b573d6000803e3d6000fd5b505050506040513d601f19601f82011682018060405250810190610d5f9190611f75565b6001600160a01b03168152602001856001600160a01b031663d21220a76040518163ffffffff1660e01b815260040160206040518083038186803b158015610da657600080fd5b505afa158015610dba573d6000803e3d6000fd5b505050506040513d601f19601f82011682018060405250810190610dde9190611f75565b6001600160a01b03168152602001856001600160a01b031663ddca3f436040518163ffffffff1660e01b815260040160206040518083038186803b158015610e2557600080fd5b505afa158015610e39573d6000803e3d6000fd5b505050506040513d601f19601f82011682018060405250810190610e5d91906124e1565b62ffffff1681526020018460a0015160020b81526020018460c0015160020b81526020018460200151815260200184604001518152602001846060015181526020018460800151815260200184600001516001600160a01b031681526020014281525090506000856001600160a01b03166388316456836040518263ffffffff1660e01b8152600401610ef09190612798565b608060405180830381600087803b158015610f0a57600080fd5b505af1158015610f1e573d6000803e3d6000fd5b505050506040513d601f19601f82011682018060405250810190610f429190612513565b50919450505050505b9392505050565b60008060008060008a6001600160a01b0316633850c7bd6040518163ffffffff1660e01b815260040160e06040518083038186803b158015610f9357600080fd5b505afa158015610fa7573d6000803e3d6000fd5b505050506040513d601f19601f82011682018060405250810190610fcb919061244b565b5050505050915050600073__$d199f155f9376dc21890c162698c9ef049$__63986cfba3836040518263ffffffff1660e01b815260040161100c91906126c0565b60206040518083038186803b15801561102457600080fd5b505af4158015611038573d6000803e3d6000fd5b505050506040513d601f19601f8201168201806040525081019061105c9190611f75565b9050600073__$d199f155f9376dc21890c162698c9ef049$__63986cfba38b6040518263ffffffff1660e01b815260040161109791906126c0565b60206040518083038186803b1580156110af57600080fd5b505af41580156110c3573d6000803e3d6000fd5b505050506040513d601f19601f820116820180604052508101906110e79190611f75565b9050600073__$d199f155f9376dc21890c162698c9ef049$__63986cfba38b6040518263ffffffff1660e01b815260040161112291906126c0565b60206040518083038186803b15801561113a57600080fd5b505af415801561114e573d6000803e3d6000fd5b505050506040513d601f19601f820116820180604052508101906111729190611f75565b905088611180578b8d611183565b8c8c5b909650945060006111978484848a8a61156b565b90506111a684868e8e85611623565b909950975050505050505050965096945050505050565b60008060006040518060a0016040528086600001518152602001611204670de0b6b3a76400006111fe89604001518a6020015161196490919063ffffffff16565b906119bd565b6001600160801b0316815260200186606001516001600160801b0316815260200186608001516001600160801b03168152602001428152509050856001600160a01b0316630c49ccbe826040518263ffffffff1660e01b815260040161126a9190612711565b6040805180830381600087803b15801561128357600080fd5b505af1158015611297573d6000803e3d6000fd5b505050506040513d601f19601f820116820180604052508101906112bb9190612550565b5050600080856113705760408051608081018252885181523060208201526001600160801b038183018190526060820152905163fc6f786560e01b81526001600160a01b038a169163fc6f78659161131691906004016126ce565b6040805180830381600087803b15801561132f57600080fd5b505af1158015611343573d6000803e3d6000fd5b505050506040513d601f19601f820116820180604052508101906113679190612550565b92509050611418565b60408051608081018252885181523060208201526001600160801b038183018190526060820152905163fc6f786560e01b81526001600160a01b038a169163fc6f7865916113c191906004016126ce565b6040805180830381600087803b1580156113da57600080fd5b505af11580156113ee573d6000803e3d6000fd5b505050506040513d601f19601f820116820180604052508101906114129190612550565b90925090505b97909650945050505050565b80471015611479576040805162461bcd60e51b815260206004820152601d60248201527f416464726573733a20696e73756666696369656e742062616c616e6365000000604482015290519081900360640190fd5b6040516000906001600160a01b0384169083908381818185875af1925050503d80600081146114c4576040519150601f19603f3d011682016040523d82523d6000602084013e6114c9565b606091505b50509050806104bc5760405162461bcd60e51b815260040180806020018281038252603a8152602001806128be603a913960400191505060405180910390fd5b600082821115611560576040805162461bcd60e51b815260206004820152601e60248201527f536166654d6174683a207375627472616374696f6e206f766572666c6f770000604482015290519081900360640190fd5b508082035b92915050565b6000836001600160a01b0316856001600160a01b0316111561158b579293925b846001600160a01b0316866001600160a01b0316116115b6576115af858585611a24565b9050610cd6565b836001600160a01b0316866001600160a01b031610156116185760006115dd878686611a24565b905060006115ec878986611a90565b9050806001600160801b0316826001600160801b03161061160d578061160f565b815b92505050610cd6565b610cd3858584611a90565b6000808460020b8660020b12156116fc5773__$a98c5df505b68ab2f483703658c95acb30$__632c32d4b661165787611ade565b61166087611ade565b8660006040518563ffffffff1660e01b815260040180856001600160a01b03168152602001846001600160a01b03168152602001836001600160801b03168152602001821515815260200194505050505060206040518083038186803b1580156116c957600080fd5b505af41580156116dd573d6000803e3d6000fd5b505050506040513d60208110156116f357600080fd5b5051915061195a565b8360020b8660020b12156118965773__$a98c5df505b68ab2f483703658c95acb30$__632c32d4b68861172e87611ade565b8660006040518563ffffffff1660e01b815260040180856001600160a01b03168152602001846001600160a01b03168152602001836001600160801b03168152602001821515815260200194505050505060206040518083038186803b15801561179757600080fd5b505af41580156117ab573d6000803e3d6000fd5b505050506040513d60208110156117c157600080fd5b5051915073__$a98c5df505b68ab2f483703658c95acb30$__6348a0c5bd6117e887611ade565b604080517fffffffff0000000000000000000000000000000000000000000000000000000060e085901b1681526001600160a01b039283166004820152918b1660248301526001600160801b038716604483015260006064830152516084808301926020929190829003018186803b15801561186357600080fd5b505af4158015611877573d6000803e3d6000fd5b505050506040513d602081101561188d57600080fd5b5051905061195a565b73__$a98c5df505b68ab2f483703658c95acb30$__6348a0c5bd6118b987611ade565b6118c287611ade565b8660006040518563ffffffff1660e01b815260040180856001600160a01b03168152602001846001600160a01b03168152602001836001600160801b03168152602001821515815260200194505050505060206040518083038186803b15801561192b57600080fd5b505af415801561193f573d6000803e3d6000fd5b505050506040513d602081101561195557600080fd5b505190505b9550959350505050565b60008261197357506000611565565b8282028284828161198057fe5b0414610f4b5760405162461bcd60e51b81526004018080602001828103825260218152602001806128f86021913960400191505060405180910390fd5b6000808211611a13576040805162461bcd60e51b815260206004820152601a60248201527f536166654d6174683a206469766973696f6e206279207a65726f000000000000604482015290519081900360640190fd5b818381611a1c57fe5b049392505050565b6000826001600160a01b0316846001600160a01b03161115611a44579192915b6000611a70856001600160a01b0316856001600160a01b03166c01000000000000000000000000611e1d565b9050610cd6611a8b84838888036001600160a01b0316611e1d565b611ecc565b6000826001600160a01b0316846001600160a01b03161115611ab0579192915b611ad6611a8b836c010000000000000000000000008787036001600160a01b0316611e1d565b949350505050565b60008060008360020b12611af5578260020b611afd565b8260020b6000035b9050620d89e8811115611b3b576040805162461bcd60e51b81526020600482015260016024820152601560fa1b604482015290519081900360640190fd5b600060018216611b5c57700100000000000000000000000000000000611b6e565b6ffffcb933bd6fad37aa2d162d1a5940015b70ffffffffffffffffffffffffffffffffff1690506002821615611ba2576ffff97272373d413259a46990580e213a0260801c5b6004821615611bc1576ffff2e50f5f656932ef12357cf3c7fdcc0260801c5b6008821615611be0576fffe5caca7e10e4e61c3624eaa0941cd00260801c5b6010821615611bff576fffcb9843d60f6159c9db58835c9266440260801c5b6020821615611c1e576fff973b41fa98c081472e6896dfb254c00260801c5b6040821615611c3d576fff2ea16466c96a3843ec78b326b528610260801c5b6080821615611c5c576ffe5dee046a99a2a811c461f1969c30530260801c5b610100821615611c7c576ffcbe86c7900a88aedcffc83b479aa3a40260801c5b610200821615611c9c576ff987a7253ac413176f2b074cf7815e540260801c5b610400821615611cbc576ff3392b0822b70005940c7a398e4b70f30260801c5b610800821615611cdc576fe7159475a2c29b7443b29c7fa6e889d90260801c5b611000821615611cfc576fd097f3bdfd2022b8845ad8f792aa58250260801c5b612000821615611d1c576fa9f746462d870fdf8a65dc1f90e061e50260801c5b614000821615611d3c576f70d869a156d2a1b890bb3df62baf32f70260801c5b618000821615611d5c576f31be135f97d08fd981231505542fcfa60260801c5b62010000821615611d7d576f09aa508b5b7a84e1c677de54f3e99bc90260801c5b62020000821615611d9d576e5d6af8dedb81196699c329225ee6040260801c5b62040000821615611dbc576d2216e584f5fa1ea926041bedfe980260801c5b62080000821615611dd9576b048a170391f7dc42444e8fa20260801c5b60008460020b1315611df4578060001981611df057fe5b0490505b640100000000810615611e08576001611e0b565b60005b60ff16602082901c0192505050919050565b6000808060001985870986860292508281109083900303905080611e535760008411611e4857600080fd5b508290049050610f4b565b808411611e5f57600080fd5b6000848688096000868103871696879004966002600389028118808a02820302808a02820302808a02820302808a02820302808a02820302808a02909103029181900381900460010186841190950394909402919094039290920491909117919091029150509392505050565b806001600160801b0381168114611ee257600080fd5b919050565b8035611ee281612873565b8051611ee281612873565b8035611ee28161288b565b8035611ee281612899565b8051611ee281612899565b8035611ee2816128a8565b8051611ee2816128a8565b805161ffff81168114611ee257600080fd5b805162ffffff81168114611ee257600080fd5b600060208284031215611f6a578081fd5b8135610f4b81612873565b600060208284031215611f86578081fd5b8151610f4b81612873565b60008060408385031215611fa3578081fd5b8235611fae81612873565b91506020830135611fbe81612873565b809150509250929050565b6000806000806000808688036101e0811215611fe3578283fd5b8735611fee81612873565b96506020880135611ffe81612873565b9550604088013561200e81612873565b9450606088013561201e81612873565b9350610140607f1982011215612032578283fd5b506080870191506101c08701356120488161288b565b809150509295509295509295565b60008060008060008060008789036101a0811215612072578182fd5b883561207d81612873565b9750602089013561208d81612873565b9650604089013561209d81612873565b955060608901356120ad81612873565b94506080890135935060e0609f19820112156120c7578182fd5b5060405160e0810181811067ffffffffffffffff821117156120e557fe5b6040526120f460a08a01611ee7565b815260c089810135602083015260e08a013560408301526101008a013560608301526101208a013560808301526101408a013560a08301526101608a01359082015291506121456101808901611efd565b905092959891949750929550565b60008060008060008060c0878903121561216b578384fd5b863561217681612873565b9550602087013561218681612873565b9450604087013561219681612873565b959894975094956060810135955060808101359460a0909101359350915050565b60008060008385036101208112156121cd578182fd5b84356121d881612873565b935060208501356121e881612873565b925060e0603f19820112156121fb578182fd5b5060405160e0810181811067ffffffffffffffff8211171561221957fe5b806040525061222a60408601611ee7565b8152606085013560208201526080850135604082015260a0850135606082015260c0850135608082015261226060e08601611f08565b60a08201526122726101008601611f08565b60c0820152809150509250925092565b600080600080600060a08688031215612299578283fd5b85356122a481612873565b945060208601356122b481612873565b94979496505050506040830135926060810135926080909101359150565b600080600083850360e08112156122e7578182fd5b84356122f281612873565b935060a0601f1982011215612305578182fd5b5060405160a0810181811067ffffffffffffffff8211171561232357fe5b806040525060208501358152604085013560208201526060850135604082015261234f60808601611f1e565b606082015261236060a08601611f1e565b6080820152915061237360c08501611efd565b90509250925092565b60008060008060008060c08789031215612394578384fd5b863561239f81612873565b9550602087013594506040870135935060608701356123bd81612899565b925060808701356123cd81612899565b915060a08701356120488161288b565b6000602082840312156123ee578081fd5b8151610f4b8161288b565b60006020828403121561240a578081fd5b8135610f4b81612899565b600080600060608486031215612429578081fd5b8351612434816128a8565b602085015160409095015190969495509392505050565b600080600080600080600060e0888a031215612465578081fd5b875161247081612873565b602089015190975061248181612899565b955061248f60408901611f34565b945061249d60608901611f34565b93506124ab60808901611f34565b925060a088015160ff811681146124c0578182fd5b60c08901519092506124d18161288b565b8091505092959891949750929550565b6000602082840312156124f2578081fd5b610f4b82611f46565b60006020828403121561250c578081fd5b5051919050565b60008060008060808587031215612528578182fd5b84519350602085015161253a816128a8565b6040860151606090960151949790965092505050565b60008060408385031215612562578182fd5b505080516020909101519092909150565b6000806000806000806000806000806000806101808d8f031215612595578586fd5b8c516bffffffffffffffffffffffff811681146125b0578687fd5b9b506125be60208e01611ef2565b9a506125cc60408e01611ef2565b99506125da60608e01611ef2565b98506125e860808e01611f46565b97506125f660a08e01611f13565b965061260460c08e01611f13565b955061261260e08e01611f29565b94506101008d015193506101208d015192506126316101408e01611f29565b91506126406101608e01611f29565b90509295989b509295989b509295989b565b6001600160a01b03169052565b60020b9052565b62ffffff169052565b6001600160a01b0391909116815260200190565b6001600160a01b03929092168252602082015260400190565b6001600160a01b039384168152919092166020820152604081019190915260600190565b60029190910b815260200190565b815181526020808301516001600160a01b0316908201526040808301516001600160801b0390811691830191909152606092830151169181019190915260800190565b600060a082019050825182526001600160801b03602084015116602083015260408301516040830152606083015160608301526080830151608083015292915050565b600060c082019050825182526020830151602083015260408301516040830152606083015160608301526080830151608083015260a083015160a083015292915050565b6000610160820190506127ac828451612652565b60208301516127be6020840182612652565b5060408301516127d16040840182612666565b5060608301516127e4606084018261265f565b5060808301516127f7608084018261265f565b5060a083015160a083015260c083015160c083015260e083015160e08301526101008084015181840152506101208084015161283582850182612652565b505061014092830151919092015290565b90815260200190565b918252602082015260400190565b9283526020830191909152604082015260600190565b6001600160a01b038116811461288857600080fd5b50565b801515811461288857600080fd5b8060020b811461288857600080fd5b6001600160801b038116811461288857600080fdfe416464726573733a20756e61626c6520746f2073656e642076616c75652c20726563697069656e74206d61792068617665207265766572746564536166654d6174683a206d756c7469706c69636174696f6e206f766572666c6f77a2646970667358221220cfb89b72f5833964391283454a5a095d88e171c58035cad9299687278c762ec164736f6c63430007060033",
  "libraries": {
    "TickMathExternal": "0x8f92cfB1BF6eD1ce79F2E8Eb0DC96e0F3b61276D",
    "SqrtPriceMathPartial": "0xb9127F2e97F6816DCd7b85d8617B7AcFe5E15419"
  },
  "devdoc": {
    "kind": "dev",
    "methods": {
      "burnWithdrawFromVault(address,address,uint256,uint256,uint256)": {
        "params": {
          "_collateralToWithdraw": "amount of collateral to withdraw",
          "_controller": "controller address",
          "_vaultId": "vault Id",
          "_wPowerPerpToBurn": "amount of wPowerPerp to burn",
          "_weth": "weth address"
        }
      },
      "checkClosedLp(address,address,address,uint256,uint256,uint256)": {
        "params": {
          "_controller": "controller address",
          "_liquidityPercentage": "percentage of liquidity that was closed from total amount",
          "_nonfungiblePositionManager": "Uni NonFungiblePositionManager address",
          "_tokenId": "Uni LP NFT id",
          "_user": "user address",
          "_vaultId": "vault ID"
        }
      },
      "closeUniLp(address,ControllerHelperDataType.CloseUniLpParams,bool)": {
        "params": {
          "_isWethToken0": "bool variable indicate if Weth token is token0 in Uniswap v3 weth/wPowerPerp pool",
          "_nonfungiblePositionManager": "Uni NonFungiblePositionManager address",
          "_params": "ControllerHelperDataType.CloseUniLpParams struct "
        },
        "returns": {
          "_0": "withdrawn wPowerPerp and WETH amounts"
        }
      },
      "getAmountsToLp(address,uint256,uint256,int24,int24,bool)": {
        "params": {
          "_collateralToLp": "amount of ETH collateral to LP",
          "_isWethToken0": "bool variable indicate if Weth token is token0 in Uniswap v3 weth/wPowerPerp pool",
          "_lowerTick": "LP position lower tick",
          "_upperTick": "LP position upper tick",
          "_wPowerPerpAmount": "amount of wPowerPerp to LP",
          "_wPowerPerpPool": "wPowerPerp Uni v3 pool (oSQTH/ETH pool)"
        },
        "returns": {
          "_0": "exact amount0 and amount1 to be LPed"
        }
      },
      "increaseLpLiquidity(address,address,address,address,uint256,ControllerHelperDataType.IncreaseLpLiquidityParams,bool)": {
        "params": {
          "_controller": "controller address",
          "_increaseLiquidityParam": "ControllerHelperDataType.IncreaseLpLiquidityParams struct",
          "_isWethToken0": "bool variable indicate if Weth token is token0 in Uniswap v3 weth/wPowerPerp pool",
          "_nonfungiblePositionManager": "Uni NonFungiblePositionManager address",
          "_vaultId": "vault Id"
        }
      },
      "lpWPowerPerpPool(address,address,ControllerHelperDataType.LpWPowerPerpPoolParams)": {
        "params": {
          "_nonfungiblePositionManager": "Uni NonFungiblePositionManager address",
          "_params": "ControllerHelperDataType.LpWPowerPerpPoolParams struct",
          "_wPowerPerpPool": "wPowerpPerp pool address in Uni v3"
        }
      },
      "mintAndLp(address,address,address,address,ControllerHelperDataType.MintAndLpParams,bool)": {
        "params": {
          "_controller": "wPowerPerp controller address",
          "_isWethToken0": "bool variable indicate if Weth token is token0 in Uniswap v3 weth/wPowerPerp pool",
          "_mintAndLpParams": "ControllerHelperDataType.MintAndLpParams struct",
          "_nonfungiblePositionManager": "Uni NonFungiblePositionManager address"
        },
        "returns": {
          "_0": "_vaultId and tokenId"
        }
      },
      "mintDepositInVault(address,address,uint256,uint256,uint256)": {
        "params": {
          "_collateralToDeposit": "amount of collateral to deposit",
          "_controller": "controller address",
          "_vaultId": "vault Id",
          "_wPowerPerpToMint": "amount of wPowerPerp to mint",
          "_weth": "WETH address"
        }
      },
      "sendBack(address,address)": {
        "params": {
          "_wPowerPerp": "wPowerPerp address",
          "_weth": "WETH address"
        }
      }
    },
    "version": 1
  },
  "userdoc": {
    "kind": "user",
    "methods": {
      "burnWithdrawFromVault(address,address,uint256,uint256,uint256)": {
        "notice": "burn wPowerPerp or just withdraw collateral from vault (or both)"
      },
      "checkClosedLp(address,address,address,uint256,uint256,uint256)": {
        "notice": "transfer back LP NFT to user if remaining liquidity == 0 and no vault used, or deposit back into vault if still have liquidity"
      },
      "closeUniLp(address,ControllerHelperDataType.CloseUniLpParams,bool)": {
        "notice": "fully or partially close Uni v3 LP"
      },
      "getAmountsToLp(address,uint256,uint256,int24,int24,bool)": {
        "notice": "get exact amount0 and amount1 that will be LPed on Uni v3 pool, based on initial _collateralToLp and _wPowerPerpAmount"
      },
      "increaseLpLiquidity(address,address,address,address,uint256,ControllerHelperDataType.IncreaseLpLiquidityParams,bool)": {
        "notice": "increase liquidityin Uni v3 position"
      },
      "lpWPowerPerpPool(address,address,ControllerHelperDataType.LpWPowerPerpPoolParams)": {
        "notice": "LP into Uniswap V3 pool"
      },
      "mintAndLp(address,address,address,address,ControllerHelperDataType.MintAndLpParams,bool)": {
        "notice": "minth amount of wPowerPerp and LP in weth/wPowerPerp pool"
      },
      "mintDepositInVault(address,address,uint256,uint256,uint256)": {
        "notice": "mint wPowerPerp in vault"
      },
      "sendBack(address,address)": {
        "notice": "send ETH and wPowerPerp"
      }
    },
    "version": 1
  },
  "storageLayout": {
    "storage": [],
    "types": null
  }
}