{
  "address": "0x46f09e866623a9CD3d316b7392937Ce78Ec834a7",
  "abi": [
    {
      "inputs": [
        {
          "internalType": "address",
          "name": "_crab",
          "type": "address"
        }
      ],
      "stateMutability": "nonpayable",
      "type": "constructor"
    },
    {
      "anonymous": false,
      "inputs": [
        {
          "indexed": true,
          "internalType": "address",
          "name": "depositor",
          "type": "address"
        },
        {
          "indexed": false,
          "internalType": "uint256",
          "name": "crabAmount",
          "type": "uint256"
        },
        {
          "indexed": false,
          "internalType": "uint256",
          "name": "wSqueethAmount",
          "type": "uint256"
        },
        {
          "indexed": false,
          "internalType": "uint256",
          "name": "depositedAmount",
          "type": "uint256"
        },
        {
          "indexed": false,
          "internalType": "uint256",
          "name": "executedPrice",
          "type": "uint256"
        },
        {
          "indexed": false,
          "internalType": "address",
          "name": "trader",
          "type": "address"
        }
      ],
      "name": "DepositOTC",
      "type": "event"
    },
    {
      "anonymous": false,
      "inputs": [
        {
          "indexed": true,
          "internalType": "address",
          "name": "depositor",
          "type": "address"
        },
        {
          "indexed": false,
          "internalType": "uint256",
          "name": "crabAmount",
          "type": "uint256"
        },
        {
          "indexed": false,
          "internalType": "uint256",
          "name": "ethSent",
          "type": "uint256"
        },
        {
          "indexed": false,
          "internalType": "uint256",
          "name": "wSqueethAmount",
          "type": "uint256"
        },
        {
          "indexed": false,
          "internalType": "uint256",
          "name": "executedPrice",
          "type": "uint256"
        },
        {
          "indexed": false,
          "internalType": "address",
          "name": "trader",
          "type": "address"
        }
      ],
      "name": "WithdrawOTC",
      "type": "event"
    },
    {
      "inputs": [],
      "name": "controller",
      "outputs": [
        {
          "internalType": "address",
          "name": "",
          "type": "address"
        }
      ],
      "stateMutability": "view",
      "type": "function"
    },
    {
      "inputs": [],
      "name": "crab",
      "outputs": [
        {
          "internalType": "address",
          "name": "",
          "type": "address"
        }
      ],
      "stateMutability": "view",
      "type": "function"
    },
    {
      "inputs": [
        {
          "internalType": "uint256",
          "name": "_totalEth",
          "type": "uint256"
        },
        {
          "components": [
            {
              "internalType": "address",
              "name": "initiator",
              "type": "address"
            },
            {
              "internalType": "address",
              "name": "trader",
              "type": "address"
            },
            {
              "internalType": "uint256",
              "name": "quantity",
              "type": "uint256"
            },
            {
              "internalType": "uint256",
              "name": "price",
              "type": "uint256"
            },
            {
              "internalType": "bool",
              "name": "isBuying",
              "type": "bool"
            },
            {
              "internalType": "uint256",
              "name": "expiry",
              "type": "uint256"
            },
            {
              "internalType": "uint256",
              "name": "nonce",
              "type": "uint256"
            },
            {
              "internalType": "uint8",
              "name": "v",
              "type": "uint8"
            },
            {
              "internalType": "bytes32",
              "name": "r",
              "type": "bytes32"
            },
            {
              "internalType": "bytes32",
              "name": "s",
              "type": "bytes32"
            }
          ],
          "internalType": "struct CrabOTC.Order",
          "name": "_order",
          "type": "tuple"
        }
      ],
      "name": "deposit",
      "outputs": [],
      "stateMutability": "payable",
      "type": "function"
    },
    {
      "inputs": [
        {
          "internalType": "address",
          "name": "",
          "type": "address"
        },
        {
          "internalType": "uint256",
          "name": "",
          "type": "uint256"
        }
      ],
      "name": "nonces",
      "outputs": [
        {
          "internalType": "bool",
          "name": "",
          "type": "bool"
        }
      ],
      "stateMutability": "view",
      "type": "function"
    },
    {
      "inputs": [
        {
          "internalType": "uint256",
          "name": "_nonce",
          "type": "uint256"
        }
      ],
      "name": "setNonceTrue",
      "outputs": [],
      "stateMutability": "nonpayable",
      "type": "function"
    },
    {
      "inputs": [],
      "name": "wPowerPerp",
      "outputs": [
        {
          "internalType": "address",
          "name": "",
          "type": "address"
        }
      ],
      "stateMutability": "view",
      "type": "function"
    },
    {
      "inputs": [],
      "name": "weth",
      "outputs": [
        {
          "internalType": "address",
          "name": "",
          "type": "address"
        }
      ],
      "stateMutability": "view",
      "type": "function"
    },
    {
      "inputs": [
        {
          "internalType": "uint256",
          "name": "_crabAmount",
          "type": "uint256"
        },
        {
          "internalType": "uint256",
          "name": "_maxPrice",
          "type": "uint256"
        },
        {
          "components": [
            {
              "internalType": "address",
              "name": "initiator",
              "type": "address"
            },
            {
              "internalType": "address",
              "name": "trader",
              "type": "address"
            },
            {
              "internalType": "uint256",
              "name": "quantity",
              "type": "uint256"
            },
            {
              "internalType": "uint256",
              "name": "price",
              "type": "uint256"
            },
            {
              "internalType": "bool",
              "name": "isBuying",
              "type": "bool"
            },
            {
              "internalType": "uint256",
              "name": "expiry",
              "type": "uint256"
            },
            {
              "internalType": "uint256",
              "name": "nonce",
              "type": "uint256"
            },
            {
              "internalType": "uint8",
              "name": "v",
              "type": "uint8"
            },
            {
              "internalType": "bytes32",
              "name": "r",
              "type": "bytes32"
            },
            {
              "internalType": "bytes32",
              "name": "s",
              "type": "bytes32"
            }
          ],
          "internalType": "struct CrabOTC.Order",
          "name": "_order",
          "type": "tuple"
        }
      ],
      "name": "withdraw",
      "outputs": [],
      "stateMutability": "payable",
      "type": "function"
    },
    {
      "stateMutability": "payable",
      "type": "receive"
    }
  ],
  "transactionHash": "0x455d96748620ae412d707d8d4f0d2c15f8218dee8d6751828fb4a8c66777546f",
  "args": [
    "0x3b960e47784150f5a63777201ee2b15253d713e8"
  ],
  "solcInputHash": "7e01b6167043dbf3e74793807f36cbc7",
  "bytecode": "0x6101a06040523480156200001257600080fd5b5060405162001fce38038062001fce833981016040819052620000359162000454565b6040805180820182526007815266437261624f544360c81b6020808301918252835180850190945260018452601960f91b908401528151902060c08190527fad7c5bef027816a800da1736444fb58a807ef4c9603b7848673f7e3a68eb14a560e08190529192917f8b73c3c69bb8fe3d512ecc4cf759cc79239f7b179b0ffacaa9a75d522b39400f620000c7620003ec565b60a052620000d7818484620003f0565b60805261010052505050506001600160a01b038116620001145760405162461bcd60e51b81526004016200010b90620004bf565b60405180910390fd5b806001600160a01b0316610120816001600160a01b031660601b81525050806001600160a01b0316633fc8cef36040518163ffffffff1660e01b815260040160206040518083038186803b1580156200016c57600080fd5b505afa15801562000181573d6000803e3d6000fd5b505050506040513d601f19601f82011682018060405250810190620001a7919062000454565b6001600160a01b0316610140816001600160a01b031660601b81525050806001600160a01b0316633dcb0c5d6040518163ffffffff1660e01b815260040160206040518083038186803b158015620001fe57600080fd5b505afa15801562000213573d6000803e3d6000fd5b505050506040513d601f19601f8201168201806040525081019062000239919062000454565b6001600160a01b0316610160816001600160a01b031660601b81525050806001600160a01b0316637f07b1306040518163ffffffff1660e01b815260040160206040518083038186803b1580156200029057600080fd5b505afa158015620002a5573d6000803e3d6000fd5b505050506040513d601f19601f82011682018060405250810190620002cb919062000454565b6001600160a01b0316610180816001600160a01b031660601b81525050806001600160a01b0316637f07b1306040518163ffffffff1660e01b815260040160206040518083038186803b1580156200032257600080fd5b505afa15801562000337573d6000803e3d6000fd5b505050506040513d601f19601f820116820180604052508101906200035d919062000454565b6001600160a01b031663095ea7b3826000196040518363ffffffff1660e01b81526004016200038e929190620004a6565b602060405180830381600087803b158015620003a957600080fd5b505af1158015620003be573d6000803e3d6000fd5b505050506040513d601f19601f82011682018060405250810190620003e4919062000484565b5050620004f6565b4690565b6000838383620003ff620003ec565b3060405160200180868152602001858152602001848152602001838152602001826001600160a01b03168152602001955050505050506040516020818303038152906040528051906020012090509392505050565b60006020828403121562000466578081fd5b81516001600160a01b03811681146200047d578182fd5b9392505050565b60006020828403121562000496578081fd5b815180151581146200047d578182fd5b6001600160a01b03929092168252602082015260400190565b60208082526014908201527f496e76616c696420637261622061646472657373000000000000000000000000604082015260600190565b60805160a05160c05160e051610100516101205160601c6101405160601c6101605160601c6101805160601c611a16620005b8600039806103b5528061066c52806109fd525080610b0f525080608f528061021252806104db5280610560528061072252806107c352508060c15280610236528061030e5280610457528061082c52806108b652806109595280610c705280610d095280610edb5250806113685250806113aa52508061138952508061130f52508061133f5250611a166000f3fe60806040526004361061007f5760003560e01c80636b085dab1161004e5780636b085dab1461019c5780637f07b130146101af578063ebd5fcbc146101c4578063f77c4791146101d75761010a565b80633d65fdac1461010f5780633fc8cef31461012f5780634285512d1461015a578063502e1a161461016f5761010a565b3661010a57336001600160a01b037f00000000000000000000000000000000000000000000000000000000000000001614806100e35750336001600160a01b037f000000000000000000000000000000000000000000000000000000000000000016145b6101085760405162461bcd60e51b81526004016100ff90611757565b60405180910390fd5b005b600080fd5b34801561011b57600080fd5b5061010861012a366004611590565b6101ec565b34801561013b57600080fd5b50610144610210565b6040516101519190611623565b60405180910390f35b34801561016657600080fd5b50610144610234565b34801561017b57600080fd5b5061018f61018a366004611504565b610258565b6040516101519190611674565b6101086101aa3660046115ed565b610275565b3480156101bb57600080fd5b5061014461066a565b6101086101d23660046115c0565b61068e565b3480156101e357600080fd5b50610144610b0d565b3360009081526020818152604080832093835292905220805460ff19166001179055565b7f000000000000000000000000000000000000000000000000000000000000000081565b7f000000000000000000000000000000000000000000000000000000000000000081565b600060208181529281526040808220909352908152205460ff1681565b61027e81610b31565b8060800151156102a05760405162461bcd60e51b81526004016100ff90611875565b60006102ab84610c6b565b905080826040015110156102d15760405162461bcd60e51b81526004016100ff906117fc565b82826060015111156102f55760405162461bcd60e51b81526004016100ff906116c3565b81516040516323b872dd60e01b81526001600160a01b037f000000000000000000000000000000000000000000000000000000000000000016916323b872dd91610346919030908990600401611637565b602060405180830381600087803b15801561036057600080fd5b505af1158015610374573d6000803e3d6000fd5b505050506040513d601f19601f82011682018060405250810190610398919061156d565b5060208201516040516323b872dd60e01b81526001600160a01b037f000000000000000000000000000000000000000000000000000000000000000016916323b872dd916103ed919030908690600401611637565b602060405180830381600087803b15801561040757600080fd5b505af115801561041b573d6000803e3d6000fd5b505050506040513d601f19601f8201168201806040525081019061043f919061156d565b50604051632e1a7d4d60e01b81526001600160a01b037f00000000000000000000000000000000000000000000000000000000000000001690632e1a7d4d9061048c9087906004016118e3565b600060405180830381600087803b1580156104a657600080fd5b505af11580156104ba573d6000803e3d6000fd5b5050505060006104d7836060015183610db190919063ffffffff16565b90507f00000000000000000000000000000000000000000000000000000000000000006001600160a01b031663d0e30db0826040518263ffffffff1660e01b81526004016000604051808303818588803b15801561053457600080fd5b505af1158015610548573d6000803e3d6000fd5b50505050602084015160405163a9059cbb60e01b81527f00000000000000000000000000000000000000000000000000000000000000006001600160a01b0316925063a9059cbb9161059e91859060040161165b565b602060405180830381600087803b1580156105b857600080fd5b505af11580156105cc573d6000803e3d6000fd5b505050506040513d601f19601f820116820180604052508101906105f0919061156d565b5047801561060d57835161060d906001600160a01b031682610dea565b83600001516001600160a01b03167f5a92f4ef9bab204b0c044b0a8640b372b16c8786c7778ea769010ee2dbb3a2b78783868860600151896020015160405161065a9594939291906118ec565b60405180910390a2505050505050565b7f000000000000000000000000000000000000000000000000000000000000000081565b61069781610b31565b80608001516106b85760405162461bcd60e51b81526004016100ff90611720565b3460006106c484610ed4565b905080836040015110156106ea5760405162461bcd60e51b81526004016100ff906117fc565b6000610703846060015183610db190919063ffffffff16565b60208501516040516323b872dd60e01b81529192506001600160a01b037f000000000000000000000000000000000000000000000000000000000000000016916323b872dd916107599130908690600401611637565b602060405180830381600087803b15801561077357600080fd5b505af1158015610787573d6000803e3d6000fd5b505050506040513d601f19601f820116820180604052508101906107ab919061156d565b50604051632e1a7d4d60e01b81526001600160a01b037f00000000000000000000000000000000000000000000000000000000000000001690632e1a7d4d906107f89084906004016118e3565b600060405180830381600087803b15801561081257600080fd5b505af1158015610826573d6000803e3d6000fd5b505050507f00000000000000000000000000000000000000000000000000000000000000006001600160a01b031663d0e30db0866040518263ffffffff1660e01b81526004016000604051808303818588803b15801561088557600080fd5b505af1158015610899573d6000803e3d6000fd5b50506040516370a0823160e01b8152600093506001600160a01b037f00000000000000000000000000000000000000000000000000000000000000001692506370a0823191506108ed903090600401611623565b60206040518083038186803b15801561090557600080fd5b505afa158015610919573d6000803e3d6000fd5b505050506040513d601f19601f8201168201806040525081019061093d91906115a8565b855160405163a9059cbb60e01b81529192506001600160a01b037f0000000000000000000000000000000000000000000000000000000000000000169163a9059cbb9161098e91859060040161165b565b602060405180830381600087803b1580156109a857600080fd5b505af11580156109bc573d6000803e3d6000fd5b505050506040513d601f19601f820116820180604052508101906109e0919061156d565b50602085015160405163a9059cbb60e01b81526001600160a01b037f0000000000000000000000000000000000000000000000000000000000000000169163a9059cbb91610a339190879060040161165b565b602060405180830381600087803b158015610a4d57600080fd5b505af1158015610a61573d6000803e3d6000fd5b505050506040513d601f19601f82011682018060405250810190610a85919061156d565b50478015610aaf57610a978582610f8f565b8651909550610aaf906001600160a01b031682610dea565b85600001516001600160a01b03167f5adefc5de3a1f616bb6bdef991cbaa3ae6856e70e945470a3fa9a5cd2240a5728386888a606001518b60200151604051610afc9594939291906118ec565b60405180910390a250505050505050565b7f000000000000000000000000000000000000000000000000000000000000000081565b80516001600160a01b03163314610b5a5760405162461bcd60e51b81526004016100ff906117c5565b610b6c81602001518260c00151610fed565b60007f70fc7ee465545e5b593d2f16015e87fa49a67ad927583bf82cced2fdc327a573826000015183602001518460400151856060015186608001518760a001518860c00151604051602001610bc998979695949392919061167f565b6040516020818303038152906040528051906020012090506000610bec8261105d565b90506000610c0a828560e001518661010001518761012001516110a9565b905083602001516001600160a01b0316816001600160a01b031614610c415760405162461bcd60e51b81526004016100ff906118ac565b428460a001511015610c655760405162461bcd60e51b81526004016100ff9061183e565b50505050565b6000807f00000000000000000000000000000000000000000000000000000000000000006001600160a01b031663533092ef6040518163ffffffff1660e01b815260040160806040518083038186803b158015610cc757600080fd5b505afa158015610cdb573d6000803e3d6000fd5b505050506040513d601f19601f82011682018060405250810190610cff919061152f565b9350505050610da87f00000000000000000000000000000000000000000000000000000000000000006001600160a01b03166318160ddd6040518163ffffffff1660e01b815260040160206040518083038186803b158015610d6057600080fd5b505afa158015610d74573d6000803e3d6000fd5b505050506040513d601f19601f82011682018060405250810190610d9891906115a8565b610da28386610db1565b90611227565b9150505b919050565b6000670de0b6b3a7640000610ddb610dc98585611247565b6002670de0b6b3a76400005b046112b3565b81610de257fe5b049392505050565b80471015610e3f576040805162461bcd60e51b815260206004820152601d60248201527f416464726573733a20696e73756666696369656e742062616c616e6365000000604482015290519081900360640190fd5b6040516000906001600160a01b0384169083908381818185875af1925050503d8060008114610e8a576040519150601f19603f3d011682016040523d82523d6000602084013e610e8f565b606091505b5050905080610ecf5760405162461bcd60e51b815260040180806020018281038252603a815260200180611963603a913960400191505060405180910390fd5b505050565b60008060007f00000000000000000000000000000000000000000000000000000000000000006001600160a01b031663533092ef6040518163ffffffff1660e01b815260040160806040518083038186803b158015610f3257600080fd5b505afa158015610f46573d6000803e3d6000fd5b505050506040513d601f19601f82011682018060405250810190610f6a919061152f565b935093505050610f8782610da28387610db190919063ffffffff16565b949350505050565b80820382811115610fe7576040805162461bcd60e51b815260206004820152601560248201527f64732d6d6174682d7375622d756e646572666c6f770000000000000000000000604482015290519081900360640190fd5b92915050565b6001600160a01b03821660009081526020818152604080832084845290915290205460ff161561102f5760405162461bcd60e51b81526004016100ff9061178e565b6001600160a01b0390911660009081526020818152604080832093835292905220805460ff19166001179055565b600061106761130b565b82604051602001808061190160f01b81525060020183815260200182815260200192505050604051602081830303815290604052805190602001209050919050565b60007f7fffffffffffffffffffffffffffffff5d576e7357a4501ddfe92f46681b20a082111561110a5760405162461bcd60e51b815260040180806020018281038252602281526020018061199d6022913960400191505060405180910390fd5b8360ff16601b148061111f57508360ff16601c145b61115a5760405162461bcd60e51b81526004018080602001828103825260228152602001806119bf6022913960400191505060405180910390fd5b600060018686868660405160008152602001604052604051808581526020018460ff1681526020018381526020018281526020019450505050506020604051602081039080840390855afa1580156111b6573d6000803e3d6000fd5b5050604051601f1901519150506001600160a01b03811661121e576040805162461bcd60e51b815260206004820152601860248201527f45434453413a20696e76616c6964207369676e61747572650000000000000000604482015290519081900360640190fd5b95945050505050565b600081610ddb61123f85670de0b6b3a7640000611247565b600285610dd5565b60008115806112625750508082028282828161125f57fe5b04145b610fe7576040805162461bcd60e51b815260206004820152601460248201527f64732d6d6174682d6d756c2d6f766572666c6f77000000000000000000000000604482015290519081900360640190fd5b80820182811015610fe7576040805162461bcd60e51b815260206004820152601460248201527f64732d6d6174682d6164642d6f766572666c6f77000000000000000000000000604482015290519081900360640190fd5b60007f00000000000000000000000000000000000000000000000000000000000000006113366113d4565b141561136357507f00000000000000000000000000000000000000000000000000000000000000006113d1565b6113ce7f00000000000000000000000000000000000000000000000000000000000000007f00000000000000000000000000000000000000000000000000000000000000007f00000000000000000000000000000000000000000000000000000000000000006113d8565b90505b90565b4690565b60008383836113e56113d4565b3060405160200180868152602001858152602001848152602001838152602001826001600160a01b03168152602001955050505050506040516020818303038152906040528051906020012090509392505050565b8035610dac8161193c565b8035610dac81611954565b6000610140808385031215611463578182fd5b61146c81611918565b9150506114788261143a565b81526114866020830161143a565b602082015260408201356040820152606082013560608201526114ab60808301611445565b608082015260a082013560a082015260c082013560c08201526114d060e083016114f3565b60e082015261010080830135818301525061012080830135818301525092915050565b803560ff81168114610dac57600080fd5b60008060408385031215611516578182fd5b82356115218161193c565b946020939093013593505050565b60008060008060808587031215611544578182fd5b845161154f8161193c565b60208601516040870151606090970151919890975090945092505050565b60006020828403121561157e578081fd5b815161158981611954565b9392505050565b6000602082840312156115a1578081fd5b5035919050565b6000602082840312156115b9578081fd5b5051919050565b60008061016083850312156115d3578182fd5b823591506115e48460208501611450565b90509250929050565b60008060006101808486031215611602578283fd5b833592506020840135915061161a8560408601611450565b90509250925092565b6001600160a01b0391909116815260200190565b6001600160a01b039384168152919092166020820152604081019190915260600190565b6001600160a01b03929092168252602082015260400190565b901515815260200190565b9788526001600160a01b03968716602089015294909516604087015260608601929092526080850152151560a084015260c083019190915260e08201526101000190565b60208082526025908201527f4f726465722070726963652069732067726561746572207468616e206d61782060408201527f5072696365000000000000000000000000000000000000000000000000000000606082015260800190565b60208082526015908201527f53686f756c64206265206120627579206f726465720000000000000000000000604082015260600190565b60208082526012908201527f43616e6e6f742072656365697665206574680000000000000000000000000000604082015260600190565b60208082526012908201527f4e6f6e636520616c726561647920757365640000000000000000000000000000604082015260600190565b6020808252601e908201527f496e69746961746f722073686f756c64206265207468652073656e6465720000604082015260600190565b60208082526022908201527f4f72646572207175616e74697479206973206c657373207468616e206e656564604082015261195960f21b606082015260800190565b60208082526011908201527f4f72646572206861732065787069726564000000000000000000000000000000604082015260600190565b60208082526016908201527f53686f756c6420626520612073656c6c206f7264657200000000000000000000604082015260600190565b60208082526017908201527f496e76616c6964206f66666572207369676e6174757265000000000000000000604082015260600190565b90815260200190565b9485526020850193909352604084019190915260608301526001600160a01b0316608082015260a00190565b60405181810167ffffffffffffffff8111828210171561193457fe5b604052919050565b6001600160a01b038116811461195157600080fd5b50565b801515811461195157600080fdfe416464726573733a20756e61626c6520746f2073656e642076616c75652c20726563697069656e74206d6179206861766520726576657274656445434453413a20696e76616c6964207369676e6174757265202773272076616c756545434453413a20696e76616c6964207369676e6174757265202776272076616c7565a26469706673582212201d2a18c600658ce3bf498d028acef51b5c2b5f0ba221307c47af45555e71ecb564736f6c63430007060033",
  "devdoc": {
    "kind": "dev",
    "methods": {
      "deposit(uint256,(address,address,uint256,uint256,bool,uint256,uint256,uint8,bytes32,bytes32))": {
        "details": "Deposit into strategy by selling the minted oSqth",
        "params": {
          "_order": "A signed order to swap the tokens",
          "_totalEth": "Total amount of ETH to deposit value + eth from selling minted oSqth"
        }
      },
      "setNonceTrue(uint256)": {
        "params": {
          "_nonce": "the number to be set true"
        }
      },
      "withdraw(uint256,uint256,(address,address,uint256,uint256,bool,uint256,uint256,uint8,bytes32,bytes32))": {
        "details": "Withdraw from strategy by buying osqth",
        "params": {
          "_crabAmount": "Amount of crab to withdraw",
          "_order": "A signed order to swap the tokens"
        }
      }
    },
    "version": 1
  },
  "userdoc": {
    "kind": "user",
    "methods": {
      "setNonceTrue(uint256)": {
        "notice": "set nonce to true"
      }
    },
    "version": 1
  },
  "storageLayout": {
    "storage": [
      {
        "astId": 22751,
        "contract": "contracts/strategy/CrabOTC.sol:CrabOTC",
        "label": "nonces",
        "offset": 0,
        "slot": "0",
        "type": "t_mapping(t_address,t_mapping(t_uint256,t_bool))"
      }
    ],
    "types": {
      "t_address": {
        "encoding": "inplace",
        "label": "address",
        "numberOfBytes": "20"
      },
      "t_bool": {
        "encoding": "inplace",
        "label": "bool",
        "numberOfBytes": "1"
      },
      "t_mapping(t_address,t_mapping(t_uint256,t_bool))": {
        "encoding": "mapping",
        "key": "t_address",
        "label": "mapping(address => mapping(uint256 => bool))",
        "numberOfBytes": "32",
        "value": "t_mapping(t_uint256,t_bool)"
      },
      "t_mapping(t_uint256,t_bool)": {
        "encoding": "mapping",
        "key": "t_uint256",
        "label": "mapping(uint256 => bool)",
        "numberOfBytes": "32",
        "value": "t_bool"
      },
      "t_uint256": {
        "encoding": "inplace",
        "label": "uint256",
        "numberOfBytes": "32"
      }
    }
  }
}