{
  "address": "0xb9127F2e97F6816DCd7b85d8617B7AcFe5E15419",
  "abi": [
    {
      "inputs": [
        {
          "internalType": "uint160",
          "name": "sqrtRatioAX96",
          "type": "uint160"
        },
        {
          "internalType": "uint160",
          "name": "sqrtRatioBX96",
          "type": "uint160"
        },
        {
          "internalType": "uint128",
          "name": "liquidity",
          "type": "uint128"
        },
        {
          "internalType": "bool",
          "name": "roundUp",
          "type": "bool"
        }
      ],
      "name": "getAmount0Delta",
      "outputs": [
        {
          "internalType": "uint256",
          "name": "amount0",
          "type": "uint256"
        }
      ],
      "stateMutability": "pure",
      "type": "function"
    },
    {
      "inputs": [
        {
          "internalType": "uint160",
          "name": "sqrtRatioAX96",
          "type": "uint160"
        },
        {
          "internalType": "uint160",
          "name": "sqrtRatioBX96",
          "type": "uint160"
        },
        {
          "internalType": "uint128",
          "name": "liquidity",
          "type": "uint128"
        },
        {
          "internalType": "bool",
          "name": "roundUp",
          "type": "bool"
        }
      ],
      "name": "getAmount1Delta",
      "outputs": [
        {
          "internalType": "uint256",
          "name": "amount1",
          "type": "uint256"
        }
      ],
      "stateMutability": "pure",
      "type": "function"
    }
  ],
  "transactionHash": "0x2bdb3fc694628e83855123ddee85e255d1fb5a12955ca7c6905deebcb9d29dd5",
  "args": [],
  "solcInputHash": "fc32ed9e00a9017e491333926bef5473",
  "bytecode": "0x61037c610026600b82828239805160001a60731461001957fe5b30600052607381538281f3fe73000000000000000000000000000000000000000030146080604052600436106100405760003560e01c80632c32d4b61461004557806348a0c5bd146100a7575b600080fd5b6100956004803603608081101561005b57600080fd5b506001600160a01b0381358116916020810135909116906fffffffffffffffffffffffffffffffff604082013516906060013515156100f7565b60408051918252519081900360200190f35b610095600480360360808110156100bd57600080fd5b506001600160a01b0381358116916020810135909116906fffffffffffffffffffffffffffffffff604082013516906060013515156101b4565b6000836001600160a01b0316856001600160a01b03161115610117579293925b7bffffffffffffffffffffffffffffffff000000000000000000000000606084901b166001600160a01b03868603811690871661015357600080fd5b8361018357866001600160a01b03166101768383896001600160a01b0316610251565b8161017d57fe5b046101a9565b6101a961019a8383896001600160a01b0316610301565b886001600160a01b031661033b565b979650505050505050565b6000836001600160a01b0316856001600160a01b031611156101d4579293925b816102135761020e836fffffffffffffffffffffffffffffffff168686036001600160a01b03166c01000000000000000000000000610251565b610248565b610248836fffffffffffffffffffffffffffffffff168686036001600160a01b03166c01000000000000000000000000610301565b95945050505050565b6000808060001985870986860292508281109083900303905080610287576000841161027c57600080fd5b5082900490506102fa565b80841161029357600080fd5b6000848688096000868103871696879004966002600389028118808a02820302808a02820302808a02820302808a02820302808a02820302808a02909103029181900381900460010186841190950394909402919094039290920491909117919091029150505b9392505050565b600061030e848484610251565b90506000828061031a57fe5b84860911156102fa57600019811061033157600080fd5b6001019392505050565b80820491061515019056fea264697066735822122015b1d5e98e518aedb03f0724756a56b09b753efd09a45ae663413fd3cad16d6d64736f6c63430007060033",
  "devdoc": {
    "kind": "dev",
    "methods": {
      "getAmount0Delta(uint160,uint160,uint128,bool)": {
        "details": "Calculates liquidity / sqrt(lower) - liquidity / sqrt(upper), i.e. liquidity * (sqrt(upper) - sqrt(lower)) / (sqrt(upper) * sqrt(lower))",
        "params": {
          "liquidity": "The amount of usable liquidity",
          "roundUp": "Whether to round the amount up or down",
          "sqrtRatioAX96": "A sqrt price",
          "sqrtRatioBX96": "Another sqrt price"
        },
        "returns": {
          "amount0": "Amount of token0 required to cover a position of size liquidity between the two passed prices"
        }
      },
      "getAmount1Delta(uint160,uint160,uint128,bool)": {
        "details": "Calculates liquidity * (sqrt(upper) - sqrt(lower))",
        "params": {
          "liquidity": "The amount of usable liquidity",
          "roundUp": "Whether to round the amount up, or down",
          "sqrtRatioAX96": "A sqrt price",
          "sqrtRatioBX96": "Another sqrt price"
        },
        "returns": {
          "amount1": "Amount of token1 required to cover a position of size liquidity between the two passed prices"
        }
      }
    },
    "title": "Functions based on Q64.96 sqrt price and liquidity",
    "version": 1
  },
  "userdoc": {
    "kind": "user",
    "methods": {
      "getAmount0Delta(uint160,uint160,uint128,bool)": {
        "notice": "Gets the amount0 delta between two prices"
      },
      "getAmount1Delta(uint160,uint160,uint128,bool)": {
        "notice": "Gets the amount1 delta between two prices"
      }
    },
    "notice": "Exposes two functions from @uniswap/v3-core SqrtPriceMath that use square root of price as a Q64.96 and liquidity to compute deltas",
    "version": 1
  },
  "storageLayout": {
    "storage": [],
    "types": null
  }
}