{
    "address": "0x6FBbc7eBd7E421839915e8e4fAcC9947dC32F4dE",
    "abi": [
        {
            "anonymous": false,
            "inputs": [
                {
                    "indexed": false,
                    "internalType": "uint256",
                    "name": "amount",
                    "type": "uint256"
                },
                {
                    "indexed": false,
                    "internalType": "uint256",
                    "name": "vaultId",
                    "type": "uint256"
                }
            ],
            "name": "BurnShort",
            "type": "event"
        },
        {
            "anonymous": false,
            "inputs": [
                {
                    "indexed": false,
                    "internalType": "uint256",
                    "name": "vaultId",
                    "type": "uint256"
                }
            ],
            "name": "CloseVault",
            "type": "event"
        },
        {
            "anonymous": false,
            "inputs": [
                {
                    "indexed": false,
                    "internalType": "uint256",
                    "name": "vaultId",
                    "type": "uint256"
                },
                {
                    "indexed": false,
                    "internalType": "uint256",
                    "name": "amount",
                    "type": "uint256"
                },
                {
                    "indexed": false,
                    "internalType": "uint128",
                    "name": "collateralId",
                    "type": "uint128"
                }
            ],
            "name": "DepositCollateral",
            "type": "event"
        },
        {
            "anonymous": false,
            "inputs": [
                {
                    "indexed": false,
                    "internalType": "uint256",
                    "name": "vaultId",
                    "type": "uint256"
                },
                {
                    "indexed": false,
                    "internalType": "uint256",
                    "name": "tokenId",
                    "type": "uint256"
                }
            ],
            "name": "DepositUniPositionToken",
            "type": "event"
        },
        {
            "anonymous": false,
            "inputs": [
                {
                    "indexed": false,
                    "internalType": "uint256",
                    "name": "oldFee",
                    "type": "uint256"
                },
                {
                    "indexed": false,
                    "internalType": "uint256",
                    "name": "newFee",
                    "type": "uint256"
                }
            ],
            "name": "FeeRateUpdated",
            "type": "event"
        },
        {
            "anonymous": false,
            "inputs": [
                {
                    "indexed": false,
                    "internalType": "address",
                    "name": "oldFeeRecipient",
                    "type": "address"
                },
                {
                    "indexed": false,
                    "internalType": "address",
                    "name": "newFeeRecipient",
                    "type": "address"
                }
            ],
            "name": "FeeRecipientUpdated",
            "type": "event"
        },
        {
            "anonymous": false,
            "inputs": [
                {
                    "indexed": false,
                    "internalType": "uint256",
                    "name": "vaultId",
                    "type": "uint256"
                },
                {
                    "indexed": false,
                    "internalType": "uint256",
                    "name": "debtAmount",
                    "type": "uint256"
                },
                {
                    "indexed": false,
                    "internalType": "uint256",
                    "name": "collateralPaid",
                    "type": "uint256"
                }
            ],
            "name": "Liquidate",
            "type": "event"
        },
        {
            "anonymous": false,
            "inputs": [
                {
                    "indexed": false,
                    "internalType": "uint256",
                    "name": "amount",
                    "type": "uint256"
                },
                {
                    "indexed": false,
                    "internalType": "uint256",
                    "name": "vaultId",
                    "type": "uint256"
                }
            ],
            "name": "MintShort",
            "type": "event"
        },
        {
            "anonymous": false,
            "inputs": [
                {
                    "indexed": false,
                    "internalType": "uint256",
                    "name": "oldNormFactor",
                    "type": "uint256"
                },
                {
                    "indexed": false,
                    "internalType": "uint256",
                    "name": "newNormFactor",
                    "type": "uint256"
                },
                {
                    "indexed": false,
                    "internalType": "uint256",
                    "name": "timestamp",
                    "type": "uint256"
                }
            ],
            "name": "NormalizationFactorUpdated",
            "type": "event"
        },
        {
            "anonymous": false,
            "inputs": [
                {
                    "indexed": false,
                    "internalType": "uint256",
                    "name": "vaultId",
                    "type": "uint256"
                }
            ],
            "name": "OpenVault",
            "type": "event"
        },
        {
            "anonymous": false,
            "inputs": [
                {
                    "indexed": true,
                    "internalType": "address",
                    "name": "previousOwner",
                    "type": "address"
                },
                {
                    "indexed": true,
                    "internalType": "address",
                    "name": "newOwner",
                    "type": "address"
                }
            ],
            "name": "OwnershipTransferred",
            "type": "event"
        },
        {
            "anonymous": false,
            "inputs": [
                {
                    "indexed": false,
                    "internalType": "uint256",
                    "name": "vaultId",
                    "type": "uint256"
                },
                {
                    "indexed": false,
                    "internalType": "address",
                    "name": "operator",
                    "type": "address"
                }
            ],
            "name": "UpdateOperator",
            "type": "event"
        },
        {
            "anonymous": false,
            "inputs": [
                {
                    "indexed": false,
                    "internalType": "uint256",
                    "name": "vaultId",
                    "type": "uint256"
                },
                {
                    "indexed": false,
                    "internalType": "uint256",
                    "name": "amount",
                    "type": "uint256"
                },
                {
                    "indexed": false,
                    "internalType": "uint128",
                    "name": "collateralId",
                    "type": "uint128"
                }
            ],
            "name": "WithdrawCollateral",
            "type": "event"
        },
        {
            "anonymous": false,
            "inputs": [
                {
                    "indexed": false,
                    "internalType": "uint256",
                    "name": "vaultId",
                    "type": "uint256"
                },
                {
                    "indexed": false,
                    "internalType": "uint256",
                    "name": "tokenId",
                    "type": "uint256"
                }
            ],
            "name": "WithdrawUniPositionToken",
            "type": "event"
        },
        {
            "inputs": [],
            "name": "PAUSE_TIME_LIMIT",
            "outputs": [
                {
                    "internalType": "uint256",
                    "name": "",
                    "type": "uint256"
                }
            ],
            "stateMutability": "view",
            "type": "function"
        },
        {
            "inputs": [],
            "name": "applyFunding",
            "outputs": [],
            "stateMutability": "nonpayable",
            "type": "function"
        },
        {
            "inputs": [
                {
                    "internalType": "uint256",
                    "name": "_vaultId",
                    "type": "uint256"
                },
                {
                    "internalType": "uint256",
                    "name": "_powerPerpAmount",
                    "type": "uint256"
                },
                {
                    "internalType": "uint256",
                    "name": "_withdrawAmount",
                    "type": "uint256"
                }
            ],
            "name": "burnPowerPerpAmount",
            "outputs": [
                {
                    "internalType": "uint256",
                    "name": "",
                    "type": "uint256"
                }
            ],
            "stateMutability": "nonpayable",
            "type": "function"
        },
        {
            "inputs": [
                {
                    "internalType": "uint256",
                    "name": "_vaultId",
                    "type": "uint256"
                },
                {
                    "internalType": "uint256",
                    "name": "_wPowerPerpAmount",
                    "type": "uint256"
                },
                {
                    "internalType": "uint256",
                    "name": "_withdrawAmount",
                    "type": "uint256"
                }
            ],
            "name": "burnWPowerPerpAmount",
            "outputs": [],
            "stateMutability": "nonpayable",
            "type": "function"
        },
        {
            "inputs": [],
            "name": "dai",
            "outputs": [
                {
                    "internalType": "address",
                    "name": "",
                    "type": "address"
                }
            ],
            "stateMutability": "view",
            "type": "function"
        },
        {
            "inputs": [],
            "name": "deployTimestamp",
            "outputs": [
                {
                    "internalType": "uint256",
                    "name": "",
                    "type": "uint256"
                }
            ],
            "stateMutability": "view",
            "type": "function"
        },
        {
            "inputs": [
                {
                    "internalType": "uint256",
                    "name": "_vaultId",
                    "type": "uint256"
                }
            ],
            "name": "deposit",
            "outputs": [],
            "stateMutability": "payable",
            "type": "function"
        },
        {
            "inputs": [
                {
                    "internalType": "uint256",
                    "name": "_vaultId",
                    "type": "uint256"
                },
                {
                    "internalType": "uint256",
                    "name": "_uniTokenId",
                    "type": "uint256"
                }
            ],
            "name": "depositUniPositionToken",
            "outputs": [],
            "stateMutability": "nonpayable",
            "type": "function"
        },
        {
            "inputs": [],
            "name": "donate",
            "outputs": [],
            "stateMutability": "payable",
            "type": "function"
        },
        {
            "inputs": [],
            "name": "ethDaiPool",
            "outputs": [
                {
                    "internalType": "address",
                    "name": "",
                    "type": "address"
                }
            ],
            "stateMutability": "view",
            "type": "function"
        },
        {
            "inputs": [],
            "name": "feeRate",
            "outputs": [
                {
                    "internalType": "uint256",
                    "name": "",
                    "type": "uint256"
                }
            ],
            "stateMutability": "view",
            "type": "function"
        },
        {
            "inputs": [],
            "name": "feeRecipient",
            "outputs": [
                {
                    "internalType": "address",
                    "name": "",
                    "type": "address"
                }
            ],
            "stateMutability": "view",
            "type": "function"
        },
        {
            "inputs": [
                {
                    "internalType": "uint32",
                    "name": "_period",
                    "type": "uint32"
                }
            ],
            "name": "getDenormalizedMark",
            "outputs": [
                {
                    "internalType": "uint256",
                    "name": "",
                    "type": "uint256"
                }
            ],
            "stateMutability": "view",
            "type": "function"
        },
        {
            "inputs": [],
            "name": "getExpectedNormalizationFactor",
            "outputs": [
                {
                    "internalType": "uint256",
                    "name": "",
                    "type": "uint256"
                }
            ],
            "stateMutability": "view",
            "type": "function"
        },
        {
            "inputs": [
                {
                    "internalType": "uint32",
                    "name": "_period",
                    "type": "uint32"
                }
            ],
            "name": "getIndex",
            "outputs": [
                {
                    "internalType": "uint256",
                    "name": "",
                    "type": "uint256"
                }
            ],
            "stateMutability": "view",
            "type": "function"
        },
        {
            "inputs": [],
            "name": "indexForSettlement",
            "outputs": [
                {
                    "internalType": "uint256",
                    "name": "",
                    "type": "uint256"
                }
            ],
            "stateMutability": "view",
            "type": "function"
        },
        {
            "inputs": [
                {
                    "internalType": "address",
                    "name": "_oracle",
                    "type": "address"
                },
                {
                    "internalType": "address",
                    "name": "_vaultNFT",
                    "type": "address"
                },
                {
                    "internalType": "address",
                    "name": "_wPowerPerp",
                    "type": "address"
                },
                {
                    "internalType": "address",
                    "name": "_weth",
                    "type": "address"
                },
                {
                    "internalType": "address",
                    "name": "_dai",
                    "type": "address"
                },
                {
                    "internalType": "address",
                    "name": "_ethDaiPool",
                    "type": "address"
                },
                {
                    "internalType": "address",
                    "name": "_wPowerPerpPool",
                    "type": "address"
                },
                {
                    "internalType": "address",
                    "name": "_uniPositionManager",
                    "type": "address"
                }
            ],
            "name": "init",
            "outputs": [],
            "stateMutability": "nonpayable",
            "type": "function"
        },
        {
            "inputs": [],
            "name": "isShutDown",
            "outputs": [
                {
                    "internalType": "bool",
                    "name": "",
                    "type": "bool"
                }
            ],
            "stateMutability": "view",
            "type": "function"
        },
        {
            "inputs": [],
            "name": "isSystemPaused",
            "outputs": [
                {
                    "internalType": "bool",
                    "name": "",
                    "type": "bool"
                }
            ],
            "stateMutability": "view",
            "type": "function"
        },
        {
            "inputs": [
                {
                    "internalType": "uint256",
                    "name": "_vaultId",
                    "type": "uint256"
                }
            ],
            "name": "isVaultSafe",
            "outputs": [
                {
                    "internalType": "bool",
                    "name": "",
                    "type": "bool"
                }
            ],
            "stateMutability": "view",
            "type": "function"
        },
        {
            "inputs": [],
            "name": "isWethToken0",
            "outputs": [
                {
                    "internalType": "bool",
                    "name": "",
                    "type": "bool"
                }
            ],
            "stateMutability": "view",
            "type": "function"
        },
        {
            "inputs": [],
            "name": "lastFundingUpdateTimestamp",
            "outputs": [
                {
                    "internalType": "uint256",
                    "name": "",
                    "type": "uint256"
                }
            ],
            "stateMutability": "view",
            "type": "function"
        },
        {
            "inputs": [],
            "name": "lastPauseTime",
            "outputs": [
                {
                    "internalType": "uint256",
                    "name": "",
                    "type": "uint256"
                }
            ],
            "stateMutability": "view",
            "type": "function"
        },
        {
            "inputs": [
                {
                    "internalType": "uint256",
                    "name": "_vaultId",
                    "type": "uint256"
                },
                {
                    "internalType": "uint256",
                    "name": "_maxDebtAmount",
                    "type": "uint256"
                }
            ],
            "name": "liquidate",
            "outputs": [
                {
                    "internalType": "uint256",
                    "name": "",
                    "type": "uint256"
                }
            ],
            "stateMutability": "nonpayable",
            "type": "function"
        },
        {
            "inputs": [
                {
                    "internalType": "uint256",
                    "name": "_vaultId",
                    "type": "uint256"
                },
                {
                    "internalType": "uint128",
                    "name": "_powerPerpAmount",
                    "type": "uint128"
                },
                {
                    "internalType": "uint256",
                    "name": "_uniTokenId",
                    "type": "uint256"
                }
            ],
            "name": "mintPowerPerpAmount",
            "outputs": [
                {
                    "internalType": "uint256",
                    "name": "",
                    "type": "uint256"
                },
                {
                    "internalType": "uint256",
                    "name": "",
                    "type": "uint256"
                }
            ],
            "stateMutability": "payable",
            "type": "function"
        },
        {
            "inputs": [
                {
                    "internalType": "uint256",
                    "name": "_vaultId",
                    "type": "uint256"
                },
                {
                    "internalType": "uint128",
                    "name": "_wPowerPerpAmount",
                    "type": "uint128"
                },
                {
                    "internalType": "uint256",
                    "name": "_uniTokenId",
                    "type": "uint256"
                }
            ],
            "name": "mintWPowerPerpAmount",
            "outputs": [
                {
                    "internalType": "uint256",
                    "name": "",
                    "type": "uint256"
                }
            ],
            "stateMutability": "payable",
            "type": "function"
        },
        {
            "inputs": [],
            "name": "normalizationFactor",
            "outputs": [
                {
                    "internalType": "uint256",
                    "name": "",
                    "type": "uint256"
                }
            ],
            "stateMutability": "view",
            "type": "function"
        },
        {
            "inputs": [],
            "name": "oracle",
            "outputs": [
                {
                    "internalType": "contract IOracle",
                    "name": "",
                    "type": "address"
                }
            ],
            "stateMutability": "view",
            "type": "function"
        },
        {
            "inputs": [],
            "name": "owner",
            "outputs": [
                {
                    "internalType": "address",
                    "name": "",
                    "type": "address"
                }
            ],
            "stateMutability": "view",
            "type": "function"
        },
        {
            "inputs": [],
            "name": "pause",
            "outputs": [],
            "stateMutability": "nonpayable",
            "type": "function"
        },
        {
            "inputs": [],
            "name": "pauseAndShutDown",
            "outputs": [],
            "stateMutability": "nonpayable",
            "type": "function"
        },
        {
            "inputs": [],
            "name": "pausesLeft",
            "outputs": [
                {
                    "internalType": "uint256",
                    "name": "",
                    "type": "uint256"
                }
            ],
            "stateMutability": "view",
            "type": "function"
        },
        {
            "inputs": [
                {
                    "internalType": "uint256",
                    "name": "_wPerpAmount",
                    "type": "uint256"
                }
            ],
            "name": "redeemLong",
            "outputs": [],
            "stateMutability": "nonpayable",
            "type": "function"
        },
        {
            "inputs": [
                {
                    "internalType": "uint256",
                    "name": "_vaultId",
                    "type": "uint256"
                }
            ],
            "name": "redeemShort",
            "outputs": [],
            "stateMutability": "nonpayable",
            "type": "function"
        },
        {
            "inputs": [
                {
                    "internalType": "uint256",
                    "name": "_vaultId",
                    "type": "uint256"
                }
            ],
            "name": "reduceDebt",
            "outputs": [],
            "stateMutability": "nonpayable",
            "type": "function"
        },
        {
            "inputs": [],
            "name": "renounceOwnership",
            "outputs": [],
            "stateMutability": "nonpayable",
            "type": "function"
        },
        {
            "inputs": [
                {
                    "internalType": "uint256",
                    "name": "_newFeeRate",
                    "type": "uint256"
                }
            ],
            "name": "setFeeRate",
            "outputs": [],
            "stateMutability": "nonpayable",
            "type": "function"
        },
        {
            "inputs": [
                {
                    "internalType": "address",
                    "name": "_newFeeRecipient",
                    "type": "address"
                }
            ],
            "name": "setFeeRecipient",
            "outputs": [],
            "stateMutability": "nonpayable",
            "type": "function"
        },
        {
            "inputs": [],
            "name": "shutDown",
            "outputs": [],
            "stateMutability": "nonpayable",
            "type": "function"
        },
        {
            "inputs": [
                {
                    "internalType": "address",
                    "name": "newOwner",
                    "type": "address"
                }
            ],
            "name": "transferOwnership",
            "outputs": [],
            "stateMutability": "nonpayable",
            "type": "function"
        },
        {
            "inputs": [],
            "name": "unPauseAnyone",
            "outputs": [],
            "stateMutability": "nonpayable",
            "type": "function"
        },
        {
            "inputs": [],
            "name": "unPauseOwner",
            "outputs": [],
            "stateMutability": "nonpayable",
            "type": "function"
        },
        {
            "inputs": [],
            "name": "uniswapPositionManager",
            "outputs": [
                {
                    "internalType": "address",
                    "name": "",
                    "type": "address"
                }
            ],
            "stateMutability": "view",
            "type": "function"
        },
        {
            "inputs": [
                {
                    "internalType": "uint256",
                    "name": "_vaultId",
                    "type": "uint256"
                },
                {
                    "internalType": "address",
                    "name": "_operator",
                    "type": "address"
                }
            ],
            "name": "updateOperator",
            "outputs": [],
            "stateMutability": "nonpayable",
            "type": "function"
        },
        {
            "inputs": [],
            "name": "vaultNFT",
            "outputs": [
                {
                    "internalType": "contract IVaultManagerNFT",
                    "name": "",
                    "type": "address"
                }
            ],
            "stateMutability": "view",
            "type": "function"
        },
        {
            "inputs": [
                {
                    "internalType": "uint256",
                    "name": "",
                    "type": "uint256"
                }
            ],
            "name": "vaults",
            "outputs": [
                {
                    "internalType": "address",
                    "name": "operator",
                    "type": "address"
                },
                {
                    "internalType": "uint32",
                    "name": "NftCollateralId",
                    "type": "uint32"
                },
                {
                    "internalType": "uint96",
                    "name": "collateralAmount",
                    "type": "uint96"
                },
                {
                    "internalType": "uint128",
                    "name": "shortAmount",
                    "type": "uint128"
                }
            ],
            "stateMutability": "view",
            "type": "function"
        },
        {
            "inputs": [],
            "name": "wPowerPerp",
            "outputs": [
                {
                    "internalType": "contract IWPowerPerp",
                    "name": "",
                    "type": "address"
                }
            ],
            "stateMutability": "view",
            "type": "function"
        },
        {
            "inputs": [],
            "name": "wPowerPerpPool",
            "outputs": [
                {
                    "internalType": "address",
                    "name": "",
                    "type": "address"
                }
            ],
            "stateMutability": "view",
            "type": "function"
        },
        {
            "inputs": [],
            "name": "weth",
            "outputs": [
                {
                    "internalType": "address",
                    "name": "",
                    "type": "address"
                }
            ],
            "stateMutability": "view",
            "type": "function"
        },
        {
            "inputs": [
                {
                    "internalType": "uint256",
                    "name": "_vaultId",
                    "type": "uint256"
                },
                {
                    "internalType": "uint256",
                    "name": "_amount",
                    "type": "uint256"
                }
            ],
            "name": "withdraw",
            "outputs": [],
            "stateMutability": "payable",
            "type": "function"
        },
        {
            "inputs": [
                {
                    "internalType": "uint256",
                    "name": "_vaultId",
                    "type": "uint256"
                }
            ],
            "name": "withdrawUniPositionToken",
            "outputs": [],
            "stateMutability": "nonpayable",
            "type": "function"
        },
        {
            "stateMutability": "payable",
            "type": "receive"
        }
    ],
    "transactionHash": "0x3dd8d592301d27acba4692c5696ab7eca74bf81f46e5a8510e41424c34043399",
    "args": [],
    "solcInputHash": "49c79f88c6e4ede6ca1f2ffd46fef4fe",
    "bytecode": "0x60806040526000805461ffff60b01b1916815560046001556002553480156200002757600080fd5b506000620000346200008e565b6000805462010000600160b01b031916620100006001600160a01b038416908102919091178255604051929350917f8be0079c531659141344cd1fd0a4f28419497f9722a3daafe3b4186f6b6457e0908290a35062000092565b3390565b6152da80620000a26000396000f3fe6080604052600436106103385760003560e01c80638c64ea4a116101b0578063cc4b1473116100ec578063ed88c68e11610095578063f2fde38b1161006f578063f2fde38b1461082f578063f3a50fe31461084f578063f4b9fa7514610870578063ff9475251461088557610372565b8063ed88c68e146107f2578063ee3189ff146107fa578063ef0b69dd1461081a57610372565b8063de4a427a116100c6578063de4a427a146107a8578063e5047b30146107bd578063e74b981b146107d257610372565b8063cc4b147314610760578063d296d1f114610773578063d52725841461079357610372565b806397efa94211610159578063b6b55f2511610133578063b6b55f25146106f8578063b707ab991461070b578063c65a391d14610720578063c9e77ee81461074057610372565b806397efa94214610698578063a847e674146106b8578063ac6cd5ef146106d857610372565b806391b4ded91161018a57806391b4ded91461064e57806391b8d34a14610663578063978bbdb91461068357610372565b80638c64ea4a146105e95780638cd21d7c146106195780638da5cb5b1461063957610372565b8063607ad0d71161027f5780637b44b4fd116102285780638146b09f116102025780638146b09f1461058a5780638456cb591461059f57806384dea1a1146105b45780638632cb03146105c957610372565b80637b44b4fd1461054b5780637dc0d1d0146105605780637f07b1301461057557610372565b8063715018a611610259578063715018a6146104ff5780637691c4ac1461051457806376adb9641461053657610372565b8063607ad0d7146104b557806363b38ae4146104ca578063713d517f146104df57610372565b80634394318d116102e157806346904840116102bb578063469048401461046b5780634be2822c14610480578063525240c01461049557610372565b80634394318d14610418578063441a3e701461043857806345596e2e1461044b57610372565b806324f5f5311161031257806324f5f531146103b65780632d8f1d90146103e15780633fc8cef3146103f657610372565b8063076336691461037757806310b9e5831461038c578063200f4b8d146103a157610372565b36610372576003546001600160a01b031633146103705760405162461bcd60e51b815260040161036790614d4b565b60405180910390fd5b005b600080fd5b34801561038357600080fd5b5061037061089a565b34801561039857600080fd5b5061037061098b565b3480156103ad57600080fd5b50610370610ab0565b3480156103c257600080fd5b506103cb610ae5565b6040516103d89190615156565b60405180910390f35b3480156103ed57600080fd5b50610370610af5565b34801561040257600080fd5b5061040b610c40565b6040516103d89190614a16565b34801561042457600080fd5b506103cb6104333660046148d4565b610c4f565b610370610446366004614890565b610c92565b34801561045757600080fd5b506103706104663660046147fa565b610d5b565b34801561047757600080fd5b5061040b610e58565b34801561048c57600080fd5b506103cb610e67565b3480156104a157600080fd5b506103706104b0366004614718565b610e6d565b3480156104c157600080fd5b506103cb6110f8565b3480156104d657600080fd5b506103cb6110fe565b3480156104eb57600080fd5b506103706104fa3660046147fa565b611104565b34801561050b57600080fd5b506103706111cb565b34801561052057600080fd5b506105296112a6565b6040516103d89190614ae3565b34801561054257600080fd5b5061040b6112b6565b34801561055757600080fd5b506103cb6112c5565b34801561056c57600080fd5b5061040b6112cc565b34801561058157600080fd5b5061040b6112db565b34801561059657600080fd5b506103706112ea565b3480156105ab57600080fd5b50610370611363565b3480156105c057600080fd5b5061040b6114b3565b3480156105d557600080fd5b506103706105e43660046148d4565b6114c2565b3480156105f557600080fd5b506106096106043660046147fa565b6114fa565b6040516103d89493929190614aa0565b34801561062557600080fd5b506103cb6106343660046148ff565b61154c565b34801561064557600080fd5b5061040b611583565b34801561065a57600080fd5b506103cb611598565b34801561066f57600080fd5b5061037061067e366004614890565b61159e565b34801561068f57600080fd5b506103cb611649565b3480156106a457600080fd5b506103706106b33660046147fa565b61164f565b3480156106c457600080fd5b506105296106d33660046147fa565b61178f565b3480156106e457600080fd5b506103706106f33660046147fa565b611816565b6103706107063660046147fa565b6118c4565b34801561071757600080fd5b5061040b611978565b34801561072c57600080fd5b5061037061073b36600461482a565b611987565b34801561074c57600080fd5b5061037061075b3660046147fa565b611a1f565b6103cb61076e366004614859565b611b77565b34801561077f57600080fd5b506103cb61078e366004614890565b611bc6565b34801561079f57600080fd5b506103cb611dc0565b3480156107b457600080fd5b506103cb611dc6565b3480156107c957600080fd5b5061040b611dcc565b3480156107de57600080fd5b506103706107ed3660046146e0565b611ddb565b610370611eeb565b34801561080657600080fd5b506103cb6108153660046148ff565b611f16565b34801561082657600080fd5b50610529611f5b565b34801561083b57600080fd5b5061037061084a3660046146e0565b611f64565b61086261085d366004614859565b61209c565b6040516103d8929190615176565b34801561087c57600080fd5b5061040b6120ed565b34801561089157600080fd5b506105296120fc565b600054600160b01b900460ff16156108c45760405162461bcd60e51b815260040161036790614ff4565b600054600160b81b900460ff166108ed5760405162461bcd60e51b815260040161036790614d14565b6108f561210c565b6001600160a01b0316610906611583565b6001600160a01b031614610961576040805162461bcd60e51b815260206004820181905260248201527f4f776e61626c653a2063616c6c6572206973206e6f7420746865206f776e6572604482015290519081900360640190fd5b600080547fffffffffffffffff00ffffffffffffffffffffffffffffffffffffffffffffff169055565b600054600160b01b900460ff16156109b55760405162461bcd60e51b815260040161036790614ff4565b600054600160b81b900460ff166109de5760405162461bcd60e51b815260040161036790614d14565b6109e661210c565b6001600160a01b03166109f7611583565b6001600160a01b031614610a52576040805162461bcd60e51b815260206004820181905260248201527f4f776e61626c653a2063616c6c6572206973206e6f7420746865206f776e6572604482015290519081900360640190fd5b600080547fffffffffffffffffff00ffffffffffffffffffffffffffffffffffffffffffff16600160b01b179055601254600554600354600454610aab936001600160a01b039081169381169281169116610258612110565b600a55565b600054600160b81b900460ff1615610ada5760405162461bcd60e51b81526004016103679061502b565b610ae261213b565b50565b6000610aef6121a7565b90505b90565b600054600160b01b900460ff1615610b1f5760405162461bcd60e51b815260040161036790614ff4565b600054600160b81b900460ff1615610b495760405162461bcd60e51b81526004016103679061502b565b610b5161210c565b6001600160a01b0316610b62611583565b6001600160a01b031614610bbd576040805162461bcd60e51b815260206004820181905260248201527f4f776e61626c653a2063616c6c6572206973206e6f7420746865206f776e6572604482015290519081900360640190fd5b600080547fffffffffffffffffff00ffffffffffffffffffffffffffffffffffffffffffff7fffffffffffffffff00ffffffffffffffffffffffffffffffffffffffffffffff909116600160b81b1716600160b01b179055601254600554600354600454610aab936001600160a01b039081169381169281169116610258612110565b6003546001600160a01b031681565b60008054600160b81b900460ff1615610c7a5760405162461bcd60e51b81526004016103679061502b565b610c88338585856000612311565b90505b9392505050565b600054600160b81b900460ff1615610cbc5760405162461bcd60e51b81526004016103679061502b565b6000610cc661213b565b6000848152600f6020908152604091829020825160808101845281546001600160a01b0381168252600160a01b900463ffffffff1692810192909252600101546bffffffffffffffffffffffff811692820192909252600160601b9091046001600160801b03166060820152909150610d41813386866123f5565b610d4b818361247a565b610d5584826124c6565b50505050565b610d6361210c565b6001600160a01b0316610d74611583565b6001600160a01b031614610dcf576040805162461bcd60e51b815260206004820181905260248201527f4f776e61626c653a2063616c6c6572206973206e6f7420746865206f776e6572604482015290519081900360640190fd5b6006546001600160a01b0316610df75760405162461bcd60e51b815260040161036790614e16565b6064811115610e185760405162461bcd60e51b815260040161036790614e84565b7f14914da2bf76024616fbe1859783fcd4dbddcb179b1f3a854949fbf920dcb95760095482604051610e4b929190615176565b60405180910390a1600955565b6006546001600160a01b031681565b600c5481565b600054610100900460ff1680610e865750610e866125be565b80610e94575060005460ff16155b610ecf5760405162461bcd60e51b815260040180806020018281038252602e815260200180615256602e913960400191505060405180910390fd5b600054610100900460ff16158015610efa576000805460ff1961ff0019909116610100171660011790555b6001600160a01b038916610f205760405162461bcd60e51b815260040161036790614f29565b6001600160a01b038816610f465760405162461bcd60e51b815260040161036790614b25565b6001600160a01b038716610f6c5760405162461bcd60e51b815260040161036790614aee565b6001600160a01b038616610f925760405162461bcd60e51b815260040161036790614ef2565b6001600160a01b038516610fb85760405162461bcd60e51b815260040161036790614c38565b6001600160a01b038416610fde5760405162461bcd60e51b815260040161036790614ebb565b6001600160a01b0383166110045760405162461bcd60e51b815260040161036790614db9565b6001600160a01b03821661102a5760405162461bcd60e51b815260040161036790614cdd565b6012805473ffffffffffffffffffffffffffffffffffffffff199081166001600160a01b038c8116919091179092556010805482168b84161790556011805482168a84169081179091556005805483168885161790556007805483168785161790556008805483168685161790556003805483168a851617908190556004805490931689851617909255670de0b6b3a7640000600b5542600c819055600d55600e8054929093161060ff1990911617905580156110ed576000805461ff00191690555b505050505050505050565b600d5481565b60015481565b600054600160b81b900460ff161561112e5760405162461bcd60e51b81526004016103679061502b565b600061113861213b565b6000838152600f6020908152604091829020825160808101845281546001600160a01b0381168252600160a01b900463ffffffff1692810192909252600101546bffffffffffffffffffffffff811692820192909252600160601b9091046001600160801b031660608201529091506111b28133856125cf565b6111bc818361247a565b6111c683826124c6565b505050565b6111d361210c565b6001600160a01b03166111e4611583565b6001600160a01b03161461123f576040805162461bcd60e51b815260206004820181905260248201527f4f776e61626c653a2063616c6c6572206973206e6f7420746865206f776e6572604482015290519081900360640190fd5b60008054604051620100009091046001600160a01b0316907f8be0079c531659141344cd1fd0a4f28419497f9722a3daafe3b4186f6b6457e0908390a3600080547fffffffffffffffffffff0000000000000000000000000000000000000000ffff169055565b600054600160b81b900460ff1681565b6005546001600160a01b031681565b62eff10081565b6012546001600160a01b031681565b6011546001600160a01b031681565b600054600160b01b900460ff16156113145760405162461bcd60e51b815260040161036790614ff4565b600054600160b81b900460ff1661133d5760405162461bcd60e51b815260040161036790614d14565b600254620151800142116109615760405162461bcd60e51b815260040161036790614f97565b600054600160b01b900460ff161561138d5760405162461bcd60e51b815260040161036790614ff4565b600054600160b81b900460ff16156113b75760405162461bcd60e51b81526004016103679061502b565b6113bf61210c565b6001600160a01b03166113d0611583565b6001600160a01b03161461142b576040805162461bcd60e51b815260206004820181905260248201527f4f776e61626c653a2063616c6c6572206973206e6f7420746865206f776e6572604482015290519081900360640190fd5b60006001541161144d5760405162461bcd60e51b815260040161036790614f60565b600d54420362eff10081106114745760405162461bcd60e51b815260040161036790614bca565b50600080547fffffffffffffffff00ffffffffffffffffffffffffffffffffffffffffffffff16600160b81b1790556001805460001901905542600255565b6010546001600160a01b031681565b600054600160b81b900460ff16156114ec5760405162461bcd60e51b81526004016103679061502b565b610d55338484846001612311565b600f60205260009081526040902080546001909101546001600160a01b03821691600160a01b900463ffffffff16906bffffffffffffffffffffffff811690600160601b90046001600160801b031684565b60125460055460035460045460009361157b9386936001600160a01b03928316939183169290811691166126b9565b90505b919050565b6000546201000090046001600160a01b031690565b60025481565b600054600160b81b900460ff16156115c85760405162461bcd60e51b81526004016103679061502b565b6115d061213b565b506000828152600f6020908152604091829020825160808101845281546001600160a01b0381168252600160a01b900463ffffffff1692810192909252600101546bffffffffffffffffffffffff811692820192909252600160601b9091046001600160801b031660608201526111bc813385856126e1565b60095481565b600054600160b01b900460ff166116785760405162461bcd60e51b815260040161036790614b5c565b61168281336127a4565b61169e5760405162461bcd60e51b815260040161036790614c01565b6000818152600f60209081526040808320815160808101835281546001600160a01b0381168252600160a01b900463ffffffff1693810193909352600101546bffffffffffffffffffffffff811691830191909152600160601b90046001600160801b03166060820152600b54909161171c9083903390849061285c565b50600061173b83606001516001600160801b0316600a54600b54612ae8565b905060006117648285604001516bffffffffffffffffffffffff16612b0b90919063ffffffff16565b6000606086018190526040860152905061177e85856124c6565b6117883382612b68565b5050505050565b6000818152600f60209081526040808320815160808101835281546001600160a01b0381168252600160a01b900463ffffffff1693810193909352600101546bffffffffffffffffffffffff811691830191909152600160601b90046001600160801b03166060820152816118026121a7565b905061180e8282612c4d565b949350505050565b600054600160b01b900460ff1661183f5760405162461bcd60e51b815260040161036790614b5c565b601154604051632770a7eb60e21b81526001600160a01b0390911690639dc29fac906118719033908590600401614a4e565b600060405180830381600087803b15801561188b57600080fd5b505af115801561189f573d6000803e3d6000fd5b5050505060006118b482600a54600b54612ae8565b90506118c03382612b68565b5050565b600054600160b81b900460ff16156118ee5760405162461bcd60e51b81526004016103679061502b565b6118f661213b565b506000818152600f6020908152604091829020825160808101845281546001600160a01b0381168252600160a01b900463ffffffff1692810192909252600101546bffffffffffffffffffffffff811692820192909252600160601b9091046001600160801b0316606082015261196e818334612c63565b6118c082826124c6565b6007546001600160a01b031681565b61199182336127a4565b6119ad5760405162461bcd60e51b815260040161036790614c01565b6000828152600f602052604090819020805473ffffffffffffffffffffffffffffffffffffffff19166001600160a01b038416179055517f9d9dd80a56a16f715df6eb40b771e24ff8cbea6eed9de28473ce0f28fe5602a990611a13908490849061515f565b60405180910390a15050565b600054600160b81b900460ff1615611a495760405162461bcd60e51b81526004016103679061502b565b611a5381336127a4565b611a6f5760405162461bcd60e51b815260040161036790614c01565b6000611a7961213b565b6000838152600f6020908152604091829020825160808101845281546001600160a01b038082168352600160a01b90910463ffffffff16938201939093526001909101546bffffffffffffffffffffffff811682850152600160601b90046001600160801b0316606082015260105492516331a9108f60e11b815293945092611b6c9284921690636352211e90611b14908890600401615156565b60206040518083038186803b158015611b2c57600080fd5b505afa158015611b40573d6000803e3d6000fd5b505050506040513d601f19601f82011682018060405250810190611b6491906146fc565b84600061285c565b506111c683826124c6565b60008054600160b81b900460ff1615611ba25760405162461bcd60e51b81526004016103679061502b565b6000611bbc3386866001600160801b031634876001612cae565b5095945050505050565b60008054600160b81b900460ff1615611bf15760405162461bcd60e51b81526004016103679061502b565b6000611bfb61213b565b6000858152600f6020908152604091829020825160808101845281546001600160a01b0381168252600160a01b900463ffffffff1692810192909252600101546bffffffffffffffffffffffff811692820192909252600160601b9091046001600160801b03166060820152909150611c748183612c4d565b15611c915760405162461bcd60e51b815260040161036790614c6f565b6010546040516331a9108f60e11b8152600091611d209184916001600160a01b031690636352211e90611cc8908b90600401615156565b60206040518083038186803b158015611ce057600080fd5b505afa158015611cf4573d6000803e3d6000fd5b505050506040513d601f19601f82011682018060405250810190611d1891906146fc565b85600161285c565b9050611d2c8284612c4d565b15611d5157611d3b3382612b68565b611d4586836124c6565b60009350505050611dba565b611d5b8282612de1565b600080611d6a84888733612e18565b915091507f199c51a8cd3b6aa8f80abc4f5c713f20c111837887163a1bbaa2dd5f61a554ab888383604051611da1939291906151a3565b60405180910390a1611db388856124c6565b5093505050505b92915050565b600b5481565b600a5481565b6008546001600160a01b031681565b611de361210c565b6001600160a01b0316611df4611583565b6001600160a01b031614611e4f576040805162461bcd60e51b815260206004820181905260248201527f4f776e61626c653a2063616c6c6572206973206e6f7420746865206f776e6572604482015290519081900360640190fd5b6001600160a01b038116611e755760405162461bcd60e51b815260040161036790614ca6565b6006546040517faaebcf1bfa00580e41d966056b48521fa9f202645c86d4ddf28113e617c1b1d391611eb4916001600160a01b03909116908490614a67565b60405180910390a16006805473ffffffffffffffffffffffffffffffffffffffff19166001600160a01b0392909216919091179055565b600054600160b01b900460ff16611f145760405162461bcd60e51b815260040161036790614b5c565b565b600080611f216121a7565b601254600754600554600354600454601154959650610c8b9589956001600160a01b03908116958116948116938116928116911688612f8d565b600e5460ff1681565b611f6c61210c565b6001600160a01b0316611f7d611583565b6001600160a01b031614611fd8576040805162461bcd60e51b815260206004820181905260248201527f4f776e61626c653a2063616c6c6572206973206e6f7420746865206f776e6572604482015290519081900360640190fd5b6001600160a01b03811661201d5760405162461bcd60e51b81526004018080602001828103825260268152602001806151f66026913960400191505060405180910390fd5b600080546040516001600160a01b03808516936201000090930416917f8be0079c531659141344cd1fd0a4f28419497f9722a3daafe3b4186f6b6457e091a3600080546001600160a01b0390921662010000027fffffffffffffffffffff0000000000000000000000000000000000000000ffff909216919091179055565b600080548190600160b81b900460ff16156120c95760405162461bcd60e51b81526004016103679061502b565b6120e13386866001600160801b031634876000612cae565b91509150935093915050565b6004546001600160a01b031681565b600054600160b01b900460ff1681565b3390565b6000806121208787878787612fcd565b905061212e816127106130db565b9150505b95945050505050565b600042600c5414156121505750600b54610af2565b600061215a6121a7565b90507fa5e6eb88e05b1ccc7e1a9a5096d0a5b8aef97d5204e0ad78ffda42affd8374a8600b548242604051612191939291906151a3565b60405180910390a1600b81905542600c55905090565b600c546000904203816121b982613142565b600b5460125460075460055460035460045460115496975094956000956121fe9589956001600160a01b03918216959082169490821693908216928216911689612f8d565b6012546005546003546004549394506000936122309388936001600160a01b03918216939082169290821691166126b9565b9050600061225c62015180612256670de0b6b3a764000063ffffffff808b169061316816565b906130db565b905060006122706005612256856004613168565b90508084101561227e578093505b60006122906004612256866005613168565b90508085111561229e578094505b60006122eb6122d26122b08787613168565b6122cc896122c6670de0b6b3a76400008a6131c1565b90613168565b90612b0b565b612256886ec097ce7bc90715b34b9f1000000000613168565b9050612303670de0b6b3a76400006122568984613168565b995050505050505050505090565b60008061231c61213b565b90506000836123405761233b8261225688670de0b6b3a7640000613168565b612342565b855b6000888152600f6020908152604091829020825160808101845281546001600160a01b0381168252600160a01b900463ffffffff1692810192909252600101546bffffffffffffffffffffffff811692820192909252600160601b9091046001600160801b0316606082015290915081156123c3576123c3818a8a8561321b565b85156123d5576123d5818a8a896123f5565b6123df818461247a565b6123e988826124c6565b50979650505050505050565b6123ff82846127a4565b61241b5760405162461bcd60e51b815260040161036790614c01565b61242584826132ba565b6124386001600160a01b03841682612b68565b7ffd6fe60d4c49c077689d373f95adff80f09e02e5f719b842f6e3cfc812546a908282600060405161246c93929190615184565b60405180910390a150505050565b60008061248784846132d7565b91509150816124a85760405162461bcd60e51b815260040161036790614d82565b8015610d555760405162461bcd60e51b815260040161036790614e4d565b6000918252600f6020908152604092839020825181549284015163ffffffff16600160a01b027fffffffffffffffff00000000ffffffffffffffffffffffffffffffffffffffff6001600160a01b0390921673ffffffffffffffffffffffffffffffffffffffff19909416939093171691909117815591810151600190920180546060909201516001600160801b0316600160601b027fffffffff00000000000000000000000000000000ffffffffffffffffffffffff6bffffffffffffffffffffffff9094167fffffffffffffffffffffffffffffffffffffffff0000000000000000000000009093169290921792909216179055565b60006125c9306133f0565b15905090565b6125d981836127a4565b6125f55760405162461bcd60e51b815260040161036790614c01565b602083015163ffffffff16612609846133f6565b6008546040517f23b872dd0000000000000000000000000000000000000000000000000000000081526001600160a01b03909116906323b872dd9061265690309087908690600401614a2a565b600060405180830381600087803b15801561267057600080fd5b505af1158015612684573d6000803e3d6000fd5b505050507fe408b929e3c702ebaee90bb2112c954eabc66448f7d3e6a26faf67e40af3666b828260405161246c929190615176565b6000806126c9868686868b612110565b905061212e670de0b6b3a76400006122568380613168565b6126ea8161345c565b6126f48482613597565b6008546040517f23b872dd0000000000000000000000000000000000000000000000000000000081526001600160a01b03909116906323b872dd9061274190869030908690600401614a2a565b600060405180830381600087803b15801561275b57600080fd5b505af115801561276f573d6000803e3d6000fd5b505050507fa73a85546850efb41a3bae76ec46116507eaa88fef566468556ce065e24519a4828260405161246c929190615176565b6010546040516331a9108f60e11b81526000916001600160a01b0380851692911690636352211e906127da908790600401615156565b60206040518083038186803b1580156127f257600080fd5b505afa158015612806573d6000803e3d6000fd5b505050506040513d601f19601f8201168201806040525081019061282a91906146fc565b6001600160a01b03161480610c8b5750506000918252600f6020526040909120546001600160a01b0390811691161490565b602084015160009063ffffffff168061287957600091505061180e565b60008061288583613654565b9092509050811561290c576003546040517f2e1a7d4d0000000000000000000000000000000000000000000000000000000081526001600160a01b0390911690632e1a7d4d906128d9908590600401615156565b600060405180830381600087803b1580156128f357600080fd5b505af1158015612907573d6000803e3d6000fd5b505050505b600085156129645760125460055460035460045460009361294e9388936129489389936001600160a01b0390811693811692811691168f613834565b906131c1565b90506129606064612256836002613168565b9150505b61296d896133f6565b6129778984612de1565b61298189826132ba565b88606001516001600160801b0316821115612a6d5760006129b88a606001516001600160801b031684612b0b90919063ffffffff16565b60608b01516011546040517fa9059cbb0000000000000000000000000000000000000000000000000000000081526001600160801b0390921695509192506001600160a01b039091169063a9059cbb90612a18908c908590600401614a4e565b602060405180830381600087803b158015612a3257600080fd5b505af1158015612a46573d6000803e3d6000fd5b505050506040513d601f19601f82011682018060405250810190612a6a91906147c0565b50505b612a778983613875565b601154604051632770a7eb60e21b81526001600160a01b0390911690639dc29fac90612aa99030908690600401614a4e565b600060405180830381600087803b158015612ac357600080fd5b505af1158015612ad7573d6000803e3d6000fd5b50929b9a5050505050505050505050565b6000610c886ec097ce7bc90715b34b9f1000000000612256856122c68887613168565b600082821115612b62576040805162461bcd60e51b815260206004820152601e60248201527f536166654d6174683a207375627472616374696f6e206f766572666c6f770000604482015290519081900360640190fd5b50900390565b80471015612bbd576040805162461bcd60e51b815260206004820152601d60248201527f416464726573733a20696e73756666696369656e742062616c616e6365000000604482015290519081900360640190fd5b6040516000906001600160a01b0384169083908381818185875af1925050503d8060008114612c08576040519150601f19603f3d011682016040523d82523d6000602084013e612c0d565b606091505b50509050806111c65760405162461bcd60e51b815260040180806020018281038252603a81526020018061521c603a913960400191505060405180910390fd5b600080612c5a84846132d7565b50949350505050565b612c6d8382612de1565b7f7a0373b035a03ee781adee2e2f1920bf98084e3485bfdd8a99acf44fd0feaace82826000604051612ca193929190615184565b60405180910390a1505050565b6000806000612cbb61213b565b905085600085612ce057612cdb836122568b670de0b6b3a7640000613168565b612ce2565b885b9050612cec61467e565b8a612d0457612cfa8c6138a2565b909b509050612d72565b5060008a8152600f6020908152604091829020825160808101845281546001600160a01b0381168252600160a01b900463ffffffff1692810192909252600101546bffffffffffffffffffffffff811692820192909252600160601b9091046001600160801b031660608201525b8115612d8857612d85818d8d858d6139ae565b92505b8815612d9957612d99818c85612c63565b8715612dab57612dab818d8d8b6126e1565b8115612dbd57612dbd818d8d85613a70565b612dc7818561247a565b612dd18b826124c6565b50989a9899505050505050505050565b6040820151612dfe906bffffffffffffffffffffffff16826131c1565b6bffffffffffffffffffffffff1660409092019190915250565b6060840151604085015160009182916001600160801b03909116906bffffffffffffffffffffffff168280612e5889612e528660026130db565b8a613b4e565b9150915080831115612e8e576706f05b59d3b20000612e778483612b0b565b1015612e8e57612e8889858a613b4e565b90925090505b82811115612ebc5783891015612eb65760405162461bcd60e51b815260040161036790614b93565b50829050815b601154604051632770a7eb60e21b81526001600160a01b0390911690639dc29fac90612eee908a908690600401614a4e565b600060405180830381600087803b158015612f0857600080fd5b505af1158015612f1c573d6000803e3d6000fd5b50505050612f33828b61387590919063ffffffff16565b612f3d8a826132ba565b6000612f498b8a6132d7565b9150508015612f6a5760405162461bcd60e51b815260040161036790615062565b612f7d6001600160a01b03891683612b68565b5090999098509650505050505050565b600080612f9d898888888e612110565b90506000612fae8a8a878a8f612fcd565b9050612fbe846122568385613168565b9b9a5050505050505050505050565b604080517f821b972a0000000000000000000000000000000000000000000000000000000081526001600160a01b0386811660048301528581166024830152848116604483015263ffffffff84166064830152915160009283929089169163821b972a91608480820192602092909190829003018186803b15801561305157600080fd5b505afa158015613065573d6000803e3d6000fd5b505050506040513d602081101561307b57600080fd5b50519050806130d1576040805162461bcd60e51b815260206004820152600b60248201527f5741502057415020574150000000000000000000000000000000000000000000604482015290519081900360640190fd5b9695505050505050565b6000808211613131576040805162461bcd60e51b815260206004820152601a60248201527f536166654d6174683a206469766973696f6e206279207a65726f000000000000604482015290519081900360640190fd5b81838161313a57fe5b049392505050565b60008061314d613bba565b90508063ffffffff168363ffffffff1611611dba5782610c8b565b60008261317757506000611dba565b8282028284828161318457fe5b0414610c8b5760405162461bcd60e51b81526004018080602001828103825260218152602001806152846021913960400191505060405180910390fd5b600082820183811015610c8b576040805162461bcd60e51b815260206004820152601b60248201527f536166654d6174683a206164646974696f6e206f766572666c6f770000000000604482015290519081900360640190fd5b6132258482613875565b601154604051632770a7eb60e21b81526001600160a01b0390911690639dc29fac906132579086908590600401614a4e565b600060405180830381600087803b15801561327157600080fd5b505af1158015613285573d6000803e3d6000fd5b505050507fc3fe83ab1ba331ef06ed00bc6f8615de1577dc77772a83e3264864de6a94ea8d818360405161246c929190615176565b6040820151612dfe906bffffffffffffffffffffffff1682612b0b565b6012546005546003546004546000938493849361330b936001600160a01b039384169392831692918216911661012c613d22565b6012546007546040517f4a0a96eb0000000000000000000000000000000000000000000000000000000081529293506000926001600160a01b0392831692634a0a96eb926133629291169061012c90600401614a81565b60206040518083038186803b15801561337a57600080fd5b505afa15801561338e573d6000803e3d6000fd5b505050506040513d601f19601f820116820180604052508101906133b291906147e0565b600854600e549192506133e39188916001600160a01b031690889086906706f05b59d3b2000090879060ff16613d32565b9350935050509250929050565b3b151590565b602081015163ffffffff16613452576040805162461bcd60e51b815260206004820152601060248201527f5661756c7420686173206e6f204e465400000000000000000000000000000000604482015290519081900360640190fd5b6000602090910152565b6008546040517f99fbab8800000000000000000000000000000000000000000000000000000000815260009182916001600160a01b03909116906399fbab88906134aa908690600401615156565b6101806040518083038186803b1580156134c357600080fd5b505afa1580156134d7573d6000803e3d6000fd5b505050506040513d601f19601f820116820180604052508101906134fb9190614937565b5050601154600354989c50969a50506001600160a01b03958616985050509383169450505085168314905080156135435750806001600160a01b0316836001600160a01b0316145b8061357b5750816001600160a01b0316836001600160a01b031614801561357b5750806001600160a01b0316846001600160a01b0316145b6117885760405162461bcd60e51b815260040161036790615099565b602082015163ffffffff16156135f4576040805162461bcd60e51b815260206004820152601560248201527f5661756c7420616c726561647920686164206e66740000000000000000000000604482015290519081900360640190fd5b80613646576040805162461bcd60e51b815260206004820152600a60248201527f696e76616c696420696400000000000000000000000000000000000000000000604482015290519081900360640190fd5b63ffffffff16602090910152565b60085460009081906001600160a01b0316816136708286613d77565b9250505060006040518060a00160405280878152602001836001600160801b031681526020016000815260200160008152602001428152509050600080846001600160a01b0316630c49ccbe846040518263ffffffff1660e01b81526004016136d99190615113565b6040805180830381600087803b1580156136f257600080fd5b505af1158015613706573d6000803e3d6000fd5b505050506040513d601f19601f8201168201806040525081019061372a91906148b1565b604080516080810182528b81523060208201526001600160801b03808516828401528316606082015290517ffc6f78650000000000000000000000000000000000000000000000000000000081529294509092509060009081906001600160a01b0389169063fc6f7865906137a39086906004016150d0565b6040805180830381600087803b1580156137bc57600080fd5b505af11580156137d0573d6000803e3d6000fd5b505050506040513d601f19601f820116820180604052508101906137f491906148b1565b600e54919350915060ff1660008161380c578261380e565b835b905060008261381d578461381f565b835b919c50909a5050505050505050505050915091565b60008061384687878787610258612110565b90506138696ec097ce7bc90715b34b9f1000000000612256836122c68c88613168565b98975050505050505050565b606082015161388d906001600160801b031682612b0b565b6001600160801b031660609092019190915250565b60006138ac61467e565b6010546040517f54ba0f270000000000000000000000000000000000000000000000000000000081526000916001600160a01b0316906354ba0f27906138f6908790600401614a16565b602060405180830381600087803b15801561391057600080fd5b505af1158015613924573d6000803e3d6000fd5b505050506040513d601f19601f820116820180604052508101906139489190614812565b6040805160808101825260008082526020820181905281830181905260608201529051919250907f5f5dd6438bd675e0dba85db7517ba5931be5b31a11e5af8c04ea0e9152fa7ec59061399c908490615156565b60405180910390a19092509050915091565b600954600090806139c25782915050612132565b601254600554600354600454600b5460009485946139f8948b946001600160a01b03938416949284169391821692911690613834565b90506000613a0c6127106122568487613168565b905080861115613a3e57613a208682612b0b565b600654909350613a39906001600160a01b031682612b68565b613a62565b613a488a826132ba565b600654613a5e906001600160a01b031682612b68565b8592505b509098975050505050505050565b613a7a82846127a4565b613a965760405162461bcd60e51b815260040161036790614c01565b613aa08482613e17565b6011546040517f40c10f190000000000000000000000000000000000000000000000000000000081526001600160a01b03909116906340c10f1990613aeb9086908590600401614a4e565b600060405180830381600087803b158015613b0557600080fd5b505af1158015613b19573d6000803e3d6000fd5b505050507f0dd703a01208414af8d8c0d38f96263f1c708720550808d8af1985608014387a818360405161246c929190615176565b6000806000848611613b605785613b62565b845b601254600554600354600454939450600093613b959386936001600160a01b03918216939082169290821691168a613834565b9050613bac613ba582600a6130db565b82906131c1565b919791965090945050505050565b6012546005546040517fde5a6e2200000000000000000000000000000000000000000000000000000000815260009283926001600160a01b039182169263de5a6e2292613c0b921690600401614a16565b60206040518083038186803b158015613c2357600080fd5b505afa158015613c37573d6000803e3d6000fd5b505050506040513d601f19601f82011682018060405250810190613c5b919061491b565b6012546007546040517fde5a6e220000000000000000000000000000000000000000000000000000000081529293506000926001600160a01b039283169263de5a6e2292613cae92911690600401614a16565b60206040518083038186803b158015613cc657600080fd5b505afa158015613cda573d6000803e3d6000fd5b505050506040513d601f19601f82011682018060405250810190613cfe919061491b565b90508063ffffffff168263ffffffff1611613d195781613d1b565b805b9250505090565b6000806121208787878787613e2f565b60008088606001516001600160801b031660001415613d575750600190506000613d6b565b613d6689898989898989613ee5565b915091505b97509795505050505050565b6000806000808590506000806000836001600160a01b03166399fbab88896040518263ffffffff1660e01b8152600401808281526020019150506101806040518083038186803b158015613dca57600080fd5b505afa158015613dde573d6000803e3d6000fd5b505050506040513d610180811015613df557600080fd5b5060a081015160c082015160e090920151909b919a5098509650505050505050565b606082015161388d906001600160801b0316826131c1565b604080517fd6906e6d0000000000000000000000000000000000000000000000000000000081526001600160a01b0386811660048301528581166024830152848116604483015263ffffffff84166064830152915160009288169163d6906e6d916084808301926020929190829003018186803b158015613eaf57600080fd5b505afa158015613ec3573d6000803e3d6000fd5b505050506040513d6020811015613ed957600080fd5b50519695505050505050565b6000806000613f216ec097ce7bc90715b34b9f1000000000612256896122c68c8f606001516001600160801b031661316890919063ffffffff16565b90506000613f338b8b8b8b8a8a613f65565b90508681106000613f45846003613168565b613f50846002613168565b10159d919c50909a5050505050505050505050565b6000866020015163ffffffff1660001415613f93575060408601516bffffffffffffffffffffffff166130d1565b600080613fac888a6020015163ffffffff168787614006565b90925090506000613fd46ec097ce7bc90715b34b9f1000000000612256896122c6868d613168565b60408b0151909150613ff8906bffffffffffffffffffffffff1661294885846131c1565b9a9950505050505050505050565b60008060008060006140188989613d77565b92509250925060008061402d85858b8661405d565b915091508761403c578061403e565b815b88614049578261404b565b815b96509650505050505094509492505050565b600080600061406b85614102565b90508660020b8560020b121561409f5761409861408788614102565b61409088614102565b86600161445d565b92506140f8565b8560020b8560020b12156140d8576140ba8161409088614102565b92506140d16140c888614102565b8286600161451a565b91506140f8565b6140f56140e488614102565b6140ed88614102565b86600161451a565b91505b5094509492505050565b60008060008360020b12614119578260020b614121565b8260020b6000035b9050620d89e881111561417b576040805162461bcd60e51b815260206004820152600160248201527f5400000000000000000000000000000000000000000000000000000000000000604482015290519081900360640190fd5b60006001821661419c577001000000000000000000000000000000006141ae565b6ffffcb933bd6fad37aa2d162d1a5940015b70ffffffffffffffffffffffffffffffffff16905060028216156141e2576ffff97272373d413259a46990580e213a0260801c5b6004821615614201576ffff2e50f5f656932ef12357cf3c7fdcc0260801c5b6008821615614220576fffe5caca7e10e4e61c3624eaa0941cd00260801c5b601082161561423f576fffcb9843d60f6159c9db58835c9266440260801c5b602082161561425e576fff973b41fa98c081472e6896dfb254c00260801c5b604082161561427d576fff2ea16466c96a3843ec78b326b528610260801c5b608082161561429c576ffe5dee046a99a2a811c461f1969c30530260801c5b6101008216156142bc576ffcbe86c7900a88aedcffc83b479aa3a40260801c5b6102008216156142dc576ff987a7253ac413176f2b074cf7815e540260801c5b6104008216156142fc576ff3392b0822b70005940c7a398e4b70f30260801c5b61080082161561431c576fe7159475a2c29b7443b29c7fa6e889d90260801c5b61100082161561433c576fd097f3bdfd2022b8845ad8f792aa58250260801c5b61200082161561435c576fa9f746462d870fdf8a65dc1f90e061e50260801c5b61400082161561437c576f70d869a156d2a1b890bb3df62baf32f70260801c5b61800082161561439c576f31be135f97d08fd981231505542fcfa60260801c5b620100008216156143bd576f09aa508b5b7a84e1c677de54f3e99bc90260801c5b620200008216156143dd576e5d6af8dedb81196699c329225ee6040260801c5b620400008216156143fc576d2216e584f5fa1ea926041bedfe980260801c5b62080000821615614419576b048a170391f7dc42444e8fa20260801c5b60008460020b131561443457806000198161443057fe5b0490505b64010000000081061561444857600161444b565b60005b60ff16602082901c0192505050919050565b6000836001600160a01b0316856001600160a01b0316111561447d579293925b7bffffffffffffffffffffffffffffffff000000000000000000000000606084901b166001600160a01b0386860381169087166144b957600080fd5b836144e957866001600160a01b03166144dc8383896001600160a01b031661458a565b816144e357fe5b0461450f565b61450f6145008383896001600160a01b0316614639565b886001600160a01b0316614673565b979650505050505050565b6000836001600160a01b0316856001600160a01b0316111561453a579293925b8161456757614562836001600160801b03168686036001600160a01b0316600160601b61458a565b612132565b612132836001600160801b03168686036001600160a01b0316600160601b614639565b60008080600019858709868602925082811090839003039050806145c057600084116145b557600080fd5b508290049050610c8b565b8084116145cc57600080fd5b6000848688096000868103871696879004966002600389028118808a02820302808a02820302808a02820302808a02820302808a02820302808a02909103029181900381900460010186841190950394909402919094039290920491909117919091029150509392505050565b600061464684848461458a565b90506000828061465257fe5b8486091115610c8b57600019811061466957600080fd5b6001019392505050565b808204910615150190565b60408051608081018252600080825260208201819052918101829052606081019190915290565b805161157e816151b9565b8051600281900b811461157e57600080fd5b805161157e816151ce565b805162ffffff8116811461157e57600080fd5b6000602082840312156146f1578081fd5b8135610c8b816151b9565b60006020828403121561470d578081fd5b8151610c8b816151b9565b600080600080600080600080610100898b031215614734578384fd5b883561473f816151b9565b9750602089013561474f816151b9565b9650604089013561475f816151b9565b9550606089013561476f816151b9565b9450608089013561477f816151b9565b935060a089013561478f816151b9565b925060c089013561479f816151b9565b915060e08901356147af816151b9565b809150509295985092959890939650565b6000602082840312156147d1578081fd5b81518015158114610c8b578182fd5b6000602082840312156147f1578081fd5b610c8b826146b0565b60006020828403121561480b578081fd5b5035919050565b600060208284031215614823578081fd5b5051919050565b6000806040838503121561483c578182fd5b82359150602083013561484e816151b9565b809150509250929050565b60008060006060848603121561486d578283fd5b83359250602084013561487f816151ce565b929592945050506040919091013590565b600080604083850312156148a2578182fd5b50508035926020909101359150565b600080604083850312156148c3578182fd5b505080516020909101519092909150565b6000806000606084860312156148e8578283fd5b505081359360208301359350604090920135919050565b600060208284031215614910578081fd5b8135610c8b816151e3565b60006020828403121561492c578081fd5b8151610c8b816151e3565b6000806000806000806000806000806000806101808d8f031215614959578586fd5b8c516bffffffffffffffffffffffff81168114614974578687fd5b9b5061498260208e016146a5565b9a5061499060408e016146a5565b995061499e60608e016146a5565b98506149ac60808e016146cd565b97506149ba60a08e016146b0565b96506149c860c08e016146b0565b95506149d660e08e016146c2565b94506101008d015193506101208d015192506149f56101408e016146c2565b9150614a046101608e016146c2565b90509295989b509295989b509295989b565b6001600160a01b0391909116815260200190565b6001600160a01b039384168152919092166020820152604081019190915260600190565b6001600160a01b03929092168252602082015260400190565b6001600160a01b0392831681529116602082015260400190565b6001600160a01b0392909216825263ffffffff16602082015260400190565b6001600160a01b0394909416845263ffffffff9290921660208401526bffffffffffffffffffffffff1660408301526001600160801b0316606082015260800190565b901515815260200190565b6020808252601a908201527f496e76616c696420706f77657220706572702061646472657373000000000000604082015260600190565b60208082526018908201527f496e76616c6964207661756c744e465420616464726573730000000000000000604082015260600190565b60208082526009908201527f2173687574646f776e0000000000000000000000000000000000000000000000604082015260600190565b60208082526015908201527f6e6565642066756c6c206c69717569646174696f6e0000000000000000000000604082015260600190565b60208082526019908201527f70617573652074696d65206c696d697420657863656564656400000000000000604082015260600190565b6020808252600b908201527f6e6f7420616c6c6f776564000000000000000000000000000000000000000000604082015260600190565b6020808252601e908201527f496e76616c69642071756f74652063757272656e637920616464726573730000604082015260600190565b6020808252601c908201527f43616e206e6f74206c69717569646174652073616665207661756c7400000000604082015260600190565b6020808252600f908201527f696e76616c696420616464726573730000000000000000000000000000000000604082015260600190565b6020808252601c908201527f496e76616c696420756e6920706f736974696f6e206d616e6167657200000000604082015260600190565b60208082526007908201527f2170617573656400000000000000000000000000000000000000000000000000604082015260600190565b60208082526012908201527f43616e6e6f742072656365697665206574680000000000000000000000000000604082015260600190565b6020808252600d908201527f496e76616c696420737461746500000000000000000000000000000000000000604082015260600190565b60208082526022908201527f496e76616c696420706f776572706572703a65746820706f6f6c20616464726560408201527f7373000000000000000000000000000000000000000000000000000000000000606082015260800190565b60208082526017908201527f7365742066656520726563697069656e74206669727374000000000000000000604082015260600190565b6020808252600a908201527f64757374207661756c7400000000000000000000000000000000000000000000604082015260600190565b6020808252600c908201527f66656520746f6f20686967680000000000000000000000000000000000000000604082015260600190565b6020808252601c908201527f496e76616c6964206574683a75736420706f6f6c206164647265737300000000604082015260600190565b60208082526014908201527f496e76616c696420776574682061646472657373000000000000000000000000604082015260600190565b60208082526016908201527f496e76616c6964206f7261636c65206164647265737300000000000000000000604082015260600190565b60208082526015908201527f70617573656420746f6f206d616e792074696d65730000000000000000000000604082015260600190565b60208082526021908201527f6e6f7420656e6f756768207061757365642074696d652068617320706173736560408201527f6400000000000000000000000000000000000000000000000000000000000000606082015260800190565b60208082526008908201527f73687574646f776e000000000000000000000000000000000000000000000000604082015260600190565b60208082526006908201527f7061757365640000000000000000000000000000000000000000000000000000604082015260600190565b6020808252600f908201527f64757374207661756c74206c6566740000000000000000000000000000000000604082015260600190565b6020808252600b908201527f496e76616c6964206e6674000000000000000000000000000000000000000000604082015260600190565b815181526020808301516001600160a01b0316908201526040808301516001600160801b0390811691830191909152606092830151169181019190915260800190565b600060a082019050825182526001600160801b03602084015116602083015260408301516040830152606083015160608301526080830151608083015292915050565b90815260200190565b9182526001600160a01b0316602082015260400190565b918252602082015260400190565b92835260208301919091526001600160801b0316604082015260600190565b9283526020830191909152604082015260600190565b6001600160a01b0381168114610ae257600080fd5b6001600160801b0381168114610ae257600080fd5b63ffffffff81168114610ae257600080fdfe4f776e61626c653a206e6577206f776e657220697320746865207a65726f2061646472657373416464726573733a20756e61626c6520746f2073656e642076616c75652c20726563697069656e74206d61792068617665207265766572746564496e697469616c697a61626c653a20636f6e747261637420697320616c726561647920696e697469616c697a6564536166654d6174683a206d756c7469706c69636174696f6e206f766572666c6f77a2646970667358221220a3c94c16a83a11318941b1f7d33e0d7b30d2dd36812bc47893db211e7ae0db0164736f6c63430007060033",
    "devdoc": {
        "kind": "dev",
        "methods": {
            "applyFunding()": {
                "details": "update the normalization factor as a way to pay funding."
            },
            "burnPowerPerpAmount(uint256,uint256,uint256)": {
                "params": {
                    "_powerPerpAmount": "amount of powerPerp to burn",
                    "_vaultId": "id of the vault",
                    "_withdrawAmount": "amount of eth to withdraw"
                },
                "returns": {
                    "_0": "amount of wPowerPerp burned"
                }
            },
            "burnWPowerPerpAmount(uint256,uint256,uint256)": {
                "params": {
                    "_vaultId": "id of the vault",
                    "_wPowerPerpAmount": "amount of wPowerPerp to burn",
                    "_withdrawAmount": "amount of eth to withdraw"
                }
            },
            "deposit(uint256)": {
                "details": "deposit collateral into a vault",
                "params": {
                    "_vaultId": "id of the vault"
                }
            },
            "depositUniPositionToken(uint256,uint256)": {
                "params": {
                    "_uniTokenId": "uniswap v3 position token id",
                    "_vaultId": "id of the vault"
                }
            },
            "getDenormalizedMark(uint32)": {
                "params": {
                    "_period": "period which you want to calculate twap with"
                },
                "returns": {
                    "_0": "mark price denominated in $USD, scaled by 1e18"
                }
            },
            "getExpectedNormalizationFactor()": {
                "details": "can be used for on-chain and off-chain calculations"
            },
            "getIndex(uint32)": {
                "params": {
                    "_period": "period which you want to calculate twap with"
                },
                "returns": {
                    "_0": "index price denominated in $USD, scaled by 1e18"
                }
            },
            "init(address,address,address,address,address,address,address,address)": {
                "params": {
                    "_dai": "dai address",
                    "_ethDaiPool": "uniswap v3 pool for weth / dai",
                    "_oracle": "oracle address",
                    "_uniPositionManager": "uniswap v3 nonfungible position manager address",
                    "_vaultNFT": "erc721 token address representing the short position",
                    "_wPowerPerp": "erc20 token address representing non-rebasing long position",
                    "_wPowerPerpPool": "uniswap v3 pool for wPowerPerp / weth",
                    "_weth": "weth address"
                }
            },
            "isVaultSafe(uint256)": {
                "details": "return if the vault is properly collateralized.",
                "params": {
                    "_vaultId": "id of the vault"
                },
                "returns": {
                    "_0": "true if the vault is safe."
                }
            },
            "liquidate(uint256,uint256)": {
                "details": "liquidator can get back (powerPerp burned) * (index price) * 110% in collateral",
                "params": {
                    "_maxDebtAmount": "max amount of wPowerPerpetual you want to repay.",
                    "_vaultId": "the vault you want to liquidate"
                },
                "returns": {
                    "_0": "amount of wPowerPerp repaid."
                }
            },
            "mintPowerPerpAmount(uint256,uint128,uint256)": {
                "params": {
                    "_powerPerpAmount": "amount of powerPerp you wish to mint",
                    "_uniTokenId": "uniswap v3 position token id want to use to increase collateral ratio",
                    "_vaultId": "the vault where you want to mint wPowerPerp in"
                },
                "returns": {
                    "_0": "vaultId",
                    "_1": "amount of wPowerPerp minted"
                }
            },
            "mintWPowerPerpAmount(uint256,uint128,uint256)": {
                "params": {
                    "_uniTokenId": "uniswap v3 position token id want to use to increase collateral ratio",
                    "_vaultId": "the vault where you want to mint wPowerPerp in",
                    "_wPowerPerpAmount": "amount of wPowerPerp you wish to mint"
                },
                "returns": {
                    "_0": "vaultId"
                }
            },
            "owner()": {
                "details": "Returns the address of the current owner."
            },
            "pause()": {
                "details": "pause the system for up to 24 hours after which any one can unpausecan only be called for 365 days since the contract was launched or 4 times, without triggering shutdown atomically"
            },
            "pauseAndShutDown()": {
                "details": "pause and then immediately shutdown the systemthis bypasses the check on number of pauses or time based checks, but is irreversible and enables emergency settlement"
            },
            "redeemLong(uint256)": {
                "details": "redeem wPowerPerp for its index value when the system is shutdown",
                "params": {
                    "_wPerpAmount": "amount of wPowerPerp to burn"
                }
            },
            "redeemShort(uint256)": {
                "details": "redeem additional collateral from the vault when the system is shutdown",
                "params": {
                    "_vaultId": "vauld id"
                }
            },
            "reduceDebt(uint256)": {
                "details": "the caller won't get any bounty. this is expected to be used by vault owner",
                "params": {
                    "_vaultId": "the vault you want to save"
                }
            },
            "renounceOwnership()": {
                "details": "Leaves the contract without owner. It will not be possible to call `onlyOwner` functions anymore. Can only be called by the current owner. NOTE: Renouncing ownership will leave the contract without an owner, thereby removing any functionality that is only available to the owner."
            },
            "setFeeRate(uint256)": {
                "details": "set the fee rate when user deposit or withdraw collateralthis function cannot be called if the feeRecipient is still un-set",
                "params": {
                    "_newFeeRate": "new fee rate in basis point. can't be higher than 2%"
                }
            },
            "setFeeRecipient(address)": {
                "details": "set the recipient who will receive the fee. this should be a contract handling insurance.",
                "params": {
                    "_newFeeRecipient": "new fee recipient"
                }
            },
            "shutDown()": {
                "details": "shutdown the system and enable system settlement"
            },
            "transferOwnership(address)": {
                "details": "Transfers ownership of the contract to a new account (`newOwner`). Can only be called by the current owner."
            },
            "unPauseAnyone()": {
                "details": "anyone can unpause the contract after 24 hours"
            },
            "unPauseOwner()": {
                "details": "owner can unpause at any time"
            },
            "updateOperator(uint256,address)": {
                "details": "can be revoke by setting address to 0.",
                "params": {
                    "_operator": "new operator address",
                    "_vaultId": "id of the vault"
                }
            },
            "withdraw(uint256,uint256)": {
                "params": {
                    "_amount": "amount of eth to withdraw",
                    "_vaultId": "id of the vault"
                }
            },
            "withdrawUniPositionToken(uint256)": {
                "details": "withdraw uniswap v3 position token from a vault",
                "params": {
                    "_vaultId": "id of the vault"
                }
            }
        },
        "stateVariables": {
            "PAUSE_TIME_LIMIT": {
                "details": "system can only be paused for 365 days from deployment"
            },
            "feeRate": {
                "details": "fee rate in basis point. feeRate of 1 = 0.01%"
            },
            "indexForSettlement": {
                "details": "the settlement price for each wPowerPerp for settlement"
            },
            "vaults": {
                "details": "The token ID vault data"
            },
            "wPowerPerpPool": {
                "details": "address of the powerPerp/weth pool"
            }
        },
        "version": 1
    },
    "userdoc": {
        "events": {
            "OpenVault(uint256)": {
                "notice": "Events"
            }
        },
        "kind": "user",
        "methods": {
            "burnPowerPerpAmount(uint256,uint256,uint256)": {
                "notice": "burn powerPerp and remove collateral from a vault."
            },
            "burnWPowerPerpAmount(uint256,uint256,uint256)": {
                "notice": "burn wPowerPerp and remove collateral from a vault."
            },
            "depositUniPositionToken(uint256,uint256)": {
                "notice": "deposit uniswap v3 position token into a vault to increase collateral ratio"
            },
            "donate()": {
                "notice": "a function to add eth into a contract, in case it got insolvent and have ensufficient eth to pay out for settlement."
            },
            "getDenormalizedMark(uint32)": {
                "notice": "get the mark price of powerPerp."
            },
            "getExpectedNormalizationFactor()": {
                "notice": "returns the expected normalization factor, if the funding is paid right now."
            },
            "getIndex(uint32)": {
                "notice": "get the index price of powerPerp."
            },
            "init(address,address,address,address,address,address,address,address)": {
                "notice": "initialize the contract"
            },
            "liquidate(uint256,uint256)": {
                "notice": "if a vault is under the 150% collateral ratio, anyone can liquidate the vault by burning wPowerPerp"
            },
            "mintPowerPerpAmount(uint256,uint128,uint256)": {
                "notice": "put down collateral and mint wPowerPerp."
            },
            "mintWPowerPerpAmount(uint256,uint128,uint256)": {
                "notice": "put down collateral and mint wPowerPerp."
            },
            "reduceDebt(uint256)": {
                "notice": "if a vault is unsafe and has a UNI NFT in it, owner call redeem the NFT to pay back some debt."
            },
            "updateOperator(uint256,address)": {
                "notice": "authorize an address to modify the vault."
            },
            "withdraw(uint256,uint256)": {
                "notice": "withdraw collateral from a vault"
            }
        },
        "version": 1
    },
    "storageLayout": {
        "storage": [
            {
                "astId": 3642,
                "contract": "contracts/core/Controller.sol:Controller",
                "label": "_initialized",
                "offset": 0,
                "slot": "0",
                "type": "t_bool"
            },
            {
                "astId": 3645,
                "contract": "contracts/core/Controller.sol:Controller",
                "label": "_initializing",
                "offset": 1,
                "slot": "0",
                "type": "t_bool"
            },
            {
                "astId": 3109,
                "contract": "contracts/core/Controller.sol:Controller",
                "label": "_owner",
                "offset": 2,
                "slot": "0",
                "type": "t_address"
            },
            {
                "astId": 10967,
                "contract": "contracts/core/Controller.sol:Controller",
                "label": "isShutDown",
                "offset": 22,
                "slot": "0",
                "type": "t_bool"
            },
            {
                "astId": 10970,
                "contract": "contracts/core/Controller.sol:Controller",
                "label": "isSystemPaused",
                "offset": 23,
                "slot": "0",
                "type": "t_bool"
            },
            {
                "astId": 10973,
                "contract": "contracts/core/Controller.sol:Controller",
                "label": "pausesLeft",
                "offset": 0,
                "slot": "1",
                "type": "t_uint256"
            },
            {
                "astId": 10976,
                "contract": "contracts/core/Controller.sol:Controller",
                "label": "lastPauseTime",
                "offset": 0,
                "slot": "2",
                "type": "t_uint256"
            },
            {
                "astId": 10978,
                "contract": "contracts/core/Controller.sol:Controller",
                "label": "weth",
                "offset": 0,
                "slot": "3",
                "type": "t_address"
            },
            {
                "astId": 10980,
                "contract": "contracts/core/Controller.sol:Controller",
                "label": "dai",
                "offset": 0,
                "slot": "4",
                "type": "t_address"
            },
            {
                "astId": 10982,
                "contract": "contracts/core/Controller.sol:Controller",
                "label": "ethDaiPool",
                "offset": 0,
                "slot": "5",
                "type": "t_address"
            },
            {
                "astId": 10984,
                "contract": "contracts/core/Controller.sol:Controller",
                "label": "feeRecipient",
                "offset": 0,
                "slot": "6",
                "type": "t_address"
            },
            {
                "astId": 10987,
                "contract": "contracts/core/Controller.sol:Controller",
                "label": "wPowerPerpPool",
                "offset": 0,
                "slot": "7",
                "type": "t_address"
            },
            {
                "astId": 10989,
                "contract": "contracts/core/Controller.sol:Controller",
                "label": "uniswapPositionManager",
                "offset": 0,
                "slot": "8",
                "type": "t_address"
            },
            {
                "astId": 10992,
                "contract": "contracts/core/Controller.sol:Controller",
                "label": "feeRate",
                "offset": 0,
                "slot": "9",
                "type": "t_uint256"
            },
            {
                "astId": 10995,
                "contract": "contracts/core/Controller.sol:Controller",
                "label": "indexForSettlement",
                "offset": 0,
                "slot": "10",
                "type": "t_uint256"
            },
            {
                "astId": 10997,
                "contract": "contracts/core/Controller.sol:Controller",
                "label": "normalizationFactor",
                "offset": 0,
                "slot": "11",
                "type": "t_uint256"
            },
            {
                "astId": 10999,
                "contract": "contracts/core/Controller.sol:Controller",
                "label": "lastFundingUpdateTimestamp",
                "offset": 0,
                "slot": "12",
                "type": "t_uint256"
            },
            {
                "astId": 11001,
                "contract": "contracts/core/Controller.sol:Controller",
                "label": "deployTimestamp",
                "offset": 0,
                "slot": "13",
                "type": "t_uint256"
            },
            {
                "astId": 11003,
                "contract": "contracts/core/Controller.sol:Controller",
                "label": "isWethToken0",
                "offset": 0,
                "slot": "14",
                "type": "t_bool"
            },
            {
                "astId": 11008,
                "contract": "contracts/core/Controller.sol:Controller",
                "label": "vaults",
                "offset": 0,
                "slot": "15",
                "type": "t_mapping(t_uint256,t_struct(Vault)14581_storage)"
            },
            {
                "astId": 11010,
                "contract": "contracts/core/Controller.sol:Controller",
                "label": "vaultNFT",
                "offset": 0,
                "slot": "16",
                "type": "t_contract(IVaultManagerNFT)14224"
            },
            {
                "astId": 11012,
                "contract": "contracts/core/Controller.sol:Controller",
                "label": "wPowerPerp",
                "offset": 0,
                "slot": "17",
                "type": "t_contract(IWPowerPerp)14260"
            },
            {
                "astId": 11014,
                "contract": "contracts/core/Controller.sol:Controller",
                "label": "oracle",
                "offset": 0,
                "slot": "18",
                "type": "t_contract(IOracle)14210"
            }
        ],
        "types": {
            "t_address": {
                "encoding": "inplace",
                "label": "address",
                "numberOfBytes": "20"
            },
            "t_bool": {
                "encoding": "inplace",
                "label": "bool",
                "numberOfBytes": "1"
            },
            "t_contract(IOracle)14210": {
                "encoding": "inplace",
                "label": "contract IOracle",
                "numberOfBytes": "20"
            },
            "t_contract(IVaultManagerNFT)14224": {
                "encoding": "inplace",
                "label": "contract IVaultManagerNFT",
                "numberOfBytes": "20"
            },
            "t_contract(IWPowerPerp)14260": {
                "encoding": "inplace",
                "label": "contract IWPowerPerp",
                "numberOfBytes": "20"
            },
            "t_mapping(t_uint256,t_struct(Vault)14581_storage)": {
                "encoding": "mapping",
                "key": "t_uint256",
                "label": "mapping(uint256 => struct VaultLib.Vault)",
                "numberOfBytes": "32",
                "value": "t_struct(Vault)14581_storage"
            },
            "t_struct(Vault)14581_storage": {
                "encoding": "inplace",
                "label": "struct VaultLib.Vault",
                "members": [
                    {
                        "astId": 14574,
                        "contract": "contracts/core/Controller.sol:Controller",
                        "label": "operator",
                        "offset": 0,
                        "slot": "0",
                        "type": "t_address"
                    },
                    {
                        "astId": 14576,
                        "contract": "contracts/core/Controller.sol:Controller",
                        "label": "NftCollateralId",
                        "offset": 20,
                        "slot": "0",
                        "type": "t_uint32"
                    },
                    {
                        "astId": 14578,
                        "contract": "contracts/core/Controller.sol:Controller",
                        "label": "collateralAmount",
                        "offset": 0,
                        "slot": "1",
                        "type": "t_uint96"
                    },
                    {
                        "astId": 14580,
                        "contract": "contracts/core/Controller.sol:Controller",
                        "label": "shortAmount",
                        "offset": 12,
                        "slot": "1",
                        "type": "t_uint128"
                    }
                ],
                "numberOfBytes": "64"
            },
            "t_uint128": {
                "encoding": "inplace",
                "label": "uint128",
                "numberOfBytes": "16"
            },
            "t_uint256": {
                "encoding": "inplace",
                "label": "uint256",
                "numberOfBytes": "32"
            },
            "t_uint32": {
                "encoding": "inplace",
                "label": "uint32",
                "numberOfBytes": "4"
            },
            "t_uint96": {
                "encoding": "inplace",
                "label": "uint96",
                "numberOfBytes": "12"
            }
        }
    }
}