{
    "address": "0xe790Afe86c0bdc4Dd7C6CBb7dB087552Ec85F6fB",
    "abi": [
        {
            "inputs": [
                {
                    "internalType": "address",
                    "name": "_pool",
                    "type": "address"
                }
            ],
            "name": "getMaxPeriod",
            "outputs": [
                {
                    "internalType": "uint32",
                    "name": "",
                    "type": "uint32"
                }
            ],
            "stateMutability": "view",
            "type": "function"
        },
        {
            "inputs": [
                {
                    "internalType": "address",
                    "name": "_pool",
                    "type": "address"
                },
                {
                    "internalType": "uint32",
                    "name": "_period",
                    "type": "uint32"
                }
            ],
            "name": "getTimeWeightedAverageTickSafe",
            "outputs": [
                {
                    "internalType": "int24",
                    "name": "timeWeightedAverageTick",
                    "type": "int24"
                }
            ],
            "stateMutability": "view",
            "type": "function"
        },
        {
            "inputs": [
                {
                    "internalType": "address",
                    "name": "_pool",
                    "type": "address"
                },
                {
                    "internalType": "address",
                    "name": "_base",
                    "type": "address"
                },
                {
                    "internalType": "address",
                    "name": "_quote",
                    "type": "address"
                },
                {
                    "internalType": "uint32",
                    "name": "_period",
                    "type": "uint32"
                }
            ],
            "name": "getTwap",
            "outputs": [
                {
                    "internalType": "uint256",
                    "name": "",
                    "type": "uint256"
                }
            ],
            "stateMutability": "view",
            "type": "function"
        },
        {
            "inputs": [
                {
                    "internalType": "address",
                    "name": "_pool",
                    "type": "address"
                },
                {
                    "internalType": "address",
                    "name": "_base",
                    "type": "address"
                },
                {
                    "internalType": "address",
                    "name": "_quote",
                    "type": "address"
                },
                {
                    "internalType": "uint32",
                    "name": "_period",
                    "type": "uint32"
                }
            ],
            "name": "getTwapSafe",
            "outputs": [
                {
                    "internalType": "uint256",
                    "name": "",
                    "type": "uint256"
                }
            ],
            "stateMutability": "view",
            "type": "function"
        }
    ],
    "transactionHash": "0x08142c247da4d6a00b94c6448c1c65013b42ae216cfda3e1ee1ba6aa96a42722",
    "args": [],
    "solcInputHash": "49c79f88c6e4ede6ca1f2ffd46fef4fe",
    "bytecode": "0x608060405234801561001057600080fd5b50610fb4806100206000396000f3fe608060405234801561001057600080fd5b506004361061004c5760003560e01c80634a0a96eb14610051578063821b972a1461009a578063d6906e6d146100ef578063de5a6e2214610132575b600080fd5b6100836004803603604081101561006757600080fd5b5080356001600160a01b0316906020013563ffffffff16610171565b6040805160029290920b8252519081900360200190f35b6100dd600480360360808110156100b057600080fd5b5080356001600160a01b03908116916020810135821691604082013516906060013563ffffffff166101b3565b60408051918252519081900360200190f35b6100dd6004803603608081101561010557600080fd5b5080356001600160a01b03908116916020810135821691604082013516906060013563ffffffff166101cc565b6101586004803603602081101561014857600080fd5b50356001600160a01b03166101da565b6040805163ffffffff9092168252519081900360200190f35b60008061017d846101ed565b905060008163ffffffff168463ffffffff161161019a578361019c565b815b90506101a88582610399565b925050505b92915050565b60006101c1858585856106eb565b90505b949350505050565b60006101c18585858561085a565b60006101e5826101ed565b90505b919050565b600080829050600080826001600160a01b0316633850c7bd6040518163ffffffff1660e01b815260040160e06040518083038186803b15801561022f57600080fd5b505afa158015610243573d6000803e3d6000fd5b505050506040513d60e081101561025957600080fd5b5060408101516060909101519092509050600061ffff8083169060018501168161027f57fe5b069050600080856001600160a01b031663252c09d7846040518263ffffffff1660e01b8152600401808261ffff16815260200191505060806040518083038186803b1580156102cd57600080fd5b505afa1580156102e1573d6000803e3d6000fd5b505050506040513d60808110156102f757600080fd5b5080516060909101519092509050801561031a5750420394506101e89350505050565b856001600160a01b031663252c09d760006040518263ffffffff1660e01b81526004018082815260200191505060806040518083038186803b15801561035f57600080fd5b505afa158015610373573d6000803e3d6000fd5b505050506040513d608081101561038957600080fd5b5051420398975050505050505050565b600063ffffffff82166103f3576040805162461bcd60e51b815260206004820152600260248201527f4250000000000000000000000000000000000000000000000000000000000000604482015290519081900360640190fd5b604080516002808252606082018352600092602083019080368337019050509050828160008151811061042257fe5b602002602001019063ffffffff16908163ffffffff168152505060008160018151811061044b57fe5b63ffffffff9092166020928302919091018201526040517f883bdbfd000000000000000000000000000000000000000000000000000000008152600481018281528351602483015283516000936001600160a01b0389169363883bdbfd938793909283926044019185820191028083838b5b838110156104d55781810151838201526020016104bd565b505050509050019250505060006040518083038186803b1580156104f857600080fd5b505afa15801561050c573d6000803e3d6000fd5b505050506040513d6000823e601f3d9081017fffffffffffffffffffffffffffffffffffffffffffffffffffffffffffffffe0168201604090815281101561055357600080fd5b810190808051604051939291908464010000000082111561057357600080fd5b90830190602082018581111561058857600080fd5b82518660208202830111640100000000821117156105a557600080fd5b82525081516020918201928201910280838360005b838110156105d25781810151838201526020016105ba565b50505050905001604052602001805160405193929190846401000000008211156105fb57600080fd5b90830190602082018581111561061057600080fd5b825186602082028301116401000000008211171561062d57600080fd5b82525081516020918201928201910280838360005b8381101561065a578181015183820152602001610642565b5050505090500160405250505050905060008160008151811061067957fe5b60200260200101518260018151811061068e57fe5b60200260200101510390508463ffffffff168160060b816106ab57fe5b05935060008160060b1280156106d557508463ffffffff168160060b816106ce57fe5b0760060b15155b156106e257600019909301925b50505092915050565b60008061070386868686670de0b6b3a764000061089e565b90506000856001600160a01b031663313ce5676040518163ffffffff1660e01b815260040160206040518083038186803b15801561074057600080fd5b505afa158015610754573d6000803e3d6000fd5b505050506040513d602081101561076a57600080fd5b5051604080517f313ce56700000000000000000000000000000000000000000000000000000000815290519192506000916001600160a01b0388169163313ce567916004808301926020929190829003018186803b1580156107cb57600080fd5b505afa1580156107df573d6000803e3d6000fd5b505050506040513d60208110156107f557600080fd5b5051905060ff8281169082161415610812578293505050506101c4565b8060ff168260ff16111561083c576108328360ff83850316600a0a6108c1565b93505050506101c4565b61084e8360ff84840316600a0a610921565b98975050505050505050565b600080610866866101ed565b905060008163ffffffff168463ffffffff16116108835783610885565b815b9050610893878787846106eb565b979650505050505050565b6000806108ab8785610399565b9050610893816108ba85610988565b88886109ef565b6000826108d0575060006101ad565b828202828482816108dd57fe5b041461091a5760405162461bcd60e51b8152600401808060200182810382526021815260200180610f5e6021913960400191505060405180910390fd5b9392505050565b6000808211610977576040805162461bcd60e51b815260206004820152601a60248201527f536166654d6174683a206469766973696f6e206279207a65726f000000000000604482015290519081900360640190fd5b81838161098057fe5b049392505050565b806fffffffffffffffffffffffffffffffff811681146101e8576040805162461bcd60e51b815260206004820152600860248201527f6f766572666c6f77000000000000000000000000000000000000000000000000604482015290519081900360640190fd5b6000806109fb86610b53565b90506fffffffffffffffffffffffffffffffff6001600160a01b03821611610aaf576001600160a01b0380821680029084811690861610610a7157610a6c7801000000000000000000000000000000000000000000000000876fffffffffffffffffffffffffffffffff1683610eae565b610aa7565b610aa781876fffffffffffffffffffffffffffffffff167801000000000000000000000000000000000000000000000000610eae565b925050610b4a565b6000610ace6001600160a01b0383168068010000000000000000610eae565b9050836001600160a01b0316856001600160a01b031610610b1c57610b17700100000000000000000000000000000000876fffffffffffffffffffffffffffffffff1683610eae565b610893565b61089381876fffffffffffffffffffffffffffffffff16700100000000000000000000000000000000610eae565b50949350505050565b60008060008360020b12610b6a578260020b610b72565b8260020b6000035b9050620d89e8811115610bcc576040805162461bcd60e51b815260206004820152600160248201527f5400000000000000000000000000000000000000000000000000000000000000604482015290519081900360640190fd5b600060018216610bed57700100000000000000000000000000000000610bff565b6ffffcb933bd6fad37aa2d162d1a5940015b70ffffffffffffffffffffffffffffffffff1690506002821615610c33576ffff97272373d413259a46990580e213a0260801c5b6004821615610c52576ffff2e50f5f656932ef12357cf3c7fdcc0260801c5b6008821615610c71576fffe5caca7e10e4e61c3624eaa0941cd00260801c5b6010821615610c90576fffcb9843d60f6159c9db58835c9266440260801c5b6020821615610caf576fff973b41fa98c081472e6896dfb254c00260801c5b6040821615610cce576fff2ea16466c96a3843ec78b326b528610260801c5b6080821615610ced576ffe5dee046a99a2a811c461f1969c30530260801c5b610100821615610d0d576ffcbe86c7900a88aedcffc83b479aa3a40260801c5b610200821615610d2d576ff987a7253ac413176f2b074cf7815e540260801c5b610400821615610d4d576ff3392b0822b70005940c7a398e4b70f30260801c5b610800821615610d6d576fe7159475a2c29b7443b29c7fa6e889d90260801c5b611000821615610d8d576fd097f3bdfd2022b8845ad8f792aa58250260801c5b612000821615610dad576fa9f746462d870fdf8a65dc1f90e061e50260801c5b614000821615610dcd576f70d869a156d2a1b890bb3df62baf32f70260801c5b618000821615610ded576f31be135f97d08fd981231505542fcfa60260801c5b62010000821615610e0e576f09aa508b5b7a84e1c677de54f3e99bc90260801c5b62020000821615610e2e576e5d6af8dedb81196699c329225ee6040260801c5b62040000821615610e4d576d2216e584f5fa1ea926041bedfe980260801c5b62080000821615610e6a576b048a170391f7dc42444e8fa20260801c5b60008460020b1315610e85578060001981610e8157fe5b0490505b640100000000810615610e99576001610e9c565b60005b60ff16602082901c0192505050919050565b6000808060001985870986860292508281109083900303905080610ee45760008411610ed957600080fd5b50829004905061091a565b808411610ef057600080fd5b6000848688096000868103871696879004966002600389028118808a02820302808a02820302808a02820302808a02820302808a02820302808a0290910302918190038190046001018684119095039490940291909403929092049190911791909102915050939250505056fe536166654d6174683a206d756c7469706c69636174696f6e206f766572666c6f77a264697066735822122066b8796d6eaa9e442553dfea824352c26024cac255ba074d0ca1af24b0e0978d64736f6c63430007060033",
    "devdoc": {
        "kind": "dev",
        "methods": {
            "getMaxPeriod(address)": {
                "params": {
                    "_pool": "uniswap pool address"
                },
                "returns": {
                    "_0": "max period can be used to request twap"
                }
            },
            "getTimeWeightedAverageTickSafe(address,uint32)": {
                "details": "this function will not revert",
                "params": {
                    "_period": "period in second that we want to calculate average on",
                    "_pool": "address of the pool"
                },
                "returns": {
                    "timeWeightedAverageTick": "the time weighted average tick"
                }
            },
            "getTwap(address,address,address,uint32)": {
                "details": "if period is longer than the current timestamp - first timestamp stored in the pool, this will revert with \"OLD\".",
                "params": {
                    "_base": "base currency. to get eth/dai price, eth is base token",
                    "_period": "number of seconds in the past to start calculating time-weighted average",
                    "_pool": "uniswap pool address",
                    "_quote": "quote currency. to get eth/dai price, dai is the quote currency"
                },
                "returns": {
                    "_0": "price of 1 base currency in quote currency. scaled by 1e18"
                }
            },
            "getTwapSafe(address,address,address,uint32)": {
                "params": {
                    "_base": "base currency. to get eth/dai price, eth is base token",
                    "_period": "number of seconds in the past to start calculating time-weighted average",
                    "_pool": "uniswap pool address",
                    "_quote": "quote currency. to get eth/dai price, dai is the quote currency"
                },
                "returns": {
                    "_0": "price of 1 base currency in quote currency. scaled by 1e18"
                }
            }
        },
        "version": 1
    },
    "userdoc": {
        "kind": "user",
        "methods": {
            "getMaxPeriod(address)": {
                "notice": "get the max period that can be used to request twap."
            },
            "getTimeWeightedAverageTickSafe(address,uint32)": {
                "notice": "get time weighed average tick, not converted to price"
            },
            "getTwap(address,address,address,uint32)": {
                "notice": "get twap converted with base & quote token decimals"
            },
            "getTwapSafe(address,address,address,uint32)": {
                "notice": "get twap converted with base & quote token decimals, never reverts"
            }
        },
        "version": 1
    },
    "storageLayout": {
        "storage": [],
        "types": null
    }
}