{
    "address": "0x5A30a1E3873A2B5Fc9DB9b2b52491C4b6086FAe0",
    "abi": [
        {
            "inputs": [
                {
                    "internalType": "address",
                    "name": "_controllerAddr",
                    "type": "address"
                },
                {
                    "internalType": "address",
                    "name": "_swapRouter",
                    "type": "address"
                },
                {
                    "internalType": "address",
                    "name": "_wethAddr",
                    "type": "address"
                }
            ],
            "stateMutability": "nonpayable",
            "type": "constructor"
        },
        {
            "inputs": [
                {
                    "internalType": "uint256",
                    "name": "_vaultId",
                    "type": "uint256"
                },
                {
                    "internalType": "uint256",
                    "name": "_wPowerPerpAmount",
                    "type": "uint256"
                },
                {
                    "internalType": "uint128",
                    "name": "_withdrawAmount",
                    "type": "uint128"
                },
                {
                    "components": [
                        {
                            "internalType": "address",
                            "name": "tokenIn",
                            "type": "address"
                        },
                        {
                            "internalType": "address",
                            "name": "tokenOut",
                            "type": "address"
                        },
                        {
                            "internalType": "uint24",
                            "name": "fee",
                            "type": "uint24"
                        },
                        {
                            "internalType": "address",
                            "name": "recipient",
                            "type": "address"
                        },
                        {
                            "internalType": "uint256",
                            "name": "deadline",
                            "type": "uint256"
                        },
                        {
                            "internalType": "uint256",
                            "name": "amountOut",
                            "type": "uint256"
                        },
                        {
                            "internalType": "uint256",
                            "name": "amountInMaximum",
                            "type": "uint256"
                        },
                        {
                            "internalType": "uint160",
                            "name": "sqrtPriceLimitX96",
                            "type": "uint160"
                        }
                    ],
                    "internalType": "struct ISwapRouter.ExactOutputSingleParams",
                    "name": "_exactOutputParams",
                    "type": "tuple"
                }
            ],
            "name": "closeShort",
            "outputs": [],
            "stateMutability": "payable",
            "type": "function"
        },
        {
            "inputs": [],
            "name": "controller",
            "outputs": [
                {
                    "internalType": "contract IController",
                    "name": "",
                    "type": "address"
                }
            ],
            "stateMutability": "view",
            "type": "function"
        },
        {
            "inputs": [
                {
                    "internalType": "uint256",
                    "name": "_vaultId",
                    "type": "uint256"
                },
                {
                    "internalType": "uint128",
                    "name": "_powerPerpAmount",
                    "type": "uint128"
                },
                {
                    "internalType": "uint256",
                    "name": "_uniNftId",
                    "type": "uint256"
                },
                {
                    "components": [
                        {
                            "internalType": "address",
                            "name": "tokenIn",
                            "type": "address"
                        },
                        {
                            "internalType": "address",
                            "name": "tokenOut",
                            "type": "address"
                        },
                        {
                            "internalType": "uint24",
                            "name": "fee",
                            "type": "uint24"
                        },
                        {
                            "internalType": "address",
                            "name": "recipient",
                            "type": "address"
                        },
                        {
                            "internalType": "uint256",
                            "name": "deadline",
                            "type": "uint256"
                        },
                        {
                            "internalType": "uint256",
                            "name": "amountIn",
                            "type": "uint256"
                        },
                        {
                            "internalType": "uint256",
                            "name": "amountOutMinimum",
                            "type": "uint256"
                        },
                        {
                            "internalType": "uint160",
                            "name": "sqrtPriceLimitX96",
                            "type": "uint160"
                        }
                    ],
                    "internalType": "struct ISwapRouter.ExactInputSingleParams",
                    "name": "_exactInputParams",
                    "type": "tuple"
                }
            ],
            "name": "openShort",
            "outputs": [],
            "stateMutability": "payable",
            "type": "function"
        },
        {
            "inputs": [],
            "name": "router",
            "outputs": [
                {
                    "internalType": "contract ISwapRouter",
                    "name": "",
                    "type": "address"
                }
            ],
            "stateMutability": "view",
            "type": "function"
        },
        {
            "inputs": [],
            "name": "vaultNFT",
            "outputs": [
                {
                    "internalType": "contract IVaultManagerNFT",
                    "name": "",
                    "type": "address"
                }
            ],
            "stateMutability": "view",
            "type": "function"
        },
        {
            "inputs": [],
            "name": "weth",
            "outputs": [
                {
                    "internalType": "contract IWETH9",
                    "name": "",
                    "type": "address"
                }
            ],
            "stateMutability": "view",
            "type": "function"
        },
        {
            "stateMutability": "payable",
            "type": "receive"
        }
    ],
    "transactionHash": "0x52cfda76b30215eb5d29879b788b1b8d686fdd594ad2d505c25577ccda72e278",
    "args": [
        "0x6FBbc7eBd7E421839915e8e4fAcC9947dC32F4dE",
        "0xE592427A0AEce92De3Edee1F18E0157C05861564",
        "0xB47e6A5f8b33b3F17603C83a0535A9dcD7E32681"
    ],
    "solcInputHash": "49c79f88c6e4ede6ca1f2ffd46fef4fe",
    "bytecode": "0x6101006040523480156200001257600080fd5b506040516200100a3803806200100a8339810160408190526200003591620002cb565b6000839050826001600160a01b031660a0816001600160a01b031660601b815250506000816001600160a01b0316637f07b1306040518163ffffffff1660e01b815260040160206040518083038186803b1580156200009357600080fd5b505afa158015620000a8573d6000803e3d6000fd5b505050506040513d601f19601f82011682018060405250810190620000ce9190620002a7565b60405163095ea7b360e01b815290915083906001600160a01b0383169063095ea7b390620001059088906000199060040162000336565b602060405180830381600087803b1580156200012057600080fd5b505af115801562000135573d6000803e3d6000fd5b505050506040513d601f19601f820116820180604052508101906200015b919062000314565b5060405163095ea7b360e01b81526001600160a01b0382169063095ea7b3906200018e9088906000199060040162000336565b602060405180830381600087803b158015620001a957600080fd5b505af1158015620001be573d6000803e3d6000fd5b505050506040513d601f19601f82011682018060405250810190620001e4919062000314565b50826001600160a01b03166384dea1a16040518163ffffffff1660e01b815260040160206040518083038186803b1580156200021f57600080fd5b505afa15801562000234573d6000803e3d6000fd5b505050506040513d601f19601f820116820180604052508101906200025a9190620002a7565b6001600160601b0319606091821b811660e05291811b821660c0529290921b909116608052506200034f92505050565b80516001600160a01b0381168114620002a257600080fd5b919050565b600060208284031215620002b9578081fd5b620002c4826200028a565b9392505050565b600080600060608486031215620002e0578182fd5b620002eb846200028a565b9250620002fb602085016200028a565b91506200030b604085016200028a565b90509250925092565b60006020828403121562000326578081fd5b81518015158114620002c4578182fd5b6001600160a01b03929092168252602082015260400190565b60805160601c60a05160601c60c05160601c60e05160601c610c44620003c66000398061044a52806104c15250806079528061018b528061033452806103a152806104e552806106b75250806102915280610588528061077252508060ab52806101b25280610644528061074e5250610c446000f3fe6080604052600436106100695760003560e01c8063918e1cda11610043578063918e1cda1461014c578063f77c47911461015f578063f887ea4014610174576100f4565b80633fc8cef3146100f9578063583f7b0e1461012457806384dea1a114610137576100f4565b366100f457336001600160a01b037f00000000000000000000000000000000000000000000000000000000000000001614806100cd5750336001600160a01b037f000000000000000000000000000000000000000000000000000000000000000016145b6100f25760405162461bcd60e51b81526004016100e990610b35565b60405180910390fd5b005b600080fd5b34801561010557600080fd5b5061010e610189565b60405161011b9190610b21565b60405180910390f35b6100f26101323660046109f3565b6101ad565b34801561014357600080fd5b5061010e6104bf565b6100f261015a366004610a5d565b6104e3565b34801561016b57600080fd5b5061010e61074c565b34801561018057600080fd5b5061010e610770565b7f000000000000000000000000000000000000000000000000000000000000000081565b6000807f00000000000000000000000000000000000000000000000000000000000000006001600160a01b031663f3a50fe3348888886040518563ffffffff1660e01b815260040161020193929190610b84565b60408051808303818588803b15801561021957600080fd5b505af115801561022d573d6000803e3d6000fd5b50505050506040513d601f19601f820116820180604052508101906102529190610a3a565b60a085018190526040517f414bf38900000000000000000000000000000000000000000000000000000000815291935091506000906001600160a01b037f0000000000000000000000000000000000000000000000000000000000000000169063414bf389906102c6908790600401610b6c565b602060405180830381600087803b1580156102e057600080fd5b505af11580156102f4573d6000803e3d6000fd5b505050506040513d601f19601f8201168201806040525081019061031891906109db565b60608501519091506001600160a01b03163014801561036c57507f00000000000000000000000000000000000000000000000000000000000000006001600160a01b031684602001516001600160a01b0316145b15610415576040517f2e1a7d4d0000000000000000000000000000000000000000000000000000000081526001600160a01b037f00000000000000000000000000000000000000000000000000000000000000001690632e1a7d4d906103d6908490600401610b7b565b600060405180830381600087803b1580156103f057600080fd5b505af1158015610404573d6000803e3d6000fd5b506104159250339150839050610794565b866104b6576040517f23b872dd0000000000000000000000000000000000000000000000000000000081526001600160a01b037f000000000000000000000000000000000000000000000000000000000000000016906323b872dd9061048390309033908890600401610afd565b600060405180830381600087803b15801561049d57600080fd5b505af11580156104b1573d6000803e3d6000fd5b505050505b50505050505050565b7f000000000000000000000000000000000000000000000000000000000000000081565b7f00000000000000000000000000000000000000000000000000000000000000006001600160a01b031663d0e30db0346040518263ffffffff1660e01b81526004016000604051808303818588803b15801561053e57600080fd5b505af1158015610552573d6000803e3d6000fd5b50506040517fdb3e2198000000000000000000000000000000000000000000000000000000008152600093506001600160a01b037f000000000000000000000000000000000000000000000000000000000000000016925063db3e219891506105bf908590600401610b6c565b602060405180830381600087803b1580156105d957600080fd5b505af11580156105ed573d6000803e3d6000fd5b505050506040513d601f19601f8201168201806040525081019061061191906109db565b6040517f8632cb030000000000000000000000000000000000000000000000000000000081529091506001600160a01b037f00000000000000000000000000000000000000000000000000000000000000001690638632cb039061067d90889088908890600401610bac565b600060405180830381600087803b15801561069757600080fd5b505af11580156106ab573d6000803e3d6000fd5b50506001600160a01b037f0000000000000000000000000000000000000000000000000000000000000000169150632e1a7d4d90506106ea348461087e565b6040518263ffffffff1660e01b81526004016107069190610b7b565b600060405180830381600087803b15801561072057600080fd5b505af1158015610734573d6000803e3d6000fd5b506107459250339150479050610794565b5050505050565b7f000000000000000000000000000000000000000000000000000000000000000081565b7f000000000000000000000000000000000000000000000000000000000000000081565b804710156107e9576040805162461bcd60e51b815260206004820152601d60248201527f416464726573733a20696e73756666696369656e742062616c616e6365000000604482015290519081900360640190fd5b6040516000906001600160a01b0384169083908381818185875af1925050503d8060008114610834576040519150601f19603f3d011682016040523d82523d6000602084013e610839565b606091505b50509050806108795760405162461bcd60e51b815260040180806020018281038252603a815260200180610bd5603a913960400191505060405180910390fd5b505050565b6000828211156108d5576040805162461bcd60e51b815260206004820152601e60248201527f536166654d6174683a207375627472616374696f6e206f766572666c6f770000604482015290519081900360640190fd5b508082035b92915050565b80356001600160a01b03811681146108f757600080fd5b919050565b600061010080838503121561090f578182fd5b6040519081019067ffffffffffffffff8211818310171561092c57fe5b8160405280925061093c846108e0565b815261094a602085016108e0565b602082015261095b604085016109c8565b604082015261096c606085016108e0565b60608201526080840135608082015260a084013560a082015260c084013560c082015261099b60e085016108e0565b60e0820152505092915050565b80356fffffffffffffffffffffffffffffffff811681146108f757600080fd5b803562ffffff811681146108f757600080fd5b6000602082840312156109ec578081fd5b5051919050565b6000806000806101608587031215610a09578283fd5b84359350610a19602086016109a8565b925060408501359150610a2f86606087016108fc565b905092959194509250565b60008060408385031215610a4c578182fd5b505080516020909101519092909150565b6000806000806101608587031215610a73578384fd5b8435935060208501359250610a8a604086016109a8565b9150610a2f86606087016108fc565b6001600160a01b0380825116835280602083015116602084015262ffffff60408301511660408401528060608301511660608401526080820151608084015260a082015160a084015260c082015160c08401528060e08301511660e0840152505050565b6001600160a01b039384168152919092166020820152604081019190915260600190565b6001600160a01b0391909116815260200190565b60208082526011908201527f63616e2774207265636569766520657468000000000000000000000000000000604082015260600190565b61010081016108da8284610a99565b90815260200190565b9283526fffffffffffffffffffffffffffffffff919091166020830152604082015260600190565b92835260208301919091526fffffffffffffffffffffffffffffffff1660408201526060019056fe416464726573733a20756e61626c6520746f2073656e642076616c75652c20726563697069656e74206d61792068617665207265766572746564a264697066735822122056ae9c698b1a26c77f7eed5817e82bcae8cab32dcf585047dd6e0397740e3e2564736f6c63430007060033",
    "devdoc": {
        "kind": "dev",
        "methods": {},
        "version": 1
    },
    "userdoc": {
        "kind": "user",
        "methods": {
            "closeShort(uint256,uint256,uint128,(address,address,uint24,address,uint256,uint256,uint256,uint160))": {
                "notice": "buy back some squeeth and close the position."
            },
            "openShort(uint256,uint128,uint256,(address,address,uint24,address,uint256,uint256,uint256,uint160))": {
                "notice": "mint power perp, trade with uniswap and send back premium in eth."
            }
        },
        "version": 1
    },
    "storageLayout": {
        "storage": [],
        "types": null
    }
}