{
    "address": "0x40FA4273a739667D7dBf1C46755C27338eAa0728",
    "abi": [
        {
            "anonymous": false,
            "inputs": [
                {
                    "indexed": true,
                    "internalType": "address",
                    "name": "owner",
                    "type": "address"
                },
                {
                    "indexed": true,
                    "internalType": "address",
                    "name": "approved",
                    "type": "address"
                },
                {
                    "indexed": true,
                    "internalType": "uint256",
                    "name": "tokenId",
                    "type": "uint256"
                }
            ],
            "name": "Approval",
            "type": "event"
        },
        {
            "anonymous": false,
            "inputs": [
                {
                    "indexed": true,
                    "internalType": "address",
                    "name": "owner",
                    "type": "address"
                },
                {
                    "indexed": true,
                    "internalType": "address",
                    "name": "operator",
                    "type": "address"
                },
                {
                    "indexed": false,
                    "internalType": "bool",
                    "name": "approved",
                    "type": "bool"
                }
            ],
            "name": "ApprovalForAll",
            "type": "event"
        },
        {
            "anonymous": false,
            "inputs": [
                {
                    "indexed": true,
                    "internalType": "address",
                    "name": "from",
                    "type": "address"
                },
                {
                    "indexed": true,
                    "internalType": "address",
                    "name": "to",
                    "type": "address"
                },
                {
                    "indexed": true,
                    "internalType": "uint256",
                    "name": "tokenId",
                    "type": "uint256"
                }
            ],
            "name": "Transfer",
            "type": "event"
        },
        {
            "inputs": [
                {
                    "internalType": "address",
                    "name": "to",
                    "type": "address"
                },
                {
                    "internalType": "uint256",
                    "name": "tokenId",
                    "type": "uint256"
                }
            ],
            "name": "approve",
            "outputs": [],
            "stateMutability": "nonpayable",
            "type": "function"
        },
        {
            "inputs": [
                {
                    "internalType": "address",
                    "name": "owner",
                    "type": "address"
                }
            ],
            "name": "balanceOf",
            "outputs": [
                {
                    "internalType": "uint256",
                    "name": "",
                    "type": "uint256"
                }
            ],
            "stateMutability": "view",
            "type": "function"
        },
        {
            "inputs": [],
            "name": "baseURI",
            "outputs": [
                {
                    "internalType": "string",
                    "name": "",
                    "type": "string"
                }
            ],
            "stateMutability": "view",
            "type": "function"
        },
        {
            "inputs": [],
            "name": "controller",
            "outputs": [
                {
                    "internalType": "address",
                    "name": "",
                    "type": "address"
                }
            ],
            "stateMutability": "view",
            "type": "function"
        },
        {
            "inputs": [
                {
                    "internalType": "uint256",
                    "name": "tokenId",
                    "type": "uint256"
                }
            ],
            "name": "getApproved",
            "outputs": [
                {
                    "internalType": "address",
                    "name": "",
                    "type": "address"
                }
            ],
            "stateMutability": "view",
            "type": "function"
        },
        {
            "inputs": [
                {
                    "internalType": "address",
                    "name": "_controller",
                    "type": "address"
                }
            ],
            "name": "init",
            "outputs": [],
            "stateMutability": "nonpayable",
            "type": "function"
        },
        {
            "inputs": [
                {
                    "internalType": "address",
                    "name": "owner",
                    "type": "address"
                },
                {
                    "internalType": "address",
                    "name": "operator",
                    "type": "address"
                }
            ],
            "name": "isApprovedForAll",
            "outputs": [
                {
                    "internalType": "bool",
                    "name": "",
                    "type": "bool"
                }
            ],
            "stateMutability": "view",
            "type": "function"
        },
        {
            "inputs": [
                {
                    "internalType": "address",
                    "name": "_recipient",
                    "type": "address"
                }
            ],
            "name": "mintNFT",
            "outputs": [
                {
                    "internalType": "uint256",
                    "name": "tokenId",
                    "type": "uint256"
                }
            ],
            "stateMutability": "nonpayable",
            "type": "function"
        },
        {
            "inputs": [],
            "name": "name",
            "outputs": [
                {
                    "internalType": "string",
                    "name": "",
                    "type": "string"
                }
            ],
            "stateMutability": "view",
            "type": "function"
        },
        {
            "inputs": [],
            "name": "nextId",
            "outputs": [
                {
                    "internalType": "uint256",
                    "name": "",
                    "type": "uint256"
                }
            ],
            "stateMutability": "view",
            "type": "function"
        },
        {
            "inputs": [
                {
                    "internalType": "uint256",
                    "name": "tokenId",
                    "type": "uint256"
                }
            ],
            "name": "ownerOf",
            "outputs": [
                {
                    "internalType": "address",
                    "name": "",
                    "type": "address"
                }
            ],
            "stateMutability": "view",
            "type": "function"
        },
        {
            "inputs": [
                {
                    "internalType": "address",
                    "name": "from",
                    "type": "address"
                },
                {
                    "internalType": "address",
                    "name": "to",
                    "type": "address"
                },
                {
                    "internalType": "uint256",
                    "name": "tokenId",
                    "type": "uint256"
                }
            ],
            "name": "safeTransferFrom",
            "outputs": [],
            "stateMutability": "nonpayable",
            "type": "function"
        },
        {
            "inputs": [
                {
                    "internalType": "address",
                    "name": "from",
                    "type": "address"
                },
                {
                    "internalType": "address",
                    "name": "to",
                    "type": "address"
                },
                {
                    "internalType": "uint256",
                    "name": "tokenId",
                    "type": "uint256"
                },
                {
                    "internalType": "bytes",
                    "name": "_data",
                    "type": "bytes"
                }
            ],
            "name": "safeTransferFrom",
            "outputs": [],
            "stateMutability": "nonpayable",
            "type": "function"
        },
        {
            "inputs": [
                {
                    "internalType": "address",
                    "name": "operator",
                    "type": "address"
                },
                {
                    "internalType": "bool",
                    "name": "approved",
                    "type": "bool"
                }
            ],
            "name": "setApprovalForAll",
            "outputs": [],
            "stateMutability": "nonpayable",
            "type": "function"
        },
        {
            "inputs": [
                {
                    "internalType": "bytes4",
                    "name": "interfaceId",
                    "type": "bytes4"
                }
            ],
            "name": "supportsInterface",
            "outputs": [
                {
                    "internalType": "bool",
                    "name": "",
                    "type": "bool"
                }
            ],
            "stateMutability": "view",
            "type": "function"
        },
        {
            "inputs": [],
            "name": "symbol",
            "outputs": [
                {
                    "internalType": "string",
                    "name": "",
                    "type": "string"
                }
            ],
            "stateMutability": "view",
            "type": "function"
        },
        {
            "inputs": [
                {
                    "internalType": "uint256",
                    "name": "index",
                    "type": "uint256"
                }
            ],
            "name": "tokenByIndex",
            "outputs": [
                {
                    "internalType": "uint256",
                    "name": "",
                    "type": "uint256"
                }
            ],
            "stateMutability": "view",
            "type": "function"
        },
        {
            "inputs": [
                {
                    "internalType": "address",
                    "name": "owner",
                    "type": "address"
                },
                {
                    "internalType": "uint256",
                    "name": "index",
                    "type": "uint256"
                }
            ],
            "name": "tokenOfOwnerByIndex",
            "outputs": [
                {
                    "internalType": "uint256",
                    "name": "",
                    "type": "uint256"
                }
            ],
            "stateMutability": "view",
            "type": "function"
        },
        {
            "inputs": [
                {
                    "internalType": "uint256",
                    "name": "tokenId",
                    "type": "uint256"
                }
            ],
            "name": "tokenURI",
            "outputs": [
                {
                    "internalType": "string",
                    "name": "",
                    "type": "string"
                }
            ],
            "stateMutability": "view",
            "type": "function"
        },
        {
            "inputs": [],
            "name": "totalSupply",
            "outputs": [
                {
                    "internalType": "uint256",
                    "name": "",
                    "type": "uint256"
                }
            ],
            "stateMutability": "view",
            "type": "function"
        },
        {
            "inputs": [
                {
                    "internalType": "address",
                    "name": "from",
                    "type": "address"
                },
                {
                    "internalType": "address",
                    "name": "to",
                    "type": "address"
                },
                {
                    "internalType": "uint256",
                    "name": "tokenId",
                    "type": "uint256"
                }
            ],
            "name": "transferFrom",
            "outputs": [],
            "stateMutability": "nonpayable",
            "type": "function"
        }
    ],
    "transactionHash": "0x673c8730155a592c32e0c20d3072c55194a16b3b406f85baf276af32836a4ce2",
    "args": [],
    "solcInputHash": "49c79f88c6e4ede6ca1f2ffd46fef4fe",
    "bytecode": "0x6080604052600160975534801561001557600080fd5b50612326806100256000396000f3fe608060405234801561001057600080fd5b50600436106101775760003560e01c806354ba0f27116100d857806395d89b411161008c578063c87b56dd11610066578063c87b56dd1461051d578063e985e9c51461053a578063f77c47911461056857610177565b806395d89b4114610421578063a22cb46514610429578063b88d4fde1461045757610177565b80636352211e116100bd5780636352211e146103d65780636c0360eb146103f357806370a08231146103fb57610177565b806354ba0f27146103a857806361b8ce8c146103ce57610177565b806319ab453c1161012f5780632f745c59116101145780632f745c591461032957806342842e0e146103555780634f6ccce71461038b57610177565b806319ab453c146102cd57806323b872dd146102f357610177565b8063081812fc11610160578063081812fc1461024c578063095ea7b31461028557806318160ddd146102b357610177565b806301ffc9a71461017c57806306fdde03146101cf575b600080fd5b6101bb6004803603602081101561019257600080fd5b50357fffffffff0000000000000000000000000000000000000000000000000000000016610570565b604080519115158252519081900360200190f35b6101d76105ab565b6040805160208082528351818301528351919283929083019185019080838360005b838110156102115781810151838201526020016101f9565b50505050905090810190601f16801561023e5780820380516001836020036101000a031916815260200191505b509250505060405180910390f35b6102696004803603602081101561026257600080fd5b5035610641565b604080516001600160a01b039092168252519081900360200190f35b6102b16004803603604081101561029b57600080fd5b506001600160a01b0381351690602001356106a3565b005b6102bb61077e565b60408051918252519081900360200190f35b6102b1600480360360208110156102e357600080fd5b50356001600160a01b031661078f565b6102b16004803603606081101561030957600080fd5b506001600160a01b038135811691602081013590911690604001356108d9565b6102bb6004803603604081101561033f57600080fd5b506001600160a01b038135169060200135610930565b6102b16004803603606081101561036b57600080fd5b506001600160a01b0381358116916020810135909116906040013561095b565b6102bb600480360360208110156103a157600080fd5b5035610976565b6102bb600480360360208110156103be57600080fd5b50356001600160a01b031661098c565b6102bb610a04565b610269600480360360208110156103ec57600080fd5b5035610a0a565b6101d7610a32565b6102bb6004803603602081101561041157600080fd5b50356001600160a01b0316610a93565b6101d7610afb565b6102b16004803603604081101561043f57600080fd5b506001600160a01b0381351690602001351515610b5c565b6102b16004803603608081101561046d57600080fd5b6001600160a01b038235811692602081013590911691604082013591908101906080810160608201356401000000008111156104a857600080fd5b8201836020820111156104ba57600080fd5b803590602001918460018302840111640100000000831117156104dc57600080fd5b91908080601f016020809104026020016040519081016040528093929190818152602001838380828437600092019190915250929550610c61945050505050565b6101d76004803603602081101561053357600080fd5b5035610cbf565b6101bb6004803603604081101561055057600080fd5b506001600160a01b0381358116916020013516610f40565b610269610f6e565b7fffffffff00000000000000000000000000000000000000000000000000000000811660009081526033602052604090205460ff165b919050565b606a8054604080516020601f60026000196101006001881615020190951694909404938401819004810282018101909252828152606093909290918301828280156106375780601f1061060c57610100808354040283529160200191610637565b820191906000526020600020905b81548152906001019060200180831161061a57829003601f168201915b5050505050905090565b600061064c82610f7d565b6106875760405162461bcd60e51b815260040180806020018281038252602c81526020018061221b602c913960400191505060405180910390fd5b506000908152606860205260409020546001600160a01b031690565b60006106ae82610a0a565b9050806001600160a01b0316836001600160a01b031614156107015760405162461bcd60e51b815260040180806020018281038252602181526020018061229f6021913960400191505060405180910390fd5b806001600160a01b0316610713610f8a565b6001600160a01b0316148061073457506107348161072f610f8a565b610f40565b61076f5760405162461bcd60e51b81526004018080602001828103825260388152602001806121406038913960400191505060405180910390fd5b6107798383610f8e565b505050565b600061078a6066611014565b905090565b600054610100900460ff16806107a857506107a861101f565b806107b6575060005460ff16155b6107f15760405162461bcd60e51b815260040180806020018281038252602e8152602001806121cb602e913960400191505060405180910390fd5b600054610100900460ff1615801561081c576000805460ff1961ff0019909116610100171660011790555b6108906040518060400160405280601b81526020017f53686f7274204f70796e205371756565746820506f736974696f6e00000000008152506040518060400160405280600881526020017f7353717565657468000000000000000000000000000000000000000000000000815250611030565b609880547fffffffffffffffffffffffff0000000000000000000000000000000000000000166001600160a01b03841617905580156108d5576000805461ff00191690555b5050565b6108ea6108e4610f8a565b826110ed565b6109255760405162461bcd60e51b81526004018080602001828103825260318152602001806122c06031913960400191505060405180910390fd5b610779838383611191565b6001600160a01b038216600090815260656020526040812061095290836112dd565b90505b92915050565b61077983838360405180602001604052806000815250610c61565b6000806109846066846112e9565b509392505050565b6098546000906001600160a01b031633146109ee576040805162461bcd60e51b815260206004820152600e60248201527f6e6f7420636f6e74726f6c6c6572000000000000000000000000000000000000604482015290519081900360640190fd5b5060978054600181019091556105a68282611305565b60975481565b6000610955826040518060600160405280602981526020016121a26029913960669190611433565b606d8054604080516020601f60026000196101006001881615020190951694909404938401819004810282018101909252828152606093909290918301828280156106375780601f1061060c57610100808354040283529160200191610637565b60006001600160a01b038216610ada5760405162461bcd60e51b815260040180806020018281038252602a815260200180612178602a913960400191505060405180910390fd5b6001600160a01b038216600090815260656020526040902061095590611014565b606b8054604080516020601f60026000196101006001881615020190951694909404938401819004810282018101909252828152606093909290918301828280156106375780601f1061060c57610100808354040283529160200191610637565b610b64610f8a565b6001600160a01b0316826001600160a01b03161415610bca576040805162461bcd60e51b815260206004820152601960248201527f4552433732313a20617070726f766520746f2063616c6c657200000000000000604482015290519081900360640190fd5b8060696000610bd7610f8a565b6001600160a01b03908116825260208083019390935260409182016000908120918716808252919093529120805460ff191692151592909217909155610c1b610f8a565b6001600160a01b03167f17307eab39ab6107e8899845ad3d59bd9653f200f220920489ca2b5937696c318360405180821515815260200191505060405180910390a35050565b610c72610c6c610f8a565b836110ed565b610cad5760405162461bcd60e51b81526004018080602001828103825260318152602001806122c06031913960400191505060405180910390fd5b610cb98484848461144a565b50505050565b6060610cca82610f7d565b610d055760405162461bcd60e51b815260040180806020018281038252602f815260200180612270602f913960400191505060405180910390fd5b6000828152606c602090815260408083208054825160026001831615610100026000190190921691909104601f810185900485028201850190935282815292909190830182828015610d985780601f10610d6d57610100808354040283529160200191610d98565b820191906000526020600020905b815481529060010190602001808311610d7b57829003601f168201915b505050505090506000610da9610a32565b9050805160001415610dbd575090506105a6565b815115610e7e5780826040516020018083805190602001908083835b60208310610df85780518252601f199092019160209182019101610dd9565b51815160209384036101000a600019018019909216911617905285519190930192850191508083835b60208310610e405780518252601f199092019160209182019101610e21565b6001836020036101000a03801982511681845116808217855250505050505090500192505050604051602081830303815290604052925050506105a6565b80610e888561149c565b6040516020018083805190602001908083835b60208310610eba5780518252601f199092019160209182019101610e9b565b51815160209384036101000a600019018019909216911617905285519190930192850191508083835b60208310610f025780518252601f199092019160209182019101610ee3565b6001836020036101000a0380198251168184511680821785525050505050509050019250505060405160208183030381529060405292505050919050565b6001600160a01b03918216600090815260696020908152604080832093909416825291909152205460ff1690565b6098546001600160a01b031681565b60006109556066836115ab565b3390565b600081815260686020526040902080547fffffffffffffffffffffffff0000000000000000000000000000000000000000166001600160a01b0384169081179091558190610fdb82610a0a565b6001600160a01b03167f8c5be1e5ebec7d5bd14f71427d1e84f3dd0314c0f7b2291e5b200ac8c7c3b92560405160405180910390a45050565b6000610955826115b7565b600061102a306115bb565b15905090565b600054610100900460ff1680611049575061104961101f565b80611057575060005460ff16155b6110925760405162461bcd60e51b815260040180806020018281038252602e8152602001806121cb602e913960400191505060405180910390fd5b600054610100900460ff161580156110bd576000805460ff1961ff0019909116610100171660011790555b6110c56115c1565b6110cd611663565b6110d78383611719565b8015610779576000805461ff0019169055505050565b60006110f882610f7d565b6111335760405162461bcd60e51b815260040180806020018281038252602c815260200180612114602c913960400191505060405180910390fd5b600061113e83610a0a565b9050806001600160a01b0316846001600160a01b031614806111795750836001600160a01b031661116e84610641565b6001600160a01b0316145b8061118957506111898185610f40565b949350505050565b826001600160a01b03166111a482610a0a565b6001600160a01b0316146111e95760405162461bcd60e51b81526004018080602001828103825260298152602001806122476029913960400191505060405180910390fd5b6001600160a01b03821661122e5760405162461bcd60e51b81526004018080602001828103825260248152602001806120f06024913960400191505060405180910390fd5b611239838383610779565b611244600082610f8e565b6001600160a01b03831660009081526065602052604090206112669082611849565b506001600160a01b03821660009081526065602052604090206112899082611855565b5061129660668284611861565b5080826001600160a01b0316846001600160a01b03167fddf252ad1be2c89b69c2b068fc378daa952ba7f163c4a11628f55a4df523b3ef60405160405180910390a4505050565b60006109528383611877565b60008080806112f886866118db565b9097909650945050505050565b6001600160a01b038216611360576040805162461bcd60e51b815260206004820181905260248201527f4552433732313a206d696e7420746f20746865207a65726f2061646472657373604482015290519081900360640190fd5b61136981610f7d565b156113bb576040805162461bcd60e51b815260206004820152601c60248201527f4552433732313a20746f6b656e20616c7265616479206d696e74656400000000604482015290519081900360640190fd5b6113c760008383610779565b6001600160a01b03821660009081526065602052604090206113e99082611855565b506113f660668284611861565b5060405181906001600160a01b038416906000907fddf252ad1be2c89b69c2b068fc378daa952ba7f163c4a11628f55a4df523b3ef908290a45050565b6000611440848484611956565b90505b9392505050565b611455848484611191565b61146184848484611a20565b610cb95760405162461bcd60e51b81526004018080602001828103825260328152602001806120be6032913960400191505060405180910390fd5b6060816114dd575060408051808201909152600181527f300000000000000000000000000000000000000000000000000000000000000060208201526105a6565b8160005b81156114f557600101600a820491506114e1565b60008167ffffffffffffffff8111801561150e57600080fd5b506040519080825280601f01601f191660200182016040528015611539576020820181803683370190505b50859350905060001982015b83156115a257600a840660300160f81b8282806001900393508151811061156857fe5b60200101907effffffffffffffffffffffffffffffffffffffffffffffffffffffffffffff1916908160001a905350600a84049350611545565b50949350505050565b60006109528383611bfc565b5490565b3b151590565b600054610100900460ff16806115da57506115da61101f565b806115e8575060005460ff16155b6116235760405162461bcd60e51b815260040180806020018281038252602e8152602001806121cb602e913960400191505060405180910390fd5b600054610100900460ff1615801561164e576000805460ff1961ff0019909116610100171660011790555b8015611660576000805461ff00191690555b50565b600054610100900460ff168061167c575061167c61101f565b8061168a575060005460ff16155b6116c55760405162461bcd60e51b815260040180806020018281038252602e8152602001806121cb602e913960400191505060405180910390fd5b600054610100900460ff161580156116f0576000805460ff1961ff0019909116610100171660011790555b61164e7f01ffc9a700000000000000000000000000000000000000000000000000000000611c14565b600054610100900460ff1680611732575061173261101f565b80611740575060005460ff16155b61177b5760405162461bcd60e51b815260040180806020018281038252602e8152602001806121cb602e913960400191505060405180910390fd5b600054610100900460ff161580156117a6576000805460ff1961ff0019909116610100171660011790555b82516117b990606a906020860190611ffa565b5081516117cd90606b906020850190611ffa565b506117f77f80ac58cd00000000000000000000000000000000000000000000000000000000611c14565b6118207f5b5e139f00000000000000000000000000000000000000000000000000000000611c14565b6110d77f780e9d6300000000000000000000000000000000000000000000000000000000611c14565b60006109528383611cc8565b60006109528383611d8e565b600061144084846001600160a01b038516611dd8565b815460009082106118b95760405162461bcd60e51b815260040180806020018281038252602281526020018061209c6022913960400191505060405180910390fd5b8260000182815481106118c857fe5b9060005260206000200154905092915050565b81546000908190831061191f5760405162461bcd60e51b81526004018080602001828103825260228152602001806121f96022913960400191505060405180910390fd5b600084600001848154811061193057fe5b906000526020600020906002020190508060000154816001015492509250509250929050565b600082815260018401602052604081205482816119f15760405162461bcd60e51b81526004018080602001828103825283818151815260200191508051906020019080838360005b838110156119b657818101518382015260200161199e565b50505050905090810190601f1680156119e35780820380516001836020036101000a031916815260200191505b509250505060405180910390fd5b50846000016001820381548110611a0457fe5b9060005260206000209060020201600101549150509392505050565b6000611a34846001600160a01b03166115bb565b611a4057506001611189565b6000611b917f150b7a0200000000000000000000000000000000000000000000000000000000611a6e610f8a565b88878760405160240180856001600160a01b03168152602001846001600160a01b0316815260200183815260200180602001828103825283818151815260200191508051906020019080838360005b83811015611ad5578181015183820152602001611abd565b50505050905090810190601f168015611b025780820380516001836020036101000a031916815260200191505b5095505050505050604051602081830303815290604052907bffffffffffffffffffffffffffffffffffffffffffffffffffffffff19166020820180517bffffffffffffffffffffffffffffffffffffffffffffffffffffffff83818316178352505050506040518060600160405280603281526020016120be603291396001600160a01b0388169190611e6f565b90506000818060200190516020811015611baa57600080fd5b50517fffffffff00000000000000000000000000000000000000000000000000000000167f150b7a02000000000000000000000000000000000000000000000000000000001492505050949350505050565b60009081526001919091016020526040902054151590565b7fffffffff000000000000000000000000000000000000000000000000000000008082161415611c8b576040805162461bcd60e51b815260206004820152601c60248201527f4552433136353a20696e76616c696420696e7465726661636520696400000000604482015290519081900360640190fd5b7fffffffff00000000000000000000000000000000000000000000000000000000166000908152603360205260409020805460ff19166001179055565b60008181526001830160205260408120548015611d845783546000198083019190810190600090879083908110611cfb57fe5b9060005260206000200154905080876000018481548110611d1857fe5b600091825260208083209091019290925582815260018981019092526040902090840190558654879080611d4857fe5b60019003818190600052602060002001600090559055866001016000878152602001908152602001600020600090556001945050505050610955565b6000915050610955565b6000611d9a8383611bfc565b611dd057508154600181810184556000848152602080822090930184905584548482528286019093526040902091909155610955565b506000610955565b600082815260018401602052604081205480611e3d575050604080518082018252838152602080820184815286546001818101895560008981528481209551600290930290950191825591519082015586548684528188019092529290912055611443565b82856000016001830381548110611e5057fe5b9060005260206000209060020201600101819055506000915050611443565b6060611440848460008585611e83856115bb565b611ed4576040805162461bcd60e51b815260206004820152601d60248201527f416464726573733a2063616c6c20746f206e6f6e2d636f6e7472616374000000604482015290519081900360640190fd5b600080866001600160a01b031685876040518082805190602001908083835b60208310611f125780518252601f199092019160209182019101611ef3565b6001836020036101000a03801982511681845116808217855250505050505090500191505060006040518083038185875af1925050503d8060008114611f74576040519150601f19603f3d011682016040523d82523d6000602084013e611f79565b606091505b5091509150611f89828286611f94565b979650505050505050565b60608315611fa3575081611443565b825115611fb35782518084602001fd5b60405162461bcd60e51b81526020600482018181528451602484015284518593919283926044019190850190808383600083156119b657818101518382015260200161199e565b828054600181600116156101000203166002900490600052602060002090601f0160209004810192826120305760008555612076565b82601f1061204957805160ff1916838001178555612076565b82800160010185558215612076579182015b8281111561207657825182559160200191906001019061205b565b50612082929150612086565b5090565b5b80821115612082576000815560010161208756fe456e756d657261626c655365743a20696e646578206f7574206f6620626f756e64734552433732313a207472616e7366657220746f206e6f6e20455243373231526563656976657220696d706c656d656e7465724552433732313a207472616e7366657220746f20746865207a65726f20616464726573734552433732313a206f70657261746f7220717565727920666f72206e6f6e6578697374656e7420746f6b656e4552433732313a20617070726f76652063616c6c6572206973206e6f74206f776e6572206e6f7220617070726f76656420666f7220616c6c4552433732313a2062616c616e636520717565727920666f7220746865207a65726f20616464726573734552433732313a206f776e657220717565727920666f72206e6f6e6578697374656e7420746f6b656e496e697469616c697a61626c653a20636f6e747261637420697320616c726561647920696e697469616c697a6564456e756d657261626c654d61703a20696e646578206f7574206f6620626f756e64734552433732313a20617070726f76656420717565727920666f72206e6f6e6578697374656e7420746f6b656e4552433732313a207472616e73666572206f6620746f6b656e2074686174206973206e6f74206f776e4552433732314d657461646174613a2055524920717565727920666f72206e6f6e6578697374656e7420746f6b656e4552433732313a20617070726f76616c20746f2063757272656e74206f776e65724552433732313a207472616e736665722063616c6c6572206973206e6f74206f776e6572206e6f7220617070726f766564a2646970667358221220216d9f9bacbb088d4243637fbdbb6b451558e88ee42a435e3ff6aa9366de6b6f64736f6c63430007060033",
    "devdoc": {
        "kind": "dev",
        "methods": {
            "approve(address,uint256)": {
                "details": "See {IERC721-approve}."
            },
            "balanceOf(address)": {
                "details": "See {IERC721-balanceOf}."
            },
            "baseURI()": {
                "details": "Returns the base URI set via {_setBaseURI}. This will be automatically added as a prefix in {tokenURI} to each token's URI, or to the token ID if no specific URI is set for that token ID."
            },
            "getApproved(uint256)": {
                "details": "See {IERC721-getApproved}."
            },
            "isApprovedForAll(address,address)": {
                "details": "See {IERC721-isApprovedForAll}."
            },
            "name()": {
                "details": "See {IERC721Metadata-name}."
            },
            "ownerOf(uint256)": {
                "details": "See {IERC721-ownerOf}."
            },
            "safeTransferFrom(address,address,uint256)": {
                "details": "See {IERC721-safeTransferFrom}."
            },
            "safeTransferFrom(address,address,uint256,bytes)": {
                "details": "See {IERC721-safeTransferFrom}."
            },
            "setApprovalForAll(address,bool)": {
                "details": "See {IERC721-setApprovalForAll}."
            },
            "supportsInterface(bytes4)": {
                "details": "See {IERC165-supportsInterface}. Time complexity O(1), guaranteed to always use less than 30 000 gas."
            },
            "symbol()": {
                "details": "See {IERC721Metadata-symbol}."
            },
            "tokenByIndex(uint256)": {
                "details": "See {IERC721Enumerable-tokenByIndex}."
            },
            "tokenOfOwnerByIndex(address,uint256)": {
                "details": "See {IERC721Enumerable-tokenOfOwnerByIndex}."
            },
            "tokenURI(uint256)": {
                "details": "See {IERC721Metadata-tokenURI}."
            },
            "totalSupply()": {
                "details": "See {IERC721Enumerable-totalSupply}."
            },
            "transferFrom(address,address,uint256)": {
                "details": "See {IERC721-transferFrom}."
            }
        },
        "stateVariables": {
            "nextId": {
                "details": "tokenId for the next vault opened"
            }
        },
        "version": 1
    },
    "userdoc": {
        "kind": "user",
        "methods": {
            "mintNFT(address)": {
                "notice": "mint new NFT, create a new vault struct"
            }
        },
        "version": 1
    },
    "storageLayout": {
        "storage": [
            {
                "astId": 448,
                "contract": "contracts/core/VaultManagerNFT.sol:VaultNFTManager",
                "label": "_initialized",
                "offset": 0,
                "slot": "0",
                "type": "t_bool"
            },
            {
                "astId": 451,
                "contract": "contracts/core/VaultManagerNFT.sol:VaultNFTManager",
                "label": "_initializing",
                "offset": 1,
                "slot": "0",
                "type": "t_bool"
            },
            {
                "astId": 1961,
                "contract": "contracts/core/VaultManagerNFT.sol:VaultNFTManager",
                "label": "__gap",
                "offset": 0,
                "slot": "1",
                "type": "t_array(t_uint256)50_storage"
            },
            {
                "astId": 16,
                "contract": "contracts/core/VaultManagerNFT.sol:VaultNFTManager",
                "label": "_supportedInterfaces",
                "offset": 0,
                "slot": "51",
                "type": "t_mapping(t_bytes4,t_bool)"
            },
            {
                "astId": 73,
                "contract": "contracts/core/VaultManagerNFT.sol:VaultNFTManager",
                "label": "__gap",
                "offset": 0,
                "slot": "52",
                "type": "t_array(t_uint256)49_storage"
            },
            {
                "astId": 556,
                "contract": "contracts/core/VaultManagerNFT.sol:VaultNFTManager",
                "label": "_holderTokens",
                "offset": 0,
                "slot": "101",
                "type": "t_mapping(t_address,t_struct(UintSet)2919_storage)"
            },
            {
                "astId": 558,
                "contract": "contracts/core/VaultManagerNFT.sol:VaultNFTManager",
                "label": "_tokenOwners",
                "offset": 0,
                "slot": "102",
                "type": "t_struct(UintToAddressMap)2296_storage"
            },
            {
                "astId": 562,
                "contract": "contracts/core/VaultManagerNFT.sol:VaultNFTManager",
                "label": "_tokenApprovals",
                "offset": 0,
                "slot": "104",
                "type": "t_mapping(t_uint256,t_address)"
            },
            {
                "astId": 568,
                "contract": "contracts/core/VaultManagerNFT.sol:VaultNFTManager",
                "label": "_operatorApprovals",
                "offset": 0,
                "slot": "105",
                "type": "t_mapping(t_address,t_mapping(t_address,t_bool))"
            },
            {
                "astId": 570,
                "contract": "contracts/core/VaultManagerNFT.sol:VaultNFTManager",
                "label": "_name",
                "offset": 0,
                "slot": "106",
                "type": "t_string_storage"
            },
            {
                "astId": 572,
                "contract": "contracts/core/VaultManagerNFT.sol:VaultNFTManager",
                "label": "_symbol",
                "offset": 0,
                "slot": "107",
                "type": "t_string_storage"
            },
            {
                "astId": 576,
                "contract": "contracts/core/VaultManagerNFT.sol:VaultNFTManager",
                "label": "_tokenURIs",
                "offset": 0,
                "slot": "108",
                "type": "t_mapping(t_uint256,t_string_storage)"
            },
            {
                "astId": 578,
                "contract": "contracts/core/VaultManagerNFT.sol:VaultNFTManager",
                "label": "_baseURI",
                "offset": 0,
                "slot": "109",
                "type": "t_string_storage"
            },
            {
                "astId": 1480,
                "contract": "contracts/core/VaultManagerNFT.sol:VaultNFTManager",
                "label": "__gap",
                "offset": 0,
                "slot": "110",
                "type": "t_array(t_uint256)41_storage"
            },
            {
                "astId": 13931,
                "contract": "contracts/core/VaultManagerNFT.sol:VaultNFTManager",
                "label": "nextId",
                "offset": 0,
                "slot": "151",
                "type": "t_uint256"
            },
            {
                "astId": 13933,
                "contract": "contracts/core/VaultManagerNFT.sol:VaultNFTManager",
                "label": "controller",
                "offset": 0,
                "slot": "152",
                "type": "t_address"
            }
        ],
        "types": {
            "t_address": {
                "encoding": "inplace",
                "label": "address",
                "numberOfBytes": "20"
            },
            "t_array(t_bytes32)dyn_storage": {
                "base": "t_bytes32",
                "encoding": "dynamic_array",
                "label": "bytes32[]",
                "numberOfBytes": "32"
            },
            "t_array(t_struct(MapEntry)1970_storage)dyn_storage": {
                "base": "t_struct(MapEntry)1970_storage",
                "encoding": "dynamic_array",
                "label": "struct EnumerableMapUpgradeable.MapEntry[]",
                "numberOfBytes": "32"
            },
            "t_array(t_uint256)41_storage": {
                "base": "t_uint256",
                "encoding": "inplace",
                "label": "uint256[41]",
                "numberOfBytes": "1312"
            },
            "t_array(t_uint256)49_storage": {
                "base": "t_uint256",
                "encoding": "inplace",
                "label": "uint256[49]",
                "numberOfBytes": "1568"
            },
            "t_array(t_uint256)50_storage": {
                "base": "t_uint256",
                "encoding": "inplace",
                "label": "uint256[50]",
                "numberOfBytes": "1600"
            },
            "t_bool": {
                "encoding": "inplace",
                "label": "bool",
                "numberOfBytes": "1"
            },
            "t_bytes32": {
                "encoding": "inplace",
                "label": "bytes32",
                "numberOfBytes": "32"
            },
            "t_bytes4": {
                "encoding": "inplace",
                "label": "bytes4",
                "numberOfBytes": "4"
            },
            "t_mapping(t_address,t_bool)": {
                "encoding": "mapping",
                "key": "t_address",
                "label": "mapping(address => bool)",
                "numberOfBytes": "32",
                "value": "t_bool"
            },
            "t_mapping(t_address,t_mapping(t_address,t_bool))": {
                "encoding": "mapping",
                "key": "t_address",
                "label": "mapping(address => mapping(address => bool))",
                "numberOfBytes": "32",
                "value": "t_mapping(t_address,t_bool)"
            },
            "t_mapping(t_address,t_struct(UintSet)2919_storage)": {
                "encoding": "mapping",
                "key": "t_address",
                "label": "mapping(address => struct EnumerableSetUpgradeable.UintSet)",
                "numberOfBytes": "32",
                "value": "t_struct(UintSet)2919_storage"
            },
            "t_mapping(t_bytes32,t_uint256)": {
                "encoding": "mapping",
                "key": "t_bytes32",
                "label": "mapping(bytes32 => uint256)",
                "numberOfBytes": "32",
                "value": "t_uint256"
            },
            "t_mapping(t_bytes4,t_bool)": {
                "encoding": "mapping",
                "key": "t_bytes4",
                "label": "mapping(bytes4 => bool)",
                "numberOfBytes": "32",
                "value": "t_bool"
            },
            "t_mapping(t_uint256,t_address)": {
                "encoding": "mapping",
                "key": "t_uint256",
                "label": "mapping(uint256 => address)",
                "numberOfBytes": "32",
                "value": "t_address"
            },
            "t_mapping(t_uint256,t_string_storage)": {
                "encoding": "mapping",
                "key": "t_uint256",
                "label": "mapping(uint256 => string)",
                "numberOfBytes": "32",
                "value": "t_string_storage"
            },
            "t_string_storage": {
                "encoding": "bytes",
                "label": "string",
                "numberOfBytes": "32"
            },
            "t_struct(Map)1978_storage": {
                "encoding": "inplace",
                "label": "struct EnumerableMapUpgradeable.Map",
                "members": [
                    {
                        "astId": 1973,
                        "contract": "contracts/core/VaultManagerNFT.sol:VaultNFTManager",
                        "label": "_entries",
                        "offset": 0,
                        "slot": "0",
                        "type": "t_array(t_struct(MapEntry)1970_storage)dyn_storage"
                    },
                    {
                        "astId": 1977,
                        "contract": "contracts/core/VaultManagerNFT.sol:VaultNFTManager",
                        "label": "_indexes",
                        "offset": 0,
                        "slot": "1",
                        "type": "t_mapping(t_bytes32,t_uint256)"
                    }
                ],
                "numberOfBytes": "64"
            },
            "t_struct(MapEntry)1970_storage": {
                "encoding": "inplace",
                "label": "struct EnumerableMapUpgradeable.MapEntry",
                "members": [
                    {
                        "astId": 1967,
                        "contract": "contracts/core/VaultManagerNFT.sol:VaultNFTManager",
                        "label": "_key",
                        "offset": 0,
                        "slot": "0",
                        "type": "t_bytes32"
                    },
                    {
                        "astId": 1969,
                        "contract": "contracts/core/VaultManagerNFT.sol:VaultNFTManager",
                        "label": "_value",
                        "offset": 0,
                        "slot": "1",
                        "type": "t_bytes32"
                    }
                ],
                "numberOfBytes": "64"
            },
            "t_struct(Set)2533_storage": {
                "encoding": "inplace",
                "label": "struct EnumerableSetUpgradeable.Set",
                "members": [
                    {
                        "astId": 2528,
                        "contract": "contracts/core/VaultManagerNFT.sol:VaultNFTManager",
                        "label": "_values",
                        "offset": 0,
                        "slot": "0",
                        "type": "t_array(t_bytes32)dyn_storage"
                    },
                    {
                        "astId": 2532,
                        "contract": "contracts/core/VaultManagerNFT.sol:VaultNFTManager",
                        "label": "_indexes",
                        "offset": 0,
                        "slot": "1",
                        "type": "t_mapping(t_bytes32,t_uint256)"
                    }
                ],
                "numberOfBytes": "64"
            },
            "t_struct(UintSet)2919_storage": {
                "encoding": "inplace",
                "label": "struct EnumerableSetUpgradeable.UintSet",
                "members": [
                    {
                        "astId": 2918,
                        "contract": "contracts/core/VaultManagerNFT.sol:VaultNFTManager",
                        "label": "_inner",
                        "offset": 0,
                        "slot": "0",
                        "type": "t_struct(Set)2533_storage"
                    }
                ],
                "numberOfBytes": "64"
            },
            "t_struct(UintToAddressMap)2296_storage": {
                "encoding": "inplace",
                "label": "struct EnumerableMapUpgradeable.UintToAddressMap",
                "members": [
                    {
                        "astId": 2295,
                        "contract": "contracts/core/VaultManagerNFT.sol:VaultNFTManager",
                        "label": "_inner",
                        "offset": 0,
                        "slot": "0",
                        "type": "t_struct(Map)1978_storage"
                    }
                ],
                "numberOfBytes": "64"
            },
            "t_uint256": {
                "encoding": "inplace",
                "label": "uint256",
                "numberOfBytes": "32"
            }
        }
    }
}