{
    "address": "0xEC0db8766bc003C14861af996e411beA6Bf800aB",
    "abi": [
        {
            "inputs": [],
            "stateMutability": "nonpayable",
            "type": "constructor"
        },
        {
            "anonymous": false,
            "inputs": [
                {
                    "indexed": true,
                    "internalType": "address",
                    "name": "owner",
                    "type": "address"
                },
                {
                    "indexed": true,
                    "internalType": "address",
                    "name": "spender",
                    "type": "address"
                },
                {
                    "indexed": false,
                    "internalType": "uint256",
                    "name": "value",
                    "type": "uint256"
                }
            ],
            "name": "Approval",
            "type": "event"
        },
        {
            "anonymous": false,
            "inputs": [
                {
                    "indexed": true,
                    "internalType": "address",
                    "name": "from",
                    "type": "address"
                },
                {
                    "indexed": true,
                    "internalType": "address",
                    "name": "to",
                    "type": "address"
                },
                {
                    "indexed": false,
                    "internalType": "uint256",
                    "name": "value",
                    "type": "uint256"
                }
            ],
            "name": "Transfer",
            "type": "event"
        },
        {
            "inputs": [
                {
                    "internalType": "address",
                    "name": "owner",
                    "type": "address"
                },
                {
                    "internalType": "address",
                    "name": "spender",
                    "type": "address"
                }
            ],
            "name": "allowance",
            "outputs": [
                {
                    "internalType": "uint256",
                    "name": "",
                    "type": "uint256"
                }
            ],
            "stateMutability": "view",
            "type": "function"
        },
        {
            "inputs": [
                {
                    "internalType": "address",
                    "name": "spender",
                    "type": "address"
                },
                {
                    "internalType": "uint256",
                    "name": "amount",
                    "type": "uint256"
                }
            ],
            "name": "approve",
            "outputs": [
                {
                    "internalType": "bool",
                    "name": "",
                    "type": "bool"
                }
            ],
            "stateMutability": "nonpayable",
            "type": "function"
        },
        {
            "inputs": [
                {
                    "internalType": "address",
                    "name": "account",
                    "type": "address"
                }
            ],
            "name": "balanceOf",
            "outputs": [
                {
                    "internalType": "uint256",
                    "name": "",
                    "type": "uint256"
                }
            ],
            "stateMutability": "view",
            "type": "function"
        },
        {
            "inputs": [
                {
                    "internalType": "address",
                    "name": "_account",
                    "type": "address"
                },
                {
                    "internalType": "uint256",
                    "name": "_amount",
                    "type": "uint256"
                }
            ],
            "name": "burn",
            "outputs": [],
            "stateMutability": "nonpayable",
            "type": "function"
        },
        {
            "inputs": [],
            "name": "controller",
            "outputs": [
                {
                    "internalType": "address",
                    "name": "",
                    "type": "address"
                }
            ],
            "stateMutability": "view",
            "type": "function"
        },
        {
            "inputs": [],
            "name": "decimals",
            "outputs": [
                {
                    "internalType": "uint8",
                    "name": "",
                    "type": "uint8"
                }
            ],
            "stateMutability": "view",
            "type": "function"
        },
        {
            "inputs": [
                {
                    "internalType": "address",
                    "name": "spender",
                    "type": "address"
                },
                {
                    "internalType": "uint256",
                    "name": "subtractedValue",
                    "type": "uint256"
                }
            ],
            "name": "decreaseAllowance",
            "outputs": [
                {
                    "internalType": "bool",
                    "name": "",
                    "type": "bool"
                }
            ],
            "stateMutability": "nonpayable",
            "type": "function"
        },
        {
            "inputs": [
                {
                    "internalType": "address",
                    "name": "spender",
                    "type": "address"
                },
                {
                    "internalType": "uint256",
                    "name": "addedValue",
                    "type": "uint256"
                }
            ],
            "name": "increaseAllowance",
            "outputs": [
                {
                    "internalType": "bool",
                    "name": "",
                    "type": "bool"
                }
            ],
            "stateMutability": "nonpayable",
            "type": "function"
        },
        {
            "inputs": [
                {
                    "internalType": "address",
                    "name": "_controller",
                    "type": "address"
                }
            ],
            "name": "init",
            "outputs": [],
            "stateMutability": "nonpayable",
            "type": "function"
        },
        {
            "inputs": [
                {
                    "internalType": "address",
                    "name": "_account",
                    "type": "address"
                },
                {
                    "internalType": "uint256",
                    "name": "_amount",
                    "type": "uint256"
                }
            ],
            "name": "mint",
            "outputs": [],
            "stateMutability": "nonpayable",
            "type": "function"
        },
        {
            "inputs": [],
            "name": "name",
            "outputs": [
                {
                    "internalType": "string",
                    "name": "",
                    "type": "string"
                }
            ],
            "stateMutability": "view",
            "type": "function"
        },
        {
            "inputs": [],
            "name": "symbol",
            "outputs": [
                {
                    "internalType": "string",
                    "name": "",
                    "type": "string"
                }
            ],
            "stateMutability": "view",
            "type": "function"
        },
        {
            "inputs": [],
            "name": "totalSupply",
            "outputs": [
                {
                    "internalType": "uint256",
                    "name": "",
                    "type": "uint256"
                }
            ],
            "stateMutability": "view",
            "type": "function"
        },
        {
            "inputs": [
                {
                    "internalType": "address",
                    "name": "recipient",
                    "type": "address"
                },
                {
                    "internalType": "uint256",
                    "name": "amount",
                    "type": "uint256"
                }
            ],
            "name": "transfer",
            "outputs": [
                {
                    "internalType": "bool",
                    "name": "",
                    "type": "bool"
                }
            ],
            "stateMutability": "nonpayable",
            "type": "function"
        },
        {
            "inputs": [
                {
                    "internalType": "address",
                    "name": "sender",
                    "type": "address"
                },
                {
                    "internalType": "address",
                    "name": "recipient",
                    "type": "address"
                },
                {
                    "internalType": "uint256",
                    "name": "amount",
                    "type": "uint256"
                }
            ],
            "name": "transferFrom",
            "outputs": [
                {
                    "internalType": "bool",
                    "name": "",
                    "type": "bool"
                }
            ],
            "stateMutability": "nonpayable",
            "type": "function"
        }
    ],
    "transactionHash": "0x9e5a2b088e8acb0c0ec7b80a18ea35abfc9c911824dd3313c1b1265d985be197",
    "args": [],
    "solcInputHash": "49c79f88c6e4ede6ca1f2ffd46fef4fe",
    "bytecode": "0x608060405234801561001057600080fd5b50604080518082018252600f81526e0aee4c2e0e0cac840a6e2eacacae8d608b1b6020808301918252835180850190945260058452640aea6a2a8960db1b9084015281519192916100639160039161008c565b50805161007790600490602084019061008c565b50506005805460ff191660121790555061012d565b828054600181600116156101000203166002900490600052602060002090601f0160209004810192826100c25760008555610108565b82601f106100db57805160ff1916838001178555610108565b82800160010185558215610108579182015b828111156101085782518255916020019190600101906100ed565b50610114929150610118565b5090565b5b808211156101145760008155600101610119565b610fae806200013d6000396000f3fe608060405234801561001057600080fd5b50600436106100f55760003560e01c806340c10f1911610097578063a457c2d711610066578063a457c2d7146102ff578063a9059cbb1461032b578063dd62ed3e14610357578063f77c479114610385576100f5565b806340c10f191461027957806370a08231146102a557806395d89b41146102cb5780639dc29fac146102d3576100f5565b806319ab453c116100d357806319ab453c146101d157806323b872dd146101f9578063313ce5671461022f578063395093511461024d576100f5565b806306fdde03146100fa578063095ea7b31461017757806318160ddd146101b7575b600080fd5b6101026103a9565b6040805160208082528351818301528351919283929083019185019080838360005b8381101561013c578181015183820152602001610124565b50505050905090810190601f1680156101695780820380516001836020036101000a031916815260200191505b509250505060405180910390f35b6101a36004803603604081101561018d57600080fd5b506001600160a01b03813516906020013561043f565b604080519115158252519081900360200190f35b6101bf61045c565b60408051918252519081900360200190f35b6101f7600480360360208110156101e757600080fd5b50356001600160a01b0316610462565b005b6101a36004803603606081101561020f57600080fd5b506001600160a01b03813581169160208101359091169060400135610567565b6102376105ee565b6040805160ff9092168252519081900360200190f35b6101a36004803603604081101561026357600080fd5b506001600160a01b0381351690602001356105f7565b6101f76004803603604081101561028f57600080fd5b506001600160a01b038135169060200135610645565b6101bf600480360360208110156102bb57600080fd5b50356001600160a01b03166106b5565b6101026106d0565b6101f7600480360360408110156102e957600080fd5b506001600160a01b038135169060200135610731565b6101a36004803603604081101561031557600080fd5b506001600160a01b0381351690602001356107a1565b6101a36004803603604081101561034157600080fd5b506001600160a01b038135169060200135610809565b6101bf6004803603604081101561036d57600080fd5b506001600160a01b038135811691602001351661081d565b61038d610848565b604080516001600160a01b039092168252519081900360200190f35b60038054604080516020601f60026000196101006001881615020190951694909404938401819004810282018101909252828152606093909290918301828280156104355780601f1061040a57610100808354040283529160200191610435565b820191906000526020600020905b81548152906001019060200180831161041857829003601f168201915b5050505050905090565b600061045361044c61085e565b8484610862565b50600192915050565b60025490565b60055462010000900460ff168061047c575061047c61094e565b8061048f5750600554610100900460ff16155b6104ca5760405162461bcd60e51b815260040180806020018281038252602e815260200180610e94602e913960400191505060405180910390fd5b60055462010000900460ff1615801561051757600580547fffffffffffffffffffffffffffffffffffffffffffffffffffffffffffff00ff62ff0000199091166201000017166101001790555b600580547fffffffffffffffffff0000000000000000000000000000000000000000ffffff1663010000006001600160a01b038516021790558015610563576005805462ff0000191690555b5050565b600061057484848461095f565b6105e48461058061085e565b6105df85604051806060016040528060288152602001610ec2602891396001600160a01b038a166000908152600160205260408120906105be61085e565b6001600160a01b031681526020810191909152604001600020549190610aba565b610862565b5060019392505050565b60055460ff1690565b600061045361060461085e565b846105df856001600061061561085e565b6001600160a01b03908116825260208083019390935260409182016000908120918c168152925290205490610b51565b600554630100000090046001600160a01b031633146106ab576040805162461bcd60e51b815260206004820152600e60248201527f6e6f7420636f6e74726f6c6c6572000000000000000000000000000000000000604482015290519081900360640190fd5b6105638282610bb2565b6001600160a01b031660009081526020819052604090205490565b60048054604080516020601f60026000196101006001881615020190951694909404938401819004810282018101909252828152606093909290918301828280156104355780601f1061040a57610100808354040283529160200191610435565b600554630100000090046001600160a01b03163314610797576040805162461bcd60e51b815260206004820152600e60248201527f6e6f7420636f6e74726f6c6c6572000000000000000000000000000000000000604482015290519081900360640190fd5b6105638282610ca2565b60006104536107ae61085e565b846105df85604051806060016040528060258152602001610f5460259139600160006107d861085e565b6001600160a01b03908116825260208083019390935260409182016000908120918d16815292529020549190610aba565b600061045361081661085e565b848461095f565b6001600160a01b03918216600090815260016020908152604080832093909416825291909152205490565b600554630100000090046001600160a01b031681565b3390565b6001600160a01b0383166108a75760405162461bcd60e51b8152600401808060200182810382526024815260200180610f306024913960400191505060405180910390fd5b6001600160a01b0382166108ec5760405162461bcd60e51b8152600401808060200182810382526022815260200180610e4c6022913960400191505060405180910390fd5b6001600160a01b03808416600081815260016020908152604080832094871680845294825291829020859055815185815291517f8c5be1e5ebec7d5bd14f71427d1e84f3dd0314c0f7b2291e5b200ac8c7c3b9259281900390910190a3505050565b600061095930610d9e565b15905090565b6001600160a01b0383166109a45760405162461bcd60e51b8152600401808060200182810382526025815260200180610f0b6025913960400191505060405180910390fd5b6001600160a01b0382166109e95760405162461bcd60e51b8152600401808060200182810382526023815260200180610e076023913960400191505060405180910390fd5b6109f4838383610da4565b610a3181604051806060016040528060268152602001610e6e602691396001600160a01b0386166000908152602081905260409020549190610aba565b6001600160a01b038085166000908152602081905260408082209390935590841681522054610a609082610b51565b6001600160a01b038084166000818152602081815260409182902094909455805185815290519193928716927fddf252ad1be2c89b69c2b068fc378daa952ba7f163c4a11628f55a4df523b3ef92918290030190a3505050565b60008184841115610b495760405162461bcd60e51b81526004018080602001828103825283818151815260200191508051906020019080838360005b83811015610b0e578181015183820152602001610af6565b50505050905090810190601f168015610b3b5780820380516001836020036101000a031916815260200191505b509250505060405180910390fd5b505050900390565b600082820183811015610bab576040805162461bcd60e51b815260206004820152601b60248201527f536166654d6174683a206164646974696f6e206f766572666c6f770000000000604482015290519081900360640190fd5b9392505050565b6001600160a01b038216610c0d576040805162461bcd60e51b815260206004820152601f60248201527f45524332303a206d696e7420746f20746865207a65726f206164647265737300604482015290519081900360640190fd5b610c1960008383610da4565b600254610c269082610b51565b6002556001600160a01b038216600090815260208190526040902054610c4c9082610b51565b6001600160a01b0383166000818152602081815260408083209490945583518581529351929391927fddf252ad1be2c89b69c2b068fc378daa952ba7f163c4a11628f55a4df523b3ef9281900390910190a35050565b6001600160a01b038216610ce75760405162461bcd60e51b8152600401808060200182810382526021815260200180610eea6021913960400191505060405180910390fd5b610cf382600083610da4565b610d3081604051806060016040528060228152602001610e2a602291396001600160a01b0385166000908152602081905260409020549190610aba565b6001600160a01b038316600090815260208190526040902055600254610d569082610da9565b6002556040805182815290516000916001600160a01b038516917fddf252ad1be2c89b69c2b068fc378daa952ba7f163c4a11628f55a4df523b3ef9181900360200190a35050565b3b151590565b505050565b600082821115610e00576040805162461bcd60e51b815260206004820152601e60248201527f536166654d6174683a207375627472616374696f6e206f766572666c6f770000604482015290519081900360640190fd5b5090039056fe45524332303a207472616e7366657220746f20746865207a65726f206164647265737345524332303a206275726e20616d6f756e7420657863656564732062616c616e636545524332303a20617070726f766520746f20746865207a65726f206164647265737345524332303a207472616e7366657220616d6f756e7420657863656564732062616c616e6365496e697469616c697a61626c653a20636f6e747261637420697320616c726561647920696e697469616c697a656445524332303a207472616e7366657220616d6f756e74206578636565647320616c6c6f77616e636545524332303a206275726e2066726f6d20746865207a65726f206164647265737345524332303a207472616e736665722066726f6d20746865207a65726f206164647265737345524332303a20617070726f76652066726f6d20746865207a65726f206164647265737345524332303a2064656372656173656420616c6c6f77616e63652062656c6f77207a65726fa2646970667358221220c9e674bd72d4e131d4aeabcfdd36976c928c683225e4d5725ac9f7cf5ae0908164736f6c63430007060033",
    "devdoc": {
        "details": "this contract implements IWPowerPerp interface, makes it controllable by Controller.decimals of squeeth is chosen as 14.",
        "kind": "dev",
        "methods": {
            "allowance(address,address)": {
                "details": "See {IERC20-allowance}."
            },
            "approve(address,uint256)": {
                "details": "See {IERC20-approve}. Requirements: - `spender` cannot be the zero address."
            },
            "balanceOf(address)": {
                "details": "See {IERC20-balanceOf}."
            },
            "decimals()": {
                "details": "Returns the number of decimals used to get its user representation. For example, if `decimals` equals `2`, a balance of `505` tokens should be displayed to a user as `5,05` (`505 / 10 ** 2`). Tokens usually opt for a value of 18, imitating the relationship between Ether and Wei. This is the value {ERC20} uses, unless {_setupDecimals} is called. NOTE: This information is only used for _display_ purposes: it in no way affects any of the arithmetic of the contract, including {IERC20-balanceOf} and {IERC20-transfer}."
            },
            "decreaseAllowance(address,uint256)": {
                "details": "Atomically decreases the allowance granted to `spender` by the caller. This is an alternative to {approve} that can be used as a mitigation for problems described in {IERC20-approve}. Emits an {Approval} event indicating the updated allowance. Requirements: - `spender` cannot be the zero address. - `spender` must have allowance for the caller of at least `subtractedValue`."
            },
            "increaseAllowance(address,uint256)": {
                "details": "Atomically increases the allowance granted to `spender` by the caller. This is an alternative to {approve} that can be used as a mitigation for problems described in {IERC20-approve}. Emits an {Approval} event indicating the updated allowance. Requirements: - `spender` cannot be the zero address."
            },
            "name()": {
                "details": "Returns the name of the token."
            },
            "symbol()": {
                "details": "Returns the symbol of the token, usually a shorter version of the name."
            },
            "totalSupply()": {
                "details": "See {IERC20-totalSupply}."
            },
            "transfer(address,uint256)": {
                "details": "See {IERC20-transfer}. Requirements: - `recipient` cannot be the zero address. - the caller must have a balance of at least `amount`."
            },
            "transferFrom(address,address,uint256)": {
                "details": "See {IERC20-transferFrom}. Emits an {Approval} event indicating the updated allowance. This is not required by the EIP. See the note at the beginning of {ERC20}. Requirements: - `sender` and `recipient` cannot be the zero address. - `sender` must have a balance of at least `amount`. - the caller must have allowance for ``sender``'s tokens of at least `amount`."
            }
        },
        "version": 1
    },
    "userdoc": {
        "kind": "user",
        "methods": {},
        "notice": "this is the ERC20 contract for long position of Squeeth",
        "version": 1
    },
    "storageLayout": {
        "storage": [
            {
                "astId": 3718,
                "contract": "contracts/core/WSqueeth.sol:WSqueeth",
                "label": "_balances",
                "offset": 0,
                "slot": "0",
                "type": "t_mapping(t_address,t_uint256)"
            },
            {
                "astId": 3724,
                "contract": "contracts/core/WSqueeth.sol:WSqueeth",
                "label": "_allowances",
                "offset": 0,
                "slot": "1",
                "type": "t_mapping(t_address,t_mapping(t_address,t_uint256))"
            },
            {
                "astId": 3726,
                "contract": "contracts/core/WSqueeth.sol:WSqueeth",
                "label": "_totalSupply",
                "offset": 0,
                "slot": "2",
                "type": "t_uint256"
            },
            {
                "astId": 3728,
                "contract": "contracts/core/WSqueeth.sol:WSqueeth",
                "label": "_name",
                "offset": 0,
                "slot": "3",
                "type": "t_string_storage"
            },
            {
                "astId": 3730,
                "contract": "contracts/core/WSqueeth.sol:WSqueeth",
                "label": "_symbol",
                "offset": 0,
                "slot": "4",
                "type": "t_string_storage"
            },
            {
                "astId": 3732,
                "contract": "contracts/core/WSqueeth.sol:WSqueeth",
                "label": "_decimals",
                "offset": 0,
                "slot": "5",
                "type": "t_uint8"
            },
            {
                "astId": 3642,
                "contract": "contracts/core/WSqueeth.sol:WSqueeth",
                "label": "_initialized",
                "offset": 1,
                "slot": "5",
                "type": "t_bool"
            },
            {
                "astId": 3645,
                "contract": "contracts/core/WSqueeth.sol:WSqueeth",
                "label": "_initializing",
                "offset": 2,
                "slot": "5",
                "type": "t_bool"
            },
            {
                "astId": 14000,
                "contract": "contracts/core/WSqueeth.sol:WSqueeth",
                "label": "controller",
                "offset": 3,
                "slot": "5",
                "type": "t_address"
            }
        ],
        "types": {
            "t_address": {
                "encoding": "inplace",
                "label": "address",
                "numberOfBytes": "20"
            },
            "t_bool": {
                "encoding": "inplace",
                "label": "bool",
                "numberOfBytes": "1"
            },
            "t_mapping(t_address,t_mapping(t_address,t_uint256))": {
                "encoding": "mapping",
                "key": "t_address",
                "label": "mapping(address => mapping(address => uint256))",
                "numberOfBytes": "32",
                "value": "t_mapping(t_address,t_uint256)"
            },
            "t_mapping(t_address,t_uint256)": {
                "encoding": "mapping",
                "key": "t_address",
                "label": "mapping(address => uint256)",
                "numberOfBytes": "32",
                "value": "t_uint256"
            },
            "t_string_storage": {
                "encoding": "bytes",
                "label": "string",
                "numberOfBytes": "32"
            },
            "t_uint256": {
                "encoding": "inplace",
                "label": "uint256",
                "numberOfBytes": "32"
            },
            "t_uint8": {
                "encoding": "inplace",
                "label": "uint8",
                "numberOfBytes": "1"
            }
        }
    }
}