{
  "abi": [
    {
      "inputs": [
        {
          "internalType": "address",
          "name": "_powerTokenController",
          "type": "address"
        },
        {
          "internalType": "string",
          "name": "_name",
          "type": "string"
        },
        {
          "internalType": "string",
          "name": "_symbol",
          "type": "string"
        }
      ],
      "stateMutability": "nonpayable",
      "type": "constructor"
    },
    {
      "anonymous": false,
      "inputs": [
        {
          "indexed": true,
          "internalType": "address",
          "name": "owner",
          "type": "address"
        },
        {
          "indexed": true,
          "internalType": "address",
          "name": "spender",
          "type": "address"
        },
        {
          "indexed": false,
          "internalType": "uint256",
          "name": "value",
          "type": "uint256"
        }
      ],
      "name": "Approval",
      "type": "event"
    },
    {
      "anonymous": false,
      "inputs": [
        {
          "indexed": true,
          "internalType": "address",
          "name": "from",
          "type": "address"
        },
        {
          "indexed": true,
          "internalType": "address",
          "name": "to",
          "type": "address"
        },
        {
          "indexed": false,
          "internalType": "uint256",
          "name": "value",
          "type": "uint256"
        }
      ],
      "name": "Transfer",
      "type": "event"
    },
    {
      "inputs": [
        {
          "internalType": "address",
          "name": "owner",
          "type": "address"
        },
        {
          "internalType": "address",
          "name": "spender",
          "type": "address"
        }
      ],
      "name": "allowance",
      "outputs": [
        {
          "internalType": "uint256",
          "name": "",
          "type": "uint256"
        }
      ],
      "stateMutability": "view",
      "type": "function"
    },
    {
      "inputs": [
        {
          "internalType": "address",
          "name": "spender",
          "type": "address"
        },
        {
          "internalType": "uint256",
          "name": "amount",
          "type": "uint256"
        }
      ],
      "name": "approve",
      "outputs": [
        {
          "internalType": "bool",
          "name": "",
          "type": "bool"
        }
      ],
      "stateMutability": "nonpayable",
      "type": "function"
    },
    {
      "inputs": [
        {
          "internalType": "address",
          "name": "account",
          "type": "address"
        }
      ],
      "name": "balanceOf",
      "outputs": [
        {
          "internalType": "uint256",
          "name": "",
          "type": "uint256"
        }
      ],
      "stateMutability": "view",
      "type": "function"
    },
    {
      "inputs": [],
      "name": "decimals",
      "outputs": [
        {
          "internalType": "uint8",
          "name": "",
          "type": "uint8"
        }
      ],
      "stateMutability": "view",
      "type": "function"
    },
    {
      "inputs": [
        {
          "internalType": "address",
          "name": "spender",
          "type": "address"
        },
        {
          "internalType": "uint256",
          "name": "subtractedValue",
          "type": "uint256"
        }
      ],
      "name": "decreaseAllowance",
      "outputs": [
        {
          "internalType": "bool",
          "name": "",
          "type": "bool"
        }
      ],
      "stateMutability": "nonpayable",
      "type": "function"
    },
    {
      "inputs": [],
      "name": "getStrategyVaultId",
      "outputs": [
        {
          "internalType": "uint256",
          "name": "",
          "type": "uint256"
        }
      ],
      "stateMutability": "view",
      "type": "function"
    },
    {
      "inputs": [],
      "name": "getVaultDetails",
      "outputs": [
        {
          "internalType": "address",
          "name": "",
          "type": "address"
        },
        {
          "internalType": "uint256",
          "name": "",
          "type": "uint256"
        },
        {
          "internalType": "uint256",
          "name": "",
          "type": "uint256"
        },
        {
          "internalType": "uint256",
          "name": "",
          "type": "uint256"
        }
      ],
      "stateMutability": "view",
      "type": "function"
    },
    {
      "inputs": [
        {
          "internalType": "address",
          "name": "spender",
          "type": "address"
        },
        {
          "internalType": "uint256",
          "name": "addedValue",
          "type": "uint256"
        }
      ],
      "name": "increaseAllowance",
      "outputs": [
        {
          "internalType": "bool",
          "name": "",
          "type": "bool"
        }
      ],
      "stateMutability": "nonpayable",
      "type": "function"
    },
    {
      "inputs": [],
      "name": "name",
      "outputs": [
        {
          "internalType": "string",
          "name": "",
          "type": "string"
        }
      ],
      "stateMutability": "view",
      "type": "function"
    },
    {
      "inputs": [],
      "name": "powerTokenController",
      "outputs": [
        {
          "internalType": "contract IController",
          "name": "",
          "type": "address"
        }
      ],
      "stateMutability": "view",
      "type": "function"
    },
    {
      "inputs": [],
      "name": "symbol",
      "outputs": [
        {
          "internalType": "string",
          "name": "",
          "type": "string"
        }
      ],
      "stateMutability": "view",
      "type": "function"
    },
    {
      "inputs": [],
      "name": "totalSupply",
      "outputs": [
        {
          "internalType": "uint256",
          "name": "",
          "type": "uint256"
        }
      ],
      "stateMutability": "view",
      "type": "function"
    },
    {
      "inputs": [
        {
          "internalType": "address",
          "name": "recipient",
          "type": "address"
        },
        {
          "internalType": "uint256",
          "name": "amount",
          "type": "uint256"
        }
      ],
      "name": "transfer",
      "outputs": [
        {
          "internalType": "bool",
          "name": "",
          "type": "bool"
        }
      ],
      "stateMutability": "nonpayable",
      "type": "function"
    },
    {
      "inputs": [
        {
          "internalType": "address",
          "name": "sender",
          "type": "address"
        },
        {
          "internalType": "address",
          "name": "recipient",
          "type": "address"
        },
        {
          "internalType": "uint256",
          "name": "amount",
          "type": "uint256"
        }
      ],
      "name": "transferFrom",
      "outputs": [
        {
          "internalType": "bool",
          "name": "",
          "type": "bool"
        }
      ],
      "stateMutability": "nonpayable",
      "type": "function"
    },
    {
      "inputs": [],
      "name": "vaultId",
      "outputs": [
        {
          "internalType": "uint256",
          "name": "",
          "type": "uint256"
        }
      ],
      "stateMutability": "view",
      "type": "function"
    },
    {
      "inputs": [],
      "name": "wPowerPerp",
      "outputs": [
        {
          "internalType": "address",
          "name": "",
          "type": "address"
        }
      ],
      "stateMutability": "view",
      "type": "function"
    }
  ],
  "bytecode": {
    "object": "0x60c06040523480156200001157600080fd5b506040516200120338038062001203833981810160405260608110156200003757600080fd5b8151602083018051604051929492938301929190846401000000008211156200005f57600080fd5b9083019060208201858111156200007557600080fd5b82516401000000008111828201881017156200009057600080fd5b82525081516020918201929091019080838360005b83811015620000bf578181015183820152602001620000a5565b50505050905090810190601f168015620000ed5780820380516001836020036101000a031916815260200191505b50604052602001805160405193929190846401000000008211156200011157600080fd5b9083019060208201858111156200012757600080fd5b82516401000000008111828201881017156200014257600080fd5b82525081516020918201929091019080838360005b838110156200017157818101518382015260200162000157565b50505050905090810190601f1680156200019f5780820380516001836020036101000a031916815260200191505b506040525050508282828160039080519060200190620001c19291906200037c565b508051620001d79060049060208401906200037c565b50506005805460ff19166012179055506001600160a01b038116620002195760405162461bcd60e51b8152600401620002109062000487565b60405180910390fd5b80600560016101000a8154816001600160a01b0302191690836001600160a01b03160217905550600560019054906101000a90046001600160a01b03166001600160a01b0316637f07b1306040518163ffffffff1660e01b815260040160206040518083038186803b1580156200028f57600080fd5b505afa158015620002a4573d6000803e3d6000fd5b505050506040513d601f19601f82011682018060405250810190620002ca919062000428565b6001600160601b031960609190911b16608052600554604051630728cf2360e31b81526101009091046001600160a01b03169063394679189062000318906000908190819060040162000471565b602060405180830381600087803b1580156200033357600080fd5b505af115801562000348573d6000803e3d6000fd5b505050506040513d601f19601f820116820180604052508101906200036e919062000458565b60a05250620004be92505050565b828054600181600116156101000203166002900490600052602060002090601f016020900481019282620003b45760008555620003ff565b82601f10620003cf57805160ff1916838001178555620003ff565b82800160010185558215620003ff579182015b82811115620003ff578251825591602001919060010190620003e2565b506200040d92915062000411565b5090565b5b808211156200040d576000815560010162000412565b6000602082840312156200043a578081fd5b81516001600160a01b038116811462000451578182fd5b9392505050565b6000602082840312156200046a578081fd5b5051919050565b9283526020830191909152604082015260600190565b6020808252601a908201527f696e76616c696420636f6e74726f6c6c65722061646472657373000000000000604082015260600190565b60805160601c60a051610d14620004ef600039806104cf52806105715280610a575250806105b45250610d146000f3fe608060405234801561001057600080fd5b50600436106101005760003560e01c8063533092ef1161009757806395d89b411161006657806395d89b41146102f6578063a457c2d7146102fe578063a9059cbb1461032a578063dd62ed3e1461035657610100565b8063533092ef146102885780636c1040a9146102c057806370a08231146102c85780637f07b130146102ee57610100565b8063313ce567116100d3578063313ce5671461021257806333194c0a1461023057806339509351146102385780633dcb0c5d1461026457610100565b806306fdde0314610105578063095ea7b31461018257806318160ddd146101c257806323b872dd146101dc575b600080fd5b61010d610384565b6040805160208082528351818301528351919283929083019185019080838360005b8381101561014757818101518382015260200161012f565b50505050905090810190601f1680156101745780820380516001836020036101000a031916815260200191505b509250505060405180910390f35b6101ae6004803603604081101561019857600080fd5b506001600160a01b03813516906020013561041a565b604080519115158252519081900360200190f35b6101ca610437565b60408051918252519081900360200190f35b6101ae600480360360608110156101f257600080fd5b506001600160a01b0381358116916020810135909116906040013561043d565b61021a6104c4565b6040805160ff9092168252519081900360200190f35b6101ca6104cd565b6101ae6004803603604081101561024e57600080fd5b506001600160a01b0381351690602001356104f1565b61026c61053f565b604080516001600160a01b039092168252519081900360200190f35b610290610553565b604080516001600160a01b0390951685526020850193909352838301919091526060830152519081900360800190f35b6101ca61056f565b6101ca600480360360208110156102de57600080fd5b50356001600160a01b0316610593565b61026c6105b2565b61010d6105d6565b6101ae6004803603604081101561031457600080fd5b506001600160a01b038135169060200135610637565b6101ae6004803603604081101561034057600080fd5b506001600160a01b03813516906020013561069f565b6101ca6004803603604081101561036c57600080fd5b506001600160a01b03813581169160200135166106b3565b60038054604080516020601f60026000196101006001881615020190951694909404938401819004810282018101909252828152606093909290918301828280156104105780601f106103e557610100808354040283529160200191610410565b820191906000526020600020905b8154815290600101906020018083116103f357829003601f168201915b5050505050905090565b600061042e6104276106de565b84846106e2565b50600192915050565b60025490565b600061044a8484846107ce565b6104ba846104566106de565b6104b585604051806060016040528060288152602001610c49602891396001600160a01b038a166000908152600160205260408120906104946106de565b6001600160a01b031681526020810191909152604001600020549190610929565b6106e2565b5060019392505050565b60055460ff1690565b7f000000000000000000000000000000000000000000000000000000000000000081565b600061042e6104fe6106de565b846104b5856001600061050f6106de565b6001600160a01b03908116825260208083019390935260409182016000908120918c1681529252902054906109c0565b60055461010090046001600160a01b031681565b600080600080610561610a21565b935093509350935090919293565b7f000000000000000000000000000000000000000000000000000000000000000090565b6001600160a01b0381166000908152602081905260409020545b919050565b7f000000000000000000000000000000000000000000000000000000000000000081565b60048054604080516020601f60026000196101006001881615020190951694909404938401819004810282018101909252828152606093909290918301828280156104105780601f106103e557610100808354040283529160200191610410565b600061042e6106446106de565b846104b585604051806060016040528060258152602001610cba602591396001600061066e6106de565b6001600160a01b03908116825260208083019390935260409182016000908120918d16815292529020549190610929565b600061042e6106ac6106de565b84846107ce565b6001600160a01b03918216600090815260016020908152604080832093909416825291909152205490565b3390565b6001600160a01b0383166107275760405162461bcd60e51b8152600401808060200182810382526024815260200180610c966024913960400191505060405180910390fd5b6001600160a01b03821661076c5760405162461bcd60e51b8152600401808060200182810382526022815260200180610c016022913960400191505060405180910390fd5b6001600160a01b03808416600081815260016020908152604080832094871680845294825291829020859055815185815291517f8c5be1e5ebec7d5bd14f71427d1e84f3dd0314c0f7b2291e5b200ac8c7c3b9259281900390910190a3505050565b6001600160a01b0383166108135760405162461bcd60e51b8152600401808060200182810382526025815260200180610c716025913960400191505060405180910390fd5b6001600160a01b0382166108585760405162461bcd60e51b8152600401808060200182810382526023815260200180610bde6023913960400191505060405180910390fd5b610863838383610b0f565b6108a081604051806060016040528060268152602001610c23602691396001600160a01b0386166000908152602081905260409020549190610929565b6001600160a01b0380851660009081526020819052604080822093909355908416815220546108cf90826109c0565b6001600160a01b038084166000818152602081815260409182902094909455805185815290519193928716927fddf252ad1be2c89b69c2b068fc378daa952ba7f163c4a11628f55a4df523b3ef92918290030190a3505050565b600081848411156109b85760405162461bcd60e51b81526004018080602001828103825283818151815260200191508051906020019080838360005b8381101561097d578181015183820152602001610965565b50505050905090810190601f1680156109aa5780820380516001836020036101000a031916815260200191505b509250505060405180910390fd5b505050900390565b600082820183811015610a1a576040805162461bcd60e51b815260206004820152601b60248201527f536166654d6174683a206164646974696f6e206f766572666c6f770000000000604482015290519081900360640190fd5b9392505050565b600554604051634632752560e11b8152600091829182918291829161010090046001600160a01b031690638c64ea4a90610a7f907f000000000000000000000000000000000000000000000000000000000000000090600401610bd4565b60806040518083038186803b158015610a9757600080fd5b505afa158015610aab573d6000803e3d6000fd5b505050506040513d601f19601f82011682018060405250810190610acf9190610b47565b805160208201516040830151606090930151919863ffffffff90911697506bffffffffffffffffffffffff90921695506001600160801b03169350915050565b505050565b80516001600160801b03811681146105ad57600080fd5b80516bffffffffffffffffffffffff811681146105ad57600080fd5b600060808284031215610b58578081fd5b6040516080810181811067ffffffffffffffff82111715610b7557fe5b60405282516001600160a01b0381168114610b8e578283fd5b8152602083015163ffffffff81168114610ba6578283fd5b6020820152610bb760408401610b2b565b6040820152610bc860608401610b14565b60608201529392505050565b9081526020019056fe45524332303a207472616e7366657220746f20746865207a65726f206164647265737345524332303a20617070726f766520746f20746865207a65726f206164647265737345524332303a207472616e7366657220616d6f756e7420657863656564732062616c616e636545524332303a207472616e7366657220616d6f756e74206578636565647320616c6c6f77616e636545524332303a207472616e736665722066726f6d20746865207a65726f206164647265737345524332303a20617070726f76652066726f6d20746865207a65726f206164647265737345524332303a2064656372656173656420616c6c6f77616e63652062656c6f77207a65726fa2646970667358221220afeaa8ec72667e45cf62c33e6b66038fe4878c2f90e2252c7269d76c8ac572bf64736f6c63430007060033",
    "linkReferences": {}
  },
  "methodIdentifiers": {
    "allowance(address,address)": "dd62ed3e",
    "approve(address,uint256)": "095ea7b3",
    "balanceOf(address)": "70a08231",
    "decimals()": "313ce567",
    "decreaseAllowance(address,uint256)": "a457c2d7",
    "getStrategyVaultId()": "6c1040a9",
    "getVaultDetails()": "533092ef",
    "increaseAllowance(address,uint256)": "39509351",
    "name()": "06fdde03",
    "powerTokenController()": "3dcb0c5d",
    "symbol()": "95d89b41",
    "totalSupply()": "18160ddd",
    "transfer(address,uint256)": "a9059cbb",
    "transferFrom(address,address,uint256)": "23b872dd",
    "vaultId()": "33194c0a",
    "wPowerPerp()": "7f07b130"
  },
  "id": 24
}