{
  "abi": [
    {
      "inputs": [],
      "name": "CR_DENOMINATOR",
      "outputs": [
        {
          "internalType": "uint256",
          "name": "",
          "type": "uint256"
        }
      ],
      "stateMutability": "view",
      "type": "function"
    },
    {
      "inputs": [],
      "name": "CR_NUMERATOR",
      "outputs": [
        {
          "internalType": "uint256",
          "name": "",
          "type": "uint256"
        }
      ],
      "stateMutability": "view",
      "type": "function"
    }
  ],
  "bytecode": {
    "object": "0x60a0610024600b82828239805160001a607314601757fe5b30600052607381538281f3fe7300000000000000000000000000000000000000003014608060405260043610603d5760003560e01c80631820880f1460425780638039003114605a575b600080fd5b60486060565b60408051918252519081900360200190f35b60486065565b600281565b60038156fea264697066735822122094c57e6b679af92750a90fc32e2c85d3ca030a31ff3d3b4748cc298bd6ceff8e64736f6c63430007060033",
    "linkReferences": {}
  },
  "methodIdentifiers": {
    "CR_DENOMINATOR()": "1820880f",
    "CR_NUMERATOR()": "80390031"
  },
  "id": 13
}