{
    "address": "0x1560D0c4DF820bfdda31d404B0BAB8c31f850f70",
    "abi": [
        {
            "anonymous": false,
            "inputs": [
                {
                    "indexed": false,
                    "internalType": "uint256",
                    "name": "amount",
                    "type": "uint256"
                },
                {
                    "indexed": false,
                    "internalType": "uint256",
                    "name": "vaultId",
                    "type": "uint256"
                }
            ],
            "name": "removeShort",
            "type": "event"
        },
        {
            "anonymous": false,
            "inputs": [
                {
                    "indexed": false,
                    "internalType": "uint256",
                    "name": "vaultId",
                    "type": "uint256"
                }
            ],
            "name": "CloseVault",
            "type": "event"
        },
        {
            "anonymous": false,
            "inputs": [
                {
                    "indexed": false,
                    "internalType": "uint256",
                    "name": "vaultId",
                    "type": "uint256"
                },
                {
                    "indexed": false,
                    "internalType": "uint128",
                    "name": "amount",
                    "type": "uint128"
                },
                {
                    "indexed": false,
                    "internalType": "uint128",
                    "name": "collateralId",
                    "type": "uint128"
                }
            ],
            "name": "DepositCollateral",
            "type": "event"
        },
        {
            "anonymous": false,
            "inputs": [
                {
                    "indexed": false,
                    "internalType": "uint256",
                    "name": "vaultId",
                    "type": "uint256"
                },
                {
                    "indexed": false,
                    "internalType": "uint256",
                    "name": "debtAmount",
                    "type": "uint256"
                },
                {
                    "indexed": false,
                    "internalType": "uint256",
                    "name": "collateralToSell",
                    "type": "uint256"
                }
            ],
            "name": "Liquidate",
            "type": "event"
        },
        {
            "anonymous": false,
            "inputs": [
                {
                    "indexed": false,
                    "internalType": "uint256",
                    "name": "amount",
                    "type": "uint256"
                },
                {
                    "indexed": false,
                    "internalType": "uint256",
                    "name": "vaultId",
                    "type": "uint256"
                }
            ],
            "name": "addShort",
            "type": "event"
        },
        {
            "anonymous": false,
            "inputs": [
                {
                    "indexed": false,
                    "internalType": "uint256",
                    "name": "vaultId",
                    "type": "uint256"
                }
            ],
            "name": "OpenVault",
            "type": "event"
        },
        {
            "anonymous": false,
            "inputs": [
                {
                    "indexed": true,
                    "internalType": "address",
                    "name": "previousOwner",
                    "type": "address"
                },
                {
                    "indexed": true,
                    "internalType": "address",
                    "name": "newOwner",
                    "type": "address"
                }
            ],
            "name": "OwnershipTransferred",
            "type": "event"
        },
        {
            "anonymous": false,
            "inputs": [
                {
                    "indexed": false,
                    "internalType": "uint256",
                    "name": "vaultId",
                    "type": "uint256"
                },
                {
                    "indexed": false,
                    "internalType": "address",
                    "name": "operator",
                    "type": "address"
                }
            ],
            "name": "UpdateOperator",
            "type": "event"
        },
        {
            "anonymous": false,
            "inputs": [
                {
                    "indexed": false,
                    "internalType": "uint256",
                    "name": "vaultId",
                    "type": "uint256"
                },
                {
                    "indexed": false,
                    "internalType": "uint256",
                    "name": "amount",
                    "type": "uint256"
                },
                {
                    "indexed": false,
                    "internalType": "uint128",
                    "name": "collateralId",
                    "type": "uint128"
                }
            ],
            "name": "WithdrawCollateral",
            "type": "event"
        },
        {
            "inputs": [
                {
                    "internalType": "uint32",
                    "name": "_period",
                    "type": "uint32"
                }
            ],
            "name": "_getDenormalizedMark",
            "outputs": [
                {
                    "internalType": "uint256",
                    "name": "",
                    "type": "uint256"
                }
            ],
            "stateMutability": "view",
            "type": "function"
        },
        {
            "inputs": [],
            "name": "applyFunding",
            "outputs": [],
            "stateMutability": "nonpayable",
            "type": "function"
        },
        {
            "inputs": [
                {
                    "internalType": "uint256",
                    "name": "_vaultId",
                    "type": "uint256"
                },
                {
                    "internalType": "uint256",
                    "name": "_amount",
                    "type": "uint256"
                },
                {
                    "internalType": "uint256",
                    "name": "_withdrawAmount",
                    "type": "uint256"
                }
            ],
            "name": "burn",
            "outputs": [],
            "stateMutability": "nonpayable",
            "type": "function"
        },
        {
            "inputs": [],
            "name": "dai",
            "outputs": [
                {
                    "internalType": "address",
                    "name": "",
                    "type": "address"
                }
            ],
            "stateMutability": "view",
            "type": "function"
        },
        {
            "inputs": [
                {
                    "internalType": "uint256",
                    "name": "_vaultId",
                    "type": "uint256"
                }
            ],
            "name": "deposit",
            "outputs": [],
            "stateMutability": "payable",
            "type": "function"
        },
        {
            "inputs": [],
            "name": "donate",
            "outputs": [],
            "stateMutability": "payable",
            "type": "function"
        },
        {
            "inputs": [],
            "name": "ethUSDPool",
            "outputs": [
                {
                    "internalType": "address",
                    "name": "",
                    "type": "address"
                }
            ],
            "stateMutability": "view",
            "type": "function"
        },
        {
            "inputs": [
                {
                    "internalType": "uint32",
                    "name": "_period",
                    "type": "uint32"
                }
            ],
            "name": "getDenormalizedMark",
            "outputs": [
                {
                    "internalType": "uint256",
                    "name": "",
                    "type": "uint256"
                }
            ],
            "stateMutability": "view",
            "type": "function"
        },
        {
            "inputs": [
                {
                    "internalType": "uint32",
                    "name": "_period",
                    "type": "uint32"
                }
            ],
            "name": "getIndex",
            "outputs": [
                {
                    "internalType": "uint256",
                    "name": "",
                    "type": "uint256"
                }
            ],
            "stateMutability": "view",
            "type": "function"
        },
        {
            "inputs": [
                {
                    "internalType": "address",
                    "name": "_oracle",
                    "type": "address"
                },
                {
                    "internalType": "address",
                    "name": "_vaultNFT",
                    "type": "address"
                },
                {
                    "internalType": "address",
                    "name": "_squeeth",
                    "type": "address"
                },
                {
                    "internalType": "address",
                    "name": "_weth",
                    "type": "address"
                },
                {
                    "internalType": "address",
                    "name": "_dai",
                    "type": "address"
                },
                {
                    "internalType": "address",
                    "name": "_ethUsdPool",
                    "type": "address"
                },
                {
                    "internalType": "address",
                    "name": "_wSqueethEthPool",
                    "type": "address"
                }
            ],
            "name": "init",
            "outputs": [],
            "stateMutability": "nonpayable",
            "type": "function"
        },
        {
            "inputs": [],
            "name": "isShutDown",
            "outputs": [
                {
                    "internalType": "bool",
                    "name": "",
                    "type": "bool"
                }
            ],
            "stateMutability": "view",
            "type": "function"
        },
        {
            "inputs": [],
            "name": "lastFundingUpdateTimestamp",
            "outputs": [
                {
                    "internalType": "uint256",
                    "name": "",
                    "type": "uint256"
                }
            ],
            "stateMutability": "view",
            "type": "function"
        },
        {
            "inputs": [
                {
                    "internalType": "uint256",
                    "name": "_vaultId",
                    "type": "uint256"
                },
                {
                    "internalType": "uint256",
                    "name": "_debtAmount",
                    "type": "uint256"
                }
            ],
            "name": "liquidate",
            "outputs": [],
            "stateMutability": "nonpayable",
            "type": "function"
        },
        {
            "inputs": [
                {
                    "internalType": "uint256",
                    "name": "_vaultId",
                    "type": "uint256"
                },
                {
                    "internalType": "uint128",
                    "name": "_mintAmount",
                    "type": "uint128"
                }
            ],
            "name": "mint",
            "outputs": [
                {
                    "internalType": "uint256",
                    "name": "",
                    "type": "uint256"
                },
                {
                    "internalType": "uint256",
                    "name": "_wSqueethMinted",
                    "type": "uint256"
                }
            ],
            "stateMutability": "payable",
            "type": "function"
        },
        {
            "inputs": [],
            "name": "normalizationFactor",
            "outputs": [
                {
                    "internalType": "uint256",
                    "name": "",
                    "type": "uint256"
                }
            ],
            "stateMutability": "view",
            "type": "function"
        },
        {
            "inputs": [],
            "name": "oracle",
            "outputs": [
                {
                    "internalType": "contract IOracle",
                    "name": "",
                    "type": "address"
                }
            ],
            "stateMutability": "view",
            "type": "function"
        },
        {
            "inputs": [],
            "name": "owner",
            "outputs": [
                {
                    "internalType": "address",
                    "name": "",
                    "type": "address"
                }
            ],
            "stateMutability": "view",
            "type": "function"
        },
        {
            "inputs": [
                {
                    "internalType": "uint256",
                    "name": "_wsqueethAmount",
                    "type": "uint256"
                }
            ],
            "name": "redeemLong",
            "outputs": [],
            "stateMutability": "nonpayable",
            "type": "function"
        },
        {
            "inputs": [
                {
                    "internalType": "uint256",
                    "name": "_vaultId",
                    "type": "uint256"
                }
            ],
            "name": "redeemShort",
            "outputs": [],
            "stateMutability": "nonpayable",
            "type": "function"
        },
        {
            "inputs": [],
            "name": "renounceOwnership",
            "outputs": [],
            "stateMutability": "nonpayable",
            "type": "function"
        },
        {
            "inputs": [],
            "name": "shutDown",
            "outputs": [],
            "stateMutability": "nonpayable",
            "type": "function"
        },
        {
            "inputs": [],
            "name": "shutDownEthPriceSnapshot",
            "outputs": [
                {
                    "internalType": "uint256",
                    "name": "",
                    "type": "uint256"
                }
            ],
            "stateMutability": "view",
            "type": "function"
        },
        {
            "inputs": [
                {
                    "internalType": "address",
                    "name": "newOwner",
                    "type": "address"
                }
            ],
            "name": "transferOwnership",
            "outputs": [],
            "stateMutability": "nonpayable",
            "type": "function"
        },
        {
            "inputs": [
                {
                    "internalType": "uint256",
                    "name": "_vaultId",
                    "type": "uint256"
                },
                {
                    "internalType": "address",
                    "name": "_operator",
                    "type": "address"
                }
            ],
            "name": "updateOperator",
            "outputs": [],
            "stateMutability": "nonpayable",
            "type": "function"
        },
        {
            "inputs": [],
            "name": "vaultNFT",
            "outputs": [
                {
                    "internalType": "contract IVaultManagerNFT",
                    "name": "",
                    "type": "address"
                }
            ],
            "stateMutability": "view",
            "type": "function"
        },
        {
            "inputs": [
                {
                    "internalType": "uint256",
                    "name": "",
                    "type": "uint256"
                }
            ],
            "name": "vaults",
            "outputs": [
                {
                    "internalType": "address",
                    "name": "operator",
                    "type": "address"
                },
                {
                    "internalType": "uint256",
                    "name": "NftCollateralId",
                    "type": "uint256"
                },
                {
                    "internalType": "uint256",
                    "name": "collateralAmount",
                    "type": "uint256"
                },
                {
                    "internalType": "uint256",
                    "name": "shortAmount",
                    "type": "uint256"
                }
            ],
            "stateMutability": "view",
            "type": "function"
        },
        {
            "inputs": [],
            "name": "wSqueethEthPool",
            "outputs": [
                {
                    "internalType": "address",
                    "name": "",
                    "type": "address"
                }
            ],
            "stateMutability": "view",
            "type": "function"
        },
        {
            "inputs": [],
            "name": "weth",
            "outputs": [
                {
                    "internalType": "address",
                    "name": "",
                    "type": "address"
                }
            ],
            "stateMutability": "view",
            "type": "function"
        },
        {
            "inputs": [
                {
                    "internalType": "uint256",
                    "name": "_vaultId",
                    "type": "uint256"
                },
                {
                    "internalType": "uint256",
                    "name": "_amount",
                    "type": "uint256"
                }
            ],
            "name": "withdraw",
            "outputs": [],
            "stateMutability": "payable",
            "type": "function"
        },
        {
            "inputs": [],
            "name": "wsqueeth",
            "outputs": [
                {
                    "internalType": "contract IWSqueeth",
                    "name": "",
                    "type": "address"
                }
            ],
            "stateMutability": "view",
            "type": "function"
        }
    ],
    "transactionHash": "0x187022f1a960d413c169469d8c2f7c9616d3f3d196d279991a4d1700d8b538c2",
    "args": [],
    "solcInputHash": "368b061a01fc3adecc39757514ba37b1",
    "bytecode": "0x60806040526000805460ff60b01b1916905534801561001d57600080fd5b506000610028610081565b6000805462010000600160b01b031916620100006001600160a01b038416908102919091178255604051929350917f8be0079c531659141344cd1fd0a4f28419497f9722a3daafe3b4186f6b6457e0908290a350610085565b3390565b612374806100946000396000f3fe6080604052600436106101cd5760003560e01c80638cd21d7c116100f7578063d296d1f111610095578063f0d4d59211610064578063f0d4d59214610586578063f2fde38b146105eb578063f4b9fa751461061e578063ff94752514610633576101cd565b8063d296d1f114610509578063d527258414610539578063ed88c68e1461054e578063ee3189ff14610556576101cd565b8063ac6cd5ef116100d1578063ac6cd5ef14610459578063b6b55f2514610483578063c026f25e146104a0578063c65a391d146104d0576101cd565b80638cd21d7c146103ea5780638da5cb5b1461041a57806397efa9421461042f576101cd565b80635ee816a01161016f5780637da7e9681161013e5780637da7e968146103515780637dc0d1d01461036657806384dea1a11461037b5780638c64ea4a14610390576101cd565b80635ee816a0146102c4578063673cd401146102d95780636ab3e56614610327578063715018a61461033c576101cd565b8063380accb9116101ab578063380accb9146102345780633fc8cef314610265578063441a3e701461027a5780634be2822c1461029d576101cd565b806305a10028146101d257806310b9e5831461020a578063200f4b8d1461021f575b600080fd5b3480156101de57600080fd5b50610208600480360360608110156101f557600080fd5b508035906020810135906040013561065c565b005b34801561021657600080fd5b506102086106de565b34801561022b57600080fd5b50610208610882565b34801561024057600080fd5b5061024961088c565b604080516001600160a01b039092168252519081900360200190f35b34801561027157600080fd5b5061024961089b565b6102086004803603604081101561029057600080fd5b50803590602001356108aa565b3480156102a957600080fd5b506102b2610914565b60408051918252519081900360200190f35b3480156102d057600080fd5b5061024961091a565b61030e600480360360408110156102ef57600080fd5b50803590602001356fffffffffffffffffffffffffffffffff16610929565b6040805192835260208301919091528051918290030190f35b34801561033357600080fd5b506102496109e7565b34801561034857600080fd5b506102086109f6565b34801561035d57600080fd5b506102b2610ad1565b34801561037257600080fd5b50610249610ad7565b34801561038757600080fd5b50610249610ae6565b34801561039c57600080fd5b506103ba600480360360208110156103b357600080fd5b5035610af5565b604080516001600160a01b0390951685526020850193909352838301919091526060830152519081900360800190f35b3480156103f657600080fd5b506102b26004803603602081101561040d57600080fd5b503563ffffffff16610b26565b34801561042657600080fd5b50610249610b37565b34801561043b57600080fd5b506102086004803603602081101561045257600080fd5b5035610b4c565b34801561046557600080fd5b506102086004803603602081101561047c57600080fd5b5035610c8a565b6102086004803603602081101561049957600080fd5b5035610d8f565b3480156104ac57600080fd5b506102b2600480360360208110156104c357600080fd5b503563ffffffff16610dee565b3480156104dc57600080fd5b50610208600480360360408110156104f357600080fd5b50803590602001356001600160a01b0316610e5c565b34801561051557600080fd5b506102086004803603604081101561052c57600080fd5b5080359060200135610f1a565b34801561054557600080fd5b506102b26110ed565b61020861088a565b34801561056257600080fd5b506102b26004803603602081101561057957600080fd5b503563ffffffff166110f3565b34801561059257600080fd5b50610208600480360360e08110156105a957600080fd5b506001600160a01b038135811691602081013582169160408201358116916060810135821691608082013581169160a081013582169160c090910135166110fe565b3480156105f757600080fd5b506102086004803603602081101561060e57600080fd5b50356001600160a01b0316611401565b34801561062a57600080fd5b50610249611539565b34801561063f57600080fd5b50610648611548565b604080519115158252519081900360200190f35b600054600160b01b900460ff16156106a6576040805162461bcd60e51b815260206004820152600860248201526739b43aba3237bbb760c11b604482015290519081900360640190fd5b6106ae611558565b81156106bf576106bf338484611623565b80156106d0576106d03384836116e8565b6106d9836117a1565b505050565b6106e661184f565b6001600160a01b03166106f7610b37565b6001600160a01b031614610752576040805162461bcd60e51b815260206004820181905260248201527f4f776e61626c653a2063616c6c6572206973206e6f7420746865206f776e6572604482015290519081900360640190fd5b600054600160b01b900460ff161561079c576040805162461bcd60e51b815260206004820152600860248201526739b43aba3237bbb760c11b604482015290519081900360640190fd5b600080547fffffffffffffffffff00ffffffffffffffffffffffffffffffffffffffffffff16600160b01b179055600b5460048054600254600354604080517fbb1a49210000000000000000000000000000000000000000000000000000000081526001600160a01b039485169581019590955291831660248501528216604484015261025860648401525192169163bb1a492191608480820192602092909190829003018186803b15801561085157600080fd5b505afa158015610865573d6000803e3d6000fd5b505050506040513d602081101561087b57600080fd5b5051600155565b61088a611558565b565b6005546001600160a01b031681565b6002546001600160a01b031681565b600054600160b01b900460ff16156108f4576040805162461bcd60e51b815260206004820152600860248201526739b43aba3237bbb760c11b604482015290519081900360640190fd5b6108fc611558565b6109073383836116e8565b610910826117a1565b5050565b60075481565b6004546001600160a01b031681565b600080548190600160b01b900460ff1615610976576040805162461bcd60e51b815260206004820152600860248201526739b43aba3237bbb760c11b604482015290519081900360640190fd5b61097e611558565b8361098f5761098c33611853565b93505b341561099f5761099f8434611992565b6fffffffffffffffffffffffffffffffff8316156109d7576109d43385856fffffffffffffffffffffffffffffffff16611a11565b90505b6109e0846117a1565b9293915050565b600a546001600160a01b031681565b6109fe61184f565b6001600160a01b0316610a0f610b37565b6001600160a01b031614610a6a576040805162461bcd60e51b815260206004820181905260248201527f4f776e61626c653a2063616c6c6572206973206e6f7420746865206f776e6572604482015290519081900360640190fd5b60008054604051620100009091046001600160a01b0316907f8be0079c531659141344cd1fd0a4f28419497f9722a3daafe3b4186f6b6457e0908390a3600080547fffffffffffffffffffff0000000000000000000000000000000000000000ffff169055565b60015481565b600b546001600160a01b031681565b6009546001600160a01b031681565b60086020526000908152604090208054600182015460028301546003909301546001600160a01b0390921692909184565b6000610b3182611b58565b92915050565b6000546201000090046001600160a01b031690565b600054600160b01b900460ff16610baa576040805162461bcd60e51b815260206004820152600960248201527f2173687574646f776e0000000000000000000000000000000000000000000000604482015290519081900360640190fd5b610bb48133611ba0565b610bf3576040805162461bcd60e51b815260206004820152600b60248201526a1b9bdd08185b1b1bddd95960aa1b604482015290519081900360640190fd5b600081815260086020526040812060030154600654600154919291610c3f916ec097ce7bc90715b34b9f100000000091610c399190610c33908790611c69565b90611c69565b90611cc2565b60008481526008602052604081206002015491925090610c5f9083611d29565b600085815260086020526040812060038101829055600201559050610c843382611d86565b50505050565b600054600160b01b900460ff16610ce8576040805162461bcd60e51b815260206004820152600960248201527f2173687574646f776e0000000000000000000000000000000000000000000000604482015290519081900360640190fd5b600a5460408051632770a7eb60e21b81523360048201526024810184905290516001600160a01b0390921691639dc29fac9160448082019260009290919082900301818387803b158015610d3b57600080fd5b505af1158015610d4f573d6000803e3d6000fd5b505050506000610d836ec097ce7bc90715b34b9f1000000000610c39600154610c3360065487611c6990919063ffffffff16565b90506109103382611d86565b600054600160b01b900460ff1615610dd9576040805162461bcd60e51b815260206004820152600860248201526739b43aba3237bbb760c11b604482015290519081900360640190fd5b610de1611558565b610deb8134611992565b50565b6004546002546003546000928392610e17926001600160a01b0392831692918216911686611e6b565b600554600a54600254929350600092610e40926001600160a01b03908116928116911687611e6b565b600654909150610e5490610c398385611c69565b949350505050565b610e668233611ba0565b610ea5576040805162461bcd60e51b815260206004820152600b60248201526a1b9bdd08185b1b1bddd95960aa1b604482015290519081900360640190fd5b600082815260086020908152604091829020805473ffffffffffffffffffffffffffffffffffffffff19166001600160a01b03851690811790915582518581529182015281517f9d9dd80a56a16f715df6eb40b771e24ff8cbea6eed9de28473ce0f28fe5602a9929181900390910190a15050565b600054600160b01b900460ff1615610f64576040805162461bcd60e51b815260206004820152600860248201526739b43aba3237bbb760c11b604482015290519081900360640190fd5b610f6c611558565b600082815260086020908152604091829020825160808101845281546001600160a01b031681526001820154928101929092526002810154928201929092526003909101546060820152610fbf90611f78565b15611011576040805162461bcd60e51b815260206004820152601160248201527f43616e206e6f74206c6971756964617465000000000000000000000000000000604482015290519081900360640190fd5b600061101e610258611b58565b600a5460408051632770a7eb60e21b8152336004820152602481018690529051929350670de0b6b3a764000085850204926001600160a01b0390921691639dc29fac9160448082019260009290919082900301818387803b15801561108257600080fd5b505af1158015611096573d6000803e3d6000fd5b506110a79250339150839050611d86565b604080518581526020810185905280820183905290517f199c51a8cd3b6aa8f80abc4f5c713f20c111837887163a1bbaa2dd5f61a554ab9181900360600190a150505050565b60065481565b6000610b3182610dee565b600054610100900460ff16806111175750611117611fb2565b80611125575060005460ff16155b6111605760405162461bcd60e51b815260040180806020018281038252602e8152602001806122cf602e913960400191505060405180910390fd5b600054610100900460ff161580156111a957600080547fffffffffffffffffffffffffffffffffffffffffffffffffffffffffffffff0061ff0019909116610100171660011790555b6001600160a01b038816611204576040805162461bcd60e51b815260206004820152601660248201527f496e76616c6964206f7261636c65206164647265737300000000000000000000604482015290519081900360640190fd5b6001600160a01b03871661125f576040805162461bcd60e51b815260206004820152601860248201527f496e76616c6964207661756c744e465420616464726573730000000000000000604482015290519081900360640190fd5b6001600160a01b0386166112ba576040805162461bcd60e51b815260206004820152601760248201527f496e76616c696420737175656574682061646472657373000000000000000000604482015290519081900360640190fd5b6001600160a01b038316611315576040805162461bcd60e51b815260206004820152601c60248201527f496e76616c6964206574683a75736420706f6f6c206164647265737300000000604482015290519081900360640190fd5b6001600160a01b03821661135a5760405162461bcd60e51b815260040180806020018281038252602181526020018061231e6021913960400191505060405180910390fd5b600b805473ffffffffffffffffffffffffffffffffffffffff199081166001600160a01b038b8116919091179092556009805482168a8416179055600a8054821689841617905560048054821686841617905560058054821685841617905560028054821688841617905560038054909116918616919091179055670de0b6b3a76400006006554260075580156113f7576000805461ff00191690555b5050505050505050565b61140961184f565b6001600160a01b031661141a610b37565b6001600160a01b031614611475576040805162461bcd60e51b815260206004820181905260248201527f4f776e61626c653a2063616c6c6572206973206e6f7420746865206f776e6572604482015290519081900360640190fd5b6001600160a01b0381166114ba5760405162461bcd60e51b815260040180806020018281038252602681526020018061226f6026913960400191505060405180910390fd5b600080546040516001600160a01b03808516936201000090930416917f8be0079c531659141344cd1fd0a4f28419497f9722a3daafe3b4186f6b6457e091a3600080546001600160a01b0390921662010000027fffffffffffffffffffff0000000000000000000000000000000000000000ffff909216919091179055565b6003546001600160a01b031681565b600054600160b01b900460ff1681565b6007544203600061156882611fc3565b9050600061157582610dee565b9050600061158283611b58565b905060006115a862015180610c39670de0b6b3a764000063ffffffff808a1690611c6916565b905060006115f16115d86115bc8585611c69565b6115d287610c33670de0b6b3a764000088611fe9565b90611d29565b610c39866ec097ce7bc90715b34b9f1000000000611c69565b9050611614670de0b6b3a7640000610c3983600654611c6990919063ffffffff16565b60065550504260075550505050565b600082815260086020526040902061163b9082612043565b604080518281526020810184905281517f2bb268d724179310647408147160a122eedb0937b9238e08de84a0644f5ab03a929181900390910190a1600a5460408051632770a7eb60e21b81526001600160a01b0386811660048301526024820185905291519190921691639dc29fac91604480830192600092919082900301818387803b1580156116cb57600080fd5b505af11580156116df573d6000803e3d6000fd5b50505050505050565b6116f28284611ba0565b611731576040805162461bcd60e51b815260206004820152600b60248201526a1b9bdd08185b1b1bddd95960aa1b604482015290519081900360640190fd5b6000828152600860205260409020611749908261205e565b61175c6001600160a01b03841682611d86565b604080518381526020810183905260008183015290517ffd6fe60d4c49c077689d373f95adff80f09e02e5f719b842f6e3cfc812546a909181900360600190a1505050565b806117ab57610deb565b600081815260086020908152604091829020825160808101845281546001600160a01b0316815260018201549281019290925260028101549282019290925260039091015460608201526117fe81611f78565b610910576040805162461bcd60e51b815260206004820152600d60248201527f496e76616c696420737461746500000000000000000000000000000000000000604482015290519081900360640190fd5b3390565b600954604080517f54ba0f270000000000000000000000000000000000000000000000000000000081526001600160a01b038481166004830152915160009392909216916354ba0f279160248082019260209290919082900301818787803b1580156118be57600080fd5b505af11580156118d2573d6000803e3d6000fd5b505050506040513d60208110156118e857600080fd5b505160408051608081018252600080825260208083018281528385018381526060850184815287855260088452938690209451855473ffffffffffffffffffffffffffffffffffffffff19166001600160a01b03909116178555905160018501555160028401559051600390920191909155815183815291519293507f5f5dd6438bd675e0dba85db7517ba5931be5b31a11e5af8c04ea0e9152fa7ec592918290030190a1919050565b60008281526008602052604090206119bc906fffffffffffffffffffffffffffffffff8316612079565b604080518381526fffffffffffffffffffffffffffffffff8316602082015260008183015290517f3330326bf90be46e9e6c5df7730431a92424757f58fba7a49e10e800bf1aa7c19181900360600190a15050565b6000611a1d8385611ba0565b611a5c576040805162461bcd60e51b815260206004820152600b60248201526a1b9bdd08185b1b1bddd95960aa1b604482015290519081900360640190fd5b600654611a7590610c3984670de0b6b3a7640000611c69565b6000848152600860205260409020909150611a909082612088565b604080518281526020810185905281517fd4edacb9401a81c09b0ef47ba06017e8ce1690dc5dd5e083f314c8390e75e9d0929181900390910190a1600a54604080517f40c10f190000000000000000000000000000000000000000000000000000000081526001600160a01b03878116600483015260248201859052915191909216916340c10f1991604480830192600092919082900301818387803b158015611b3957600080fd5b505af1158015611b4d573d6000803e3d6000fd5b505050509392505050565b6004546002546003546000928392611b81926001600160a01b0392831692918216911686611e6b565b9050611b99670de0b6b3a7640000610c398380611c69565b9392505050565b600954604080517f6352211e0000000000000000000000000000000000000000000000000000000081526004810185905290516000926001600160a01b0380861693911691636352211e91602480820192602092909190829003018186803b158015611c0b57600080fd5b505afa158015611c1f573d6000803e3d6000fd5b505050506040513d6020811015611c3557600080fd5b50516001600160a01b03161480611b99575050600091825260086020526040909120546001600160a01b0390811691161490565b600082611c7857506000610b31565b82820282848281611c8557fe5b0414611b995760405162461bcd60e51b81526004018080602001828103825260218152602001806122fd6021913960400191505060405180910390fd5b6000808211611d18576040805162461bcd60e51b815260206004820152601a60248201527f536166654d6174683a206469766973696f6e206279207a65726f000000000000604482015290519081900360640190fd5b818381611d2157fe5b049392505050565b600082821115611d80576040805162461bcd60e51b815260206004820152601e60248201527f536166654d6174683a207375627472616374696f6e206f766572666c6f770000604482015290519081900360640190fd5b50900390565b80471015611ddb576040805162461bcd60e51b815260206004820152601d60248201527f416464726573733a20696e73756666696369656e742062616c616e6365000000604482015290519081900360640190fd5b6040516000906001600160a01b0384169083908381818185875af1925050503d8060008114611e26576040519150601f19603f3d011682016040523d82523d6000602084013e611e2b565b606091505b50509050806106d95760405162461bcd60e51b815260040180806020018281038252603a815260200180612295603a913960400191505060405180910390fd5b600b54604080517fd1343c4d0000000000000000000000000000000000000000000000000000000081526001600160a01b0387811660048301528681166024830152858116604483015263ffffffff8516606483015291516000938493169163d1343c4d916084808301926020929190829003018186803b158015611eef57600080fd5b505afa158015611f03573d6000803e3d6000fd5b505050506040513d6020811015611f1957600080fd5b5051905080611f6f576040805162461bcd60e51b815260206004820152600b60248201527f5741502057415020574150000000000000000000000000000000000000000000604482015290519081900360640190fd5b95945050505050565b6004546002546003546000926001928492611fa3926001600160a01b03908116928116911685611e6b565b9050610e548460065483612097565b6000611fbd306120b9565b15905090565b600080611fce6120bf565b90508063ffffffff168363ffffffff1611610b315782611b99565b600082820183811015611b99576040805162461bcd60e51b815260206004820152601b60248201527f536166654d6174683a206164646974696f6e206f766572666c6f770000000000604482015290519081900360640190fd5b60038201546120529082611d29565b82600301819055505050565b600282015461206d9082611d29565b82600201819055505050565b600282015461206d9082611fe9565b60038201546120529082611fe9565b60008360600151600014156120ae57506001611b99565b610e54848484612215565b3b151590565b600b5460048054604080517fde5a6e220000000000000000000000000000000000000000000000000000000081526001600160a01b039283169381019390935251600093849392169163de5a6e22916024808301926020929190829003018186803b15801561212d57600080fd5b505afa158015612141573d6000803e3d6000fd5b505050506040513d602081101561215757600080fd5b5051600b54600554604080517fde5a6e220000000000000000000000000000000000000000000000000000000081526001600160a01b0392831660048201529051939450600093919092169163de5a6e22916024808301926020929190829003018186803b1580156121c857600080fd5b505afa1580156121dc573d6000803e3d6000fd5b505050506040513d60208110156121f257600080fd5b5051905063ffffffff8082169083161161220c578161220e565b805b9250505090565b6000806122466ec097ce7bc90715b34b9f1000000000610c3985610c33888a60600151611c6990919063ffffffff16565b9050612253816003611c69565b6040860151612263906002611c69565b10159594505050505056fe4f776e61626c653a206e6577206f776e657220697320746865207a65726f2061646472657373416464726573733a20756e61626c6520746f2073656e642076616c75652c20726563697069656e74206d61792068617665207265766572746564496e697469616c697a61626c653a20636f6e747261637420697320616c726561647920696e697469616c697a6564536166654d6174683a206d756c7469706c69636174696f6e206f766572666c6f77496e76616c69642077737175656574683a75736420706f6f6c2061646472657373a2646970667358221220ed7a5c7a3096c6f81c03b9d972130f14a78e1d1b5fa0e95138e68327e08fb66364736f6c63430007060033",
    "devdoc": {
        "kind": "dev",
        "methods": {
            "owner()": {
                "details": "Returns the address of the current owner."
            },
            "renounceOwnership()": {
                "details": "Leaves the contract without owner. It will not be possible to call `onlyOwner` functions anymore. Can only be called by the current owner. NOTE: Renouncing ownership will leave the contract without an owner, thereby removing any functionality that is only available to the owner."
            },
            "transferOwnership(address)": {
                "details": "Transfers ownership of the contract to a new account (`newOwner`). Can only be called by the current owner."
            }
        },
        "stateVariables": {
            "vaults": {
                "details": "The token ID vault data"
            }
        },
        "version": 1
    },
    "userdoc": {
        "events": {
            "OpenVault(uint256)": {
                "notice": "Events"
            }
        },
        "kind": "user",
        "methods": {
            "applyFunding()": {
                "notice": "Update the normalized factor as a way to pay funding."
            },
            "burn(uint256,uint256,uint256)": {
                "notice": "burn squueth and remove collateral from a vault. This burns an amount of wSqueeth."
            },
            "deposit(uint256)": {
                "notice": "Deposit collateral into a vault"
            },
            "donate()": {
                "notice": "a function to add eth into a contract, in case it got insolvent and have ensufficient eth to pay out."
            },
            "init(address,address,address,address,address,address,address)": {
                "notice": "init controller with squeeth and short NFT address"
            },
            "mint(uint256,uint128)": {
                "notice": "put down collateral and mint squeeth. This mints an amount of rSqueeth."
            },
            "shutDown()": {
                "notice": "shutdown the system and enable redeeming long and short"
            },
            "updateOperator(uint256,address)": {
                "notice": "Authorize an address to modify the vault. Can be revoke by setting address to 0."
            },
            "withdraw(uint256,uint256)": {
                "notice": "Withdraw collateral from a vault."
            }
        },
        "version": 1
    },
    "storageLayout": {
        "storage": [
            {
                "astId": 3585,
                "contract": "contracts/core/Controller.sol:Controller",
                "label": "_initialized",
                "offset": 0,
                "slot": "0",
                "type": "t_bool"
            },
            {
                "astId": 3588,
                "contract": "contracts/core/Controller.sol:Controller",
                "label": "_initializing",
                "offset": 1,
                "slot": "0",
                "type": "t_bool"
            },
            {
                "astId": 3109,
                "contract": "contracts/core/Controller.sol:Controller",
                "label": "_owner",
                "offset": 2,
                "slot": "0",
                "type": "t_address"
            },
            {
                "astId": 6868,
                "contract": "contracts/core/Controller.sol:Controller",
                "label": "isShutDown",
                "offset": 22,
                "slot": "0",
                "type": "t_bool"
            },
            {
                "astId": 6870,
                "contract": "contracts/core/Controller.sol:Controller",
                "label": "shutDownEthPriceSnapshot",
                "offset": 0,
                "slot": "1",
                "type": "t_uint256"
            },
            {
                "astId": 6872,
                "contract": "contracts/core/Controller.sol:Controller",
                "label": "weth",
                "offset": 0,
                "slot": "2",
                "type": "t_address"
            },
            {
                "astId": 6874,
                "contract": "contracts/core/Controller.sol:Controller",
                "label": "dai",
                "offset": 0,
                "slot": "3",
                "type": "t_address"
            },
            {
                "astId": 6876,
                "contract": "contracts/core/Controller.sol:Controller",
                "label": "ethUSDPool",
                "offset": 0,
                "slot": "4",
                "type": "t_address"
            },
            {
                "astId": 6878,
                "contract": "contracts/core/Controller.sol:Controller",
                "label": "wSqueethEthPool",
                "offset": 0,
                "slot": "5",
                "type": "t_address"
            },
            {
                "astId": 6880,
                "contract": "contracts/core/Controller.sol:Controller",
                "label": "normalizationFactor",
                "offset": 0,
                "slot": "6",
                "type": "t_uint256"
            },
            {
                "astId": 6882,
                "contract": "contracts/core/Controller.sol:Controller",
                "label": "lastFundingUpdateTimestamp",
                "offset": 0,
                "slot": "7",
                "type": "t_uint256"
            },
            {
                "astId": 6887,
                "contract": "contracts/core/Controller.sol:Controller",
                "label": "vaults",
                "offset": 0,
                "slot": "8",
                "type": "t_mapping(t_uint256,t_struct(Vault)8527_storage)"
            },
            {
                "astId": 6889,
                "contract": "contracts/core/Controller.sol:Controller",
                "label": "vaultNFT",
                "offset": 0,
                "slot": "9",
                "type": "t_contract(IVaultManagerNFT)8475"
            },
            {
                "astId": 6891,
                "contract": "contracts/core/Controller.sol:Controller",
                "label": "wsqueeth",
                "offset": 0,
                "slot": "10",
                "type": "t_contract(IWSqueeth)8511"
            },
            {
                "astId": 6893,
                "contract": "contracts/core/Controller.sol:Controller",
                "label": "oracle",
                "offset": 0,
                "slot": "11",
                "type": "t_contract(IOracle)8461"
            }
        ],
        "types": {
            "t_address": {
                "encoding": "inplace",
                "label": "address",
                "numberOfBytes": "20"
            },
            "t_bool": {
                "encoding": "inplace",
                "label": "bool",
                "numberOfBytes": "1"
            },
            "t_contract(IOracle)8461": {
                "encoding": "inplace",
                "label": "contract IOracle",
                "numberOfBytes": "20"
            },
            "t_contract(IVaultManagerNFT)8475": {
                "encoding": "inplace",
                "label": "contract IVaultManagerNFT",
                "numberOfBytes": "20"
            },
            "t_contract(IWSqueeth)8511": {
                "encoding": "inplace",
                "label": "contract IWSqueeth",
                "numberOfBytes": "20"
            },
            "t_mapping(t_uint256,t_struct(Vault)8527_storage)": {
                "encoding": "mapping",
                "key": "t_uint256",
                "label": "mapping(uint256 => struct VaultLib.Vault)",
                "numberOfBytes": "32",
                "value": "t_struct(Vault)8527_storage"
            },
            "t_struct(Vault)8527_storage": {
                "encoding": "inplace",
                "label": "struct VaultLib.Vault",
                "members": [
                    {
                        "astId": 8520,
                        "contract": "contracts/core/Controller.sol:Controller",
                        "label": "operator",
                        "offset": 0,
                        "slot": "0",
                        "type": "t_address"
                    },
                    {
                        "astId": 8522,
                        "contract": "contracts/core/Controller.sol:Controller",
                        "label": "NftCollateralId",
                        "offset": 0,
                        "slot": "1",
                        "type": "t_uint256"
                    },
                    {
                        "astId": 8524,
                        "contract": "contracts/core/Controller.sol:Controller",
                        "label": "collateralAmount",
                        "offset": 0,
                        "slot": "2",
                        "type": "t_uint256"
                    },
                    {
                        "astId": 8526,
                        "contract": "contracts/core/Controller.sol:Controller",
                        "label": "shortAmount",
                        "offset": 0,
                        "slot": "3",
                        "type": "t_uint256"
                    }
                ],
                "numberOfBytes": "128"
            },
            "t_uint256": {
                "encoding": "inplace",
                "label": "uint256",
                "numberOfBytes": "32"
            }
        }
    }
}