{
  "address": "0x1561AD75Fc7382C33819e63A4787b6F362D8152f",
  "abi": [
    {
      "inputs": [
        {
          "internalType": "address",
          "name": "_controller",
          "type": "address"
        },
        {
          "internalType": "address",
          "name": "_nonfungiblePositionManager",
          "type": "address"
        },
        {
          "internalType": "address",
          "name": "_uniswapFactory",
          "type": "address"
        },
        {
          "internalType": "address",
          "name": "_exec",
          "type": "address"
        },
        {
          "internalType": "address",
          "name": "_euler",
          "type": "address"
        },
        {
          "internalType": "address",
          "name": "_dToken",
          "type": "address"
        }
      ],
      "stateMutability": "nonpayable",
      "type": "constructor"
    },
    {
      "inputs": [
        {
          "components": [
            {
              "internalType": "uint256",
              "name": "vaultId",
              "type": "uint256"
            },
            {
              "internalType": "uint256",
              "name": "tokenId",
              "type": "uint256"
            },
            {
              "internalType": "uint256",
              "name": "liquidity",
              "type": "uint256"
            },
            {
              "internalType": "uint256",
              "name": "liquidityPercentage",
              "type": "uint256"
            },
            {
              "internalType": "uint256",
              "name": "wPowerPerpAmountToBurn",
              "type": "uint256"
            },
            {
              "internalType": "uint256",
              "name": "collateralToWithdraw",
              "type": "uint256"
            },
            {
              "internalType": "uint256",
              "name": "limitPriceEthPerPowerPerp",
              "type": "uint256"
            },
            {
              "internalType": "uint128",
              "name": "amount0Min",
              "type": "uint128"
            },
            {
              "internalType": "uint128",
              "name": "amount1Min",
              "type": "uint128"
            },
            {
              "internalType": "uint24",
              "name": "poolFee",
              "type": "uint24"
            },
            {
              "internalType": "bool",
              "name": "burnExactRemoved",
              "type": "bool"
            }
          ],
          "internalType": "struct ControllerHelperDataType.CloseShortWithUserNftParams",
          "name": "_params",
          "type": "tuple"
        }
      ],
      "name": "closeShortWithUserNft",
      "outputs": [],
      "stateMutability": "payable",
      "type": "function"
    },
    {
      "inputs": [],
      "name": "dToken",
      "outputs": [
        {
          "internalType": "address",
          "name": "",
          "type": "address"
        }
      ],
      "stateMutability": "view",
      "type": "function"
    },
    {
      "inputs": [],
      "name": "euler",
      "outputs": [
        {
          "internalType": "address",
          "name": "",
          "type": "address"
        }
      ],
      "stateMutability": "view",
      "type": "function"
    },
    {
      "inputs": [],
      "name": "exec",
      "outputs": [
        {
          "internalType": "address",
          "name": "",
          "type": "address"
        }
      ],
      "stateMutability": "view",
      "type": "function"
    },
    {
      "inputs": [],
      "name": "factory",
      "outputs": [
        {
          "internalType": "address",
          "name": "",
          "type": "address"
        }
      ],
      "stateMutability": "view",
      "type": "function"
    },
    {
      "inputs": [
        {
          "components": [
            {
              "internalType": "uint256",
              "name": "vaultId",
              "type": "uint256"
            },
            {
              "internalType": "uint256",
              "name": "tokenId",
              "type": "uint256"
            },
            {
              "internalType": "uint256",
              "name": "liquidity",
              "type": "uint256"
            },
            {
              "internalType": "uint256",
              "name": "liquidityPercentage",
              "type": "uint256"
            },
            {
              "internalType": "uint256",
              "name": "wPowerPerpAmountToBurn",
              "type": "uint256"
            },
            {
              "internalType": "uint256",
              "name": "collateralToFlashloan",
              "type": "uint256"
            },
            {
              "internalType": "uint256",
              "name": "collateralToWithdraw",
              "type": "uint256"
            },
            {
              "internalType": "uint256",
              "name": "limitPriceEthPerPowerPerp",
              "type": "uint256"
            },
            {
              "internalType": "uint128",
              "name": "amount0Min",
              "type": "uint128"
            },
            {
              "internalType": "uint128",
              "name": "amount1Min",
              "type": "uint128"
            },
            {
              "internalType": "uint24",
              "name": "poolFee",
              "type": "uint24"
            },
            {
              "internalType": "bool",
              "name": "burnExactRemoved",
              "type": "bool"
            }
          ],
          "internalType": "struct ControllerHelperDataType.FlashloanCloseVaultLpNftParam",
          "name": "_params",
          "type": "tuple"
        }
      ],
      "name": "flashloanCloseVaultLpNft",
      "outputs": [],
      "stateMutability": "payable",
      "type": "function"
    },
    {
      "inputs": [
        {
          "components": [
            {
              "internalType": "address",
              "name": "wPowerPerpPool",
              "type": "address"
            },
            {
              "internalType": "uint256",
              "name": "vaultId",
              "type": "uint256"
            },
            {
              "internalType": "uint256",
              "name": "wPowerPerpAmount",
              "type": "uint256"
            },
            {
              "internalType": "uint256",
              "name": "collateralToDeposit",
              "type": "uint256"
            },
            {
              "internalType": "uint256",
              "name": "collateralToFlashloan",
              "type": "uint256"
            },
            {
              "internalType": "uint256",
              "name": "collateralToLp",
              "type": "uint256"
            },
            {
              "internalType": "uint256",
              "name": "collateralToWithdraw",
              "type": "uint256"
            },
            {
              "internalType": "uint256",
              "name": "amount0Min",
              "type": "uint256"
            },
            {
              "internalType": "uint256",
              "name": "amount1Min",
              "type": "uint256"
            },
            {
              "internalType": "int24",
              "name": "lowerTick",
              "type": "int24"
            },
            {
              "internalType": "int24",
              "name": "upperTick",
              "type": "int24"
            }
          ],
          "internalType": "struct ControllerHelperDataType.FlashloanWMintLpDepositNftParams",
          "name": "_params",
          "type": "tuple"
        }
      ],
      "name": "flashloanWMintLpDepositNft",
      "outputs": [],
      "stateMutability": "payable",
      "type": "function"
    },
    {
      "inputs": [
        {
          "components": [
            {
              "internalType": "uint256",
              "name": "vaultId",
              "type": "uint256"
            },
            {
              "internalType": "uint256",
              "name": "wPowerPerpAmountToMint",
              "type": "uint256"
            },
            {
              "internalType": "uint256",
              "name": "collateralToDeposit",
              "type": "uint256"
            },
            {
              "internalType": "uint256",
              "name": "wPowerPerpAmountToSell",
              "type": "uint256"
            },
            {
              "internalType": "uint256",
              "name": "minToReceive",
              "type": "uint256"
            },
            {
              "internalType": "uint24",
              "name": "poolFee",
              "type": "uint24"
            }
          ],
          "internalType": "struct ControllerHelperDataType.FlashSellLongWMintParams",
          "name": "_params",
          "type": "tuple"
        }
      ],
      "name": "flashswapSellLongWMint",
      "outputs": [],
      "stateMutability": "payable",
      "type": "function"
    },
    {
      "inputs": [
        {
          "components": [
            {
              "internalType": "uint256",
              "name": "vaultId",
              "type": "uint256"
            },
            {
              "internalType": "uint256",
              "name": "wPowerPerpAmountToBurn",
              "type": "uint256"
            },
            {
              "internalType": "uint256",
              "name": "wPowerPerpAmountToBuy",
              "type": "uint256"
            },
            {
              "internalType": "uint256",
              "name": "collateralToWithdraw",
              "type": "uint256"
            },
            {
              "internalType": "uint256",
              "name": "maxToPay",
              "type": "uint256"
            },
            {
              "internalType": "uint24",
              "name": "poolFee",
              "type": "uint24"
            }
          ],
          "internalType": "struct ControllerHelperDataType.FlashswapWBurnBuyLongParams",
          "name": "_params",
          "type": "tuple"
        }
      ],
      "name": "flashswapWBurnBuyLong",
      "outputs": [],
      "stateMutability": "payable",
      "type": "function"
    },
    {
      "inputs": [
        {
          "internalType": "bytes",
          "name": "encodedData",
          "type": "bytes"
        }
      ],
      "name": "onDeferredLiquidityCheck",
      "outputs": [],
      "stateMutability": "nonpayable",
      "type": "function"
    },
    {
      "inputs": [
        {
          "internalType": "address",
          "name": "",
          "type": "address"
        },
        {
          "internalType": "address",
          "name": "",
          "type": "address"
        },
        {
          "internalType": "uint256",
          "name": "",
          "type": "uint256"
        },
        {
          "internalType": "bytes",
          "name": "",
          "type": "bytes"
        }
      ],
      "name": "onERC721Received",
      "outputs": [
        {
          "internalType": "bytes4",
          "name": "",
          "type": "bytes4"
        }
      ],
      "stateMutability": "nonpayable",
      "type": "function"
    },
    {
      "inputs": [
        {
          "internalType": "uint256",
          "name": "_vaultId",
          "type": "uint256"
        },
        {
          "internalType": "uint256",
          "name": "_collateralToFlashloan",
          "type": "uint256"
        },
        {
          "components": [
            {
              "internalType": "enum ControllerHelperDataType.RebalanceVaultNftType",
              "name": "rebalanceLpInVaultType",
              "type": "uint8"
            },
            {
              "internalType": "bytes",
              "name": "data",
              "type": "bytes"
            }
          ],
          "internalType": "struct ControllerHelperDataType.RebalanceLpInVaultParams[]",
          "name": "_params",
          "type": "tuple[]"
        }
      ],
      "name": "rebalanceLpInVault",
      "outputs": [],
      "stateMutability": "payable",
      "type": "function"
    },
    {
      "inputs": [
        {
          "components": [
            {
              "internalType": "address",
              "name": "wPowerPerpPool",
              "type": "address"
            },
            {
              "internalType": "uint256",
              "name": "tokenId",
              "type": "uint256"
            },
            {
              "internalType": "uint256",
              "name": "liquidity",
              "type": "uint256"
            },
            {
              "internalType": "uint256",
              "name": "wPowerPerpAmountDesired",
              "type": "uint256"
            },
            {
              "internalType": "uint256",
              "name": "wethAmountDesired",
              "type": "uint256"
            },
            {
              "internalType": "uint256",
              "name": "amount0DesiredMin",
              "type": "uint256"
            },
            {
              "internalType": "uint256",
              "name": "amount1DesiredMin",
              "type": "uint256"
            },
            {
              "internalType": "uint256",
              "name": "limitPriceEthPerPowerPerp",
              "type": "uint256"
            },
            {
              "internalType": "uint256",
              "name": "amount0Min",
              "type": "uint256"
            },
            {
              "internalType": "uint256",
              "name": "amount1Min",
              "type": "uint256"
            },
            {
              "internalType": "int24",
              "name": "lowerTick",
              "type": "int24"
            },
            {
              "internalType": "int24",
              "name": "upperTick",
              "type": "int24"
            },
            {
              "internalType": "uint24",
              "name": "poolFee",
              "type": "uint24"
            }
          ],
          "internalType": "struct ControllerHelperDataType.RebalanceLpWithoutVaultParams",
          "name": "_params",
          "type": "tuple"
        }
      ],
      "name": "rebalanceLpWithoutVault",
      "outputs": [],
      "stateMutability": "payable",
      "type": "function"
    },
    {
      "inputs": [
        {
          "components": [
            {
              "internalType": "uint256",
              "name": "tokenId",
              "type": "uint256"
            },
            {
              "internalType": "uint256",
              "name": "liquidity",
              "type": "uint256"
            },
            {
              "internalType": "uint256",
              "name": "liquidityPercentage",
              "type": "uint256"
            },
            {
              "internalType": "uint128",
              "name": "amount0Min",
              "type": "uint128"
            },
            {
              "internalType": "uint128",
              "name": "amount1Min",
              "type": "uint128"
            },
            {
              "internalType": "uint256",
              "name": "limitPriceEthPerPowerPerp",
              "type": "uint256"
            },
            {
              "internalType": "uint24",
              "name": "poolFee",
              "type": "uint24"
            }
          ],
          "internalType": "struct ControllerHelperDataType.ReduceLiquidityAndSellParams",
          "name": "_params",
          "type": "tuple"
        }
      ],
      "name": "reduceLiquidityAndSell",
      "outputs": [],
      "stateMutability": "nonpayable",
      "type": "function"
    },
    {
      "inputs": [],
      "name": "token",
      "outputs": [
        {
          "internalType": "address",
          "name": "",
          "type": "address"
        }
      ],
      "stateMutability": "view",
      "type": "function"
    },
    {
      "inputs": [
        {
          "internalType": "int256",
          "name": "amount0Delta",
          "type": "int256"
        },
        {
          "internalType": "int256",
          "name": "amount1Delta",
          "type": "int256"
        },
        {
          "internalType": "bytes",
          "name": "_data",
          "type": "bytes"
        }
      ],
      "name": "uniswapV3SwapCallback",
      "outputs": [],
      "stateMutability": "nonpayable",
      "type": "function"
    },
    {
      "inputs": [
        {
          "components": [
            {
              "internalType": "address",
              "name": "recipient",
              "type": "address"
            },
            {
              "internalType": "address",
              "name": "wPowerPerpPool",
              "type": "address"
            },
            {
              "internalType": "uint256",
              "name": "vaultId",
              "type": "uint256"
            },
            {
              "internalType": "uint256",
              "name": "wPowerPerpAmount",
              "type": "uint256"
            },
            {
              "internalType": "uint256",
              "name": "collateralToDeposit",
              "type": "uint256"
            },
            {
              "internalType": "uint256",
              "name": "collateralToLp",
              "type": "uint256"
            },
            {
              "internalType": "uint256",
              "name": "amount0Min",
              "type": "uint256"
            },
            {
              "internalType": "uint256",
              "name": "amount1Min",
              "type": "uint256"
            },
            {
              "internalType": "int24",
              "name": "lowerTick",
              "type": "int24"
            },
            {
              "internalType": "int24",
              "name": "upperTick",
              "type": "int24"
            }
          ],
          "internalType": "struct ControllerHelperDataType.MintAndLpParams",
          "name": "_params",
          "type": "tuple"
        }
      ],
      "name": "wMintLp",
      "outputs": [],
      "stateMutability": "payable",
      "type": "function"
    },
    {
      "stateMutability": "payable",
      "type": "receive"
    }
  ],
  "transactionHash": "0xd8df7f1f56fb38e895ac97a09579d57cf200bf4ea54ec5253f2e42fea3f085b0",
  "args": [
    "0x59F0c781a6eC387F09C40FAA22b7477a2950d209",
    "0x8c7C1F786dA4DEe7d4bB49697A9B0C0c8Fb328e0",
    "0xa9C2f675FF8290494675dF5CFc2733319EaeeFDc",
    "0x59F0c781a6eC387F09C40FAA22b7477a2950d209",
    "0x59F0c781a6eC387F09C40FAA22b7477a2950d209",
    "0x682b4c36a6D4749Ced8C3abF47AefDFC57A17754"
  ],
  "solcInputHash": "d91027c30078be5bfba0223abd5c6e60",
  "bytecode": "0x6101e06040523480156200001257600080fd5b5060405162006a0e38038062006a0e833981016040819052620000359162000679565b8282876001600160a01b0316633fc8cef36040518163ffffffff1660e01b815260040160206040518083038186803b1580156200007157600080fd5b505afa15801562000086573d6000803e3d6000fd5b505050506040513d601f19601f82011682018060405250810190620000ac919062000655565b83876001600160a01b038116620000c257600080fd5b6001600160601b0319606091821b811660805294811b851660a05292831b841660c05290821b831660e052811b82166101005287901b166101405260408051634ea64a2160e11b815290516001600160a01b03881691639d4c9442916004808301926020929190829003018186803b1580156200013e57600080fd5b505afa15801562000153573d6000803e3d6000fd5b505050506040513d601f19601f8201168201806040525081019062000179919062000655565b6001600160a01b0316610160816001600160a01b031660601b81525050856001600160a01b0316637f07b1306040518163ffffffff1660e01b815260040160206040518083038186803b158015620001d057600080fd5b505afa158015620001e5573d6000803e3d6000fd5b505050506040513d601f19601f820116820180604052508101906200020b919062000655565b6001600160a01b0316610180816001600160a01b031660601b81525050856001600160a01b0316633fc8cef36040518163ffffffff1660e01b815260040160206040518083038186803b1580156200026257600080fd5b505afa15801562000277573d6000803e3d6000fd5b505050506040513d601f19601f820116820180604052508101906200029d919062000655565b6001600160601b0319606091821b81166101a0529086901b166101c052604080516307f07b1360e41b815290516001600160a01b03881691637f07b130916004808301926020929190829003018186803b158015620002fb57600080fd5b505afa15801562000310573d6000803e3d6000fd5b505050506040513d601f19601f8201168201806040525081019062000336919062000655565b6001600160a01b0316866001600160a01b0316633fc8cef36040518163ffffffff1660e01b815260040160206040518083038186803b1580156200037957600080fd5b505afa1580156200038e573d6000803e3d6000fd5b505050506040513d601f19601f82011682018060405250810190620003b4919062000655565b6001600160a01b031610151561012081151560f81b81525050856001600160a01b0316637f07b1306040518163ffffffff1660e01b815260040160206040518083038186803b1580156200040757600080fd5b505afa1580156200041c573d6000803e3d6000fd5b505050506040513d601f19601f8201168201806040525081019062000442919062000655565b6001600160a01b031663095ea7b3866000196040518363ffffffff1660e01b81526004016200047392919062000736565b602060405180830381600087803b1580156200048e57600080fd5b505af1158015620004a3573d6000803e3d6000fd5b505050506040513d601f19601f82011682018060405250810190620004c99190620006f9565b50856001600160a01b0316633fc8cef36040518163ffffffff1660e01b815260040160206040518083038186803b1580156200050457600080fd5b505afa15801562000519573d6000803e3d6000fd5b505050506040513d601f19601f820116820180604052508101906200053f919062000655565b6001600160a01b031663095ea7b3866000196040518363ffffffff1660e01b81526004016200057092919062000736565b602060405180830381600087803b1580156200058b57600080fd5b505af1158015620005a0573d6000803e3d6000fd5b505050506040513d601f19601f82011682018060405250810190620005c69190620006f9565b5060405163a22cb46560e01b81526001600160a01b0386169063a22cb46590620005f89089906001906004016200071b565b600060405180830381600087803b1580156200061357600080fd5b505af115801562000628573d6000803e3d6000fd5b505050505050505050506200074f565b80516001600160a01b03811681146200065057600080fd5b919050565b60006020828403121562000667578081fd5b620006728262000638565b9392505050565b60008060008060008060c0878903121562000692578182fd5b6200069d8762000638565b9550620006ad6020880162000638565b9450620006bd6040880162000638565b9350620006cd6060880162000638565b9250620006dd6080880162000638565b9150620006ed60a0880162000638565b90509295509295509295565b6000602082840312156200070b578081fd5b8151801515811462000672578182fd5b6001600160a01b039290921682521515602082015260400190565b6001600160a01b03929092168252602082015260400190565b60805160601c60a05160601c60c05160601c60e05160601c6101005160601c6101205160f81c6101405160601c6101605160601c6101805160601c6101a05160601c6101c05160601c615fc062000a4e600039806102f452806103dc52806104cd52806108e85280610c625280610e945280610f1e5280611089528061184c52806118e25280611a4e528061218452806126b352806128125280612b275280612cc75280612e1d5280613393528061363852508061078752806108655280610a765280610b0d5280610b875280610ca65280610dff528061111a528061119452806111f6528061125c52806112fe528061136b52806116fc52806117995280611c1252806121c652806123bd528061253052806129085280612ed35280612fdb52806131d0528061329852806133d5528061380752806138df52806139505280613a285280613ac95280613bfe5280613c6b5280613db3528061400c52806140db5250806107a852806108445280610a985280610ba95280610c845280610e2152806110f952806111b6528061127e528061138c528061164652806116db52806117bb52806121a55280612b4952806130bb52806133b452806139715280613aa85280613ed45280613f44525080610d645280611f3a528061246a5280613e4f5250806104ab5280610c4052806110675280611a2c52806121635280612317528061239c52806125ae528061262d52806127f052806129845280612a035280612b055280612bdc5280612dfb5280612fb952806131ae5280613276528061337252806134a2528061374352806137e552806138bd5280613a065280613bdc5280613d9152806140b952806144775250806103ff528061057b52806105f652806106e6528061093052806109625280610cca5280610fa5528061196b528061226c52806127235280612b705280612d3552806133f752508061144852806115b15280611af7525080611be852508061140452806115015280611b1b5250806117e55280611fdc5250806118095280611b84528061472f5250615fc06000f3fe6080604052600436106101125760003560e01c8063a15db5c5116100a5578063d8fa26f011610074578063db661b7111610059578063db661b711461027a578063fa461e331461028f578063fc0c546a146102af57610119565b8063d8fa26f014610252578063d9d7858a1461026557610119565b8063a15db5c5146101e8578063bc638a7914610208578063c1c0e9c41461021b578063c45a01551461023d57610119565b80633ca8402b116100e15780633ca8402b1461018f5780634fc5864f146101af57806383b17e4d146101c2578063923247ae146101d557610119565b8063150b7a021461011e57806315d23b04146101545780632ef1f08214610169578063334cc3651461017c57610119565b3661011957005b600080fd5b34801561012a57600080fd5b5061013e610139366004614a8e565b6102c4565b60405161014b9190615b01565b60405180910390f35b610167610162366004615185565b6102d4565b005b6101676101773660046154e5565b610af6565b61016761018a3660046150dd565b610bd1565b34801561019b57600080fd5b506101676101aa366004615197565b610e7d565b6101676101bd366004614e82565b6111de565b6101676101d0366004614c1d565b6112d9565b6101676101e3366004614d96565b611335565b3480156101f457600080fd5b50610167610203366004614b30565b6113f9565b610167610216366004614d96565b611615565b34801561022757600080fd5b506102306117e3565b60405161014b919061568c565b34801561024957600080fd5b50610230611807565b610167610260366004614c1d565b61182b565b34801561027157600080fd5b50610230611af5565b34801561028657600080fd5b50610230611b19565b34801561029b57600080fd5b506101676102aa366004614ba2565b611b3d565b3480156102bb57600080fd5b50610230611be6565b630a85bd0160e11b949350505050565b6102dd34611c0a565b604051632142170760e11b81526001600160a01b037f000000000000000000000000000000000000000000000000000000000000000016906342842e0e9061033190339030906020870135906004016156a0565b600060405180830381600087803b15801561034b57600080fd5b505af115801561035f573d6000803e3d6000fd5b50506040805160a08101825260208086013582528583013590820152670de0b6b3a7640000818301526001600160801b0361010086013581166060830152610120860135166080820152905163760a3f2b60e11b81526000935073Eee87825b2f8a965bfc1Aeca2868cee15c3bAbc6925063ec147e5691610427917f000000000000000000000000000000000000000000000000000000000000000091907f000000000000000000000000000000000000000000000000000000000000000090600401615a4b565b604080518083038186803b15801561043e57600080fd5b505af4158015610452573d6000803e3d6000fd5b505050506040513d601f19601f820116820180604052508101906104769190614b7f565b50604051630725e4e160e31b815290915073Eee87825b2f8a965bfc1Aeca2868cee15c3bAbc69063392f2708906105089033907f0000000000000000000000000000000000000000000000000000000000000000907f00000000000000000000000000000000000000000000000000000000000000009060009060208a013590670de0b6b3a7640000906004016156c4565b60006040518083038186803b15801561052057600080fd5b505af4158015610534573d6000803e3d6000fd5b505050506105766040518060400160405280601381526020017f616674657220636865636b436c6f7365644c7000000000000000000000000000815250611c6e565b6000807f00000000000000000000000000000000000000000000000000000000000000001561068f5773Eee87825b2f8a965bfc1Aeca2868cee15c3bAbc663b573fa8b6105c66020870187614a56565b608087013560608801356105e26101608a016101408b01614b63565b6105f46101808b016101608c01614b63565b7f00000000000000000000000000000000000000000000000000000000000000006040518763ffffffff1660e01b815260040161063696959493929190615ac6565b604080518083038186803b15801561064d57600080fd5b505af4158015610661573d6000803e3d6000fd5b505050506040513d601f19601f820116820180604052508101906106859190614b7f565b909250905061077a565b73Eee87825b2f8a965bfc1Aeca2868cee15c3bAbc663b573fa8b6106b66020870187614a56565b608087013560608801356106d26101608a016101408b01614b63565b6106e46101808b016101608c01614b63565b7f00000000000000000000000000000000000000000000000000000000000000006040518763ffffffff1660e01b815260040161072696959493929190615ac6565b604080518083038186803b15801561073d57600080fd5b505af4158015610751573d6000803e3d6000fd5b505050506040513d601f19601f820116820180604052508101906107759190614b7f565b925090505b82811115610829576108247f00000000000000000000000000000000000000000000000000000000000000007f00000000000000000000000000000000000000000000000000000000000000006107d96101a0880161018089016153ba565b6107e38588611d29565b61080d670de0b6b3a76400006108076107fc898c611d29565b60e08d013590611d8b565b90611deb565b600460405180602001604052806000815250611e52565b6108cc565b828110156108cc57600061083d8483611d29565b90506108c97f00000000000000000000000000000000000000000000000000000000000000007f00000000000000000000000000000000000000000000000000000000000000006108966101a089016101808a016153ba565b846108b1670de0b6b3a764000061080760e08d013584611d8b565b60035b60405180602001604052806000815250611eb6565b50505b73Eee87825b2f8a965bfc1Aeca2868cee15c3bAbc663aee2533b7f00000000000000000000000000000000000000000000000000000000000000006109146020880188614a56565b6040518060e00160405280336001600160a01b031681526020017f0000000000000000000000000000000000000000000000000000000000000000610959578661095b565b875b81526020017f000000000000000000000000000000000000000000000000000000000000000061098b578761098d565b865b815260a08a0135602082015260c08a013560408201526060016109b86101608b016101408c01614b63565b60020b81526020016109d26101808b016101608c01614b63565b60020b8152506040518463ffffffff1660e01b81526004016109f69392919061594b565b60206040518083038186803b158015610a0e57600080fd5b505af4158015610a22573d6000803e3d6000fd5b505050506040513d601f19601f82011682018060405250810190610a4691906153d6565b506040516328bb252f60e11b815273Eee87825b2f8a965bfc1Aeca2868cee15c3bAbc6906351764a5e90610ac0907f0000000000000000000000000000000000000000000000000000000000000000907f0000000000000000000000000000000000000000000000000000000000000000906004016156fd565b60006040518083038186803b158015610ad857600080fd5b505af4158015610aec573d6000803e3d6000fd5b5050505050505050565b610aff84611f29565b610b0834611c0a565b610b587f0000000000000000000000000000000000000000000000000000000000000000846008878686604051602001610b4493929190615da5565b604051602081830303815290604052611fda565b6040516328bb252f60e11b815273Eee87825b2f8a965bfc1Aeca2868cee15c3bAbc6906351764a5e90610ac0907f0000000000000000000000000000000000000000000000000000000000000000907f0000000000000000000000000000000000000000000000000000000000000000906004016156fd565b604081013515610be857610be88160400135611f29565b610bfa608082013560a08301356120b0565b3414610c0557600080fd5b610c0e34611c0a565b6040516308e6940f60e41b815260009073Eee87825b2f8a965bfc1Aeca2868cee15c3bAbc690638e6940f090610cf2907f0000000000000000000000000000000000000000000000000000000000000000907f0000000000000000000000000000000000000000000000000000000000000000907f0000000000000000000000000000000000000000000000000000000000000000907f00000000000000000000000000000000000000000000000000000000000000009089907f000000000000000000000000000000000000000000000000000000000000000090600401615717565b604080518083038186803b158015610d0957600080fd5b505af4158015610d1d573d6000803e3d6000fd5b505050506040513d601f19601f82011682018060405250810190610d419190614b7f565b5090506040820135610dd057604051632142170760e11b81526001600160a01b037f000000000000000000000000000000000000000000000000000000000000000016906342842e0e90610d9d903090339086906004016156a0565b600060405180830381600087803b158015610db757600080fd5b505af1158015610dcb573d6000803e3d6000fd5b505050505b6040516328bb252f60e11b815273Eee87825b2f8a965bfc1Aeca2868cee15c3bAbc6906351764a5e90610e49907f0000000000000000000000000000000000000000000000000000000000000000907f0000000000000000000000000000000000000000000000000000000000000000906004016156fd565b60006040518083038186803b158015610e6157600080fd5b505af4158015610e75573d6000803e3d6000fd5b505050505050565b604051632142170760e11b81526001600160a01b037f000000000000000000000000000000000000000000000000000000000000000016906342842e0e90610ece90339030908635906004016156a0565b600060405180830381600087803b158015610ee857600080fd5b505af1158015610efc573d6000803e3d6000fd5b50505050600073Eee87825b2f8a965bfc1Aeca2868cee15c3bAbc663ec147e567f00000000000000000000000000000000000000000000000000000000000000006040518060a00160405280866000013581526020018660200135815260200186604001358152602001866060016020810190610f79919061539e565b6001600160801b03168152602001610f9760a088016080890161539e565b6001600160801b03168152507f00000000000000000000000000000000000000000000000000000000000000006040518463ffffffff1660e01b8152600401610fe293929190615a4b565b604080518083038186803b158015610ff957600080fd5b505af415801561100d573d6000803e3d6000fd5b505050506040513d601f19601f820116820180604052508101906110319190614b7f565b5060408051630725e4e160e31b815291925073Eee87825b2f8a965bfc1Aeca2868cee15c3bAbc69163392f2708916110bb9133917f0000000000000000000000000000000000000000000000000000000000000000917f0000000000000000000000000000000000000000000000000000000000000000916000918a35918b0135906004016156c4565b60006040518083038186803b1580156110d357600080fd5b505af41580156110e7573d6000803e3d6000fd5b505050506000811115610dd0576111647f00000000000000000000000000000000000000000000000000000000000000007f000000000000000000000000000000000000000000000000000000000000000061114960e0860160c087016153ba565b846108b1670de0b6b3a764000061080760a08a013584611d8b565b506040516328bb252f60e11b815273Eee87825b2f8a965bfc1Aeca2868cee15c3bAbc6906351764a5e90610e49907f0000000000000000000000000000000000000000000000000000000000000000907f0000000000000000000000000000000000000000000000000000000000000000906004016156fd565b6111e88135611f29565b6111f134611c0a565b61122d7f000000000000000000000000000000000000000000000000000000000000000060a0830135600784604051602001610b449190615be0565b6040516328bb252f60e11b815273Eee87825b2f8a965bfc1Aeca2868cee15c3bAbc6906351764a5e906112a6907f0000000000000000000000000000000000000000000000000000000000000000907f0000000000000000000000000000000000000000000000000000000000000000906004016156fd565b60006040518083038186803b1580156112be57600080fd5b505af41580156112d2573d6000803e3d6000fd5b5050505050565b6020810135156112f0576112f08160200135611f29565b6112f934611c0a565b61122d7f00000000000000000000000000000000000000000000000000000000000000006080830135600684604051602001610b449190615ca9565b61133f8135611f29565b61134d6060820135346120b0565b8160800135111561135d57600080fd5b61136634611c0a565b61122d7f00000000000000000000000000000000000000000000000000000000000000007f00000000000000000000000000000000000000000000000000000000000000006113bb60c0850160a086016153ba565b6113cd602086013560408701356120b0565b60808601356001876040516020016113e59190615b7f565b604051602081830303815290604052611e52565b336001600160a01b037f0000000000000000000000000000000000000000000000000000000000000000161461142e57600080fd5b6000818060200190518101906114449190614dcc565b90507f00000000000000000000000000000000000000000000000000000000000000006001600160a01b0316630ecbcdab600083604001516040518363ffffffff1660e01b8152600401611499929190615b2e565b600060405180830381600087803b1580156114b357600080fd5b505af11580156114c7573d6000803e3d6000fd5b505050506114ec8160000151826020015183604001518460600151856080015161210a565b80602001516001600160a01b031663095ea7b37f000000000000000000000000000000000000000000000000000000000000000083604001516040518363ffffffff1660e01b8152600401611542929190615aad565b602060405180830381600087803b15801561155c57600080fd5b505af1158015611570573d6000803e3d6000fd5b505050506040513d601f19601f820116820180604052508101906115949190614b14565b50604080820151905163d8aed14560e01b81526001600160a01b037f0000000000000000000000000000000000000000000000000000000000000000169163d8aed145916115e791600091600401615b2e565b600060405180830381600087803b15801561160157600080fd5b505af1158015610e75573d6000803e3d6000fd5b803515611626576116268135611f29565b61162f34611c0a565b6040516323b872dd60e01b81526001600160a01b037f000000000000000000000000000000000000000000000000000000000000000016906323b872dd9061168390339030906060870135906004016156a0565b602060405180830381600087803b15801561169d57600080fd5b505af11580156116b1573d6000803e3d6000fd5b505050506040513d601f19601f820116820180604052508101906116d59190614b14565b506117697f00000000000000000000000000000000000000000000000000000000000000007f000000000000000000000000000000000000000000000000000000000000000061172b60c0850160a086016153ba565b61173d602086013560608701356120b0565b60808601356002876040516020016117559190615b7f565b604051602081830303815290604052611eb6565b506040516328bb252f60e11b815273Eee87825b2f8a965bfc1Aeca2868cee15c3bAbc6906351764a5e906112a6907f0000000000000000000000000000000000000000000000000000000000000000907f0000000000000000000000000000000000000000000000000000000000000000906004016156fd565b7f000000000000000000000000000000000000000000000000000000000000000081565b7f000000000000000000000000000000000000000000000000000000000000000081565b6118358135611f29565b604051632142170760e11b81526001600160a01b037f000000000000000000000000000000000000000000000000000000000000000016906342842e0e9061188990339030906020870135906004016156a0565b600060405180830381600087803b1580156118a357600080fd5b505af11580156118b7573d6000803e3d6000fd5b505050506118c434611c0a565b600073Eee87825b2f8a965bfc1Aeca2868cee15c3bAbc663ec147e567f00000000000000000000000000000000000000000000000000000000000000006040518060a001604052808660200135815260200186604001358152602001866060013581526020018660e001602081019061193d919061539e565b6001600160801b0316815260200161195d6101208801610100890161539e565b6001600160801b03168152507f00000000000000000000000000000000000000000000000000000000000000006040518463ffffffff1660e01b81526004016119a893929190615a4b565b604080518083038186803b1580156119bf57600080fd5b505af41580156119d3573d6000803e3d6000fd5b505050506040513d601f19601f820116820180604052508101906119f79190614b7f565b50604051630725e4e160e31b815290915073Eee87825b2f8a965bfc1Aeca2868cee15c3bAbc69063392f270890611a859033907f0000000000000000000000000000000000000000000000000000000000000000907f00000000000000000000000000000000000000000000000000000000000000009060009060208a01359060608b0135906004016156c4565b60006040518083038186803b158015611a9d57600080fd5b505af4158015611ab1573d6000803e3d6000fd5b50610dd09250508335905082608085013560a086013560c0870135611ade61014089016101208a016153ba565b611af06101608a016101408b01614af8565b61386f565b7f000000000000000000000000000000000000000000000000000000000000000081565b7f000000000000000000000000000000000000000000000000000000000000000081565b6000841380611b4c5750600083135b611b5557600080fd5b6000611b63828401846151a8565b90506000806000611b778460000151613b16565b9250925092506000611bab7f0000000000000000000000000000000000000000000000000000000000000000858585613b47565b90506000808a13611bbc5788611bbe565b895b9050611bda86602001518684848a606001518b60400151613b66565b50505050505050505050565b7f000000000000000000000000000000000000000000000000000000000000000081565b8015611c6b577f00000000000000000000000000000000000000000000000000000000000000006001600160a01b031663d0e30db0826040518263ffffffff1660e01b81526004016000604051808303818588803b15801561160157600080fd5b50565b611c6b816040516024018080602001828103825283818151815260200191508051906020019080838360005b83811015611cb2578181015183820152602001611c9a565b50505050905090810190601f168015611cdf5780820380516001836020036101000a031916815260200191505b5060408051601f198184030181529190526020810180517bffffffffffffffffffffffffffffffffffffffffffffffffffffffff1663104c13eb60e21b17905292506141a5915050565b600082821115611d80576040805162461bcd60e51b815260206004820152601e60248201527f536166654d6174683a207375627472616374696f6e206f766572666c6f770000604482015290519081900360640190fd5b508082035b92915050565b600082611d9a57506000611d85565b82820282848281611da757fe5b0414611de45760405162461bcd60e51b8152600401808060200182810382526021815260200180615f6a6021913960400191505060405180910390fd5b9392505050565b6000808211611e41576040805162461bcd60e51b815260206004820152601a60248201527f536166654d6174683a206469766973696f6e206279207a65726f000000000000604482015290519081900360640190fd5b818381611e4a57fe5b049392505050565b6000611ea78530600060405180608001604052808c8c8f604051602001611e7b93929190615623565b60408051601f1981840301815291815290825233602083015260ff8a16908201526060018790526141c6565b905083811115610aec57600080fd5b600080611f0c8630600060405180608001604052808e8d8f604051602001611ee093929190615623565b60408051601f1981840301815291815290825233602083015260ff8b1690820152606001889052614333565b905084811015611f1b57600080fd5b90505b979650505050505050565b6040516331a9108f60e11b815233907f00000000000000000000000000000000000000000000000000000000000000006001600160a01b031690636352211e90611f77908590600401615d9c565b60206040518083038186803b158015611f8f57600080fd5b505afa158015611fa3573d6000803e3d6000fd5b505050506040513d601f19601f82011682018060405250810190611fc79190614a72565b6001600160a01b031614611c6b57600080fd5b7f00000000000000000000000000000000000000000000000000000000000000006001600160a01b03166389b7b7a6306040518060a00160405280336001600160a01b03168152602001886001600160a01b031681526020018781526020018660ff168152602001858152506040516020016120569190615b8d565b6040516020818303038152906040526040518363ffffffff1660e01b8152600401612082929190615a29565b600060405180830381600087803b15801561209c57600080fd5b505af1158015610aec573d6000803e3d6000fd5b600082820183811015611de4576040805162461bcd60e51b815260206004820152601b60248201527f536166654d6174683a206164646974696f6e206f766572666c6f770000000000604482015290519081900360640190fd5b60068260ff16600981111561211b57fe5b600981111561212657fe5b14156124de576000818060200190518101906121429190614f4b565b905060008073Eee87825b2f8a965bfc1Aeca2868cee15c3bAbc6638e6940f07f00000000000000000000000000000000000000000000000000000000000000007f00000000000000000000000000000000000000000000000000000000000000007f00000000000000000000000000000000000000000000000000000000000000007f0000000000000000000000000000000000000000000000000000000000000000604051806101400160405280306001600160a01b031681526020018a600001516001600160a01b031681526020018a6020015181526020018a6040015181526020018a6060015181526020018a60a0015181526020018a60e0015181526020018a610100015181526020018a610120015160020b81526020018a610140015160020b8152507f00000000000000000000000000000000000000000000000000000000000000006040518763ffffffff1660e01b81526004016122ac969594939291906157f7565b604080518083038186803b1580156122c357600080fd5b505af41580156122d7573d6000803e3d6000fd5b505050506040513d601f19601f820116820180604052508101906122fb9190614b7f565b6040516348dc69a560e11b815291935091506001600160a01b037f000000000000000000000000000000000000000000000000000000000000000016906391b8d34a9061234e9085908590600401615b2e565b600060405180830381600087803b15801561236857600080fd5b505af115801561237c573d6000803e3d6000fd5b5050505073Eee87825b2f8a965bfc1Aeca2868cee15c3bAbc66363410a867f00000000000000000000000000000000000000000000000000000000000000007f00000000000000000000000000000000000000000000000000000000000000008560006123f68960c001518d6120b090919063ffffffff16565b6040518663ffffffff1660e01b81526004016124169594939291906159be565b60006040518083038186803b15801561242e57600080fd5b505af4158015612442573d6000803e3d6000fd5b505050508260200151600014156124d657604051632142170760e11b81526001600160a01b037f000000000000000000000000000000000000000000000000000000000000000016906342842e0e906124a39030908c9087906004016156a0565b600060405180830381600087803b1580156124bd57600080fd5b505af11580156124d1573d6000803e3d6000fd5b505050505b5050506112d2565b60078260ff1660098111156124ef57fe5b60098111156124fa57fe5b14156128b3576000818060200190518101906125169190614e94565b604051632e1a7d4d60e01b81529091506001600160a01b037f00000000000000000000000000000000000000000000000000000000000000001690632e1a7d4d90612565908790600401615d9c565b600060405180830381600087803b15801561257f57600080fd5b505af1158015612593573d6000803e3d6000fd5b5050825160405163b6b55f2560e01b81526001600160a01b037f000000000000000000000000000000000000000000000000000000000000000016935063b6b55f25925087916125e591600401615d9c565b6000604051808303818588803b1580156125fe57600080fd5b505af1158015612612573d6000803e3d6000fd5b5050835160405163713d517f60e01b81526001600160a01b037f000000000000000000000000000000000000000000000000000000000000000016945063713d517f93506126639250600401615d9c565b600060405180830381600087803b15801561267d57600080fd5b505af1158015612691573d6000803e3d6000fd5b50505050600073Eee87825b2f8a965bfc1Aeca2868cee15c3bAbc663ec147e567f00000000000000000000000000000000000000000000000000000000000000006040518060a001604052808660200151815260200186604001518152602001866060015181526020018661010001516001600160801b031681526020018661012001516001600160801b03168152507f00000000000000000000000000000000000000000000000000000000000000006040518463ffffffff1660e01b815260040161276093929190615a4b565b604080518083038186803b15801561277757600080fd5b505af415801561278b573d6000803e3d6000fd5b505050506040513d601f19601f820116820180604052508101906127af9190614b7f565b50825160208401516060850151604051630725e4e160e31b815293945073Eee87825b2f8a965bfc1Aeca2868cee15c3bAbc69363392f27089361283d938d937f0000000000000000000000000000000000000000000000000000000000000000937f0000000000000000000000000000000000000000000000000000000000000000939291906004016156c4565b60006040518083038186803b15801561285557600080fd5b505af4158015612869573d6000803e3d6000fd5b505050506128ac82600001518284608001516128968660a001518760c001516120b090919063ffffffff16565b8660e0015187610140015188610160015161386f565b50506112d2565b60088260ff1660098111156128c457fe5b60098111156128cf57fe5b14156112d257600080828060200190518101906128ec91906153ee565b604051632e1a7d4d60e01b815291935091506001600160a01b037f00000000000000000000000000000000000000000000000000000000000000001690632e1a7d4d9061293d908890600401615d9c565b600060405180830381600087803b15801561295757600080fd5b505af115801561296b573d6000803e3d6000fd5b505060405163b6b55f2560e01b81526001600160a01b037f000000000000000000000000000000000000000000000000000000000000000016925063b6b55f25915087906129bd908690600401615d9c565b6000604051808303818588803b1580156129d657600080fd5b505af11580156129ea573d6000803e3d6000fd5b505060405163713d517f60e01b81526001600160a01b037f000000000000000000000000000000000000000000000000000000000000000016935063713d517f9250612a3b91508590600401615d9c565b600060405180830381600087803b158015612a5557600080fd5b505af1158015612a69573d6000803e3d6000fd5b5050505060005b81518110156137b5576000828281518110612a8757fe5b6020026020010151600001516007811115612a9e57fe5b1415612c51576000828281518110612ab257fe5b602002602001015160200151806020019051810190612ad1919061505b565b8051604051637a04dbd760e01b815291925073Eee87825b2f8a965bfc1Aeca2868cee15c3bAbc691637a04dbd791612b98917f0000000000000000000000000000000000000000000000000000000000000000917f0000000000000000000000000000000000000000000000000000000000000000917f000000000000000000000000000000000000000000000000000000000000000091908b9089907f0000000000000000000000000000000000000000000000000000000000000000906004016158b3565b60006040518083038186803b158015612bb057600080fd5b505af4158015612bc4573d6000803e3d6000fd5b5050505060208101516040516348dc69a560e11b81527f00000000000000000000000000000000000000000000000000000000000000006001600160a01b0316916391b8d34a91612c19918891600401615b2e565b600060405180830381600087803b158015612c3357600080fd5b505af1158015612c47573d6000803e3d6000fd5b50505050506137ad565b6001828281518110612c5f57fe5b6020026020010151600001516007811115612c7657fe5b1415612e75576000828281518110612c8a57fe5b602002602001015160200151806020019051810190612ca99190614c9b565b905073Eee87825b2f8a965bfc1Aeca2868cee15c3bAbc663ec147e567f00000000000000000000000000000000000000000000000000000000000000006040518060a0016040528085600001518152602001856020015181526020018560400151815260200185606001516001600160801b0316815260200185608001516001600160801b03168152507f00000000000000000000000000000000000000000000000000000000000000006040518463ffffffff1660e01b8152600401612d7293929190615a4b565b604080518083038186803b158015612d8957600080fd5b505af4158015612d9d573d6000803e3d6000fd5b505050506040513d601f19601f82011682018060405250810190612dc19190614b7f565b505080516040808301519051630725e4e160e31b815273Eee87825b2f8a965bfc1Aeca2868cee15c3bAbc69263392f270892612e49928e927f0000000000000000000000000000000000000000000000000000000000000000927f0000000000000000000000000000000000000000000000000000000000000000928c9291906004016156c4565b60006040518083038186803b158015612e6157600080fd5b505af4158015612c47573d6000803e3d6000fd5b6002828281518110612e8357fe5b6020026020010151600001516007811115612e9a57fe5b141561305d576000828281518110612eae57fe5b602002602001015160200151806020019051810190612ecd9190614d4e565b905060007f00000000000000000000000000000000000000000000000000000000000000006001600160a01b03166370a08231306040518263ffffffff1660e01b8152600401612f1d919061568c565b60206040518083038186803b158015612f3557600080fd5b505afa158015612f49573d6000803e3d6000fd5b505050506040513d601f19601f82011682018060405250810190612f6d91906153d6565b90508160200151811015612f8357602082018190525b81516020830151604051639f70f9e560e01b815273Eee87825b2f8a965bfc1Aeca2868cee15c3bAbc692639f70f9e592613005927f0000000000000000000000000000000000000000000000000000000000000000927f0000000000000000000000000000000000000000000000000000000000000000928c926004016159be565b60206040518083038186803b15801561301d57600080fd5b505af4158015613031573d6000803e3d6000fd5b505050506040513d601f19601f8201168201806040525081019061305591906153d6565b5050506137ad565b600382828151811061306b57fe5b602002602001015160000151600781111561308257fe5b14156132fa57600082828151811061309657fe5b6020026020010151602001518060200190518101906130b5919061534f565b905060007f00000000000000000000000000000000000000000000000000000000000000006001600160a01b03166370a08231306040518263ffffffff1660e01b8152600401613105919061568c565b60206040518083038186803b15801561311d57600080fd5b505afa158015613131573d6000803e3d6000fd5b505050506040513d601f19601f8201168201806040525081019061315591906153d6565b905081604001511561323357600061316c86614472565b90508181101561317a578091505b60208301516040516331a0854360e11b815273Eee87825b2f8a965bfc1Aeca2868cee15c3bAbc6916363410a86916131fd917f0000000000000000000000000000000000000000000000000000000000000000917f0000000000000000000000000000000000000000000000000000000000000000918c918991906004016159be565b60006040518083038186803b15801561321557600080fd5b505af4158015613229573d6000803e3d6000fd5b50505050506132f3565b8151811015613240578082525b815160208301516040516331a0854360e11b815273Eee87825b2f8a965bfc1Aeca2868cee15c3bAbc6926363410a86926132c2927f0000000000000000000000000000000000000000000000000000000000000000927f0000000000000000000000000000000000000000000000000000000000000000928c926004016159be565b60006040518083038186803b1580156132da57600080fd5b505af41580156132ee573d6000803e3d6000fd5b505050505b50506137ad565b600482828151811061330857fe5b602002602001015160000151600781111561331f57fe5b141561350757600082828151811061333357fe5b60200260200101516020015180602001905181019061335291906150ef565b9050600073Eee87825b2f8a965bfc1Aeca2868cee15c3bAbc6638e6940f07f00000000000000000000000000000000000000000000000000000000000000007f00000000000000000000000000000000000000000000000000000000000000007f00000000000000000000000000000000000000000000000000000000000000007f0000000000000000000000000000000000000000000000000000000000000000877f00000000000000000000000000000000000000000000000000000000000000006040518763ffffffff1660e01b8152600401613437969594939291906157f7565b604080518083038186803b15801561344e57600080fd5b505af4158015613462573d6000803e3d6000fd5b505050506040513d601f19601f820116820180604052508101906134869190614b7f565b6040516348dc69a560e11b815291965091506001600160a01b037f000000000000000000000000000000000000000000000000000000000000000016906391b8d34a906134d99088908590600401615b2e565b600060405180830381600087803b1580156134f357600080fd5b505af11580156132ee573d6000803e3d6000fd5b600582828151811061351557fe5b602002602001015160000151600781111561352c57fe5b141561359b57600082828151811061354057fe5b60200260200101516020015180602001905181019061355f9190614fe6565b805160208201516080830151604084015160608501519495506132f39461359490670de0b6b3a7640000906108079084611d8b565b60096108b4565b60068282815181106135a957fe5b60200260200101516000015160078111156135c057fe5b14156136cf5760008282815181106135d457fe5b6020026020010151602001518060200190518101906135f39190614c39565b604080516080810182528251815230602080830191909152830180516001600160801b03908116838501529051166060820152905163fc6f786560e01b8152919250907f00000000000000000000000000000000000000000000000000000000000000006001600160a01b03169063fc6f786590613675908490600401615b3c565b6040805180830381600087803b15801561368e57600080fd5b505af11580156136a2573d6000803e3d6000fd5b505050506040513d601f19601f820116820180604052508101906136c69190614b7f565b505050506137ad565b60078282815181106136dd57fe5b60200260200101516000015160078111156136f457fe5b14156137ad57600082828151811061370857fe5b6020026020010151602001518060200190518101906137279190614d13565b80516040516348dc69a560e11b81529192506001600160a01b037f000000000000000000000000000000000000000000000000000000000000000016916391b8d34a9161377991889190600401615b2e565b600060405180830381600087803b15801561379357600080fd5b505af11580156137a7573d6000803e3d6000fd5b50505050505b600101612a70565b506040516331a0854360e11b815273Eee87825b2f8a965bfc1Aeca2868cee15c3bAbc6906363410a8690613836907f0000000000000000000000000000000000000000000000000000000000000000907f00000000000000000000000000000000000000000000000000000000000000009087906000908c906004016159be565b60006040518083038186803b15801561384e57600080fd5b505af4158015613862573d6000803e3d6000fd5b5050505050505050505050565b801561394357600061388088614472565b90508681101561388e578096505b6040516331a0854360e11b815273Eee87825b2f8a965bfc1Aeca2868cee15c3bAbc6906363410a869061390d907f0000000000000000000000000000000000000000000000000000000000000000907f0000000000000000000000000000000000000000000000000000000000000000908d908d908c906004016159be565b60006040518083038186803b15801561392557600080fd5b505af4158015613939573d6000803e3d6000fd5b5050505050613b04565b848610156139d7576139d27f00000000000000000000000000000000000000000000000000000000000000007f00000000000000000000000000000000000000000000000000000000000000008461399b898b611d29565b6139bb670de0b6b3a76400006108076139b48d8f611d29565b8b90611d8b565b60058d8c8c6040516020016113e593929190615676565b613b04565b6040516331a0854360e11b815273Eee87825b2f8a965bfc1Aeca2868cee15c3bAbc6906363410a8690613a56907f0000000000000000000000000000000000000000000000000000000000000000907f0000000000000000000000000000000000000000000000000000000000000000908c908b908b906004016159be565b60006040518083038186803b158015613a6e57600080fd5b505af4158015613a82573d6000803e3d6000fd5b505050506000613a9b8688611d2990919063ffffffff16565b90508015613b0257613b007f00000000000000000000000000000000000000000000000000000000000000007f000000000000000000000000000000000000000000000000000000000000000085846108b1670de0b6b3a76400006108078b84611d8b565b505b505b613b0d47611c0a565b50505050505050565b60008080613b248482614527565b9250613b318460146145f3565b9050613b3e846017614527565b91509193909250565b6000613b5d85613b588686866146af565b614705565b95945050505050565b60018160ff166009811115613b7757fe5b6009811115613b8257fe5b1415613cfd57600082806020019051810190613b9e9190614db1565b8051602082015160608301516040516331a0854360e11b815293945073Eee87825b2f8a965bfc1Aeca2868cee15c3bAbc6936363410a8693613c26937f0000000000000000000000000000000000000000000000000000000000000000937f0000000000000000000000000000000000000000000000000000000000000000936004016159be565b60006040518083038186803b158015613c3e57600080fd5b505af4158015613c52573d6000803e3d6000fd5b505060405163a9059cbb60e01b81526001600160a01b037f000000000000000000000000000000000000000000000000000000000000000016925063a9059cbb9150613ca49088908890600401615aad565b602060405180830381600087803b158015613cbe57600080fd5b505af1158015613cd2573d6000803e3d6000fd5b505050506040513d601f19601f82011682018060405250810190613cf69190614b14565b5050610e75565b60028160ff166009811115613d0e57fe5b6009811115613d1957fe5b1415613f0b57600082806020019051810190613d359190614db1565b9050600081602001511180613d4e575060008160400151115b15613ebd57805160208201516040808401519051639f70f9e560e01b815260009373Eee87825b2f8a965bfc1Aeca2868cee15c3bAbc693639f70f9e593613ddf937f0000000000000000000000000000000000000000000000000000000000000000937f000000000000000000000000000000000000000000000000000000000000000093909290916004016159be565b60206040518083038186803b158015613df757600080fd5b505af4158015613e0b573d6000803e3d6000fd5b505050506040513d601f19601f82011682018060405250810190613e2f91906153d6565b8251909150613ebb57604051632142170760e11b81526001600160a01b037f000000000000000000000000000000000000000000000000000000000000000016906342842e0e90613e889030908c9086906004016156a0565b600060405180830381600087803b158015613ea257600080fd5b505af1158015613eb6573d6000803e3d6000fd5b505050505b505b60405163a9059cbb60e01b81526001600160a01b037f0000000000000000000000000000000000000000000000000000000000000000169063a9059cbb90613ca49088908890600401615aad565b60038160ff166009811115613f1c57fe5b6009811115613f2757fe5b1415613fd35760405163a9059cbb60e01b81526001600160a01b037f0000000000000000000000000000000000000000000000000000000000000000169063a9059cbb90613f7b9087908790600401615aad565b602060405180830381600087803b158015613f9557600080fd5b505af1158015613fa9573d6000803e3d6000fd5b505050506040513d601f19601f82011682018060405250810190613fcd9190614b14565b50610e75565b60048160ff166009811115613fe457fe5b6009811115613fef57fe5b14156140435760405163a9059cbb60e01b81526001600160a01b037f0000000000000000000000000000000000000000000000000000000000000000169063a9059cbb90613f7b9087908790600401615aad565b60058160ff16600981111561405457fe5b600981111561405f57fe5b14156141035760008280602001905181019061407b9190615266565b8051602082015160408084015190516331a0854360e11b815293945073Eee87825b2f8a965bfc1Aeca2868cee15c3bAbc6936363410a8693613c26937f0000000000000000000000000000000000000000000000000000000000000000937f0000000000000000000000000000000000000000000000000000000000000000936004016159be565b60098160ff16600981111561411457fe5b600981111561411f57fe5b1415610e755760405163a9059cbb60e01b81526001600160a01b0386169063a9059cbb906141539087908790600401615aad565b602060405180830381600087803b15801561416d57600080fd5b505af1158015614181573d6000803e3d6000fd5b505050506040513d601f19601f82011682018060405250810190613b0d9190614b14565b80516a636f6e736f6c652e6c6f67602083016000808483855afa5050505050565b6000806000806141d98560000151613b16565b919450925090506001600160a01b03808416908316106000806141fd858786614728565b6001600160a01b031663128acb088b856142168f614766565b6000036001600160a01b038e161561422e578d614254565b8761424d5773fffd8963efd1fc6a506488495d951d5263988d25614254565b6401000276a45b8d6040516020016142659190615d43565b6040516020818303038152906040526040518663ffffffff1660e01b81526004016142949594939291906159ef565b6040805180830381600087803b1580156142ad57600080fd5b505af11580156142c1573d6000803e3d6000fd5b505050506040513d601f19601f820116820180604052508101906142e59190614b7f565b91509150600080846142fb578284600003614301565b83836000035b915091508a6001600160a01b031660001415614323578c811461432357600080fd5b509b9a5050505050505050505050565b6000806000806143468560000151613b16565b919450925090506001600160a01b038083169084161060008061436a868686614728565b6001600160a01b031663128acb088b856143838f614766565b6001600160a01b038e1615614398578d6143be565b876143b75773fffd8963efd1fc6a506488495d951d5263988d256143be565b6401000276a45b8d6040516020016143cf9190615d43565b6040516020818303038152906040526040518663ffffffff1660e01b81526004016143fe9594939291906159ef565b6040805180830381600087803b15801561441757600080fd5b505af115801561442b573d6000803e3d6000fd5b505050506040513d601f19601f8201168201806040525081019061444f9190614b7f565b915091508261445e5781614460565b805b6000039b9a5050505050505050505050565b6000807f00000000000000000000000000000000000000000000000000000000000000006001600160a01b0316638c64ea4a846040518263ffffffff1660e01b81526004016144c19190615d9c565b60806040518083038186803b1580156144d957600080fd5b505afa1580156144ed573d6000803e3d6000fd5b505050506040513d601f19601f8201168201806040525081019061451191906152bb565b606001516001600160801b03169150505b919050565b600081826014011015614581576040805162461bcd60e51b815260206004820152601260248201527f746f416464726573735f6f766572666c6f770000000000000000000000000000604482015290519081900360640190fd5b81601401835110156145da576040805162461bcd60e51b815260206004820152601560248201527f746f416464726573735f6f75744f66426f756e64730000000000000000000000604482015290519081900360640190fd5b5001602001516c01000000000000000000000000900490565b60008182600301101561464d576040805162461bcd60e51b815260206004820152601160248201527f746f55696e7432345f6f766572666c6f77000000000000000000000000000000604482015290519081900360640190fd5b81600301835110156146a6576040805162461bcd60e51b815260206004820152601460248201527f746f55696e7432345f6f75744f66426f756e6473000000000000000000000000604482015290519081900360640190fd5b50016003015190565b6146b7614878565b826001600160a01b0316846001600160a01b031611156146d5579192915b50604080516060810182526001600160a01b03948516815292909316602083015262ffffff169181019190915290565b6000614711838361477c565b9050336001600160a01b03821614611d8557600080fd5b600061475e7f00000000000000000000000000000000000000000000000000000000000000006147598686866146af565b61477c565b949350505050565b6000600160ff1b821061477857600080fd5b5090565b600081602001516001600160a01b031682600001516001600160a01b0316106147a457600080fd5b50805160208083015160409384015184516001600160a01b0394851681850152939091168385015262ffffff166060808401919091528351808403820181526080840185528051908301207fff0000000000000000000000000000000000000000000000000000000000000060a085015294901b6bffffffffffffffffffffffff191660a183015260b58201939093527fe34f199b19b2b4f47f68442619d555527d244f78a3297ea89325f843f87b8b5460d5808301919091528251808303909101815260f5909101909152805191012090565b604080516060810182526000808252602082018190529181019190915290565b803561452281615ef5565b805161452281615ef5565b803561452281615f0a565b805161452281615f0a565b600082601f8301126148d4578081fd5b81356148e76148e282615ea3565b615e7f565b8181528460208386010111156148fb578283fd5b816020850160208301379081016020019190915292915050565b600082601f830112614925578081fd5b81516149336148e282615ea3565b818152846020838601011115614947578283fd5b61475e826020830160208701615ec5565b803561452281615f25565b805161452281615f25565b60006101608284031215614980578081fd5b50919050565b600060c08284031215614980578081fd5b600060c082840312156149a8578081fd5b60405160c0810181811067ffffffffffffffff821117156149c557fe5b8060405250809150825181526020830151602082015260408301516040820152606083015160608201526080830151608082015260a0830151614a0781615f49565b60a0919091015292915050565b803561452281615f34565b805161452281615f34565b803561452281615f49565b805161452281615f49565b803561452281615f5a565b805161452281615f5a565b600060208284031215614a67578081fd5b8135611de481615ef5565b600060208284031215614a83578081fd5b8151611de481615ef5565b60008060008060808587031215614aa3578283fd5b8435614aae81615ef5565b93506020850135614abe81615ef5565b925060408501359150606085013567ffffffffffffffff811115614ae0578182fd5b614aec878288016148c4565b91505092959194509250565b600060208284031215614b09578081fd5b8135611de481615f0a565b600060208284031215614b25578081fd5b8151611de481615f0a565b600060208284031215614b41578081fd5b813567ffffffffffffffff811115614b57578182fd5b61475e848285016148c4565b600060208284031215614b74578081fd5b8135611de481615f25565b60008060408385031215614b91578182fd5b505080516020909101519092909150565b60008060008060608587031215614bb7578182fd5b8435935060208501359250604085013567ffffffffffffffff80821115614bdc578384fd5b818701915087601f830112614bef578384fd5b813581811115614bfd578485fd5b886020828501011115614c0e578485fd5b95989497505060200194505050565b60006101608284031215614c2f578081fd5b611de4838361496e565b600060608284031215614c4a578081fd5b6040516060810181811067ffffffffffffffff82111715614c6757fe5b604052825181526020830151614c7c81615f34565b60208201526040830151614c8f81615f34565b60408201529392505050565b600060a08284031215614cac578081fd5b60405160a0810181811067ffffffffffffffff82111715614cc957fe5b80604052508251815260208301516020820152604083015160408201526060830151614cf481615f34565b60608201526080830151614d0781615f34565b60808201529392505050565b600060208284031215614d24578081fd5b6040516020810181811067ffffffffffffffff82111715614d4157fe5b6040529151825250919050565b600060408284031215614d5f578081fd5b6040516040810181811067ffffffffffffffff82111715614d7c57fe5b604052825181526020928301519281019290925250919050565b600060c08284031215614da7578081fd5b611de48383614986565b600060c08284031215614dc2578081fd5b611de48383614997565b600060208284031215614ddd578081fd5b815167ffffffffffffffff80821115614df4578283fd5b9083019060a08286031215614e07578283fd5b60405160a081018181108382111715614e1c57fe5b604052614e28836148a3565b8152614e36602084016148a3565b602082015260408301516040820152614e5160608401614a4b565b6060820152608083015182811115614e67578485fd5b614e7387828601614915565b60808301525095945050505050565b60006101808284031215614980578081fd5b6000610180808385031215614ea7578182fd5b614eb081615e7f565b9050825181526020830151602082015260408301516040820152606083015160608201526080830151608082015260a083015160a082015260c083015160c082015260e083015160e0820152610100614f0a818501614a1f565b90820152610120614f1c848201614a1f565b90820152610140614f2e848201614a35565b90820152610160614f408482016148b9565b908201529392505050565b6000610160808385031215614f5e578182fd5b614f6781615e7f565b9050614f72836148a3565b81526020830151602082015260408301516040820152606083015160608201526080830151608082015260a083015160a082015260c083015160c082015260e083015160e0820152610100808401518183015250610120614fd4818501614963565b90820152610140614f40848201614963565b600060a08284031215614ff7578081fd5b60405160a0810181811067ffffffffffffffff8211171561501457fe5b604052825161502281615ef5565b8152602083015161503281615ef5565b8060208301525060408301516040820152606083015160608201526080830151614d0781615f49565b600060e0828403121561506c578081fd5b60405160e0810181811067ffffffffffffffff8211171561508957fe5b604052615095836148a3565b81526020830151602082015260408301516040820152606083015160608201526080830151608082015260a083015160a082015260c083015160c08201528091505092915050565b60006101408284031215614980578081fd5b6000610140808385031215615102578182fd5b61510b81615e7f565b9050615116836148a3565b8152615124602084016148a3565b602082015260408301516040820152606083015160608201526080830151608082015260a083015160a082015260c083015160c082015260e083015160e0820152610100615173818501614963565b90820152610120614f40848201614963565b60006101a08284031215614980578081fd5b600060e08284031215614980578081fd5b6000602082840312156151b9578081fd5b813567ffffffffffffffff808211156151d0578283fd5b90830190608082860312156151e3578283fd5b6040516080810181811083821117156151f857fe5b604052823582811115615209578485fd5b615215878286016148c4565b82525061522460208401614898565b602082015261523560408401614a40565b604082015260608301358281111561524b578485fd5b615257878286016148c4565b60608301525095945050505050565b600060608284031215615277578081fd5b6040516060810181811067ffffffffffffffff8211171561529457fe5b80604052508251815260208301516020820152604083015160408201528091505092915050565b6000608082840312156152cc578081fd5b6040516080810181811067ffffffffffffffff821117156152e957fe5b60405282516152f781615ef5565b8152602083015163ffffffff8116811461530f578283fd5b602082015260408301516bffffffffffffffffffffffff81168114615332578283fd5b604082015261534360608401614a1f565b60608201529392505050565b600060608284031215615360578081fd5b6040516060810181811067ffffffffffffffff8211171561537d57fe5b806040525082518152602083015160208201526040830151614c8f81615f0a565b6000602082840312156153af578081fd5b8135611de481615f34565b6000602082840312156153cb578081fd5b8135611de481615f49565b6000602082840312156153e7578081fd5b5051919050565b60008060408385031215615400578182fd5b8251915060208084015167ffffffffffffffff8082111561541f578384fd5b818601915086601f830112615432578384fd5b81518181111561543e57fe5b61544b8485830201615e7f565b81815284810190848601875b848110156154d457815187016040818e03601f1901121561547657898afd5b60405160408101818110898211171561548b57fe5b604052818a015161549b81615f18565b81526040820151888111156154ae578b8cfd5b6154bc8f8c83860101614915565b828c0152508552509287019290870190600101615457565b50979a909950975050505050505050565b600080600080606085870312156154fa578182fd5b8435935060208501359250604085013567ffffffffffffffff8082111561551f578384fd5b818701915087601f830112615532578384fd5b813581811115615540578485fd5b8860208083028501011115614c0e578485fd5b6001600160a01b03169052565b15159052565b60008284528282602086013780602084860101526020601f19601f85011685010190509392505050565b600081518084526155a8816020860160208601615ec5565b601f01601f19169290920160200192915050565b60020b9052565b803582526020810135602083015260408101356040830152606081013560608301526080810135608083015260a08101356155fd81615f49565b62ffffff811660a0840152505050565b6001600160801b03169052565b62ffffff169052565b606093841b6bffffffffffffffffffffffff19908116825260e89390931b7fffffff0000000000000000000000000000000000000000000000000000000000166014820152921b166017820152602b0190565b9283526020830191909152604082015260600190565b6001600160a01b0391909116815260200190565b6001600160a01b039384168152919092166020820152604081019190915260600190565b6001600160a01b03968716815294861660208601529290941660408401526060830152608082019290925260a081019190915260c00190565b6001600160a01b0392831681529116602082015260400190565b6001600160a01b03878116825286811660208301528581166040830152841660608201526101e081016157556080830161575086614898565b615553565b61576160208501614898565b61576e60a0840182615553565b50604084013560c0830152606084013560e083015261010060808501358184015261012060a08601358185015260c086013561014085015260e08601356101608501526157bc828701614958565b91506157cc6101808501836155bc565b6157d7818701614958565b9150506157e86101a08401826155bc565b50611f1e6101c0830184615560565b6001600160a01b038781168252868116602083015285811660408301528416606082015282516101e0820190615831906080840190615553565b602084015161584360a0840182615553565b50604084015160c0830152606084015160e08301526080840151610100818185015260a08601519150610120828186015260c087015161014086015260e087015161016086015281870151925061589e6101808601846155bc565b86015191506157e890506101a08401826155bc565b60006101a0820190506001600160a01b03808a1683528089166020840152808816604084015280871660608401528560808401528085511660a084015250602084015160c0830152604084015160e08301526060840151610100830152608084015161012083015260a084015161014083015260c084015161016083015261593f610180830184615560565b98975050505050505050565b6000610120820190506001600160a01b0380861683528085166020840152808451166040840152506020830151606083015260408301516080830152606083015160a0830152608083015160c083015260a083015160020b60e083015260c083015160020b610100830152949350505050565b6001600160a01b03958616815293909416602084015260408301919091526060820152608081019190915260a00190565b60006001600160a01b038088168352861515602084015285604084015280851660608401525060a06080830152611f1e60a0830184615590565b60006001600160a01b03841682526040602083015261475e6040830184615590565b600060e0820190506001600160a01b038516825283516020830152602084015160408301526040840151606083015260608401516001600160801b0380821660808501528060808701511660a0850152505082151560c0830152949350505050565b6001600160a01b03929092168252602082015260400190565b6001600160a01b0396909616865260208601949094526040850192909252600290810b60608501520b6080830152151560a082015260c00190565b7fffffffff0000000000000000000000000000000000000000000000000000000091909116815260200190565b918252602082015260400190565b815181526020808301516001600160a01b0316908201526040808301516001600160801b0390811691830191909152606092830151169181019190915260800190565b60c08101611d8582846155c3565b6000602082526001600160a01b03808451166020840152806020850151166040840152506040830151606083015260ff6060840151166080830152608083015160a08084015261475e60c0840182615590565b600061018082019050823582526020830135602083015260408301356040830152606083013560608301526080830135608083015260a083013560a083015260c083013560c083015260e083013560e0830152610100615c41818501614a14565b615c4d8285018261560d565b5050610120615c5d818501614a14565b615c698285018261560d565b5050610140615c79818501614a2a565b615c858285018261561a565b5050610160615c958185016148ae565b615ca182850182615560565b505092915050565b6101608101615cbb8261575085614898565b6020830135602083015260408301356040830152606083013560608301526080830135608083015260a083013560a083015260c083013560c083015260e083013560e0830152610100808401358184015250610120615d1b818501614958565b615d27828501826155bc565b5050610140615d37818501614958565b615ca1828501826155bc565b600060208252825160806020840152615d5f60a0840182615590565b90506001600160a01b03602085015116604084015260ff60408501511660608401526060840151601f19848303016080850152613b5d8282615590565b90815260200190565b6000604080830186845260208281860152818683526060860190506060828802870101925087855b88811015615e7057878503605f190183528135368b9003603e19018112615df2578788fd5b8a018035615dff81615f18565b60088110615e0957fe5b86528085013536829003601e19018112615e21578889fd5b8101803567ffffffffffffffff811115615e3957898afd5b803603831315615e4757898afd5b8887890152615e5b89890182898501615566565b97505050928401925090830190600101615dcd565b50929998505050505050505050565b60405181810167ffffffffffffffff81118282101715615e9b57fe5b604052919050565b600067ffffffffffffffff821115615eb757fe5b50601f01601f191660200190565b60005b83811015615ee0578181015183820152602001615ec8565b83811115615eef576000848401525b50505050565b6001600160a01b0381168114611c6b57600080fd5b8015158114611c6b57600080fd5b60088110611c6b57600080fd5b8060020b8114611c6b57600080fd5b6001600160801b0381168114611c6b57600080fd5b62ffffff81168114611c6b57600080fd5b60ff81168114611c6b57600080fdfe536166654d6174683a206d756c7469706c69636174696f6e206f766572666c6f77a26469706673582212203c1294beaf7b036247ba5ffdf06407c6f712382f128f60104a1424038e8b4db964736f6c63430007060033",
  "deployedBytecode": "0x6080604052600436106101125760003560e01c8063a15db5c5116100a5578063d8fa26f011610074578063db661b7111610059578063db661b711461027a578063fa461e331461028f578063fc0c546a146102af57610119565b8063d8fa26f014610252578063d9d7858a1461026557610119565b8063a15db5c5146101e8578063bc638a7914610208578063c1c0e9c41461021b578063c45a01551461023d57610119565b80633ca8402b116100e15780633ca8402b1461018f5780634fc5864f146101af57806383b17e4d146101c2578063923247ae146101d557610119565b8063150b7a021461011e57806315d23b04146101545780632ef1f08214610169578063334cc3651461017c57610119565b3661011957005b600080fd5b34801561012a57600080fd5b5061013e610139366004614a8e565b6102c4565b60405161014b9190615b01565b60405180910390f35b610167610162366004615185565b6102d4565b005b6101676101773660046154e5565b610af6565b61016761018a3660046150dd565b610bd1565b34801561019b57600080fd5b506101676101aa366004615197565b610e7d565b6101676101bd366004614e82565b6111de565b6101676101d0366004614c1d565b6112d9565b6101676101e3366004614d96565b611335565b3480156101f457600080fd5b50610167610203366004614b30565b6113f9565b610167610216366004614d96565b611615565b34801561022757600080fd5b506102306117e3565b60405161014b919061568c565b34801561024957600080fd5b50610230611807565b610167610260366004614c1d565b61182b565b34801561027157600080fd5b50610230611af5565b34801561028657600080fd5b50610230611b19565b34801561029b57600080fd5b506101676102aa366004614ba2565b611b3d565b3480156102bb57600080fd5b50610230611be6565b630a85bd0160e11b949350505050565b6102dd34611c0a565b604051632142170760e11b81526001600160a01b037f000000000000000000000000000000000000000000000000000000000000000016906342842e0e9061033190339030906020870135906004016156a0565b600060405180830381600087803b15801561034b57600080fd5b505af115801561035f573d6000803e3d6000fd5b50506040805160a08101825260208086013582528583013590820152670de0b6b3a7640000818301526001600160801b0361010086013581166060830152610120860135166080820152905163760a3f2b60e11b81526000935073__$561e80098325da493156966792c25e3551$__925063ec147e5691610427917f000000000000000000000000000000000000000000000000000000000000000091907f000000000000000000000000000000000000000000000000000000000000000090600401615a4b565b604080518083038186803b15801561043e57600080fd5b505af4158015610452573d6000803e3d6000fd5b505050506040513d601f19601f820116820180604052508101906104769190614b7f565b50604051630725e4e160e31b815290915073__$561e80098325da493156966792c25e3551$__9063392f2708906105089033907f0000000000000000000000000000000000000000000000000000000000000000907f00000000000000000000000000000000000000000000000000000000000000009060009060208a013590670de0b6b3a7640000906004016156c4565b60006040518083038186803b15801561052057600080fd5b505af4158015610534573d6000803e3d6000fd5b505050506105766040518060400160405280601381526020017f616674657220636865636b436c6f7365644c7000000000000000000000000000815250611c6e565b6000807f00000000000000000000000000000000000000000000000000000000000000001561068f5773__$561e80098325da493156966792c25e3551$__63b573fa8b6105c66020870187614a56565b608087013560608801356105e26101608a016101408b01614b63565b6105f46101808b016101608c01614b63565b7f00000000000000000000000000000000000000000000000000000000000000006040518763ffffffff1660e01b815260040161063696959493929190615ac6565b604080518083038186803b15801561064d57600080fd5b505af4158015610661573d6000803e3d6000fd5b505050506040513d601f19601f820116820180604052508101906106859190614b7f565b909250905061077a565b73__$561e80098325da493156966792c25e3551$__63b573fa8b6106b66020870187614a56565b608087013560608801356106d26101608a016101408b01614b63565b6106e46101808b016101608c01614b63565b7f00000000000000000000000000000000000000000000000000000000000000006040518763ffffffff1660e01b815260040161072696959493929190615ac6565b604080518083038186803b15801561073d57600080fd5b505af4158015610751573d6000803e3d6000fd5b505050506040513d601f19601f820116820180604052508101906107759190614b7f565b925090505b82811115610829576108247f00000000000000000000000000000000000000000000000000000000000000007f00000000000000000000000000000000000000000000000000000000000000006107d96101a0880161018089016153ba565b6107e38588611d29565b61080d670de0b6b3a76400006108076107fc898c611d29565b60e08d013590611d8b565b90611deb565b600460405180602001604052806000815250611e52565b6108cc565b828110156108cc57600061083d8483611d29565b90506108c97f00000000000000000000000000000000000000000000000000000000000000007f00000000000000000000000000000000000000000000000000000000000000006108966101a089016101808a016153ba565b846108b1670de0b6b3a764000061080760e08d013584611d8b565b60035b60405180602001604052806000815250611eb6565b50505b73__$561e80098325da493156966792c25e3551$__63aee2533b7f00000000000000000000000000000000000000000000000000000000000000006109146020880188614a56565b6040518060e00160405280336001600160a01b031681526020017f0000000000000000000000000000000000000000000000000000000000000000610959578661095b565b875b81526020017f000000000000000000000000000000000000000000000000000000000000000061098b578761098d565b865b815260a08a0135602082015260c08a013560408201526060016109b86101608b016101408c01614b63565b60020b81526020016109d26101808b016101608c01614b63565b60020b8152506040518463ffffffff1660e01b81526004016109f69392919061594b565b60206040518083038186803b158015610a0e57600080fd5b505af4158015610a22573d6000803e3d6000fd5b505050506040513d601f19601f82011682018060405250810190610a4691906153d6565b506040516328bb252f60e11b815273__$561e80098325da493156966792c25e3551$__906351764a5e90610ac0907f0000000000000000000000000000000000000000000000000000000000000000907f0000000000000000000000000000000000000000000000000000000000000000906004016156fd565b60006040518083038186803b158015610ad857600080fd5b505af4158015610aec573d6000803e3d6000fd5b5050505050505050565b610aff84611f29565b610b0834611c0a565b610b587f0000000000000000000000000000000000000000000000000000000000000000846008878686604051602001610b4493929190615da5565b604051602081830303815290604052611fda565b6040516328bb252f60e11b815273__$561e80098325da493156966792c25e3551$__906351764a5e90610ac0907f0000000000000000000000000000000000000000000000000000000000000000907f0000000000000000000000000000000000000000000000000000000000000000906004016156fd565b604081013515610be857610be88160400135611f29565b610bfa608082013560a08301356120b0565b3414610c0557600080fd5b610c0e34611c0a565b6040516308e6940f60e41b815260009073__$561e80098325da493156966792c25e3551$__90638e6940f090610cf2907f0000000000000000000000000000000000000000000000000000000000000000907f0000000000000000000000000000000000000000000000000000000000000000907f0000000000000000000000000000000000000000000000000000000000000000907f00000000000000000000000000000000000000000000000000000000000000009089907f000000000000000000000000000000000000000000000000000000000000000090600401615717565b604080518083038186803b158015610d0957600080fd5b505af4158015610d1d573d6000803e3d6000fd5b505050506040513d601f19601f82011682018060405250810190610d419190614b7f565b5090506040820135610dd057604051632142170760e11b81526001600160a01b037f000000000000000000000000000000000000000000000000000000000000000016906342842e0e90610d9d903090339086906004016156a0565b600060405180830381600087803b158015610db757600080fd5b505af1158015610dcb573d6000803e3d6000fd5b505050505b6040516328bb252f60e11b815273__$561e80098325da493156966792c25e3551$__906351764a5e90610e49907f0000000000000000000000000000000000000000000000000000000000000000907f0000000000000000000000000000000000000000000000000000000000000000906004016156fd565b60006040518083038186803b158015610e6157600080fd5b505af4158015610e75573d6000803e3d6000fd5b505050505050565b604051632142170760e11b81526001600160a01b037f000000000000000000000000000000000000000000000000000000000000000016906342842e0e90610ece90339030908635906004016156a0565b600060405180830381600087803b158015610ee857600080fd5b505af1158015610efc573d6000803e3d6000fd5b50505050600073__$561e80098325da493156966792c25e3551$__63ec147e567f00000000000000000000000000000000000000000000000000000000000000006040518060a00160405280866000013581526020018660200135815260200186604001358152602001866060016020810190610f79919061539e565b6001600160801b03168152602001610f9760a088016080890161539e565b6001600160801b03168152507f00000000000000000000000000000000000000000000000000000000000000006040518463ffffffff1660e01b8152600401610fe293929190615a4b565b604080518083038186803b158015610ff957600080fd5b505af415801561100d573d6000803e3d6000fd5b505050506040513d601f19601f820116820180604052508101906110319190614b7f565b5060408051630725e4e160e31b815291925073__$561e80098325da493156966792c25e3551$__9163392f2708916110bb9133917f0000000000000000000000000000000000000000000000000000000000000000917f0000000000000000000000000000000000000000000000000000000000000000916000918a35918b0135906004016156c4565b60006040518083038186803b1580156110d357600080fd5b505af41580156110e7573d6000803e3d6000fd5b505050506000811115610dd0576111647f00000000000000000000000000000000000000000000000000000000000000007f000000000000000000000000000000000000000000000000000000000000000061114960e0860160c087016153ba565b846108b1670de0b6b3a764000061080760a08a013584611d8b565b506040516328bb252f60e11b815273__$561e80098325da493156966792c25e3551$__906351764a5e90610e49907f0000000000000000000000000000000000000000000000000000000000000000907f0000000000000000000000000000000000000000000000000000000000000000906004016156fd565b6111e88135611f29565b6111f134611c0a565b61122d7f000000000000000000000000000000000000000000000000000000000000000060a0830135600784604051602001610b449190615be0565b6040516328bb252f60e11b815273__$561e80098325da493156966792c25e3551$__906351764a5e906112a6907f0000000000000000000000000000000000000000000000000000000000000000907f0000000000000000000000000000000000000000000000000000000000000000906004016156fd565b60006040518083038186803b1580156112be57600080fd5b505af41580156112d2573d6000803e3d6000fd5b5050505050565b6020810135156112f0576112f08160200135611f29565b6112f934611c0a565b61122d7f00000000000000000000000000000000000000000000000000000000000000006080830135600684604051602001610b449190615ca9565b61133f8135611f29565b61134d6060820135346120b0565b8160800135111561135d57600080fd5b61136634611c0a565b61122d7f00000000000000000000000000000000000000000000000000000000000000007f00000000000000000000000000000000000000000000000000000000000000006113bb60c0850160a086016153ba565b6113cd602086013560408701356120b0565b60808601356001876040516020016113e59190615b7f565b604051602081830303815290604052611e52565b336001600160a01b037f0000000000000000000000000000000000000000000000000000000000000000161461142e57600080fd5b6000818060200190518101906114449190614dcc565b90507f00000000000000000000000000000000000000000000000000000000000000006001600160a01b0316630ecbcdab600083604001516040518363ffffffff1660e01b8152600401611499929190615b2e565b600060405180830381600087803b1580156114b357600080fd5b505af11580156114c7573d6000803e3d6000fd5b505050506114ec8160000151826020015183604001518460600151856080015161210a565b80602001516001600160a01b031663095ea7b37f000000000000000000000000000000000000000000000000000000000000000083604001516040518363ffffffff1660e01b8152600401611542929190615aad565b602060405180830381600087803b15801561155c57600080fd5b505af1158015611570573d6000803e3d6000fd5b505050506040513d601f19601f820116820180604052508101906115949190614b14565b50604080820151905163d8aed14560e01b81526001600160a01b037f0000000000000000000000000000000000000000000000000000000000000000169163d8aed145916115e791600091600401615b2e565b600060405180830381600087803b15801561160157600080fd5b505af1158015610e75573d6000803e3d6000fd5b803515611626576116268135611f29565b61162f34611c0a565b6040516323b872dd60e01b81526001600160a01b037f000000000000000000000000000000000000000000000000000000000000000016906323b872dd9061168390339030906060870135906004016156a0565b602060405180830381600087803b15801561169d57600080fd5b505af11580156116b1573d6000803e3d6000fd5b505050506040513d601f19601f820116820180604052508101906116d59190614b14565b506117697f00000000000000000000000000000000000000000000000000000000000000007f000000000000000000000000000000000000000000000000000000000000000061172b60c0850160a086016153ba565b61173d602086013560608701356120b0565b60808601356002876040516020016117559190615b7f565b604051602081830303815290604052611eb6565b506040516328bb252f60e11b815273__$561e80098325da493156966792c25e3551$__906351764a5e906112a6907f0000000000000000000000000000000000000000000000000000000000000000907f0000000000000000000000000000000000000000000000000000000000000000906004016156fd565b7f000000000000000000000000000000000000000000000000000000000000000081565b7f000000000000000000000000000000000000000000000000000000000000000081565b6118358135611f29565b604051632142170760e11b81526001600160a01b037f000000000000000000000000000000000000000000000000000000000000000016906342842e0e9061188990339030906020870135906004016156a0565b600060405180830381600087803b1580156118a357600080fd5b505af11580156118b7573d6000803e3d6000fd5b505050506118c434611c0a565b600073__$561e80098325da493156966792c25e3551$__63ec147e567f00000000000000000000000000000000000000000000000000000000000000006040518060a001604052808660200135815260200186604001358152602001866060013581526020018660e001602081019061193d919061539e565b6001600160801b0316815260200161195d6101208801610100890161539e565b6001600160801b03168152507f00000000000000000000000000000000000000000000000000000000000000006040518463ffffffff1660e01b81526004016119a893929190615a4b565b604080518083038186803b1580156119bf57600080fd5b505af41580156119d3573d6000803e3d6000fd5b505050506040513d601f19601f820116820180604052508101906119f79190614b7f565b50604051630725e4e160e31b815290915073__$561e80098325da493156966792c25e3551$__9063392f270890611a859033907f0000000000000000000000000000000000000000000000000000000000000000907f00000000000000000000000000000000000000000000000000000000000000009060009060208a01359060608b0135906004016156c4565b60006040518083038186803b158015611a9d57600080fd5b505af4158015611ab1573d6000803e3d6000fd5b50610dd09250508335905082608085013560a086013560c0870135611ade61014089016101208a016153ba565b611af06101608a016101408b01614af8565b61386f565b7f000000000000000000000000000000000000000000000000000000000000000081565b7f000000000000000000000000000000000000000000000000000000000000000081565b6000841380611b4c5750600083135b611b5557600080fd5b6000611b63828401846151a8565b90506000806000611b778460000151613b16565b9250925092506000611bab7f0000000000000000000000000000000000000000000000000000000000000000858585613b47565b90506000808a13611bbc5788611bbe565b895b9050611bda86602001518684848a606001518b60400151613b66565b50505050505050505050565b7f000000000000000000000000000000000000000000000000000000000000000081565b8015611c6b577f00000000000000000000000000000000000000000000000000000000000000006001600160a01b031663d0e30db0826040518263ffffffff1660e01b81526004016000604051808303818588803b15801561160157600080fd5b50565b611c6b816040516024018080602001828103825283818151815260200191508051906020019080838360005b83811015611cb2578181015183820152602001611c9a565b50505050905090810190601f168015611cdf5780820380516001836020036101000a031916815260200191505b5060408051601f198184030181529190526020810180517bffffffffffffffffffffffffffffffffffffffffffffffffffffffff1663104c13eb60e21b17905292506141a5915050565b600082821115611d80576040805162461bcd60e51b815260206004820152601e60248201527f536166654d6174683a207375627472616374696f6e206f766572666c6f770000604482015290519081900360640190fd5b508082035b92915050565b600082611d9a57506000611d85565b82820282848281611da757fe5b0414611de45760405162461bcd60e51b8152600401808060200182810382526021815260200180615f6a6021913960400191505060405180910390fd5b9392505050565b6000808211611e41576040805162461bcd60e51b815260206004820152601a60248201527f536166654d6174683a206469766973696f6e206279207a65726f000000000000604482015290519081900360640190fd5b818381611e4a57fe5b049392505050565b6000611ea78530600060405180608001604052808c8c8f604051602001611e7b93929190615623565b60408051601f1981840301815291815290825233602083015260ff8a16908201526060018790526141c6565b905083811115610aec57600080fd5b600080611f0c8630600060405180608001604052808e8d8f604051602001611ee093929190615623565b60408051601f1981840301815291815290825233602083015260ff8b1690820152606001889052614333565b905084811015611f1b57600080fd5b90505b979650505050505050565b6040516331a9108f60e11b815233907f00000000000000000000000000000000000000000000000000000000000000006001600160a01b031690636352211e90611f77908590600401615d9c565b60206040518083038186803b158015611f8f57600080fd5b505afa158015611fa3573d6000803e3d6000fd5b505050506040513d601f19601f82011682018060405250810190611fc79190614a72565b6001600160a01b031614611c6b57600080fd5b7f00000000000000000000000000000000000000000000000000000000000000006001600160a01b03166389b7b7a6306040518060a00160405280336001600160a01b03168152602001886001600160a01b031681526020018781526020018660ff168152602001858152506040516020016120569190615b8d565b6040516020818303038152906040526040518363ffffffff1660e01b8152600401612082929190615a29565b600060405180830381600087803b15801561209c57600080fd5b505af1158015610aec573d6000803e3d6000fd5b600082820183811015611de4576040805162461bcd60e51b815260206004820152601b60248201527f536166654d6174683a206164646974696f6e206f766572666c6f770000000000604482015290519081900360640190fd5b60068260ff16600981111561211b57fe5b600981111561212657fe5b14156124de576000818060200190518101906121429190614f4b565b905060008073__$561e80098325da493156966792c25e3551$__638e6940f07f00000000000000000000000000000000000000000000000000000000000000007f00000000000000000000000000000000000000000000000000000000000000007f00000000000000000000000000000000000000000000000000000000000000007f0000000000000000000000000000000000000000000000000000000000000000604051806101400160405280306001600160a01b031681526020018a600001516001600160a01b031681526020018a6020015181526020018a6040015181526020018a6060015181526020018a60a0015181526020018a60e0015181526020018a610100015181526020018a610120015160020b81526020018a610140015160020b8152507f00000000000000000000000000000000000000000000000000000000000000006040518763ffffffff1660e01b81526004016122ac969594939291906157f7565b604080518083038186803b1580156122c357600080fd5b505af41580156122d7573d6000803e3d6000fd5b505050506040513d601f19601f820116820180604052508101906122fb9190614b7f565b6040516348dc69a560e11b815291935091506001600160a01b037f000000000000000000000000000000000000000000000000000000000000000016906391b8d34a9061234e9085908590600401615b2e565b600060405180830381600087803b15801561236857600080fd5b505af115801561237c573d6000803e3d6000fd5b5050505073__$561e80098325da493156966792c25e3551$__6363410a867f00000000000000000000000000000000000000000000000000000000000000007f00000000000000000000000000000000000000000000000000000000000000008560006123f68960c001518d6120b090919063ffffffff16565b6040518663ffffffff1660e01b81526004016124169594939291906159be565b60006040518083038186803b15801561242e57600080fd5b505af4158015612442573d6000803e3d6000fd5b505050508260200151600014156124d657604051632142170760e11b81526001600160a01b037f000000000000000000000000000000000000000000000000000000000000000016906342842e0e906124a39030908c9087906004016156a0565b600060405180830381600087803b1580156124bd57600080fd5b505af11580156124d1573d6000803e3d6000fd5b505050505b5050506112d2565b60078260ff1660098111156124ef57fe5b60098111156124fa57fe5b14156128b3576000818060200190518101906125169190614e94565b604051632e1a7d4d60e01b81529091506001600160a01b037f00000000000000000000000000000000000000000000000000000000000000001690632e1a7d4d90612565908790600401615d9c565b600060405180830381600087803b15801561257f57600080fd5b505af1158015612593573d6000803e3d6000fd5b5050825160405163b6b55f2560e01b81526001600160a01b037f000000000000000000000000000000000000000000000000000000000000000016935063b6b55f25925087916125e591600401615d9c565b6000604051808303818588803b1580156125fe57600080fd5b505af1158015612612573d6000803e3d6000fd5b5050835160405163713d517f60e01b81526001600160a01b037f000000000000000000000000000000000000000000000000000000000000000016945063713d517f93506126639250600401615d9c565b600060405180830381600087803b15801561267d57600080fd5b505af1158015612691573d6000803e3d6000fd5b50505050600073__$561e80098325da493156966792c25e3551$__63ec147e567f00000000000000000000000000000000000000000000000000000000000000006040518060a001604052808660200151815260200186604001518152602001866060015181526020018661010001516001600160801b031681526020018661012001516001600160801b03168152507f00000000000000000000000000000000000000000000000000000000000000006040518463ffffffff1660e01b815260040161276093929190615a4b565b604080518083038186803b15801561277757600080fd5b505af415801561278b573d6000803e3d6000fd5b505050506040513d601f19601f820116820180604052508101906127af9190614b7f565b50825160208401516060850151604051630725e4e160e31b815293945073__$561e80098325da493156966792c25e3551$__9363392f27089361283d938d937f0000000000000000000000000000000000000000000000000000000000000000937f0000000000000000000000000000000000000000000000000000000000000000939291906004016156c4565b60006040518083038186803b15801561285557600080fd5b505af4158015612869573d6000803e3d6000fd5b505050506128ac82600001518284608001516128968660a001518760c001516120b090919063ffffffff16565b8660e0015187610140015188610160015161386f565b50506112d2565b60088260ff1660098111156128c457fe5b60098111156128cf57fe5b14156112d257600080828060200190518101906128ec91906153ee565b604051632e1a7d4d60e01b815291935091506001600160a01b037f00000000000000000000000000000000000000000000000000000000000000001690632e1a7d4d9061293d908890600401615d9c565b600060405180830381600087803b15801561295757600080fd5b505af115801561296b573d6000803e3d6000fd5b505060405163b6b55f2560e01b81526001600160a01b037f000000000000000000000000000000000000000000000000000000000000000016925063b6b55f25915087906129bd908690600401615d9c565b6000604051808303818588803b1580156129d657600080fd5b505af11580156129ea573d6000803e3d6000fd5b505060405163713d517f60e01b81526001600160a01b037f000000000000000000000000000000000000000000000000000000000000000016935063713d517f9250612a3b91508590600401615d9c565b600060405180830381600087803b158015612a5557600080fd5b505af1158015612a69573d6000803e3d6000fd5b5050505060005b81518110156137b5576000828281518110612a8757fe5b6020026020010151600001516007811115612a9e57fe5b1415612c51576000828281518110612ab257fe5b602002602001015160200151806020019051810190612ad1919061505b565b8051604051637a04dbd760e01b815291925073__$561e80098325da493156966792c25e3551$__91637a04dbd791612b98917f0000000000000000000000000000000000000000000000000000000000000000917f0000000000000000000000000000000000000000000000000000000000000000917f000000000000000000000000000000000000000000000000000000000000000091908b9089907f0000000000000000000000000000000000000000000000000000000000000000906004016158b3565b60006040518083038186803b158015612bb057600080fd5b505af4158015612bc4573d6000803e3d6000fd5b5050505060208101516040516348dc69a560e11b81527f00000000000000000000000000000000000000000000000000000000000000006001600160a01b0316916391b8d34a91612c19918891600401615b2e565b600060405180830381600087803b158015612c3357600080fd5b505af1158015612c47573d6000803e3d6000fd5b50505050506137ad565b6001828281518110612c5f57fe5b6020026020010151600001516007811115612c7657fe5b1415612e75576000828281518110612c8a57fe5b602002602001015160200151806020019051810190612ca99190614c9b565b905073__$561e80098325da493156966792c25e3551$__63ec147e567f00000000000000000000000000000000000000000000000000000000000000006040518060a0016040528085600001518152602001856020015181526020018560400151815260200185606001516001600160801b0316815260200185608001516001600160801b03168152507f00000000000000000000000000000000000000000000000000000000000000006040518463ffffffff1660e01b8152600401612d7293929190615a4b565b604080518083038186803b158015612d8957600080fd5b505af4158015612d9d573d6000803e3d6000fd5b505050506040513d601f19601f82011682018060405250810190612dc19190614b7f565b505080516040808301519051630725e4e160e31b815273__$561e80098325da493156966792c25e3551$__9263392f270892612e49928e927f0000000000000000000000000000000000000000000000000000000000000000927f0000000000000000000000000000000000000000000000000000000000000000928c9291906004016156c4565b60006040518083038186803b158015612e6157600080fd5b505af4158015612c47573d6000803e3d6000fd5b6002828281518110612e8357fe5b6020026020010151600001516007811115612e9a57fe5b141561305d576000828281518110612eae57fe5b602002602001015160200151806020019051810190612ecd9190614d4e565b905060007f00000000000000000000000000000000000000000000000000000000000000006001600160a01b03166370a08231306040518263ffffffff1660e01b8152600401612f1d919061568c565b60206040518083038186803b158015612f3557600080fd5b505afa158015612f49573d6000803e3d6000fd5b505050506040513d601f19601f82011682018060405250810190612f6d91906153d6565b90508160200151811015612f8357602082018190525b81516020830151604051639f70f9e560e01b815273__$561e80098325da493156966792c25e3551$__92639f70f9e592613005927f0000000000000000000000000000000000000000000000000000000000000000927f0000000000000000000000000000000000000000000000000000000000000000928c926004016159be565b60206040518083038186803b15801561301d57600080fd5b505af4158015613031573d6000803e3d6000fd5b505050506040513d601f19601f8201168201806040525081019061305591906153d6565b5050506137ad565b600382828151811061306b57fe5b602002602001015160000151600781111561308257fe5b14156132fa57600082828151811061309657fe5b6020026020010151602001518060200190518101906130b5919061534f565b905060007f00000000000000000000000000000000000000000000000000000000000000006001600160a01b03166370a08231306040518263ffffffff1660e01b8152600401613105919061568c565b60206040518083038186803b15801561311d57600080fd5b505afa158015613131573d6000803e3d6000fd5b505050506040513d601f19601f8201168201806040525081019061315591906153d6565b905081604001511561323357600061316c86614472565b90508181101561317a578091505b60208301516040516331a0854360e11b815273__$561e80098325da493156966792c25e3551$__916363410a86916131fd917f0000000000000000000000000000000000000000000000000000000000000000917f0000000000000000000000000000000000000000000000000000000000000000918c918991906004016159be565b60006040518083038186803b15801561321557600080fd5b505af4158015613229573d6000803e3d6000fd5b50505050506132f3565b8151811015613240578082525b815160208301516040516331a0854360e11b815273__$561e80098325da493156966792c25e3551$__926363410a86926132c2927f0000000000000000000000000000000000000000000000000000000000000000927f0000000000000000000000000000000000000000000000000000000000000000928c926004016159be565b60006040518083038186803b1580156132da57600080fd5b505af41580156132ee573d6000803e3d6000fd5b505050505b50506137ad565b600482828151811061330857fe5b602002602001015160000151600781111561331f57fe5b141561350757600082828151811061333357fe5b60200260200101516020015180602001905181019061335291906150ef565b9050600073__$561e80098325da493156966792c25e3551$__638e6940f07f00000000000000000000000000000000000000000000000000000000000000007f00000000000000000000000000000000000000000000000000000000000000007f00000000000000000000000000000000000000000000000000000000000000007f0000000000000000000000000000000000000000000000000000000000000000877f00000000000000000000000000000000000000000000000000000000000000006040518763ffffffff1660e01b8152600401613437969594939291906157f7565b604080518083038186803b15801561344e57600080fd5b505af4158015613462573d6000803e3d6000fd5b505050506040513d601f19601f820116820180604052508101906134869190614b7f565b6040516348dc69a560e11b815291965091506001600160a01b037f000000000000000000000000000000000000000000000000000000000000000016906391b8d34a906134d99088908590600401615b2e565b600060405180830381600087803b1580156134f357600080fd5b505af11580156132ee573d6000803e3d6000fd5b600582828151811061351557fe5b602002602001015160000151600781111561352c57fe5b141561359b57600082828151811061354057fe5b60200260200101516020015180602001905181019061355f9190614fe6565b805160208201516080830151604084015160608501519495506132f39461359490670de0b6b3a7640000906108079084611d8b565b60096108b4565b60068282815181106135a957fe5b60200260200101516000015160078111156135c057fe5b14156136cf5760008282815181106135d457fe5b6020026020010151602001518060200190518101906135f39190614c39565b604080516080810182528251815230602080830191909152830180516001600160801b03908116838501529051166060820152905163fc6f786560e01b8152919250907f00000000000000000000000000000000000000000000000000000000000000006001600160a01b03169063fc6f786590613675908490600401615b3c565b6040805180830381600087803b15801561368e57600080fd5b505af11580156136a2573d6000803e3d6000fd5b505050506040513d601f19601f820116820180604052508101906136c69190614b7f565b505050506137ad565b60078282815181106136dd57fe5b60200260200101516000015160078111156136f457fe5b14156137ad57600082828151811061370857fe5b6020026020010151602001518060200190518101906137279190614d13565b80516040516348dc69a560e11b81529192506001600160a01b037f000000000000000000000000000000000000000000000000000000000000000016916391b8d34a9161377991889190600401615b2e565b600060405180830381600087803b15801561379357600080fd5b505af11580156137a7573d6000803e3d6000fd5b50505050505b600101612a70565b506040516331a0854360e11b815273__$561e80098325da493156966792c25e3551$__906363410a8690613836907f0000000000000000000000000000000000000000000000000000000000000000907f00000000000000000000000000000000000000000000000000000000000000009087906000908c906004016159be565b60006040518083038186803b15801561384e57600080fd5b505af4158015613862573d6000803e3d6000fd5b5050505050505050505050565b801561394357600061388088614472565b90508681101561388e578096505b6040516331a0854360e11b815273__$561e80098325da493156966792c25e3551$__906363410a869061390d907f0000000000000000000000000000000000000000000000000000000000000000907f0000000000000000000000000000000000000000000000000000000000000000908d908d908c906004016159be565b60006040518083038186803b15801561392557600080fd5b505af4158015613939573d6000803e3d6000fd5b5050505050613b04565b848610156139d7576139d27f00000000000000000000000000000000000000000000000000000000000000007f00000000000000000000000000000000000000000000000000000000000000008461399b898b611d29565b6139bb670de0b6b3a76400006108076139b48d8f611d29565b8b90611d8b565b60058d8c8c6040516020016113e593929190615676565b613b04565b6040516331a0854360e11b815273__$561e80098325da493156966792c25e3551$__906363410a8690613a56907f0000000000000000000000000000000000000000000000000000000000000000907f0000000000000000000000000000000000000000000000000000000000000000908c908b908b906004016159be565b60006040518083038186803b158015613a6e57600080fd5b505af4158015613a82573d6000803e3d6000fd5b505050506000613a9b8688611d2990919063ffffffff16565b90508015613b0257613b007f00000000000000000000000000000000000000000000000000000000000000007f000000000000000000000000000000000000000000000000000000000000000085846108b1670de0b6b3a76400006108078b84611d8b565b505b505b613b0d47611c0a565b50505050505050565b60008080613b248482614527565b9250613b318460146145f3565b9050613b3e846017614527565b91509193909250565b6000613b5d85613b588686866146af565b614705565b95945050505050565b60018160ff166009811115613b7757fe5b6009811115613b8257fe5b1415613cfd57600082806020019051810190613b9e9190614db1565b8051602082015160608301516040516331a0854360e11b815293945073__$561e80098325da493156966792c25e3551$__936363410a8693613c26937f0000000000000000000000000000000000000000000000000000000000000000937f0000000000000000000000000000000000000000000000000000000000000000936004016159be565b60006040518083038186803b158015613c3e57600080fd5b505af4158015613c52573d6000803e3d6000fd5b505060405163a9059cbb60e01b81526001600160a01b037f000000000000000000000000000000000000000000000000000000000000000016925063a9059cbb9150613ca49088908890600401615aad565b602060405180830381600087803b158015613cbe57600080fd5b505af1158015613cd2573d6000803e3d6000fd5b505050506040513d601f19601f82011682018060405250810190613cf69190614b14565b5050610e75565b60028160ff166009811115613d0e57fe5b6009811115613d1957fe5b1415613f0b57600082806020019051810190613d359190614db1565b9050600081602001511180613d4e575060008160400151115b15613ebd57805160208201516040808401519051639f70f9e560e01b815260009373__$561e80098325da493156966792c25e3551$__93639f70f9e593613ddf937f0000000000000000000000000000000000000000000000000000000000000000937f000000000000000000000000000000000000000000000000000000000000000093909290916004016159be565b60206040518083038186803b158015613df757600080fd5b505af4158015613e0b573d6000803e3d6000fd5b505050506040513d601f19601f82011682018060405250810190613e2f91906153d6565b8251909150613ebb57604051632142170760e11b81526001600160a01b037f000000000000000000000000000000000000000000000000000000000000000016906342842e0e90613e889030908c9086906004016156a0565b600060405180830381600087803b158015613ea257600080fd5b505af1158015613eb6573d6000803e3d6000fd5b505050505b505b60405163a9059cbb60e01b81526001600160a01b037f0000000000000000000000000000000000000000000000000000000000000000169063a9059cbb90613ca49088908890600401615aad565b60038160ff166009811115613f1c57fe5b6009811115613f2757fe5b1415613fd35760405163a9059cbb60e01b81526001600160a01b037f0000000000000000000000000000000000000000000000000000000000000000169063a9059cbb90613f7b9087908790600401615aad565b602060405180830381600087803b158015613f9557600080fd5b505af1158015613fa9573d6000803e3d6000fd5b505050506040513d601f19601f82011682018060405250810190613fcd9190614b14565b50610e75565b60048160ff166009811115613fe457fe5b6009811115613fef57fe5b14156140435760405163a9059cbb60e01b81526001600160a01b037f0000000000000000000000000000000000000000000000000000000000000000169063a9059cbb90613f7b9087908790600401615aad565b60058160ff16600981111561405457fe5b600981111561405f57fe5b14156141035760008280602001905181019061407b9190615266565b8051602082015160408084015190516331a0854360e11b815293945073__$561e80098325da493156966792c25e3551$__936363410a8693613c26937f0000000000000000000000000000000000000000000000000000000000000000937f0000000000000000000000000000000000000000000000000000000000000000936004016159be565b60098160ff16600981111561411457fe5b600981111561411f57fe5b1415610e755760405163a9059cbb60e01b81526001600160a01b0386169063a9059cbb906141539087908790600401615aad565b602060405180830381600087803b15801561416d57600080fd5b505af1158015614181573d6000803e3d6000fd5b505050506040513d601f19601f82011682018060405250810190613b0d9190614b14565b80516a636f6e736f6c652e6c6f67602083016000808483855afa5050505050565b6000806000806141d98560000151613b16565b919450925090506001600160a01b03808416908316106000806141fd858786614728565b6001600160a01b031663128acb088b856142168f614766565b6000036001600160a01b038e161561422e578d614254565b8761424d5773fffd8963efd1fc6a506488495d951d5263988d25614254565b6401000276a45b8d6040516020016142659190615d43565b6040516020818303038152906040526040518663ffffffff1660e01b81526004016142949594939291906159ef565b6040805180830381600087803b1580156142ad57600080fd5b505af11580156142c1573d6000803e3d6000fd5b505050506040513d601f19601f820116820180604052508101906142e59190614b7f565b91509150600080846142fb578284600003614301565b83836000035b915091508a6001600160a01b031660001415614323578c811461432357600080fd5b509b9a5050505050505050505050565b6000806000806143468560000151613b16565b919450925090506001600160a01b038083169084161060008061436a868686614728565b6001600160a01b031663128acb088b856143838f614766565b6001600160a01b038e1615614398578d6143be565b876143b75773fffd8963efd1fc6a506488495d951d5263988d256143be565b6401000276a45b8d6040516020016143cf9190615d43565b6040516020818303038152906040526040518663ffffffff1660e01b81526004016143fe9594939291906159ef565b6040805180830381600087803b15801561441757600080fd5b505af115801561442b573d6000803e3d6000fd5b505050506040513d601f19601f8201168201806040525081019061444f9190614b7f565b915091508261445e5781614460565b805b6000039b9a5050505050505050505050565b6000807f00000000000000000000000000000000000000000000000000000000000000006001600160a01b0316638c64ea4a846040518263ffffffff1660e01b81526004016144c19190615d9c565b60806040518083038186803b1580156144d957600080fd5b505afa1580156144ed573d6000803e3d6000fd5b505050506040513d601f19601f8201168201806040525081019061451191906152bb565b606001516001600160801b03169150505b919050565b600081826014011015614581576040805162461bcd60e51b815260206004820152601260248201527f746f416464726573735f6f766572666c6f770000000000000000000000000000604482015290519081900360640190fd5b81601401835110156145da576040805162461bcd60e51b815260206004820152601560248201527f746f416464726573735f6f75744f66426f756e64730000000000000000000000604482015290519081900360640190fd5b5001602001516c01000000000000000000000000900490565b60008182600301101561464d576040805162461bcd60e51b815260206004820152601160248201527f746f55696e7432345f6f766572666c6f77000000000000000000000000000000604482015290519081900360640190fd5b81600301835110156146a6576040805162461bcd60e51b815260206004820152601460248201527f746f55696e7432345f6f75744f66426f756e6473000000000000000000000000604482015290519081900360640190fd5b50016003015190565b6146b7614878565b826001600160a01b0316846001600160a01b031611156146d5579192915b50604080516060810182526001600160a01b03948516815292909316602083015262ffffff169181019190915290565b6000614711838361477c565b9050336001600160a01b03821614611d8557600080fd5b600061475e7f00000000000000000000000000000000000000000000000000000000000000006147598686866146af565b61477c565b949350505050565b6000600160ff1b821061477857600080fd5b5090565b600081602001516001600160a01b031682600001516001600160a01b0316106147a457600080fd5b50805160208083015160409384015184516001600160a01b0394851681850152939091168385015262ffffff166060808401919091528351808403820181526080840185528051908301207fff0000000000000000000000000000000000000000000000000000000000000060a085015294901b6bffffffffffffffffffffffff191660a183015260b58201939093527fe34f199b19b2b4f47f68442619d555527d244f78a3297ea89325f843f87b8b5460d5808301919091528251808303909101815260f5909101909152805191012090565b604080516060810182526000808252602082018190529181019190915290565b803561452281615ef5565b805161452281615ef5565b803561452281615f0a565b805161452281615f0a565b600082601f8301126148d4578081fd5b81356148e76148e282615ea3565b615e7f565b8181528460208386010111156148fb578283fd5b816020850160208301379081016020019190915292915050565b600082601f830112614925578081fd5b81516149336148e282615ea3565b818152846020838601011115614947578283fd5b61475e826020830160208701615ec5565b803561452281615f25565b805161452281615f25565b60006101608284031215614980578081fd5b50919050565b600060c08284031215614980578081fd5b600060c082840312156149a8578081fd5b60405160c0810181811067ffffffffffffffff821117156149c557fe5b8060405250809150825181526020830151602082015260408301516040820152606083015160608201526080830151608082015260a0830151614a0781615f49565b60a0919091015292915050565b803561452281615f34565b805161452281615f34565b803561452281615f49565b805161452281615f49565b803561452281615f5a565b805161452281615f5a565b600060208284031215614a67578081fd5b8135611de481615ef5565b600060208284031215614a83578081fd5b8151611de481615ef5565b60008060008060808587031215614aa3578283fd5b8435614aae81615ef5565b93506020850135614abe81615ef5565b925060408501359150606085013567ffffffffffffffff811115614ae0578182fd5b614aec878288016148c4565b91505092959194509250565b600060208284031215614b09578081fd5b8135611de481615f0a565b600060208284031215614b25578081fd5b8151611de481615f0a565b600060208284031215614b41578081fd5b813567ffffffffffffffff811115614b57578182fd5b61475e848285016148c4565b600060208284031215614b74578081fd5b8135611de481615f25565b60008060408385031215614b91578182fd5b505080516020909101519092909150565b60008060008060608587031215614bb7578182fd5b8435935060208501359250604085013567ffffffffffffffff80821115614bdc578384fd5b818701915087601f830112614bef578384fd5b813581811115614bfd578485fd5b886020828501011115614c0e578485fd5b95989497505060200194505050565b60006101608284031215614c2f578081fd5b611de4838361496e565b600060608284031215614c4a578081fd5b6040516060810181811067ffffffffffffffff82111715614c6757fe5b604052825181526020830151614c7c81615f34565b60208201526040830151614c8f81615f34565b60408201529392505050565b600060a08284031215614cac578081fd5b60405160a0810181811067ffffffffffffffff82111715614cc957fe5b80604052508251815260208301516020820152604083015160408201526060830151614cf481615f34565b60608201526080830151614d0781615f34565b60808201529392505050565b600060208284031215614d24578081fd5b6040516020810181811067ffffffffffffffff82111715614d4157fe5b6040529151825250919050565b600060408284031215614d5f578081fd5b6040516040810181811067ffffffffffffffff82111715614d7c57fe5b604052825181526020928301519281019290925250919050565b600060c08284031215614da7578081fd5b611de48383614986565b600060c08284031215614dc2578081fd5b611de48383614997565b600060208284031215614ddd578081fd5b815167ffffffffffffffff80821115614df4578283fd5b9083019060a08286031215614e07578283fd5b60405160a081018181108382111715614e1c57fe5b604052614e28836148a3565b8152614e36602084016148a3565b602082015260408301516040820152614e5160608401614a4b565b6060820152608083015182811115614e67578485fd5b614e7387828601614915565b60808301525095945050505050565b60006101808284031215614980578081fd5b6000610180808385031215614ea7578182fd5b614eb081615e7f565b9050825181526020830151602082015260408301516040820152606083015160608201526080830151608082015260a083015160a082015260c083015160c082015260e083015160e0820152610100614f0a818501614a1f565b90820152610120614f1c848201614a1f565b90820152610140614f2e848201614a35565b90820152610160614f408482016148b9565b908201529392505050565b6000610160808385031215614f5e578182fd5b614f6781615e7f565b9050614f72836148a3565b81526020830151602082015260408301516040820152606083015160608201526080830151608082015260a083015160a082015260c083015160c082015260e083015160e0820152610100808401518183015250610120614fd4818501614963565b90820152610140614f40848201614963565b600060a08284031215614ff7578081fd5b60405160a0810181811067ffffffffffffffff8211171561501457fe5b604052825161502281615ef5565b8152602083015161503281615ef5565b8060208301525060408301516040820152606083015160608201526080830151614d0781615f49565b600060e0828403121561506c578081fd5b60405160e0810181811067ffffffffffffffff8211171561508957fe5b604052615095836148a3565b81526020830151602082015260408301516040820152606083015160608201526080830151608082015260a083015160a082015260c083015160c08201528091505092915050565b60006101408284031215614980578081fd5b6000610140808385031215615102578182fd5b61510b81615e7f565b9050615116836148a3565b8152615124602084016148a3565b602082015260408301516040820152606083015160608201526080830151608082015260a083015160a082015260c083015160c082015260e083015160e0820152610100615173818501614963565b90820152610120614f40848201614963565b60006101a08284031215614980578081fd5b600060e08284031215614980578081fd5b6000602082840312156151b9578081fd5b813567ffffffffffffffff808211156151d0578283fd5b90830190608082860312156151e3578283fd5b6040516080810181811083821117156151f857fe5b604052823582811115615209578485fd5b615215878286016148c4565b82525061522460208401614898565b602082015261523560408401614a40565b604082015260608301358281111561524b578485fd5b615257878286016148c4565b60608301525095945050505050565b600060608284031215615277578081fd5b6040516060810181811067ffffffffffffffff8211171561529457fe5b80604052508251815260208301516020820152604083015160408201528091505092915050565b6000608082840312156152cc578081fd5b6040516080810181811067ffffffffffffffff821117156152e957fe5b60405282516152f781615ef5565b8152602083015163ffffffff8116811461530f578283fd5b602082015260408301516bffffffffffffffffffffffff81168114615332578283fd5b604082015261534360608401614a1f565b60608201529392505050565b600060608284031215615360578081fd5b6040516060810181811067ffffffffffffffff8211171561537d57fe5b806040525082518152602083015160208201526040830151614c8f81615f0a565b6000602082840312156153af578081fd5b8135611de481615f34565b6000602082840312156153cb578081fd5b8135611de481615f49565b6000602082840312156153e7578081fd5b5051919050565b60008060408385031215615400578182fd5b8251915060208084015167ffffffffffffffff8082111561541f578384fd5b818601915086601f830112615432578384fd5b81518181111561543e57fe5b61544b8485830201615e7f565b81815284810190848601875b848110156154d457815187016040818e03601f1901121561547657898afd5b60405160408101818110898211171561548b57fe5b604052818a015161549b81615f18565b81526040820151888111156154ae578b8cfd5b6154bc8f8c83860101614915565b828c0152508552509287019290870190600101615457565b50979a909950975050505050505050565b600080600080606085870312156154fa578182fd5b8435935060208501359250604085013567ffffffffffffffff8082111561551f578384fd5b818701915087601f830112615532578384fd5b813581811115615540578485fd5b8860208083028501011115614c0e578485fd5b6001600160a01b03169052565b15159052565b60008284528282602086013780602084860101526020601f19601f85011685010190509392505050565b600081518084526155a8816020860160208601615ec5565b601f01601f19169290920160200192915050565b60020b9052565b803582526020810135602083015260408101356040830152606081013560608301526080810135608083015260a08101356155fd81615f49565b62ffffff811660a0840152505050565b6001600160801b03169052565b62ffffff169052565b606093841b6bffffffffffffffffffffffff19908116825260e89390931b7fffffff0000000000000000000000000000000000000000000000000000000000166014820152921b166017820152602b0190565b9283526020830191909152604082015260600190565b6001600160a01b0391909116815260200190565b6001600160a01b039384168152919092166020820152604081019190915260600190565b6001600160a01b03968716815294861660208601529290941660408401526060830152608082019290925260a081019190915260c00190565b6001600160a01b0392831681529116602082015260400190565b6001600160a01b03878116825286811660208301528581166040830152841660608201526101e081016157556080830161575086614898565b615553565b61576160208501614898565b61576e60a0840182615553565b50604084013560c0830152606084013560e083015261010060808501358184015261012060a08601358185015260c086013561014085015260e08601356101608501526157bc828701614958565b91506157cc6101808501836155bc565b6157d7818701614958565b9150506157e86101a08401826155bc565b50611f1e6101c0830184615560565b6001600160a01b038781168252868116602083015285811660408301528416606082015282516101e0820190615831906080840190615553565b602084015161584360a0840182615553565b50604084015160c0830152606084015160e08301526080840151610100818185015260a08601519150610120828186015260c087015161014086015260e087015161016086015281870151925061589e6101808601846155bc565b86015191506157e890506101a08401826155bc565b60006101a0820190506001600160a01b03808a1683528089166020840152808816604084015280871660608401528560808401528085511660a084015250602084015160c0830152604084015160e08301526060840151610100830152608084015161012083015260a084015161014083015260c084015161016083015261593f610180830184615560565b98975050505050505050565b6000610120820190506001600160a01b0380861683528085166020840152808451166040840152506020830151606083015260408301516080830152606083015160a0830152608083015160c083015260a083015160020b60e083015260c083015160020b610100830152949350505050565b6001600160a01b03958616815293909416602084015260408301919091526060820152608081019190915260a00190565b60006001600160a01b038088168352861515602084015285604084015280851660608401525060a06080830152611f1e60a0830184615590565b60006001600160a01b03841682526040602083015261475e6040830184615590565b600060e0820190506001600160a01b038516825283516020830152602084015160408301526040840151606083015260608401516001600160801b0380821660808501528060808701511660a0850152505082151560c0830152949350505050565b6001600160a01b03929092168252602082015260400190565b6001600160a01b0396909616865260208601949094526040850192909252600290810b60608501520b6080830152151560a082015260c00190565b7fffffffff0000000000000000000000000000000000000000000000000000000091909116815260200190565b918252602082015260400190565b815181526020808301516001600160a01b0316908201526040808301516001600160801b0390811691830191909152606092830151169181019190915260800190565b60c08101611d8582846155c3565b6000602082526001600160a01b03808451166020840152806020850151166040840152506040830151606083015260ff6060840151166080830152608083015160a08084015261475e60c0840182615590565b600061018082019050823582526020830135602083015260408301356040830152606083013560608301526080830135608083015260a083013560a083015260c083013560c083015260e083013560e0830152610100615c41818501614a14565b615c4d8285018261560d565b5050610120615c5d818501614a14565b615c698285018261560d565b5050610140615c79818501614a2a565b615c858285018261561a565b5050610160615c958185016148ae565b615ca182850182615560565b505092915050565b6101608101615cbb8261575085614898565b6020830135602083015260408301356040830152606083013560608301526080830135608083015260a083013560a083015260c083013560c083015260e083013560e0830152610100808401358184015250610120615d1b818501614958565b615d27828501826155bc565b5050610140615d37818501614958565b615ca1828501826155bc565b600060208252825160806020840152615d5f60a0840182615590565b90506001600160a01b03602085015116604084015260ff60408501511660608401526060840151601f19848303016080850152613b5d8282615590565b90815260200190565b6000604080830186845260208281860152818683526060860190506060828802870101925087855b88811015615e7057878503605f190183528135368b9003603e19018112615df2578788fd5b8a018035615dff81615f18565b60088110615e0957fe5b86528085013536829003601e19018112615e21578889fd5b8101803567ffffffffffffffff811115615e3957898afd5b803603831315615e4757898afd5b8887890152615e5b89890182898501615566565b97505050928401925090830190600101615dcd565b50929998505050505050505050565b60405181810167ffffffffffffffff81118282101715615e9b57fe5b604052919050565b600067ffffffffffffffff821115615eb757fe5b50601f01601f191660200190565b60005b83811015615ee0578181015183820152602001615ec8565b83811115615eef576000848401525b50505050565b6001600160a01b0381168114611c6b57600080fd5b8015158114611c6b57600080fd5b60088110611c6b57600080fd5b8060020b8114611c6b57600080fd5b6001600160801b0381168114611c6b57600080fd5b62ffffff81168114611c6b57600080fd5b60ff81168114611c6b57600080fdfe536166654d6174683a206d756c7469706c69636174696f6e206f766572666c6f77a26469706673582212203c1294beaf7b036247ba5ffdf06407c6f712382f128f60104a1424038e8b4db964736f6c63430007060033",
  "libraries": {
    "ControllerHelperUtil": "0xEee87825b2f8a965bfc1Aeca2868cee15c3bAbc6"
  },
  "devdoc": {
    "kind": "dev",
    "methods": {
      "closeShortWithUserNft((uint256,uint256,uint256,uint256,uint256,uint256,uint256,uint128,uint128,uint24,bool))": {
        "details": "user should approve this contract for Uni NFT transfer",
        "params": {
          "_params": "ControllerHelperDataType.CloseShortWithUserNftParams struct"
        }
      },
      "flashloanWMintLpDepositNft((address,uint256,uint256,uint256,uint256,uint256,uint256,uint256,uint256,int24,int24))": {
        "details": "sender can specify the amount of ETH collateral to withdraw in case vault.collateralAmount > ETH to repay for loan",
        "params": {
          "_params": "ControllerHelperDataType.FlashloanWMintLpDepositNftParams struct"
        }
      },
      "flashswapSellLongWMint((uint256,uint256,uint256,uint256,uint256,uint24))": {
        "details": "flashswap amount = collateral amount - msg.value - ETH from selling long wPowerPerp",
        "params": {
          "_params": "ControllerHelperDataType.FlashSellLongWMintParams struct"
        }
      },
      "flashswapWBurnBuyLong((uint256,uint256,uint256,uint256,uint256,uint24))": {
        "details": "this function",
        "params": {
          "_params": "ControllerHelperDataType.FlashswapWBurnBuyLongParams struct"
        }
      },
      "onERC721Received(address,address,uint256,bytes)": {
        "details": "accept erc721 from safeTransferFrom and safeMint after callback",
        "returns": {
          "_0": "returns received selector"
        }
      },
      "rebalanceLpInVault(uint256,uint256,(uint8,bytes)[])": {
        "params": {
          "_collateralToFlashloan": "collateral amount to flashloan and deposit into vault to be able to withdraw Uni LP NFT",
          "_params": "array of ControllerHelperDataType.RebalanceLpInVaultParams structs",
          "_vaultId": "vault ID"
        }
      },
      "rebalanceLpWithoutVault((address,uint256,uint256,uint256,uint256,uint256,uint256,uint256,uint256,uint256,int24,int24,uint24))": {
        "params": {
          "_params": "ControllerHelperDataType.RebalanceLpWithoutVaultParams struct"
        }
      },
      "reduceLiquidityAndSell((uint256,uint256,uint256,uint128,uint128,uint256,uint24))": {
        "params": {
          "_params": "ControllerHelperDataType.ReduceLiquidityAndSellParams struct"
        }
      },
      "uniswapV3SwapCallback(int256,int256,bytes)": {
        "params": {
          "_data": "callback data encoded as SwapCallbackData struct",
          "amount0Delta": "amount of token0",
          "amount1Delta": "amount of token1"
        }
      },
      "wMintLp((address,address,uint256,uint256,uint256,uint256,uint256,uint256,int24,int24))": {
        "params": {
          "_params": "ControllerHelperDataType.MintAndLpParams struct"
        }
      }
    },
    "version": 1
  },
  "userdoc": {
    "kind": "user",
    "methods": {
      "closeShortWithUserNft((uint256,uint256,uint256,uint256,uint256,uint256,uint256,uint128,uint128,uint24,bool))": {
        "notice": "close short position with user Uniswap v3 LP NFT"
      },
      "flashloanWMintLpDepositNft((address,uint256,uint256,uint256,uint256,uint256,uint256,uint256,uint256,int24,int24))": {
        "notice": "FLash mint short position, LP in Uni v3, use LP NFT as collateral and withdraw ETH collateral to repay flashloan"
      },
      "flashswapSellLongWMint((uint256,uint256,uint256,uint256,uint256,uint24))": {
        "notice": "sell long wPowerPerp and flashswap mint short position"
      },
      "flashswapWBurnBuyLong((uint256,uint256,uint256,uint256,uint256,uint24))": {
        "notice": "flash close position and buy long squeeth"
      },
      "rebalanceLpInVault(uint256,uint256,(uint8,bytes)[])": {
        "notice": "Rebalance, increase and decrease LP liquidity through minting/burning wPowerPerp in vault"
      },
      "rebalanceLpWithoutVault((address,uint256,uint256,uint256,uint256,uint256,uint256,uint256,uint256,uint256,int24,int24,uint24))": {
        "notice": "Rebalance LP nft through trading"
      },
      "reduceLiquidityAndSell((uint256,uint256,uint256,uint128,uint128,uint256,uint24))": {
        "notice": "sell all LP wPowerPerp amounts to WETH and send back to user"
      },
      "uniswapV3SwapCallback(int256,int256,bytes)": {
        "notice": "uniswap swap callback function for flashswap"
      },
      "wMintLp((address,address,uint256,uint256,uint256,uint256,uint256,uint256,int24,int24))": {
        "notice": "mint WPowerPerp and LP into Uniswap v3 pool"
      }
    },
    "version": 1
  },
  "storageLayout": {
    "storage": [],
    "types": null
  }
}