{
  "address": "0xbf7223b5915470c1eFee97eD5a675A36F2c523af",
  "abi": [
    {
      "inputs": [
        {
          "internalType": "address",
          "name": "_oracle",
          "type": "address"
        },
        {
          "internalType": "address",
          "name": "_shortPowerPerp",
          "type": "address"
        },
        {
          "internalType": "address",
          "name": "_wPowerPerp",
          "type": "address"
        },
        {
          "internalType": "address",
          "name": "_weth",
          "type": "address"
        },
        {
          "internalType": "address",
          "name": "_quoteCurrency",
          "type": "address"
        },
        {
          "internalType": "address",
          "name": "_ethQuoteCurrencyPool",
          "type": "address"
        },
        {
          "internalType": "address",
          "name": "_wPowerPerpPool",
          "type": "address"
        },
        {
          "internalType": "address",
          "name": "_uniPositionManager",
          "type": "address"
        }
      ],
      "stateMutability": "nonpayable",
      "type": "constructor"
    },
    {
      "anonymous": false,
      "inputs": [
        {
          "indexed": false,
          "internalType": "uint256",
          "name": "amount",
          "type": "uint256"
        },
        {
          "indexed": false,
          "internalType": "uint256",
          "name": "vaultId",
          "type": "uint256"
        }
      ],
      "name": "BurnShort",
      "type": "event"
    },
    {
      "anonymous": false,
      "inputs": [
        {
          "indexed": false,
          "internalType": "uint256",
          "name": "vaultId",
          "type": "uint256"
        }
      ],
      "name": "CloseVault",
      "type": "event"
    },
    {
      "anonymous": false,
      "inputs": [
        {
          "indexed": false,
          "internalType": "uint256",
          "name": "vaultId",
          "type": "uint256"
        },
        {
          "indexed": false,
          "internalType": "uint256",
          "name": "amount",
          "type": "uint256"
        },
        {
          "indexed": false,
          "internalType": "uint128",
          "name": "collateralId",
          "type": "uint128"
        }
      ],
      "name": "DepositCollateral",
      "type": "event"
    },
    {
      "anonymous": false,
      "inputs": [
        {
          "indexed": false,
          "internalType": "uint256",
          "name": "vaultId",
          "type": "uint256"
        },
        {
          "indexed": false,
          "internalType": "uint256",
          "name": "tokenId",
          "type": "uint256"
        }
      ],
      "name": "DepositUniPositionToken",
      "type": "event"
    },
    {
      "anonymous": false,
      "inputs": [
        {
          "indexed": false,
          "internalType": "uint256",
          "name": "oldFee",
          "type": "uint256"
        },
        {
          "indexed": false,
          "internalType": "uint256",
          "name": "newFee",
          "type": "uint256"
        }
      ],
      "name": "FeeRateUpdated",
      "type": "event"
    },
    {
      "anonymous": false,
      "inputs": [
        {
          "indexed": false,
          "internalType": "address",
          "name": "oldFeeRecipient",
          "type": "address"
        },
        {
          "indexed": false,
          "internalType": "address",
          "name": "newFeeRecipient",
          "type": "address"
        }
      ],
      "name": "FeeRecipientUpdated",
      "type": "event"
    },
    {
      "anonymous": false,
      "inputs": [
        {
          "indexed": false,
          "internalType": "uint256",
          "name": "vaultId",
          "type": "uint256"
        },
        {
          "indexed": false,
          "internalType": "uint256",
          "name": "debtAmount",
          "type": "uint256"
        },
        {
          "indexed": false,
          "internalType": "uint256",
          "name": "collateralPaid",
          "type": "uint256"
        }
      ],
      "name": "Liquidate",
      "type": "event"
    },
    {
      "anonymous": false,
      "inputs": [
        {
          "indexed": false,
          "internalType": "uint256",
          "name": "amount",
          "type": "uint256"
        },
        {
          "indexed": false,
          "internalType": "uint256",
          "name": "vaultId",
          "type": "uint256"
        }
      ],
      "name": "MintShort",
      "type": "event"
    },
    {
      "anonymous": false,
      "inputs": [
        {
          "indexed": false,
          "internalType": "uint256",
          "name": "oldNormFactor",
          "type": "uint256"
        },
        {
          "indexed": false,
          "internalType": "uint256",
          "name": "newNormFactor",
          "type": "uint256"
        },
        {
          "indexed": false,
          "internalType": "uint256",
          "name": "timestamp",
          "type": "uint256"
        }
      ],
      "name": "NormalizationFactorUpdated",
      "type": "event"
    },
    {
      "anonymous": false,
      "inputs": [
        {
          "indexed": false,
          "internalType": "uint256",
          "name": "vaultId",
          "type": "uint256"
        }
      ],
      "name": "OpenVault",
      "type": "event"
    },
    {
      "anonymous": false,
      "inputs": [
        {
          "indexed": true,
          "internalType": "address",
          "name": "previousOwner",
          "type": "address"
        },
        {
          "indexed": true,
          "internalType": "address",
          "name": "newOwner",
          "type": "address"
        }
      ],
      "name": "OwnershipTransferred",
      "type": "event"
    },
    {
      "anonymous": false,
      "inputs": [
        {
          "indexed": false,
          "internalType": "uint256",
          "name": "vaultId",
          "type": "uint256"
        },
        {
          "indexed": false,
          "internalType": "address",
          "name": "operator",
          "type": "address"
        }
      ],
      "name": "UpdateOperator",
      "type": "event"
    },
    {
      "anonymous": false,
      "inputs": [
        {
          "indexed": false,
          "internalType": "uint256",
          "name": "vaultId",
          "type": "uint256"
        },
        {
          "indexed": false,
          "internalType": "uint256",
          "name": "amount",
          "type": "uint256"
        },
        {
          "indexed": false,
          "internalType": "uint128",
          "name": "collateralId",
          "type": "uint128"
        }
      ],
      "name": "WithdrawCollateral",
      "type": "event"
    },
    {
      "anonymous": false,
      "inputs": [
        {
          "indexed": false,
          "internalType": "uint256",
          "name": "vaultId",
          "type": "uint256"
        },
        {
          "indexed": false,
          "internalType": "uint256",
          "name": "tokenId",
          "type": "uint256"
        }
      ],
      "name": "WithdrawUniPositionToken",
      "type": "event"
    },
    {
      "inputs": [],
      "name": "FUNDING_PERIOD",
      "outputs": [
        {
          "internalType": "uint256",
          "name": "",
          "type": "uint256"
        }
      ],
      "stateMutability": "view",
      "type": "function"
    },
    {
      "inputs": [],
      "name": "PAUSE_TIME_LIMIT",
      "outputs": [
        {
          "internalType": "uint256",
          "name": "",
          "type": "uint256"
        }
      ],
      "stateMutability": "view",
      "type": "function"
    },
    {
      "inputs": [],
      "name": "applyFunding",
      "outputs": [],
      "stateMutability": "nonpayable",
      "type": "function"
    },
    {
      "inputs": [
        {
          "internalType": "uint256",
          "name": "_vaultId",
          "type": "uint256"
        },
        {
          "internalType": "uint256",
          "name": "_powerPerpAmount",
          "type": "uint256"
        },
        {
          "internalType": "uint256",
          "name": "_withdrawAmount",
          "type": "uint256"
        }
      ],
      "name": "burnPowerPerpAmount",
      "outputs": [
        {
          "internalType": "uint256",
          "name": "",
          "type": "uint256"
        }
      ],
      "stateMutability": "nonpayable",
      "type": "function"
    },
    {
      "inputs": [
        {
          "internalType": "uint256",
          "name": "_vaultId",
          "type": "uint256"
        },
        {
          "internalType": "uint256",
          "name": "_wPowerPerpAmount",
          "type": "uint256"
        },
        {
          "internalType": "uint256",
          "name": "_withdrawAmount",
          "type": "uint256"
        }
      ],
      "name": "burnWPowerPerpAmount",
      "outputs": [],
      "stateMutability": "nonpayable",
      "type": "function"
    },
    {
      "inputs": [],
      "name": "deployTimestamp",
      "outputs": [
        {
          "internalType": "uint256",
          "name": "",
          "type": "uint256"
        }
      ],
      "stateMutability": "view",
      "type": "function"
    },
    {
      "inputs": [
        {
          "internalType": "uint256",
          "name": "_vaultId",
          "type": "uint256"
        }
      ],
      "name": "deposit",
      "outputs": [],
      "stateMutability": "payable",
      "type": "function"
    },
    {
      "inputs": [
        {
          "internalType": "uint256",
          "name": "_vaultId",
          "type": "uint256"
        },
        {
          "internalType": "uint256",
          "name": "_uniTokenId",
          "type": "uint256"
        }
      ],
      "name": "depositUniPositionToken",
      "outputs": [],
      "stateMutability": "nonpayable",
      "type": "function"
    },
    {
      "inputs": [],
      "name": "donate",
      "outputs": [],
      "stateMutability": "payable",
      "type": "function"
    },
    {
      "inputs": [],
      "name": "ethQuoteCurrencyPool",
      "outputs": [
        {
          "internalType": "address",
          "name": "",
          "type": "address"
        }
      ],
      "stateMutability": "view",
      "type": "function"
    },
    {
      "inputs": [],
      "name": "feeRate",
      "outputs": [
        {
          "internalType": "uint256",
          "name": "",
          "type": "uint256"
        }
      ],
      "stateMutability": "view",
      "type": "function"
    },
    {
      "inputs": [],
      "name": "feeRecipient",
      "outputs": [
        {
          "internalType": "address",
          "name": "",
          "type": "address"
        }
      ],
      "stateMutability": "view",
      "type": "function"
    },
    {
      "inputs": [
        {
          "internalType": "uint32",
          "name": "_period",
          "type": "uint32"
        }
      ],
      "name": "getDenormalizedMark",
      "outputs": [
        {
          "internalType": "uint256",
          "name": "",
          "type": "uint256"
        }
      ],
      "stateMutability": "view",
      "type": "function"
    },
    {
      "inputs": [
        {
          "internalType": "uint32",
          "name": "_period",
          "type": "uint32"
        }
      ],
      "name": "getDenormalizedMarkForFunding",
      "outputs": [
        {
          "internalType": "uint256",
          "name": "",
          "type": "uint256"
        }
      ],
      "stateMutability": "view",
      "type": "function"
    },
    {
      "inputs": [],
      "name": "getExpectedNormalizationFactor",
      "outputs": [
        {
          "internalType": "uint256",
          "name": "",
          "type": "uint256"
        }
      ],
      "stateMutability": "view",
      "type": "function"
    },
    {
      "inputs": [
        {
          "internalType": "uint32",
          "name": "_period",
          "type": "uint32"
        }
      ],
      "name": "getIndex",
      "outputs": [
        {
          "internalType": "uint256",
          "name": "",
          "type": "uint256"
        }
      ],
      "stateMutability": "view",
      "type": "function"
    },
    {
      "inputs": [
        {
          "internalType": "uint32",
          "name": "_period",
          "type": "uint32"
        }
      ],
      "name": "getUnscaledIndex",
      "outputs": [
        {
          "internalType": "uint256",
          "name": "",
          "type": "uint256"
        }
      ],
      "stateMutability": "view",
      "type": "function"
    },
    {
      "inputs": [],
      "name": "indexForSettlement",
      "outputs": [
        {
          "internalType": "uint256",
          "name": "",
          "type": "uint256"
        }
      ],
      "stateMutability": "view",
      "type": "function"
    },
    {
      "inputs": [],
      "name": "isShutDown",
      "outputs": [
        {
          "internalType": "bool",
          "name": "",
          "type": "bool"
        }
      ],
      "stateMutability": "view",
      "type": "function"
    },
    {
      "inputs": [],
      "name": "isSystemPaused",
      "outputs": [
        {
          "internalType": "bool",
          "name": "",
          "type": "bool"
        }
      ],
      "stateMutability": "view",
      "type": "function"
    },
    {
      "inputs": [
        {
          "internalType": "uint256",
          "name": "_vaultId",
          "type": "uint256"
        }
      ],
      "name": "isVaultSafe",
      "outputs": [
        {
          "internalType": "bool",
          "name": "",
          "type": "bool"
        }
      ],
      "stateMutability": "view",
      "type": "function"
    },
    {
      "inputs": [],
      "name": "lastFundingUpdateTimestamp",
      "outputs": [
        {
          "internalType": "uint256",
          "name": "",
          "type": "uint256"
        }
      ],
      "stateMutability": "view",
      "type": "function"
    },
    {
      "inputs": [],
      "name": "lastPauseTime",
      "outputs": [
        {
          "internalType": "uint256",
          "name": "",
          "type": "uint256"
        }
      ],
      "stateMutability": "view",
      "type": "function"
    },
    {
      "inputs": [
        {
          "internalType": "uint256",
          "name": "_vaultId",
          "type": "uint256"
        },
        {
          "internalType": "uint256",
          "name": "_maxDebtAmount",
          "type": "uint256"
        }
      ],
      "name": "liquidate",
      "outputs": [
        {
          "internalType": "uint256",
          "name": "",
          "type": "uint256"
        }
      ],
      "stateMutability": "nonpayable",
      "type": "function"
    },
    {
      "inputs": [
        {
          "internalType": "uint256",
          "name": "_vaultId",
          "type": "uint256"
        },
        {
          "internalType": "uint128",
          "name": "_powerPerpAmount",
          "type": "uint128"
        },
        {
          "internalType": "uint256",
          "name": "_uniTokenId",
          "type": "uint256"
        }
      ],
      "name": "mintPowerPerpAmount",
      "outputs": [
        {
          "internalType": "uint256",
          "name": "",
          "type": "uint256"
        },
        {
          "internalType": "uint256",
          "name": "",
          "type": "uint256"
        }
      ],
      "stateMutability": "payable",
      "type": "function"
    },
    {
      "inputs": [
        {
          "internalType": "uint256",
          "name": "_vaultId",
          "type": "uint256"
        },
        {
          "internalType": "uint128",
          "name": "_wPowerPerpAmount",
          "type": "uint128"
        },
        {
          "internalType": "uint256",
          "name": "_uniTokenId",
          "type": "uint256"
        }
      ],
      "name": "mintWPowerPerpAmount",
      "outputs": [
        {
          "internalType": "uint256",
          "name": "",
          "type": "uint256"
        }
      ],
      "stateMutability": "payable",
      "type": "function"
    },
    {
      "inputs": [],
      "name": "normalizationFactor",
      "outputs": [
        {
          "internalType": "uint256",
          "name": "",
          "type": "uint256"
        }
      ],
      "stateMutability": "view",
      "type": "function"
    },
    {
      "inputs": [],
      "name": "oracle",
      "outputs": [
        {
          "internalType": "address",
          "name": "",
          "type": "address"
        }
      ],
      "stateMutability": "view",
      "type": "function"
    },
    {
      "inputs": [],
      "name": "owner",
      "outputs": [
        {
          "internalType": "address",
          "name": "",
          "type": "address"
        }
      ],
      "stateMutability": "view",
      "type": "function"
    },
    {
      "inputs": [],
      "name": "pause",
      "outputs": [],
      "stateMutability": "nonpayable",
      "type": "function"
    },
    {
      "inputs": [],
      "name": "pauseAndShutDown",
      "outputs": [],
      "stateMutability": "nonpayable",
      "type": "function"
    },
    {
      "inputs": [],
      "name": "pausesLeft",
      "outputs": [
        {
          "internalType": "uint256",
          "name": "",
          "type": "uint256"
        }
      ],
      "stateMutability": "view",
      "type": "function"
    },
    {
      "inputs": [],
      "name": "quoteCurrency",
      "outputs": [
        {
          "internalType": "address",
          "name": "",
          "type": "address"
        }
      ],
      "stateMutability": "view",
      "type": "function"
    },
    {
      "inputs": [
        {
          "internalType": "uint256",
          "name": "_wPerpAmount",
          "type": "uint256"
        }
      ],
      "name": "redeemLong",
      "outputs": [],
      "stateMutability": "nonpayable",
      "type": "function"
    },
    {
      "inputs": [
        {
          "internalType": "uint256",
          "name": "_vaultId",
          "type": "uint256"
        }
      ],
      "name": "redeemShort",
      "outputs": [],
      "stateMutability": "nonpayable",
      "type": "function"
    },
    {
      "inputs": [
        {
          "internalType": "uint256",
          "name": "_vaultId",
          "type": "uint256"
        }
      ],
      "name": "reduceDebt",
      "outputs": [],
      "stateMutability": "nonpayable",
      "type": "function"
    },
    {
      "inputs": [
        {
          "internalType": "uint256",
          "name": "_vaultId",
          "type": "uint256"
        }
      ],
      "name": "reduceDebtShutdown",
      "outputs": [],
      "stateMutability": "nonpayable",
      "type": "function"
    },
    {
      "inputs": [],
      "name": "renounceOwnership",
      "outputs": [],
      "stateMutability": "nonpayable",
      "type": "function"
    },
    {
      "inputs": [
        {
          "internalType": "uint256",
          "name": "_newFeeRate",
          "type": "uint256"
        }
      ],
      "name": "setFeeRate",
      "outputs": [],
      "stateMutability": "nonpayable",
      "type": "function"
    },
    {
      "inputs": [
        {
          "internalType": "address",
          "name": "_newFeeRecipient",
          "type": "address"
        }
      ],
      "name": "setFeeRecipient",
      "outputs": [],
      "stateMutability": "nonpayable",
      "type": "function"
    },
    {
      "inputs": [],
      "name": "shortPowerPerp",
      "outputs": [
        {
          "internalType": "address",
          "name": "",
          "type": "address"
        }
      ],
      "stateMutability": "view",
      "type": "function"
    },
    {
      "inputs": [],
      "name": "shutDown",
      "outputs": [],
      "stateMutability": "nonpayable",
      "type": "function"
    },
    {
      "inputs": [
        {
          "internalType": "address",
          "name": "newOwner",
          "type": "address"
        }
      ],
      "name": "transferOwnership",
      "outputs": [],
      "stateMutability": "nonpayable",
      "type": "function"
    },
    {
      "inputs": [],
      "name": "unPauseAnyone",
      "outputs": [],
      "stateMutability": "nonpayable",
      "type": "function"
    },
    {
      "inputs": [],
      "name": "unPauseOwner",
      "outputs": [],
      "stateMutability": "nonpayable",
      "type": "function"
    },
    {
      "inputs": [],
      "name": "uniswapPositionManager",
      "outputs": [
        {
          "internalType": "address",
          "name": "",
          "type": "address"
        }
      ],
      "stateMutability": "view",
      "type": "function"
    },
    {
      "inputs": [
        {
          "internalType": "uint256",
          "name": "_vaultId",
          "type": "uint256"
        },
        {
          "internalType": "address",
          "name": "_operator",
          "type": "address"
        }
      ],
      "name": "updateOperator",
      "outputs": [],
      "stateMutability": "nonpayable",
      "type": "function"
    },
    {
      "inputs": [
        {
          "internalType": "uint256",
          "name": "",
          "type": "uint256"
        }
      ],
      "name": "vaults",
      "outputs": [
        {
          "internalType": "address",
          "name": "operator",
          "type": "address"
        },
        {
          "internalType": "uint32",
          "name": "NftCollateralId",
          "type": "uint32"
        },
        {
          "internalType": "uint96",
          "name": "collateralAmount",
          "type": "uint96"
        },
        {
          "internalType": "uint128",
          "name": "shortAmount",
          "type": "uint128"
        }
      ],
      "stateMutability": "view",
      "type": "function"
    },
    {
      "inputs": [],
      "name": "wPowerPerp",
      "outputs": [
        {
          "internalType": "address",
          "name": "",
          "type": "address"
        }
      ],
      "stateMutability": "view",
      "type": "function"
    },
    {
      "inputs": [],
      "name": "wPowerPerpPool",
      "outputs": [
        {
          "internalType": "address",
          "name": "",
          "type": "address"
        }
      ],
      "stateMutability": "view",
      "type": "function"
    },
    {
      "inputs": [],
      "name": "weth",
      "outputs": [
        {
          "internalType": "address",
          "name": "",
          "type": "address"
        }
      ],
      "stateMutability": "view",
      "type": "function"
    },
    {
      "inputs": [
        {
          "internalType": "uint256",
          "name": "_vaultId",
          "type": "uint256"
        },
        {
          "internalType": "uint256",
          "name": "_amount",
          "type": "uint256"
        }
      ],
      "name": "withdraw",
      "outputs": [],
      "stateMutability": "payable",
      "type": "function"
    },
    {
      "inputs": [
        {
          "internalType": "uint256",
          "name": "_vaultId",
          "type": "uint256"
        }
      ],
      "name": "withdrawUniPositionToken",
      "outputs": [],
      "stateMutability": "nonpayable",
      "type": "function"
    },
    {
      "stateMutability": "payable",
      "type": "receive"
    }
  ],
  "transactionHash": "0x56bb794e1fb0da0e12398d0f9434122e4bcd25cb66abcc2029a36041a5dfbd0b",
  "args": [
    "0x6A0451153CeD706f83f8104b2E0e3d8f465612Ff",
    "0xa4F26a92e5D536E152825328F595a57578398e74",
    "0x06980aDd9a68D17eA81C7664ECD1e9DDB85360D9",
    "0xc778417e063141139fce010982780140aa0cd5ab",
    "0x27415c30d8c87437becbd4f98474f26e712047f4",
    "0x8356AbC730a218c24446C2c85708F373f354F0D8",
    "0x446E152e3E1bD478E9C13B9f798Ca7dB39E2F35a",
    "0x8c7C1F786dA4DEe7d4bB49697A9B0C0c8Fb328e0"
  ],
  "solcInputHash": "564b64dd789f38eb408e7873b9437604",
  "bytecode": "0x6101a060405260046006553480156200001757600080fd5b5060405162005fb038038062005fb08339810160408190526200003a916200026a565b60006200004662000249565b600080546001600160a01b0319166001600160a01b0383169081178255604051929350917f8be0079c531659141344cd1fd0a4f28419497f9722a3daafe3b4186f6b6457e0908290a3506001600160a01b038816620000c25760405162461bcd60e51b8152600401620000b99062000475565b60405180910390fd5b6001600160a01b038716620000eb5760405162461bcd60e51b8152600401620000b990620004ac565b6001600160a01b038616620001145760405162461bcd60e51b8152600401620000b99062000311565b6001600160a01b0385166200013d5760405162461bcd60e51b8152600401620000b9906200043e565b6001600160a01b038416620001665760405162461bcd60e51b8152600401620000b99062000348565b6001600160a01b0383166200018f5760405162461bcd60e51b8152600401620000b990620003b6565b6001600160a01b038216620001b85760405162461bcd60e51b8152600401620000b990620003fc565b6001600160a01b038116620001e15760405162461bcd60e51b8152600401620000b9906200037f565b6001600160601b0319606098891b81166101605296881b87166101205294871b86166101405292861b851660805290851b841660a052841b831660c052831b821660e05290911b166101005242610180819052670de0b6b3a7640000600455600555620004e3565b3390565b80516001600160a01b03811681146200026557600080fd5b919050565b600080600080600080600080610100898b03121562000287578384fd5b62000292896200024d565b9750620002a260208a016200024d565b9650620002b260408a016200024d565b9550620002c260608a016200024d565b9450620002d260808a016200024d565b9350620002e260a08a016200024d565b9250620002f260c08a016200024d565b91506200030260e08a016200024d565b90509295985092959890939650565b6020808252601a908201527f496e76616c696420706f77657220706572702061646472657373000000000000604082015260600190565b6020808252601e908201527f496e76616c69642071756f74652063757272656e637920616464726573730000604082015260600190565b6020808252601c908201527f496e76616c696420756e6920706f736974696f6e206d616e6167657200000000604082015260600190565b60208082526026908201527f496e76616c6964206574683a71756f746543757272656e637920706f6f6c206160408201526564647265737360d01b606082015260800190565b60208082526022908201527f496e76616c696420706f776572706572703a65746820706f6f6c206164647265604082015261737360f01b606082015260800190565b60208082526014908201527f496e76616c696420776574682061646472657373000000000000000000000000604082015260600190565b60208082526016908201527f496e76616c6964206f7261636c65206164647265737300000000000000000000604082015260600190565b6020808252601e908201527f496e76616c69642073686f7274506f7765725065727020616464726573730000604082015260600190565b60805160601c60a05160601c60c05160601c60e05160601c6101005160601c6101205160601c6101405160601c6101605160601c6101805161589a62000716600039806110bc528061144e525080610aa95280610b405280610cee5280610d80528061128b528061154652806120bb52806125555280612629528061302b528061395f52806139ef52806141ea52806143d752806144895280614549525080610e2552806112af52806118b7528061216052806125fa528061313752806131f95280613538528061389e5280613ae25280613c5f5280613fa3528061431f5250806117d55280611a315280611c335280611df852806123a15280612ce45280612e7f52806140da525080611f525280612bce5280612dd55280613ab55280613bb25280613ded525080610da152806119fe52806120dc52806125765280613a1e5280614578525080610aca5280610b615280610d0f5280610dc25280610f86528061156752806120fd5280612597528061264a528061304c5280613980528061420b52806143f852806144b8525080610b0c5280610ba35280610d515280610e04528061134352806115a9528061213f52806125d9528061268c528061308e52806139c2528061424d528061443a52508061035e5280610aeb5280610b825280610d305280610de35280610e4e5280611588528061211e52806125b8528061266b5280612faf528061306d52806139a15280613b0c5280613c845280613fcd528061422c5280614419525061589a6000f3fe60806040526004361061034e5760003560e01c80638c64ea4a116101bb578063c9e77ee8116100f7578063ed88c68e11610095578063f3a50fe31161006f578063f3a50fe3146108a3578063f90c3f27146108c4578063fbfc6bc0146108d9578063ff947525146108f9576103a6565b8063ed88c68e1461085b578063ee3189ff14610863578063f2fde38b14610883576103a6565b8063d5272584116100d1578063d5272584146107fc578063de4a427a14610811578063e5047b3014610826578063e74b981b1461083b576103a6565b8063c9e77ee8146107a9578063cc4b1473146107c9578063d296d1f1146107dc576103a6565b806397efa94211610164578063ac6cd5ef1161013e578063ac6cd5ef14610741578063b6b55f2514610761578063b707ab9914610774578063c65a391d14610789576103a6565b806397efa942146106ec5780639d4c94421461070c578063a847e67414610721576103a6565b806391b4ded91161019557806391b4ded9146106a257806391b8d34a146106b7578063978bbdb9146106d7576103a6565b80638c64ea4a1461063d5780638cd21d7c1461066d5780638da5cb5b1461068d576103a6565b80634be2822c1161028a5780637b44b4fd116102335780638146b09f1161020d5780638146b09f146105de57806382564bca146105f35780638456cb59146106085780638632cb031461061d576103a6565b80637b44b4fd1461059f5780637dc0d1d0146105b45780637f07b130146105c9576103a6565b8063713d517f11610264578063713d517f14610548578063715018a6146105685780637691c4ac1461057d576103a6565b80634be2822c14610509578063607ad0d71461051e57806363b38ae414610533576103a6565b8063377a1936116102f7578063441a3e70116102d1578063441a3e70146104ac5780634468c022146104bf57806345596e2e146104d457806346904840146104f4576103a6565b8063377a19361461044a5780633fc8cef31461046a5780634394318d1461048c576103a6565b8063200f4b8d11610328578063200f4b8d1461040b57806324f5f531146104205780632d8f1d9014610435576103a6565b806307633669146103ab57806310b9e583146103c057806315aded83146103d5576103a6565b366103a657336001600160a01b037f000000000000000000000000000000000000000000000000000000000000000016146103a45760405162461bcd60e51b815260040161039b90615461565b60405180910390fd5b005b600080fd5b3480156103b757600080fd5b506103a461090e565b3480156103cc57600080fd5b506103a46109d9565b3480156103e157600080fd5b506103f56103f0366004615094565b610b38565b6040516104029190615744565b60405180910390f35b34801561041757600080fd5b506103a4610bcf565b34801561042c57600080fd5b506103f5610c02565b34801561044157600080fd5b506103a4610c12565b34801561045657600080fd5b506103f5610465366004615094565b610d78565b34801561047657600080fd5b5061047f610e4c565b60405161040291906151ab565b34801561049857600080fd5b506103f56104a7366004615069565b610e70565b6103a46104ba366004615025565b610eb3565b3480156104cb57600080fd5b5061047f610f84565b3480156104e057600080fd5b506103a46104ef366004614f8f565b610fa8565b34801561050057600080fd5b5061047f6110a5565b34801561051557600080fd5b506103f56110b4565b34801561052a57600080fd5b506103f56110ba565b34801561053f57600080fd5b506103f56110de565b34801561055457600080fd5b506103a4610563366004614f8f565b6110e4565b34801561057457600080fd5b506103a46111a9565b34801561058957600080fd5b50610592611274565b6040516104029190615278565b3480156105ab57600080fd5b506103f5611282565b3480156105c057600080fd5b5061047f611289565b3480156105d557600080fd5b5061047f6112ad565b3480156105ea57600080fd5b506103a46112d1565b3480156105ff57600080fd5b5061047f611341565b34801561061457600080fd5b506103a4611365565b34801561062957600080fd5b506103a4610638366004615069565b6114b6565b34801561064957600080fd5b5061065d610658366004614f8f565b6114ec565b6040516104029493929190615235565b34801561067957600080fd5b506103f5610688366004615094565b61153e565b34801561069957600080fd5b5061047f6115cd565b3480156106ae57600080fd5b506103f56115dc565b3480156106c357600080fd5b506103a46106d2366004615025565b6115e2565b3480156106e357600080fd5b506103f5611694565b3480156106f857600080fd5b506103a4610707366004614f8f565b61169a565b34801561071857600080fd5b5061047f6117d3565b34801561072d57600080fd5b5061059261073c366004614f8f565b6117f7565b34801561074d57600080fd5b506103a461075c366004614f8f565b61187e565b6103a461076f366004614f8f565b611941565b34801561078057600080fd5b5061047f6119fc565b34801561079557600080fd5b506103a46107a4366004614fbf565b611a20565b3480156107b557600080fd5b506103a46107c4366004614f8f565b611b56565b6103f56107d7366004614fee565b611ccd565b3480156107e857600080fd5b506103f56107f7366004615025565b611d1c565b34801561080857600080fd5b506103f5611f44565b34801561081d57600080fd5b506103f5611f4a565b34801561083257600080fd5b5061047f611f50565b34801561084757600080fd5b506103a4610856366004614f1d565b611f74565b6103a4612084565b34801561086f57600080fd5b506103f561087e366004615094565b6120a8565b34801561088f57600080fd5b506103a461089e366004614f1d565b612185565b6108b66108b1366004614fee565b6122a6565b604051610402929190615764565b3480156108d057600080fd5b506103f56122f8565b3480156108e557600080fd5b506103a46108f4366004614f8f565b6122ff565b34801561090557600080fd5b5061059261243d565b60085460ff16156109315760405162461bcd60e51b815260040161039b90615498565b600854610100900460ff166109585760405162461bcd60e51b815260040161039b906153bc565b610960612446565b6001600160a01b03166109716115cd565b6001600160a01b0316146109cc576040805162461bcd60e51b815260206004820181905260248201527f4f776e61626c653a2063616c6c6572206973206e6f7420746865206f776e6572604482015290519081900360640190fd5b6008805461ff0019169055565b60085460ff16156109fc5760405162461bcd60e51b815260040161039b90615498565b600854610100900460ff16610a235760405162461bcd60e51b815260040161039b906153bc565b610a2b612446565b6001600160a01b0316610a3c6115cd565b6001600160a01b031614610a97576040805162461bcd60e51b815260206004820181905260248201527f4f776e61626c653a2063616c6c6572206973206e6f7420746865206f776e6572604482015290519081900360640190fd5b6008805460ff19166001179055610b337f00000000000000000000000000000000000000000000000000000000000000007f00000000000000000000000000000000000000000000000000000000000000007f00000000000000000000000000000000000000000000000000000000000000007f000000000000000000000000000000000000000000000000000000000000000061025861244a565b600355565b6000610bc7827f00000000000000000000000000000000000000000000000000000000000000007f00000000000000000000000000000000000000000000000000000000000000007f00000000000000000000000000000000000000000000000000000000000000007f0000000000000000000000000000000000000000000000000000000000000000612473565b90505b919050565b600854610100900460ff1615610bf75760405162461bcd60e51b815260040161039b90615283565b610bff6124a1565b50565b6000610c0c61250d565b90505b90565b60085460ff1615610c355760405162461bcd60e51b815260040161039b90615498565b600854610100900460ff1615610c5d5760405162461bcd60e51b815260040161039b90615283565b610c65612446565b6001600160a01b0316610c766115cd565b6001600160a01b031614610cd1576040805162461bcd60e51b815260206004820181905260248201527f4f776e61626c653a2063616c6c6572206973206e6f7420746865206f776e6572604482015290519081900360640190fd5b6008805460ff1961ff001990911661010017166001179055610b337f00000000000000000000000000000000000000000000000000000000000000007f00000000000000000000000000000000000000000000000000000000000000007f00000000000000000000000000000000000000000000000000000000000000007f000000000000000000000000000000000000000000000000000000000000000061025861244a565b6000610bc7827f00000000000000000000000000000000000000000000000000000000000000007f00000000000000000000000000000000000000000000000000000000000000007f00000000000000000000000000000000000000000000000000000000000000007f00000000000000000000000000000000000000000000000000000000000000007f00000000000000000000000000000000000000000000000000000000000000007f000000000000000000000000000000000000000000000000000000000000000060045461278b565b7f000000000000000000000000000000000000000000000000000000000000000081565b600854600090610100900460ff1615610e9b5760405162461bcd60e51b815260040161039b90615283565b610ea93385858560006127cb565b90505b9392505050565b600854610100900460ff1615610edb5760405162461bcd60e51b815260040161039b90615283565b6000610ee56124a1565b600084815260096020908152604091829020825160808101845281546001600160a01b0381168252600160a01b900463ffffffff1692810192909252600101546bffffffffffffffffffffffff811692820192909252600160601b9091046001600160801b03166060820152909150610f60813386866128c9565b610f6a818361293b565b610f748482612987565b610f7e3384612a7f565b50505050565b7f000000000000000000000000000000000000000000000000000000000000000081565b610fb0612446565b6001600160a01b0316610fc16115cd565b6001600160a01b03161461101c576040805162461bcd60e51b815260206004820181905260248201527f4f776e61626c653a2063616c6c6572206973206e6f7420746865206f776e6572604482015290519081900360640190fd5b6001546001600160a01b03166110445760405162461bcd60e51b815260040161039b906155e2565b60648111156110655760405162461bcd60e51b815260040161039b906153f3565b7f14914da2bf76024616fbe1859783fcd4dbddcb179b1f3a854949fbf920dcb95760025482604051611098929190615764565b60405180910390a1600255565b6001546001600160a01b031681565b60055481565b7f000000000000000000000000000000000000000000000000000000000000000081565b60065481565b600854610100900460ff161561110c5760405162461bcd60e51b815260040161039b90615283565b60006111166124a1565b600083815260096020908152604091829020825160808101845281546001600160a01b0381168252600160a01b900463ffffffff1692810192909252600101546bffffffffffffffffffffffff811692820192909252600160601b9091046001600160801b03166060820152909150611190813385612b64565b61119a818361293b565b6111a48382612987565b505050565b6111b1612446565b6001600160a01b03166111c26115cd565b6001600160a01b03161461121d576040805162461bcd60e51b815260206004820181905260248201527f4f776e61626c653a2063616c6c6572206973206e6f7420746865206f776e6572604482015290519081900360640190fd5b600080546040516001600160a01b03909116907f8be0079c531659141344cd1fd0a4f28419497f9722a3daafe3b4186f6b6457e0908390a36000805473ffffffffffffffffffffffffffffffffffffffff19169055565b600854610100900460ff1681565b62eff10081565b7f000000000000000000000000000000000000000000000000000000000000000081565b7f000000000000000000000000000000000000000000000000000000000000000081565b60085460ff16156112f45760405162461bcd60e51b815260040161039b90615498565b600854610100900460ff1661131b5760405162461bcd60e51b815260040161039b906153bc565b600754620151800142116109cc5760405162461bcd60e51b815260040161039b906152f1565b7f000000000000000000000000000000000000000000000000000000000000000081565b60085460ff16156113885760405162461bcd60e51b815260040161039b90615498565b600854610100900460ff16156113b05760405162461bcd60e51b815260040161039b90615283565b6113b8612446565b6001600160a01b03166113c96115cd565b6001600160a01b031614611424576040805162461bcd60e51b815260206004820181905260248201527f4f776e61626c653a2063616c6c6572206973206e6f7420746865206f776e6572604482015290519081900360640190fd5b6000600654116114465760405162461bcd60e51b815260040161039b90615574565b6000611472427f0000000000000000000000000000000000000000000000000000000000000000612c6a565b905062eff10081106114965760405162461bcd60e51b815260040161039b90615385565b506008805461ff0019166101001790556006805460001901905542600755565b600854610100900460ff16156114de5760405162461bcd60e51b815260040161039b90615283565b610f7e3384848460016127cb565b600960205260009081526040902080546001909101546001600160a01b03821691600160a01b900463ffffffff16906bffffffffffffffffffffffff811690600160601b90046001600160801b031684565b6000610bc7827f00000000000000000000000000000000000000000000000000000000000000007f00000000000000000000000000000000000000000000000000000000000000007f00000000000000000000000000000000000000000000000000000000000000007f0000000000000000000000000000000000000000000000000000000000000000612cc7565b6000546001600160a01b031690565b60075481565b600854610100900460ff161561160a5760405162461bcd60e51b815260040161039b90615283565b61161382612cd7565b61161b6124a1565b50600082815260096020908152604091829020825160808101845281546001600160a01b0381168252600160a01b900463ffffffff1692810192909252600101546bffffffffffffffffffffffff811692820192909252600160601b9091046001600160801b0316606082015261119a81338585612d92565b60025481565b60085460ff166116bc5760405162461bcd60e51b815260040161039b90615650565b6116c68133612e71565b6116e25760405162461bcd60e51b815260040161039b90615506565b6000818152600960209081526040808320815160808101835281546001600160a01b0381168252600160a01b900463ffffffff1693810193909352600101546bffffffffffffffffffffffff811691830191909152600160601b90046001600160801b03166060820152600454909161176090839033908490612f4b565b50600061177f83606001516001600160801b031660035460045461326f565b905060006117a88285604001516bffffffffffffffffffffffff16612c6a90919063ffffffff16565b600060608601819052604086015290506117c28585612987565b6117cc3382612a7f565b5050505050565b7f000000000000000000000000000000000000000000000000000000000000000081565b6000818152600960209081526040808320815160808101835281546001600160a01b0381168252600160a01b900463ffffffff1693810193909352600101546bffffffffffffffffffffffff811691830191909152600160601b90046001600160801b031660608201528161186a61250d565b90506118768282613292565b949350505050565b60085460ff166118a05760405162461bcd60e51b815260040161039b90615650565b604051632770a7eb60e21b81526001600160a01b037f00000000000000000000000000000000000000000000000000000000000000001690639dc29fac906118ee90339085906004016151e3565b600060405180830381600087803b15801561190857600080fd5b505af115801561191c573d6000803e3d6000fd5b5050505060006119318260035460045461326f565b905061193d3382612a7f565b5050565b600854610100900460ff16156119695760405162461bcd60e51b815260040161039b90615283565b61197281612cd7565b61197a6124a1565b50600081815260096020908152604091829020825160808101845281546001600160a01b0381168252600160a01b900463ffffffff1692810192909252600101546bffffffffffffffffffffffff811692820192909252600160601b9091046001600160801b031660608201526119f28183346132a8565b61193d8282612987565b7f000000000000000000000000000000000000000000000000000000000000000081565b6040516331a9108f60e11b815233907f00000000000000000000000000000000000000000000000000000000000000006001600160a01b031690636352211e90611a6e908690600401615744565b60206040518083038186803b158015611a8657600080fd5b505afa158015611a9a573d6000803e3d6000fd5b505050506040513d601f19601f82011682018060405250810190611abe9190614f39565b6001600160a01b031614611ae45760405162461bcd60e51b815260040161039b90615506565b60008281526009602052604090819020805473ffffffffffffffffffffffffffffffffffffffff19166001600160a01b038416179055517f9d9dd80a56a16f715df6eb40b771e24ff8cbea6eed9de28473ce0f28fe5602a990611b4a908490849061574d565b60405180910390a15050565b600854610100900460ff1615611b7e5760405162461bcd60e51b815260040161039b90615283565b611b888133612e71565b611ba45760405162461bcd60e51b815260040161039b90615506565b6000611bae6124a1565b600083815260096020908152604091829020825160808101845281546001600160a01b038082168352600160a01b90910463ffffffff16938201939093526001909101546bffffffffffffffffffffffff811682850152600160601b90046001600160801b0316606082015291516331a9108f60e11b81529293509091611cc29183917f000000000000000000000000000000000000000000000000000000000000000090911690636352211e90611c6a908890600401615744565b60206040518083038186803b158015611c8257600080fd5b505afa158015611c96573d6000803e3d6000fd5b505050506040513d601f19601f82011682018060405250810190611cba9190614f39565b846000612f4b565b506111a48382612987565b600854600090610100900460ff1615611cf85760405162461bcd60e51b815260040161039b90615283565b6000611d123386866001600160801b0316348760016132f3565b5095945050505050565b600854600090610100900460ff1615611d475760405162461bcd60e51b815260040161039b90615283565b611d5083612cd7565b6000611d5a6124a1565b600085815260096020908152604091829020825160808101845281546001600160a01b0381168252600160a01b900463ffffffff1692810192909252600101546bffffffffffffffffffffffff811692820192909252600160601b9091046001600160801b03166060820152909150611dd38183613292565b15611df05760405162461bcd60e51b815260040161039b9061542a565b6000611e9a827f00000000000000000000000000000000000000000000000000000000000000006001600160a01b0316636352211e896040518263ffffffff1660e01b8152600401611e429190615744565b60206040518083038186803b158015611e5a57600080fd5b505afa158015611e6e573d6000803e3d6000fd5b505050506040513d601f19601f82011682018060405250810190611e929190614f39565b856001612f4b565b9050611ea68284613292565b15611ecb57611eb58683612987565b611ebf3382612a7f565b60009350505050611f3e565b611ed58282613446565b600080611ee48488873361347d565b915091507f199c51a8cd3b6aa8f80abc4f5c713f20c111837887163a1bbaa2dd5f61a554ab888383604051611f1b93929190615791565b60405180910390a1611f2d8885612987565b611f373382612a7f565b5093505050505b92915050565b60045481565b60035481565b7f000000000000000000000000000000000000000000000000000000000000000081565b611f7c612446565b6001600160a01b0316611f8d6115cd565b6001600160a01b031614611fe8576040805162461bcd60e51b815260206004820181905260248201527f4f776e61626c653a2063616c6c6572206973206e6f7420746865206f776e6572604482015290519081900360640190fd5b6001600160a01b03811661200e5760405162461bcd60e51b815260040161039b906152ba565b6001546040517faaebcf1bfa00580e41d966056b48521fa9f202645c86d4ddf28113e617c1b1d39161204d916001600160a01b039091169084906151fc565b60405180910390a16001805473ffffffffffffffffffffffffffffffffffffffff19166001600160a01b0392909216919091179055565b60085460ff166120a65760405162461bcd60e51b815260040161039b90615650565b565b6000806120b361250d565b9050610eac837f00000000000000000000000000000000000000000000000000000000000000007f00000000000000000000000000000000000000000000000000000000000000007f00000000000000000000000000000000000000000000000000000000000000007f00000000000000000000000000000000000000000000000000000000000000007f00000000000000000000000000000000000000000000000000000000000000007f00000000000000000000000000000000000000000000000000000000000000008861278b565b61218d612446565b6001600160a01b031661219e6115cd565b6001600160a01b0316146121f9576040805162461bcd60e51b815260206004820181905260248201527f4f776e61626c653a2063616c6c6572206973206e6f7420746865206f776e6572604482015290519081900360640190fd5b6001600160a01b03811661223e5760405162461bcd60e51b81526004018080602001828103825260268152602001806157e46026913960400191505060405180910390fd5b600080546040516001600160a01b03808516939216917f8be0079c531659141344cd1fd0a4f28419497f9722a3daafe3b4186f6b6457e091a36000805473ffffffffffffffffffffffffffffffffffffffff19166001600160a01b0392909216919091179055565b6008546000908190610100900460ff16156122d35760405162461bcd60e51b815260040161039b90615283565b6122eb3386866001600160801b0316348760006132f3565b915091505b935093915050565b6201518081565b60085460ff166123215760405162461bcd60e51b815260040161039b90615650565b600081815260096020908152604091829020825160808101845281546001600160a01b038082168352600160a01b90910463ffffffff16938201939093526001909101546bffffffffffffffffffffffff811682850152600160601b90046001600160801b0316606082015291516331a9108f60e11b81526124329183917f000000000000000000000000000000000000000000000000000000000000000090911690636352211e906123d8908790600401615744565b60206040518083038186803b1580156123f057600080fd5b505afa158015612404573d6000803e3d6000fd5b505050506040513d601f19601f820116820180604052508101906124289190614f39565b6004546000612f4b565b5061193d8282612987565b60085460ff1681565b3390565b60008061245a87878787876135fb565b9050612468816127106136b1565b979650505050505050565b600080612483868686868b6135fb565b9050612468670de0b6b3a764000061249b8380613718565b906136b1565b60004260055414156124b65750600454610c0f565b60006124c061250d565b90507fa5e6eb88e05b1ccc7e1a9a5096d0a5b8aef97d5204e0ad78ffda42affd8374a860045482426040516124f793929190615791565b60405180910390a1600481905542600555905090565b60008061252560055442612c6a90919063ffffffff16565b905063ffffffff811661253c575050600454610c0f565b600061254782613771565b600454909150600061261f837f00000000000000000000000000000000000000000000000000000000000000007f00000000000000000000000000000000000000000000000000000000000000007f00000000000000000000000000000000000000000000000000000000000000007f00000000000000000000000000000000000000000000000000000000000000007f00000000000000000000000000000000000000000000000000000000000000007f00000000000000000000000000000000000000000000000000000000000000008961278b565b905060006126b0847f00000000000000000000000000000000000000000000000000000000000000007f00000000000000000000000000000000000000000000000000000000000000007f00000000000000000000000000000000000000000000000000000000000000007f0000000000000000000000000000000000000000000000000000000000000000612cc7565b905060006126d66201518061249b670de0b6b3a764000063ffffffff808b169061371816565b905060006126ea600561249b856004613718565b9050808410156126f8578093505b600061270a600461249b866005613718565b905080851115612718578094505b600061276561274c61272a8787613718565b61274689612740670de0b6b3a76400008a613797565b90613718565b90612c6a565b61249b886ec097ce7bc90715b34b9f1000000000613718565b905061277d670de0b6b3a764000061249b8984613718565b995050505050505050505090565b60008061279b898888888e6137f1565b905060006127ac8a8a878a8f6137fd565b90506127bc8461249b8385613718565b9b9a5050505050505050505050565b60006127d685612cd7565b60006127e06124a1565b9050600083612804576127ff8261249b88670de0b6b3a7640000613718565b612806565b855b600088815260096020908152604091829020825160808101845281546001600160a01b0381168252600160a01b900463ffffffff1692810192909252600101546bffffffffffffffffffffffff811692820192909252600160601b9091046001600160801b03166060820152909150811561288757612887818a8a8561387d565b851561289957612899818a8a896128c9565b6128a3818461293b565b6128ad8882612987565b85156128bd576128bd3387612a7f565b50979650505050505050565b6128d38284612e71565b6128ef5760405162461bcd60e51b815260040161039b90615506565b6128f98482613938565b7ffd6fe60d4c49c077689d373f95adff80f09e02e5f719b842f6e3cfc812546a908282600060405161292d93929190615772565b60405180910390a150505050565b6000806129488484613955565b91509150816129695760405162461bcd60e51b815260040161039b906154cf565b8015610f7e5760405162461bcd60e51b815260040161039b90615619565b600091825260096020908152604092839020825181549284015163ffffffff16600160a01b027fffffffffffffffff00000000ffffffffffffffffffffffffffffffffffffffff6001600160a01b0390921673ffffffffffffffffffffffffffffffffffffffff19909416939093171691909117815591810151600190920180546060909201516001600160801b0316600160601b027fffffffff00000000000000000000000000000000ffffffffffffffffffffffff6bffffffffffffffffffffffff9094167fffffffffffffffffffffffffffffffffffffffff0000000000000000000000009093169290921792909216179055565b80471015612ad4576040805162461bcd60e51b815260206004820152601d60248201527f416464726573733a20696e73756666696369656e742062616c616e6365000000604482015290519081900360640190fd5b6040516000906001600160a01b0384169083908381818185875af1925050503d8060008114612b1f576040519150601f19603f3d011682016040523d82523d6000602084013e612b24565b606091505b50509050806111a45760405162461bcd60e51b815260040180806020018281038252603a81526020018061580a603a913960400191505060405180910390fd5b612b6e8183612e71565b612b8a5760405162461bcd60e51b815260040161039b90615506565b602083015163ffffffff16612b9e84613b47565b6040517f23b872dd0000000000000000000000000000000000000000000000000000000081526001600160a01b037f000000000000000000000000000000000000000000000000000000000000000016906323b872dd90612c07903090879086906004016151bf565b600060405180830381600087803b158015612c2157600080fd5b505af1158015612c35573d6000803e3d6000fd5b505050507fe408b929e3c702ebaee90bb2112c954eabc66448f7d3e6a26faf67e40af3666b828260405161292d929190615764565b600082821115612cc1576040805162461bcd60e51b815260206004820152601e60248201527f536166654d6174683a207375627472616374696f6e206f766572666c6f770000604482015290519081900360640190fd5b50900390565b600080612483868686868b61244a565b600081118015612d7657507f00000000000000000000000000000000000000000000000000000000000000006001600160a01b03166361b8ce8c6040518163ffffffff1660e01b815260040160206040518083038186803b158015612d3b57600080fd5b505afa158015612d4f573d6000803e3d6000fd5b505050506040513d601f19601f82011682018060405250810190612d739190614fa7565b81105b610bff5760405162461bcd60e51b815260040161039b9061534e565b612d9b81613bad565b612da58482613d2b565b6040517f23b872dd0000000000000000000000000000000000000000000000000000000081526001600160a01b037f000000000000000000000000000000000000000000000000000000000000000016906323b872dd90612e0e908690309086906004016151bf565b600060405180830381600087803b158015612e2857600080fd5b505af1158015612e3c573d6000803e3d6000fd5b505050507fa73a85546850efb41a3bae76ec46116507eaa88fef566468556ce065e24519a4828260405161292d929190615764565b6000816001600160a01b03167f00000000000000000000000000000000000000000000000000000000000000006001600160a01b0316636352211e856040518263ffffffff1660e01b8152600401612ec99190615744565b60206040518083038186803b158015612ee157600080fd5b505afa158015612ef5573d6000803e3d6000fd5b505050506040513d601f19601f82011682018060405250810190612f199190614f39565b6001600160a01b03161480610eac575050600091825260096020526040909120546001600160a01b0390811691161490565b602084015160009063ffffffff1680612f68576000915050611876565b600080612f7483613de8565b90925090508115613017576040517f2e1a7d4d0000000000000000000000000000000000000000000000000000000081526001600160a01b037f00000000000000000000000000000000000000000000000000000000000000001690632e1a7d4d90612fe4908590600401615744565b600060405180830381600087803b158015612ffe57600080fd5b505af1158015613012573d6000803e3d6000fd5b505050505b600085156130cf5760006130b9846130b3857f00000000000000000000000000000000000000000000000000000000000000007f00000000000000000000000000000000000000000000000000000000000000007f00000000000000000000000000000000000000000000000000000000000000007f00000000000000000000000000000000000000000000000000000000000000008f61402d565b90613797565b90506130cb606461249b836002613718565b9150505b6130d889613b47565b6130e28984613446565b6130ec8982613938565b88606001516001600160801b03168211156131d85760006131238a606001516001600160801b031684612c6a90919063ffffffff16565b905089606001516001600160801b031692507f00000000000000000000000000000000000000000000000000000000000000006001600160a01b031663a9059cbb8a836040518363ffffffff1660e01b81526004016131839291906151e3565b602060405180830381600087803b15801561319d57600080fd5b505af11580156131b1573d6000803e3d6000fd5b505050506040513d601f19601f820116820180604052508101906131d59190614f55565b50505b6131e28983614070565b604051632770a7eb60e21b81526001600160a01b037f00000000000000000000000000000000000000000000000000000000000000001690639dc29fac9061323090309086906004016151e3565b600060405180830381600087803b15801561324a57600080fd5b505af115801561325e573d6000803e3d6000fd5b50929b9a5050505050505050505050565b6000610ea96ec097ce7bc90715b34b9f100000000061249b856127408887613718565b60008061329f8484613955565b50949350505050565b6132b28382613446565b7f7a0373b035a03ee781adee2e2f1920bf98084e3485bfdd8a99acf44fd0feaace828260006040516132e693929190615772565b60405180910390a1505050565b60008060006133006124a1565b905085600085613325576133208361249b8b670de0b6b3a7640000613718565b613327565b885b90506000613333614ebb565b8b61334b576133418d61409d565b909c5090506133b9565b5060008b815260096020908152604091829020825160808101845281546001600160a01b0381168252600160a01b900463ffffffff1692810192909252600101546bffffffffffffffffffffffff811692820192909252600160601b9091046001600160801b031660608201525b82156133cf576133ca81848c6141c7565b945091505b89156133e0576133e0818d866132a8565b88156133f2576133f2818e8e8c612d92565b821561340457613404818e8e866142bf565b61340e818661293b565b6134188c82612987565b821561343457600154613434906001600160a01b031683612a7f565b50999b909a5098505050505050505050565b6040820151613463906bffffffffffffffffffffffff1682613797565b6bffffffffffffffffffffffff1660409092019190915250565b6060840151604085015160009182916001600160801b03909116906bffffffffffffffffffffffff1682806134bd896134b78660026136b1565b8a6143b9565b91509150808311156134f3576706f05b59d3b200006134dc8483612c6a565b10156134f3576134ed89858a6143b9565b90925090505b82811115613521578389101561351b5760405162461bcd60e51b815260040161039b906155ab565b50829050815b604051632770a7eb60e21b81526001600160a01b037f00000000000000000000000000000000000000000000000000000000000000001690639dc29fac9061356f908a9086906004016151e3565b600060405180830381600087803b15801561358957600080fd5b505af115801561359d573d6000803e3d6000fd5b505050506135b4828b61407090919063ffffffff16565b6135be8a82613938565b60006135ca8b8a613955565b91505080156135eb5760405162461bcd60e51b815260040161039b9061553d565b5090999098509650505050505050565b604080517f821b972a0000000000000000000000000000000000000000000000000000000081526001600160a01b0386811660048301528581166024830152848116604483015263ffffffff84166064830152915160009288169163821b972a916084808301926020929190829003018186803b15801561367b57600080fd5b505afa15801561368f573d6000803e3d6000fd5b505050506040513d60208110156136a557600080fd5b50519695505050505050565b6000808211613707576040805162461bcd60e51b815260206004820152601a60248201527f536166654d6174683a206469766973696f6e206279207a65726f000000000000604482015290519081900360640190fd5b81838161371057fe5b049392505050565b60008261372757506000611f3e565b8282028284828161373457fe5b0414610eac5760405162461bcd60e51b81526004018080602001828103825260218152602001806158446021913960400191505060405180910390fd5b60008061377c614484565b90508063ffffffff168363ffffffff1611611f3e5782610eac565b600082820183811015610eac576040805162461bcd60e51b815260206004820152601b60248201527f536166654d6174683a206164646974696f6e206f766572666c6f770000000000604482015290519081900360640190fd5b60008061245a87878787875b604080517fd6906e6d0000000000000000000000000000000000000000000000000000000081526001600160a01b0386811660048301528581166024830152848116604483015263ffffffff84166064830152915160009288169163d6906e6d916084808301926020929190829003018186803b15801561367b57600080fd5b6138878482614070565b604051632770a7eb60e21b81526001600160a01b037f00000000000000000000000000000000000000000000000000000000000000001690639dc29fac906138d590869085906004016151e3565b600060405180830381600087803b1580156138ef57600080fd5b505af1158015613903573d6000803e3d6000fd5b505050507fc3fe83ab1ba331ef06ed00bc6f8615de1577dc77772a83e3264864de6a94ea8d818360405161292d929190615764565b6040820151613463906bffffffffffffffffffffffff1682612c6a565b60008060006139e97f00000000000000000000000000000000000000000000000000000000000000007f00000000000000000000000000000000000000000000000000000000000000007f00000000000000000000000000000000000000000000000000000000000000007f000000000000000000000000000000000000000000000000000000000000000061012c6137f1565b905060007f00000000000000000000000000000000000000000000000000000000000000006001600160a01b0316634a0a96eb7f000000000000000000000000000000000000000000000000000000000000000061012c6040518363ffffffff1660e01b8152600401613a5d929190615216565b60206040518083038186803b158015613a7557600080fd5b505afa158015613a89573d6000803e3d6000fd5b505050506040513d601f19601f82011682018060405250810190613aad9190614f75565b9050613b3a867f000000000000000000000000000000000000000000000000000000000000000087856706f05b59d3b20000867f00000000000000000000000000000000000000000000000000000000000000006001600160a01b03167f00000000000000000000000000000000000000000000000000000000000000006001600160a01b031610614627565b9350935050509250929050565b602081015163ffffffff16613ba3576040805162461bcd60e51b815260206004820152601060248201527f5661756c7420686173206e6f204e465400000000000000000000000000000000604482015290519081900360640190fd5b6000602090910152565b6000807f00000000000000000000000000000000000000000000000000000000000000006001600160a01b03166399fbab88846040518263ffffffff1660e01b8152600401613bfc9190615744565b6101806040518083038186803b158015613c1557600080fd5b505afa158015613c29573d6000803e3d6000fd5b505050506040513d601f19601f82011682018060405250810190613c4d91906150cc565b505050505050505093509350505060007f0000000000000000000000000000000000000000000000000000000000000000905060007f00000000000000000000000000000000000000000000000000000000000000009050816001600160a01b0316846001600160a01b0316148015613cd75750806001600160a01b0316836001600160a01b0316145b80613d0f5750816001600160a01b0316836001600160a01b0316148015613d0f5750806001600160a01b0316846001600160a01b0316145b6117cc5760405162461bcd60e51b815260040161039b90615687565b602082015163ffffffff1615613d88576040805162461bcd60e51b815260206004820152601560248201527f5661756c7420616c726561647920686164206e66740000000000000000000000604482015290519081900360640190fd5b80613dda576040805162461bcd60e51b815260206004820152601060248201527f496e76616c696420746f6b656e20696400000000000000000000000000000000604482015290519081900360640190fd5b63ffffffff16602090910152565b6000807f000000000000000000000000000000000000000000000000000000000000000081613e17828661466c565b9250505060006040518060a00160405280878152602001836001600160801b031681526020016000815260200160008152602001428152509050600080846001600160a01b0316630c49ccbe846040518263ffffffff1660e01b8152600401613e809190615701565b6040805180830381600087803b158015613e9957600080fd5b505af1158015613ead573d6000803e3d6000fd5b505050506040513d601f19601f82011682018060405250810190613ed19190615046565b604080516080810182528b81523060208201526001600160801b03808516828401528316606082015290517ffc6f78650000000000000000000000000000000000000000000000000000000081529294509092509060009081906001600160a01b0389169063fc6f786590613f4a9086906004016156be565b6040805180830381600087803b158015613f6357600080fd5b505af1158015613f77573d6000803e3d6000fd5b505050506040513d601f19601f82011682018060405250810190613f9b9190615046565b9150915060007f00000000000000000000000000000000000000000000000000000000000000006001600160a01b03167f00000000000000000000000000000000000000000000000000000000000000006001600160a01b03161090506000816140055782614007565b835b90506000826140165784614018565b835b919c50909a5050505050505050505050915091565b60008061403f8787878761025861244a565b90506140626ec097ce7bc90715b34b9f100000000061249b836127408c88613718565b9150505b9695505050505050565b6060820151614088906001600160801b031682612c6a565b6001600160801b031660609092019190915250565b60006140a7614ebb565b6040517f54ba0f270000000000000000000000000000000000000000000000000000000081526000906001600160a01b037f000000000000000000000000000000000000000000000000000000000000000016906354ba0f279061410f9087906004016151ab565b602060405180830381600087803b15801561412957600080fd5b505af115801561413d573d6000803e3d6000fd5b505050506040513d601f19601f820116820180604052508101906141619190614fa7565b6040805160808101825260008082526020820181905281830181905260608201529051919250907f5f5dd6438bd675e0dba85db7517ba5931be5b31a11e5af8c04ea0e9152fa7ec5906141b5908490615744565b60405180910390a19092509050915091565b6002546000908190806141e15760008492509250506122f0565b600080614274877f00000000000000000000000000000000000000000000000000000000000000007f00000000000000000000000000000000000000000000000000000000000000007f00000000000000000000000000000000000000000000000000000000000000007f000000000000000000000000000000000000000000000000000000000000000060045461402d565b9050600061428861271061249b8487613718565b9050808711156142a35761429c8782612c6a565b92506142b1565b6142ad8982613938565b8692505b989197509095505050505050565b6142c98284612e71565b6142e55760405162461bcd60e51b815260040161039b90615506565b6142ef848261470c565b6040517f40c10f190000000000000000000000000000000000000000000000000000000081526001600160a01b037f000000000000000000000000000000000000000000000000000000000000000016906340c10f199061435690869085906004016151e3565b600060405180830381600087803b15801561437057600080fd5b505af1158015614384573d6000803e3d6000fd5b505050507f0dd703a01208414af8d8c0d38f96263f1c708720550808d8af1985608014387a818360405161292d929190615764565b60008060008486116143cb57856143cd565b845b9050600061445f827f00000000000000000000000000000000000000000000000000000000000000007f00000000000000000000000000000000000000000000000000000000000000007f00000000000000000000000000000000000000000000000000000000000000007f00000000000000000000000000000000000000000000000000000000000000008a61402d565b905061447661446f82600a6136b1565b8290613797565b919791965090945050505050565b6000807f00000000000000000000000000000000000000000000000000000000000000006001600160a01b031663de5a6e227f00000000000000000000000000000000000000000000000000000000000000006040518263ffffffff1660e01b81526004016144f391906151ab565b60206040518083038186803b15801561450b57600080fd5b505afa15801561451f573d6000803e3d6000fd5b505050506040513d601f19601f8201168201806040525081019061454391906150b0565b905060007f00000000000000000000000000000000000000000000000000000000000000006001600160a01b031663de5a6e227f00000000000000000000000000000000000000000000000000000000000000006040518263ffffffff1660e01b81526004016145b391906151ab565b60206040518083038186803b1580156145cb57600080fd5b505afa1580156145df573d6000803e3d6000fd5b505050506040513d601f19601f8201168201806040525081019061460391906150b0565b90508063ffffffff168263ffffffff161161461e5781614620565b805b9250505090565b60008088606001516001600160801b03166000141561464c5750600190506000614660565b61465b89898989898989614724565b915091505b97509795505050505050565b6000806000808590506000806000836001600160a01b03166399fbab88896040518263ffffffff1660e01b8152600401808281526020019150506101806040518083038186803b1580156146bf57600080fd5b505afa1580156146d3573d6000803e3d6000fd5b505050506040513d6101808110156146ea57600080fd5b5060a081015160c082015160e090920151909b919a5098509650505050505050565b6060820151614088906001600160801b031682613797565b60008060006147606ec097ce7bc90715b34b9f100000000061249b896127408c8f606001516001600160801b031661371890919063ffffffff16565b905060006147728b8b8b8b8a8a6147a4565b90508681106000614784846003613718565b61478f846002613718565b10159d919c50909a5050505050505050505050565b6000866020015163ffffffff16600014156147d2575060408601516bffffffffffffffffffffffff16614066565b6000806147eb888a6020015163ffffffff168787614845565b909250905060006148136ec097ce7bc90715b34b9f100000000061249b89612740868d613718565b60408b0151909150614837906bffffffffffffffffffffffff166130b38584613797565b9a9950505050505050505050565b6000806000806000614857898961466c565b92509250925060008061486c85858b8661489c565b915091508761487b578061487d565b815b88614888578261488a565b815b96509650505050505094509492505050565b60008060006148aa85614941565b90508660020b8560020b12156148de576148d76148c688614941565b6148cf88614941565b866001614c9c565b9250614937565b8560020b8560020b1215614917576148f9816148cf88614941565b925061491061490788614941565b82866001614d4e565b9150614937565b61493461492388614941565b61492c88614941565b866001614d4e565b91505b5094509492505050565b60008060008360020b12614958578260020b614960565b8260020b6000035b9050620d89e88111156149ba576040805162461bcd60e51b815260206004820152600160248201527f5400000000000000000000000000000000000000000000000000000000000000604482015290519081900360640190fd5b6000600182166149db577001000000000000000000000000000000006149ed565b6ffffcb933bd6fad37aa2d162d1a5940015b70ffffffffffffffffffffffffffffffffff1690506002821615614a21576ffff97272373d413259a46990580e213a0260801c5b6004821615614a40576ffff2e50f5f656932ef12357cf3c7fdcc0260801c5b6008821615614a5f576fffe5caca7e10e4e61c3624eaa0941cd00260801c5b6010821615614a7e576fffcb9843d60f6159c9db58835c9266440260801c5b6020821615614a9d576fff973b41fa98c081472e6896dfb254c00260801c5b6040821615614abc576fff2ea16466c96a3843ec78b326b528610260801c5b6080821615614adb576ffe5dee046a99a2a811c461f1969c30530260801c5b610100821615614afb576ffcbe86c7900a88aedcffc83b479aa3a40260801c5b610200821615614b1b576ff987a7253ac413176f2b074cf7815e540260801c5b610400821615614b3b576ff3392b0822b70005940c7a398e4b70f30260801c5b610800821615614b5b576fe7159475a2c29b7443b29c7fa6e889d90260801c5b611000821615614b7b576fd097f3bdfd2022b8845ad8f792aa58250260801c5b612000821615614b9b576fa9f746462d870fdf8a65dc1f90e061e50260801c5b614000821615614bbb576f70d869a156d2a1b890bb3df62baf32f70260801c5b618000821615614bdb576f31be135f97d08fd981231505542fcfa60260801c5b62010000821615614bfc576f09aa508b5b7a84e1c677de54f3e99bc90260801c5b62020000821615614c1c576e5d6af8dedb81196699c329225ee6040260801c5b62040000821615614c3b576d2216e584f5fa1ea926041bedfe980260801c5b62080000821615614c58576b048a170391f7dc42444e8fa20260801c5b60008460020b1315614c73578060001981614c6f57fe5b0490505b640100000000810615614c87576001614c8a565b60005b60ff16602082901c0192505050919050565b6000836001600160a01b0316856001600160a01b03161115614cbc579293925b7bffffffffffffffffffffffffffffffff000000000000000000000000606084901b166001600160a01b038686038116908716614cf857600080fd5b83614d2857866001600160a01b0316614d1b8383896001600160a01b0316614dc7565b81614d2257fe5b04612468565b612468614d3f8383896001600160a01b0316614e76565b886001600160a01b0316614eb0565b6000836001600160a01b0316856001600160a01b03161115614d6e579293925b81614d9b57614d96836001600160801b03168686036001600160a01b0316600160601b614dc7565b614dbe565b614dbe836001600160801b03168686036001600160a01b0316600160601b614e76565b95945050505050565b6000808060001985870986860292508281109083900303905080614dfd5760008411614df257600080fd5b508290049050610eac565b808411614e0957600080fd5b6000848688096000868103871696879004966002600389028118808a02820302808a02820302808a02820302808a02820302808a02820302808a02909103029181900381900460010186841190950394909402919094039290920491909117919091029150509392505050565b6000614e83848484614dc7565b905060008280614e8f57fe5b8486091115610eac576000198110614ea657600080fd5b6001019392505050565b808204910615150190565b60408051608081018252600080825260208201819052918101829052606081019190915290565b8051610bca816157a7565b8051600281900b8114610bca57600080fd5b8051610bca816157bc565b805162ffffff81168114610bca57600080fd5b600060208284031215614f2e578081fd5b8135610eac816157a7565b600060208284031215614f4a578081fd5b8151610eac816157a7565b600060208284031215614f66578081fd5b81518015158114610eac578182fd5b600060208284031215614f86578081fd5b610eac82614eed565b600060208284031215614fa0578081fd5b5035919050565b600060208284031215614fb8578081fd5b5051919050565b60008060408385031215614fd1578081fd5b823591506020830135614fe3816157a7565b809150509250929050565b600080600060608486031215615002578081fd5b833592506020840135615014816157bc565b929592945050506040919091013590565b60008060408385031215615037578182fd5b50508035926020909101359150565b60008060408385031215615058578182fd5b505080516020909101519092909150565b60008060006060848603121561507d578283fd5b505081359360208301359350604090920135919050565b6000602082840312156150a5578081fd5b8135610eac816157d1565b6000602082840312156150c1578081fd5b8151610eac816157d1565b6000806000806000806000806000806000806101808d8f0312156150ee578788fd5b8c516bffffffffffffffffffffffff81168114615109578889fd5b9b5061511760208e01614ee2565b9a5061512560408e01614ee2565b995061513360608e01614ee2565b985061514160808e01614f0a565b975061514f60a08e01614eed565b965061515d60c08e01614eed565b955061516b60e08e01614eff565b94506101008d015193506101208d0151925061518a6101408e01614eff565b91506151996101608e01614eff565b90509295989b509295989b509295989b565b6001600160a01b0391909116815260200190565b6001600160a01b039384168152919092166020820152604081019190915260600190565b6001600160a01b03929092168252602082015260400190565b6001600160a01b0392831681529116602082015260400190565b6001600160a01b0392909216825263ffffffff16602082015260400190565b6001600160a01b0394909416845263ffffffff9290921660208401526bffffffffffffffffffffffff1660408301526001600160801b0316606082015260800190565b901515815260200190565b60208082526006908201527f5061757365640000000000000000000000000000000000000000000000000000604082015260600190565b6020808252600f908201527f496e76616c696420616464726573730000000000000000000000000000000000604082015260600190565b60208082526021908201527f4e6f7420656e6f756768207061757365642074696d652068617320706173736560408201527f6400000000000000000000000000000000000000000000000000000000000000606082015260800190565b60208082526010908201527f496e76616c6964207661756c7420696400000000000000000000000000000000604082015260600190565b60208082526019908201527f50617573652074696d65206c696d697420657863656564656400000000000000604082015260600190565b6020808252600a908201527f4e6f742070617573656400000000000000000000000000000000000000000000604082015260600190565b6020808252600c908201527f46656520746f6f20686967680000000000000000000000000000000000000000604082015260600190565b6020808252601c908201527f43616e206e6f74206c69717569646174652073616665207661756c7400000000604082015260600190565b60208082526012908201527f43616e6e6f742072656365697665206574680000000000000000000000000000604082015260600190565b60208082526008908201527f53687574646f776e000000000000000000000000000000000000000000000000604082015260600190565b6020808252600d908201527f496e76616c696420737461746500000000000000000000000000000000000000604082015260600190565b6020808252600b908201527f4e6f7420616c6c6f776564000000000000000000000000000000000000000000604082015260600190565b6020808252600f908201527f44757374207661756c74206c6566740000000000000000000000000000000000604082015260600190565b60208082526015908201527f50617573656420746f6f206d616e792074696d65730000000000000000000000604082015260600190565b60208082526015908201527f4e6565642066756c6c206c69717569646174696f6e0000000000000000000000604082015260600190565b60208082526017908201527f5365742066656520726563697069656e74206669727374000000000000000000604082015260600190565b6020808252600a908201527f44757374207661756c7400000000000000000000000000000000000000000000604082015260600190565b6020808252600c908201527f4e6f742073687574646f776e0000000000000000000000000000000000000000604082015260600190565b6020808252600b908201527f496e76616c6964206e6674000000000000000000000000000000000000000000604082015260600190565b815181526020808301516001600160a01b0316908201526040808301516001600160801b0390811691830191909152606092830151169181019190915260800190565b600060a082019050825182526001600160801b03602084015116602083015260408301516040830152606083015160608301526080830151608083015292915050565b90815260200190565b9182526001600160a01b0316602082015260400190565b918252602082015260400190565b92835260208301919091526001600160801b0316604082015260600190565b9283526020830191909152604082015260600190565b6001600160a01b0381168114610bff57600080fd5b6001600160801b0381168114610bff57600080fd5b63ffffffff81168114610bff57600080fdfe4f776e61626c653a206e6577206f776e657220697320746865207a65726f2061646472657373416464726573733a20756e61626c6520746f2073656e642076616c75652c20726563697069656e74206d61792068617665207265766572746564536166654d6174683a206d756c7469706c69636174696f6e206f766572666c6f77a264697066735822122081885779e5455b791f73ba3fd432b951cb6128260db834a85f0c7ddbeda0182c64736f6c63430007060033",
  "devdoc": {
    "kind": "dev",
    "methods": {
      "burnPowerPerpAmount(uint256,uint256,uint256)": {
        "params": {
          "_powerPerpAmount": "amount of powerPerp to burn",
          "_vaultId": "id of the vault",
          "_withdrawAmount": "amount of eth to withdraw"
        },
        "returns": {
          "_0": "amount of wPowerPerp burned"
        }
      },
      "burnWPowerPerpAmount(uint256,uint256,uint256)": {
        "params": {
          "_vaultId": "id of the vault",
          "_wPowerPerpAmount": "amount of wPowerPerp to burn",
          "_withdrawAmount": "amount of eth to withdraw"
        }
      },
      "constructor": {
        "params": {
          "_ethQuoteCurrencyPool": "uniswap v3 pool for weth / quoteCurrency",
          "_oracle": "oracle address",
          "_quoteCurrency": "quoteCurrency address",
          "_shortPowerPerp": "ERC721 token address representing the short position",
          "_uniPositionManager": "uniswap v3 position manager address",
          "_wPowerPerp": "ERC20 token address representing the long position",
          "_wPowerPerpPool": "uniswap v3 pool for wPowerPerp / weth",
          "_weth": "weth address"
        }
      },
      "deposit(uint256)": {
        "details": "deposit collateral into a vault",
        "params": {
          "_vaultId": "id of the vault"
        }
      },
      "depositUniPositionToken(uint256,uint256)": {
        "params": {
          "_uniTokenId": "uniswap position token id",
          "_vaultId": "id of the vault"
        }
      },
      "getDenormalizedMark(uint32)": {
        "params": {
          "_period": "period of time for the twap in seconds"
        },
        "returns": {
          "_0": "mark price denominated in $USD, scaled by 1e18"
        }
      },
      "getDenormalizedMarkForFunding(uint32)": {
        "details": "this is the mark that would be used to calculate a new normalization factor if funding was calculated now",
        "params": {
          "_period": "period which you want to calculate twap with"
        },
        "returns": {
          "_0": "mark price denominated in $USD, scaled by 1e18"
        }
      },
      "getExpectedNormalizationFactor()": {
        "details": "can be used for on-chain and off-chain calculations"
      },
      "getIndex(uint32)": {
        "details": "the index price is scaled down by INDEX_SCALE in the associated PowerXBase librarythis is the index price used when calculating funding and for collateralization",
        "params": {
          "_period": "period which you want to calculate twap with"
        },
        "returns": {
          "_0": "index price denominated in $USD, scaled by 1e18"
        }
      },
      "getUnscaledIndex(uint32)": {
        "details": "this is the mark that would be be used for future funding after a new normalization factor is applied",
        "params": {
          "_period": "period which you want to calculate twap with"
        },
        "returns": {
          "_0": "index price denominated in $USD, scaled by 1e18"
        }
      },
      "isVaultSafe(uint256)": {
        "details": "return if the vault is properly collateralized",
        "params": {
          "_vaultId": "id of the vault"
        },
        "returns": {
          "_0": "true if the vault is properly collateralized"
        }
      },
      "liquidate(uint256,uint256)": {
        "details": "liquidator can get back (wPowerPerp burned) * (index price) * (normalizationFactor)  * 110% in collateralnormally can only liquidate 50% of a vault's debtif a vault is under dust limit after a liquidation can fully liquidatewill attempt to reduceDebt first, and can earn a bounty if sucessful",
        "params": {
          "_maxDebtAmount": "max amount of wPowerPerpetual to repay",
          "_vaultId": "vault to liquidate"
        },
        "returns": {
          "_0": "amount of wPowerPerp repaid"
        }
      },
      "mintPowerPerpAmount(uint256,uint128,uint256)": {
        "params": {
          "_powerPerpAmount": "amount of powerPerp to mint",
          "_uniTokenId": "uniswap v3 position token id (additional collateral)",
          "_vaultId": "vault to mint wPowerPerp in"
        },
        "returns": {
          "_0": "vaultId",
          "_1": "amount of wPowerPerp minted"
        }
      },
      "mintWPowerPerpAmount(uint256,uint128,uint256)": {
        "params": {
          "_uniTokenId": "uniswap v3 position token id (additional collateral)",
          "_vaultId": "vault to mint wPowerPerp in",
          "_wPowerPerpAmount": "amount of wPowerPerp to mint"
        },
        "returns": {
          "_0": "vaultId"
        }
      },
      "owner()": {
        "details": "Returns the address of the current owner."
      },
      "pause()": {
        "details": "can only be called for 365 days since the contract was launched or 4 times"
      },
      "pauseAndShutDown()": {
        "details": "this bypasses the check on number of pauses or time based checks, but is irreversible and enables emergency settlement"
      },
      "redeemLong(uint256)": {
        "params": {
          "_wPerpAmount": "amount of wPowerPerp to burn"
        }
      },
      "redeemShort(uint256)": {
        "details": "short position is redeemed by valuing the debt at the (settlement index value) * normalizationFactor",
        "params": {
          "_vaultId": "vault id"
        }
      },
      "reduceDebt(uint256)": {
        "details": "the caller won't get any bounty. this is expected to be used by vault owner",
        "params": {
          "_vaultId": "target vault"
        }
      },
      "reduceDebtShutdown(uint256)": {
        "details": "the caller won't get any bounty. this is expected to be used for insolvent vaults in shutdown",
        "params": {
          "_vaultId": "vault containing uniswap v3 position to liquidate"
        }
      },
      "renounceOwnership()": {
        "details": "Leaves the contract without owner. It will not be possible to call `onlyOwner` functions anymore. Can only be called by the current owner. NOTE: Renouncing ownership will leave the contract without an owner, thereby removing any functionality that is only available to the owner."
      },
      "setFeeRate(uint256)": {
        "details": "this function cannot be called if the feeRecipient is still un-set",
        "params": {
          "_newFeeRate": "new fee rate in basis points. can't be higher than 1%"
        }
      },
      "setFeeRecipient(address)": {
        "details": "this should be a contract handling insurance",
        "params": {
          "_newFeeRecipient": "new fee recipient"
        }
      },
      "transferOwnership(address)": {
        "details": "Transfers ownership of the contract to a new account (`newOwner`). Can only be called by the current owner."
      },
      "unPauseAnyone()": {
        "details": "anyone can unpause the contract after 24 hours"
      },
      "unPauseOwner()": {
        "details": "owner can unpause at any time"
      },
      "updateOperator(uint256,address)": {
        "details": "can be revoke by setting address to 0",
        "params": {
          "_operator": "new operator address",
          "_vaultId": "id of the vault"
        }
      },
      "withdraw(uint256,uint256)": {
        "params": {
          "_amount": "amount of eth to withdraw",
          "_vaultId": "id of the vault"
        }
      },
      "withdrawUniPositionToken(uint256)": {
        "params": {
          "_vaultId": "id of the vault"
        }
      }
    },
    "stateVariables": {
      "PAUSE_TIME_LIMIT": {
        "details": "system can only be paused for 182 days from deployment"
      },
      "feeRate": {
        "details": "fee rate in basis point. feeRate of 1 = 0.01%"
      },
      "indexForSettlement": {
        "details": "the settlement price for each wPowerPerp for settlement"
      },
      "vaults": {
        "details": "vault data storage"
      },
      "wPowerPerpPool": {
        "details": "address of the powerPerp/weth pool"
      }
    },
    "version": 1
  },
  "userdoc": {
    "events": {
      "OpenVault(uint256)": {
        "notice": "Events"
      }
    },
    "kind": "user",
    "methods": {
      "applyFunding()": {
        "notice": "update the normalization factor as a way to pay funding"
      },
      "burnPowerPerpAmount(uint256,uint256,uint256)": {
        "notice": "burn powerPerp and remove collateral from a vault"
      },
      "burnWPowerPerpAmount(uint256,uint256,uint256)": {
        "notice": "burn wPowerPerp and remove collateral from a vault"
      },
      "constructor": {
        "notice": "constructor"
      },
      "depositUniPositionToken(uint256,uint256)": {
        "notice": "deposit uniswap position token into a vault to increase collateral ratio"
      },
      "donate()": {
        "notice": "add eth into a contract. used in case contract has insufficient eth to pay for settlement transactions"
      },
      "getDenormalizedMark(uint32)": {
        "notice": "get the mark price (after funding) of powerPerp as the twap divided by the normalization factor"
      },
      "getDenormalizedMarkForFunding(uint32)": {
        "notice": "get the mark price of powerPerp before funding has been applied"
      },
      "getExpectedNormalizationFactor()": {
        "notice": "returns the expected normalization factor, if the funding is paid right now"
      },
      "getIndex(uint32)": {
        "notice": "get the index price of the powerPerp, scaled down"
      },
      "getUnscaledIndex(uint32)": {
        "notice": "get the expected mark price of powerPerp after funding has been applied"
      },
      "liquidate(uint256,uint256)": {
        "notice": "if a vault is under the 150% collateral ratio, anyone can liquidate the vault by burning wPowerPerp"
      },
      "mintPowerPerpAmount(uint256,uint128,uint256)": {
        "notice": "deposit collateral and mint wPowerPerp (non-rebasing) for specified powerPerp (rebasing) amount"
      },
      "mintWPowerPerpAmount(uint256,uint128,uint256)": {
        "notice": "deposit collateral and mint wPowerPerp"
      },
      "pause()": {
        "notice": "pause the system for up to 24 hours after which any one can unpause"
      },
      "pauseAndShutDown()": {
        "notice": "pause and then immediately shutdown the system"
      },
      "redeemLong(uint256)": {
        "notice": "redeem wPowerPerp for (settlement index value) * normalizationFactor when the system is shutdown"
      },
      "redeemShort(uint256)": {
        "notice": "redeem short position when the system is shutdown"
      },
      "reduceDebt(uint256)": {
        "notice": "withdraw assets from uniswap v3 position, reducing debt and increasing collateral in the vault"
      },
      "reduceDebtShutdown(uint256)": {
        "notice": "after the system is shutdown, insolvent vaults need to be have their uniswap v3 token assets withdrawn by forceif a vault has a uniswap v3 position in it, anyone can call to withdraw uniswap v3 token assets, reducing debt and increasing collateral in the vault"
      },
      "setFeeRate(uint256)": {
        "notice": "set the fee rate when user mints"
      },
      "setFeeRecipient(address)": {
        "notice": "set the recipient who will receive the fee"
      },
      "shutDown()": {
        "notice": "shutdown the system and enable system settlement"
      },
      "unPauseAnyone()": {
        "notice": "unpause the contract"
      },
      "unPauseOwner()": {
        "notice": "unpause the contract"
      },
      "updateOperator(uint256,address)": {
        "notice": "authorize an address to modify the vault"
      },
      "withdraw(uint256,uint256)": {
        "notice": "withdraw collateral from a vault"
      },
      "withdrawUniPositionToken(uint256)": {
        "notice": "withdraw uniswap v3 position token from a vault"
      }
    },
    "version": 1
  },
  "storageLayout": {
    "storage": [
      {
        "astId": 3109,
        "contract": "contracts/core/Controller.sol:Controller",
        "label": "_owner",
        "offset": 0,
        "slot": "0",
        "type": "t_address"
      },
      {
        "astId": 10825,
        "contract": "contracts/core/Controller.sol:Controller",
        "label": "feeRecipient",
        "offset": 0,
        "slot": "1",
        "type": "t_address"
      },
      {
        "astId": 10830,
        "contract": "contracts/core/Controller.sol:Controller",
        "label": "feeRate",
        "offset": 0,
        "slot": "2",
        "type": "t_uint256"
      },
      {
        "astId": 10833,
        "contract": "contracts/core/Controller.sol:Controller",
        "label": "indexForSettlement",
        "offset": 0,
        "slot": "3",
        "type": "t_uint256"
      },
      {
        "astId": 10835,
        "contract": "contracts/core/Controller.sol:Controller",
        "label": "normalizationFactor",
        "offset": 0,
        "slot": "4",
        "type": "t_uint256"
      },
      {
        "astId": 10837,
        "contract": "contracts/core/Controller.sol:Controller",
        "label": "lastFundingUpdateTimestamp",
        "offset": 0,
        "slot": "5",
        "type": "t_uint256"
      },
      {
        "astId": 10840,
        "contract": "contracts/core/Controller.sol:Controller",
        "label": "pausesLeft",
        "offset": 0,
        "slot": "6",
        "type": "t_uint256"
      },
      {
        "astId": 10842,
        "contract": "contracts/core/Controller.sol:Controller",
        "label": "lastPauseTime",
        "offset": 0,
        "slot": "7",
        "type": "t_uint256"
      },
      {
        "astId": 10844,
        "contract": "contracts/core/Controller.sol:Controller",
        "label": "isShutDown",
        "offset": 0,
        "slot": "8",
        "type": "t_bool"
      },
      {
        "astId": 10846,
        "contract": "contracts/core/Controller.sol:Controller",
        "label": "isSystemPaused",
        "offset": 1,
        "slot": "8",
        "type": "t_bool"
      },
      {
        "astId": 10851,
        "contract": "contracts/core/Controller.sol:Controller",
        "label": "vaults",
        "offset": 0,
        "slot": "9",
        "type": "t_mapping(t_uint256,t_struct(Vault)15041_storage)"
      }
    ],
    "types": {
      "t_address": {
        "encoding": "inplace",
        "label": "address",
        "numberOfBytes": "20"
      },
      "t_bool": {
        "encoding": "inplace",
        "label": "bool",
        "numberOfBytes": "1"
      },
      "t_mapping(t_uint256,t_struct(Vault)15041_storage)": {
        "encoding": "mapping",
        "key": "t_uint256",
        "label": "mapping(uint256 => struct VaultLib.Vault)",
        "numberOfBytes": "32",
        "value": "t_struct(Vault)15041_storage"
      },
      "t_struct(Vault)15041_storage": {
        "encoding": "inplace",
        "label": "struct VaultLib.Vault",
        "members": [
          {
            "astId": 15034,
            "contract": "contracts/core/Controller.sol:Controller",
            "label": "operator",
            "offset": 0,
            "slot": "0",
            "type": "t_address"
          },
          {
            "astId": 15036,
            "contract": "contracts/core/Controller.sol:Controller",
            "label": "NftCollateralId",
            "offset": 20,
            "slot": "0",
            "type": "t_uint32"
          },
          {
            "astId": 15038,
            "contract": "contracts/core/Controller.sol:Controller",
            "label": "collateralAmount",
            "offset": 0,
            "slot": "1",
            "type": "t_uint96"
          },
          {
            "astId": 15040,
            "contract": "contracts/core/Controller.sol:Controller",
            "label": "shortAmount",
            "offset": 12,
            "slot": "1",
            "type": "t_uint128"
          }
        ],
        "numberOfBytes": "64"
      },
      "t_uint128": {
        "encoding": "inplace",
        "label": "uint128",
        "numberOfBytes": "16"
      },
      "t_uint256": {
        "encoding": "inplace",
        "label": "uint256",
        "numberOfBytes": "32"
      },
      "t_uint32": {
        "encoding": "inplace",
        "label": "uint32",
        "numberOfBytes": "4"
      },
      "t_uint96": {
        "encoding": "inplace",
        "label": "uint96",
        "numberOfBytes": "12"
      }
    }
  }
}