{
  "address": "0x75500ff751789b5753DF14c047e61BC5c4324CF8",
  "abi": [
    {
      "inputs": [
        {
          "internalType": "address",
          "name": "_controller",
          "type": "address"
        },
        {
          "internalType": "address",
          "name": "_nonfungiblePositionManager",
          "type": "address"
        },
        {
          "internalType": "address",
          "name": "_uniswapFactory",
          "type": "address"
        },
        {
          "internalType": "address",
          "name": "_lendingPoolAddressProvider",
          "type": "address"
        }
      ],
      "stateMutability": "nonpayable",
      "type": "constructor"
    },
    {
      "inputs": [],
      "name": "ADDRESSES_PROVIDER",
      "outputs": [
        {
          "internalType": "contract ILendingPoolAddressesProvider",
          "name": "",
          "type": "address"
        }
      ],
      "stateMutability": "view",
      "type": "function"
    },
    {
      "inputs": [],
      "name": "LENDING_POOL",
      "outputs": [
        {
          "internalType": "contract ILendingPool",
          "name": "",
          "type": "address"
        }
      ],
      "stateMutability": "view",
      "type": "function"
    },
    {
      "inputs": [
        {
          "components": [
            {
              "internalType": "address",
              "name": "recipient",
              "type": "address"
            },
            {
              "internalType": "uint256",
              "name": "vaultId",
              "type": "uint256"
            },
            {
              "internalType": "uint256",
              "name": "wPowerPerpAmount",
              "type": "uint256"
            },
            {
              "internalType": "uint256",
              "name": "collateralToDeposit",
              "type": "uint256"
            },
            {
              "internalType": "uint256",
              "name": "collateralToLp",
              "type": "uint256"
            },
            {
              "internalType": "uint256",
              "name": "amount0Min",
              "type": "uint256"
            },
            {
              "internalType": "uint256",
              "name": "amount1Min",
              "type": "uint256"
            },
            {
              "internalType": "int24",
              "name": "lowerTick",
              "type": "int24"
            },
            {
              "internalType": "int24",
              "name": "upperTick",
              "type": "int24"
            }
          ],
          "internalType": "struct ControllerHelperDataType.MintAndLpParams",
          "name": "_params",
          "type": "tuple"
        }
      ],
      "name": "batchMintLp",
      "outputs": [],
      "stateMutability": "payable",
      "type": "function"
    },
    {
      "inputs": [
        {
          "components": [
            {
              "internalType": "uint256",
              "name": "vaultId",
              "type": "uint256"
            },
            {
              "internalType": "uint256",
              "name": "tokenId",
              "type": "uint256"
            },
            {
              "internalType": "uint256",
              "name": "liquidity",
              "type": "uint256"
            },
            {
              "internalType": "uint256",
              "name": "liquidityPercentage",
              "type": "uint256"
            },
            {
              "internalType": "uint256",
              "name": "wPowerPerpAmountToBurn",
              "type": "uint256"
            },
            {
              "internalType": "uint256",
              "name": "collateralToWithdraw",
              "type": "uint256"
            },
            {
              "internalType": "uint256",
              "name": "limitPriceEthPerPowerPerp",
              "type": "uint256"
            },
            {
              "internalType": "uint128",
              "name": "amount0Min",
              "type": "uint128"
            },
            {
              "internalType": "uint128",
              "name": "amount1Min",
              "type": "uint128"
            }
          ],
          "internalType": "struct ControllerHelperDataType.CloseShortWithUserNftParams",
          "name": "_params",
          "type": "tuple"
        }
      ],
      "name": "closeShortWithUserNft",
      "outputs": [],
      "stateMutability": "nonpayable",
      "type": "function"
    },
    {
      "inputs": [],
      "name": "controller",
      "outputs": [
        {
          "internalType": "address",
          "name": "",
          "type": "address"
        }
      ],
      "stateMutability": "view",
      "type": "function"
    },
    {
      "inputs": [
        {
          "internalType": "address[]",
          "name": "assets",
          "type": "address[]"
        },
        {
          "internalType": "uint256[]",
          "name": "amounts",
          "type": "uint256[]"
        },
        {
          "internalType": "uint256[]",
          "name": "premiums",
          "type": "uint256[]"
        },
        {
          "internalType": "address",
          "name": "",
          "type": "address"
        },
        {
          "internalType": "bytes",
          "name": "params",
          "type": "bytes"
        }
      ],
      "name": "executeOperation",
      "outputs": [
        {
          "internalType": "bool",
          "name": "",
          "type": "bool"
        }
      ],
      "stateMutability": "nonpayable",
      "type": "function"
    },
    {
      "inputs": [],
      "name": "factory",
      "outputs": [
        {
          "internalType": "address",
          "name": "",
          "type": "address"
        }
      ],
      "stateMutability": "view",
      "type": "function"
    },
    {
      "inputs": [
        {
          "components": [
            {
              "internalType": "uint256",
              "name": "vaultId",
              "type": "uint256"
            },
            {
              "internalType": "uint256",
              "name": "tokenId",
              "type": "uint256"
            },
            {
              "internalType": "uint256",
              "name": "liquidity",
              "type": "uint256"
            },
            {
              "internalType": "uint256",
              "name": "liquidityPercentage",
              "type": "uint256"
            },
            {
              "internalType": "uint256",
              "name": "wPowerPerpAmountToBurn",
              "type": "uint256"
            },
            {
              "internalType": "uint256",
              "name": "collateralToFlashloan",
              "type": "uint256"
            },
            {
              "internalType": "uint256",
              "name": "collateralToWithdraw",
              "type": "uint256"
            },
            {
              "internalType": "uint256",
              "name": "limitPriceEthPerPowerPerp",
              "type": "uint256"
            },
            {
              "internalType": "uint128",
              "name": "amount0Min",
              "type": "uint128"
            },
            {
              "internalType": "uint128",
              "name": "amount1Min",
              "type": "uint128"
            }
          ],
          "internalType": "struct ControllerHelperDataType.FlashloanCloseVaultLpNftParam",
          "name": "_params",
          "type": "tuple"
        }
      ],
      "name": "flashloanCloseVaultLpNft",
      "outputs": [],
      "stateMutability": "payable",
      "type": "function"
    },
    {
      "inputs": [
        {
          "components": [
            {
              "internalType": "uint256",
              "name": "vaultId",
              "type": "uint256"
            },
            {
              "internalType": "uint256",
              "name": "wPowerPerpAmount",
              "type": "uint256"
            },
            {
              "internalType": "uint256",
              "name": "collateralToDeposit",
              "type": "uint256"
            },
            {
              "internalType": "uint256",
              "name": "collateralToFlashloan",
              "type": "uint256"
            },
            {
              "internalType": "uint256",
              "name": "collateralToLp",
              "type": "uint256"
            },
            {
              "internalType": "uint256",
              "name": "collateralToWithdraw",
              "type": "uint256"
            },
            {
              "internalType": "uint256",
              "name": "lpAmount0Min",
              "type": "uint256"
            },
            {
              "internalType": "uint256",
              "name": "lpAmount1Min",
              "type": "uint256"
            },
            {
              "internalType": "int24",
              "name": "lpLowerTick",
              "type": "int24"
            },
            {
              "internalType": "int24",
              "name": "lpUpperTick",
              "type": "int24"
            }
          ],
          "internalType": "struct ControllerHelperDataType.FlashloanWMintDepositNftParams",
          "name": "_params",
          "type": "tuple"
        }
      ],
      "name": "flashloanWMintDepositNft",
      "outputs": [],
      "stateMutability": "payable",
      "type": "function"
    },
    {
      "inputs": [
        {
          "components": [
            {
              "internalType": "uint256",
              "name": "vaultId",
              "type": "uint256"
            },
            {
              "internalType": "uint256",
              "name": "wPowerPerpAmountToMint",
              "type": "uint256"
            },
            {
              "internalType": "uint256",
              "name": "collateralAmount",
              "type": "uint256"
            },
            {
              "internalType": "uint256",
              "name": "wPowerPerpAmountToSell",
              "type": "uint256"
            },
            {
              "internalType": "uint256",
              "name": "minToReceive",
              "type": "uint256"
            }
          ],
          "internalType": "struct ControllerHelperDataType.FlashSellLongWMintParams",
          "name": "_params",
          "type": "tuple"
        }
      ],
      "name": "flashswapSellLongWMint",
      "outputs": [],
      "stateMutability": "payable",
      "type": "function"
    },
    {
      "inputs": [
        {
          "components": [
            {
              "internalType": "uint256",
              "name": "vaultId",
              "type": "uint256"
            },
            {
              "internalType": "uint256",
              "name": "wPowerPerpAmountToBurn",
              "type": "uint256"
            },
            {
              "internalType": "uint256",
              "name": "wPowerPerpAmountToBuy",
              "type": "uint256"
            },
            {
              "internalType": "uint256",
              "name": "collateralToWithdraw",
              "type": "uint256"
            },
            {
              "internalType": "uint256",
              "name": "maxToPay",
              "type": "uint256"
            }
          ],
          "internalType": "struct ControllerHelperDataType.FlashswapWBurnBuyLongParams",
          "name": "_params",
          "type": "tuple"
        }
      ],
      "name": "flashswapWBurnBuyLong",
      "outputs": [],
      "stateMutability": "payable",
      "type": "function"
    },
    {
      "inputs": [
        {
          "components": [
            {
              "internalType": "uint256",
              "name": "vaultId",
              "type": "uint256"
            },
            {
              "internalType": "uint256",
              "name": "totalCollateralToDeposit",
              "type": "uint256"
            },
            {
              "internalType": "uint256",
              "name": "wPowerPerpAmount",
              "type": "uint256"
            },
            {
              "internalType": "uint256",
              "name": "minToReceive",
              "type": "uint256"
            }
          ],
          "internalType": "struct ControllerHelperDataType.FlashswapWMintParams",
          "name": "_params",
          "type": "tuple"
        }
      ],
      "name": "flashswapWMint",
      "outputs": [],
      "stateMutability": "payable",
      "type": "function"
    },
    {
      "inputs": [],
      "name": "isWethToken0",
      "outputs": [
        {
          "internalType": "bool",
          "name": "",
          "type": "bool"
        }
      ],
      "stateMutability": "view",
      "type": "function"
    },
    {
      "inputs": [],
      "name": "nonfungiblePositionManager",
      "outputs": [
        {
          "internalType": "address",
          "name": "",
          "type": "address"
        }
      ],
      "stateMutability": "view",
      "type": "function"
    },
    {
      "inputs": [
        {
          "internalType": "address",
          "name": "",
          "type": "address"
        },
        {
          "internalType": "address",
          "name": "",
          "type": "address"
        },
        {
          "internalType": "uint256",
          "name": "",
          "type": "uint256"
        },
        {
          "internalType": "bytes",
          "name": "",
          "type": "bytes"
        }
      ],
      "name": "onERC721Received",
      "outputs": [
        {
          "internalType": "bytes4",
          "name": "",
          "type": "bytes4"
        }
      ],
      "stateMutability": "nonpayable",
      "type": "function"
    },
    {
      "inputs": [],
      "name": "oracle",
      "outputs": [
        {
          "internalType": "address",
          "name": "",
          "type": "address"
        }
      ],
      "stateMutability": "view",
      "type": "function"
    },
    {
      "inputs": [
        {
          "internalType": "uint256",
          "name": "_vaultId",
          "type": "uint256"
        },
        {
          "internalType": "uint256",
          "name": "_collateralToFlashloan",
          "type": "uint256"
        },
        {
          "components": [
            {
              "internalType": "enum ControllerHelperDataType.RebalanceVaultNftType",
              "name": "rebalanceVaultNftType",
              "type": "uint8"
            },
            {
              "internalType": "bytes",
              "name": "data",
              "type": "bytes"
            }
          ],
          "internalType": "struct ControllerHelperDataType.RebalanceVaultNftParams[]",
          "name": "_params",
          "type": "tuple[]"
        }
      ],
      "name": "rebalanceVaultNft",
      "outputs": [],
      "stateMutability": "payable",
      "type": "function"
    },
    {
      "inputs": [
        {
          "components": [
            {
              "internalType": "uint256",
              "name": "tokenId",
              "type": "uint256"
            },
            {
              "internalType": "uint256",
              "name": "ethAmountToLp",
              "type": "uint256"
            },
            {
              "internalType": "uint256",
              "name": "liquidity",
              "type": "uint256"
            },
            {
              "internalType": "uint256",
              "name": "wPowerPerpAmountDesired",
              "type": "uint256"
            },
            {
              "internalType": "uint256",
              "name": "wethAmountDesired",
              "type": "uint256"
            },
            {
              "internalType": "uint256",
              "name": "amount0DesiredMin",
              "type": "uint256"
            },
            {
              "internalType": "uint256",
              "name": "amount1DesiredMin",
              "type": "uint256"
            },
            {
              "internalType": "uint256",
              "name": "limitPriceEthPerPowerPerp",
              "type": "uint256"
            },
            {
              "internalType": "uint256",
              "name": "amount0Min",
              "type": "uint256"
            },
            {
              "internalType": "uint256",
              "name": "amount1Min",
              "type": "uint256"
            },
            {
              "internalType": "int24",
              "name": "lowerTick",
              "type": "int24"
            },
            {
              "internalType": "int24",
              "name": "upperTick",
              "type": "int24"
            }
          ],
          "internalType": "struct ControllerHelperDataType.RebalanceWithoutVault",
          "name": "_params",
          "type": "tuple"
        }
      ],
      "name": "rebalanceWithoutVault",
      "outputs": [],
      "stateMutability": "payable",
      "type": "function"
    },
    {
      "inputs": [
        {
          "components": [
            {
              "internalType": "uint256",
              "name": "tokenId",
              "type": "uint256"
            },
            {
              "internalType": "uint256",
              "name": "liquidity",
              "type": "uint256"
            },
            {
              "internalType": "uint128",
              "name": "amount0Min",
              "type": "uint128"
            },
            {
              "internalType": "uint128",
              "name": "amount1Min",
              "type": "uint128"
            },
            {
              "internalType": "uint256",
              "name": "limitPriceEthPerPowerPerp",
              "type": "uint256"
            }
          ],
          "internalType": "struct ControllerHelperDataType.SellAll",
          "name": "_params",
          "type": "tuple"
        }
      ],
      "name": "sellAll",
      "outputs": [],
      "stateMutability": "nonpayable",
      "type": "function"
    },
    {
      "inputs": [],
      "name": "shortPowerPerp",
      "outputs": [
        {
          "internalType": "address",
          "name": "",
          "type": "address"
        }
      ],
      "stateMutability": "view",
      "type": "function"
    },
    {
      "inputs": [
        {
          "internalType": "int256",
          "name": "amount0Delta",
          "type": "int256"
        },
        {
          "internalType": "int256",
          "name": "amount1Delta",
          "type": "int256"
        },
        {
          "internalType": "bytes",
          "name": "_data",
          "type": "bytes"
        }
      ],
      "name": "uniswapV3SwapCallback",
      "outputs": [],
      "stateMutability": "nonpayable",
      "type": "function"
    },
    {
      "inputs": [],
      "name": "wPowerPerp",
      "outputs": [
        {
          "internalType": "address",
          "name": "",
          "type": "address"
        }
      ],
      "stateMutability": "view",
      "type": "function"
    },
    {
      "inputs": [],
      "name": "wPowerPerpPool",
      "outputs": [
        {
          "internalType": "address",
          "name": "",
          "type": "address"
        }
      ],
      "stateMutability": "view",
      "type": "function"
    },
    {
      "inputs": [],
      "name": "weth",
      "outputs": [
        {
          "internalType": "address",
          "name": "",
          "type": "address"
        }
      ],
      "stateMutability": "view",
      "type": "function"
    },
    {
      "stateMutability": "payable",
      "type": "receive"
    }
  ],
  "transactionHash": "0x771c2d93f7552d873424b0d8d2b508bc0bfdfc66cedb661d9cd93df58d41f7a8",
  "args": [
    "0x59F0c781a6eC387F09C40FAA22b7477a2950d209",
    "0x8c7c1f786da4dee7d4bb49697a9b0c0c8fb328e0",
    "0xa9C2f675FF8290494675dF5CFc2733319EaeeFDc",
    "0x0000000000000000000000000000000000000000"
  ],
  "solcInputHash": "dfd7860ebd97501ecbdb5935c168e58b",
  "bytecode": "0x6101e06040523480156200001257600080fd5b50604051620069873803806200698783398101604081905262000035916200075d565b80826001600160a01b0381166200004b57600080fd5b6001600160601b0319606091821b81166080529082901b1660a0526001600160a01b0381166200007d5760006200010e565b806001600160a01b0316630261bf8b6040518163ffffffff1660e01b815260040160206040518083038186803b158015620000b757600080fd5b505afa158015620000cc573d6000803e3d6000fd5b505050506040513d601f19601f82011682018060405250810190620000f2919062000739565b6001600160601b0319606082901b1660c0526001600160a01b03165b50506001600160601b0319606085811b821660e05284901b166101a052604080516307f07b1360e41b815290516001600160a01b03861691637f07b130916004808301926020929190829003018186803b1580156200016c57600080fd5b505afa15801562000181573d6000803e3d6000fd5b505050506040513d601f19601f82011682018060405250810190620001a7919062000739565b6001600160a01b0316846001600160a01b0316633fc8cef36040518163ffffffff1660e01b815260040160206040518083038186803b158015620001ea57600080fd5b505afa158015620001ff573d6000803e3d6000fd5b505050506040513d601f19601f8201168201806040525081019062000225919062000739565b6001600160a01b03161015156101c081151560f81b81525050836001600160a01b0316637dc0d1d06040518163ffffffff1660e01b815260040160206040518083038186803b1580156200027857600080fd5b505afa1580156200028d573d6000803e3d6000fd5b505050506040513d601f19601f82011682018060405250810190620002b3919062000739565b6001600160a01b0316610100816001600160a01b031660601b81525050836001600160a01b0316639d4c94426040518163ffffffff1660e01b815260040160206040518083038186803b1580156200030a57600080fd5b505afa1580156200031f573d6000803e3d6000fd5b505050506040513d601f19601f8201168201806040525081019062000345919062000739565b6001600160a01b0316610120816001600160a01b031660601b81525050836001600160a01b031663b707ab996040518163ffffffff1660e01b815260040160206040518083038186803b1580156200039c57600080fd5b505afa158015620003b1573d6000803e3d6000fd5b505050506040513d601f19601f82011682018060405250810190620003d7919062000739565b6001600160a01b0316610140816001600160a01b031660601b81525050836001600160a01b0316637f07b1306040518163ffffffff1660e01b815260040160206040518083038186803b1580156200042e57600080fd5b505afa15801562000443573d6000803e3d6000fd5b505050506040513d601f19601f8201168201806040525081019062000469919062000739565b6001600160a01b0316610160816001600160a01b031660601b81525050836001600160a01b0316633fc8cef36040518163ffffffff1660e01b815260040160206040518083038186803b158015620004c057600080fd5b505afa158015620004d5573d6000803e3d6000fd5b505050506040513d601f19601f82011682018060405250810190620004fb919062000739565b6001600160a01b0316610180816001600160a01b031660601b81525050836001600160a01b0316637f07b1306040518163ffffffff1660e01b815260040160206040518083038186803b1580156200055257600080fd5b505afa15801562000567573d6000803e3d6000fd5b505050506040513d601f19601f820116820180604052508101906200058d919062000739565b6001600160a01b031663095ea7b3846000196040518363ffffffff1660e01b8152600401620005be929190620007db565b602060405180830381600087803b158015620005d957600080fd5b505af1158015620005ee573d6000803e3d6000fd5b505050506040513d601f19601f82011682018060405250810190620006149190620007b9565b50836001600160a01b0316633fc8cef36040518163ffffffff1660e01b815260040160206040518083038186803b1580156200064f57600080fd5b505afa15801562000664573d6000803e3d6000fd5b505050506040513d601f19601f820116820180604052508101906200068a919062000739565b6001600160a01b031663095ea7b3846000196040518363ffffffff1660e01b8152600401620006bb929190620007db565b602060405180830381600087803b158015620006d657600080fd5b505af1158015620006eb573d6000803e3d6000fd5b505050506040513d601f19601f82011682018060405250810190620007119190620007b9565b5050505050620007f4565b80516001600160a01b03811681146200073457600080fd5b919050565b6000602082840312156200074b578081fd5b62000756826200071c565b9392505050565b6000806000806080858703121562000773578283fd5b6200077e856200071c565b93506200078e602086016200071c565b92506200079e604086016200071c565b9150620007ae606086016200071c565b905092959194509250565b600060208284031215620007cb578081fd5b8151801515811462000756578182fd5b6001600160a01b03929092168252602082015260400190565b60805160601c60a05160601c60c05160601c60e05160601c6101005160601c6101205160601c6101405160601c6101605160601c6101805160601c6101a05160601c6101c05160f81c615e9462000af36000398061053252806109c8528061104552806113cc5280611406528061179a5280611a5752806123e8528061298b5280612e685280612faa52508061041d52806104a752806108b2528061093f5280610ac25280610f40528061102252806113425280611633528061173252806123145280612493528061291b5280612aaa5280612e205280612f3c5280613251528061333f52508061038152806105ed5280610706528061076452806107ac5280610b585280610bcd5280610dc95280610e2f5280610eb652806110d052806112375280611518528061197b5280611f6f528061214b528061226d528061263a52806127985280612b455280612d2c52806134dc528061377e5280613b255280613bab5280613d4d5280613f6d528061401d5280614195528061421b5250806105cc528061078b5280610ba652806110f1528061121652806113845280611539528061175452806118c5528061195a5280611f90528061212a52806123355280612e42528061329352806139225280613c745280613ec152508061060e52806107cd528061111252806112585280611363528061155a528061167b5280611776528061199c5280611fb1528061216c52806123565280613272528061394f5280613bdb5280613eee528061404a528061424b525080610e8c528061183452806126d252806139e9525080610b82525080610aa0528061132152806117105280611a7b528061209d52806122f352806124c05280612531528061259e528061281652806128955280612a885280612bc95280612c5a5280612dfe52806130cf528061318c5280613230528061336c52806133dd528061346b528061387f5280613aba5280613e2c528061412a525080610c115280610ceb52806116575280611c0a5250806103d452508061169f5280611ae252806147f85250615e946000f3fe60806040526004361061011f5760003560e01c806303d322ba1461012b5780630542975c14610140578063150b7a021461016b5780633c11bae2146101985780633fc8cef3146101b857806345647055146101cd57806372938974146101e05780637dc0d1d0146102005780637f07b130146102155780638437f8261461022a578063920f5c841461023d5780639b563e731461026a5780639d4c94421461027d5780639f24c97114610292578063ad9bb363146102a5578063b44a2722146102b8578063b4dcfc77146102cd578063b707ab99146102e2578063c45a0155146102f7578063d4553e511461030c578063d6c646811461031f578063ef0b69dd14610332578063f77c479114610347578063fa461e331461035c57610126565b3661012657005b600080fd5b61013e61013936600461546d565b61037c565b005b34801561014c57600080fd5b506101556103d2565b6040516101629190615648565b60405180910390f35b34801561017757600080fd5b5061018b610186366004614b9b565b6103f6565b6040516101629190615a63565b3480156101a457600080fd5b5061013e6101b3366004614e22565b610406565b3480156101c457600080fd5b50610155610762565b61013e6101db36600461502b565b610786565b3480156101ec57600080fd5b5061013e6101fb366004614d88565b61089b565b34801561020c57600080fd5b50610155610b80565b34801561022157600080fd5b50610155610ba4565b61013e610238366004614ef4565b610bc8565b34801561024957600080fd5b5061025d610258366004614c04565b610c04565b6040516101629190615a58565b61013e610278366004614ef4565b610dc4565b34801561028957600080fd5b50610155610e8a565b61013e6102a03660046151c1565b610eae565b61013e6102b3366004614e22565b6114f5565b3480156102c457600080fd5b50610155611631565b3480156102d957600080fd5b50610155611655565b3480156102ee57600080fd5b50610155611679565b34801561030357600080fd5b5061015561169d565b61013e61031a366004614d88565b6116c1565b61013e61032d366004614e22565b6118ae565b34801561033e57600080fd5b5061025d611a55565b34801561035357600080fd5b50610155611a79565b34801561036857600080fd5b5061013e610377366004614d38565b611a9d565b6103cc7f00000000000000000000000000000000000000000000000000000000000000008460088786866040516020016103b893929190615c66565b604051602081830303815290604052611b43565b50505050565b7f000000000000000000000000000000000000000000000000000000000000000081565b630a85bd0160e11b949350505050565b604051632142170760e11b81526001600160a01b037f000000000000000000000000000000000000000000000000000000000000000016906342842e0e90610457903390309086359060040161565c565b600060405180830381600087803b15801561047157600080fd5b505af1158015610485573d6000803e3d6000fd5b505050506000731D7e4a087A273818FB5478aE385Cd6E8731981806344ac10597f00000000000000000000000000000000000000000000000000000000000000006040518060a001604052808660000135815260200186602001358152602001670de0b6b3a7640000815260200186604001602081019061050691906152e4565b6001600160801b0316815260200161052460808801606089016152e4565b6001600160801b03168152507f00000000000000000000000000000000000000000000000000000000000000006040518463ffffffff1660e01b815260040161056f939291906159b8565b604080518083038186803b15801561058657600080fd5b505af415801561059a573d6000803e3d6000fd5b505050506040513d601f19601f820116820180604052508101906105be9190614d15565b50905080156106d7576106d57f00000000000000000000000000000000000000000000000000000000000000007f00000000000000000000000000000000000000000000000000000000000000007f00000000000000000000000000000000000000000000000000000000000000006001600160a01b031663ddca3f436040518163ffffffff1660e01b815260040160206040518083038186803b15801561066557600080fd5b505afa158015610679573d6000803e3d6000fd5b505050506040513d601f19601f8201168201806040525081019061069d9190615300565b846106be670de0b6b3a76400006106b860808a013584611ce1565b90611d43565b600360405180602001604052806000815250611da7565b505b60405163f475dc2160e01b8152731D7e4a087A273818FB5478aE385Cd6E8731981809063f475dc219061072e907f000000000000000000000000000000000000000000000000000000000000000090600401615648565b60006040518083038186803b15801561074657600080fd5b505af415801561075a573d6000803e3d6000fd5b505050505050565b7f000000000000000000000000000000000000000000000000000000000000000081565b61088d7f00000000000000000000000000000000000000000000000000000000000000007f00000000000000000000000000000000000000000000000000000000000000007f00000000000000000000000000000000000000000000000000000000000000006001600160a01b031663ddca3f436040518163ffffffff1660e01b815260040160206040518083038186803b15801561082457600080fd5b505afa158015610838573d6000803e3d6000fd5b505050506040513d601f19601f8201168201806040525081019061085c9190615300565b604085013560608601356000876040516020016108799190615bda565b604051602081830303815290604052611da7565b506108983347611e78565b50565b604051632142170760e11b81526001600160a01b037f000000000000000000000000000000000000000000000000000000000000000016906342842e0e906108ef903390309060208701359060040161565c565b600060405180830381600087803b15801561090957600080fd5b505af115801561091d573d6000803e3d6000fd5b505050506000731D7e4a087A273818FB5478aE385Cd6E8731981806344ac10597f00000000000000000000000000000000000000000000000000000000000000006040518060a001604052808660200135815260200186604001358152602001866060013581526020018660e001602081019061099a91906152e4565b6001600160801b031681526020016109ba610120880161010089016152e4565b6001600160801b03168152507f00000000000000000000000000000000000000000000000000000000000000006040518463ffffffff1660e01b8152600401610a05939291906159b8565b604080518083038186803b158015610a1c57600080fd5b505af4158015610a30573d6000803e3d6000fd5b505050506040513d601f19601f82011682018060405250810190610a549190614d15565b509050610a71823582608085013560a086013560c0870135611f62565b60405163270541df60e11b8152731D7e4a087A273818FB5478aE385Cd6E87319818090634e0a83be90610af9907f0000000000000000000000000000000000000000000000000000000000000000907f00000000000000000000000000000000000000000000000000000000000000009060009060208901359060608a013590600401615895565b60006040518083038186803b158015610b1157600080fd5b505af4158015610b25573d6000803e3d6000fd5b505060405163f475dc2160e01b8152731D7e4a087A273818FB5478aE385Cd6E873198180925063f475dc21915061072e907f000000000000000000000000000000000000000000000000000000000000000090600401615648565b7f000000000000000000000000000000000000000000000000000000000000000081565b7f000000000000000000000000000000000000000000000000000000000000000081565b6108987f000000000000000000000000000000000000000000000000000000000000000060608301356006846040516020016103b89190615b51565b6000336001600160a01b037f00000000000000000000000000000000000000000000000000000000000000001614610c3b57600080fd5b60018914610c4857600080fd5b6000610c5683850185614e58565b9050610cb981600001518c8c6000818110610c6d57fe5b9050602002016020810190610c829190614b7f565b8b8b6000818110610c8f57fe5b905060200201358a8a6000818110610ca357fe5b905060200201358560200151866040015161221b565b8a8a6000818110610cc657fe5b9050602002016020810190610cdb9190614b7f565b6001600160a01b031663095ea7b37f0000000000000000000000000000000000000000000000000000000000000000610d438a8a6000818110610d1a57fe5b905060200201358d8d6000818110610d2e57fe5b9050602002013561355d90919063ffffffff16565b6040518363ffffffff1660e01b8152600401610d60929190615a19565b602060405180830381600087803b158015610d7a57600080fd5b505af1158015610d8e573d6000803e3d6000fd5b505050506040513d601f19601f82011682018060405250810190610db29190614cd9565b5060019b9a5050505050505050505050565b610e007f000000000000000000000000000000000000000000000000000000000000000060a08301356007846040516020016103b89190615ac0565b60405163f475dc2160e01b8152731D7e4a087A273818FB5478aE385Cd6E8731981809063f475dc2190610e57907f000000000000000000000000000000000000000000000000000000000000000090600401615648565b60006040518083038186803b158015610e6f57600080fd5b505af4158015610e83573d6000803e3d6000fd5b5050505050565b7f000000000000000000000000000000000000000000000000000000000000000081565b3415610f29577f00000000000000000000000000000000000000000000000000000000000000006001600160a01b031663d0e30db0346040518263ffffffff1660e01b81526004016000604051808303818588803b158015610f0f57600080fd5b505af1158015610f23573d6000803e3d6000fd5b50505050505b604051632142170760e11b81526001600160a01b037f000000000000000000000000000000000000000000000000000000000000000016906342842e0e90610f7a903390309086359060040161565c565b600060405180830381600087803b158015610f9457600080fd5b505af1158015610fa8573d6000803e3d6000fd5b50506040805160a08101825284358152848201356020820152670de0b6b3a7640000818301526001600160801b036101008601358116606083015261012086013516608082015290516344ac105960e01b815260009350731D7e4a087A273818FB5478aE385Cd6E87319818092506344ac10599161106d917f000000000000000000000000000000000000000000000000000000000000000091907f0000000000000000000000000000000000000000000000000000000000000000906004016159b8565b604080518083038186803b15801561108457600080fd5b505af4158015611098573d6000803e3d6000fd5b505050506040513d601f19601f820116820180604052508101906110bc9190614d15565b50905080826060013511156111f3576111ee7f00000000000000000000000000000000000000000000000000000000000000007f00000000000000000000000000000000000000000000000000000000000000007f00000000000000000000000000000000000000000000000000000000000000006001600160a01b031663ddca3f436040518163ffffffff1660e01b815260040160206040518083038186803b15801561116957600080fd5b505afa15801561117d573d6000803e3d6000fd5b505050506040513d601f19601f820116820180604052508101906111a19190615300565b6111af6060870135866135b5565b6111d7670de0b6b3a76400006106b86111cc60608b01358a6135b5565b60e08b013590611ce1565b600460405180602001604052806000815250613612565b611305565b808260600135101561130557600061120f8260608501356135b5565b90506113027f00000000000000000000000000000000000000000000000000000000000000007f00000000000000000000000000000000000000000000000000000000000000007f00000000000000000000000000000000000000000000000000000000000000006001600160a01b031663ddca3f436040518163ffffffff1660e01b815260040160206040518083038186803b1580156112af57600080fd5b505afa1580156112c3573d6000803e3d6000fd5b505050506040513d601f19601f820116820180604052508101906112e79190615300565b846106be670de0b6b3a76400006106b860e08b013584611ce1565b50505b731D7e4a087A273818FB5478aE385Cd6E87319818063de1088097f00000000000000000000000000000000000000000000000000000000000000007f00000000000000000000000000000000000000000000000000000000000000007f00000000000000000000000000000000000000000000000000000000000000007f00000000000000000000000000000000000000000000000000000000000000006000604051806101000160405280336001600160a01b031681526020018a6020013581526020017f00000000000000000000000000000000000000000000000000000000000000006113f9578a606001356113ff565b8a608001355b81526020017f0000000000000000000000000000000000000000000000000000000000000000611433578a60800135611439565b8a606001355b815260a08b0135602082015260c08b013560408201526060016114646101608c016101408d01614cf9565b60020b815260200161147e6101808c016101608d01614cf9565b60020b8152506040518763ffffffff1660e01b81526004016114a596959493929190615680565b60206040518083038186803b1580156114bd57600080fd5b505af41580156114d1573d6000803e3d6000fd5b505050506040513d601f19601f820116820180604052508101906106d59190615323565b61150360608201353461355d565b8160800135111561151357600080fd5b6116277f00000000000000000000000000000000000000000000000000000000000000007f00000000000000000000000000000000000000000000000000000000000000007f00000000000000000000000000000000000000000000000000000000000000006001600160a01b031663ddca3f436040518163ffffffff1660e01b815260040160206040518083038186803b1580156115b157600080fd5b505afa1580156115c5573d6000803e3d6000fd5b505050506040513d601f19601f820116820180604052508101906115e99190615300565b6115fb6020860135604087013561355d565b60808601356001876040516020016116139190615a78565b604051602081830303815290604052613612565b6108983347611e78565b7f000000000000000000000000000000000000000000000000000000000000000081565b7f000000000000000000000000000000000000000000000000000000000000000081565b7f000000000000000000000000000000000000000000000000000000000000000081565b7f000000000000000000000000000000000000000000000000000000000000000081565b6116d36060820135608083013561355d565b34146116de57600080fd5b6040516308e6940f60e41b8152600090731D7e4a087A273818FB5478aE385Cd6E87319818090638e6940f0906117c2907f0000000000000000000000000000000000000000000000000000000000000000907f0000000000000000000000000000000000000000000000000000000000000000907f0000000000000000000000000000000000000000000000000000000000000000907f00000000000000000000000000000000000000000000000000000000000000009089907f0000000000000000000000000000000000000000000000000000000000000000906004016156bd565b604080518083038186803b1580156117d957600080fd5b505af41580156117ed573d6000803e3d6000fd5b505050506040513d601f19601f820116820180604052508101906118119190614d15565b50905060208201356118a057604051632142170760e11b81526001600160a01b037f000000000000000000000000000000000000000000000000000000000000000016906342842e0e9061186d9030903390869060040161565c565b600060405180830381600087803b15801561188757600080fd5b505af115801561189b573d6000803e3d6000fd5b505050505b6118aa3347611e78565b5050565b6040516323b872dd60e01b81526001600160a01b037f000000000000000000000000000000000000000000000000000000000000000016906323b872dd90611902903390309060608701359060040161565c565b602060405180830381600087803b15801561191c57600080fd5b505af1158015611930573d6000803e3d6000fd5b505050506040513d601f19601f820116820180604052508101906119549190614cd9565b5061088d7f00000000000000000000000000000000000000000000000000000000000000007f00000000000000000000000000000000000000000000000000000000000000007f00000000000000000000000000000000000000000000000000000000000000006001600160a01b031663ddca3f436040518163ffffffff1660e01b815260040160206040518083038186803b1580156119f357600080fd5b505afa158015611a07573d6000803e3d6000fd5b505050506040513d601f19601f82011682018060405250810190611a2b9190615300565b611a3d6020860135606087013561355d565b60808601356002876040516020016108799190615a78565b7f000000000000000000000000000000000000000000000000000000000000000081565b7f000000000000000000000000000000000000000000000000000000000000000081565b6000841380611aac5750600083135b611ab557600080fd5b6000611ac3828401846151d3565b90506000806000611ad784600001516136dc565b925092509250611b097f000000000000000000000000000000000000000000000000000000000000000084848461370d565b506000808913611b195787611b1b565b885b9050611b388560200151858585858a606001518b6040015161372c565b505050505050505050565b604080516001808252818301909252600091602080830190803683370190505090508481600081518110611b7357fe5b6001600160a01b0392909216602092830291909101909101526040805160018082528183019092526000918160200160208202803683370190505090508481600081518110611bbe57fe5b6020908102919091010152604080516001808252818301909252600091816020016020820280368337019050509050600081600081518110611bfc57fe5b6020026020010181815250507f00000000000000000000000000000000000000000000000000000000000000006001600160a01b031663ab9c4b5d30858585306040518060600160405280336001600160a01b031681526020018d60ff1681526020018c815250604051602001611c739190615a86565b60405160208183030381529060405260006040518863ffffffff1660e01b8152600401611ca697969594939291906158c6565b600060405180830381600087803b158015611cc057600080fd5b505af1158015611cd4573d6000803e3d6000fd5b5050505050505050505050565b600082611cf057506000611d3d565b82820282848281611cfd57fe5b0414611d3a5760405162461bcd60e51b8152600401808060200182810382526021815260200180615e3e6021913960400191505060405180910390fd5b90505b92915050565b6000808211611d96576040805162461bcd60e51b815260206004820152601a602482015279536166654d6174683a206469766973696f6e206279207a65726f60301b604482015290519081900360640190fd5b818381611d9f57fe5b049392505050565b600080611dfd8630600060405180608001604052808e8d8f604051602001611dd1939291906155fc565b60408051601f1981840301815291815290825233602083015260ff8b16908201526060018890526142c7565b9050611e2a60405180604001604052806009815260200168185b5bdd5b9d13dd5d60ba1b81525082614406565b611e5d604051806040016040528060118152602001705f616d6f756e744f75744d696e696d756d60781b81525086614406565b84811015611e6a57600080fd5b90505b979650505050505050565b80471015611ecd576040805162461bcd60e51b815260206004820152601d60248201527f416464726573733a20696e73756666696369656e742062616c616e6365000000604482015290519081900360640190fd5b6040516000906001600160a01b0384169083908381818185875af1925050503d8060008114611f18576040519150601f19603f3d011682016040523d82523d6000602084013e611f1d565b606091505b5050905080611f5d5760405162461bcd60e51b815260040180806020018281038252603a815260200180615e04603a913960400191505060405180910390fd5b505050565b82841015612086576120817f00000000000000000000000000000000000000000000000000000000000000007f00000000000000000000000000000000000000000000000000000000000000007f00000000000000000000000000000000000000000000000000000000000000006001600160a01b031663ddca3f436040518163ffffffff1660e01b815260040160206040518083038186803b15801561200857600080fd5b505afa15801561201c573d6000803e3d6000fd5b505050506040513d601f19601f820116820180604052508101906120409190615300565b61204a87896135b5565b61206a670de0b6b3a76400006106b86120638b8d6135b5565b8990611ce1565b60058b8a8a60405160200161161393929190615632565b610e83565b604051638632cb0360e01b81526001600160a01b037f00000000000000000000000000000000000000000000000000000000000000001690638632cb03906120d690889087908790600401615632565b600060405180830381600087803b1580156120f057600080fd5b505af1158015612104573d6000803e3d6000fd5b50505050600061211d84866135b590919063ffffffff16565b9050801561075a576122127f00000000000000000000000000000000000000000000000000000000000000007f00000000000000000000000000000000000000000000000000000000000000007f00000000000000000000000000000000000000000000000000000000000000006001600160a01b031663ddca3f436040518163ffffffff1660e01b815260040160206040518083038186803b1580156121c357600080fd5b505afa1580156121d7573d6000803e3d6000fd5b505050506040513d601f19601f820116820180604052508101906121fb9190615300565b846106be670de0b6b3a76400006106b88984611ce1565b50505050505050565b60068260ff16600881111561222c57fe5b600881111561223757fe5b1415612746576000818060200190518101906122539190614fa3565b604051632e1a7d4d60e01b81529091506001600160a01b037f00000000000000000000000000000000000000000000000000000000000000001690632e1a7d4d906122a2908890600401615c5d565b600060405180830381600087803b1580156122bc57600080fd5b505af11580156122d0573d6000803e3d6000fd5b50505050600080731D7e4a087A273818FB5478aE385Cd6E873198180638e6940f07f00000000000000000000000000000000000000000000000000000000000000007f00000000000000000000000000000000000000000000000000000000000000007f00000000000000000000000000000000000000000000000000000000000000007f0000000000000000000000000000000000000000000000000000000000000000604051806101200160405280306001600160a01b031681526020018a6000015181526020018a6020015181526020018a6040015181526020018a6080015181526020018a60c0015181526020018a60e0015181526020018a610100015160020b81526020018a610120015160020b8152507f00000000000000000000000000000000000000000000000000000000000000006040518763ffffffff1660e01b815260040161242896959493929190615780565b604080518083038186803b15801561243f57600080fd5b505af4158015612453573d6000803e3d6000fd5b505050506040513d601f19601f820116820180604052508101906124779190614d15565b60405163095ea7b360e01b815291935091506001600160a01b037f0000000000000000000000000000000000000000000000000000000000000000169063095ea7b3906124ea907f0000000000000000000000000000000000000000000000000000000000000000908590600401615a19565b600060405180830381600087803b15801561250457600080fd5b505af1158015612518573d6000803e3d6000fd5b50506040516348dc69a560e11b81526001600160a01b037f00000000000000000000000000000000000000000000000000000000000000001692506391b8d34a915061256a9085908590600401615d3f565b600060405180830381600087803b15801561258457600080fd5b505af1158015612598573d6000803e3d6000fd5b505050507f00000000000000000000000000000000000000000000000000000000000000006001600160a01b031663441a3e70836125e38660a001518b61355d90919063ffffffff16565b6040518363ffffffff1660e01b8152600401612600929190615d3f565b600060405180830381600087803b15801561261a57600080fd5b505af115801561262e573d6000803e3d6000fd5b50506001600160a01b037f000000000000000000000000000000000000000000000000000000000000000016915063d0e30db0905061266d898961355d565b6040518263ffffffff1660e01b81526004016000604051808303818588803b15801561269857600080fd5b505af11580156126ac573d6000803e3d6000fd5b505085511515925061273e91505057604051632142170760e11b81526001600160a01b037f000000000000000000000000000000000000000000000000000000000000000016906342842e0e9061270b9030908d90879060040161565c565b600060405180830381600087803b15801561272557600080fd5b505af1158015612739573d6000803e3d6000fd5b505050505b50505061075a565b60078260ff16600881111561275757fe5b600881111561276257fe5b1415612b0c5760008180602001905181019061277e9190614f10565b604051632e1a7d4d60e01b81529091506001600160a01b037f00000000000000000000000000000000000000000000000000000000000000001690632e1a7d4d906127cd908890600401615c5d565b600060405180830381600087803b1580156127e757600080fd5b505af11580156127fb573d6000803e3d6000fd5b5050825160405163b6b55f2560e01b81526001600160a01b037f000000000000000000000000000000000000000000000000000000000000000016935063b6b55f259250889161284d91600401615c5d565b6000604051808303818588803b15801561286657600080fd5b505af115801561287a573d6000803e3d6000fd5b5050835160405163713d517f60e01b81526001600160a01b037f000000000000000000000000000000000000000000000000000000000000000016945063713d517f93506128cb9250600401615c5d565b600060405180830381600087803b1580156128e557600080fd5b505af11580156128f9573d6000803e3d6000fd5b505050506000731D7e4a087A273818FB5478aE385Cd6E8731981806344ac10597f00000000000000000000000000000000000000000000000000000000000000006040518060a001604052808660200151815260200186604001518152602001866060015181526020018661010001516001600160801b031681526020018661012001516001600160801b03168152507f00000000000000000000000000000000000000000000000000000000000000006040518463ffffffff1660e01b81526004016129c8939291906159b8565b604080518083038186803b1580156129df57600080fd5b505af41580156129f3573d6000803e3d6000fd5b505050506040513d601f19601f82011682018060405250810190612a179190614d15565b509050612a4d8260000151828460800151612a438660a001518760c0015161355d90919063ffffffff16565b8660e00151611f62565b81516020830151606084015160405163270541df60e11b8152731D7e4a087A273818FB5478aE385Cd6E87319818093634e0a83be93612ad5937f0000000000000000000000000000000000000000000000000000000000000000937f000000000000000000000000000000000000000000000000000000000000000093929190600401615895565b60006040518083038186803b158015612aed57600080fd5b505af4158015612b01573d6000803e3d6000fd5b50505050505061075a565b60088260ff166008811115612b1d57fe5b6008811115612b2857fe5b141561075a57604051632e1a7d4d60e01b81526001600160a01b037f00000000000000000000000000000000000000000000000000000000000000001690632e1a7d4d90612b7a908790600401615c5d565b600060405180830381600087803b158015612b9457600080fd5b505af1158015612ba8573d6000803e3d6000fd5b5050505060008082806020019051810190612bc3919061533b565b915091507f00000000000000000000000000000000000000000000000000000000000000006001600160a01b031663b6b55f2587846040518363ffffffff1660e01b8152600401612c149190615c5d565b6000604051808303818588803b158015612c2d57600080fd5b505af1158015612c41573d6000803e3d6000fd5b505060405163713d517f60e01b81526001600160a01b037f000000000000000000000000000000000000000000000000000000000000000016935063713d517f9250612c9291508590600401615c5d565b600060405180830381600087803b158015612cac57600080fd5b505af1158015612cc0573d6000803e3d6000fd5b50505050612ced604051806040016040528060078152602001661d985d5b1d125960ca1b81525083614406565b60005b8151811015613453576000828281518110612d0757fe5b6020026020010151600001516004811115612d1e57fe5b1415612ec6574715612d9f577f00000000000000000000000000000000000000000000000000000000000000006001600160a01b031663d0e30db0476040518263ffffffff1660e01b81526004016000604051808303818588803b158015612d8557600080fd5b505af1158015612d99573d6000803e3d6000fd5b50505050505b6000828281518110612dad57fe5b602002602001015160200151806020019051810190612dcc919061509a565b6040516379e47f2560e11b8152909150731D7e4a087A273818FB5478aE385Cd6E8731981809063f3c8fe4a90612e90907f0000000000000000000000000000000000000000000000000000000000000000907f0000000000000000000000000000000000000000000000000000000000000000907f0000000000000000000000000000000000000000000000000000000000000000908a9088907f000000000000000000000000000000000000000000000000000000000000000090600401615820565b60006040518083038186803b158015612ea857600080fd5b505af4158015612ebc573d6000803e3d6000fd5b505050505061344b565b6001828281518110612ed457fe5b6020026020010151600001516004811115612eeb57fe5b141561303e576000828281518110612eff57fe5b602002602001015160200151806020019051810190612f1e9190614dab565b9050731D7e4a087A273818FB5478aE385Cd6E8731981806344ac10597f00000000000000000000000000000000000000000000000000000000000000006040518060a0016040528085600001518152602001856020015181526020018560400151815260200185606001516001600160801b0316815260200185608001516001600160801b03168152507f00000000000000000000000000000000000000000000000000000000000000006040518463ffffffff1660e01b8152600401612fe7939291906159b8565b604080518083038186803b158015612ffe57600080fd5b505af4158015613012573d6000803e3d6000fd5b505050506040513d601f19601f820116820180604052508101906130369190614d15565b50505061344b565b600282828151811061304c57fe5b602002602001015160000151600481111561306357fe5b14156130fb57600082828151811061307757fe5b60200260200101516020015180602001905181019061309691906151a6565b805160208201516040516301ba575960e71b8152929350731D7e4a087A273818FB5478aE385Cd6E8731981809263dd2bac8092612e90927f0000000000000000000000000000000000000000000000000000000000000000928a929190600401615a32565b600382828151811061310957fe5b602002602001015160000151600481111561312057fe5b14156131b857600082828151811061313457fe5b60200260200101516020015180602001905181019061315391906151a6565b805160208201516040516311ab1cad60e21b8152929350731D7e4a087A273818FB5478aE385Cd6E873198180926346ac72b492612e90927f0000000000000000000000000000000000000000000000000000000000000000928a929190600401615a32565b60048282815181106131c657fe5b60200260200101516000015160048111156131dd57fe5b141561344b5760008282815181106131f157fe5b602002602001015160200151806020019051810190613210919061510c565b90506000731D7e4a087A273818FB5478aE385Cd6E87319818063de1088097f00000000000000000000000000000000000000000000000000000000000000007f00000000000000000000000000000000000000000000000000000000000000007f00000000000000000000000000000000000000000000000000000000000000007f00000000000000000000000000000000000000000000000000000000000000008a886040518763ffffffff1660e01b81526004016132d596959493929190615680565b60206040518083038186803b1580156132ed57600080fd5b505af4158015613301573d6000803e3d6000fd5b505050506040513d601f19601f820116820180604052508101906133259190615323565b60405163095ea7b360e01b81529091506001600160a01b037f0000000000000000000000000000000000000000000000000000000000000000169063095ea7b390613396907f0000000000000000000000000000000000000000000000000000000000000000908590600401615a19565b600060405180830381600087803b1580156133b057600080fd5b505af11580156133c4573d6000803e3d6000fd5b50506040516348dc69a560e11b81526001600160a01b037f00000000000000000000000000000000000000000000000000000000000000001692506391b8d34a91506134169088908590600401615d3f565b600060405180830381600087803b15801561343057600080fd5b505af1158015613444573d6000803e3d6000fd5b5050505050505b600101612cf0565b50604051630441a3e760e41b81526001600160a01b037f0000000000000000000000000000000000000000000000000000000000000000169063441a3e70906134a29085908a90600401615d3f565b600060405180830381600087803b1580156134bc57600080fd5b505af11580156134d0573d6000803e3d6000fd5b50506001600160a01b037f000000000000000000000000000000000000000000000000000000000000000016915063d0e30db0905061350f888861355d565b6040518263ffffffff1660e01b81526004016000604051808303818588803b15801561353a57600080fd5b505af115801561354e573d6000803e3d6000fd5b50505050505050505050505050565b600082820183811015611d3a576040805162461bcd60e51b815260206004820152601b60248201527a536166654d6174683a206164646974696f6e206f766572666c6f7760281b604482015290519081900360640190fd5b60008282111561360c576040805162461bcd60e51b815260206004820152601e60248201527f536166654d6174683a207375627472616374696f6e206f766572666c6f770000604482015290519081900360640190fd5b50900390565b60006136678530600060405180608001604052808c8c8f60405160200161363b939291906155fc565b60408051601f1981840301815291815290825233602083015260ff8a16908201526060018790526144b4565b90506136936040518060400160405280600881526020016730b6b7bab73a24b760c11b81525082614406565b6136c56040518060400160405280601081526020016f5f616d6f756e74496e4d6178696d756d60801b81525085614406565b838111156136d257600080fd5b5050505050505050565b600080806136ea8482614621565b92506136f78460146146d1565b9050613704846017614621565b91509193909250565b60006137238561371e868686614778565b6147ce565b95945050505050565b60008160ff16600881111561373d57fe5b600881111561374857fe5b1415613a5c57600082806020019051810190613764919061503c565b6040516370a0823160e01b81529091506001600160a01b037f00000000000000000000000000000000000000000000000000000000000000001690632e1a7d4d9082906370a08231906137bb903090600401615648565b60206040518083038186803b1580156137d357600080fd5b505afa1580156137e7573d6000803e3d6000fd5b505050506040513d601f19601f8201168201806040525081019061380b9190615323565b6040518263ffffffff1660e01b81526004016138279190615c5d565b600060405180830381600087803b15801561384157600080fd5b505af1158015613855573d6000803e3d6000fd5b505050602082015182516040808501519051630728cf2360e31b8152600094506001600160a01b037f0000000000000000000000000000000000000000000000000000000000000000169363394679189390926138b6928790600401615632565b6020604051808303818588803b1580156138cf57600080fd5b505af11580156138e3573d6000803e3d6000fd5b50505050506040513d601f19601f820116820180604052508101906139089190615323565b60405163a9059cbb60e01b81529091506001600160a01b037f0000000000000000000000000000000000000000000000000000000000000000169063a9059cbb90613979907f0000000000000000000000000000000000000000000000000000000000000000908990600401615a19565b602060405180830381600087803b15801561399357600080fd5b505af11580156139a7573d6000803e3d6000fd5b505050506040513d601f19601f820116820180604052508101906139cb9190614cd9565b508151613a5557604051632142170760e11b81526001600160a01b037f000000000000000000000000000000000000000000000000000000000000000016906342842e0e90613a229030908d90869060040161565c565b600060405180830381600087803b158015613a3c57600080fd5b505af1158015613a50573d6000803e3d6000fd5b505050505b5050612212565b60018160ff166008811115613a6d57fe5b6008811115613a7857fe5b1415613cfb57600082806020019051810190613a949190614e3d565b805160208201516060830151604051638632cb0360e01b81529394506001600160a01b037f00000000000000000000000000000000000000000000000000000000000000001693638632cb0393613af19390929091600401615632565b600060405180830381600087803b158015613b0b57600080fd5b505af1158015613b1f573d6000803e3d6000fd5b505050507f00000000000000000000000000000000000000000000000000000000000000006001600160a01b031663d0e30db0856040518263ffffffff1660e01b81526004016000604051808303818588803b158015613b7e57600080fd5b505af1158015613b92573d6000803e3d6000fd5b505060405163a9059cbb60e01b81526001600160a01b037f000000000000000000000000000000000000000000000000000000000000000016935063a9059cbb9250613c0591507f0000000000000000000000000000000000000000000000000000000000000000908890600401615a19565b602060405180830381600087803b158015613c1f57600080fd5b505af1158015613c33573d6000803e3d6000fd5b505050506040513d601f19601f82011682018060405250810190613c579190614cd9565b50604080820151905163a9059cbb60e01b81526001600160a01b037f0000000000000000000000000000000000000000000000000000000000000000169163a9059cbb91613ca9918c91600401615a19565b602060405180830381600087803b158015613cc357600080fd5b505af1158015613cd7573d6000803e3d6000fd5b505050506040513d601f19601f82011682018060405250810190613a559190614cd9565b60028160ff166008811115613d0c57fe5b6008811115613d1757fe5b1415613e8857600082806020019051810190613d339190614e3d565b6040516370a0823160e01b81529091506001600160a01b037f00000000000000000000000000000000000000000000000000000000000000001690632e1a7d4d9082906370a0823190613d8a903090600401615648565b60206040518083038186803b158015613da257600080fd5b505afa158015613db6573d6000803e3d6000fd5b505050506040513d601f19601f82011682018060405250810190613dda9190615323565b6040518263ffffffff1660e01b8152600401613df69190615c5d565b600060405180830381600087803b158015613e1057600080fd5b505af1158015613e24573d6000803e3d6000fd5b5050505060007f00000000000000000000000000000000000000000000000000000000000000006001600160a01b0316633946791883604001518460000151856020015160006040518563ffffffff1660e01b81526004016138b693929190615632565b60038160ff166008811115613e9957fe5b6008811115613ea457fe5b1415613fe45760405163a9059cbb60e01b81526001600160a01b037f0000000000000000000000000000000000000000000000000000000000000000169063a9059cbb90613f18907f0000000000000000000000000000000000000000000000000000000000000000908790600401615a19565b602060405180830381600087803b158015613f3257600080fd5b505af1158015613f46573d6000803e3d6000fd5b505050506040513d601f19601f82011682018060405250810190613f6a9190614cd9565b507f00000000000000000000000000000000000000000000000000000000000000006001600160a01b031663d0e30db0476040518263ffffffff1660e01b81526004016000604051808303818588803b158015613fc657600080fd5b505af1158015613fda573d6000803e3d6000fd5b5050505050612212565b60048160ff166008811115613ff557fe5b600881111561400057fe5b14156140cc5760405163a9059cbb60e01b81526001600160a01b037f0000000000000000000000000000000000000000000000000000000000000000169063a9059cbb90614074907f0000000000000000000000000000000000000000000000000000000000000000908790600401615a19565b602060405180830381600087803b15801561408e57600080fd5b505af11580156140a2573d6000803e3d6000fd5b505050506040513d601f19601f820116820180604052508101906140c69190614cd9565b50612212565b60058160ff1660088111156140dd57fe5b60088111156140e857fe5b1415612212576000828060200190518101906141049190615290565b805160208201516040808401519051638632cb0360e01b81529394506001600160a01b037f00000000000000000000000000000000000000000000000000000000000000001693638632cb03936141619390929091600401615632565b600060405180830381600087803b15801561417b57600080fd5b505af115801561418f573d6000803e3d6000fd5b505050507f00000000000000000000000000000000000000000000000000000000000000006001600160a01b031663d0e30db0476040518263ffffffff1660e01b81526004016000604051808303818588803b1580156141ee57600080fd5b505af1158015614202573d6000803e3d6000fd5b505060405163a9059cbb60e01b81526001600160a01b037f000000000000000000000000000000000000000000000000000000000000000016935063a9059cbb925061427591507f0000000000000000000000000000000000000000000000000000000000000000908890600401615a19565b602060405180830381600087803b15801561428f57600080fd5b505af11580156142a3573d6000803e3d6000fd5b505050506040513d601f19601f82011682018060405250810190611b389190614cd9565b6000806000806142da85600001516136dc565b919450925090506001600160a01b03808316908416106000806142fe8686866147f1565b6001600160a01b031663128acb088b856143178f61482f565b6001600160a01b038e161561432c578d614352565b8761434b5773fffd8963efd1fc6a506488495d951d5263988d25614352565b6401000276a45b8d6040516020016143639190615c05565b6040516020818303038152906040526040518663ffffffff1660e01b815260040161439295949392919061597d565b6040805180830381600087803b1580156143ab57600080fd5b505af11580156143bf573d6000803e3d6000fd5b505050506040513d601f19601f820116820180604052508101906143e39190614d15565b91509150826143f257816143f4565b805b6000039b9a5050505050505050505050565b6118aa82826040516024018080602001838152602001828103825284818151815260200191508051906020019080838360005b83811015614451578181015183820152602001614439565b50505050905090810190601f16801561447e5780820380516001836020036101000a031916815260200191505b5060408051601f198184030181529190526020810180516001600160e01b03166309710a9d60e41b179052935061484592505050565b6000806000806144c785600001516136dc565b919450925090506001600160a01b03808416908316106000806144eb8587866147f1565b6001600160a01b031663128acb088b856145048f61482f565b6000036001600160a01b038e161561451c578d614542565b8761453b5773fffd8963efd1fc6a506488495d951d5263988d25614542565b6401000276a45b8d6040516020016145539190615c05565b6040516020818303038152906040526040518663ffffffff1660e01b815260040161458295949392919061597d565b6040805180830381600087803b15801561459b57600080fd5b505af11580156145af573d6000803e3d6000fd5b505050506040513d601f19601f820116820180604052508101906145d39190614d15565b91509150600080846145e95782846000036145ef565b83836000035b915091508a6001600160a01b031660001415614611578c811461461157600080fd5b509b9a5050505050505050505050565b600081826014011015614670576040805162461bcd60e51b8152602060048201526012602482015271746f416464726573735f6f766572666c6f7760701b604482015290519081900360640190fd5b81601401835110156146c1576040805162461bcd60e51b8152602060048201526015602482015274746f416464726573735f6f75744f66426f756e647360581b604482015290519081900360640190fd5b500160200151600160601b900490565b60008182600301101561471f576040805162461bcd60e51b8152602060048201526011602482015270746f55696e7432345f6f766572666c6f7760781b604482015290519081900360640190fd5b816003018351101561476f576040805162461bcd60e51b8152602060048201526014602482015273746f55696e7432345f6f75744f66426f756e647360601b604482015290519081900360640190fd5b50016003015190565b614780614945565b826001600160a01b0316846001600160a01b0316111561479e579192915b50604080516060810182526001600160a01b03948516815292909316602083015262ffffff169181019190915290565b60006147da8383614866565b9050336001600160a01b03821614611d3d57600080fd5b60006148277f0000000000000000000000000000000000000000000000000000000000000000614822868686614778565b614866565b949350505050565b6000600160ff1b821061484157600080fd5b5090565b80516a636f6e736f6c652e6c6f67602083016000808483855afa5050505050565b600081602001516001600160a01b031682600001516001600160a01b03161061488e57600080fd5b50805160208083015160409384015184516001600160a01b0394851681850152939091168385015262ffffff166060808401919091528351808403820181526080840185528051908301206001600160f81b031960a085015294901b6001600160601b03191660a183015260b58201939093527fe34f199b19b2b4f47f68442619d555527d244f78a3297ea89325f843f87b8b5460d5808301919091528251808303909101815260f5909101909152805191012090565b604080516060810182526000808252602082018190529181019190915290565b803561497081615dbd565b919050565b805161497081615dbd565b60008083601f840112614991578182fd5b5081356001600160401b038111156149a7578182fd5b60208301915083602080830285010111156149c157600080fd5b9250929050565b60008083601f8401126149d9578182fd5b5081356001600160401b038111156149ef578182fd5b6020830191508360208285010111156149c157600080fd5b600082601f830112614a17578081fd5b8135614a2a614a2582615d70565b615d4d565b818152846020838601011115614a3e578283fd5b816020850160208301379081016020019190915292915050565b803561497081615ddf565b805161497081615ddf565b60006101208284031215614a80578081fd5b50919050565b600060a08284031215614a80578081fd5b600060a08284031215614aa8578081fd5b60405160a081016001600160401b0381118282101715614ac457fe5b806040525080915082518152602083015160208201526040830151604082015260608301516060820152608083015160808201525092915050565b60006101408284031215614a80578081fd5b600060408284031215614b22578081fd5b604080519081016001600160401b0381118282101715614b3e57fe5b604052825181526020928301519281019290925250919050565b803561497081615dee565b805161497081615dee565b803560ff8116811461497057600080fd5b600060208284031215614b90578081fd5b8135611d3a81615dbd565b60008060008060808587031215614bb0578283fd5b8435614bbb81615dbd565b93506020850135614bcb81615dbd565b92506040850135915060608501356001600160401b03811115614bec578182fd5b614bf887828801614a07565b91505092959194509250565b600080600080600080600080600060a08a8c031215614c21578687fd5b89356001600160401b0380821115614c37578889fd5b614c438d838e01614980565b909b50995060208c0135915080821115614c5b578889fd5b614c678d838e01614980565b909950975060408c0135915080821115614c7f578687fd5b614c8b8d838e01614980565b909750955060608c01359150614ca082615dbd565b90935060808b01359080821115614cb5578384fd5b50614cc28c828d016149c8565b915080935050809150509295985092959850929598565b600060208284031215614cea578081fd5b81518015158114611d3a578182fd5b600060208284031215614d0a578081fd5b8135611d3a81615ddf565b60008060408385031215614d27578182fd5b505080516020909101519092909150565b60008060008060608587031215614d4d578182fd5b843593506020850135925060408501356001600160401b03811115614d70578283fd5b614d7c878288016149c8565b95989497509550505050565b60006101208284031215614d9a578081fd5b614da48383614a6e565b9392505050565b600060a08284031215614dbc578081fd5b60405160a081016001600160401b0381118282101715614dd857fe5b80604052508251815260208301516020820152604083015160408201526060830151614e0381615dee565b60608201526080830151614e1681615dee565b60808201529392505050565b600060a08284031215614e33578081fd5b614da48383614a86565b600060a08284031215614e4e578081fd5b614da48383614a97565b600060208284031215614e69578081fd5b81356001600160401b0380821115614e7f578283fd5b9083019060608286031215614e92578283fd5b604051606081018181108382111715614ea757fe5b6040528235614eb581615dbd565b8152614ec360208401614b6e565b6020820152604083013582811115614ed9578485fd5b614ee587828601614a07565b60408301525095945050505050565b60006101408284031215614f06578081fd5b614da48383614aff565b6000610140808385031215614f23578182fd5b614f2c81615d4d565b9050825181526020830151602082015260408301516040820152606083015160608201526080830151608082015260a083015160a082015260c083015160c082015260e083015160e0820152610100614f86818501614b63565b90820152610120614f98848201614b63565b908201529392505050565b6000610140808385031215614fb6578182fd5b614fbf81615d4d565b9050825181526020830151602082015260408301516040820152606083015160608201526080830151608082015260a083015160a082015260c083015160c082015260e083015160e0820152610100615019818501614a63565b90820152610120614f98848201614a63565b600060808284031215614a80578081fd5b60006080828403121561504d578081fd5b604051608081016001600160401b038111828210171561506957fe5b8060405250825181526020830151602082015260408301516040820152606083015160608201528091505092915050565b600060c082840312156150ab578081fd5b60405160c081016001600160401b03811182821017156150c757fe5b8060405250825181526020830151602082015260408301516040820152606083015160608201526080830151608082015260a083015160a08201528091505092915050565b600061010080838503121561511f578182fd5b604051908101906001600160401b038211818310171561513b57fe5b8160405261514884614975565b81526020840151602082015260408401516040820152606084015160608201526080840151608082015260a084015160a082015261518860c08501614a63565b60c082015261519960e08501614a63565b60e0820152949350505050565b6000604082840312156151b7578081fd5b614da48383614b11565b60006101808284031215614a80578081fd5b6000602082840312156151e4578081fd5b81356001600160401b03808211156151fa578283fd5b908301906080828603121561520d578283fd5b60405160808101818110838211171561522257fe5b604052823582811115615233578485fd5b61523f87828601614a07565b82525061524e60208401614965565b602082015261525f60408401614b6e565b6040820152606083013582811115615275578485fd5b61528187828601614a07565b60608301525095945050505050565b6000606082840312156152a1578081fd5b604051606081016001600160401b03811182821017156152bd57fe5b80604052508251815260208301516020820152604083015160408201528091505092915050565b6000602082840312156152f5578081fd5b8135611d3a81615dee565b600060208284031215615311578081fd5b815162ffffff81168114611d3a578182fd5b600060208284031215615334578081fd5b5051919050565b6000806040838503121561534d578182fd5b8251602080850151919350906001600160401b038082111561536d578384fd5b818601915086601f830112615380578384fd5b81518181111561538c57fe5b6153998485830201615d4d565b81815284810190848601875b8481101561545c57815187016040818e03601f190112156153c457898afd5b6040516040810181811089821117156153d957fe5b604052818a01516153e981615dd2565b81526040820151888111156153fc578b8cfd5b8083019250508d603f830112615410578a8bfd5b89820151615420614a2582615d70565b8181528f6040838601011115615434578c8dfd5b615444828d830160408701615d91565b828c01525085525092870192908701906001016153a5565b50979a909950975050505050505050565b60008060008060608587031215615482578182fd5b843593506020850135925060408501356001600160401b038111156154a5578283fd5b614d7c87828801614980565b6001600160a01b03169052565b6000815180845260208085019450808401835b838110156154ed578151875295820195908201906001016154d1565b509495945050505050565b15159052565b60008284528282602086013780602084860101526020601f19601f85011685010190509392505050565b60008151808452615540816020860160208601615d91565b601f01601f19169290920160200192915050565b60020b9052565b61ffff169052565b80358252602081013560208301526040810135604083015260608101356060830152608081013560808301525050565b60018060a01b0381511682526020810151602083015260408101516040830152606081015160608301526080810151608083015260a081015160a083015260c081015160020b60c083015260e081015160020b60e08301525050565b6001600160801b03169052565b606093841b6001600160601b0319908116825260e89390931b6001600160e81b0319166014820152921b166017820152602b0190565b9283526020830191909152604082015260600190565b6001600160a01b0391909116815260200190565b6001600160a01b039384168152919092166020820152604081019190915260600190565b6001600160a01b0387811682528681166020830152858116604083015284166060820152608081018390526101a08101611e6d60a0830184615593565b6001600160a01b03878116825286811660208301528581166040830152841660608201526101c081016156fb608083016156f686614965565b6154b1565b602084013560a0830152604084013560c0830152606084013560e083015261010060808501358184015260a085013561012084015260c085013561014084015261574760e08601614a58565b615755610160850182615554565b50615761818601614a58565b9050615771610180840182615554565b50611e6d6101a08301846154f8565b60006101c08201905060018060a01b03808916835280881660208401528087166040840152808616606084015280855116608084015250602084015160a0830152604084015160c0830152606084015160e08301526080840151610100818185015260a086015161012085015260c086015161014085015260e0860151915061580d610160850183615554565b8501519050615771610180840182615554565b60006101608201905060018060a01b038089168352808816602084015280871660408401525084606083015283516080830152602084015160a0830152604084015160c0830152606084015160e0830152608084015161010083015260a0840151610120830152611e6d6101408301846154f8565b6001600160a01b03958616815293909416602084015260408301919091526060820152608081019190915260a00190565b6001600160a01b03888116825260e0602080840182905289519184018290526000928a820192909190610100860190855b818110156159155785518516835294830194918301916001016158f7565b50508581036040870152615929818c6154be565b9350505050828103606084015261594081886154be565b905061594f60808401876154b1565b82810360a08401526159618186615528565b91505061597160c083018461555b565b98975050505050505050565b6001600160a01b0386811682528515156020830152604082018590528316606082015260a060808201819052600090611e6d90830184615528565b6001600160a01b0393909316835281516020808501919091528201516040808501919091528201516060808501919091528201516001600160801b039081166080808601919091529092015190911660a0830152151560c082015260e00190565b6001600160a01b03929092168252602082015260400190565b6001600160a01b0394909416845260208401929092526040830152606082015260800190565b901515815260200190565b6001600160e01b031991909116815260200190565b60a08101611d3d8284615563565b60006020825260018060a01b03835116602083015260ff602084015116604083015260408301516060808401526148276080840182615528565b600061014082019050823582526020830135602083015260408301356040830152606083013560608301526080830135608083015260a083013560a083015260c083013560c083015260e083013560e0830152610100615b21818501614b58565b615b2d828501826155ef565b5050610120615b3d818501614b58565b615b49828501826155ef565b505092915050565b600061014082019050823582526020830135602083015260408301356040830152606083013560608301526080830135608083015260a083013560a083015260c083013560c083015260e083013560e0830152610100615bb2818501614a58565b615bbe82850182615554565b5050610120615bce818501614a58565b615b4982850182615554565b8135815260208083013590820152604080830135908201526060918201359181019190915260800190565b600060208252825160806020840152615c2160a0840182615528565b905060018060a01b03602085015116604084015260ff60408501511660608401526060840151601f198483030160808501526137238282615528565b90815260200190565b6000604080830186845260208281860152818683526060860190506060828802870101925087855b88811015615d3057878503605f190183528135368b9003603e19018112615cb3578788fd5b8a018035615cc081615dd2565b60058110615cca57fe5b86528085013536829003601e19018112615ce2578889fd5b810180356001600160401b03811115615cf957898afd5b803603831315615d0757898afd5b8887890152615d1b898901828985016154fe565b97505050928401925090830190600101615c8e565b50929998505050505050505050565b918252602082015260400190565b6040518181016001600160401b0381118282101715615d6857fe5b604052919050565b60006001600160401b03821115615d8357fe5b50601f01601f191660200190565b60005b83811015615dac578181015183820152602001615d94565b838111156103cc5750506000910152565b6001600160a01b038116811461089857600080fd5b6005811061089857600080fd5b8060020b811461089857600080fd5b6001600160801b038116811461089857600080fdfe416464726573733a20756e61626c6520746f2073656e642076616c75652c20726563697069656e74206d61792068617665207265766572746564536166654d6174683a206d756c7469706c69636174696f6e206f766572666c6f77a264697066735822122033fb3bf30ba49bd705bd7628794cfdcffa3f28b455b97b6b5f5238925cae7a6f64736f6c63430007060033",
  "deployedBytecode": "0x60806040526004361061011f5760003560e01c806303d322ba1461012b5780630542975c14610140578063150b7a021461016b5780633c11bae2146101985780633fc8cef3146101b857806345647055146101cd57806372938974146101e05780637dc0d1d0146102005780637f07b130146102155780638437f8261461022a578063920f5c841461023d5780639b563e731461026a5780639d4c94421461027d5780639f24c97114610292578063ad9bb363146102a5578063b44a2722146102b8578063b4dcfc77146102cd578063b707ab99146102e2578063c45a0155146102f7578063d4553e511461030c578063d6c646811461031f578063ef0b69dd14610332578063f77c479114610347578063fa461e331461035c57610126565b3661012657005b600080fd5b61013e61013936600461546d565b61037c565b005b34801561014c57600080fd5b506101556103d2565b6040516101629190615648565b60405180910390f35b34801561017757600080fd5b5061018b610186366004614b9b565b6103f6565b6040516101629190615a63565b3480156101a457600080fd5b5061013e6101b3366004614e22565b610406565b3480156101c457600080fd5b50610155610762565b61013e6101db36600461502b565b610786565b3480156101ec57600080fd5b5061013e6101fb366004614d88565b61089b565b34801561020c57600080fd5b50610155610b80565b34801561022157600080fd5b50610155610ba4565b61013e610238366004614ef4565b610bc8565b34801561024957600080fd5b5061025d610258366004614c04565b610c04565b6040516101629190615a58565b61013e610278366004614ef4565b610dc4565b34801561028957600080fd5b50610155610e8a565b61013e6102a03660046151c1565b610eae565b61013e6102b3366004614e22565b6114f5565b3480156102c457600080fd5b50610155611631565b3480156102d957600080fd5b50610155611655565b3480156102ee57600080fd5b50610155611679565b34801561030357600080fd5b5061015561169d565b61013e61031a366004614d88565b6116c1565b61013e61032d366004614e22565b6118ae565b34801561033e57600080fd5b5061025d611a55565b34801561035357600080fd5b50610155611a79565b34801561036857600080fd5b5061013e610377366004614d38565b611a9d565b6103cc7f00000000000000000000000000000000000000000000000000000000000000008460088786866040516020016103b893929190615c66565b604051602081830303815290604052611b43565b50505050565b7f000000000000000000000000000000000000000000000000000000000000000081565b630a85bd0160e11b949350505050565b604051632142170760e11b81526001600160a01b037f000000000000000000000000000000000000000000000000000000000000000016906342842e0e90610457903390309086359060040161565c565b600060405180830381600087803b15801561047157600080fd5b505af1158015610485573d6000803e3d6000fd5b50505050600073__$561e80098325da493156966792c25e3551$__6344ac10597f00000000000000000000000000000000000000000000000000000000000000006040518060a001604052808660000135815260200186602001358152602001670de0b6b3a7640000815260200186604001602081019061050691906152e4565b6001600160801b0316815260200161052460808801606089016152e4565b6001600160801b03168152507f00000000000000000000000000000000000000000000000000000000000000006040518463ffffffff1660e01b815260040161056f939291906159b8565b604080518083038186803b15801561058657600080fd5b505af415801561059a573d6000803e3d6000fd5b505050506040513d601f19601f820116820180604052508101906105be9190614d15565b50905080156106d7576106d57f00000000000000000000000000000000000000000000000000000000000000007f00000000000000000000000000000000000000000000000000000000000000007f00000000000000000000000000000000000000000000000000000000000000006001600160a01b031663ddca3f436040518163ffffffff1660e01b815260040160206040518083038186803b15801561066557600080fd5b505afa158015610679573d6000803e3d6000fd5b505050506040513d601f19601f8201168201806040525081019061069d9190615300565b846106be670de0b6b3a76400006106b860808a013584611ce1565b90611d43565b600360405180602001604052806000815250611da7565b505b60405163f475dc2160e01b815273__$561e80098325da493156966792c25e3551$__9063f475dc219061072e907f000000000000000000000000000000000000000000000000000000000000000090600401615648565b60006040518083038186803b15801561074657600080fd5b505af415801561075a573d6000803e3d6000fd5b505050505050565b7f000000000000000000000000000000000000000000000000000000000000000081565b61088d7f00000000000000000000000000000000000000000000000000000000000000007f00000000000000000000000000000000000000000000000000000000000000007f00000000000000000000000000000000000000000000000000000000000000006001600160a01b031663ddca3f436040518163ffffffff1660e01b815260040160206040518083038186803b15801561082457600080fd5b505afa158015610838573d6000803e3d6000fd5b505050506040513d601f19601f8201168201806040525081019061085c9190615300565b604085013560608601356000876040516020016108799190615bda565b604051602081830303815290604052611da7565b506108983347611e78565b50565b604051632142170760e11b81526001600160a01b037f000000000000000000000000000000000000000000000000000000000000000016906342842e0e906108ef903390309060208701359060040161565c565b600060405180830381600087803b15801561090957600080fd5b505af115801561091d573d6000803e3d6000fd5b50505050600073__$561e80098325da493156966792c25e3551$__6344ac10597f00000000000000000000000000000000000000000000000000000000000000006040518060a001604052808660200135815260200186604001358152602001866060013581526020018660e001602081019061099a91906152e4565b6001600160801b031681526020016109ba610120880161010089016152e4565b6001600160801b03168152507f00000000000000000000000000000000000000000000000000000000000000006040518463ffffffff1660e01b8152600401610a05939291906159b8565b604080518083038186803b158015610a1c57600080fd5b505af4158015610a30573d6000803e3d6000fd5b505050506040513d601f19601f82011682018060405250810190610a549190614d15565b509050610a71823582608085013560a086013560c0870135611f62565b60405163270541df60e11b815273__$561e80098325da493156966792c25e3551$__90634e0a83be90610af9907f0000000000000000000000000000000000000000000000000000000000000000907f00000000000000000000000000000000000000000000000000000000000000009060009060208901359060608a013590600401615895565b60006040518083038186803b158015610b1157600080fd5b505af4158015610b25573d6000803e3d6000fd5b505060405163f475dc2160e01b815273__$561e80098325da493156966792c25e3551$__925063f475dc21915061072e907f000000000000000000000000000000000000000000000000000000000000000090600401615648565b7f000000000000000000000000000000000000000000000000000000000000000081565b7f000000000000000000000000000000000000000000000000000000000000000081565b6108987f000000000000000000000000000000000000000000000000000000000000000060608301356006846040516020016103b89190615b51565b6000336001600160a01b037f00000000000000000000000000000000000000000000000000000000000000001614610c3b57600080fd5b60018914610c4857600080fd5b6000610c5683850185614e58565b9050610cb981600001518c8c6000818110610c6d57fe5b9050602002016020810190610c829190614b7f565b8b8b6000818110610c8f57fe5b905060200201358a8a6000818110610ca357fe5b905060200201358560200151866040015161221b565b8a8a6000818110610cc657fe5b9050602002016020810190610cdb9190614b7f565b6001600160a01b031663095ea7b37f0000000000000000000000000000000000000000000000000000000000000000610d438a8a6000818110610d1a57fe5b905060200201358d8d6000818110610d2e57fe5b9050602002013561355d90919063ffffffff16565b6040518363ffffffff1660e01b8152600401610d60929190615a19565b602060405180830381600087803b158015610d7a57600080fd5b505af1158015610d8e573d6000803e3d6000fd5b505050506040513d601f19601f82011682018060405250810190610db29190614cd9565b5060019b9a5050505050505050505050565b610e007f000000000000000000000000000000000000000000000000000000000000000060a08301356007846040516020016103b89190615ac0565b60405163f475dc2160e01b815273__$561e80098325da493156966792c25e3551$__9063f475dc2190610e57907f000000000000000000000000000000000000000000000000000000000000000090600401615648565b60006040518083038186803b158015610e6f57600080fd5b505af4158015610e83573d6000803e3d6000fd5b5050505050565b7f000000000000000000000000000000000000000000000000000000000000000081565b3415610f29577f00000000000000000000000000000000000000000000000000000000000000006001600160a01b031663d0e30db0346040518263ffffffff1660e01b81526004016000604051808303818588803b158015610f0f57600080fd5b505af1158015610f23573d6000803e3d6000fd5b50505050505b604051632142170760e11b81526001600160a01b037f000000000000000000000000000000000000000000000000000000000000000016906342842e0e90610f7a903390309086359060040161565c565b600060405180830381600087803b158015610f9457600080fd5b505af1158015610fa8573d6000803e3d6000fd5b50506040805160a08101825284358152848201356020820152670de0b6b3a7640000818301526001600160801b036101008601358116606083015261012086013516608082015290516344ac105960e01b81526000935073__$561e80098325da493156966792c25e3551$__92506344ac10599161106d917f000000000000000000000000000000000000000000000000000000000000000091907f0000000000000000000000000000000000000000000000000000000000000000906004016159b8565b604080518083038186803b15801561108457600080fd5b505af4158015611098573d6000803e3d6000fd5b505050506040513d601f19601f820116820180604052508101906110bc9190614d15565b50905080826060013511156111f3576111ee7f00000000000000000000000000000000000000000000000000000000000000007f00000000000000000000000000000000000000000000000000000000000000007f00000000000000000000000000000000000000000000000000000000000000006001600160a01b031663ddca3f436040518163ffffffff1660e01b815260040160206040518083038186803b15801561116957600080fd5b505afa15801561117d573d6000803e3d6000fd5b505050506040513d601f19601f820116820180604052508101906111a19190615300565b6111af6060870135866135b5565b6111d7670de0b6b3a76400006106b86111cc60608b01358a6135b5565b60e08b013590611ce1565b600460405180602001604052806000815250613612565b611305565b808260600135101561130557600061120f8260608501356135b5565b90506113027f00000000000000000000000000000000000000000000000000000000000000007f00000000000000000000000000000000000000000000000000000000000000007f00000000000000000000000000000000000000000000000000000000000000006001600160a01b031663ddca3f436040518163ffffffff1660e01b815260040160206040518083038186803b1580156112af57600080fd5b505afa1580156112c3573d6000803e3d6000fd5b505050506040513d601f19601f820116820180604052508101906112e79190615300565b846106be670de0b6b3a76400006106b860e08b013584611ce1565b50505b73__$561e80098325da493156966792c25e3551$__63de1088097f00000000000000000000000000000000000000000000000000000000000000007f00000000000000000000000000000000000000000000000000000000000000007f00000000000000000000000000000000000000000000000000000000000000007f00000000000000000000000000000000000000000000000000000000000000006000604051806101000160405280336001600160a01b031681526020018a6020013581526020017f00000000000000000000000000000000000000000000000000000000000000006113f9578a606001356113ff565b8a608001355b81526020017f0000000000000000000000000000000000000000000000000000000000000000611433578a60800135611439565b8a606001355b815260a08b0135602082015260c08b013560408201526060016114646101608c016101408d01614cf9565b60020b815260200161147e6101808c016101608d01614cf9565b60020b8152506040518763ffffffff1660e01b81526004016114a596959493929190615680565b60206040518083038186803b1580156114bd57600080fd5b505af41580156114d1573d6000803e3d6000fd5b505050506040513d601f19601f820116820180604052508101906106d59190615323565b61150360608201353461355d565b8160800135111561151357600080fd5b6116277f00000000000000000000000000000000000000000000000000000000000000007f00000000000000000000000000000000000000000000000000000000000000007f00000000000000000000000000000000000000000000000000000000000000006001600160a01b031663ddca3f436040518163ffffffff1660e01b815260040160206040518083038186803b1580156115b157600080fd5b505afa1580156115c5573d6000803e3d6000fd5b505050506040513d601f19601f820116820180604052508101906115e99190615300565b6115fb6020860135604087013561355d565b60808601356001876040516020016116139190615a78565b604051602081830303815290604052613612565b6108983347611e78565b7f000000000000000000000000000000000000000000000000000000000000000081565b7f000000000000000000000000000000000000000000000000000000000000000081565b7f000000000000000000000000000000000000000000000000000000000000000081565b7f000000000000000000000000000000000000000000000000000000000000000081565b6116d36060820135608083013561355d565b34146116de57600080fd5b6040516308e6940f60e41b815260009073__$561e80098325da493156966792c25e3551$__90638e6940f0906117c2907f0000000000000000000000000000000000000000000000000000000000000000907f0000000000000000000000000000000000000000000000000000000000000000907f0000000000000000000000000000000000000000000000000000000000000000907f00000000000000000000000000000000000000000000000000000000000000009089907f0000000000000000000000000000000000000000000000000000000000000000906004016156bd565b604080518083038186803b1580156117d957600080fd5b505af41580156117ed573d6000803e3d6000fd5b505050506040513d601f19601f820116820180604052508101906118119190614d15565b50905060208201356118a057604051632142170760e11b81526001600160a01b037f000000000000000000000000000000000000000000000000000000000000000016906342842e0e9061186d9030903390869060040161565c565b600060405180830381600087803b15801561188757600080fd5b505af115801561189b573d6000803e3d6000fd5b505050505b6118aa3347611e78565b5050565b6040516323b872dd60e01b81526001600160a01b037f000000000000000000000000000000000000000000000000000000000000000016906323b872dd90611902903390309060608701359060040161565c565b602060405180830381600087803b15801561191c57600080fd5b505af1158015611930573d6000803e3d6000fd5b505050506040513d601f19601f820116820180604052508101906119549190614cd9565b5061088d7f00000000000000000000000000000000000000000000000000000000000000007f00000000000000000000000000000000000000000000000000000000000000007f00000000000000000000000000000000000000000000000000000000000000006001600160a01b031663ddca3f436040518163ffffffff1660e01b815260040160206040518083038186803b1580156119f357600080fd5b505afa158015611a07573d6000803e3d6000fd5b505050506040513d601f19601f82011682018060405250810190611a2b9190615300565b611a3d6020860135606087013561355d565b60808601356002876040516020016108799190615a78565b7f000000000000000000000000000000000000000000000000000000000000000081565b7f000000000000000000000000000000000000000000000000000000000000000081565b6000841380611aac5750600083135b611ab557600080fd5b6000611ac3828401846151d3565b90506000806000611ad784600001516136dc565b925092509250611b097f000000000000000000000000000000000000000000000000000000000000000084848461370d565b506000808913611b195787611b1b565b885b9050611b388560200151858585858a606001518b6040015161372c565b505050505050505050565b604080516001808252818301909252600091602080830190803683370190505090508481600081518110611b7357fe5b6001600160a01b0392909216602092830291909101909101526040805160018082528183019092526000918160200160208202803683370190505090508481600081518110611bbe57fe5b6020908102919091010152604080516001808252818301909252600091816020016020820280368337019050509050600081600081518110611bfc57fe5b6020026020010181815250507f00000000000000000000000000000000000000000000000000000000000000006001600160a01b031663ab9c4b5d30858585306040518060600160405280336001600160a01b031681526020018d60ff1681526020018c815250604051602001611c739190615a86565b60405160208183030381529060405260006040518863ffffffff1660e01b8152600401611ca697969594939291906158c6565b600060405180830381600087803b158015611cc057600080fd5b505af1158015611cd4573d6000803e3d6000fd5b5050505050505050505050565b600082611cf057506000611d3d565b82820282848281611cfd57fe5b0414611d3a5760405162461bcd60e51b8152600401808060200182810382526021815260200180615e3e6021913960400191505060405180910390fd5b90505b92915050565b6000808211611d96576040805162461bcd60e51b815260206004820152601a602482015279536166654d6174683a206469766973696f6e206279207a65726f60301b604482015290519081900360640190fd5b818381611d9f57fe5b049392505050565b600080611dfd8630600060405180608001604052808e8d8f604051602001611dd1939291906155fc565b60408051601f1981840301815291815290825233602083015260ff8b16908201526060018890526142c7565b9050611e2a60405180604001604052806009815260200168185b5bdd5b9d13dd5d60ba1b81525082614406565b611e5d604051806040016040528060118152602001705f616d6f756e744f75744d696e696d756d60781b81525086614406565b84811015611e6a57600080fd5b90505b979650505050505050565b80471015611ecd576040805162461bcd60e51b815260206004820152601d60248201527f416464726573733a20696e73756666696369656e742062616c616e6365000000604482015290519081900360640190fd5b6040516000906001600160a01b0384169083908381818185875af1925050503d8060008114611f18576040519150601f19603f3d011682016040523d82523d6000602084013e611f1d565b606091505b5050905080611f5d5760405162461bcd60e51b815260040180806020018281038252603a815260200180615e04603a913960400191505060405180910390fd5b505050565b82841015612086576120817f00000000000000000000000000000000000000000000000000000000000000007f00000000000000000000000000000000000000000000000000000000000000007f00000000000000000000000000000000000000000000000000000000000000006001600160a01b031663ddca3f436040518163ffffffff1660e01b815260040160206040518083038186803b15801561200857600080fd5b505afa15801561201c573d6000803e3d6000fd5b505050506040513d601f19601f820116820180604052508101906120409190615300565b61204a87896135b5565b61206a670de0b6b3a76400006106b86120638b8d6135b5565b8990611ce1565b60058b8a8a60405160200161161393929190615632565b610e83565b604051638632cb0360e01b81526001600160a01b037f00000000000000000000000000000000000000000000000000000000000000001690638632cb03906120d690889087908790600401615632565b600060405180830381600087803b1580156120f057600080fd5b505af1158015612104573d6000803e3d6000fd5b50505050600061211d84866135b590919063ffffffff16565b9050801561075a576122127f00000000000000000000000000000000000000000000000000000000000000007f00000000000000000000000000000000000000000000000000000000000000007f00000000000000000000000000000000000000000000000000000000000000006001600160a01b031663ddca3f436040518163ffffffff1660e01b815260040160206040518083038186803b1580156121c357600080fd5b505afa1580156121d7573d6000803e3d6000fd5b505050506040513d601f19601f820116820180604052508101906121fb9190615300565b846106be670de0b6b3a76400006106b88984611ce1565b50505050505050565b60068260ff16600881111561222c57fe5b600881111561223757fe5b1415612746576000818060200190518101906122539190614fa3565b604051632e1a7d4d60e01b81529091506001600160a01b037f00000000000000000000000000000000000000000000000000000000000000001690632e1a7d4d906122a2908890600401615c5d565b600060405180830381600087803b1580156122bc57600080fd5b505af11580156122d0573d6000803e3d6000fd5b5050505060008073__$561e80098325da493156966792c25e3551$__638e6940f07f00000000000000000000000000000000000000000000000000000000000000007f00000000000000000000000000000000000000000000000000000000000000007f00000000000000000000000000000000000000000000000000000000000000007f0000000000000000000000000000000000000000000000000000000000000000604051806101200160405280306001600160a01b031681526020018a6000015181526020018a6020015181526020018a6040015181526020018a6080015181526020018a60c0015181526020018a60e0015181526020018a610100015160020b81526020018a610120015160020b8152507f00000000000000000000000000000000000000000000000000000000000000006040518763ffffffff1660e01b815260040161242896959493929190615780565b604080518083038186803b15801561243f57600080fd5b505af4158015612453573d6000803e3d6000fd5b505050506040513d601f19601f820116820180604052508101906124779190614d15565b60405163095ea7b360e01b815291935091506001600160a01b037f0000000000000000000000000000000000000000000000000000000000000000169063095ea7b3906124ea907f0000000000000000000000000000000000000000000000000000000000000000908590600401615a19565b600060405180830381600087803b15801561250457600080fd5b505af1158015612518573d6000803e3d6000fd5b50506040516348dc69a560e11b81526001600160a01b037f00000000000000000000000000000000000000000000000000000000000000001692506391b8d34a915061256a9085908590600401615d3f565b600060405180830381600087803b15801561258457600080fd5b505af1158015612598573d6000803e3d6000fd5b505050507f00000000000000000000000000000000000000000000000000000000000000006001600160a01b031663441a3e70836125e38660a001518b61355d90919063ffffffff16565b6040518363ffffffff1660e01b8152600401612600929190615d3f565b600060405180830381600087803b15801561261a57600080fd5b505af115801561262e573d6000803e3d6000fd5b50506001600160a01b037f000000000000000000000000000000000000000000000000000000000000000016915063d0e30db0905061266d898961355d565b6040518263ffffffff1660e01b81526004016000604051808303818588803b15801561269857600080fd5b505af11580156126ac573d6000803e3d6000fd5b505085511515925061273e91505057604051632142170760e11b81526001600160a01b037f000000000000000000000000000000000000000000000000000000000000000016906342842e0e9061270b9030908d90879060040161565c565b600060405180830381600087803b15801561272557600080fd5b505af1158015612739573d6000803e3d6000fd5b505050505b50505061075a565b60078260ff16600881111561275757fe5b600881111561276257fe5b1415612b0c5760008180602001905181019061277e9190614f10565b604051632e1a7d4d60e01b81529091506001600160a01b037f00000000000000000000000000000000000000000000000000000000000000001690632e1a7d4d906127cd908890600401615c5d565b600060405180830381600087803b1580156127e757600080fd5b505af11580156127fb573d6000803e3d6000fd5b5050825160405163b6b55f2560e01b81526001600160a01b037f000000000000000000000000000000000000000000000000000000000000000016935063b6b55f259250889161284d91600401615c5d565b6000604051808303818588803b15801561286657600080fd5b505af115801561287a573d6000803e3d6000fd5b5050835160405163713d517f60e01b81526001600160a01b037f000000000000000000000000000000000000000000000000000000000000000016945063713d517f93506128cb9250600401615c5d565b600060405180830381600087803b1580156128e557600080fd5b505af11580156128f9573d6000803e3d6000fd5b50505050600073__$561e80098325da493156966792c25e3551$__6344ac10597f00000000000000000000000000000000000000000000000000000000000000006040518060a001604052808660200151815260200186604001518152602001866060015181526020018661010001516001600160801b031681526020018661012001516001600160801b03168152507f00000000000000000000000000000000000000000000000000000000000000006040518463ffffffff1660e01b81526004016129c8939291906159b8565b604080518083038186803b1580156129df57600080fd5b505af41580156129f3573d6000803e3d6000fd5b505050506040513d601f19601f82011682018060405250810190612a179190614d15565b509050612a4d8260000151828460800151612a438660a001518760c0015161355d90919063ffffffff16565b8660e00151611f62565b81516020830151606084015160405163270541df60e11b815273__$561e80098325da493156966792c25e3551$__93634e0a83be93612ad5937f0000000000000000000000000000000000000000000000000000000000000000937f000000000000000000000000000000000000000000000000000000000000000093929190600401615895565b60006040518083038186803b158015612aed57600080fd5b505af4158015612b01573d6000803e3d6000fd5b50505050505061075a565b60088260ff166008811115612b1d57fe5b6008811115612b2857fe5b141561075a57604051632e1a7d4d60e01b81526001600160a01b037f00000000000000000000000000000000000000000000000000000000000000001690632e1a7d4d90612b7a908790600401615c5d565b600060405180830381600087803b158015612b9457600080fd5b505af1158015612ba8573d6000803e3d6000fd5b5050505060008082806020019051810190612bc3919061533b565b915091507f00000000000000000000000000000000000000000000000000000000000000006001600160a01b031663b6b55f2587846040518363ffffffff1660e01b8152600401612c149190615c5d565b6000604051808303818588803b158015612c2d57600080fd5b505af1158015612c41573d6000803e3d6000fd5b505060405163713d517f60e01b81526001600160a01b037f000000000000000000000000000000000000000000000000000000000000000016935063713d517f9250612c9291508590600401615c5d565b600060405180830381600087803b158015612cac57600080fd5b505af1158015612cc0573d6000803e3d6000fd5b50505050612ced604051806040016040528060078152602001661d985d5b1d125960ca1b81525083614406565b60005b8151811015613453576000828281518110612d0757fe5b6020026020010151600001516004811115612d1e57fe5b1415612ec6574715612d9f577f00000000000000000000000000000000000000000000000000000000000000006001600160a01b031663d0e30db0476040518263ffffffff1660e01b81526004016000604051808303818588803b158015612d8557600080fd5b505af1158015612d99573d6000803e3d6000fd5b50505050505b6000828281518110612dad57fe5b602002602001015160200151806020019051810190612dcc919061509a565b6040516379e47f2560e11b815290915073__$561e80098325da493156966792c25e3551$__9063f3c8fe4a90612e90907f0000000000000000000000000000000000000000000000000000000000000000907f0000000000000000000000000000000000000000000000000000000000000000907f0000000000000000000000000000000000000000000000000000000000000000908a9088907f000000000000000000000000000000000000000000000000000000000000000090600401615820565b60006040518083038186803b158015612ea857600080fd5b505af4158015612ebc573d6000803e3d6000fd5b505050505061344b565b6001828281518110612ed457fe5b6020026020010151600001516004811115612eeb57fe5b141561303e576000828281518110612eff57fe5b602002602001015160200151806020019051810190612f1e9190614dab565b905073__$561e80098325da493156966792c25e3551$__6344ac10597f00000000000000000000000000000000000000000000000000000000000000006040518060a0016040528085600001518152602001856020015181526020018560400151815260200185606001516001600160801b0316815260200185608001516001600160801b03168152507f00000000000000000000000000000000000000000000000000000000000000006040518463ffffffff1660e01b8152600401612fe7939291906159b8565b604080518083038186803b158015612ffe57600080fd5b505af4158015613012573d6000803e3d6000fd5b505050506040513d601f19601f820116820180604052508101906130369190614d15565b50505061344b565b600282828151811061304c57fe5b602002602001015160000151600481111561306357fe5b14156130fb57600082828151811061307757fe5b60200260200101516020015180602001905181019061309691906151a6565b805160208201516040516301ba575960e71b815292935073__$561e80098325da493156966792c25e3551$__9263dd2bac8092612e90927f0000000000000000000000000000000000000000000000000000000000000000928a929190600401615a32565b600382828151811061310957fe5b602002602001015160000151600481111561312057fe5b14156131b857600082828151811061313457fe5b60200260200101516020015180602001905181019061315391906151a6565b805160208201516040516311ab1cad60e21b815292935073__$561e80098325da493156966792c25e3551$__926346ac72b492612e90927f0000000000000000000000000000000000000000000000000000000000000000928a929190600401615a32565b60048282815181106131c657fe5b60200260200101516000015160048111156131dd57fe5b141561344b5760008282815181106131f157fe5b602002602001015160200151806020019051810190613210919061510c565b9050600073__$561e80098325da493156966792c25e3551$__63de1088097f00000000000000000000000000000000000000000000000000000000000000007f00000000000000000000000000000000000000000000000000000000000000007f00000000000000000000000000000000000000000000000000000000000000007f00000000000000000000000000000000000000000000000000000000000000008a886040518763ffffffff1660e01b81526004016132d596959493929190615680565b60206040518083038186803b1580156132ed57600080fd5b505af4158015613301573d6000803e3d6000fd5b505050506040513d601f19601f820116820180604052508101906133259190615323565b60405163095ea7b360e01b81529091506001600160a01b037f0000000000000000000000000000000000000000000000000000000000000000169063095ea7b390613396907f0000000000000000000000000000000000000000000000000000000000000000908590600401615a19565b600060405180830381600087803b1580156133b057600080fd5b505af11580156133c4573d6000803e3d6000fd5b50506040516348dc69a560e11b81526001600160a01b037f00000000000000000000000000000000000000000000000000000000000000001692506391b8d34a91506134169088908590600401615d3f565b600060405180830381600087803b15801561343057600080fd5b505af1158015613444573d6000803e3d6000fd5b5050505050505b600101612cf0565b50604051630441a3e760e41b81526001600160a01b037f0000000000000000000000000000000000000000000000000000000000000000169063441a3e70906134a29085908a90600401615d3f565b600060405180830381600087803b1580156134bc57600080fd5b505af11580156134d0573d6000803e3d6000fd5b50506001600160a01b037f000000000000000000000000000000000000000000000000000000000000000016915063d0e30db0905061350f888861355d565b6040518263ffffffff1660e01b81526004016000604051808303818588803b15801561353a57600080fd5b505af115801561354e573d6000803e3d6000fd5b50505050505050505050505050565b600082820183811015611d3a576040805162461bcd60e51b815260206004820152601b60248201527a536166654d6174683a206164646974696f6e206f766572666c6f7760281b604482015290519081900360640190fd5b60008282111561360c576040805162461bcd60e51b815260206004820152601e60248201527f536166654d6174683a207375627472616374696f6e206f766572666c6f770000604482015290519081900360640190fd5b50900390565b60006136678530600060405180608001604052808c8c8f60405160200161363b939291906155fc565b60408051601f1981840301815291815290825233602083015260ff8a16908201526060018790526144b4565b90506136936040518060400160405280600881526020016730b6b7bab73a24b760c11b81525082614406565b6136c56040518060400160405280601081526020016f5f616d6f756e74496e4d6178696d756d60801b81525085614406565b838111156136d257600080fd5b5050505050505050565b600080806136ea8482614621565b92506136f78460146146d1565b9050613704846017614621565b91509193909250565b60006137238561371e868686614778565b6147ce565b95945050505050565b60008160ff16600881111561373d57fe5b600881111561374857fe5b1415613a5c57600082806020019051810190613764919061503c565b6040516370a0823160e01b81529091506001600160a01b037f00000000000000000000000000000000000000000000000000000000000000001690632e1a7d4d9082906370a08231906137bb903090600401615648565b60206040518083038186803b1580156137d357600080fd5b505afa1580156137e7573d6000803e3d6000fd5b505050506040513d601f19601f8201168201806040525081019061380b9190615323565b6040518263ffffffff1660e01b81526004016138279190615c5d565b600060405180830381600087803b15801561384157600080fd5b505af1158015613855573d6000803e3d6000fd5b505050602082015182516040808501519051630728cf2360e31b8152600094506001600160a01b037f0000000000000000000000000000000000000000000000000000000000000000169363394679189390926138b6928790600401615632565b6020604051808303818588803b1580156138cf57600080fd5b505af11580156138e3573d6000803e3d6000fd5b50505050506040513d601f19601f820116820180604052508101906139089190615323565b60405163a9059cbb60e01b81529091506001600160a01b037f0000000000000000000000000000000000000000000000000000000000000000169063a9059cbb90613979907f0000000000000000000000000000000000000000000000000000000000000000908990600401615a19565b602060405180830381600087803b15801561399357600080fd5b505af11580156139a7573d6000803e3d6000fd5b505050506040513d601f19601f820116820180604052508101906139cb9190614cd9565b508151613a5557604051632142170760e11b81526001600160a01b037f000000000000000000000000000000000000000000000000000000000000000016906342842e0e90613a229030908d90869060040161565c565b600060405180830381600087803b158015613a3c57600080fd5b505af1158015613a50573d6000803e3d6000fd5b505050505b5050612212565b60018160ff166008811115613a6d57fe5b6008811115613a7857fe5b1415613cfb57600082806020019051810190613a949190614e3d565b805160208201516060830151604051638632cb0360e01b81529394506001600160a01b037f00000000000000000000000000000000000000000000000000000000000000001693638632cb0393613af19390929091600401615632565b600060405180830381600087803b158015613b0b57600080fd5b505af1158015613b1f573d6000803e3d6000fd5b505050507f00000000000000000000000000000000000000000000000000000000000000006001600160a01b031663d0e30db0856040518263ffffffff1660e01b81526004016000604051808303818588803b158015613b7e57600080fd5b505af1158015613b92573d6000803e3d6000fd5b505060405163a9059cbb60e01b81526001600160a01b037f000000000000000000000000000000000000000000000000000000000000000016935063a9059cbb9250613c0591507f0000000000000000000000000000000000000000000000000000000000000000908890600401615a19565b602060405180830381600087803b158015613c1f57600080fd5b505af1158015613c33573d6000803e3d6000fd5b505050506040513d601f19601f82011682018060405250810190613c579190614cd9565b50604080820151905163a9059cbb60e01b81526001600160a01b037f0000000000000000000000000000000000000000000000000000000000000000169163a9059cbb91613ca9918c91600401615a19565b602060405180830381600087803b158015613cc357600080fd5b505af1158015613cd7573d6000803e3d6000fd5b505050506040513d601f19601f82011682018060405250810190613a559190614cd9565b60028160ff166008811115613d0c57fe5b6008811115613d1757fe5b1415613e8857600082806020019051810190613d339190614e3d565b6040516370a0823160e01b81529091506001600160a01b037f00000000000000000000000000000000000000000000000000000000000000001690632e1a7d4d9082906370a0823190613d8a903090600401615648565b60206040518083038186803b158015613da257600080fd5b505afa158015613db6573d6000803e3d6000fd5b505050506040513d601f19601f82011682018060405250810190613dda9190615323565b6040518263ffffffff1660e01b8152600401613df69190615c5d565b600060405180830381600087803b158015613e1057600080fd5b505af1158015613e24573d6000803e3d6000fd5b5050505060007f00000000000000000000000000000000000000000000000000000000000000006001600160a01b0316633946791883604001518460000151856020015160006040518563ffffffff1660e01b81526004016138b693929190615632565b60038160ff166008811115613e9957fe5b6008811115613ea457fe5b1415613fe45760405163a9059cbb60e01b81526001600160a01b037f0000000000000000000000000000000000000000000000000000000000000000169063a9059cbb90613f18907f0000000000000000000000000000000000000000000000000000000000000000908790600401615a19565b602060405180830381600087803b158015613f3257600080fd5b505af1158015613f46573d6000803e3d6000fd5b505050506040513d601f19601f82011682018060405250810190613f6a9190614cd9565b507f00000000000000000000000000000000000000000000000000000000000000006001600160a01b031663d0e30db0476040518263ffffffff1660e01b81526004016000604051808303818588803b158015613fc657600080fd5b505af1158015613fda573d6000803e3d6000fd5b5050505050612212565b60048160ff166008811115613ff557fe5b600881111561400057fe5b14156140cc5760405163a9059cbb60e01b81526001600160a01b037f0000000000000000000000000000000000000000000000000000000000000000169063a9059cbb90614074907f0000000000000000000000000000000000000000000000000000000000000000908790600401615a19565b602060405180830381600087803b15801561408e57600080fd5b505af11580156140a2573d6000803e3d6000fd5b505050506040513d601f19601f820116820180604052508101906140c69190614cd9565b50612212565b60058160ff1660088111156140dd57fe5b60088111156140e857fe5b1415612212576000828060200190518101906141049190615290565b805160208201516040808401519051638632cb0360e01b81529394506001600160a01b037f00000000000000000000000000000000000000000000000000000000000000001693638632cb03936141619390929091600401615632565b600060405180830381600087803b15801561417b57600080fd5b505af115801561418f573d6000803e3d6000fd5b505050507f00000000000000000000000000000000000000000000000000000000000000006001600160a01b031663d0e30db0476040518263ffffffff1660e01b81526004016000604051808303818588803b1580156141ee57600080fd5b505af1158015614202573d6000803e3d6000fd5b505060405163a9059cbb60e01b81526001600160a01b037f000000000000000000000000000000000000000000000000000000000000000016935063a9059cbb925061427591507f0000000000000000000000000000000000000000000000000000000000000000908890600401615a19565b602060405180830381600087803b15801561428f57600080fd5b505af11580156142a3573d6000803e3d6000fd5b505050506040513d601f19601f82011682018060405250810190611b389190614cd9565b6000806000806142da85600001516136dc565b919450925090506001600160a01b03808316908416106000806142fe8686866147f1565b6001600160a01b031663128acb088b856143178f61482f565b6001600160a01b038e161561432c578d614352565b8761434b5773fffd8963efd1fc6a506488495d951d5263988d25614352565b6401000276a45b8d6040516020016143639190615c05565b6040516020818303038152906040526040518663ffffffff1660e01b815260040161439295949392919061597d565b6040805180830381600087803b1580156143ab57600080fd5b505af11580156143bf573d6000803e3d6000fd5b505050506040513d601f19601f820116820180604052508101906143e39190614d15565b91509150826143f257816143f4565b805b6000039b9a5050505050505050505050565b6118aa82826040516024018080602001838152602001828103825284818151815260200191508051906020019080838360005b83811015614451578181015183820152602001614439565b50505050905090810190601f16801561447e5780820380516001836020036101000a031916815260200191505b5060408051601f198184030181529190526020810180516001600160e01b03166309710a9d60e41b179052935061484592505050565b6000806000806144c785600001516136dc565b919450925090506001600160a01b03808416908316106000806144eb8587866147f1565b6001600160a01b031663128acb088b856145048f61482f565b6000036001600160a01b038e161561451c578d614542565b8761453b5773fffd8963efd1fc6a506488495d951d5263988d25614542565b6401000276a45b8d6040516020016145539190615c05565b6040516020818303038152906040526040518663ffffffff1660e01b815260040161458295949392919061597d565b6040805180830381600087803b15801561459b57600080fd5b505af11580156145af573d6000803e3d6000fd5b505050506040513d601f19601f820116820180604052508101906145d39190614d15565b91509150600080846145e95782846000036145ef565b83836000035b915091508a6001600160a01b031660001415614611578c811461461157600080fd5b509b9a5050505050505050505050565b600081826014011015614670576040805162461bcd60e51b8152602060048201526012602482015271746f416464726573735f6f766572666c6f7760701b604482015290519081900360640190fd5b81601401835110156146c1576040805162461bcd60e51b8152602060048201526015602482015274746f416464726573735f6f75744f66426f756e647360581b604482015290519081900360640190fd5b500160200151600160601b900490565b60008182600301101561471f576040805162461bcd60e51b8152602060048201526011602482015270746f55696e7432345f6f766572666c6f7760781b604482015290519081900360640190fd5b816003018351101561476f576040805162461bcd60e51b8152602060048201526014602482015273746f55696e7432345f6f75744f66426f756e647360601b604482015290519081900360640190fd5b50016003015190565b614780614945565b826001600160a01b0316846001600160a01b0316111561479e579192915b50604080516060810182526001600160a01b03948516815292909316602083015262ffffff169181019190915290565b60006147da8383614866565b9050336001600160a01b03821614611d3d57600080fd5b60006148277f0000000000000000000000000000000000000000000000000000000000000000614822868686614778565b614866565b949350505050565b6000600160ff1b821061484157600080fd5b5090565b80516a636f6e736f6c652e6c6f67602083016000808483855afa5050505050565b600081602001516001600160a01b031682600001516001600160a01b03161061488e57600080fd5b50805160208083015160409384015184516001600160a01b0394851681850152939091168385015262ffffff166060808401919091528351808403820181526080840185528051908301206001600160f81b031960a085015294901b6001600160601b03191660a183015260b58201939093527fe34f199b19b2b4f47f68442619d555527d244f78a3297ea89325f843f87b8b5460d5808301919091528251808303909101815260f5909101909152805191012090565b604080516060810182526000808252602082018190529181019190915290565b803561497081615dbd565b919050565b805161497081615dbd565b60008083601f840112614991578182fd5b5081356001600160401b038111156149a7578182fd5b60208301915083602080830285010111156149c157600080fd5b9250929050565b60008083601f8401126149d9578182fd5b5081356001600160401b038111156149ef578182fd5b6020830191508360208285010111156149c157600080fd5b600082601f830112614a17578081fd5b8135614a2a614a2582615d70565b615d4d565b818152846020838601011115614a3e578283fd5b816020850160208301379081016020019190915292915050565b803561497081615ddf565b805161497081615ddf565b60006101208284031215614a80578081fd5b50919050565b600060a08284031215614a80578081fd5b600060a08284031215614aa8578081fd5b60405160a081016001600160401b0381118282101715614ac457fe5b806040525080915082518152602083015160208201526040830151604082015260608301516060820152608083015160808201525092915050565b60006101408284031215614a80578081fd5b600060408284031215614b22578081fd5b604080519081016001600160401b0381118282101715614b3e57fe5b604052825181526020928301519281019290925250919050565b803561497081615dee565b805161497081615dee565b803560ff8116811461497057600080fd5b600060208284031215614b90578081fd5b8135611d3a81615dbd565b60008060008060808587031215614bb0578283fd5b8435614bbb81615dbd565b93506020850135614bcb81615dbd565b92506040850135915060608501356001600160401b03811115614bec578182fd5b614bf887828801614a07565b91505092959194509250565b600080600080600080600080600060a08a8c031215614c21578687fd5b89356001600160401b0380821115614c37578889fd5b614c438d838e01614980565b909b50995060208c0135915080821115614c5b578889fd5b614c678d838e01614980565b909950975060408c0135915080821115614c7f578687fd5b614c8b8d838e01614980565b909750955060608c01359150614ca082615dbd565b90935060808b01359080821115614cb5578384fd5b50614cc28c828d016149c8565b915080935050809150509295985092959850929598565b600060208284031215614cea578081fd5b81518015158114611d3a578182fd5b600060208284031215614d0a578081fd5b8135611d3a81615ddf565b60008060408385031215614d27578182fd5b505080516020909101519092909150565b60008060008060608587031215614d4d578182fd5b843593506020850135925060408501356001600160401b03811115614d70578283fd5b614d7c878288016149c8565b95989497509550505050565b60006101208284031215614d9a578081fd5b614da48383614a6e565b9392505050565b600060a08284031215614dbc578081fd5b60405160a081016001600160401b0381118282101715614dd857fe5b80604052508251815260208301516020820152604083015160408201526060830151614e0381615dee565b60608201526080830151614e1681615dee565b60808201529392505050565b600060a08284031215614e33578081fd5b614da48383614a86565b600060a08284031215614e4e578081fd5b614da48383614a97565b600060208284031215614e69578081fd5b81356001600160401b0380821115614e7f578283fd5b9083019060608286031215614e92578283fd5b604051606081018181108382111715614ea757fe5b6040528235614eb581615dbd565b8152614ec360208401614b6e565b6020820152604083013582811115614ed9578485fd5b614ee587828601614a07565b60408301525095945050505050565b60006101408284031215614f06578081fd5b614da48383614aff565b6000610140808385031215614f23578182fd5b614f2c81615d4d565b9050825181526020830151602082015260408301516040820152606083015160608201526080830151608082015260a083015160a082015260c083015160c082015260e083015160e0820152610100614f86818501614b63565b90820152610120614f98848201614b63565b908201529392505050565b6000610140808385031215614fb6578182fd5b614fbf81615d4d565b9050825181526020830151602082015260408301516040820152606083015160608201526080830151608082015260a083015160a082015260c083015160c082015260e083015160e0820152610100615019818501614a63565b90820152610120614f98848201614a63565b600060808284031215614a80578081fd5b60006080828403121561504d578081fd5b604051608081016001600160401b038111828210171561506957fe5b8060405250825181526020830151602082015260408301516040820152606083015160608201528091505092915050565b600060c082840312156150ab578081fd5b60405160c081016001600160401b03811182821017156150c757fe5b8060405250825181526020830151602082015260408301516040820152606083015160608201526080830151608082015260a083015160a08201528091505092915050565b600061010080838503121561511f578182fd5b604051908101906001600160401b038211818310171561513b57fe5b8160405261514884614975565b81526020840151602082015260408401516040820152606084015160608201526080840151608082015260a084015160a082015261518860c08501614a63565b60c082015261519960e08501614a63565b60e0820152949350505050565b6000604082840312156151b7578081fd5b614da48383614b11565b60006101808284031215614a80578081fd5b6000602082840312156151e4578081fd5b81356001600160401b03808211156151fa578283fd5b908301906080828603121561520d578283fd5b60405160808101818110838211171561522257fe5b604052823582811115615233578485fd5b61523f87828601614a07565b82525061524e60208401614965565b602082015261525f60408401614b6e565b6040820152606083013582811115615275578485fd5b61528187828601614a07565b60608301525095945050505050565b6000606082840312156152a1578081fd5b604051606081016001600160401b03811182821017156152bd57fe5b80604052508251815260208301516020820152604083015160408201528091505092915050565b6000602082840312156152f5578081fd5b8135611d3a81615dee565b600060208284031215615311578081fd5b815162ffffff81168114611d3a578182fd5b600060208284031215615334578081fd5b5051919050565b6000806040838503121561534d578182fd5b8251602080850151919350906001600160401b038082111561536d578384fd5b818601915086601f830112615380578384fd5b81518181111561538c57fe5b6153998485830201615d4d565b81815284810190848601875b8481101561545c57815187016040818e03601f190112156153c457898afd5b6040516040810181811089821117156153d957fe5b604052818a01516153e981615dd2565b81526040820151888111156153fc578b8cfd5b8083019250508d603f830112615410578a8bfd5b89820151615420614a2582615d70565b8181528f6040838601011115615434578c8dfd5b615444828d830160408701615d91565b828c01525085525092870192908701906001016153a5565b50979a909950975050505050505050565b60008060008060608587031215615482578182fd5b843593506020850135925060408501356001600160401b038111156154a5578283fd5b614d7c87828801614980565b6001600160a01b03169052565b6000815180845260208085019450808401835b838110156154ed578151875295820195908201906001016154d1565b509495945050505050565b15159052565b60008284528282602086013780602084860101526020601f19601f85011685010190509392505050565b60008151808452615540816020860160208601615d91565b601f01601f19169290920160200192915050565b60020b9052565b61ffff169052565b80358252602081013560208301526040810135604083015260608101356060830152608081013560808301525050565b60018060a01b0381511682526020810151602083015260408101516040830152606081015160608301526080810151608083015260a081015160a083015260c081015160020b60c083015260e081015160020b60e08301525050565b6001600160801b03169052565b606093841b6001600160601b0319908116825260e89390931b6001600160e81b0319166014820152921b166017820152602b0190565b9283526020830191909152604082015260600190565b6001600160a01b0391909116815260200190565b6001600160a01b039384168152919092166020820152604081019190915260600190565b6001600160a01b0387811682528681166020830152858116604083015284166060820152608081018390526101a08101611e6d60a0830184615593565b6001600160a01b03878116825286811660208301528581166040830152841660608201526101c081016156fb608083016156f686614965565b6154b1565b602084013560a0830152604084013560c0830152606084013560e083015261010060808501358184015260a085013561012084015260c085013561014084015261574760e08601614a58565b615755610160850182615554565b50615761818601614a58565b9050615771610180840182615554565b50611e6d6101a08301846154f8565b60006101c08201905060018060a01b03808916835280881660208401528087166040840152808616606084015280855116608084015250602084015160a0830152604084015160c0830152606084015160e08301526080840151610100818185015260a086015161012085015260c086015161014085015260e0860151915061580d610160850183615554565b8501519050615771610180840182615554565b60006101608201905060018060a01b038089168352808816602084015280871660408401525084606083015283516080830152602084015160a0830152604084015160c0830152606084015160e0830152608084015161010083015260a0840151610120830152611e6d6101408301846154f8565b6001600160a01b03958616815293909416602084015260408301919091526060820152608081019190915260a00190565b6001600160a01b03888116825260e0602080840182905289519184018290526000928a820192909190610100860190855b818110156159155785518516835294830194918301916001016158f7565b50508581036040870152615929818c6154be565b9350505050828103606084015261594081886154be565b905061594f60808401876154b1565b82810360a08401526159618186615528565b91505061597160c083018461555b565b98975050505050505050565b6001600160a01b0386811682528515156020830152604082018590528316606082015260a060808201819052600090611e6d90830184615528565b6001600160a01b0393909316835281516020808501919091528201516040808501919091528201516060808501919091528201516001600160801b039081166080808601919091529092015190911660a0830152151560c082015260e00190565b6001600160a01b03929092168252602082015260400190565b6001600160a01b0394909416845260208401929092526040830152606082015260800190565b901515815260200190565b6001600160e01b031991909116815260200190565b60a08101611d3d8284615563565b60006020825260018060a01b03835116602083015260ff602084015116604083015260408301516060808401526148276080840182615528565b600061014082019050823582526020830135602083015260408301356040830152606083013560608301526080830135608083015260a083013560a083015260c083013560c083015260e083013560e0830152610100615b21818501614b58565b615b2d828501826155ef565b5050610120615b3d818501614b58565b615b49828501826155ef565b505092915050565b600061014082019050823582526020830135602083015260408301356040830152606083013560608301526080830135608083015260a083013560a083015260c083013560c083015260e083013560e0830152610100615bb2818501614a58565b615bbe82850182615554565b5050610120615bce818501614a58565b615b4982850182615554565b8135815260208083013590820152604080830135908201526060918201359181019190915260800190565b600060208252825160806020840152615c2160a0840182615528565b905060018060a01b03602085015116604084015260ff60408501511660608401526060840151601f198483030160808501526137238282615528565b90815260200190565b6000604080830186845260208281860152818683526060860190506060828802870101925087855b88811015615d3057878503605f190183528135368b9003603e19018112615cb3578788fd5b8a018035615cc081615dd2565b60058110615cca57fe5b86528085013536829003601e19018112615ce2578889fd5b810180356001600160401b03811115615cf957898afd5b803603831315615d0757898afd5b8887890152615d1b898901828985016154fe565b97505050928401925090830190600101615c8e565b50929998505050505050505050565b918252602082015260400190565b6040518181016001600160401b0381118282101715615d6857fe5b604052919050565b60006001600160401b03821115615d8357fe5b50601f01601f191660200190565b60005b83811015615dac578181015183820152602001615d94565b838111156103cc5750506000910152565b6001600160a01b038116811461089857600080fd5b6005811061089857600080fd5b8060020b811461089857600080fd5b6001600160801b038116811461089857600080fdfe416464726573733a20756e61626c6520746f2073656e642076616c75652c20726563697069656e74206d61792068617665207265766572746564536166654d6174683a206d756c7469706c69636174696f6e206f766572666c6f77a264697066735822122033fb3bf30ba49bd705bd7628794cfdcffa3f28b455b97b6b5f5238925cae7a6f64736f6c63430007060033",
  "libraries": {
    "ControllerHelperUtil": "0x1D7e4a087A273818FB5478aE385Cd6E873198180"
  },
  "devdoc": {
    "kind": "dev",
    "methods": {
      "batchMintLp((address,uint256,uint256,uint256,uint256,uint256,uint256,int24,int24))": {
        "params": {
          "_params": "ControllerHelperDataType.MintAndLpParams struct"
        }
      },
      "closeShortWithUserNft((uint256,uint256,uint256,uint256,uint256,uint256,uint256,uint128,uint128))": {
        "details": "user should approve this contract for Uni NFT transfer",
        "params": {
          "_params": "ControllerHelperDataType.CloseShortWithUserNftParams struct"
        }
      },
      "flashloanWMintDepositNft((uint256,uint256,uint256,uint256,uint256,uint256,uint256,uint256,int24,int24))": {
        "details": "sender can specify the amount of ETH collateral to withdraw in case vault.collateralAmount > ETH to repay for loan",
        "params": {
          "_params": "ControllerHelperDataType.FlashloanWMintDepositNftParams struct"
        }
      },
      "flashswapSellLongWMint((uint256,uint256,uint256,uint256,uint256))": {
        "details": "flashswap amount = collateral amount - msg.value - ETH from selling long wPowerPerp",
        "params": {
          "_params": "ControllerHelperDataType.FlashSellLongWMintParams struct"
        }
      },
      "flashswapWBurnBuyLong((uint256,uint256,uint256,uint256,uint256))": {
        "details": "this function",
        "params": {
          "_params": "ControllerHelperDataType.FlashswapWBurnBuyLongParams struct"
        }
      },
      "flashswapWMint((uint256,uint256,uint256,uint256))": {
        "params": {
          "_params": "ControllerHelperDataType.FlashswapWMintParams struct"
        }
      },
      "onERC721Received(address,address,uint256,bytes)": {
        "details": "accept erc721 from safeTransferFrom and safeMint after callback",
        "returns": {
          "_0": "returns received selector"
        }
      },
      "rebalanceVaultNft(uint256,uint256,(uint8,bytes)[])": {
        "params": {
          "_collateralToFlashloan": "collateral amount to flashloan and deposit into vault to be able to withdraw Uni LP NFT",
          "_params": "array of ControllerHelperDataType.RebalanceVaultNftParams structs",
          "_vaultId": "vault ID"
        }
      },
      "rebalanceWithoutVault((uint256,uint256,uint256,uint256,uint256,uint256,uint256,uint256,uint256,uint256,int24,int24))": {
        "params": {
          "_params": "ControllerHelperDataType.RebalanceWithoutVault struct"
        }
      },
      "sellAll((uint256,uint256,uint128,uint128,uint256))": {
        "params": {
          "_params": "ControllerHelperDataType.SellAll struct"
        }
      },
      "uniswapV3SwapCallback(int256,int256,bytes)": {
        "params": {
          "_data": "callback data encoded as SwapCallbackData struct",
          "amount0Delta": "amount of token0",
          "amount1Delta": "amount of token1"
        }
      }
    },
    "version": 1
  },
  "userdoc": {
    "kind": "user",
    "methods": {
      "batchMintLp((address,uint256,uint256,uint256,uint256,uint256,uint256,int24,int24))": {
        "notice": "mint WPowerPerp and LP into Uniswap v3 pool"
      },
      "closeShortWithUserNft((uint256,uint256,uint256,uint256,uint256,uint256,uint256,uint128,uint128))": {
        "notice": "close short position with user Uniswap v3 LP NFT"
      },
      "flashloanWMintDepositNft((uint256,uint256,uint256,uint256,uint256,uint256,uint256,uint256,int24,int24))": {
        "notice": "FLash mint short position, LP in Uni v3, use LP NFT as collateral and withdraw ETH collateral to repay flashloan"
      },
      "flashswapSellLongWMint((uint256,uint256,uint256,uint256,uint256))": {
        "notice": "sell long wPowerPerp and flashswap mint short position"
      },
      "flashswapWBurnBuyLong((uint256,uint256,uint256,uint256,uint256))": {
        "notice": "flash close position and buy long squeeth"
      },
      "flashswapWMint((uint256,uint256,uint256,uint256))": {
        "notice": "flash mint WPowerPerp using flashswap"
      },
      "rebalanceVaultNft(uint256,uint256,(uint8,bytes)[])": {
        "notice": "Rebalance, increase and decrease LP liquidity through minting/burning wPowerPerp in vault"
      },
      "rebalanceWithoutVault((uint256,uint256,uint256,uint256,uint256,uint256,uint256,uint256,uint256,uint256,int24,int24))": {
        "notice": "Rebalance LP nft through trading"
      },
      "sellAll((uint256,uint256,uint128,uint128,uint256))": {
        "notice": "sell all LP wPowerPerp amounts to WETH and send back to user"
      },
      "uniswapV3SwapCallback(int256,int256,bytes)": {
        "notice": "uniswap swap callback function for flashswap"
      }
    },
    "notice": "Error code E0: user not allowed to operate vault E1: max ETH to pay for long wPowerPerp is less than amount available E2: ETH sent is less than amount to use for minting short plus amount to use for LPing E3: amount out less than min E4: amont in greater than max E5: invalid factory address E6: invalid assets length",
    "version": 1
  },
  "storageLayout": {
    "storage": [],
    "types": null
  }
}