{
    "address": "0xD4ede688a1bfD5d3EF97ce12ECB490E0fbc263B9",
    "abi": [
        {
            "anonymous": false,
            "inputs": [
                {
                    "indexed": false,
                    "internalType": "uint256",
                    "name": "amount",
                    "type": "uint256"
                },
                {
                    "indexed": false,
                    "internalType": "uint256",
                    "name": "vaultId",
                    "type": "uint256"
                }
            ],
            "name": "BurnSqueeth",
            "type": "event"
        },
        {
            "anonymous": false,
            "inputs": [
                {
                    "indexed": false,
                    "internalType": "uint256",
                    "name": "vaultId",
                    "type": "uint256"
                }
            ],
            "name": "CloseVault",
            "type": "event"
        },
        {
            "anonymous": false,
            "inputs": [
                {
                    "indexed": false,
                    "internalType": "uint256",
                    "name": "vaultId",
                    "type": "uint256"
                },
                {
                    "indexed": false,
                    "internalType": "uint128",
                    "name": "amount",
                    "type": "uint128"
                },
                {
                    "indexed": false,
                    "internalType": "uint128",
                    "name": "collateralId",
                    "type": "uint128"
                }
            ],
            "name": "DepositCollateral",
            "type": "event"
        },
        {
            "anonymous": false,
            "inputs": [
                {
                    "indexed": false,
                    "internalType": "uint256",
                    "name": "vaultId",
                    "type": "uint256"
                },
                {
                    "indexed": false,
                    "internalType": "uint256",
                    "name": "debtAmount",
                    "type": "uint256"
                },
                {
                    "indexed": false,
                    "internalType": "uint256",
                    "name": "collateralToSell",
                    "type": "uint256"
                }
            ],
            "name": "Liquidate",
            "type": "event"
        },
        {
            "anonymous": false,
            "inputs": [
                {
                    "indexed": false,
                    "internalType": "uint256",
                    "name": "amount",
                    "type": "uint256"
                },
                {
                    "indexed": false,
                    "internalType": "uint256",
                    "name": "vaultId",
                    "type": "uint256"
                }
            ],
            "name": "MintSqueeth",
            "type": "event"
        },
        {
            "anonymous": false,
            "inputs": [
                {
                    "indexed": false,
                    "internalType": "uint256",
                    "name": "vaultId",
                    "type": "uint256"
                }
            ],
            "name": "OpenVault",
            "type": "event"
        },
        {
            "anonymous": false,
            "inputs": [
                {
                    "indexed": false,
                    "internalType": "uint256",
                    "name": "vaultId",
                    "type": "uint256"
                },
                {
                    "indexed": false,
                    "internalType": "address",
                    "name": "operator",
                    "type": "address"
                }
            ],
            "name": "UpdateOperator",
            "type": "event"
        },
        {
            "anonymous": false,
            "inputs": [
                {
                    "indexed": false,
                    "internalType": "uint256",
                    "name": "vaultId",
                    "type": "uint256"
                },
                {
                    "indexed": false,
                    "internalType": "uint256",
                    "name": "amount",
                    "type": "uint256"
                },
                {
                    "indexed": false,
                    "internalType": "uint128",
                    "name": "collateralId",
                    "type": "uint128"
                }
            ],
            "name": "WithdrawCollateral",
            "type": "event"
        },
        {
            "inputs": [
                {
                    "internalType": "uint32",
                    "name": "_period",
                    "type": "uint32"
                }
            ],
            "name": "_getDenormalizedMark",
            "outputs": [
                {
                    "internalType": "uint256",
                    "name": "",
                    "type": "uint256"
                }
            ],
            "stateMutability": "view",
            "type": "function"
        },
        {
            "inputs": [],
            "name": "applyFunding",
            "outputs": [],
            "stateMutability": "nonpayable",
            "type": "function"
        },
        {
            "inputs": [
                {
                    "internalType": "uint256",
                    "name": "_vaultId",
                    "type": "uint256"
                },
                {
                    "internalType": "uint256",
                    "name": "_amount",
                    "type": "uint256"
                },
                {
                    "internalType": "uint256",
                    "name": "_withdrawAmount",
                    "type": "uint256"
                }
            ],
            "name": "burn",
            "outputs": [],
            "stateMutability": "nonpayable",
            "type": "function"
        },
        {
            "inputs": [],
            "name": "dai",
            "outputs": [
                {
                    "internalType": "address",
                    "name": "",
                    "type": "address"
                }
            ],
            "stateMutability": "view",
            "type": "function"
        },
        {
            "inputs": [
                {
                    "internalType": "uint256",
                    "name": "_vaultId",
                    "type": "uint256"
                }
            ],
            "name": "deposit",
            "outputs": [],
            "stateMutability": "payable",
            "type": "function"
        },
        {
            "inputs": [],
            "name": "ethUSDPool",
            "outputs": [
                {
                    "internalType": "address",
                    "name": "",
                    "type": "address"
                }
            ],
            "stateMutability": "view",
            "type": "function"
        },
        {
            "inputs": [],
            "name": "firstObserveTimestamp",
            "outputs": [
                {
                    "internalType": "uint256",
                    "name": "",
                    "type": "uint256"
                }
            ],
            "stateMutability": "view",
            "type": "function"
        },
        {
            "inputs": [
                {
                    "internalType": "uint32",
                    "name": "_period",
                    "type": "uint32"
                }
            ],
            "name": "getDenormalizedMark",
            "outputs": [
                {
                    "internalType": "uint256",
                    "name": "",
                    "type": "uint256"
                }
            ],
            "stateMutability": "view",
            "type": "function"
        },
        {
            "inputs": [
                {
                    "internalType": "uint32",
                    "name": "_period",
                    "type": "uint32"
                }
            ],
            "name": "getIndex",
            "outputs": [
                {
                    "internalType": "uint256",
                    "name": "",
                    "type": "uint256"
                }
            ],
            "stateMutability": "view",
            "type": "function"
        },
        {
            "inputs": [
                {
                    "internalType": "address",
                    "name": "_oracle",
                    "type": "address"
                },
                {
                    "internalType": "address",
                    "name": "_vaultNFT",
                    "type": "address"
                },
                {
                    "internalType": "address",
                    "name": "_squeeth",
                    "type": "address"
                },
                {
                    "internalType": "address",
                    "name": "_weth",
                    "type": "address"
                },
                {
                    "internalType": "address",
                    "name": "_dai",
                    "type": "address"
                },
                {
                    "internalType": "address",
                    "name": "_ethUsdPool",
                    "type": "address"
                },
                {
                    "internalType": "address",
                    "name": "_wSqueethEthPool",
                    "type": "address"
                }
            ],
            "name": "init",
            "outputs": [],
            "stateMutability": "nonpayable",
            "type": "function"
        },
        {
            "inputs": [],
            "name": "lastFundingUpdateTimestamp",
            "outputs": [
                {
                    "internalType": "uint256",
                    "name": "",
                    "type": "uint256"
                }
            ],
            "stateMutability": "view",
            "type": "function"
        },
        {
            "inputs": [
                {
                    "internalType": "uint256",
                    "name": "_vaultId",
                    "type": "uint256"
                },
                {
                    "internalType": "uint256",
                    "name": "_debtAmount",
                    "type": "uint256"
                }
            ],
            "name": "liquidate",
            "outputs": [],
            "stateMutability": "nonpayable",
            "type": "function"
        },
        {
            "inputs": [
                {
                    "internalType": "uint256",
                    "name": "_vaultId",
                    "type": "uint256"
                },
                {
                    "internalType": "uint128",
                    "name": "_mintAmount",
                    "type": "uint128"
                }
            ],
            "name": "mint",
            "outputs": [
                {
                    "internalType": "uint256",
                    "name": "",
                    "type": "uint256"
                }
            ],
            "stateMutability": "payable",
            "type": "function"
        },
        {
            "inputs": [],
            "name": "normalizationFactor",
            "outputs": [
                {
                    "internalType": "uint256",
                    "name": "",
                    "type": "uint256"
                }
            ],
            "stateMutability": "view",
            "type": "function"
        },
        {
            "inputs": [],
            "name": "oracle",
            "outputs": [
                {
                    "internalType": "contract IOracle",
                    "name": "",
                    "type": "address"
                }
            ],
            "stateMutability": "view",
            "type": "function"
        },
        {
            "inputs": [],
            "name": "squeeth",
            "outputs": [
                {
                    "internalType": "contract IWSqueeth",
                    "name": "",
                    "type": "address"
                }
            ],
            "stateMutability": "view",
            "type": "function"
        },
        {
            "inputs": [
                {
                    "internalType": "uint256",
                    "name": "_vaultId",
                    "type": "uint256"
                },
                {
                    "internalType": "address",
                    "name": "_operator",
                    "type": "address"
                }
            ],
            "name": "updateOperator",
            "outputs": [],
            "stateMutability": "nonpayable",
            "type": "function"
        },
        {
            "inputs": [],
            "name": "vaultNFT",
            "outputs": [
                {
                    "internalType": "contract IVaultManagerNFT",
                    "name": "",
                    "type": "address"
                }
            ],
            "stateMutability": "view",
            "type": "function"
        },
        {
            "inputs": [
                {
                    "internalType": "uint256",
                    "name": "",
                    "type": "uint256"
                }
            ],
            "name": "vaults",
            "outputs": [
                {
                    "internalType": "address",
                    "name": "operator",
                    "type": "address"
                },
                {
                    "internalType": "uint256",
                    "name": "NFTCollateralId",
                    "type": "uint256"
                },
                {
                    "internalType": "uint256",
                    "name": "collateralAmount",
                    "type": "uint256"
                },
                {
                    "internalType": "uint256",
                    "name": "shortAmount",
                    "type": "uint256"
                }
            ],
            "stateMutability": "view",
            "type": "function"
        },
        {
            "inputs": [],
            "name": "wSqueethEthPool",
            "outputs": [
                {
                    "internalType": "address",
                    "name": "",
                    "type": "address"
                }
            ],
            "stateMutability": "view",
            "type": "function"
        },
        {
            "inputs": [],
            "name": "weth",
            "outputs": [
                {
                    "internalType": "address",
                    "name": "",
                    "type": "address"
                }
            ],
            "stateMutability": "view",
            "type": "function"
        },
        {
            "inputs": [
                {
                    "internalType": "uint256",
                    "name": "_vaultId",
                    "type": "uint256"
                },
                {
                    "internalType": "uint256",
                    "name": "_amount",
                    "type": "uint256"
                }
            ],
            "name": "withdraw",
            "outputs": [],
            "stateMutability": "payable",
            "type": "function"
        }
    ],
    "transactionHash": "0x0e0872b779c866305572b3d318f21f56302dc2a1d66ae3bf07c367664f7f5a60",
    "args": [],
    "solcInputHash": "81fdad72c90f9f5a7dcc3003939ad17b",
    "bytecode": "0x608060405234801561001057600080fd5b50611928806100206000396000f3fe6080604052600436106101755760003560e01c80638c64ea4a116100cb578063d199cb021161007f578063ee3189ff11610059578063ee3189ff14610413578063f0d4d59214610433578063f4b9fa751461045357600080fd5b8063d199cb02146103bd578063d296d1f1146103dd578063d5272584146103fd57600080fd5b8063b6b55f25116100b0578063b6b55f251461036a578063c026f25e1461037d578063c65a391d1461039d57600080fd5b80638c64ea4a146102d45780638cd21d7c1461034a57600080fd5b80634be2822c1161012d5780637dc0d1d0116101075780637dc0d1d01461027e5780637f4866a81461029e57806384dea1a1146102b457600080fd5b80634be2822c146102275780635ee816a01461024b578063673cd4011461026b57600080fd5b8063380accb91161015e578063380accb9146101b15780633fc8cef3146101ee578063441a3e701461021457600080fd5b806305a100281461017a578063200f4b8d1461019c575b600080fd5b34801561018657600080fd5b5061019a6101953660046117ba565b610473565b005b3480156101a857600080fd5b5061019a6104ab565b3480156101bd57600080fd5b506003546101d1906001600160a01b031681565b6040516001600160a01b0390911681526020015b60405180910390f35b3480156101fa57600080fd5b506000546101d1906201000090046001600160a01b031681565b61019a610222366004611799565b6104b5565b34801561023357600080fd5b5061023d60065481565b6040519081526020016101e5565b34801561025757600080fd5b506002546101d1906001600160a01b031681565b61023d610279366004611761565b6104d5565b34801561028a57600080fd5b50600a546101d1906001600160a01b031681565b3480156102aa57600080fd5b5061023d60045481565b3480156102c057600080fd5b506008546101d1906001600160a01b031681565b3480156102e057600080fd5b506103206102ef366004611702565b60076020526000908152604090208054600182015460028301546003909301546001600160a01b0390921692909184565b604080516001600160a01b03909516855260208501939093529183015260608201526080016101e5565b34801561035657600080fd5b5061023d6103653660046117e5565b610545565b61019a610378366004611702565b610556565b34801561038957600080fd5b5061023d6103983660046117e5565b61056b565b3480156103a957600080fd5b5061019a6103b8366004611732565b6105ea565b3480156103c957600080fd5b506009546101d1906001600160a01b031681565b3480156103e957600080fd5b5061019a6103f8366004611799565b6106b9565b34801561040957600080fd5b5061023d60055481565b34801561041f57600080fd5b5061023d61042e3660046117e5565b610861565b34801561043f57600080fd5b5061019a61044e36600461166d565b61086c565b34801561045f57600080fd5b506001546101d1906001600160a01b031681565b61047b610bf3565b811561048c5761048c338484610cab565b801561049d5761049d338483610d80565b6104a683610e46565b505050565b6104b3610bf3565b565b6104bd610bf3565b6104c8338383610d80565b6104d182610e46565b5050565b60006104df610bf3565b826104f0576104ed33610eed565b92505b341561050057610500833461102e565b6fffffffffffffffffffffffffffffffff821615610535576105353384846fffffffffffffffffffffffffffffffff166110aa565b61053e83610e46565b5090919050565b6000610550826111f1565b92915050565b61055e610bf3565b610568813461102e565b50565b600254600080546001549192839261059a926001600160a01b0392831692620100009091048116911686611246565b60035460095460008054939450926105c8926001600160a01b03908116928116916201000090041687611246565b6005549091506105d8838361185a565b6105e29190611821565b949350505050565b6105f48233611354565b6106455760405162461bcd60e51b815260206004820152600b60248201527f6e6f7420616c6c6f77656400000000000000000000000000000000000000000060448201526064015b60405180910390fd5b600082815260076020908152604091829020805473ffffffffffffffffffffffffffffffffffffffff19166001600160a01b0385169081179091558251858152918201527f9d9dd80a56a16f715df6eb40b771e24ff8cbea6eed9de28473ce0f28fe5602a991015b60405180910390a15050565b6106c1610bf3565b600082815260076020908152604091829020825160808101845281546001600160a01b03168152600182015492810192909252600281015492820192909252600390910154606082015261071490611421565b156107615760405162461bcd60e51b815260206004820152601160248201527f43616e206e6f74206c6971756964617465000000000000000000000000000000604482015260640161063c565b600061076e6102586111f1565b90506000670de0b6b3a7640000610785848461185a565b61078f9190611821565b6009546040517f9dc29fac000000000000000000000000000000000000000000000000000000008152336004820152602481018690529192506001600160a01b031690639dc29fac90604401600060405180830381600087803b1580156107f557600080fd5b505af1158015610809573d6000803e3d6000fd5b5061081a9250339150839050611462565b60408051858152602081018590529081018290527f199c51a8cd3b6aa8f80abc4f5c713f20c111837887163a1bbaa2dd5f61a554ab9060600160405180910390a150505050565b60006105508261056b565b600054610100900460ff1680610885575060005460ff16155b6108f75760405162461bcd60e51b815260206004820152602e60248201527f496e697469616c697a61626c653a20636f6e747261637420697320616c72656160448201527f647920696e697469616c697a6564000000000000000000000000000000000000606482015260840161063c565b600054610100900460ff1615801561093657600080547fffffffffffffffffffffffffffffffffffffffffffffffffffffffffffff0000166101011790555b6001600160a01b03881661098c5760405162461bcd60e51b815260206004820152601660248201527f496e76616c6964206f7261636c65206164647265737300000000000000000000604482015260640161063c565b6001600160a01b0387166109e25760405162461bcd60e51b815260206004820152601860248201527f496e76616c6964207661756c744e465420616464726573730000000000000000604482015260640161063c565b6001600160a01b038616610a385760405162461bcd60e51b815260206004820152601760248201527f496e76616c696420737175656574682061646472657373000000000000000000604482015260640161063c565b6001600160a01b038316610a8e5760405162461bcd60e51b815260206004820152601c60248201527f496e76616c6964206574683a75736420706f6f6c206164647265737300000000604482015260640161063c565b6001600160a01b038216610b0a5760405162461bcd60e51b815260206004820152602160248201527f496e76616c69642077737175656574683a75736420706f6f6c2061646472657360448201527f7300000000000000000000000000000000000000000000000000000000000000606482015260840161063c565b600a805473ffffffffffffffffffffffffffffffffffffffff199081166001600160a01b038b8116919091179092556008805482168a8416179055600980548216898416179055600280548216868416179055600380548216858416179055600080547fffffffffffffffffffff0000000000000000000000000000000000000000ffff16620100008985160217905560018054909116918616919091179055670de0b6b3a7640000600555426006558015610be957600080547fffffffffffffffffffffffffffffffffffffffffffffffffffffffffffff00ff1690555b5050505050505050565b600454600190610c0557504260045560015b6000610c108261056b565b90506000610c1d836111f1565b90506000610c346201518063ffffffff8616611821565b90506000610c42828461185a565b84610c4e846001611809565b610c58919061185a565b610c629190611897565b610c7485670de0b6b3a764000061185a565b610c7e9190611821565b9050670de0b6b3a764000081600554610c97919061185a565b610ca19190611821565b6005555050505050565b6000828152600760205260409020610cc3908261157b565b60408051828152602081018490527f2bb268d724179310647408147160a122eedb0937b9238e08de84a0644f5ab03a910160405180910390a16009546040517f9dc29fac0000000000000000000000000000000000000000000000000000000081526001600160a01b0385811660048301526024820184905290911690639dc29fac90604401600060405180830381600087803b158015610d6357600080fd5b505af1158015610d77573d6000803e3d6000fd5b50505050505050565b610d8a8284611354565b610dd65760405162461bcd60e51b815260206004820152600b60248201527f6e6f7420616c6c6f776564000000000000000000000000000000000000000000604482015260640161063c565b6000828152600760205260409020610dee9082611598565b610e016001600160a01b03841682611462565b604080518381526020810183905260008183015290517ffd6fe60d4c49c077689d373f95adff80f09e02e5f719b842f6e3cfc812546a909181900360600190a1505050565b80610e4e5750565b600081815260076020908152604091829020825160808101845281546001600160a01b031681526001820154928101929092526002810154928201929092526003909101546060820152610ea181611421565b6104d15760405162461bcd60e51b815260206004820152600d60248201527f496e76616c696420737461746500000000000000000000000000000000000000604482015260640161063c565b6008546040517f54ba0f270000000000000000000000000000000000000000000000000000000081526001600160a01b03838116600483015260009216906354ba0f2790602401602060405180830381600087803b158015610f4e57600080fd5b505af1158015610f62573d6000803e3d6000fd5b505050506040513d601f19601f82011682018060405250810190610f86919061171a565b60408051608081018252600080825260208083018281528385018381526060850184815287855260078452938690209451855473ffffffffffffffffffffffffffffffffffffffff19166001600160a01b0390911617855590516001850155516002840155905160039092019190915590518281529192507f5f5dd6438bd675e0dba85db7517ba5931be5b31a11e5af8c04ea0e9152fa7ec5910160405180910390a1919050565b6000828152600760205260409020611058906fffffffffffffffffffffffffffffffff83166115ac565b604080518381526fffffffffffffffffffffffffffffffff831660208201526000918101919091527f3330326bf90be46e9e6c5df7730431a92424757f58fba7a49e10e800bf1aa7c1906060016106ad565b6110b48284611354565b6111005760405162461bcd60e51b815260206004820152600b60248201527f6e6f7420616c6c6f776564000000000000000000000000000000000000000000604482015260640161063c565b60055460009061111883670de0b6b3a764000061185a565b6111229190611821565b600084815260076020526040902090915061113d90826115c0565b60408051828152602081018590527fd4edacb9401a81c09b0ef47ba06017e8ce1690dc5dd5e083f314c8390e75e9d0910160405180910390a16009546040517f40c10f190000000000000000000000000000000000000000000000000000000081526001600160a01b03868116600483015260248201849052909116906340c10f1990604401600060405180830381600087803b1580156111dd57600080fd5b505af1158015610be9573d6000803e3d6000fd5b6002546000805460015491928392611220926001600160a01b0392831692620100009091048116911686611246565b9050670de0b6b3a7640000611235828061185a565b61123f9190611821565b9392505050565b600a546040517fd1343c4d0000000000000000000000000000000000000000000000000000000081526001600160a01b0386811660048301528581166024830152848116604483015263ffffffff84166064830152600092839291169063d1343c4d9060840160206040518083038186803b1580156112c457600080fd5b505afa1580156112d8573d6000803e3d6000fd5b505050506040513d601f19601f820116820180604052508101906112fc919061171a565b90508061134b5760405162461bcd60e51b815260206004820152600b60248201527f5741502057415020574150000000000000000000000000000000000000000000604482015260640161063c565b95945050505050565b6008546040517f6352211e000000000000000000000000000000000000000000000000000000008152600481018490526000916001600160a01b0384811692911690636352211e9060240160206040518083038186803b1580156113b757600080fd5b505afa1580156113cb573d6000803e3d6000fd5b505050506040513d601f19601f820116820180604052508101906113ef9190611651565b6001600160a01b0316148061123f575050600091825260076020526040909120546001600160a01b0390811691161490565b6002546000805460018054929390928492611453926001600160a01b0390811692620100009092048116911685611246565b90506105e284600554836115d4565b804710156114b25760405162461bcd60e51b815260206004820152601d60248201527f416464726573733a20696e73756666696369656e742062616c616e6365000000604482015260640161063c565b6000826001600160a01b03168260405160006040518083038185875af1925050503d80600081146114ff576040519150601f19603f3d011682016040523d82523d6000602084013e611504565b606091505b50509050806104a65760405162461bcd60e51b815260206004820152603a60248201527f416464726573733a20756e61626c6520746f2073656e642076616c75652c207260448201527f6563697069656e74206d61792068617665207265766572746564000000000000606482015260840161063c565b8082600301600082825461158f9190611897565b90915550505050565b8082600201600082825461158f9190611897565b8082600201600082825461158f9190611809565b8082600301600082825461158f9190611809565b60008360600151600014156115eb5750600161123f565b6105e28484846000806ec097ce7bc90715b34b9f100000000083858760600151611615919061185a565b61161f919061185a565b6116299190611821565b905061163681600361185a565b604086015161164690600261185a565b101595945050505050565b600060208284031215611662578081fd5b815161123f816118dd565b600080600080600080600060e0888a031215611687578283fd5b8735611692816118dd565b965060208801356116a2816118dd565b955060408801356116b2816118dd565b945060608801356116c2816118dd565b935060808801356116d2816118dd565b925060a08801356116e2816118dd565b915060c08801356116f2816118dd565b8091505092959891949750929550565b600060208284031215611713578081fd5b5035919050565b60006020828403121561172b578081fd5b5051919050565b60008060408385031215611744578182fd5b823591506020830135611756816118dd565b809150509250929050565b60008060408385031215611773578182fd5b8235915060208301356fffffffffffffffffffffffffffffffff81168114611756578182fd5b600080604083850312156117ab578182fd5b50508035926020909101359150565b6000806000606084860312156117ce578283fd5b505081359360208301359350604090920135919050565b6000602082840312156117f6578081fd5b813563ffffffff8116811461123f578182fd5b6000821982111561181c5761181c6118ae565b500190565b600082611855577f4e487b710000000000000000000000000000000000000000000000000000000081526012600452602481fd5b500490565b6000817fffffffffffffffffffffffffffffffffffffffffffffffffffffffffffffffff0483118215151615611892576118926118ae565b500290565b6000828210156118a9576118a96118ae565b500390565b7f4e487b7100000000000000000000000000000000000000000000000000000000600052601160045260246000fd5b6001600160a01b038116811461056857600080fdfea2646970667358221220da57ae5200bc8840f47bb79fd1b28249b029b2d48bf04569e636eb6b47a0ee8764736f6c63430008040033",
    "devdoc": {
        "kind": "dev",
        "methods": {},
        "stateVariables": {
            "vaults": {
                "details": "The token ID vault data"
            }
        },
        "version": 1
    },
    "userdoc": {
        "events": {
            "OpenVault(uint256)": {
                "notice": "Events"
            }
        },
        "kind": "user",
        "methods": {
            "applyFunding()": {
                "notice": "External function to update the normalized factor as a way to pay funding."
            },
            "burn(uint256,uint256,uint256)": {
                "notice": "burn squueth and remove collateral from a vault. This burns an amount of wSqueeth."
            },
            "deposit(uint256)": {
                "notice": "Deposit collateral into a vault"
            },
            "init(address,address,address,address,address,address,address)": {
                "notice": "init controller with squeeth and short NFT address"
            },
            "mint(uint256,uint128)": {
                "notice": "put down collateral and mint squeeth. This mints an amount of rSqueeth."
            },
            "updateOperator(uint256,address)": {
                "notice": "Authorize an address to modify the vault. Can be revoke by setting address to 0."
            },
            "withdraw(uint256,uint256)": {
                "notice": "Withdraw collateral from a vault."
            }
        },
        "version": 1
    },
    "storageLayout": {
        "storage": [
            {
                "astId": 2284,
                "contract": "contracts/core/Controller.sol:Controller",
                "label": "_initialized",
                "offset": 0,
                "slot": "0",
                "type": "t_bool"
            },
            {
                "astId": 2287,
                "contract": "contracts/core/Controller.sol:Controller",
                "label": "_initializing",
                "offset": 1,
                "slot": "0",
                "type": "t_bool"
            },
            {
                "astId": 4140,
                "contract": "contracts/core/Controller.sol:Controller",
                "label": "weth",
                "offset": 2,
                "slot": "0",
                "type": "t_address"
            },
            {
                "astId": 4142,
                "contract": "contracts/core/Controller.sol:Controller",
                "label": "dai",
                "offset": 0,
                "slot": "1",
                "type": "t_address"
            },
            {
                "astId": 4144,
                "contract": "contracts/core/Controller.sol:Controller",
                "label": "ethUSDPool",
                "offset": 0,
                "slot": "2",
                "type": "t_address"
            },
            {
                "astId": 4146,
                "contract": "contracts/core/Controller.sol:Controller",
                "label": "wSqueethEthPool",
                "offset": 0,
                "slot": "3",
                "type": "t_address"
            },
            {
                "astId": 4148,
                "contract": "contracts/core/Controller.sol:Controller",
                "label": "firstObserveTimestamp",
                "offset": 0,
                "slot": "4",
                "type": "t_uint256"
            },
            {
                "astId": 4150,
                "contract": "contracts/core/Controller.sol:Controller",
                "label": "normalizationFactor",
                "offset": 0,
                "slot": "5",
                "type": "t_uint256"
            },
            {
                "astId": 4152,
                "contract": "contracts/core/Controller.sol:Controller",
                "label": "lastFundingUpdateTimestamp",
                "offset": 0,
                "slot": "6",
                "type": "t_uint256"
            },
            {
                "astId": 4158,
                "contract": "contracts/core/Controller.sol:Controller",
                "label": "vaults",
                "offset": 0,
                "slot": "7",
                "type": "t_mapping(t_uint256,t_struct(Vault)5264_storage)"
            },
            {
                "astId": 4161,
                "contract": "contracts/core/Controller.sol:Controller",
                "label": "vaultNFT",
                "offset": 0,
                "slot": "8",
                "type": "t_contract(IVaultManagerNFT)5217"
            },
            {
                "astId": 4164,
                "contract": "contracts/core/Controller.sol:Controller",
                "label": "squeeth",
                "offset": 0,
                "slot": "9",
                "type": "t_contract(IWSqueeth)5253"
            },
            {
                "astId": 4167,
                "contract": "contracts/core/Controller.sol:Controller",
                "label": "oracle",
                "offset": 0,
                "slot": "10",
                "type": "t_contract(IOracle)5203"
            }
        ],
        "types": {
            "t_address": {
                "encoding": "inplace",
                "label": "address",
                "numberOfBytes": "20"
            },
            "t_bool": {
                "encoding": "inplace",
                "label": "bool",
                "numberOfBytes": "1"
            },
            "t_contract(IOracle)5203": {
                "encoding": "inplace",
                "label": "contract IOracle",
                "numberOfBytes": "20"
            },
            "t_contract(IVaultManagerNFT)5217": {
                "encoding": "inplace",
                "label": "contract IVaultManagerNFT",
                "numberOfBytes": "20"
            },
            "t_contract(IWSqueeth)5253": {
                "encoding": "inplace",
                "label": "contract IWSqueeth",
                "numberOfBytes": "20"
            },
            "t_mapping(t_uint256,t_struct(Vault)5264_storage)": {
                "encoding": "mapping",
                "key": "t_uint256",
                "label": "mapping(uint256 => struct VaultLib.Vault)",
                "numberOfBytes": "32",
                "value": "t_struct(Vault)5264_storage"
            },
            "t_struct(Vault)5264_storage": {
                "encoding": "inplace",
                "label": "struct VaultLib.Vault",
                "members": [
                    {
                        "astId": 5257,
                        "contract": "contracts/core/Controller.sol:Controller",
                        "label": "operator",
                        "offset": 0,
                        "slot": "0",
                        "type": "t_address"
                    },
                    {
                        "astId": 5259,
                        "contract": "contracts/core/Controller.sol:Controller",
                        "label": "NFTCollateralId",
                        "offset": 0,
                        "slot": "1",
                        "type": "t_uint256"
                    },
                    {
                        "astId": 5261,
                        "contract": "contracts/core/Controller.sol:Controller",
                        "label": "collateralAmount",
                        "offset": 0,
                        "slot": "2",
                        "type": "t_uint256"
                    },
                    {
                        "astId": 5263,
                        "contract": "contracts/core/Controller.sol:Controller",
                        "label": "shortAmount",
                        "offset": 0,
                        "slot": "3",
                        "type": "t_uint256"
                    }
                ],
                "numberOfBytes": "128"
            },
            "t_uint256": {
                "encoding": "inplace",
                "label": "uint256",
                "numberOfBytes": "32"
            }
        }
    }
}