{
    "address": "0xA44350f58abCC2958F66295fb56686f4DC91e9aa",
    "abi": [
        {
            "anonymous": false,
            "inputs": [
                {
                    "indexed": false,
                    "internalType": "uint256",
                    "name": "amount",
                    "type": "uint256"
                },
                {
                    "indexed": false,
                    "internalType": "uint256",
                    "name": "vaultId",
                    "type": "uint256"
                }
            ],
            "name": "BurnShort",
            "type": "event"
        },
        {
            "anonymous": false,
            "inputs": [
                {
                    "indexed": false,
                    "internalType": "uint256",
                    "name": "vaultId",
                    "type": "uint256"
                }
            ],
            "name": "CloseVault",
            "type": "event"
        },
        {
            "anonymous": false,
            "inputs": [
                {
                    "indexed": false,
                    "internalType": "uint256",
                    "name": "vaultId",
                    "type": "uint256"
                },
                {
                    "indexed": false,
                    "internalType": "uint128",
                    "name": "amount",
                    "type": "uint128"
                },
                {
                    "indexed": false,
                    "internalType": "uint128",
                    "name": "collateralId",
                    "type": "uint128"
                }
            ],
            "name": "DepositCollateral",
            "type": "event"
        },
        {
            "anonymous": false,
            "inputs": [
                {
                    "indexed": false,
                    "internalType": "uint256",
                    "name": "vaultId",
                    "type": "uint256"
                },
                {
                    "indexed": false,
                    "internalType": "uint256",
                    "name": "tokenId",
                    "type": "uint256"
                }
            ],
            "name": "DepositUniNftCollateral",
            "type": "event"
        },
        {
            "anonymous": false,
            "inputs": [
                {
                    "indexed": false,
                    "internalType": "uint256",
                    "name": "vaultId",
                    "type": "uint256"
                },
                {
                    "indexed": false,
                    "internalType": "uint256",
                    "name": "debtAmount",
                    "type": "uint256"
                },
                {
                    "indexed": false,
                    "internalType": "uint256",
                    "name": "collateralToSell",
                    "type": "uint256"
                }
            ],
            "name": "Liquidate",
            "type": "event"
        },
        {
            "anonymous": false,
            "inputs": [
                {
                    "indexed": false,
                    "internalType": "uint256",
                    "name": "amount",
                    "type": "uint256"
                },
                {
                    "indexed": false,
                    "internalType": "uint256",
                    "name": "vaultId",
                    "type": "uint256"
                }
            ],
            "name": "MintShort",
            "type": "event"
        },
        {
            "anonymous": false,
            "inputs": [
                {
                    "indexed": false,
                    "internalType": "uint256",
                    "name": "vaultId",
                    "type": "uint256"
                }
            ],
            "name": "OpenVault",
            "type": "event"
        },
        {
            "anonymous": false,
            "inputs": [
                {
                    "indexed": true,
                    "internalType": "address",
                    "name": "previousOwner",
                    "type": "address"
                },
                {
                    "indexed": true,
                    "internalType": "address",
                    "name": "newOwner",
                    "type": "address"
                }
            ],
            "name": "OwnershipTransferred",
            "type": "event"
        },
        {
            "anonymous": false,
            "inputs": [
                {
                    "indexed": false,
                    "internalType": "uint256",
                    "name": "vaultId",
                    "type": "uint256"
                },
                {
                    "indexed": false,
                    "internalType": "address",
                    "name": "operator",
                    "type": "address"
                }
            ],
            "name": "UpdateOperator",
            "type": "event"
        },
        {
            "anonymous": false,
            "inputs": [
                {
                    "indexed": false,
                    "internalType": "uint256",
                    "name": "vaultId",
                    "type": "uint256"
                },
                {
                    "indexed": false,
                    "internalType": "uint256",
                    "name": "amount",
                    "type": "uint256"
                },
                {
                    "indexed": false,
                    "internalType": "uint128",
                    "name": "collateralId",
                    "type": "uint128"
                }
            ],
            "name": "WithdrawCollateral",
            "type": "event"
        },
        {
            "anonymous": false,
            "inputs": [
                {
                    "indexed": false,
                    "internalType": "uint256",
                    "name": "vaultId",
                    "type": "uint256"
                },
                {
                    "indexed": false,
                    "internalType": "uint256",
                    "name": "tokenId",
                    "type": "uint256"
                }
            ],
            "name": "WithdrawUniNftCollateral",
            "type": "event"
        },
        {
            "inputs": [
                {
                    "internalType": "uint32",
                    "name": "_period",
                    "type": "uint32"
                }
            ],
            "name": "_getDenormalizedMark",
            "outputs": [
                {
                    "internalType": "uint256",
                    "name": "",
                    "type": "uint256"
                }
            ],
            "stateMutability": "view",
            "type": "function"
        },
        {
            "inputs": [],
            "name": "applyFunding",
            "outputs": [],
            "stateMutability": "nonpayable",
            "type": "function"
        },
        {
            "inputs": [
                {
                    "internalType": "uint256",
                    "name": "_vaultId",
                    "type": "uint256"
                },
                {
                    "internalType": "uint256",
                    "name": "_amount",
                    "type": "uint256"
                },
                {
                    "internalType": "uint256",
                    "name": "_withdrawAmount",
                    "type": "uint256"
                }
            ],
            "name": "burn",
            "outputs": [],
            "stateMutability": "nonpayable",
            "type": "function"
        },
        {
            "inputs": [],
            "name": "dai",
            "outputs": [
                {
                    "internalType": "address",
                    "name": "",
                    "type": "address"
                }
            ],
            "stateMutability": "view",
            "type": "function"
        },
        {
            "inputs": [
                {
                    "internalType": "uint256",
                    "name": "_vaultId",
                    "type": "uint256"
                }
            ],
            "name": "deposit",
            "outputs": [],
            "stateMutability": "payable",
            "type": "function"
        },
        {
            "inputs": [
                {
                    "internalType": "uint256",
                    "name": "_vaultId",
                    "type": "uint256"
                },
                {
                    "internalType": "uint256",
                    "name": "_tokenId",
                    "type": "uint256"
                }
            ],
            "name": "depositUniNFT",
            "outputs": [],
            "stateMutability": "nonpayable",
            "type": "function"
        },
        {
            "inputs": [],
            "name": "donate",
            "outputs": [],
            "stateMutability": "payable",
            "type": "function"
        },
        {
            "inputs": [],
            "name": "ethDaiPool",
            "outputs": [
                {
                    "internalType": "address",
                    "name": "",
                    "type": "address"
                }
            ],
            "stateMutability": "view",
            "type": "function"
        },
        {
            "inputs": [
                {
                    "internalType": "uint32",
                    "name": "_period",
                    "type": "uint32"
                }
            ],
            "name": "getDenormalizedMark",
            "outputs": [
                {
                    "internalType": "uint256",
                    "name": "",
                    "type": "uint256"
                }
            ],
            "stateMutability": "view",
            "type": "function"
        },
        {
            "inputs": [
                {
                    "internalType": "uint32",
                    "name": "_period",
                    "type": "uint32"
                }
            ],
            "name": "getIndex",
            "outputs": [
                {
                    "internalType": "uint256",
                    "name": "",
                    "type": "uint256"
                }
            ],
            "stateMutability": "view",
            "type": "function"
        },
        {
            "inputs": [
                {
                    "internalType": "address",
                    "name": "_oracle",
                    "type": "address"
                },
                {
                    "internalType": "address",
                    "name": "_vaultNFT",
                    "type": "address"
                },
                {
                    "internalType": "address",
                    "name": "_squeeth",
                    "type": "address"
                },
                {
                    "internalType": "address",
                    "name": "_weth",
                    "type": "address"
                },
                {
                    "internalType": "address",
                    "name": "_dai",
                    "type": "address"
                },
                {
                    "internalType": "address",
                    "name": "_ethDaiPool",
                    "type": "address"
                },
                {
                    "internalType": "address",
                    "name": "_wSqueethEthPool",
                    "type": "address"
                },
                {
                    "internalType": "address",
                    "name": "_uniPositionManager",
                    "type": "address"
                }
            ],
            "name": "init",
            "outputs": [],
            "stateMutability": "nonpayable",
            "type": "function"
        },
        {
            "inputs": [],
            "name": "isShutDown",
            "outputs": [
                {
                    "internalType": "bool",
                    "name": "",
                    "type": "bool"
                }
            ],
            "stateMutability": "view",
            "type": "function"
        },
        {
            "inputs": [],
            "name": "isWethToken0",
            "outputs": [
                {
                    "internalType": "bool",
                    "name": "",
                    "type": "bool"
                }
            ],
            "stateMutability": "view",
            "type": "function"
        },
        {
            "inputs": [],
            "name": "lastFundingUpdateTimestamp",
            "outputs": [
                {
                    "internalType": "uint256",
                    "name": "",
                    "type": "uint256"
                }
            ],
            "stateMutability": "view",
            "type": "function"
        },
        {
            "inputs": [
                {
                    "internalType": "uint256",
                    "name": "_vaultId",
                    "type": "uint256"
                },
                {
                    "internalType": "uint256",
                    "name": "_debtAmount",
                    "type": "uint256"
                }
            ],
            "name": "liquidate",
            "outputs": [],
            "stateMutability": "nonpayable",
            "type": "function"
        },
        {
            "inputs": [
                {
                    "internalType": "uint256",
                    "name": "_vaultId",
                    "type": "uint256"
                },
                {
                    "internalType": "uint128",
                    "name": "_mintAmount",
                    "type": "uint128"
                },
                {
                    "internalType": "uint256",
                    "name": "_nftTokenId",
                    "type": "uint256"
                }
            ],
            "name": "mint",
            "outputs": [
                {
                    "internalType": "uint256",
                    "name": "",
                    "type": "uint256"
                },
                {
                    "internalType": "uint256",
                    "name": "_wSqueethMinted",
                    "type": "uint256"
                }
            ],
            "stateMutability": "payable",
            "type": "function"
        },
        {
            "inputs": [],
            "name": "normalizationFactor",
            "outputs": [
                {
                    "internalType": "uint256",
                    "name": "",
                    "type": "uint256"
                }
            ],
            "stateMutability": "view",
            "type": "function"
        },
        {
            "inputs": [],
            "name": "oracle",
            "outputs": [
                {
                    "internalType": "contract IOracle",
                    "name": "",
                    "type": "address"
                }
            ],
            "stateMutability": "view",
            "type": "function"
        },
        {
            "inputs": [],
            "name": "owner",
            "outputs": [
                {
                    "internalType": "address",
                    "name": "",
                    "type": "address"
                }
            ],
            "stateMutability": "view",
            "type": "function"
        },
        {
            "inputs": [
                {
                    "internalType": "uint256",
                    "name": "_wsqueethAmount",
                    "type": "uint256"
                }
            ],
            "name": "redeemLong",
            "outputs": [],
            "stateMutability": "nonpayable",
            "type": "function"
        },
        {
            "inputs": [
                {
                    "internalType": "uint256",
                    "name": "_vaultId",
                    "type": "uint256"
                }
            ],
            "name": "redeemShort",
            "outputs": [],
            "stateMutability": "nonpayable",
            "type": "function"
        },
        {
            "inputs": [],
            "name": "renounceOwnership",
            "outputs": [],
            "stateMutability": "nonpayable",
            "type": "function"
        },
        {
            "inputs": [],
            "name": "shutDown",
            "outputs": [],
            "stateMutability": "nonpayable",
            "type": "function"
        },
        {
            "inputs": [],
            "name": "shutDownEthPriceSnapshot",
            "outputs": [
                {
                    "internalType": "uint256",
                    "name": "",
                    "type": "uint256"
                }
            ],
            "stateMutability": "view",
            "type": "function"
        },
        {
            "inputs": [
                {
                    "internalType": "address",
                    "name": "newOwner",
                    "type": "address"
                }
            ],
            "name": "transferOwnership",
            "outputs": [],
            "stateMutability": "nonpayable",
            "type": "function"
        },
        {
            "inputs": [],
            "name": "uniswapPositionManager",
            "outputs": [
                {
                    "internalType": "address",
                    "name": "",
                    "type": "address"
                }
            ],
            "stateMutability": "view",
            "type": "function"
        },
        {
            "inputs": [
                {
                    "internalType": "uint256",
                    "name": "_vaultId",
                    "type": "uint256"
                },
                {
                    "internalType": "address",
                    "name": "_operator",
                    "type": "address"
                }
            ],
            "name": "updateOperator",
            "outputs": [],
            "stateMutability": "nonpayable",
            "type": "function"
        },
        {
            "inputs": [],
            "name": "vaultNFT",
            "outputs": [
                {
                    "internalType": "contract IVaultManagerNFT",
                    "name": "",
                    "type": "address"
                }
            ],
            "stateMutability": "view",
            "type": "function"
        },
        {
            "inputs": [
                {
                    "internalType": "uint256",
                    "name": "",
                    "type": "uint256"
                }
            ],
            "name": "vaults",
            "outputs": [
                {
                    "internalType": "address",
                    "name": "operator",
                    "type": "address"
                },
                {
                    "internalType": "uint256",
                    "name": "NftCollateralId",
                    "type": "uint256"
                },
                {
                    "internalType": "uint256",
                    "name": "collateralAmount",
                    "type": "uint256"
                },
                {
                    "internalType": "uint256",
                    "name": "shortAmount",
                    "type": "uint256"
                }
            ],
            "stateMutability": "view",
            "type": "function"
        },
        {
            "inputs": [],
            "name": "wSqueethEthPool",
            "outputs": [
                {
                    "internalType": "address",
                    "name": "",
                    "type": "address"
                }
            ],
            "stateMutability": "view",
            "type": "function"
        },
        {
            "inputs": [],
            "name": "weth",
            "outputs": [
                {
                    "internalType": "address",
                    "name": "",
                    "type": "address"
                }
            ],
            "stateMutability": "view",
            "type": "function"
        },
        {
            "inputs": [
                {
                    "internalType": "uint256",
                    "name": "_vaultId",
                    "type": "uint256"
                },
                {
                    "internalType": "uint256",
                    "name": "_amount",
                    "type": "uint256"
                }
            ],
            "name": "withdraw",
            "outputs": [],
            "stateMutability": "payable",
            "type": "function"
        },
        {
            "inputs": [
                {
                    "internalType": "uint256",
                    "name": "_vaultId",
                    "type": "uint256"
                }
            ],
            "name": "withdrawUniNFT",
            "outputs": [],
            "stateMutability": "nonpayable",
            "type": "function"
        },
        {
            "inputs": [],
            "name": "wsqueeth",
            "outputs": [
                {
                    "internalType": "contract IWSqueeth",
                    "name": "",
                    "type": "address"
                }
            ],
            "stateMutability": "view",
            "type": "function"
        }
    ],
    "transactionHash": "0x0470a8dc2348a3a517b5673c1592db6bb3404666df1afbc01fa09471d66a3961",
    "args": [],
    "solcInputHash": "20b3ed56e445bd59469c55f191ae86c8",
    "bytecode": "0x60806040526000805460ff60b01b1916905534801561001d57600080fd5b506000610028610081565b6000805462010000600160b01b031916620100006001600160a01b038416908102919091178255604051929350917f8be0079c531659141344cd1fd0a4f28419497f9722a3daafe3b4186f6b6457e0908290a350610085565b3390565b61339880620000956000396000f3fe6080604052600436106102195760003560e01c80638da5cb5b1161011d578063d5272584116100b0578063ef0b69dd1161007f578063f4b9fa7511610064578063f4b9fa75146106bb578063f81731e5146106d0578063ff9475251461072457610219565b8063ef0b69dd1461065f578063f2fde38b1461068857610219565b8063d5272584146105fd578063e5047b3014610612578063ed88c68e14610627578063ee3189ff1461062f57610219565b8063c026f25e116100ec578063c026f25e14610534578063c65a391d14610564578063cbd281df1461059d578063d296d1f1146105cd57610219565b80638da5cb5b146104ae57806397efa942146104c3578063ac6cd5ef146104ed578063b6b55f251461051757610219565b80636ab3e566116101b05780637da7e9681161017f57806384dea1a11161016457806384dea1a11461040f5780638c64ea4a146104245780638cd21d7c1461047e57610219565b80637da7e968146103e55780637dc0d1d0146103fa57610219565b80636ab3e5661461037c5780636cd0ae8b14610391578063715018a6146103bb57806376adb964146103d057610219565b80633fc8cef3116101ec5780633fc8cef3146102b1578063441a3e70146102c65780634be2822c146102e9578063525240c01461031057610219565b806305a100281461021e57806310b9e58314610256578063200f4b8d1461026b578063380accb914610280575b600080fd5b34801561022a57600080fd5b506102546004803603606081101561024157600080fd5b5080359060208101359060400135610739565b005b34801561026257600080fd5b506102546107bb565b34801561027757600080fd5b50610254610945565b34801561028c57600080fd5b5061029561094f565b604080516001600160a01b039092168252519081900360200190f35b3480156102bd57600080fd5b5061029561095e565b610254600480360360408110156102dc57600080fd5b508035906020013561096d565b3480156102f557600080fd5b506102fe6109d7565b60408051918252519081900360200190f35b34801561031c57600080fd5b50610254600480360361010081101561033457600080fd5b506001600160a01b038135811691602081013582169160408201358116916060810135821691608082013581169160a081013582169160c082013581169160e00135166109dd565b34801561038857600080fd5b50610295610ce4565b34801561039d57600080fd5b50610254600480360360208110156103b457600080fd5b5035610cf3565b3480156103c757600080fd5b50610254610d5b565b3480156103dc57600080fd5b50610295610e36565b3480156103f157600080fd5b506102fe610e45565b34801561040657600080fd5b50610295610e4b565b34801561041b57600080fd5b50610295610e5a565b34801561043057600080fd5b5061044e6004803603602081101561044757600080fd5b5035610e69565b604080516001600160a01b0390951685526020850193909352838301919091526060830152519081900360800190f35b34801561048a57600080fd5b506102fe600480360360208110156104a157600080fd5b503563ffffffff16610e9a565b3480156104ba57600080fd5b50610295610eab565b3480156104cf57600080fd5b50610254600480360360208110156104e657600080fd5b5035610ec0565b3480156104f957600080fd5b506102546004803603602081101561051057600080fd5b5035610ffe565b6102546004803603602081101561052d57600080fd5b5035611103565b34801561054057600080fd5b506102fe6004803603602081101561055757600080fd5b503563ffffffff1661115f565b34801561057057600080fd5b506102546004803603604081101561058757600080fd5b50803590602001356001600160a01b03166111cd565b3480156105a957600080fd5b50610254600480360360408110156105c057600080fd5b508035906020013561128b565b3480156105d957600080fd5b50610254600480360360408110156105f057600080fd5b50803590602001356112e8565b34801561060957600080fd5b506102fe6115eb565b34801561061e57600080fd5b506102956115f1565b61025461094d565b34801561063b57600080fd5b506102fe6004803603602081101561065257600080fd5b503563ffffffff16611600565b34801561066b57600080fd5b5061067461160b565b604080519115158252519081900360200190f35b34801561069457600080fd5b50610254600480360360208110156106ab57600080fd5b50356001600160a01b0316611614565b3480156106c757600080fd5b5061029561174c565b61070b600480360360608110156106e657600080fd5b508035906fffffffffffffffffffffffffffffffff602082013516906040013561175b565b6040805192835260208301919091528051918290030190f35b34801561073057600080fd5b5061067461182b565b600054600160b01b900460ff1615610783576040805162461bcd60e51b815260206004820152600860248201526739b43aba3237bbb760c11b604482015290519081900360640190fd5b61078b61183b565b811561079c5761079c338484611906565b80156107ad576107ad3384836119cb565b6107b683611a84565b505050565b6107c3611b32565b6001600160a01b03166107d4610eab565b6001600160a01b03161461082f576040805162461bcd60e51b815260206004820181905260248201527f4f776e61626c653a2063616c6c6572206973206e6f7420746865206f776e6572604482015290519081900360640190fd5b600054600160b01b900460ff1615610879576040805162461bcd60e51b815260206004820152600860248201526739b43aba3237bbb760c11b604482015290519081900360640190fd5b600080547fffffffffffffffffff00ffffffffffffffffffffffffffffffffffffffffffff16600160b01b179055600d546003546001546002546040805163bb1a492160e01b81526001600160a01b03948516600482015292841660248401529083166044830152610258606483015251919092169163bb1a4921916084808301926020929190829003018186803b15801561091457600080fd5b505afa158015610928573d6000803e3d6000fd5b505050506040513d602081101561093e57600080fd5b5051600655565b61094d61183b565b565b6004546001600160a01b031681565b6001546001600160a01b031681565b600054600160b01b900460ff16156109b7576040805162461bcd60e51b815260206004820152600860248201526739b43aba3237bbb760c11b604482015290519081900360640190fd5b6109bf61183b565b6109ca3383836119cb565b6109d382611a84565b5050565b60085481565b600054610100900460ff16806109f657506109f6611b36565b80610a04575060005460ff16155b610a3f5760405162461bcd60e51b815260040180806020018281038252602e815260200180613314602e913960400191505060405180910390fd5b600054610100900460ff16158015610a6a576000805460ff1961ff0019909116610100171660011790555b6001600160a01b038916610ac5576040805162461bcd60e51b815260206004820152601660248201527f496e76616c6964206f7261636c65206164647265737300000000000000000000604482015290519081900360640190fd5b6001600160a01b038816610b20576040805162461bcd60e51b815260206004820152601860248201527f496e76616c6964207661756c744e465420616464726573730000000000000000604482015290519081900360640190fd5b6001600160a01b038716610b7b576040805162461bcd60e51b815260206004820152601760248201527f496e76616c696420737175656574682061646472657373000000000000000000604482015290519081900360640190fd5b6001600160a01b038416610bd6576040805162461bcd60e51b815260206004820152601c60248201527f496e76616c6964206574683a64616920706f6f6c206164647265737300000000604482015290519081900360640190fd5b6001600160a01b038316610c1b5760405162461bcd60e51b815260040180806020018281038252602181526020018061326a6021913960400191505060405180910390fd5b600d805473ffffffffffffffffffffffffffffffffffffffff199081166001600160a01b038c811691909117909255600b805482168b8416179055600c805482168a84169081179091556003805483168885161790556004805483168785161790556005805483168685161790556001805483168a851617908190556002805490931689851617909255670de0b6b3a76400006007554260085560098054929093161060ff199091161790558015610cd9576000805461ff00191690555b505050505050505050565b600c546001600160a01b031681565b600054600160b01b900460ff1615610d3d576040805162461bcd60e51b815260206004820152600860248201526739b43aba3237bbb760c11b604482015290519081900360640190fd5b610d4561183b565b610d4f3382611b47565b610d5881611a84565b50565b610d63611b32565b6001600160a01b0316610d74610eab565b6001600160a01b031614610dcf576040805162461bcd60e51b815260206004820181905260248201527f4f776e61626c653a2063616c6c6572206973206e6f7420746865206f776e6572604482015290519081900360640190fd5b60008054604051620100009091046001600160a01b0316907f8be0079c531659141344cd1fd0a4f28419497f9722a3daafe3b4186f6b6457e0908390a3600080547fffffffffffffffffffff0000000000000000000000000000000000000000ffff169055565b6003546001600160a01b031681565b60065481565b600d546001600160a01b031681565b600b546001600160a01b031681565b600a6020526000908152604090208054600182015460028301546003909301546001600160a01b0390921692909184565b6000610ea582611c2c565b92915050565b6000546201000090046001600160a01b031690565b600054600160b01b900460ff16610f1e576040805162461bcd60e51b815260206004820152600960248201527f2173687574646f776e0000000000000000000000000000000000000000000000604482015290519081900360640190fd5b610f288133611c74565b610f67576040805162461bcd60e51b815260206004820152600b60248201526a1b9bdd08185b1b1bddd95960aa1b604482015290519081900360640190fd5b6000818152600a6020526040812060030154600754600654919291610fb3916ec097ce7bc90715b34b9f100000000091610fad9190610fa7908790611d3d565b90611d3d565b90611d96565b6000848152600a602052604081206002015491925090610fd39083611dfd565b6000858152600a6020526040812060038101829055600201559050610ff83382611e5a565b50505050565b600054600160b01b900460ff1661105c576040805162461bcd60e51b815260206004820152600960248201527f2173687574646f776e0000000000000000000000000000000000000000000000604482015290519081900360640190fd5b600c5460408051632770a7eb60e21b81523360048201526024810184905290516001600160a01b0390921691639dc29fac9160448082019260009290919082900301818387803b1580156110af57600080fd5b505af11580156110c3573d6000803e3d6000fd5b5050505060006110f76ec097ce7bc90715b34b9f1000000000610fad600654610fa760075487611d3d90919063ffffffff16565b90506109d33382611e5a565b600054600160b01b900460ff161561114d576040805162461bcd60e51b815260206004820152600860248201526739b43aba3237bbb760c11b604482015290519081900360640190fd5b61115561183b565b610d588134611f3f565b6003546001546002546000928392611188926001600160a01b0392831692918216911686611fbe565b600454600c546001549293506000926111b1926001600160a01b03908116928116911687611fbe565b6007549091506111c590610fad8385611d3d565b949350505050565b6111d78233611c74565b611216576040805162461bcd60e51b815260206004820152600b60248201526a1b9bdd08185b1b1bddd95960aa1b604482015290519081900360640190fd5b6000828152600a6020908152604091829020805473ffffffffffffffffffffffffffffffffffffffff19166001600160a01b03851690811790915582518581529182015281517f9d9dd80a56a16f715df6eb40b771e24ff8cbea6eed9de28473ce0f28fe5602a9929181900390910190a15050565b600054600160b01b900460ff16156112d5576040805162461bcd60e51b815260206004820152600860248201526739b43aba3237bbb760c11b604482015290519081900360640190fd5b6112dd61183b565b6109d33383836120cb565b600054600160b01b900460ff1615611332576040805162461bcd60e51b815260206004820152600860248201526739b43aba3237bbb760c11b604482015290519081900360640190fd5b61133a61183b565b6000828152600a6020908152604091829020825160808101845281546001600160a01b031681526001820154928101929092526002810154928201929092526003820154606082015261138c906121b8565b156113de576040805162461bcd60e51b815260206004820152601c60248201527f43616e206e6f74206c69717569646174652073616665207661756c7400000000604482015290519081900360640190fd5b60038101546113ee906002611d96565b82111561142c5760405162461bcd60e51b81526004018080602001828103825260298152602001806132b16029913960400191505060405180910390fd5b600d546003546001546002546040805163bb1a492160e01b81526001600160a01b03948516600482015292841660248401529083166044830152610258606483015251600093929092169163bb1a492191608480820192602092909190829003018186803b15801561149d57600080fd5b505afa1580156114b1573d6000803e3d6000fd5b505050506040513d60208110156114c757600080fd5b50516007549091506000906114f8906ec097ce7bc90715b34b9f100000000090610fad908590610fa7908990611d3d565b905061150f61150882600a611d96565b8290612320565b600c5460408051632770a7eb60e21b81523360048201526024810188905290519293506001600160a01b0390911691639dc29fac9160448082019260009290919082900301818387803b15801561156557600080fd5b505af1158015611579573d6000803e3d6000fd5b50505050611590848461237a90919063ffffffff16565b61159a8382612395565b6115a43382611e5a565b604080518681526020810186905280820183905290517f199c51a8cd3b6aa8f80abc4f5c713f20c111837887163a1bbaa2dd5f61a554ab9181900360600190a15050505050565b60075481565b6005546001600160a01b031681565b6000610ea58261115f565b60095460ff1681565b61161c611b32565b6001600160a01b031661162d610eab565b6001600160a01b031614611688576040805162461bcd60e51b815260206004820181905260248201527f4f776e61626c653a2063616c6c6572206973206e6f7420746865206f776e6572604482015290519081900360640190fd5b6001600160a01b0381166116cd5760405162461bcd60e51b815260040180806020018281038252602681526020018061328b6026913960400191505060405180910390fd5b600080546040516001600160a01b03808516936201000090930416917f8be0079c531659141344cd1fd0a4f28419497f9722a3daafe3b4186f6b6457e091a3600080546001600160a01b0390921662010000027fffffffffffffffffffff0000000000000000000000000000000000000000ffff909216919091179055565b6002546001600160a01b031681565b600080548190600160b01b900460ff16156117a8576040805162461bcd60e51b815260206004820152600860248201526739b43aba3237bbb760c11b604482015290519081900360640190fd5b6117b061183b565b846117c1576117be336123b0565b94505b34156117d1576117d18534611f3f565b82156117e2576117e23386856120cb565b6fffffffffffffffffffffffffffffffff84161561181a576118173386866fffffffffffffffffffffffffffffffff166124ef565b90505b61182385611a84565b939492505050565b600054600160b01b900460ff1681565b6008544203600061184b82612636565b905060006118588261115f565b9050600061186583611c2c565b9050600061188b62015180610fad670de0b6b3a764000063ffffffff808a1690611d3d16565b905060006118d46118bb61189f8585611d3d565b6118b587610fa7670de0b6b3a764000088612320565b90611dfd565b610fad866ec097ce7bc90715b34b9f1000000000611d3d565b90506118f7670de0b6b3a7640000610fad83600754611d3d90919063ffffffff16565b60075550504260085550505050565b6000828152600a6020526040902061191e908261237a565b600c5460408051632770a7eb60e21b81526001600160a01b0386811660048301526024820185905291519190921691639dc29fac91604480830192600092919082900301818387803b15801561197357600080fd5b505af1158015611987573d6000803e3d6000fd5b5050604080518481526020810186905281517fc3fe83ab1ba331ef06ed00bc6f8615de1577dc77772a83e3264864de6a94ea8d9450908190039091019150a1505050565b6119d58284611c74565b611a14576040805162461bcd60e51b815260206004820152600b60248201526a1b9bdd08185b1b1bddd95960aa1b604482015290519081900360640190fd5b6000828152600a60205260409020611a2c9082612395565b611a3f6001600160a01b03841682611e5a565b604080518381526020810183905260008183015290517ffd6fe60d4c49c077689d373f95adff80f09e02e5f719b842f6e3cfc812546a909181900360600190a1505050565b80611a8e57610d58565b6000818152600a6020908152604091829020825160808101845281546001600160a01b031681526001820154928101929092526002810154928201929092526003909101546060820152611ae1816121b8565b6109d3576040805162461bcd60e51b815260206004820152600d60248201527f496e76616c696420737461746500000000000000000000000000000000000000604482015290519081900360640190fd5b3390565b6000611b413061265c565b15905090565b6000818152600a60205260408120611b5e90612662565b600554604080517f23b872dd0000000000000000000000000000000000000000000000000000000081523060048201526001600160a01b0387811660248301526044820185905291519394509116916323b872dd9160648082019260009290919082900301818387803b158015611bd457600080fd5b505af1158015611be8573d6000803e3d6000fd5b5050604080518581526020810185905281517f99fe06e34172539270c76260ec1c6f2851fe40f9d11a4d69fe69c78b315d42959450908190039091019150a1505050565b6003546001546002546000928392611c55926001600160a01b0392831692918216911686611fbe565b9050611c6d670de0b6b3a7640000610fad8380611d3d565b9392505050565b600b54604080517f6352211e0000000000000000000000000000000000000000000000000000000081526004810185905290516000926001600160a01b0380861693911691636352211e91602480820192602092909190829003018186803b158015611cdf57600080fd5b505afa158015611cf3573d6000803e3d6000fd5b505050506040513d6020811015611d0957600080fd5b50516001600160a01b03161480611c6d5750506000918252600a6020526040909120546001600160a01b0390811691161490565b600082611d4c57506000610ea5565b82820282848281611d5957fe5b0414611c6d5760405162461bcd60e51b81526004018080602001828103825260218152602001806133426021913960400191505060405180910390fd5b6000808211611dec576040805162461bcd60e51b815260206004820152601a60248201527f536166654d6174683a206469766973696f6e206279207a65726f000000000000604482015290519081900360640190fd5b818381611df557fe5b049392505050565b600082821115611e54576040805162461bcd60e51b815260206004820152601e60248201527f536166654d6174683a207375627472616374696f6e206f766572666c6f770000604482015290519081900360640190fd5b50900390565b80471015611eaf576040805162461bcd60e51b815260206004820152601d60248201527f416464726573733a20696e73756666696369656e742062616c616e6365000000604482015290519081900360640190fd5b6040516000906001600160a01b0384169083908381818185875af1925050503d8060008114611efa576040519150601f19603f3d011682016040523d82523d6000602084013e611eff565b606091505b50509050806107b65760405162461bcd60e51b815260040180806020018281038252603a8152602001806132da603a913960400191505060405180910390fd5b6000828152600a60205260409020611f69906fffffffffffffffffffffffffffffffff83166126cc565b604080518381526fffffffffffffffffffffffffffffffff8316602082015260008183015290517f3330326bf90be46e9e6c5df7730431a92424757f58fba7a49e10e800bf1aa7c19181900360600190a15050565b600d54604080517fd1343c4d0000000000000000000000000000000000000000000000000000000081526001600160a01b0387811660048301528681166024830152858116604483015263ffffffff8516606483015291516000938493169163d1343c4d916084808301926020929190829003018186803b15801561204257600080fd5b505afa158015612056573d6000803e3d6000fd5b505050506040513d602081101561206c57600080fd5b50519050806120c2576040805162461bcd60e51b815260206004820152600b60248201527f5741502057415020574150000000000000000000000000000000000000000000604482015290519081900360640190fd5b95945050505050565b6120d4816126db565b6000828152600a602052604090206120ec9082612849565b600554604080517f23b872dd0000000000000000000000000000000000000000000000000000000081526001600160a01b03868116600483015230602483015260448201859052915191909216916323b872dd91606480830192600092919082900301818387803b15801561216057600080fd5b505af1158015612174573d6000803e3d6000fd5b5050604080518581526020810185905281517fe8a6d38fc4a9ece5baaca08da6f37cf611f1c8ca0f21eda90ef0f7ed55965b349450908190039091019150a1505050565b600d546003546001546002546040805163bb1a492160e01b81526001600160a01b0394851660048201529284166024840152908316604483015261012c6064830152516000938493169163bb1a4921916084808301926020929190829003018186803b15801561222757600080fd5b505afa15801561223b573d6000803e3d6000fd5b505050506040513d602081101561225157600080fd5b5051600d5460048054604080517f4a0a96eb0000000000000000000000000000000000000000000000000000000081526001600160a01b039283169381019390935261012c602484015251939450600093921691634a0a96eb91604480820192602092909190829003018186803b1580156122cb57600080fd5b505afa1580156122df573d6000803e3d6000fd5b505050506040513d60208110156122f557600080fd5b50516005546007546009549293506111c59287926001600160a01b031691908690869060ff166128fa565b600082820183811015611c6d576040805162461bcd60e51b815260206004820152601b60248201527f536166654d6174683a206164646974696f6e206f766572666c6f770000000000604482015290519081900360640190fd5b60038201546123899082611dfd565b82600301819055505050565b60028201546123a49082611dfd565b82600201819055505050565b600b54604080517f54ba0f270000000000000000000000000000000000000000000000000000000081526001600160a01b038481166004830152915160009392909216916354ba0f279160248082019260209290919082900301818787803b15801561241b57600080fd5b505af115801561242f573d6000803e3d6000fd5b505050506040513d602081101561244557600080fd5b5051604080516080810182526000808252602080830182815283850183815260608501848152878552600a8452938690209451855473ffffffffffffffffffffffffffffffffffffffff19166001600160a01b03909116178555905160018501555160028401559051600390920191909155815183815291519293507f5f5dd6438bd675e0dba85db7517ba5931be5b31a11e5af8c04ea0e9152fa7ec592918290030190a1919050565b60006124fb8385611c74565b61253a576040805162461bcd60e51b815260206004820152600b60248201526a1b9bdd08185b1b1bddd95960aa1b604482015290519081900360640190fd5b60075461255390610fad84670de0b6b3a7640000611d3d565b6000848152600a6020526040902090915061256e908261292c565b600c54604080517f40c10f190000000000000000000000000000000000000000000000000000000081526001600160a01b03878116600483015260248201859052915191909216916340c10f1991604480830192600092919082900301818387803b1580156125dc57600080fd5b505af11580156125f0573d6000803e3d6000fd5b5050604080518481526020810187905281517f0dd703a01208414af8d8c0d38f96263f1c708720550808d8af1985608014387a9450908190039091019150a19392505050565b60008061264161293b565b90508063ffffffff168363ffffffff1611610ea55782611c6d565b3b151590565b60008160010154600014156126be576040805162461bcd60e51b815260206004820152601060248201527f5661756c7420686173206e6f204e465400000000000000000000000000000000604482015290519081900360640190fd5b506001018054600090915590565b60028201546123a49082612320565b600554604080517f99fbab8800000000000000000000000000000000000000000000000000000000815260048101849052905160009283926001600160a01b03909116916399fbab889160248082019261018092909190829003018186803b15801561274657600080fd5b505afa15801561275a573d6000803e3d6000fd5b505050506040513d61018081101561277157600080fd5b506040810151606090910151600c546001549294509092506001600160a01b03908116918116908416821480156127b95750806001600160a01b0316836001600160a01b0316145b806127f15750816001600160a01b0316836001600160a01b03161480156127f15750806001600160a01b0316846001600160a01b0316145b612842576040805162461bcd60e51b815260206004820152600b60248201527f496e76616c6964206e6674000000000000000000000000000000000000000000604482015290519081900360640190fd5b5050505050565b6001820154156128a0576040805162461bcd60e51b815260206004820152601560248201527f5661756c7420616c726561647920686164206e66740000000000000000000000604482015290519081900360640190fd5b806128f2576040805162461bcd60e51b815260206004820152600a60248201527f696e76616c696420696400000000000000000000000000000000000000000000604482015290519081900360640190fd5b600190910155565b600086606001516000141561291157506001612922565b61291f878787878787612a8f565b90505b9695505050505050565b60038201546123899082612320565b600d54600354604080517fde5a6e220000000000000000000000000000000000000000000000000000000081526001600160a01b03928316600482015290516000938493169163de5a6e22916024808301926020929190829003018186803b1580156129a657600080fd5b505afa1580156129ba573d6000803e3d6000fd5b505050506040513d60208110156129d057600080fd5b5051600d5460048054604080517fde5a6e220000000000000000000000000000000000000000000000000000000081526001600160a01b03928316938101939093525193945060009392169163de5a6e2291602480820192602092909190829003018186803b158015612a4257600080fd5b505afa158015612a56573d6000803e3d6000fd5b505050506040513d6020811015612a6c57600080fd5b5051905063ffffffff80821690831611612a865781612a88565b805b9250505090565b604086015160208701516000919015612af957600080612ab5898b602001518888612b50565b90925090506000612add6ec097ce7bc90715b34b9f1000000000610fad8a610fa7868e611d3d565b9050612af383612aed8684612320565b90612320565b93505050505b6000612b296ec097ce7bc90715b34b9f1000000000610fad88610fa78b8e60600151611d3d90919063ffffffff16565b9050612b36816003611d3d565b612b41836002611d3d565b10159998505050505050505050565b600080600080612b61888888612b8e565b9150915084612b705780612b72565b815b85612b7d5782612b7f565b815b93509350505094509492505050565b60008060008590506000806000836001600160a01b03166399fbab88896040518263ffffffff1660e01b8152600401808281526020019150506101806040518083038186803b158015612be057600080fd5b505afa158015612bf4573d6000803e3d6000fd5b505050506040513d610180811015612c0b57600080fd5b5060a081015160c082015160e09092015190945090925090506000612c2f88612cc9565b90508360020b8860020b1215612c6357612c5c612c4b85612cc9565b612c5485612cc9565b846001613024565b9650612cbc565b8260020b8860020b1215612c9c57612c7e81612c5485612cc9565b9650612c95612c8c85612cc9565b828460016130e1565b9550612cbc565b612cb9612ca885612cc9565b612cb185612cc9565b8460016130e1565b95505b5050505050935093915050565b60008060008360020b12612ce0578260020b612ce8565b8260020b6000035b9050620d89e8811115612d42576040805162461bcd60e51b815260206004820152600160248201527f5400000000000000000000000000000000000000000000000000000000000000604482015290519081900360640190fd5b600060018216612d6357700100000000000000000000000000000000612d75565b6ffffcb933bd6fad37aa2d162d1a5940015b70ffffffffffffffffffffffffffffffffff1690506002821615612da9576ffff97272373d413259a46990580e213a0260801c5b6004821615612dc8576ffff2e50f5f656932ef12357cf3c7fdcc0260801c5b6008821615612de7576fffe5caca7e10e4e61c3624eaa0941cd00260801c5b6010821615612e06576fffcb9843d60f6159c9db58835c9266440260801c5b6020821615612e25576fff973b41fa98c081472e6896dfb254c00260801c5b6040821615612e44576fff2ea16466c96a3843ec78b326b528610260801c5b6080821615612e63576ffe5dee046a99a2a811c461f1969c30530260801c5b610100821615612e83576ffcbe86c7900a88aedcffc83b479aa3a40260801c5b610200821615612ea3576ff987a7253ac413176f2b074cf7815e540260801c5b610400821615612ec3576ff3392b0822b70005940c7a398e4b70f30260801c5b610800821615612ee3576fe7159475a2c29b7443b29c7fa6e889d90260801c5b611000821615612f03576fd097f3bdfd2022b8845ad8f792aa58250260801c5b612000821615612f23576fa9f746462d870fdf8a65dc1f90e061e50260801c5b614000821615612f43576f70d869a156d2a1b890bb3df62baf32f70260801c5b618000821615612f63576f31be135f97d08fd981231505542fcfa60260801c5b62010000821615612f84576f09aa508b5b7a84e1c677de54f3e99bc90260801c5b62020000821615612fa4576e5d6af8dedb81196699c329225ee6040260801c5b62040000821615612fc3576d2216e584f5fa1ea926041bedfe980260801c5b62080000821615612fe0576b048a170391f7dc42444e8fa20260801c5b60008460020b1315612ffb578060001981612ff757fe5b0490505b64010000000081061561300f576001613012565b60005b60ff16602082901c0192505050919050565b6000836001600160a01b0316856001600160a01b03161115613044579293925b7bffffffffffffffffffffffffffffffff000000000000000000000000606084901b166001600160a01b03868603811690871661308057600080fd5b836130b057866001600160a01b03166130a38383896001600160a01b0316613175565b816130aa57fe5b046130d6565b6130d66130c78383896001600160a01b0316613224565b886001600160a01b031661325e565b979650505050505050565b6000836001600160a01b0316856001600160a01b03161115613101579293925b816131405761313b836fffffffffffffffffffffffffffffffff168686036001600160a01b03166c01000000000000000000000000613175565b6120c2565b6120c2836fffffffffffffffffffffffffffffffff168686036001600160a01b03166c01000000000000000000000000613224565b60008080600019858709868602925082811090839003039050806131ab57600084116131a057600080fd5b508290049050611c6d565b8084116131b757600080fd5b6000848688096000868103871696879004966002600389028118808a02820302808a02820302808a02820302808a02820302808a02820302808a02909103029181900381900460010186841190950394909402919094039290920491909117919091029150509392505050565b6000613231848484613175565b90506000828061323d57fe5b8486091115611c6d57600019811061325457600080fd5b6001019392505050565b80820491061515019056fe496e76616c69642077737175656574683a65746820706f6f6c20616464726573734f776e61626c653a206e6577206f776e657220697320746865207a65726f206164647265737343616e206e6f74207265706179206d6f7265207468616e20353025206f66207661756c742064656274416464726573733a20756e61626c6520746f2073656e642076616c75652c20726563697069656e74206d61792068617665207265766572746564496e697469616c697a61626c653a20636f6e747261637420697320616c726561647920696e697469616c697a6564536166654d6174683a206d756c7469706c69636174696f6e206f766572666c6f77a26469706673582212204b7d947acb017b8a510a32addd2bce3d8fb8a8e2f556562e08683d0cec3b8c4364736f6c63430007060033",
    "devdoc": {
        "kind": "dev",
        "methods": {
            "owner()": {
                "details": "Returns the address of the current owner."
            },
            "renounceOwnership()": {
                "details": "Leaves the contract without owner. It will not be possible to call `onlyOwner` functions anymore. Can only be called by the current owner. NOTE: Renouncing ownership will leave the contract without an owner, thereby removing any functionality that is only available to the owner."
            },
            "transferOwnership(address)": {
                "details": "Transfers ownership of the contract to a new account (`newOwner`). Can only be called by the current owner."
            }
        },
        "stateVariables": {
            "vaults": {
                "details": "The token ID vault data"
            }
        },
        "version": 1
    },
    "userdoc": {
        "events": {
            "OpenVault(uint256)": {
                "notice": "Events"
            }
        },
        "kind": "user",
        "methods": {
            "applyFunding()": {
                "notice": "Update the normalized factor as a way to pay funding."
            },
            "burn(uint256,uint256,uint256)": {
                "notice": "burn squueth and remove collateral from a vault. This burns an amount of wSqueeth."
            },
            "deposit(uint256)": {
                "notice": "Deposit collateral into a vault"
            },
            "depositUniNFT(uint256,uint256)": {
                "notice": "Deposit Uni NFT as collateral"
            },
            "donate()": {
                "notice": "a function to add eth into a contract, in case it got insolvent and have ensufficient eth to pay out."
            },
            "init(address,address,address,address,address,address,address,address)": {
                "notice": "init controller with squeeth and short NFT address"
            },
            "mint(uint256,uint128,uint256)": {
                "notice": "put down collateral and mint squeeth. This mints an amount of rSqueeth."
            },
            "shutDown()": {
                "notice": "shutdown the system and enable redeeming long and short"
            },
            "updateOperator(uint256,address)": {
                "notice": "Authorize an address to modify the vault. Can be revoke by setting address to 0."
            },
            "withdraw(uint256,uint256)": {
                "notice": "Withdraw collateral from a vault."
            },
            "withdrawUniNFT(uint256)": {
                "notice": "Withdraw Uni NFT from a vault"
            }
        },
        "version": 1
    },
    "storageLayout": {
        "storage": [
            {
                "astId": 3642,
                "contract": "contracts/core/Controller.sol:Controller",
                "label": "_initialized",
                "offset": 0,
                "slot": "0",
                "type": "t_bool"
            },
            {
                "astId": 3645,
                "contract": "contracts/core/Controller.sol:Controller",
                "label": "_initializing",
                "offset": 1,
                "slot": "0",
                "type": "t_bool"
            },
            {
                "astId": 3109,
                "contract": "contracts/core/Controller.sol:Controller",
                "label": "_owner",
                "offset": 2,
                "slot": "0",
                "type": "t_address"
            },
            {
                "astId": 10700,
                "contract": "contracts/core/Controller.sol:Controller",
                "label": "isShutDown",
                "offset": 22,
                "slot": "0",
                "type": "t_bool"
            },
            {
                "astId": 10702,
                "contract": "contracts/core/Controller.sol:Controller",
                "label": "weth",
                "offset": 0,
                "slot": "1",
                "type": "t_address"
            },
            {
                "astId": 10704,
                "contract": "contracts/core/Controller.sol:Controller",
                "label": "dai",
                "offset": 0,
                "slot": "2",
                "type": "t_address"
            },
            {
                "astId": 10706,
                "contract": "contracts/core/Controller.sol:Controller",
                "label": "ethDaiPool",
                "offset": 0,
                "slot": "3",
                "type": "t_address"
            },
            {
                "astId": 10708,
                "contract": "contracts/core/Controller.sol:Controller",
                "label": "wSqueethEthPool",
                "offset": 0,
                "slot": "4",
                "type": "t_address"
            },
            {
                "astId": 10710,
                "contract": "contracts/core/Controller.sol:Controller",
                "label": "uniswapPositionManager",
                "offset": 0,
                "slot": "5",
                "type": "t_address"
            },
            {
                "astId": 10712,
                "contract": "contracts/core/Controller.sol:Controller",
                "label": "shutDownEthPriceSnapshot",
                "offset": 0,
                "slot": "6",
                "type": "t_uint256"
            },
            {
                "astId": 10714,
                "contract": "contracts/core/Controller.sol:Controller",
                "label": "normalizationFactor",
                "offset": 0,
                "slot": "7",
                "type": "t_uint256"
            },
            {
                "astId": 10716,
                "contract": "contracts/core/Controller.sol:Controller",
                "label": "lastFundingUpdateTimestamp",
                "offset": 0,
                "slot": "8",
                "type": "t_uint256"
            },
            {
                "astId": 10718,
                "contract": "contracts/core/Controller.sol:Controller",
                "label": "isWethToken0",
                "offset": 0,
                "slot": "9",
                "type": "t_bool"
            },
            {
                "astId": 10723,
                "contract": "contracts/core/Controller.sol:Controller",
                "label": "vaults",
                "offset": 0,
                "slot": "10",
                "type": "t_mapping(t_uint256,t_struct(Vault)12669_storage)"
            },
            {
                "astId": 10725,
                "contract": "contracts/core/Controller.sol:Controller",
                "label": "vaultNFT",
                "offset": 0,
                "slot": "11",
                "type": "t_contract(IVaultManagerNFT)12611"
            },
            {
                "astId": 10727,
                "contract": "contracts/core/Controller.sol:Controller",
                "label": "wsqueeth",
                "offset": 0,
                "slot": "12",
                "type": "t_contract(IWSqueeth)12647"
            },
            {
                "astId": 10729,
                "contract": "contracts/core/Controller.sol:Controller",
                "label": "oracle",
                "offset": 0,
                "slot": "13",
                "type": "t_contract(IOracle)12597"
            }
        ],
        "types": {
            "t_address": {
                "encoding": "inplace",
                "label": "address",
                "numberOfBytes": "20"
            },
            "t_bool": {
                "encoding": "inplace",
                "label": "bool",
                "numberOfBytes": "1"
            },
            "t_contract(IOracle)12597": {
                "encoding": "inplace",
                "label": "contract IOracle",
                "numberOfBytes": "20"
            },
            "t_contract(IVaultManagerNFT)12611": {
                "encoding": "inplace",
                "label": "contract IVaultManagerNFT",
                "numberOfBytes": "20"
            },
            "t_contract(IWSqueeth)12647": {
                "encoding": "inplace",
                "label": "contract IWSqueeth",
                "numberOfBytes": "20"
            },
            "t_mapping(t_uint256,t_struct(Vault)12669_storage)": {
                "encoding": "mapping",
                "key": "t_uint256",
                "label": "mapping(uint256 => struct VaultLib.Vault)",
                "numberOfBytes": "32",
                "value": "t_struct(Vault)12669_storage"
            },
            "t_struct(Vault)12669_storage": {
                "encoding": "inplace",
                "label": "struct VaultLib.Vault",
                "members": [
                    {
                        "astId": 12662,
                        "contract": "contracts/core/Controller.sol:Controller",
                        "label": "operator",
                        "offset": 0,
                        "slot": "0",
                        "type": "t_address"
                    },
                    {
                        "astId": 12664,
                        "contract": "contracts/core/Controller.sol:Controller",
                        "label": "NftCollateralId",
                        "offset": 0,
                        "slot": "1",
                        "type": "t_uint256"
                    },
                    {
                        "astId": 12666,
                        "contract": "contracts/core/Controller.sol:Controller",
                        "label": "collateralAmount",
                        "offset": 0,
                        "slot": "2",
                        "type": "t_uint256"
                    },
                    {
                        "astId": 12668,
                        "contract": "contracts/core/Controller.sol:Controller",
                        "label": "shortAmount",
                        "offset": 0,
                        "slot": "3",
                        "type": "t_uint256"
                    }
                ],
                "numberOfBytes": "128"
            },
            "t_uint256": {
                "encoding": "inplace",
                "label": "uint256",
                "numberOfBytes": "32"
            }
        }
    }
}