{
  "address": "0xD0fb9d47B5F65d76C6bDf1b9E43a4A2345080B2f",
  "abi": [
    {
      "inputs": [
        {
          "internalType": "address payable",
          "name": "_crabV1",
          "type": "address"
        },
        {
          "internalType": "address",
          "name": "_weth",
          "type": "address"
        },
        {
          "internalType": "address",
          "name": "_eulerExec",
          "type": "address"
        },
        {
          "internalType": "address",
          "name": "_dToken",
          "type": "address"
        },
        {
          "internalType": "address",
          "name": "_eulerMainnet",
          "type": "address"
        }
      ],
      "stateMutability": "nonpayable",
      "type": "constructor"
    },
    {
      "anonymous": false,
      "inputs": [
        {
          "indexed": true,
          "internalType": "address",
          "name": "user",
          "type": "address"
        },
        {
          "indexed": false,
          "internalType": "uint256",
          "name": "crabAmount",
          "type": "uint256"
        }
      ],
      "name": "ClaimAndWithdraw",
      "type": "event"
    },
    {
      "anonymous": false,
      "inputs": [
        {
          "indexed": true,
          "internalType": "address",
          "name": "user",
          "type": "address"
        },
        {
          "indexed": false,
          "internalType": "uint256",
          "name": "crabAmount",
          "type": "uint256"
        }
      ],
      "name": "ClaimV2Shares",
      "type": "event"
    },
    {
      "anonymous": false,
      "inputs": [
        {
          "indexed": true,
          "internalType": "address",
          "name": "user",
          "type": "address"
        },
        {
          "indexed": false,
          "internalType": "uint256",
          "name": "crabV1Amount",
          "type": "uint256"
        }
      ],
      "name": "DepositV1Shares",
      "type": "event"
    },
    {
      "anonymous": false,
      "inputs": [
        {
          "indexed": true,
          "internalType": "address",
          "name": "user",
          "type": "address"
        },
        {
          "indexed": false,
          "internalType": "uint256",
          "name": "crabV1Amount",
          "type": "uint256"
        },
        {
          "indexed": false,
          "internalType": "uint256",
          "name": "crabV2Amount",
          "type": "uint256"
        },
        {
          "indexed": false,
          "internalType": "uint256",
          "name": "excessEth",
          "type": "uint256"
        }
      ],
      "name": "FlashMigrate",
      "type": "event"
    },
    {
      "anonymous": false,
      "inputs": [
        {
          "indexed": true,
          "internalType": "address",
          "name": "previousOwner",
          "type": "address"
        },
        {
          "indexed": true,
          "internalType": "address",
          "name": "newOwner",
          "type": "address"
        }
      ],
      "name": "OwnershipTransferred",
      "type": "event"
    },
    {
      "anonymous": false,
      "inputs": [
        {
          "indexed": true,
          "internalType": "address",
          "name": "user",
          "type": "address"
        },
        {
          "indexed": false,
          "internalType": "uint256",
          "name": "crabV1Amount",
          "type": "uint256"
        }
      ],
      "name": "WithdrawV1Shares",
      "type": "event"
    },
    {
      "inputs": [
        {
          "internalType": "uint256",
          "name": "_strategyCap",
          "type": "uint256"
        }
      ],
      "name": "batchMigrate",
      "outputs": [],
      "stateMutability": "nonpayable",
      "type": "function"
    },
    {
      "inputs": [
        {
          "internalType": "uint256",
          "name": "_amountToWithdraw",
          "type": "uint256"
        },
        {
          "internalType": "uint256",
          "name": "_maxEthToPay",
          "type": "uint256"
        },
        {
          "internalType": "uint24",
          "name": "_poolFee",
          "type": "uint24"
        }
      ],
      "name": "claimAndWithdraw",
      "outputs": [],
      "stateMutability": "nonpayable",
      "type": "function"
    },
    {
      "inputs": [],
      "name": "claimV2Shares",
      "outputs": [],
      "stateMutability": "nonpayable",
      "type": "function"
    },
    {
      "inputs": [],
      "name": "crabV1",
      "outputs": [
        {
          "internalType": "address payable",
          "name": "",
          "type": "address"
        }
      ],
      "stateMutability": "view",
      "type": "function"
    },
    {
      "inputs": [],
      "name": "crabV2",
      "outputs": [
        {
          "internalType": "address payable",
          "name": "",
          "type": "address"
        }
      ],
      "stateMutability": "view",
      "type": "function"
    },
    {
      "inputs": [
        {
          "internalType": "uint256",
          "name": "_amount",
          "type": "uint256"
        }
      ],
      "name": "depositV1Shares",
      "outputs": [],
      "stateMutability": "nonpayable",
      "type": "function"
    },
    {
      "inputs": [],
      "name": "euler",
      "outputs": [
        {
          "internalType": "address",
          "name": "",
          "type": "address"
        }
      ],
      "stateMutability": "view",
      "type": "function"
    },
    {
      "inputs": [
        {
          "internalType": "uint256",
          "name": "_v1Shares",
          "type": "uint256"
        },
        {
          "internalType": "uint256",
          "name": "_ethToFlashDeposit",
          "type": "uint256"
        },
        {
          "internalType": "uint256",
          "name": "_ethToBorrow",
          "type": "uint256"
        },
        {
          "internalType": "uint256",
          "name": "_withdrawMaxEthToPay",
          "type": "uint256"
        },
        {
          "internalType": "uint24",
          "name": "_poolFee",
          "type": "uint24"
        }
      ],
      "name": "flashMigrateAndWithdrawFromV1toV2",
      "outputs": [],
      "stateMutability": "nonpayable",
      "type": "function"
    },
    {
      "inputs": [
        {
          "internalType": "uint256",
          "name": "_v1Shares",
          "type": "uint256"
        },
        {
          "internalType": "uint256",
          "name": "_ethToFlashDeposit",
          "type": "uint256"
        },
        {
          "internalType": "uint24",
          "name": "_poolFee",
          "type": "uint24"
        }
      ],
      "name": "flashMigrateFromV1toV2",
      "outputs": [],
      "stateMutability": "nonpayable",
      "type": "function"
    },
    {
      "inputs": [
        {
          "internalType": "uint256",
          "name": "_v1Shares",
          "type": "uint256"
        }
      ],
      "name": "flashMigrationDetails",
      "outputs": [
        {
          "internalType": "bool",
          "name": "",
          "type": "bool"
        },
        {
          "internalType": "uint256",
          "name": "",
          "type": "uint256"
        },
        {
          "internalType": "uint256",
          "name": "",
          "type": "uint256"
        },
        {
          "internalType": "uint256",
          "name": "",
          "type": "uint256"
        }
      ],
      "stateMutability": "view",
      "type": "function"
    },
    {
      "inputs": [],
      "name": "isMigrated",
      "outputs": [
        {
          "internalType": "bool",
          "name": "",
          "type": "bool"
        }
      ],
      "stateMutability": "view",
      "type": "function"
    },
    {
      "inputs": [
        {
          "internalType": "bytes",
          "name": "encodedData",
          "type": "bytes"
        }
      ],
      "name": "onDeferredLiquidityCheck",
      "outputs": [],
      "stateMutability": "nonpayable",
      "type": "function"
    },
    {
      "inputs": [],
      "name": "owner",
      "outputs": [
        {
          "internalType": "address",
          "name": "",
          "type": "address"
        }
      ],
      "stateMutability": "view",
      "type": "function"
    },
    {
      "inputs": [],
      "name": "renounceOwnership",
      "outputs": [],
      "stateMutability": "nonpayable",
      "type": "function"
    },
    {
      "inputs": [
        {
          "internalType": "address payable",
          "name": "_crabV2",
          "type": "address"
        }
      ],
      "name": "setCrabV2",
      "outputs": [],
      "stateMutability": "nonpayable",
      "type": "function"
    },
    {
      "inputs": [
        {
          "internalType": "address",
          "name": "",
          "type": "address"
        }
      ],
      "name": "sharesDeposited",
      "outputs": [
        {
          "internalType": "uint256",
          "name": "",
          "type": "uint256"
        }
      ],
      "stateMutability": "view",
      "type": "function"
    },
    {
      "inputs": [
        {
          "internalType": "address",
          "name": "newOwner",
          "type": "address"
        }
      ],
      "name": "transferOwnership",
      "outputs": [],
      "stateMutability": "nonpayable",
      "type": "function"
    },
    {
      "inputs": [],
      "name": "weth",
      "outputs": [
        {
          "internalType": "address",
          "name": "",
          "type": "address"
        }
      ],
      "stateMutability": "view",
      "type": "function"
    },
    {
      "inputs": [
        {
          "internalType": "uint256",
          "name": "_amount",
          "type": "uint256"
        }
      ],
      "name": "withdrawV1Shares",
      "outputs": [],
      "stateMutability": "nonpayable",
      "type": "function"
    },
    {
      "stateMutability": "payable",
      "type": "receive"
    }
  ],
  "transactionHash": "0xccb538f212acc0f9d1408e4e066a2a6d0ae9b6c928bc2c0cc287d8cbc2eec06f",
  "args": [
    "0xbffBD99cFD9d77c49595dFe8eB531715906ca4Cf",
    "0xc778417e063141139fce010982780140aa0cd5ab",
    "0xF7B8611008Ed073Ef348FE130671688BBb20409d",
    "0x682b4c36a6D4749Ced8C3abF47AefDFC57A17754",
    "0xfC3DD73e918b931be7DEfd0cc616508391bcc001"
  ],
  "solcInputHash": "30afee76cfee2d4cc1c12451e0258499",
  "bytecode": "0x6101206040523480156200001257600080fd5b5060405162003b3e38038062003b3e8339810160408190526200003591620003a3565b60006200004162000379565b600080546001600160a01b0319166001600160a01b0383169081178255604051929350917f8be0079c531659141344cd1fd0a4f28419497f9722a3daafe3b4186f6b6457e0908290a3506001600160a01b038316620000bd5760405162461bcd60e51b8152600401620000b49062000511565b60405180910390fd5b6001600160a01b038216620000e65760405162461bcd60e51b8152600401620000b49062000494565b6001600160a01b0381166200010f5760405162461bcd60e51b8152600401620000b4906200045d565b6001600160a01b038416620001385760405162461bcd60e51b8152600401620000b4906200057f565b6001600160a01b038516620001615760405162461bcd60e51b8152600401620000b49062000548565b836001600160a01b0316826001600160a01b0316637158da7c6040518163ffffffff1660e01b815260040160206040518083038186803b158015620001a557600080fd5b505afa158015620001ba573d6000803e3d6000fd5b505050506040513d601f19601f82011682018060405250810190620001e091906200037d565b6001600160a01b031614620002095760405162461bcd60e51b8152600401620000b490620004cb565b600280546001600160a01b03808816610100908102610100600160a81b031990931692909217928390556001600160601b0319606087811b821660805285811b821660c05288811b821660a05286901b1660e052604080516307f07b1360e41b81529051929093041691637f07b130916004808301926020929190829003018186803b1580156200029957600080fd5b505afa158015620002ae573d6000803e3d6000fd5b505050506040513d601f19601f82011682018060405250810190620002d491906200037d565b60601b6001600160601b0319166101005260405163095ea7b360e01b81526001600160a01b0385169063095ea7b390620003179084906000199060040162000444565b602060405180830381600087803b1580156200033257600080fd5b505af115801562000347573d6000803e3d6000fd5b505050506040513d601f19601f820116820180604052508101906200036d919062000422565b505050505050620005cf565b3390565b6000602082840312156200038f578081fd5b81516200039c81620005b6565b9392505050565b600080600080600060a08688031215620003bb578081fd5b8551620003c881620005b6565b6020870151909550620003db81620005b6565b6040870151909450620003ee81620005b6565b60608701519093506200040181620005b6565b60808701519092506200041481620005b6565b809150509295509295909350565b60006020828403121562000434578081fd5b815180151581146200039c578182fd5b6001600160a01b03929092168252602082015260400190565b6020808252601d908201527f696e76616c6964205f65756c65724d61696e6e65742061646472657373000000604082015260600190565b60208082526017908201527f696e76616c6964205f64546f6b656e2061646472657373000000000000000000604082015260600190565b60208082526026908201527f64546f6b656e20756e6465726c79696e672061737365742073686f756c6420626040820152650ca40eecae8d60d31b606082015260800190565b6020808252601a908201527f696e76616c6964205f65756c6572457865632061646472657373000000000000604082015260600190565b60208082526017908201527f696e76616c6964205f6372616276312061646472657373000000000000000000604082015260600190565b60208082526015908201527f696e76616c6964205f7765746820616464726573730000000000000000000000604082015260600190565b6001600160a01b0381168114620005cc57600080fd5b50565b60805160601c60a05160601c60c05160601c60e05160601c6101005160601c6134e46200065a60003980611c175280611ef052806121945280612572528061261652806129b1525080610d915280610f29525080610d1f52508061015852806105575280610e155280610e995250806105eb52806108665280610be5528061139552506134e46000f3fe6080604052600436106101485760003560e01c8063a15db5c5116100c0578063cb9d1ab811610074578063db661b7111610059578063db661b71146103d2578063f2fde38b146103e7578063fe7dd6e414610407576101cf565b8063cb9d1ab814610392578063d2cebf9b146103b2576101cf565b8063bab89ea3116100a5578063bab89ea31461032d578063bbac0aca14610342578063bbca7f1e14610362576101cf565b8063a15db5c5146102eb578063b06faf621461030b576101cf565b8063715018a6116101175780638da5cb5b116100fc5780638da5cb5b146102965780638e953732146102ab578063a13d7b33146102cb576101cf565b8063715018a61461026c5780637fa8c37014610281576101cf565b8063139d3799146101d45780631d4dab2c146101f45780633fc8cef31461022a578063581e74781461024c576101cf565b366101cf57336001600160a01b037f0000000000000000000000000000000000000000000000000000000000000000161480610193575060025461010090046001600160a01b031633145b806101a857506003546001600160a01b031633145b6101cd5760405162461bcd60e51b81526004016101c490613230565b60405180910390fd5b005b600080fd5b3480156101e057600080fd5b506101cd6101ef366004612ff6565b61041c565b34801561020057600080fd5b5061021461020f366004612d22565b610543565b6040516102219190613343565b60405180910390f35b34801561023657600080fd5b5061023f610555565b60405161022191906130a6565b34801561025857600080fd5b506101cd610267366004612ff6565b610579565b34801561027857600080fd5b506101cd6106dc565b34801561028d57600080fd5b5061023f6107a7565b3480156102a257600080fd5b5061023f6107bb565b3480156102b757600080fd5b506101cd6102c636600461302e565b6107ca565b3480156102d757600080fd5b506101cd6102e6366004612fc6565b61095e565b3480156102f757600080fd5b506101cd610306366004612d9c565b610cec565b34801561031757600080fd5b50610320610f97565b6040516102219190613119565b34801561033957600080fd5b506101cd610fa0565b34801561034e57600080fd5b506101cd61035d366004612d22565b61109f565b34801561036e57600080fd5b5061038261037d366004612fc6565b611168565b6040516102219493929190613124565b34801561039e57600080fd5b506101cd6103ad366004612fc6565b611186565b3480156103be57600080fd5b506101cd6103cd366004612fc6565b611282565b3480156103de57600080fd5b5061023f611393565b3480156103f357600080fd5b506101cd610402366004612d22565b6113b7565b34801561041357600080fd5b5061023f6114d8565b60025460ff1661043e5760405162461bcd60e51b81526004016101c49061324c565b336000908152600160205260409020548084111561046e5760405162461bcd60e51b81526004016101c49061316b565b61047881856114e7565b3360009081526001602052604090819020919091556003549051630b52b7ff60e41b81526001600160a01b039091169063b52b7ff0906104c09087908790879060040161335f565b600060405180830381600087803b1580156104da57600080fd5b505af11580156104ee573d6000803e3d6000fd5b50505050336001600160a01b03167f38d6d922c6452f3aaf90ad851ed15eb4c5c613c745d0531cf4337c07de651bab8560405161052b9190613343565b60405180910390a261053d3347611545565b50505050565b60016020526000908152604090205481565b7f000000000000000000000000000000000000000000000000000000000000000081565b60025460ff1661059b5760405162461bcd60e51b81526004016101c49061324c565b60008060006105a98661162f565b50925092509250826105cd5760405162461bcd60e51b81526004016101c4906131bf565b60408051608081018252338152602081018490526001600160a01b037f000000000000000000000000000000000000000000000000000000000000000016916389b7b7a69130918101600160ff16815260200160405180608001604052808781526020018b81526020018c81526020018a62ffffff1681525060405160200161065691906132ce565b60408051601f1981840301815291815291525161067691906020016132fe565b6040516020818303038152906040526040518363ffffffff1660e01b81526004016106a29291906130de565b600060405180830381600087803b1580156106bc57600080fd5b505af11580156106d0573d6000803e3d6000fd5b50505050505050505050565b6106e46118d3565b6001600160a01b03166106f56107bb565b6001600160a01b031614610750576040805162461bcd60e51b815260206004820181905260248201527f4f776e61626c653a2063616c6c6572206973206e6f7420746865206f776e6572604482015290519081900360640190fd5b600080546040516001600160a01b03909116907f8be0079c531659141344cd1fd0a4f28419497f9722a3daafe3b4186f6b6457e0908390a36000805473ffffffffffffffffffffffffffffffffffffffff19169055565b60025461010090046001600160a01b031681565b6000546001600160a01b031690565b60025460ff166107ec5760405162461bcd60e51b81526004016101c49061324c565b6000806107f88761162f565b509250509150811561081c5760405162461bcd60e51b81526004016101c4906131f7565b60008511801561082c5750600084115b6108485760405162461bcd60e51b81526004016101c490613187565b60408051608081018252338152602081018790526001600160a01b037f000000000000000000000000000000000000000000000000000000000000000016916389b7b7a69130918101600260ff1681526020016040518060a001604052808781526020018c81526020018a81526020018d81526020018962ffffff168152506040516020016108d7919061328f565b60408051601f198184030181529181529152516108f791906020016132fe565b6040516020818303038152906040526040518363ffffffff1660e01b81526004016109239291906130de565b600060405180830381600087803b15801561093d57600080fd5b505af1158015610951573d6000803e3d6000fd5b5050505050505050505050565b6109666118d3565b6001600160a01b03166109776107bb565b6001600160a01b0316146109d2576040805162461bcd60e51b815260206004820181905260248201527f4f776e61626c653a2063616c6c6572206973206e6f7420746865206f776e6572604482015290519081900360640190fd5b6003546001600160a01b03166109fa5760405162461bcd60e51b81526004016101c490613268565b60025460ff1615610a1d5760405162461bcd60e51b81526004016101c490613214565b6002805460ff1916600117908190556040516370a0823160e01b81526000916001600160a01b0361010090910416906370a0823190610a609030906004016130a6565b60206040518083038186803b158015610a7857600080fd5b505afa158015610a8c573d6000803e3d6000fd5b505050506040513d601f19601f82011682018060405250810190610ab09190612fde565b90506000600260019054906101000a90046001600160a01b03166001600160a01b03166318160ddd6040518163ffffffff1660e01b815260040160206040518083038186803b158015610b0257600080fd5b505afa158015610b16573d6000803e3d6000fd5b505050506040513d601f19601f82011682018060405250810190610b3a9190612fde565b90506000600260019054906101000a90046001600160a01b03166001600160a01b031663533092ef6040518163ffffffff1660e01b815260040160806040518083038186803b158015610b8c57600080fd5b505afa158015610ba0573d6000803e3d6000fd5b505050506040513d601f19601f82011682018060405250810190610bc49190612d3e565b50925060009150610be19050610bda85856118d7565b8390611908565b90507f00000000000000000000000000000000000000000000000000000000000000006001600160a01b03166389b7b7a6306040518060800160405280336001600160a01b0316815260200185815260200160006002811115610c4057fe5b60ff16815260200160405180602001604052808b815250604051602001610c679190613285565b60408051601f19818403018152918152915251610c8791906020016132fe565b6040516020818303038152906040526040518363ffffffff1660e01b8152600401610cb39291906130de565b600060405180830381600087803b158015610ccd57600080fd5b505af1158015610ce1573d6000803e3d6000fd5b505050505050505050565b6003546001600160a01b0316610d145760405162461bcd60e51b81526004016101c490613268565b336001600160a01b037f00000000000000000000000000000000000000000000000000000000000000001614610d5c5760405162461bcd60e51b81526004016101c4906131a3565b600081806020019051810190610d729190612f1f565b6020810151604051630ecbcdab60e01b81529192506001600160a01b037f00000000000000000000000000000000000000000000000000000000000000001691630ecbcdab91610dc89160009190600401613141565b600060405180830381600087803b158015610de257600080fd5b505af1158015610df6573d6000803e3d6000fd5b5050506020820151604051632e1a7d4d60e01b81526001600160a01b037f0000000000000000000000000000000000000000000000000000000000000000169250632e1a7d4d91610e4991600401613343565b600060405180830381600087803b158015610e6357600080fd5b505af1158015610e77573d6000803e3d6000fd5b50505050610e978160000151826020015183604001518460600151611930565b7f00000000000000000000000000000000000000000000000000000000000000006001600160a01b031663d0e30db082602001516040518263ffffffff1660e01b81526004016000604051808303818588803b158015610ef657600080fd5b505af1158015610f0a573d6000803e3d6000fd5b505050602083015160405163d8aed14560e01b81526001600160a01b037f000000000000000000000000000000000000000000000000000000000000000016935063d8aed1459250610f6191600091600401613141565b600060405180830381600087803b158015610f7b57600080fd5b505af1158015610f8f573d6000803e3d6000fd5b505050505050565b60025460ff1681565b60025460ff16610fc25760405162461bcd60e51b81526004016101c49061324c565b336000818152600160205260408082208054929055600354905163a9059cbb60e01b815291926001600160a01b039091169163a9059cbb91611008918590600401613100565b602060405180830381600087803b15801561102257600080fd5b505af1158015611036573d6000803e3d6000fd5b505050506040513d601f19601f8201168201806040525081019061105a9190612d7c565b50336001600160a01b03167f0adef25f8a7a2d6f3fb9761ba0c96c9752b6d985abd47e23b7fa3095ba8e4701826040516110949190613343565b60405180910390a250565b6110a76118d3565b6001600160a01b03166110b86107bb565b6001600160a01b031614611113576040805162461bcd60e51b815260206004820181905260248201527f4f776e61626c653a2063616c6c6572206973206e6f7420746865206f776e6572604482015290519081900360640190fd5b6001600160a01b0381166111395760405162461bcd60e51b81526004016101c4906131db565b6003805473ffffffffffffffffffffffffffffffffffffffff19166001600160a01b0392909216919091179055565b6000806000806111778561162f565b93509350935093509193509193565b60025460ff16156111a95760405162461bcd60e51b81526004016101c490613214565b336000818152600160205260409081902080548401905560025490516323b872dd60e01b81526101009091046001600160a01b0316916323b872dd916111f69190309086906004016130ba565b602060405180830381600087803b15801561121057600080fd5b505af1158015611224573d6000803e3d6000fd5b505050506040513d601f19601f820116820180604052508101906112489190612d7c565b50336001600160a01b03167fcbfc37edaa5ac30951b21b47b70bbb70dd1e015fa918da25d516798c6a2622e8826040516110949190613343565b60025460ff16156112a55760405162461bcd60e51b81526004016101c490613214565b336000908152600160205260409020546112bf90826114e7565b336000818152600160205260409081902092909255600254915163a9059cbb60e01b81526101009092046001600160a01b03169163a9059cbb91611307918590600401613100565b602060405180830381600087803b15801561132157600080fd5b505af1158015611335573d6000803e3d6000fd5b505050506040513d601f19601f820116820180604052508101906113599190612d7c565b50336001600160a01b03167ffdef8f0daac171c9b3f7896ae8991c11b88b64b1b76b574d8189dcd0357e5f6e826040516110949190613343565b7f000000000000000000000000000000000000000000000000000000000000000081565b6113bf6118d3565b6001600160a01b03166113d06107bb565b6001600160a01b03161461142b576040805162461bcd60e51b815260206004820181905260248201527f4f776e61626c653a2063616c6c6572206973206e6f7420746865206f776e6572604482015290519081900360640190fd5b6001600160a01b0381166114705760405162461bcd60e51b815260040180806020018281038252602681526020018061344f6026913960400191505060405180910390fd5b600080546040516001600160a01b03808516939216917f8be0079c531659141344cd1fd0a4f28419497f9722a3daafe3b4186f6b6457e091a36000805473ffffffffffffffffffffffffffffffffffffffff19166001600160a01b0392909216919091179055565b6003546001600160a01b031681565b8082038281111561153f576040805162461bcd60e51b815260206004820152601560248201527f64732d6d6174682d7375622d756e646572666c6f770000000000000000000000604482015290519081900360640190fd5b92915050565b8047101561159a576040805162461bcd60e51b815260206004820152601d60248201527f416464726573733a20696e73756666696369656e742062616c616e6365000000604482015290519081900360640190fd5b6040516000906001600160a01b0384169083908381818185875af1925050503d80600081146115e5576040519150601f19603f3d011682016040523d82523d6000602084013e6115ea565b606091505b505090508061162a5760405162461bcd60e51b815260040180806020018281038252603a815260200180613475603a913960400191505060405180910390fd5b505050565b600080600080600080600260019054906101000a90046001600160a01b03166001600160a01b031663533092ef6040518163ffffffff1660e01b815260040160806040518083038186803b15801561168657600080fd5b505afa15801561169a573d6000803e3d6000fd5b505050506040513d601f19601f820116820180604052508101906116be9190612d3e565b935093505050600080600360009054906101000a90046001600160a01b03166001600160a01b031663533092ef6040518163ffffffff1660e01b815260040160806040518083038186803b15801561171557600080fd5b505afa158015611729573d6000803e3d6000fd5b505050506040513d601f19601f8201168201806040525081019061174d9190612d3e565b93509350505060006117ee600260019054906101000a90046001600160a01b03166001600160a01b03166318160ddd6040518163ffffffff1660e01b815260040160206040518083038186803b1580156117a657600080fd5b505afa1580156117ba573d6000803e3d6000fd5b505050506040513d601f19601f820116820180604052508101906117de9190612fde565b6117e8868d611908565b906118d7565b90506000633b9aca006118158161180f86611809878a611908565b90612b43565b90612b5f565b8161181c57fe5b04905060006118bb876118b5600260019054906101000a90046001600160a01b03166001600160a01b03166318160ddd6040518163ffffffff1660e01b815260040160206040518083038186803b15801561187657600080fd5b505afa15801561188a573d6000803e3d6000fd5b505050506040513d601f19601f820116820180604052508101906118ae9190612fde565b8f906118d7565b90611908565b808311159d929c50929a509198509650505050505050565b3390565b6000816118f96118ef85670de0b6b3a7640000612b8e565b6002855b04612bfa565b8161190057fe5b049392505050565b6000670de0b6b3a76400006118f96119208585612b8e565b6002670de0b6b3a76400006118f3565b60008260ff16600281111561194157fe5b600281111561194c57fe5b1415611d1f576000818060200190518101906119689190612e10565b6002546040516370a0823160e01b81529192506000916101009091046001600160a01b0316906370a08231906119a29030906004016130a6565b60206040518083038186803b1580156119ba57600080fd5b505afa1580156119ce573d6000803e3d6000fd5b505050506040513d601f19601f820116820180604052508101906119f29190612fde565b60025460405163f73e19c360e01b81529192506000916101009091046001600160a01b03169063f73e19c390611a2c908590600401613343565b60206040518083038186803b158015611a4457600080fd5b505afa158015611a58573d6000803e3d6000fd5b505050506040513d601f19601f82011682018060405250810190611a7c9190612fde565b90506000600260019054906101000a90046001600160a01b03166001600160a01b03166367b8c3456040518163ffffffff1660e01b815260040160206040518083038186803b158015611ace57600080fd5b505afa158015611ae2573d6000803e3d6000fd5b505050506040513d601f19601f82011682018060405250810190611b069190612fde565b90506000600260019054906101000a90046001600160a01b03166001600160a01b03166363bbc4b66040518163ffffffff1660e01b815260040160206040518083038186803b158015611b5857600080fd5b505afa158015611b6c573d6000803e3d6000fd5b505050506040513d601f19601f82011682018060405250810190611b909190612fde565b6003548651604051631b9756c160e31b81529293506001600160a01b039091169163dcbab608918b91611bce9188918a918991899190600401613390565b6000604051808303818588803b158015611be757600080fd5b505af1158015611bfb573d6000803e3d6000fd5b505060025460405163095ea7b360e01b81526001600160a01b037f00000000000000000000000000000000000000000000000000000000000000008116955063095ea7b39450611c5c93506101009092049091169060001990600401613100565b602060405180830381600087803b158015611c7657600080fd5b505af1158015611c8a573d6000803e3d6000fd5b505050506040513d601f19601f82011682018060405250810190611cae9190612d7c565b50600254604051632e1a7d4d60e01b81526101009091046001600160a01b031690632e1a7d4d90611ce3908790600401613343565b600060405180830381600087803b158015611cfd57600080fd5b505af1158015611d11573d6000803e3d6000fd5b50505050505050505061053d565b60018260ff166002811115611d3057fe5b6002811115611d3b57fe5b1415612317576003546040516370a0823160e01b81526000916001600160a01b0316906370a0823190611d729030906004016130a6565b60206040518083038186803b158015611d8a57600080fd5b505afa158015611d9e573d6000803e3d6000fd5b505050506040513d601f19601f82011682018060405250810190611dc29190612fde565b9050600082806020019051810190611dda9190612eba565b9050600360009054906101000a90046001600160a01b03166001600160a01b031663d0e30db0866040518263ffffffff1660e01b81526004016000604051808303818588803b158015611e2c57600080fd5b505af1158015611e40573d6000803e3d6000fd5b505060025460408581015190516323b872dd60e01b81526101009092046001600160a01b031694506323b872dd9350611e8192508a913091906004016130ba565b602060405180830381600087803b158015611e9b57600080fd5b505af1158015611eaf573d6000803e3d6000fd5b505050506040513d601f19601f82011682018060405250810190611ed39190612d7c565b50600254815160405163095ea7b360e01b81526001600160a01b037f000000000000000000000000000000000000000000000000000000000000000081169363095ea7b393611f2f936101009092049092169190600401613100565b602060405180830381600087803b158015611f4957600080fd5b505af1158015611f5d573d6000803e3d6000fd5b505050506040513d601f19601f82011682018060405250810190611f819190612d7c565b506002546040828101519051632e1a7d4d60e01b81526101009092046001600160a01b031691632e1a7d4d91611fb991600401613343565b600060405180830381600087803b158015611fd357600080fd5b505af1158015611fe7573d6000803e3d6000fd5b5050505060208101511561206a576003546001600160a01b031663fc5b73ff61201047886114e7565b836020015184606001516040518463ffffffff1660e01b815260040161203792919061334c565b6000604051808303818588803b15801561205057600080fd5b505af1158015612064573d6000803e3d6000fd5b50505050505b6003546040516370a0823160e01b81526000916120f79185916001600160a01b0316906370a08231906120a19030906004016130a6565b60206040518083038186803b1580156120b957600080fd5b505afa1580156120cd573d6000803e3d6000fd5b505050506040513d601f19601f820116820180604052508101906120f19190612fde565b906114e7565b60035460405163a9059cbb60e01b81529192506001600160a01b03169063a9059cbb9061212a908a908590600401613100565b602060405180830381600087803b15801561214457600080fd5b505af1158015612158573d6000803e3d6000fd5b505050506040513d601f19601f8201168201806040525081019061217c9190612d7c565b506040516370a0823160e01b81526001600160a01b037f0000000000000000000000000000000000000000000000000000000000000000169063a9059cbb90899083906370a08231906121d39030906004016130a6565b60206040518083038186803b1580156121eb57600080fd5b505afa1580156121ff573d6000803e3d6000fd5b505050506040513d601f19601f820116820180604052508101906122239190612fde565b6040518363ffffffff1660e01b8152600401612240929190613100565b602060405180830381600087803b15801561225a57600080fd5b505af115801561226e573d6000803e3d6000fd5b505050506040513d601f19601f820116820180604052508101906122929190612d7c565b50604082015147906001600160a01b038916907fa1b94934d9119aa101df2e94f736d2cff64c4d7db8706c9b5bb1ffa265842f8990846122d2858c6114e7565b6040516122e19392919061337a565b60405180910390a28681111561230e5761230e6122fe82896114e7565b6001600160a01b038a1690611545565b5050505061053d565b60028260ff16600281111561232857fe5b600281111561233357fe5b141561053d576003546040516370a0823160e01b81526000916001600160a01b0316906370a082319061236a9030906004016130a6565b60206040518083038186803b15801561238257600080fd5b505afa158015612396573d6000803e3d6000fd5b505050506040513d601f19601f820116820180604052508101906123ba9190612fde565b90506000828060200190518101906123d29190612e4b565b90506000600260019054906101000a90046001600160a01b03166001600160a01b031663533092ef6040518163ffffffff1660e01b815260040160806040518083038186803b15801561242457600080fd5b505afa158015612438573d6000803e3d6000fd5b505050506040513d601f19601f8201168201806040525081019061245c9190612d3e565b60025460608701516040516323b872dd60e01b81529296506101009091046001600160a01b031694506323b872dd935061249e92508b913091906004016130ba565b602060405180830381600087803b1580156124b857600080fd5b505af11580156124cc573d6000803e3d6000fd5b505050506040513d601f19601f820116820180604052508101906124f09190612d7c565b50600360009054906101000a90046001600160a01b03166001600160a01b031663d0e30db0876040518263ffffffff1660e01b81526004016000604051808303818588803b15801561254157600080fd5b505af1158015612555573d6000803e3d6000fd5b50506040516370a0823160e01b8152600093506001600160a01b037f00000000000000000000000000000000000000000000000000000000000000001692506370a0823191506125a99030906004016130a6565b60206040518083038186803b1580156125c157600080fd5b505afa1580156125d5573d6000803e3d6000fd5b505050506040513d601f19601f820116820180604052508101906125f99190612fde565b60025460405163095ea7b360e01b81529192506001600160a01b037f000000000000000000000000000000000000000000000000000000000000000081169263095ea7b3926126549261010090910416908590600401613100565b602060405180830381600087803b15801561266e57600080fd5b505af1158015612682573d6000803e3d6000fd5b505050506040513d601f19601f820116820180604052508101906126a69190612d7c565b50600061273d83611809600260019054906101000a90046001600160a01b03166001600160a01b03166318160ddd6040518163ffffffff1660e01b815260040160206040518083038186803b1580156126fe57600080fd5b505afa158015612712573d6000803e3d6000fd5b505050506040513d601f19601f820116820180604052508101906127369190612fde565b8590611908565b90506000633b9aca006127508382612c52565b8161275757fe5b600254604051632e1a7d4d60e01b815292909104925061010090046001600160a01b031690632e1a7d4d90612790908490600401613343565b600060405180830381600087803b1580156127aa57600080fd5b505af11580156127be573d6000803e3d6000fd5b505060025460608801516101009091046001600160a01b031692506323ccafd991506127ea90846114e7565b87604001516040518363ffffffff1660e01b815260040161280c929190613141565b600060405180830381600087803b15801561282657600080fd5b505af115801561283a573d6000803e3d6000fd5b505050508847101561285e5760405162461bcd60e51b81526004016101c49061314f565b6020850151156128dd576003546001600160a01b031663fc5b73ff612883478c6114e7565b876020015188608001516040518463ffffffff1660e01b81526004016128aa92919061334c565b6000604051808303818588803b1580156128c357600080fd5b505af11580156128d7573d6000803e3d6000fd5b50505050505b6003546040516370a0823160e01b81526000916129149189916001600160a01b0316906370a08231906120a19030906004016130a6565b60035460405163a9059cbb60e01b81529192506001600160a01b03169063a9059cbb90612947908e908590600401613100565b602060405180830381600087803b15801561296157600080fd5b505af1158015612975573d6000803e3d6000fd5b505050506040513d601f19601f820116820180604052508101906129999190612d7c565b506040516370a0823160e01b81526001600160a01b037f0000000000000000000000000000000000000000000000000000000000000000169063a9059cbb908d9083906370a08231906129f09030906004016130a6565b60206040518083038186803b158015612a0857600080fd5b505afa158015612a1c573d6000803e3d6000fd5b505050506040513d601f19601f82011682018060405250810190612a409190612fde565b6040518363ffffffff1660e01b8152600401612a5d929190613100565b602060405180830381600087803b158015612a7757600080fd5b505af1158015612a8b573d6000803e3d6000fd5b505050506040513d601f19601f82011682018060405250810190612aaf9190612d7c565b5060004790508b6001600160a01b03167fa1b94934d9119aa101df2e94f736d2cff64c4d7db8706c9b5bb1ffa265842f89886060015184612af98f866114e790919063ffffffff16565b604051612b089392919061337a565b60405180910390a28a811115612b3557612b35612b25828d6114e7565b6001600160a01b038e1690611545565b505050505050505050505050565b6000816118f96118ef856b033b2e3c9fd0803ce8000000612b8e565b6000612b87612b81612b7b612b748686612bfa565b60016114e7565b84612c5d565b83612b8e565b9392505050565b6000811580612ba957505080820282828281612ba657fe5b04145b61153f576040805162461bcd60e51b815260206004820152601460248201527f64732d6d6174682d6d756c2d6f766572666c6f77000000000000000000000000604482015290519081900360640190fd5b8082018281101561153f576040805162461bcd60e51b815260206004820152601460248201527f64732d6d6174682d6164642d6f766572666c6f77000000000000000000000000604482015290519081900360640190fd5b6000612b87612b8184845b6000808211612cb3576040805162461bcd60e51b815260206004820152601a60248201527f536166654d6174683a206469766973696f6e206279207a65726f000000000000604482015290519081900360640190fd5b81838161190057fe5b600082601f830112612ccc578081fd5b8151612cdf612cda826133d7565b6133b3565b818152846020838601011115612cf3578283fd5b612d048260208301602087016133f9565b949350505050565b805160ff81168114612d1d57600080fd5b919050565b600060208284031215612d33578081fd5b8135612b8781613425565b60008060008060808587031215612d53578283fd5b8451612d5e81613425565b60208601516040870151606090970151919890975090945092505050565b600060208284031215612d8d578081fd5b81518015158114612b87578182fd5b600060208284031215612dad578081fd5b813567ffffffffffffffff811115612dc3578182fd5b8201601f81018413612dd3578182fd5b8035612de1612cda826133d7565b818152856020838501011115612df5578384fd5b81602084016020830137908101602001929092525092915050565b600060208284031215612e21578081fd5b6040516020810181811067ffffffffffffffff82111715612e3e57fe5b6040529151825250919050565b600060a08284031215612e5c578081fd5b60405160a0810181811067ffffffffffffffff82111715612e7957fe5b8060405250825181526020830151602082015260408301516040820152606083015160608201526080830151612eae8161343d565b60808201529392505050565b600060808284031215612ecb578081fd5b6040516080810181811067ffffffffffffffff82111715612ee857fe5b80604052508251815260208301516020820152604083015160408201526060830151612f138161343d565b60608201529392505050565b600060208284031215612f30578081fd5b815167ffffffffffffffff80821115612f47578283fd5b9083019060808286031215612f5a578283fd5b604051608081018181108382111715612f6f57fe5b6040528251612f7d81613425565b815260208381015190820152612f9560408401612d0c565b6040820152606083015182811115612fab578485fd5b612fb787828601612cbc565b60608301525095945050505050565b600060208284031215612fd7578081fd5b5035919050565b600060208284031215612fef578081fd5b5051919050565b60008060006060848603121561300a578081fd5b833592506020840135915060408401356130238161343d565b809150509250925092565b600080600080600060a08688031215613045578283fd5b85359450602086013593506040860135925060608601359150608086013561306c8161343d565b809150509295509295909350565b600081518084526130928160208601602086016133f9565b601f01601f19169290920160200192915050565b6001600160a01b0391909116815260200190565b6001600160a01b039384168152919092166020820152604081019190915260600190565b60006001600160a01b038416825260406020830152612d04604083018461307a565b6001600160a01b03929092168252602082015260400190565b901515815260200190565b931515845260208401929092526040830152606082015260800190565b918252602082015260400190565b602080825260029082015261269b60f11b604082015260600190565b6020808252600290820152614d3560f01b604082015260600190565b60208082526002908201526109a760f31b604082015260600190565b6020808252600290820152614d3360f01b604082015260600190565b6020808252600290820152614d3960f01b604082015260600190565b6020808252600290820152614d3760f01b604082015260600190565b60208082526003908201526204d31360ec1b604082015260600190565b6020808252600290820152614d3160f01b604082015260600190565b602080825260029082015261134d60f21b604082015260600190565b602080825260029082015261269960f11b604082015260600190565b6020808252600390820152624d313160e81b604082015260600190565b9051815260200190565b600060a0820190508251825260208301516020830152604083015160408301526060830151606083015262ffffff608084015116608083015292915050565b81518152602080830151908201526040808301519082015260609182015162ffffff169181019190915260800190565b6000602082526001600160a01b0383511660208301526020830151604083015260ff60408401511660608301526060830151608080840152612d0460a084018261307a565b90815260200190565b91825262ffffff16602082015260400190565b928352602083019190915262ffffff16604082015260600190565b9283526020830191909152604082015260600190565b948552602085019390935260408401919091526060830152608082015260a00190565b60405181810167ffffffffffffffff811182821017156133cf57fe5b604052919050565b600067ffffffffffffffff8211156133eb57fe5b50601f01601f191660200190565b60005b838110156134145781810151838201526020016133fc565b8381111561053d5750506000910152565b6001600160a01b038116811461343a57600080fd5b50565b62ffffff8116811461343a57600080fdfe4f776e61626c653a206e6577206f776e657220697320746865207a65726f2061646472657373416464726573733a20756e61626c6520746f2073656e642076616c75652c20726563697069656e74206d61792068617665207265766572746564a26469706673582212207966a8d1a64f3eebd4cdd5a263bc2934c3f304d935a1b2eaf5f4667b66aa9f7a64736f6c63430007060033",
  "devdoc": {
    "author": "Opyn team",
    "details": "CrabMigration contract",
    "kind": "dev",
    "methods": {
      "batchMigrate(uint256)": {
        "params": {
          "_strategyCap": "strategy cap in ETH"
        }
      },
      "claimAndWithdraw(uint256,uint256,uint24)": {
        "params": {
          "_amountToWithdraw": "V2 shares to claim",
          "_maxEthToPay": "maximum ETH to pay to buy back the owed wSqueeth debt",
          "_poolFee": "Uniswap pool fee for flash withdraw"
        }
      },
      "constructor": {
        "params": {
          "_crabV1": "address of crab V1",
          "_dToken": "address of euler liability token",
          "_eulerExec": "address of euler exec contract",
          "_eulerMainnet": "address of euler deployment on mainnet",
          "_weth": "address of weth"
        }
      },
      "depositV1Shares(uint256)": {
        "params": {
          "_amount": "amount of crabV1 shares to deposit"
        }
      },
      "flashMigrateAndWithdrawFromV1toV2(uint256,uint256,uint256,uint256,uint24)": {
        "params": {
          "_ethToBorrow": "amount to flash loan to deposit in crab v2",
          "_ethToFlashDeposit": "flash deposit amount in crab v2 with excess ETH (if 0 will returned to sender)",
          "_poolFee": "uniswap pool fee for the optional flash deposit into crab v2",
          "_v1Shares": "V1 shares to migrate",
          "_withdrawMaxEthToPay": "maximum ETH to pay to buy back the owed wSqueeth debt"
        }
      },
      "flashMigrateFromV1toV2(uint256,uint256,uint24)": {
        "params": {
          "_ethToFlashDeposit": "flash deposit amount in crab v2 with excess ETH (if 0 will return to sender)",
          "_poolFee": "uniswap pool fee for flash deposit",
          "_v1Shares": "V1 shares to migrate"
        }
      },
      "flashMigrationDetails(uint256)": {
        "params": {
          "_v1Shares": "amount of crab V1 shares"
        }
      },
      "onDeferredLiquidityCheck(bytes)": {
        "params": {
          "encodedData": "callback data"
        }
      },
      "owner()": {
        "details": "Returns the address of the current owner."
      },
      "renounceOwnership()": {
        "details": "Leaves the contract without owner. It will not be possible to call `onlyOwner` functions anymore. Can only be called by the current owner. NOTE: Renouncing ownership will leave the contract without an owner, thereby removing any functionality that is only available to the owner."
      },
      "setCrabV2(address)": {
        "params": {
          "_crabV2": "address of crab V2"
        }
      },
      "transferOwnership(address)": {
        "details": "Transfers ownership of the contract to a new account (`newOwner`). Can only be called by the current owner."
      },
      "withdrawV1Shares(uint256)": {
        "params": {
          "_amount": "amount of V1 shares to withdraw"
        }
      }
    },
    "version": 1
  },
  "userdoc": {
    "kind": "user",
    "methods": {
      "batchMigrate(uint256)": {
        "notice": "the owner batch migrates all the crab V1 shares in this contract to crab V2 and initializes the V2 contract at the same collateral ratio as the V1 contract"
      },
      "claimAndWithdraw(uint256,uint256,uint24)": {
        "notice": "claim crab V2 shares and flash withdraw from crab V2"
      },
      "claimV2Shares()": {
        "notice": "claim crab V2 shares"
      },
      "constructor": {
        "notice": "migration constructor"
      },
      "depositV1Shares(uint256)": {
        "notice": "deposit crab V1 shares in the pool for migration"
      },
      "flashMigrateAndWithdrawFromV1toV2(uint256,uint256,uint256,uint256,uint24)": {
        "notice": "used to migrate from crab V1 to crab V2 when CR1 < CR2"
      },
      "flashMigrateFromV1toV2(uint256,uint256,uint24)": {
        "notice": "used to migrate from crab V1 to crab V2 when CR1 >= CR2"
      },
      "flashMigrationDetails(uint256)": {
        "notice": "view details of flash migration for specified amount of V1 shares"
      },
      "onDeferredLiquidityCheck(bytes)": {
        "notice": "Euler callback function"
      },
      "setCrabV2(address)": {
        "notice": "set the crabV2 address"
      },
      "withdrawV1Shares(uint256)": {
        "notice": "withdraw crab V1 shares in the pool before migration"
      }
    },
    "notice": "Contract for Migrating from Crab V1 to Crab V2",
    "version": 1
  },
  "storageLayout": {
    "storage": [
      {
        "astId": 7,
        "contract": "contracts/strategy/CrabMigration.sol:CrabMigration",
        "label": "_owner",
        "offset": 0,
        "slot": "0",
        "type": "t_address"
      },
      {
        "astId": 21326,
        "contract": "contracts/strategy/CrabMigration.sol:CrabMigration",
        "label": "sharesDeposited",
        "offset": 0,
        "slot": "1",
        "type": "t_mapping(t_address,t_uint256)"
      },
      {
        "astId": 21328,
        "contract": "contracts/strategy/CrabMigration.sol:CrabMigration",
        "label": "isMigrated",
        "offset": 0,
        "slot": "2",
        "type": "t_bool"
      },
      {
        "astId": 21330,
        "contract": "contracts/strategy/CrabMigration.sol:CrabMigration",
        "label": "crabV1",
        "offset": 1,
        "slot": "2",
        "type": "t_address_payable"
      },
      {
        "astId": 21332,
        "contract": "contracts/strategy/CrabMigration.sol:CrabMigration",
        "label": "crabV2",
        "offset": 0,
        "slot": "3",
        "type": "t_address_payable"
      }
    ],
    "types": {
      "t_address": {
        "encoding": "inplace",
        "label": "address",
        "numberOfBytes": "20"
      },
      "t_address_payable": {
        "encoding": "inplace",
        "label": "address payable",
        "numberOfBytes": "20"
      },
      "t_bool": {
        "encoding": "inplace",
        "label": "bool",
        "numberOfBytes": "1"
      },
      "t_mapping(t_address,t_uint256)": {
        "encoding": "mapping",
        "key": "t_address",
        "label": "mapping(address => uint256)",
        "numberOfBytes": "32",
        "value": "t_uint256"
      },
      "t_uint256": {
        "encoding": "inplace",
        "label": "uint256",
        "numberOfBytes": "32"
      }
    }
  }
}