{
  "address": "0x909563E976ec6EfD2FbDC14A69A84372D80C3183",
  "abi": [
    {
      "inputs": [
        {
          "internalType": "address",
          "name": "_wSqueethController",
          "type": "address"
        },
        {
          "internalType": "address",
          "name": "_oracle",
          "type": "address"
        },
        {
          "internalType": "address",
          "name": "_weth",
          "type": "address"
        },
        {
          "internalType": "address",
          "name": "_uniswapFactory",
          "type": "address"
        },
        {
          "internalType": "address",
          "name": "_ethWSqueethPool",
          "type": "address"
        },
        {
          "internalType": "address",
          "name": "_timelock",
          "type": "address"
        },
        {
          "internalType": "address",
          "name": "_crabMigration",
          "type": "address"
        },
        {
          "internalType": "uint256",
          "name": "_hedgeTimeThreshold",
          "type": "uint256"
        },
        {
          "internalType": "uint256",
          "name": "_hedgePriceThreshold",
          "type": "uint256"
        }
      ],
      "stateMutability": "nonpayable",
      "type": "constructor"
    },
    {
      "anonymous": false,
      "inputs": [
        {
          "indexed": true,
          "internalType": "address",
          "name": "owner",
          "type": "address"
        },
        {
          "indexed": true,
          "internalType": "address",
          "name": "spender",
          "type": "address"
        },
        {
          "indexed": false,
          "internalType": "uint256",
          "name": "value",
          "type": "uint256"
        }
      ],
      "name": "Approval",
      "type": "event"
    },
    {
      "anonymous": false,
      "inputs": [
        {
          "indexed": true,
          "internalType": "address",
          "name": "depositor",
          "type": "address"
        },
        {
          "indexed": false,
          "internalType": "uint256",
          "name": "wSqueethAmount",
          "type": "uint256"
        },
        {
          "indexed": false,
          "internalType": "uint256",
          "name": "lpAmount",
          "type": "uint256"
        }
      ],
      "name": "Deposit",
      "type": "event"
    },
    {
      "anonymous": false,
      "inputs": [
        {
          "indexed": true,
          "internalType": "address",
          "name": "depositor",
          "type": "address"
        },
        {
          "indexed": false,
          "internalType": "uint256",
          "name": "depositedAmount",
          "type": "uint256"
        },
        {
          "indexed": false,
          "internalType": "uint256",
          "name": "tradedAmountOut",
          "type": "uint256"
        }
      ],
      "name": "FlashDeposit",
      "type": "event"
    },
    {
      "anonymous": false,
      "inputs": [
        {
          "indexed": true,
          "internalType": "address",
          "name": "depositor",
          "type": "address"
        },
        {
          "indexed": false,
          "internalType": "uint256",
          "name": "flashswapDebt",
          "type": "uint256"
        },
        {
          "indexed": false,
          "internalType": "uint256",
          "name": "excess",
          "type": "uint256"
        }
      ],
      "name": "FlashDepositCallback",
      "type": "event"
    },
    {
      "anonymous": false,
      "inputs": [
        {
          "indexed": true,
          "internalType": "address",
          "name": "withdrawer",
          "type": "address"
        },
        {
          "indexed": false,
          "internalType": "uint256",
          "name": "crabAmount",
          "type": "uint256"
        },
        {
          "indexed": false,
          "internalType": "uint256",
          "name": "wSqueethAmount",
          "type": "uint256"
        }
      ],
      "name": "FlashWithdraw",
      "type": "event"
    },
    {
      "anonymous": false,
      "inputs": [
        {
          "indexed": true,
          "internalType": "address",
          "name": "withdrawer",
          "type": "address"
        },
        {
          "indexed": false,
          "internalType": "uint256",
          "name": "flashswapDebt",
          "type": "uint256"
        },
        {
          "indexed": false,
          "internalType": "uint256",
          "name": "excess",
          "type": "uint256"
        }
      ],
      "name": "FlashWithdrawCallback",
      "type": "event"
    },
    {
      "anonymous": false,
      "inputs": [
        {
          "indexed": false,
          "internalType": "address",
          "name": "trader",
          "type": "address"
        },
        {
          "indexed": false,
          "internalType": "uint256",
          "name": "quantity",
          "type": "uint256"
        },
        {
          "indexed": false,
          "internalType": "uint256",
          "name": "price",
          "type": "uint256"
        },
        {
          "indexed": false,
          "internalType": "bool",
          "name": "isBuying",
          "type": "bool"
        },
        {
          "indexed": false,
          "internalType": "uint256",
          "name": "clearingPrice",
          "type": "uint256"
        }
      ],
      "name": "HedgeOTC",
      "type": "event"
    },
    {
      "anonymous": false,
      "inputs": [
        {
          "indexed": true,
          "internalType": "address",
          "name": "previousOwner",
          "type": "address"
        },
        {
          "indexed": true,
          "internalType": "address",
          "name": "newOwner",
          "type": "address"
        }
      ],
      "name": "OwnershipTransferred",
      "type": "event"
    },
    {
      "anonymous": false,
      "inputs": [
        {
          "indexed": false,
          "internalType": "uint256",
          "name": "newHedgePriceThreshold",
          "type": "uint256"
        }
      ],
      "name": "SetHedgePriceThreshold",
      "type": "event"
    },
    {
      "anonymous": false,
      "inputs": [
        {
          "indexed": false,
          "internalType": "uint256",
          "name": "newHedgeTimeThreshold",
          "type": "uint256"
        }
      ],
      "name": "SetHedgeTimeThreshold",
      "type": "event"
    },
    {
      "anonymous": false,
      "inputs": [
        {
          "indexed": false,
          "internalType": "uint32",
          "name": "newHedgingTwapPeriod",
          "type": "uint32"
        }
      ],
      "name": "SetHedgingTwapPeriod",
      "type": "event"
    },
    {
      "anonymous": false,
      "inputs": [
        {
          "indexed": false,
          "internalType": "uint256",
          "name": "otcPriceTolerance",
          "type": "uint256"
        }
      ],
      "name": "SetOTCPriceTolerance",
      "type": "event"
    },
    {
      "anonymous": false,
      "inputs": [
        {
          "indexed": false,
          "internalType": "uint256",
          "name": "newCapAmount",
          "type": "uint256"
        }
      ],
      "name": "SetStrategyCap",
      "type": "event"
    },
    {
      "anonymous": false,
      "inputs": [
        {
          "indexed": true,
          "internalType": "address",
          "name": "from",
          "type": "address"
        },
        {
          "indexed": true,
          "internalType": "address",
          "name": "to",
          "type": "address"
        },
        {
          "indexed": false,
          "internalType": "uint256",
          "name": "value",
          "type": "uint256"
        }
      ],
      "name": "Transfer",
      "type": "event"
    },
    {
      "anonymous": false,
      "inputs": [
        {
          "indexed": true,
          "internalType": "address",
          "name": "newStrategy",
          "type": "address"
        },
        {
          "indexed": false,
          "internalType": "uint256",
          "name": "vaultId",
          "type": "uint256"
        }
      ],
      "name": "VaultTransferred",
      "type": "event"
    },
    {
      "anonymous": false,
      "inputs": [
        {
          "indexed": true,
          "internalType": "address",
          "name": "withdrawer",
          "type": "address"
        },
        {
          "indexed": false,
          "internalType": "uint256",
          "name": "crabAmount",
          "type": "uint256"
        },
        {
          "indexed": false,
          "internalType": "uint256",
          "name": "wSqueethAmount",
          "type": "uint256"
        },
        {
          "indexed": false,
          "internalType": "uint256",
          "name": "ethWithdrawn",
          "type": "uint256"
        }
      ],
      "name": "Withdraw",
      "type": "event"
    },
    {
      "anonymous": false,
      "inputs": [
        {
          "indexed": true,
          "internalType": "address",
          "name": "withdrawer",
          "type": "address"
        },
        {
          "indexed": false,
          "internalType": "uint256",
          "name": "crabAmount",
          "type": "uint256"
        },
        {
          "indexed": false,
          "internalType": "uint256",
          "name": "ethWithdrawn",
          "type": "uint256"
        }
      ],
      "name": "WithdrawShutdown",
      "type": "event"
    },
    {
      "inputs": [],
      "name": "DOMAIN_SEPARATOR",
      "outputs": [
        {
          "internalType": "bytes32",
          "name": "",
          "type": "bytes32"
        }
      ],
      "stateMutability": "view",
      "type": "function"
    },
    {
      "inputs": [],
      "name": "POWER_PERP_PERIOD",
      "outputs": [
        {
          "internalType": "uint32",
          "name": "",
          "type": "uint32"
        }
      ],
      "stateMutability": "view",
      "type": "function"
    },
    {
      "inputs": [
        {
          "internalType": "address",
          "name": "owner",
          "type": "address"
        },
        {
          "internalType": "address",
          "name": "spender",
          "type": "address"
        }
      ],
      "name": "allowance",
      "outputs": [
        {
          "internalType": "uint256",
          "name": "",
          "type": "uint256"
        }
      ],
      "stateMutability": "view",
      "type": "function"
    },
    {
      "inputs": [
        {
          "internalType": "address",
          "name": "spender",
          "type": "address"
        },
        {
          "internalType": "uint256",
          "name": "amount",
          "type": "uint256"
        }
      ],
      "name": "approve",
      "outputs": [
        {
          "internalType": "bool",
          "name": "",
          "type": "bool"
        }
      ],
      "stateMutability": "nonpayable",
      "type": "function"
    },
    {
      "inputs": [
        {
          "internalType": "address",
          "name": "account",
          "type": "address"
        }
      ],
      "name": "balanceOf",
      "outputs": [
        {
          "internalType": "uint256",
          "name": "",
          "type": "uint256"
        }
      ],
      "stateMutability": "view",
      "type": "function"
    },
    {
      "inputs": [],
      "name": "checkPriceHedge",
      "outputs": [
        {
          "internalType": "bool",
          "name": "",
          "type": "bool"
        }
      ],
      "stateMutability": "view",
      "type": "function"
    },
    {
      "inputs": [],
      "name": "checkTimeHedge",
      "outputs": [
        {
          "internalType": "bool",
          "name": "",
          "type": "bool"
        }
      ],
      "stateMutability": "view",
      "type": "function"
    },
    {
      "inputs": [],
      "name": "crabMigration",
      "outputs": [
        {
          "internalType": "address",
          "name": "",
          "type": "address"
        }
      ],
      "stateMutability": "view",
      "type": "function"
    },
    {
      "inputs": [],
      "name": "decimals",
      "outputs": [
        {
          "internalType": "uint8",
          "name": "",
          "type": "uint8"
        }
      ],
      "stateMutability": "view",
      "type": "function"
    },
    {
      "inputs": [
        {
          "internalType": "address",
          "name": "spender",
          "type": "address"
        },
        {
          "internalType": "uint256",
          "name": "subtractedValue",
          "type": "uint256"
        }
      ],
      "name": "decreaseAllowance",
      "outputs": [
        {
          "internalType": "bool",
          "name": "",
          "type": "bool"
        }
      ],
      "stateMutability": "nonpayable",
      "type": "function"
    },
    {
      "inputs": [],
      "name": "deposit",
      "outputs": [],
      "stateMutability": "payable",
      "type": "function"
    },
    {
      "inputs": [],
      "name": "ethQuoteCurrencyPool",
      "outputs": [
        {
          "internalType": "address",
          "name": "",
          "type": "address"
        }
      ],
      "stateMutability": "view",
      "type": "function"
    },
    {
      "inputs": [],
      "name": "ethWSqueethPool",
      "outputs": [
        {
          "internalType": "address",
          "name": "",
          "type": "address"
        }
      ],
      "stateMutability": "view",
      "type": "function"
    },
    {
      "inputs": [],
      "name": "factory",
      "outputs": [
        {
          "internalType": "address",
          "name": "",
          "type": "address"
        }
      ],
      "stateMutability": "view",
      "type": "function"
    },
    {
      "inputs": [
        {
          "internalType": "uint256",
          "name": "_ethToDeposit",
          "type": "uint256"
        }
      ],
      "name": "flashDeposit",
      "outputs": [],
      "stateMutability": "payable",
      "type": "function"
    },
    {
      "inputs": [
        {
          "internalType": "uint256",
          "name": "_crabAmount",
          "type": "uint256"
        },
        {
          "internalType": "uint256",
          "name": "_maxEthToPay",
          "type": "uint256"
        }
      ],
      "name": "flashWithdraw",
      "outputs": [],
      "stateMutability": "nonpayable",
      "type": "function"
    },
    {
      "inputs": [],
      "name": "getStrategyVaultId",
      "outputs": [
        {
          "internalType": "uint256",
          "name": "",
          "type": "uint256"
        }
      ],
      "stateMutability": "view",
      "type": "function"
    },
    {
      "inputs": [],
      "name": "getVaultDetails",
      "outputs": [
        {
          "internalType": "address",
          "name": "",
          "type": "address"
        },
        {
          "internalType": "uint256",
          "name": "",
          "type": "uint256"
        },
        {
          "internalType": "uint256",
          "name": "",
          "type": "uint256"
        },
        {
          "internalType": "uint256",
          "name": "",
          "type": "uint256"
        }
      ],
      "stateMutability": "view",
      "type": "function"
    },
    {
      "inputs": [
        {
          "internalType": "uint256",
          "name": "_crabAmount",
          "type": "uint256"
        }
      ],
      "name": "getWsqueethFromCrabAmount",
      "outputs": [
        {
          "internalType": "uint256",
          "name": "",
          "type": "uint256"
        }
      ],
      "stateMutability": "view",
      "type": "function"
    },
    {
      "inputs": [
        {
          "internalType": "uint256",
          "name": "_totalQuantity",
          "type": "uint256"
        },
        {
          "internalType": "uint256",
          "name": "_clearingPrice",
          "type": "uint256"
        },
        {
          "internalType": "bool",
          "name": "_isHedgeBuying",
          "type": "bool"
        },
        {
          "components": [
            {
              "internalType": "uint256",
              "name": "bidId",
              "type": "uint256"
            },
            {
              "internalType": "address",
              "name": "trader",
              "type": "address"
            },
            {
              "internalType": "uint256",
              "name": "quantity",
              "type": "uint256"
            },
            {
              "internalType": "uint256",
              "name": "price",
              "type": "uint256"
            },
            {
              "internalType": "bool",
              "name": "isBuying",
              "type": "bool"
            },
            {
              "internalType": "uint256",
              "name": "expiry",
              "type": "uint256"
            },
            {
              "internalType": "uint256",
              "name": "nonce",
              "type": "uint256"
            },
            {
              "internalType": "uint8",
              "name": "v",
              "type": "uint8"
            },
            {
              "internalType": "bytes32",
              "name": "r",
              "type": "bytes32"
            },
            {
              "internalType": "bytes32",
              "name": "s",
              "type": "bytes32"
            }
          ],
          "internalType": "struct CrabStrategyV2.Order[]",
          "name": "_orders",
          "type": "tuple[]"
        }
      ],
      "name": "hedgeOTC",
      "outputs": [],
      "stateMutability": "nonpayable",
      "type": "function"
    },
    {
      "inputs": [],
      "name": "hedgePriceThreshold",
      "outputs": [
        {
          "internalType": "uint256",
          "name": "",
          "type": "uint256"
        }
      ],
      "stateMutability": "view",
      "type": "function"
    },
    {
      "inputs": [],
      "name": "hedgeTimeThreshold",
      "outputs": [
        {
          "internalType": "uint256",
          "name": "",
          "type": "uint256"
        }
      ],
      "stateMutability": "view",
      "type": "function"
    },
    {
      "inputs": [],
      "name": "hedgingTwapPeriod",
      "outputs": [
        {
          "internalType": "uint32",
          "name": "",
          "type": "uint32"
        }
      ],
      "stateMutability": "view",
      "type": "function"
    },
    {
      "inputs": [
        {
          "internalType": "address",
          "name": "spender",
          "type": "address"
        },
        {
          "internalType": "uint256",
          "name": "addedValue",
          "type": "uint256"
        }
      ],
      "name": "increaseAllowance",
      "outputs": [
        {
          "internalType": "bool",
          "name": "",
          "type": "bool"
        }
      ],
      "stateMutability": "nonpayable",
      "type": "function"
    },
    {
      "inputs": [],
      "name": "incrementNonce",
      "outputs": [
        {
          "internalType": "uint256",
          "name": "current",
          "type": "uint256"
        }
      ],
      "stateMutability": "nonpayable",
      "type": "function"
    },
    {
      "inputs": [
        {
          "internalType": "uint256",
          "name": "_wSqueethToMint",
          "type": "uint256"
        },
        {
          "internalType": "uint256",
          "name": "_crabSharesToMint",
          "type": "uint256"
        },
        {
          "internalType": "uint256",
          "name": "_timeAtLastHedge",
          "type": "uint256"
        },
        {
          "internalType": "uint256",
          "name": "_priceAtLastHedge",
          "type": "uint256"
        }
      ],
      "name": "initialize",
      "outputs": [],
      "stateMutability": "payable",
      "type": "function"
    },
    {
      "inputs": [],
      "name": "isInitialized",
      "outputs": [
        {
          "internalType": "bool",
          "name": "",
          "type": "bool"
        }
      ],
      "stateMutability": "view",
      "type": "function"
    },
    {
      "inputs": [],
      "name": "maxOTCPriceTolerance",
      "outputs": [
        {
          "internalType": "uint256",
          "name": "",
          "type": "uint256"
        }
      ],
      "stateMutability": "view",
      "type": "function"
    },
    {
      "inputs": [],
      "name": "name",
      "outputs": [
        {
          "internalType": "string",
          "name": "",
          "type": "string"
        }
      ],
      "stateMutability": "view",
      "type": "function"
    },
    {
      "inputs": [
        {
          "internalType": "address",
          "name": "_owner",
          "type": "address"
        }
      ],
      "name": "nonces",
      "outputs": [
        {
          "internalType": "uint256",
          "name": "",
          "type": "uint256"
        }
      ],
      "stateMutability": "view",
      "type": "function"
    },
    {
      "inputs": [],
      "name": "oracle",
      "outputs": [
        {
          "internalType": "address",
          "name": "",
          "type": "address"
        }
      ],
      "stateMutability": "view",
      "type": "function"
    },
    {
      "inputs": [],
      "name": "otcPriceTolerance",
      "outputs": [
        {
          "internalType": "uint256",
          "name": "",
          "type": "uint256"
        }
      ],
      "stateMutability": "view",
      "type": "function"
    },
    {
      "inputs": [],
      "name": "owner",
      "outputs": [
        {
          "internalType": "address",
          "name": "",
          "type": "address"
        }
      ],
      "stateMutability": "view",
      "type": "function"
    },
    {
      "inputs": [],
      "name": "powerTokenController",
      "outputs": [
        {
          "internalType": "contract IController",
          "name": "",
          "type": "address"
        }
      ],
      "stateMutability": "view",
      "type": "function"
    },
    {
      "inputs": [],
      "name": "priceAtLastHedge",
      "outputs": [
        {
          "internalType": "uint256",
          "name": "",
          "type": "uint256"
        }
      ],
      "stateMutability": "view",
      "type": "function"
    },
    {
      "inputs": [],
      "name": "quoteCurrency",
      "outputs": [
        {
          "internalType": "address",
          "name": "",
          "type": "address"
        }
      ],
      "stateMutability": "view",
      "type": "function"
    },
    {
      "inputs": [],
      "name": "redeemShortShutdown",
      "outputs": [],
      "stateMutability": "nonpayable",
      "type": "function"
    },
    {
      "inputs": [],
      "name": "renounceOwnership",
      "outputs": [],
      "stateMutability": "nonpayable",
      "type": "function"
    },
    {
      "inputs": [
        {
          "internalType": "uint256",
          "name": "_hedgePriceThreshold",
          "type": "uint256"
        }
      ],
      "name": "setHedgePriceThreshold",
      "outputs": [],
      "stateMutability": "nonpayable",
      "type": "function"
    },
    {
      "inputs": [
        {
          "internalType": "uint256",
          "name": "_hedgeTimeThreshold",
          "type": "uint256"
        }
      ],
      "name": "setHedgeTimeThreshold",
      "outputs": [],
      "stateMutability": "nonpayable",
      "type": "function"
    },
    {
      "inputs": [
        {
          "internalType": "uint32",
          "name": "_hedgingTwapPeriod",
          "type": "uint32"
        }
      ],
      "name": "setHedgingTwapPeriod",
      "outputs": [],
      "stateMutability": "nonpayable",
      "type": "function"
    },
    {
      "inputs": [
        {
          "internalType": "uint256",
          "name": "_otcPriceTolerance",
          "type": "uint256"
        }
      ],
      "name": "setOTCPriceTolerance",
      "outputs": [],
      "stateMutability": "nonpayable",
      "type": "function"
    },
    {
      "inputs": [
        {
          "internalType": "uint256",
          "name": "_capAmount",
          "type": "uint256"
        }
      ],
      "name": "setStrategyCap",
      "outputs": [],
      "stateMutability": "nonpayable",
      "type": "function"
    },
    {
      "inputs": [],
      "name": "strategyCap",
      "outputs": [
        {
          "internalType": "uint256",
          "name": "",
          "type": "uint256"
        }
      ],
      "stateMutability": "view",
      "type": "function"
    },
    {
      "inputs": [],
      "name": "symbol",
      "outputs": [
        {
          "internalType": "string",
          "name": "",
          "type": "string"
        }
      ],
      "stateMutability": "view",
      "type": "function"
    },
    {
      "inputs": [],
      "name": "timeAtLastHedge",
      "outputs": [
        {
          "internalType": "uint256",
          "name": "",
          "type": "uint256"
        }
      ],
      "stateMutability": "view",
      "type": "function"
    },
    {
      "inputs": [],
      "name": "timelock",
      "outputs": [
        {
          "internalType": "address",
          "name": "",
          "type": "address"
        }
      ],
      "stateMutability": "view",
      "type": "function"
    },
    {
      "inputs": [],
      "name": "totalSupply",
      "outputs": [
        {
          "internalType": "uint256",
          "name": "",
          "type": "uint256"
        }
      ],
      "stateMutability": "view",
      "type": "function"
    },
    {
      "inputs": [
        {
          "internalType": "address",
          "name": "recipient",
          "type": "address"
        },
        {
          "internalType": "uint256",
          "name": "amount",
          "type": "uint256"
        }
      ],
      "name": "transfer",
      "outputs": [
        {
          "internalType": "bool",
          "name": "",
          "type": "bool"
        }
      ],
      "stateMutability": "nonpayable",
      "type": "function"
    },
    {
      "inputs": [
        {
          "internalType": "address",
          "name": "sender",
          "type": "address"
        },
        {
          "internalType": "address",
          "name": "recipient",
          "type": "address"
        },
        {
          "internalType": "uint256",
          "name": "amount",
          "type": "uint256"
        }
      ],
      "name": "transferFrom",
      "outputs": [
        {
          "internalType": "bool",
          "name": "",
          "type": "bool"
        }
      ],
      "stateMutability": "nonpayable",
      "type": "function"
    },
    {
      "inputs": [
        {
          "internalType": "address",
          "name": "newOwner",
          "type": "address"
        }
      ],
      "name": "transferOwnership",
      "outputs": [],
      "stateMutability": "nonpayable",
      "type": "function"
    },
    {
      "inputs": [
        {
          "internalType": "address",
          "name": "_newStrategy",
          "type": "address"
        }
      ],
      "name": "transferVault",
      "outputs": [],
      "stateMutability": "nonpayable",
      "type": "function"
    },
    {
      "inputs": [
        {
          "internalType": "int256",
          "name": "amount0Delta",
          "type": "int256"
        },
        {
          "internalType": "int256",
          "name": "amount1Delta",
          "type": "int256"
        },
        {
          "internalType": "bytes",
          "name": "_data",
          "type": "bytes"
        }
      ],
      "name": "uniswapV3SwapCallback",
      "outputs": [],
      "stateMutability": "nonpayable",
      "type": "function"
    },
    {
      "inputs": [],
      "name": "vaultId",
      "outputs": [
        {
          "internalType": "uint256",
          "name": "",
          "type": "uint256"
        }
      ],
      "stateMutability": "view",
      "type": "function"
    },
    {
      "inputs": [],
      "name": "wPowerPerp",
      "outputs": [
        {
          "internalType": "address",
          "name": "",
          "type": "address"
        }
      ],
      "stateMutability": "view",
      "type": "function"
    },
    {
      "inputs": [],
      "name": "weth",
      "outputs": [
        {
          "internalType": "address",
          "name": "",
          "type": "address"
        }
      ],
      "stateMutability": "view",
      "type": "function"
    },
    {
      "inputs": [
        {
          "internalType": "uint256",
          "name": "_crabAmount",
          "type": "uint256"
        }
      ],
      "name": "withdraw",
      "outputs": [],
      "stateMutability": "nonpayable",
      "type": "function"
    },
    {
      "inputs": [
        {
          "internalType": "uint256",
          "name": "_crabAmount",
          "type": "uint256"
        }
      ],
      "name": "withdrawShutdown",
      "outputs": [],
      "stateMutability": "nonpayable",
      "type": "function"
    },
    {
      "stateMutability": "payable",
      "type": "receive"
    }
  ],
  "transactionHash": "0x2bcdbd6618bac73a20fed2381bc01f54641ba05caab8ba7e03602a0e8987d278",
  "args": [
    "0x59F0c781a6eC387F09C40FAA22b7477a2950d209",
    "0xBD9F4bE886653177D22fA9c79FD0DFc41407fC89",
    "0xc778417e063141139fce010982780140aa0cd5ab",
    "0xa9C2f675FF8290494675dF5CFc2733319EaeeFDc",
    "0x921c384F79de1BAe96d6f33E3E5b8d0B2B34cb68",
    "0xF15964458bcA1941dE53fBc004BA7842f4783EC6",
    "0x1d1e0838d97996eD3f46b24f52533E3d09F02BcB",
    1,
    "1000000000000000000"
  ],
  "solcInputHash": "e2a303b98172c2b7a0e4fda5f2d8e859",
  "bytecode": "0x61026060405266b1a2bc2ec500006009556702c68af0bb140000600a55600b805463ffffffff19166101a41790553480156200003a57600080fd5b506040516200685f3803806200685f8339810160408190526200005d9162000787565b60405180604001604052806007815260200166437261624f544360c81b815250604051806040016040528060018152602001601960f91b815250878b8a6040518060400160405280601081526020016f21b930b11029ba3930ba32b3bc903b1960811b8152506040518060400160405280600681526020016521b930b13b1960d11b81525081818160039080519060200190620000fc9291906200069a565b508051620001129060049060208401906200069a565b50506005805460ff19166012179055506001600160a01b038416620001545760405162461bcd60e51b81526004016200014b9062000971565b60405180910390fd5b6001600160a01b0383166200017d5760405162461bcd60e51b81526004016200014b90620009a8565b606083901b6001600160601b03191660805260058054610100600160a81b0319166101006001600160a01b0387811682029290921792839055604080516307f07b1360e41b815290519190930490911691637f07b130916004808301926020929190829003018186803b158015620001f457600080fd5b505afa15801562000209573d6000803e3d6000fd5b505050506040513d601f19601f820116820180604052508101906200022f919062000763565b6001600160601b031960609190911b1660a052600554604051630728cf2360e31b81526101009091046001600160a01b0316906339467918906200027d906000908190819060040162000848565b602060405180830381600087803b1580156200029857600080fd5b505af1158015620002ad573d6000803e3d6000fd5b505050506040513d601f19601f82011682018060405250810190620002d391906200082f565b60c052505050506001600160a01b038116620003035760405162461bcd60e51b81526004016200014b906200093a565b60601b6001600160601b03191660e05260016006556000620003246200062e565b600780546001600160a01b0319166001600160a01b038316908117909155604051919250906000907f8be0079c531659141344cd1fd0a4f28419497f9722a3daafe3b4186f6b6457e0908290a35081516020808401919091208251918301919091206101408290526101608190527f8b73c3c69bb8fe3d512ecc4cf759cc79239f7b179b0ffacaa9a75d522b39400f620003bd62000632565b61012052620003ce81848462000636565b6101005261018052505050506001600160a01b038816620004035760405162461bcd60e51b81526004016200014b90620008cc565b6001600160a01b0384166200042c5760405162461bcd60e51b81526004016200014b9062000903565b6001600160a01b038516620004555760405162461bcd60e51b81526004016200014b9062000a16565b6001600160a01b0383166200047e5760405162461bcd60e51b81526004016200014b90620009df565b60008211620004a15760405162461bcd60e51b81526004016200014b9062000895565b60008111620004c45760405162461bcd60e51b81526004016200014b906200085e565b6001600160601b0319606089811b82166101c05286901b166101a052600c829055600d81905560408051632234601160e11b815290516001600160a01b038b1691634468c022916004808301926020929190829003018186803b1580156200052b57600080fd5b505afa15801562000540573d6000803e3d6000fd5b505050506040513d601f19601f8201168201806040525081019062000566919062000763565b6001600160a01b03166101e0816001600160a01b031660601b81525050886001600160a01b03166382564bca6040518163ffffffff1660e01b815260040160206040518083038186803b158015620005bd57600080fd5b505afa158015620005d2573d6000803e3d6000fd5b505050506040513d601f19601f82011682018060405250810190620005f8919062000763565b6001600160601b0319606091821b81166102005294811b8516610220529290921b909216610240525062000a4d95505050505050565b3390565b4690565b60008383836200064562000632565b3060405160200180868152602001858152602001848152602001838152602001826001600160a01b03168152602001955050505050506040516020818303038152906040528051906020012090509392505050565b828054600181600116156101000203166002900490600052602060002090601f016020900481019282620006d257600085556200071d565b82601f10620006ed57805160ff19168380011785556200071d565b828001600101855582156200071d579182015b828111156200071d57825182559160200191906001019062000700565b506200072b9291506200072f565b5090565b5b808211156200072b576000815560010162000730565b80516001600160a01b03811681146200075e57600080fd5b919050565b60006020828403121562000775578081fd5b620007808262000746565b9392505050565b60008060008060008060008060006101208a8c031215620007a6578485fd5b620007b18a62000746565b9850620007c160208b0162000746565b9750620007d160408b0162000746565b9650620007e160608b0162000746565b9550620007f160808b0162000746565b94506200080160a08b0162000746565b93506200081160c08b0162000746565b925060e08a015191506101008a015190509295985092959850929598565b60006020828403121562000841578081fd5b5051919050565b9283526020830191909152604082015260600190565b6020808252601d908201527f696e76616c6964206865646765207072696365207468726573686f6c64000000604082015260600190565b6020808252601c908201527f696e76616c69642068656467652074696d65207468726573686f6c6400000000604082015260600190565b60208082526016908201527f696e76616c6964206f7261636c65206164647265737300000000000000000000604082015260600190565b60208082526018908201527f696e76616c69642074696d656c6f636b20616464726573730000000000000000604082015260600190565b60208082526017908201527f696e76616c696420666163746f72792061646472657373000000000000000000604082015260600190565b6020808252601a908201527f696e76616c696420636f6e74726f6c6c65722061646472657373000000000000604082015260600190565b60208082526014908201527f696e76616c696420776574682061646472657373000000000000000000000000604082015260600190565b6020808252601d908201527f696e76616c696420637261624d6967726174696f6e2061646472657373000000604082015260600190565b6020808252601c908201527f696e76616c6964204554483a5753717565657468206164647265737300000000604082015260600190565b60805160601c60a05160601c60c05160e05160601c61010051610120516101405161016051610180516101a05160601c6101c05160601c6101e05160601c6102005160601c6102205160601c6102405160601c615c7c62000be360003980610fa652806113be525080611f3c528061211a5250806117275250806113515250806116be5280612ea7528061303c5280613c5d525080610c2d5280610e9f52806113755280612ed4528061306952806138885280613b095280613c7e525080612a45525080612a87525080612a665250806129ec525080612a1c525080611e3452806122f1528061492e5250806110bf52806114dc52806119d3528061203b52806120e15280612c565280612d455280614166525080610beb5280610e7e52806117035280612de15280612ef6528061308b528061385b52806139ae5280613c9f52806140ad5250806103955280610c0c5280610e5d528061132d5280612f1852806130ad5280613398528061343a52806134d2528061355752806137575280613a535280613ad95280613cc05250615c7c6000f3fe6080604052600436106103855760003560e01c8063715018a6116101d1578063b24f719b11610102578063d33219b4116100a0578063f2fde38b1161006f578063f2fde38b14610986578063f5d278e4146109a6578063f73e19c3146109bb578063fa461e33146109db576103f7565b8063d33219b414610927578063dd62ed3e1461093c578063e9c3cb4f1461095c578063f101d92f14610971576103f7565b8063c45a0155116100dc578063c45a0155146108d5578063cae74029146108ea578063d0e30db0146108ff578063d2dd9f7914610907576103f7565b8063b24f719b14610880578063bdd438b8146108a0578063c2451689146108c0576103f7565b80638da5cb5b1161016f5780639ff69a51116101495780639ff69a511461080b578063a319b29f1461082b578063a457c2d714610840578063a9059cbb14610860576103f7565b80638da5cb5b146107c15780638f8b8dbc146107d657806395d89b41146107f6576103f7565b80637ecebe00116101ab5780637ecebe00146107625780637f07b1301461078257806382564bca1461079757806388626eb8146107ac576103f7565b8063715018a6146107185780637bcdc16e1461072d5780637dc0d1d01461074d576103f7565b8063395ebb69116102b657806360a2da441161025457806366a91b761161022357806366a91b76146106b957806367b8c345146106ce5780636c1040a9146106e357806370a08231146106f8576103f7565b806360a2da4414610667578063627cdcb91461067a57806363bbc4b61461068f5780636413750e146106a4576103f7565b80633fc8cef3116102905780633fc8cef3146106035780634468c022146106185780634d76e6fc1461062d578063533092ef14610642576103f7565b8063395ebb69146105ac5780633d3a62ee146105ce5780633dcb0c5d146105ee576103f7565b8063281e78d11161032357806333194c0a116102fd57806333194c0a1461054d5780633644e51514610562578063392e53cd14610577578063395093511461058c576103f7565b8063281e78d1146104e95780632e1a7d4d1461050b578063313ce5671461052b576103f7565b806318160ddd1161035f57806318160ddd146104745780631a5af3421461049657806323b872dd146104a957806323ccafd9146104c9576103f7565b806306fdde03146103fc578063095ea7b3146104275780630ca514cd14610454576103f7565b366103f757336001600160a01b037f00000000000000000000000000000000000000000000000000000000000000001614806103d0575060055461010090046001600160a01b031633145b6103f55760405162461bcd60e51b81526004016103ec90615658565b60405180910390fd5b005b600080fd5b34801561040857600080fd5b506104116109fb565b60405161041e9190615292565b60405180910390f35b34801561043357600080fd5b50610447610442366004614c0e565b610a92565b60405161041e9190615246565b34801561046057600080fd5b506103f561046f366004614e91565b610ab0565b34801561048057600080fd5b50610489610b30565b60405161041e9190615123565b6103f56104a4366004614e91565b610b36565b3480156104b557600080fd5b506104476104c4366004614bce565b610d3c565b3480156104d557600080fd5b506103f56104e4366004614ec1565b610dc4565b3480156104f557600080fd5b506104fe610fa4565b60405161041e919061512c565b34801561051757600080fd5b506103f5610526366004614e91565b610fc8565b34801561053757600080fd5b506105406110b4565b60405161041e91906159f7565b34801561055957600080fd5b506104896110bd565b34801561056e57600080fd5b506104896110e1565b34801561058357600080fd5b506104476110f0565b34801561059857600080fd5b506104476105a7366004614c0e565b611101565b3480156105b857600080fd5b506105c161114f565b60405161041e91906159e6565b3480156105da57600080fd5b506103f56105e9366004614e91565b611155565b3480156105fa57600080fd5b506104fe611317565b34801561060f57600080fd5b506104fe61132b565b34801561062457600080fd5b506104fe61134f565b34801561063957600080fd5b506104fe611373565b34801561064e57600080fd5b50610657611397565b60405161041e9493929190615220565b6103f5610675366004615038565b6113b3565b34801561068657600080fd5b5061048961149b565b34801561069b57600080fd5b506104896114c2565b3480156106b057600080fd5b506104896114c8565b3480156106c557600080fd5b506104896114ce565b3480156106da57600080fd5b506104896114d4565b3480156106ef57600080fd5b506104896114da565b34801561070457600080fd5b50610489610713366004614b5e565b6114fe565b34801561072457600080fd5b506103f561151d565b34801561073957600080fd5b506103f5610748366004614e91565b6115e8565b34801561075957600080fd5b506104fe6116bc565b34801561076e57600080fd5b5061048961077d366004614b5e565b6116e0565b34801561078e57600080fd5b506104fe611701565b3480156107a357600080fd5b506104fe611725565b3480156107b857600080fd5b50610447611749565b3480156107cd57600080fd5b506104fe611753565b3480156107e257600080fd5b506103f56107f1366004615069565b611762565b34801561080257600080fd5b50610411611842565b34801561081757600080fd5b506103f5610826366004614e91565b6118a3565b34801561083757600080fd5b506103f561196e565b34801561084c57600080fd5b5061044761085b366004614c0e565b611a2f565b34801561086c57600080fd5b5061044761087b366004614c0e565b611a97565b34801561088c57600080fd5b506103f561089b366004614ee2565b611aab565b3480156108ac57600080fd5b506103f56108bb366004614e91565b611d5f565b3480156108cc57600080fd5b50610447611e28565b3480156108e157600080fd5b506104fe611e32565b3480156108f657600080fd5b50610489611e56565b6103f5611e5c565b34801561091357600080fd5b506103f5610922366004614b5e565b611f31565b34801561093357600080fd5b506104fe612118565b34801561094857600080fd5b50610489610957366004614b96565b61213c565b34801561096857600080fd5b50610489612167565b34801561097d57600080fd5b5061048961216d565b34801561099257600080fd5b506103f56109a1366004614b5e565b612173565b3480156109b257600080fd5b506105c1612295565b3480156109c757600080fd5b506104896109d6366004614e91565b6122a1565b3480156109e757600080fd5b506103f56109f6366004614c78565b6122ac565b60038054604080516020601f6002600019610100600188161502019095169490940493840181900481028201810190925282815260609390929091830182828015610a875780601f10610a5c57610100808354040283529160200191610a87565b820191906000526020600020905b815481529060010190602001808311610a6a57829003601f168201915b505050505090505b90565b6000610aa6610a9f612347565b848461234b565b5060015b92915050565b610ab8612347565b6001600160a01b0316610ac9611753565b6001600160a01b031614610b24576040805162461bcd60e51b815260206004820181905260248201527f4f776e61626c653a2063616c6c6572206973206e6f7420746865206f776e6572604482015290519081900360640190fd5b610b2d81612437565b50565b60025490565b600b54640100000000900460ff16610b605760405162461bcd60e51b81526004016103ec906155a9565b60026006541415610bb8576040805162461bcd60e51b815260206004820152601f60248201527f5265656e7472616e637947756172643a207265656e7472616e742063616c6c00604482015290519081900360640190fd5b6002600655600080610bc861246c565b91509150610bd68382612486565b6000610be38484846124b5565b509050610cee7f00000000000000000000000000000000000000000000000000000000000000007f00000000000000000000000000000000000000000000000000000000000000007f00000000000000000000000000000000000000000000000000000000000000006001600160a01b031663ddca3f436040518163ffffffff1660e01b815260040160206040518083038186803b158015610c8457600080fd5b505afa158015610c98573d6000803e3d6000fd5b505050506040513d601f19601f82011682018060405250810190610cbc9190614e6e565b84610cc7893461254a565b60008a604051602001610cda9190615123565b6040516020818303038152906040526125a2565b336001600160a01b03167f5d85169ff8329e90f3225f9798e0eba54d00c55d3bbfe201a0d1606febb23a8e8583604051610d299291906159c2565b60405180910390a2505060016006555050565b6000610d49848484612623565b610db984610d55612347565b610db485604051806060016040528060288152602001615b90602891396001600160a01b038a16600090815260016020526040812090610d93612347565b6001600160a01b03168152602081019190915260400160002054919061277e565b61234b565b5060015b9392505050565b600b54640100000000900460ff16610dee5760405162461bcd60e51b81526004016103ec906155a9565b60026006541415610e46576040805162461bcd60e51b815260206004820152601f60248201527f5265656e7472616e637947756172643a207265656e7472616e742063616c6c00604482015290519081900360640190fd5b60026006556000610e5683612815565b9050610f577f00000000000000000000000000000000000000000000000000000000000000007f00000000000000000000000000000000000000000000000000000000000000007f00000000000000000000000000000000000000000000000000000000000000006001600160a01b031663ddca3f436040518163ffffffff1660e01b815260040160206040518083038186803b158015610ef657600080fd5b505afa158015610f0a573d6000803e3d6000fd5b505050506040513d601f19601f82011682018060405250810190610f2e9190614e6e565b8486600189604051602001610f439190615123565b60405160208183030381529060405261283a565b336001600160a01b03167fa13b272c1cf13ba724064d3d4809d9f557aab8da2bb582cba031a2f57e728e9d8483604051610f929291906159c2565b60405180910390a25050600160065550565b7f000000000000000000000000000000000000000000000000000000000000000081565b600b54640100000000900460ff16610ff25760405162461bcd60e51b81526004016103ec906155a9565b6002600654141561104a576040805162461bcd60e51b815260206004820152601f60248201527f5265656e7472616e637947756172643a207265656e7472616e742063616c6c00604482015290519081900360640190fd5b6002600655600061105a82612815565b9050600061106b33848460006128b1565b905061107733826128fe565b336001600160a01b03167f02f25270a4d87bea75db541cdfe559334a275b4a233520ed6c0a2429667cca94848484604051610f92939291906159d0565b60055460ff1690565b7f000000000000000000000000000000000000000000000000000000000000000081565b60006110eb6129e8565b905090565b600b54640100000000900460ff1681565b6000610aa661110e612347565b84610db4856001600061111f612347565b6001600160a01b03908116825260208083019390935260409182016000908120918c168152925290205490612ab2565b6101a481565b600b54640100000000900460ff1661117f5760405162461bcd60e51b81526004016103ec906155a9565b600260065414156111d7576040805162461bcd60e51b815260206004820152601f60248201527f5265656e7472616e637947756172643a207265656e7472616e742063616c6c00604482015290519081900360640190fd5b6002600681905550600560019054906101000a90046001600160a01b03166001600160a01b031663ff9475256040518163ffffffff1660e01b8152600401602060405180830381600087803b15801561122f57600080fd5b505af1158015611243573d6000803e3d6000fd5b505050506040513d601f19601f820116820180604052508101906112679190614c39565b6112835760405162461bcd60e51b81526004016103ec9061584b565b60105460ff166112a55760405162461bcd60e51b81526004016103ec906153ef565b60006112b8826112b3610b30565b612b0c565b905060006112c68247612b18565b90506112d23384612b24565b6112dc33826128fe565b336001600160a01b03167fe9ab9870b9093d99f8e981919f65ad09b7ae90ff80f1031639af9e0357eb9ed68483604051610f929291906159c2565b60055461010090046001600160a01b031681565b7f000000000000000000000000000000000000000000000000000000000000000081565b7f000000000000000000000000000000000000000000000000000000000000000081565b7f000000000000000000000000000000000000000000000000000000000000000081565b6000806000806113a5612c20565b935093509350935090919293565b336001600160a01b037f000000000000000000000000000000000000000000000000000000000000000016146113fb5760405162461bcd60e51b81526004016103ec906152dc565b600b54640100000000900460ff16156114265760405162461bcd60e51b81526004016103ec90615381565b346000806114348382612486565b81158015611440575080155b61145c5760405162461bcd60e51b81526004016103ec9061594d565b600e859055600f8490556114733388856000612d17565b61147d3387612e71565b5050600b805464ff0000000019166401000000001790555050505050565b3360009081526011602052604081206114b381612e7b565b6114bc81612e84565b91505090565b600f5481565b600a5481565b600c5481565b600e5481565b7f000000000000000000000000000000000000000000000000000000000000000090565b6001600160a01b0381166000908152602081905260409020545b919050565b611525612347565b6001600160a01b0316611536611753565b6001600160a01b031614611591576040805162461bcd60e51b815260206004820181905260248201527f4f776e61626c653a2063616c6c6572206973206e6f7420746865206f776e6572604482015290519081900360640190fd5b6007546040516000916001600160a01b0316907f8be0079c531659141344cd1fd0a4f28419497f9722a3daafe3b4186f6b6457e0908390a36007805473ffffffffffffffffffffffffffffffffffffffff19169055565b6115f0612347565b6001600160a01b0316611601611753565b6001600160a01b03161461165c576040805162461bcd60e51b815260206004820181905260248201527f4f776e61626c653a2063616c6c6572206973206e6f7420746865206f776e6572604482015290519081900360640190fd5b6000811161167c5760405162461bcd60e51b81526004016103ec9061534a565b600c8190556040517f28e0e4ee0b14d4b056ce88e1bcd890ccd32b22e213723c8765901381b5eae705906116b1908390615123565b60405180910390a150565b7f000000000000000000000000000000000000000000000000000000000000000081565b6001600160a01b0381166000908152601160205260408120610aaa90612e84565b7f000000000000000000000000000000000000000000000000000000000000000081565b7f000000000000000000000000000000000000000000000000000000000000000081565b60006110eb612e88565b6007546001600160a01b031690565b61176a612347565b6001600160a01b031661177b611753565b6001600160a01b0316146117d6576040805162461bcd60e51b815260206004820181905260248201527f4f776e61626c653a2063616c6c6572206973206e6f7420746865206f776e6572604482015290519081900360640190fd5b60b48163ffffffff1610156117fd5760405162461bcd60e51b81526004016103ec906158b9565b600b805463ffffffff191663ffffffff83161790556040517f1cd9c7f99a5530a38c8f2b387dcc78e8a76cb5b203e0c4316a66777d993dee35906116b19083906159e6565b60048054604080516020601f6002600019610100600188161502019095169490940493840181900481028201810190925282815260609390929091830182828015610a875780601f10610a5c57610100808354040283529160200191610a87565b6118ab612347565b6001600160a01b03166118bc611753565b6001600160a01b031614611917576040805162461bcd60e51b815260206004820181905260248201527f4f776e61626c653a2063616c6c6572206973206e6f7420746865206f776e6572604482015290519081900360640190fd5b600a548111156119395760405162461bcd60e51b81526004016103ec906153b8565b60098190556040517f829c71710efa317bbdb8e5c4ca2b6d2551b7c2d7d37ea199975807eb3f5c0e7c906116b1908390615123565b600b54640100000000900460ff166119985760405162461bcd60e51b81526004016103ec906155a9565b60108054600160ff19909116179055600554604051634bf7d4a160e11b81526101009091046001600160a01b0316906397efa942906119fb907f000000000000000000000000000000000000000000000000000000000000000090600401615123565b600060405180830381600087803b158015611a1557600080fd5b505af1158015611a29573d6000803e3d6000fd5b50505050565b6000610aa6611a3c612347565b84610db485604051806060016040528060258152602001615c226025913960016000611a66612347565b6001600160a01b03908116825260208083019390935260409182016000908120918d1681529252902054919061277e565b6000610aa6611aa4612347565b8484612623565b611ab3612347565b6001600160a01b0316611ac4611753565b6001600160a01b031614611b1f576040805162461bcd60e51b815260206004820181905260248201527f4f776e61626c653a2063616c6c6572206973206e6f7420746865206f776e6572604482015290519081900360640190fd5b600b54640100000000900460ff16611b495760405162461bcd60e51b81526004016103ec906155a9565b60008311611b695760405162461bcd60e51b81526004016103ec906156c6565b611b71612ffe565b80611b7f5750611b7f612e88565b611b9b5760405162461bcd60e51b81526004016103ec906155e0565b611ba5838361301f565b42600e55600f8390558051849060009083908290611bbf57fe5b6020026020010151606001519050600083600081518110611bdc57fe5b6020026020010151606001519050600084600081518110611bf957fe5b60200260200101516080015190508015158615151415611c2b5760405162461bcd60e51b81526004016103ec906158f0565b60005b8551811015611d5457858181518110611c4357fe5b6020026020010151606001519250811515868281518110611c6057fe5b602002602001015160800151151514611c8b5760405162461bcd60e51b81526004016103ec9061575a565b8615611cb65783831015611cb15760405162461bcd60e51b81526004016103ec906154ba565b611cd6565b83831115611cd65760405162461bcd60e51b81526004016103ec906154ba565b829350611cf78589888481518110611cea57fe5b60200260200101516131df565b858181518110611d0357fe5b602002602001015160400151851115611d4757611d40868281518110611d2557fe5b6020026020010151604001518661254a90919063ffffffff16565b9450611d4c565b611d54565b600101611c2e565b505050505050505050565b611d67612347565b6001600160a01b0316611d78611753565b6001600160a01b031614611dd3576040805162461bcd60e51b815260206004820181905260248201527f4f776e61626c653a2063616c6c6572206973206e6f7420746865206f776e6572604482015290519081900360640190fd5b60008111611df35760405162461bcd60e51b81526004016103ec90615313565b600d8190556040517f789e4b8ad1c375952cea7f07c9b3b6619a84b406432b948246cecb8ced96b9fa906116b1908390615123565b60006110eb612ffe565b7f000000000000000000000000000000000000000000000000000000000000000081565b60085481565b600b54640100000000900460ff16611e865760405162461bcd60e51b81526004016103ec906155a9565b60026006541415611ede576040805162461bcd60e51b815260206004820152601f60248201527f5265656e7472616e637947756172643a207265656e7472616e742063616c6c00604482015290519081900360640190fd5b600260065534600080611ef2338483613641565b91509150336001600160a01b03167f90890809c654f11d6e72a28fa60149770a0d11ec6c92319d6ceb2bb0a4ea1a158383604051610f929291906159c2565b336001600160a01b037f00000000000000000000000000000000000000000000000000000000000000001614611f795760405162461bcd60e51b81526004016103ec90615882565b600b54640100000000900460ff16611fa35760405162461bcd60e51b81526004016103ec906155a9565b600560019054906101000a90046001600160a01b03166001600160a01b0316639d4c94426040518163ffffffff1660e01b815260040160206040518083038186803b158015611ff157600080fd5b505afa158015612005573d6000803e3d6000fd5b505050506040513d601f19601f820116820180604052508101906120299190614b7a565b6001600160a01b03166342842e0e30837f00000000000000000000000000000000000000000000000000000000000000006040518463ffffffff1660e01b815260040161207893929190615140565b600060405180830381600087803b15801561209257600080fd5b505af11580156120a6573d6000803e3d6000fd5b505050506120b46000612437565b806001600160a01b03167fae97956757017853415251f661bfe857898f44ddb9c90b2483065719b84b0c697f000000000000000000000000000000000000000000000000000000000000000060405161210d9190615123565b60405180910390a250565b7f000000000000000000000000000000000000000000000000000000000000000081565b6001600160a01b03918216600090815260016020908152604080832093909416825291909152205490565b60095481565b600d5481565b61217b612347565b6001600160a01b031661218c611753565b6001600160a01b0316146121e7576040805162461bcd60e51b815260206004820181905260248201527f4f776e61626c653a2063616c6c6572206973206e6f7420746865206f776e6572604482015290519081900360640190fd5b6001600160a01b03811661222c5760405162461bcd60e51b8152600401808060200182810382526026815260200180615aa46026913960400191505060405180910390fd5b6007546040516001600160a01b038084169216907f8be0079c531659141344cd1fd0a4f28419497f9722a3daafe3b4186f6b6457e090600090a36007805473ffffffffffffffffffffffffffffffffffffffff19166001600160a01b0392909216919091179055565b600b5463ffffffff1681565b6000610aaa82612815565b60008413806122bb5750600083135b6122c457600080fd5b60006122d282840184614d0e565b905060008060006122e684600001516136b5565b9250925092506123187f00000000000000000000000000000000000000000000000000000000000000008484846136e6565b506000808913612328578761232a565b885b9050611d548560200151858585858a606001518b60400151613705565b3390565b6001600160a01b0383166123905760405162461bcd60e51b8152600401808060200182810382526024815260200180615bfe6024913960400191505060405180910390fd5b6001600160a01b0382166123d55760405162461bcd60e51b8152600401808060200182810382526022815260200180615aca6022913960400191505060405180910390fd5b6001600160a01b03808416600081815260016020908152604080832094871680845294825291829020859055815185815291517f8c5be1e5ebec7d5bd14f71427d1e84f3dd0314c0f7b2291e5b200ac8c7c3b9259281900390910190a3505050565b60088190556040517f29600e2e028c8c5c2b112d021938e0d0237d8fafcbb20394c56cf9fa4661ca27906116b1908390615123565b60008060008061247a612c20565b96509450505050509091565b6008546124938284613bfd565b11156124b15760405162461bcd60e51b81526004016103ec9061568f565b5050565b6000806000806124c3613c55565b90506000861580156124d3575085155b80156124e557506124e2610b30565b15155b905080156125055760405162461bcd60e51b81526004016103ec90615621565b61252c61251c6125158985613d8c565b8890613bfd565b6125268a8a613d8c565b90613dc5565b9250600061253a8484613d8c565b9399939850929650505050505050565b80820382811115610aaa576040805162461bcd60e51b815260206004820152601560248201527f64732d6d6174682d7375622d756e646572666c6f770000000000000000000000604482015290519081900360640190fd5b60006125f78530600060405180608001604052808d8c8e6040516020016125cb939291906150d0565b60408051601f1981840301815291815290825233602083015260ff8a1690820152606001879052613de5565b9050838110156126195760405162461bcd60e51b81526004016103ec906152a5565b5050505050505050565b6001600160a01b0383166126685760405162461bcd60e51b8152600401808060200182810382526025815260200180615bd96025913960400191505060405180910390fd5b6001600160a01b0382166126ad5760405162461bcd60e51b8152600401808060200182810382526023815260200180615a5f6023913960400191505060405180910390fd5b6126b88383836129e3565b6126f581604051806060016040528060268152602001615aec602691396001600160a01b038616600090815260208190526040902054919061277e565b6001600160a01b0380851660009081526020819052604080822093909355908416815220546127249082612ab2565b6001600160a01b038084166000818152602081815260409182902094909455805185815290519193928716927fddf252ad1be2c89b69c2b068fc378daa952ba7f163c4a11628f55a4df523b3ef92918290030190a3505050565b6000818484111561280d5760405162461bcd60e51b81526004018080602001828103825283818151815260200191508051906020019080838360005b838110156127d25781810151838201526020016127ba565b50505050905090810190601f1680156127ff5780820380516001836020036101000a031916815260200191505b509250505060405180910390fd5b505050900390565b600080612820612c20565b9350505050610dbd612830610b30565b6125268386613d8c565b600061288f8530600060405180608001604052808c8c8f604051602001612863939291906150d0565b60408051601f1981840301815291815290825233602083015260ff8a1690820152606001879052613f24565b9050838111156126195760405162461bcd60e51b81526004016103ec90615426565b6000806128bc61246c565b91505060006128cd866112b3610b30565b905060006128db8284612b18565b90506128e988878388614091565b6128f38888612b24565b979650505050505050565b80471015612953576040805162461bcd60e51b815260206004820152601d60248201527f416464726573733a20696e73756666696369656e742062616c616e6365000000604482015290519081900360640190fd5b6040516000906001600160a01b0384169083908381818185875af1925050503d806000811461299e576040519150601f19603f3d011682016040523d82523d6000602084013e6129a3565b606091505b50509050806129e35760405162461bcd60e51b815260040180806020018281038252603a815260200180615b12603a913960400191505060405180910390fd5b505050565b60007f0000000000000000000000000000000000000000000000000000000000000000612a136141c0565b1415612a4057507f0000000000000000000000000000000000000000000000000000000000000000610a8f565b612aab7f00000000000000000000000000000000000000000000000000000000000000007f00000000000000000000000000000000000000000000000000000000000000007f00000000000000000000000000000000000000000000000000000000000000006141c4565b9050610a8f565b600082820183811015610dbd576040805162461bcd60e51b815260206004820152601b60248201527f536166654d6174683a206164646974696f6e206f766572666c6f770000000000604482015290519081900360640190fd5b6000610dbd8383613dc5565b6000610dbd8284613d8c565b6001600160a01b038216612b695760405162461bcd60e51b8152600401808060200182810382526021815260200180615bb86021913960400191505060405180910390fd5b612b75826000836129e3565b612bb281604051806060016040528060228152602001615a82602291396001600160a01b038516600090815260208190526040902054919061277e565b6001600160a01b038316600090815260208190526040902055600254612bd89082614226565b6002556040805182815290516000916001600160a01b038516917fddf252ad1be2c89b69c2b068fc378daa952ba7f163c4a11628f55a4df523b3ef9181900360200190a35050565b600554604051634632752560e11b8152600091829182918291829161010090046001600160a01b031690638c64ea4a90612c7e907f000000000000000000000000000000000000000000000000000000000000000090600401615123565b60806040518083038186803b158015612c9657600080fd5b505afa158015612caa573d6000803e3d6000fd5b505050506040513d601f19601f82011682018060405250810190612cce9190614dcc565b805160208201516040830151606090930151919863ffffffff90911697506bffffffffffffffffffffffff90921695506fffffffffffffffffffffffffffffffff169350915050565b600554604051630728cf2360e31b81526101009091046001600160a01b0316906339467918908490612d72907f00000000000000000000000000000000000000000000000000000000000000009088906000906004016159d0565b6020604051808303818588803b158015612d8b57600080fd5b505af1158015612d9f573d6000803e3d6000fd5b50505050506040513d601f19601f82011682018060405250810190612dc49190614ea9565b5080611a295760405163a9059cbb60e01b81526001600160a01b037f0000000000000000000000000000000000000000000000000000000000000000169063a9059cbb90612e1890879087906004016151d7565b602060405180830381600087803b158015612e3257600080fd5b505af1158015612e46573d6000803e3d6000fd5b505050506040513d601f19601f82011682018060405250810190612e6a9190614c39565b5050505050565b6124b18282614283565b80546001019055565b5490565b600b5460405163cce79bd560e01b815260009182916001600160a01b037f0000000000000000000000000000000000000000000000000000000000000000169163cce79bd591612f4c917f0000000000000000000000000000000000000000000000000000000000000000917f0000000000000000000000000000000000000000000000000000000000000000917f00000000000000000000000000000000000000000000000000000000000000009163ffffffff90911690600190600401615164565b60206040518083038186803b158015612f6457600080fd5b505afa158015612f78573d6000803e3d6000fd5b505050506040513d601f19601f82011682018060405250810190612f9c9190614ea9565b90506000612fb5600f5483613dc590919063ffffffff16565b90506000670de0b6b3a76400008211612fdf57612fda670de0b6b3a76400008361254a565b612ff1565b612ff182670de0b6b3a764000061254a565b600d541115935050505090565b6000613017600c54600e54613bfd90919063ffffffff16565b421015905090565b600b5460405163cce79bd560e01b81526000916001600160a01b037f0000000000000000000000000000000000000000000000000000000000000000169163cce79bd5916130df917f0000000000000000000000000000000000000000000000000000000000000000917f0000000000000000000000000000000000000000000000000000000000000000917f00000000000000000000000000000000000000000000000000000000000000009163ffffffff1690600190600401615164565b60206040518083038186803b1580156130f757600080fd5b505afa15801561310b573d6000803e3d6000fd5b505050506040513d601f19601f8201168201806040525081019061312f9190614ea9565b9050811561319457613170670de0b6b3a764000061316a613163600954670de0b6b3a7640000613bfd90919063ffffffff16565b8490614373565b906143df565b83111561318f5760405162461bcd60e51b81526004016103ec9061554c565b6129e3565b6131c0670de0b6b3a764000061316a613163600954670de0b6b3a764000061254a90919063ffffffff16565b8310156129e35760405162461bcd60e51b81526004016103ec9061545d565b80608001511561321257806060015182111561320d5760405162461bcd60e51b81526004016103ec906157ee565b613236565b80606001518210156132365760405162461bcd60e51b81526004016103ec906154ef565b60007fc8aea8e60353611f3ed5409dad2d3173390bd252431198e7300eda67fefb66b1826000015183602001518460400151856060015186608001518760a00151613284896020015161443e565b60405160200161329b989796959493929190615251565b60405160208183030381529060405280519060200120905060006132be82614470565b905060006132dc828560e001518661010001518761012001516144bc565b905083602001516001600160a01b0316816001600160a01b0316146133135760405162461bcd60e51b81526004016103ec906157b7565b428460a0015110156133375760405162461bcd60e51b81526004016103ec90615723565b836040015186101561334b57604084018690525b6000613370670de0b6b3a764000061316a88886040015161437390919063ffffffff16565b90508460800151156134bb5760208501516040516323b872dd60e01b81526001600160a01b037f000000000000000000000000000000000000000000000000000000000000000016916323b872dd916133d0919030908690600401615140565b602060405180830381600087803b1580156133ea57600080fd5b505af11580156133fe573d6000803e3d6000fd5b505050506040513d601f19601f820116820180604052508101906134229190614c39565b50604051632e1a7d4d60e01b81526001600160a01b037f00000000000000000000000000000000000000000000000000000000000000001690632e1a7d4d9061346f908490600401615123565b600060405180830381600087803b15801561348957600080fd5b505af115801561349d573d6000803e3d6000fd5b505050506134b685602001518660400151836000612d17565b6135e9565b6134d085602001518660400151836000614091565b7f00000000000000000000000000000000000000000000000000000000000000006001600160a01b031663d0e30db0826040518263ffffffff1660e01b81526004016000604051808303818588803b15801561352b57600080fd5b505af115801561353f573d6000803e3d6000fd5b50505050602086015160405163a9059cbb60e01b81527f00000000000000000000000000000000000000000000000000000000000000006001600160a01b0316925063a9059cbb916135959185906004016151d7565b602060405180830381600087803b1580156135af57600080fd5b505af11580156135c3573d6000803e3d6000fd5b505050506040513d601f19601f820116820180604052508101906135e79190614c39565b505b7f8fd6d28520cc807d0f603763a01192d48c66c032dc84a71a3f735f67ac15cd8785602001518660400151876060015188608001518a6040516136309594939291906151f0565b60405180910390a150505050505050565b60008060008061364f61246c565b9150915061365d8682612486565b60008061366b8885856124b5565b9092509050600061368d61367f8a8461254a565b85613688610b30565b614631565b905061369b8a848b8b612d17565b6136a58a82612e71565b9199919850909650505050505050565b600080806136c38482614680565b92506136d084601461474c565b90506136dd846017614680565b91509193909250565b60006136fc856136f7868686614808565b61485e565b95945050505050565b60008160ff16600181111561371657fe5b600181111561372157fe5b14156139675760008280602001905181019061373d9190614cf3565b6040516370a0823160e01b81529091506001600160a01b037f00000000000000000000000000000000000000000000000000000000000000001690632e1a7d4d9082906370a082319061379490309060040161512c565b60206040518083038186803b1580156137ac57600080fd5b505afa1580156137c0573d6000803e3d6000fd5b505050506040513d601f19601f820116820180604052508101906137e49190614ea9565b6040518263ffffffff1660e01b81526004016138009190615123565b600060405180830381600087803b15801561381a57600080fd5b505af115801561382e573d6000803e3d6000fd5b505050506138428882600001516001613641565b505060405163a9059cbb60e01b81526001600160a01b037f0000000000000000000000000000000000000000000000000000000000000000169063a9059cbb906138b2907f00000000000000000000000000000000000000000000000000000000000000009088906004016151d7565b602060405180830381600087803b1580156138cc57600080fd5b505af11580156138e0573d6000803e3d6000fd5b505050506040513d601f19601f820116820180604052508101906139049190614c39565b50876001600160a01b03167fc355ebece16d7e85e486911f0cde1074bc4bd3fec251c88cdddc7076d3e99adb85476040516139409291906159c2565b60405180910390a24715613961576139616001600160a01b038916476128fe565b50613bf4565b60018160ff16600181111561397857fe5b600181111561398357fe5b1415613bf45760008280602001905181019061399f9190614cf3565b90506000613a4f8983600001517f00000000000000000000000000000000000000000000000000000000000000006001600160a01b03166370a08231306040518263ffffffff1660e01b81526004016139f8919061512c565b60206040518083038186803b158015613a1057600080fd5b505afa158015613a24573d6000803e3d6000fd5b505050506040513d601f19601f82011682018060405250810190613a489190614ea9565b60016128b1565b90507f00000000000000000000000000000000000000000000000000000000000000006001600160a01b031663d0e30db0866040518263ffffffff1660e01b81526004016000604051808303818588803b158015613aac57600080fd5b505af1158015613ac0573d6000803e3d6000fd5b505060405163a9059cbb60e01b81526001600160a01b037f000000000000000000000000000000000000000000000000000000000000000016935063a9059cbb9250613b3391507f00000000000000000000000000000000000000000000000000000000000000009089906004016151d7565b602060405180830381600087803b158015613b4d57600080fd5b505af1158015613b61573d6000803e3d6000fd5b505050506040513d601f19601f82011682018060405250810190613b859190614c39565b506000613b92828761254a565b9050896001600160a01b03167f6f3269a64126ef2a1959892f3d921e81865181e09a7f72f55d3a49550c53b48d8783604051613bcf9291906159c2565b60405180910390a28015613bf057613bf06001600160a01b038b16826128fe565b5050505b50505050505050565b80820182811015610aaa576040805162461bcd60e51b815260206004820152601460248201527f64732d6d6174682d6164642d6f766572666c6f77000000000000000000000000604482015290519081900360640190fd5b600080613ce97f00000000000000000000000000000000000000000000000000000000000000007f00000000000000000000000000000000000000000000000000000000000000007f00000000000000000000000000000000000000000000000000000000000000007f00000000000000000000000000000000000000000000000000000000000000006101a46000614881565b90506000600560019054906101000a90046001600160a01b03166001600160a01b031663978bbdb96040518163ffffffff1660e01b815260040160206040518083038186803b158015613d3b57600080fd5b505afa158015613d4f573d6000803e3d6000fd5b505050506040513d601f19601f82011682018060405250810190613d739190614ea9565b9050613d8561271061316a8484614373565b9250505090565b6000670de0b6b3a7640000613db6613da48585614373565b6002670de0b6b3a76400005b04613bfd565b81613dbd57fe5b049392505050565b600081613db6613ddd85670de0b6b3a7640000614373565b600285613db0565b600080600080613df885600001516136b5565b919450925090506001600160a01b0380831690841610600080613e1c868686614927565b6001600160a01b031663128acb088b85613e358f614965565b6001600160a01b038e1615613e4a578d613e70565b87613e695773fffd8963efd1fc6a506488495d951d5263988d25613e70565b6401000276a45b8d604051602001613e819190615969565b6040516020818303038152906040526040518663ffffffff1660e01b8152600401613eb095949392919061519d565b6040805180830381600087803b158015613ec957600080fd5b505af1158015613edd573d6000803e3d6000fd5b505050506040513d601f19601f82011682018060405250810190613f019190614c55565b9150915082613f105781613f12565b805b6000039b9a5050505050505050505050565b600080600080613f3785600001516136b5565b919450925090506001600160a01b0380841690831610600080613f5b858786614927565b6001600160a01b031663128acb088b85613f748f614965565b6000036001600160a01b038e1615613f8c578d613fb2565b87613fab5773fffd8963efd1fc6a506488495d951d5263988d25613fb2565b6401000276a45b8d604051602001613fc39190615969565b6040516020818303038152906040526040518663ffffffff1660e01b8152600401613ff295949392919061519d565b6040805180830381600087803b15801561400b57600080fd5b505af115801561401f573d6000803e3d6000fd5b505050506040513d601f19601f820116820180604052508101906140439190614c55565b915091506000808461405957828460000361405f565b83836000035b915091508a6001600160a01b031660001415614081578c811461408157600080fd5b509b9a5050505050505050505050565b8061413a576040516323b872dd60e01b81526001600160a01b037f000000000000000000000000000000000000000000000000000000000000000016906323b872dd906140e690879030908890600401615140565b602060405180830381600087803b15801561410057600080fd5b505af1158015614114573d6000803e3d6000fd5b505050506040513d601f19601f820116820180604052508101906141389190614c39565b505b600554604051638632cb0360e01b81526101009091046001600160a01b031690638632cb0390614192907f000000000000000000000000000000000000000000000000000000000000000090879087906004016159d0565b600060405180830381600087803b1580156141ac57600080fd5b505af1158015612619573d6000803e3d6000fd5b4690565b60008383836141d16141c0565b3060405160200180868152602001858152602001848152602001838152602001826001600160a01b03168152602001955050505050506040516020818303038152906040528051906020012090509392505050565b60008282111561427d576040805162461bcd60e51b815260206004820152601e60248201527f536166654d6174683a207375627472616374696f6e206f766572666c6f770000604482015290519081900360640190fd5b50900390565b6001600160a01b0382166142de576040805162461bcd60e51b815260206004820152601f60248201527f45524332303a206d696e7420746f20746865207a65726f206164647265737300604482015290519081900360640190fd5b6142ea600083836129e3565b6002546142f79082612ab2565b6002556001600160a01b03821660009081526020819052604090205461431d9082612ab2565b6001600160a01b0383166000818152602081815260408083209490945583518581529351929391927fddf252ad1be2c89b69c2b068fc378daa952ba7f163c4a11628f55a4df523b3ef9281900390910190a35050565b600081158061438e5750508082028282828161438b57fe5b04145b610aaa576040805162461bcd60e51b815260206004820152601460248201527f64732d6d6174682d6d756c2d6f766572666c6f77000000000000000000000000604482015290519081900360640190fd5b6000808211614435576040805162461bcd60e51b815260206004820152601a60248201527f536166654d6174683a206469766973696f6e206279207a65726f000000000000604482015290519081900360640190fd5b818381613dbd57fe5b6001600160a01b038116600090815260116020526040812061445f81612e84565b915061446a81612e7b565b50919050565b600061447a6129e8565b82604051602001808061190160f01b81525060020183815260200182815260200192505050604051602081830303815290604052805190602001209050919050565b60007f7fffffffffffffffffffffffffffffff5d576e7357a4501ddfe92f46681b20a082111561451d5760405162461bcd60e51b8152600401808060200182810382526022815260200180615b4c6022913960400191505060405180910390fd5b8360ff16601b148061453257508360ff16601c145b61456d5760405162461bcd60e51b8152600401808060200182810382526022815260200180615b6e6022913960400191505060405180910390fd5b600060018686868660405160008152602001604052604051808581526020018460ff1681526020018381526020018281526020019450505050506020604051602081039080840390855afa1580156145c9573d6000803e3d6000fd5b5050604051601f1901519150506001600160a01b0381166136fc576040805162461bcd60e51b815260206004820152601860248201527f45434453413a20696e76616c6964207369676e61747572650000000000000000604482015290519081900360640190fd5b6000806146486146418587613bfd565b8690613dc5565b905082156146775761466f614665670de0b6b3a76400008361254a565b6125268584613d8c565b915050610dbd565b50929392505050565b6000818260140110156146da576040805162461bcd60e51b815260206004820152601260248201527f746f416464726573735f6f766572666c6f770000000000000000000000000000604482015290519081900360640190fd5b8160140183511015614733576040805162461bcd60e51b815260206004820152601560248201527f746f416464726573735f6f75744f66426f756e64730000000000000000000000604482015290519081900360640190fd5b5001602001516c01000000000000000000000000900490565b6000818260030110156147a6576040805162461bcd60e51b815260206004820152601160248201527f746f55696e7432345f6f766572666c6f77000000000000000000000000000000604482015290519081900360640190fd5b81600301835110156147ff576040805162461bcd60e51b815260206004820152601460248201527f746f55696e7432345f6f75744f66426f756e6473000000000000000000000000604482015290519081900360640190fd5b50016003015190565b614810614a77565b826001600160a01b0316846001600160a01b0316111561482e579192915b50604080516060810182526001600160a01b03948516815292909316602083015262ffffff169181019190915290565b600061486a838361497b565b9050336001600160a01b03821614610aaa57600080fd5b6040805163cce79bd560e01b81526001600160a01b0387811660048301528681166024830152858116604483015263ffffffff851660648301528315156084830152915160009289169163cce79bd59160a4808301926020929190829003018186803b1580156148f057600080fd5b505afa158015614904573d6000803e3d6000fd5b505050506040513d602081101561491a57600080fd5b5051979650505050505050565b600061495d7f0000000000000000000000000000000000000000000000000000000000000000614958868686614808565b61497b565b949350505050565b6000600160ff1b821061497757600080fd5b5090565b600081602001516001600160a01b031682600001516001600160a01b0316106149a357600080fd5b50805160208083015160409384015184516001600160a01b0394851681850152939091168385015262ffffff166060808401919091528351808403820181526080840185528051908301207fff0000000000000000000000000000000000000000000000000000000000000060a085015294901b6bffffffffffffffffffffffff191660a183015260b58201939093527fe34f199b19b2b4f47f68442619d555527d244f78a3297ea89325f843f87b8b5460d5808301919091528251808303909101815260f5909101909152805191012090565b604080516060810182526000808252602082018190529181019190915290565b803561151881615a29565b803561151881615a3e565b600082601f830112614abd578081fd5b813567ffffffffffffffff811115614ad157fe5b614ae4601f8201601f1916602001615a05565b818152846020838601011115614af8578283fd5b816020850160208301379081016020019190915292915050565b600060208284031215614b23578081fd5b6040516020810181811067ffffffffffffffff82111715614b4057fe5b6040529151825250919050565b803560ff8116811461151857600080fd5b600060208284031215614b6f578081fd5b8135610dbd81615a29565b600060208284031215614b8b578081fd5b8151610dbd81615a29565b60008060408385031215614ba8578081fd5b8235614bb381615a29565b91506020830135614bc381615a29565b809150509250929050565b600080600060608486031215614be2578081fd5b8335614bed81615a29565b92506020840135614bfd81615a29565b929592945050506040919091013590565b60008060408385031215614c20578182fd5b8235614c2b81615a29565b946020939093013593505050565b600060208284031215614c4a578081fd5b8151610dbd81615a3e565b60008060408385031215614c67578182fd5b505080516020909101519092909150565b60008060008060608587031215614c8d578182fd5b8435935060208501359250604085013567ffffffffffffffff80821115614cb2578384fd5b818701915087601f830112614cc5578384fd5b813581811115614cd3578485fd5b886020828501011115614ce4578485fd5b95989497505060200194505050565b600060208284031215614d04578081fd5b610dbd8383614b12565b600060208284031215614d1f578081fd5b813567ffffffffffffffff80821115614d36578283fd5b9083019060808286031215614d49578283fd5b604051608081018181108382111715614d5e57fe5b604052823582811115614d6f578485fd5b614d7b87828601614aad565b825250614d8a60208401614a97565b6020820152614d9b60408401614b4d565b6040820152606083013582811115614db1578485fd5b614dbd87828601614aad565b60608301525095945050505050565b600060808284031215614ddd578081fd5b6040516080810181811067ffffffffffffffff82111715614dfa57fe5b6040528251614e0881615a29565b81526020830151614e1881615a4c565b602082015260408301516bffffffffffffffffffffffff81168114614e3b578283fd5b604082015260608301516fffffffffffffffffffffffffffffffff81168114614e62578283fd5b60608201529392505050565b600060208284031215614e7f578081fd5b815162ffffff81168114610dbd578182fd5b600060208284031215614ea2578081fd5b5035919050565b600060208284031215614eba578081fd5b5051919050565b60008060408385031215614ed3578182fd5b50508035926020909101359150565b60008060008060808587031215614ef7578182fd5b843593506020808601359350604080870135614f1281615a3e565b9350606087013567ffffffffffffffff80821115614f2e578485fd5b818901915089601f830112614f41578485fd5b813581811115614f4d57fe5b614f5a8586830201615a05565b8181528581019250838601610140808402860188018e1015614f7a578889fd5b8895505b838610156150245780828f031215614f94578889fd5b614f9d81615a05565b82358152614fac898401614a97565b89820152878301358882015260608301356060820152614fce60808401614aa2565b608082015260a083013560a082015260c083013560c0820152614ff360e08401614b4d565b60e0820152610100838101359082015261012080840135908201528552600195909501949387019390810190614f7e565b505080965050505050505092959194509250565b6000806000806080858703121561504d578182fd5b5050823594602084013594506040840135936060013592509050565b60006020828403121561507a578081fd5b8135610dbd81615a4c565b60008151808452815b818110156150aa5760208185018101518683018201520161508e565b818111156150bb5782602083870101525b50601f01601f19169290920160200192915050565b606093841b6bffffffffffffffffffffffff19908116825260e89390931b7fffffff0000000000000000000000000000000000000000000000000000000000166014820152921b166017820152602b0190565b90815260200190565b6001600160a01b0391909116815260200190565b6001600160a01b039384168152919092166020820152604081019190915260600190565b6001600160a01b039586168152938516602085015291909316604083015263ffffffff9092166060820152901515608082015260a00190565b60006001600160a01b038088168352861515602084015285604084015280851660608401525060a060808301526128f360a0830184615085565b6001600160a01b03929092168252602082015260400190565b6001600160a01b039590951685526020850193909352604084019190915215156060830152608082015260a00190565b6001600160a01b0394909416845260208401929092526040830152606082015260800190565b901515815260200190565b97885260208801969096526001600160a01b0394909416604087015260608601929092526080850152151560a084015260c083015260e08201526101000190565b600060208252610dbd6020830184615085565b60208082526018908201527f616d6f756e74206f7574206c657373207468616e206d696e0000000000000000604082015260600190565b6020808252601b908201527f6e6f742043726162204d6967726174696f6e20636f6e74726163740000000000604082015260600190565b6020808252601d908201527f696e76616c6964206865646765207072696365207468726573686f6c64000000604082015260600190565b6020808252601c908201527f696e76616c69642068656467652074696d65207468726573686f6c6400000000604082015260600190565b6020808252601b908201527f4372616220563220616c726561647920696e697469616c697a65640000000000604082015260600190565b6020808252601b908201527f707269636520746f6c6572616e636520697320746f6f20686967680000000000604082015260600190565b6020808252601d908201527f43726162206d7573742072656465656d53686f727453687574646f776e000000604082015260600190565b6020808252601a908201527f616d6f756e7420696e2067726561746572207468616e206d6178000000000000604082015260600190565b60208082526027908201527f507269636520746f6f206c6f772072656c617469766520746f20556e6973776160408201527f7020747761702e00000000000000000000000000000000000000000000000000606082015260800190565b6020808252818101527f4f726465727320617265206e6f7420617272616e6765642070726f7065726c79604082015260600190565b6020808252602a908201527f436c656172696e672050726963652073686f756c642062652061626f7665206f60408201527f6666657220707269636500000000000000000000000000000000000000000000606082015260800190565b60208082526028908201527f507269636520746f6f20686967682072656c617469766520746f20556e69737760408201527f617020747761702e000000000000000000000000000000000000000000000000606082015260800190565b6020808252601c908201527f436f6e7472616374206e6f742079657420696e697469616c697a656400000000604082015260600190565b60208082526021908201527f54696d65206f72205072696365206973206e6f742077697468696e2072616e676040820152606560f81b606082015260800190565b60208082526018908201527f4372616220636f6e747261637473207368757420646f776e0000000000000000604082015260600190565b60208082526012908201527f43616e6e6f742072656365697665206574680000000000000000000000000000604082015260600190565b6020808252601c908201527f4465706f73697420657863656564732073747261746567792063617000000000604082015260600190565b60208082526026908201527f4d616e616765722050726963652073686f756c6420626520677265617465722060408201527f7468616e20300000000000000000000000000000000000000000000000000000606082015260800190565b60208082526011908201527f4f72646572206861732065787069726564000000000000000000000000000000604082015260600190565b6020808252602b908201527f416c6c206f7264657273206d7573742062652065697468657220627579696e6760408201527f206f722073656c6c696e67000000000000000000000000000000000000000000606082015260800190565b60208082526017908201527f496e76616c6964206f66666572207369676e6174757265000000000000000000604082015260600190565b60208082526028908201527f436c656172696e672050726963652073686f756c642062652062656c6f77206260408201527f6964207072696365000000000000000000000000000000000000000000000000606082015260800190565b6020808252601f908201527f5371756565746820636f6e747261637473206e6f74207368757420646f776e00604082015260600190565b60208082526016908201527f43616c6c6572206973206e6f742074696d656c6f636b00000000000000000000604082015260600190565b60208082526018908201527f7477617020706572696f6420697320746f6f2073686f72740000000000000000604082015260600190565b6020808252602b908201527f4f7264657273206d75737420626520627579696e67207768656e20686564676560408201527f2069732073656c6c696e67000000000000000000000000000000000000000000606082015260800190565b602080825260029082015261433560f01b604082015260600190565b60006020825282516080602084015261598560a0840182615085565b90506001600160a01b03602085015116604084015260ff60408501511660608401526060840151601f198483030160808501526136fc8282615085565b918252602082015260400190565b9283526020830191909152604082015260600190565b63ffffffff91909116815260200190565b60ff91909116815260200190565b60405181810167ffffffffffffffff81118282101715615a2157fe5b604052919050565b6001600160a01b0381168114610b2d57600080fd5b8015158114610b2d57600080fd5b63ffffffff81168114610b2d57600080fdfe45524332303a207472616e7366657220746f20746865207a65726f206164647265737345524332303a206275726e20616d6f756e7420657863656564732062616c616e63654f776e61626c653a206e6577206f776e657220697320746865207a65726f206164647265737345524332303a20617070726f766520746f20746865207a65726f206164647265737345524332303a207472616e7366657220616d6f756e7420657863656564732062616c616e6365416464726573733a20756e61626c6520746f2073656e642076616c75652c20726563697069656e74206d6179206861766520726576657274656445434453413a20696e76616c6964207369676e6174757265202773272076616c756545434453413a20696e76616c6964207369676e6174757265202776272076616c756545524332303a207472616e7366657220616d6f756e74206578636565647320616c6c6f77616e636545524332303a206275726e2066726f6d20746865207a65726f206164647265737345524332303a207472616e736665722066726f6d20746865207a65726f206164647265737345524332303a20617070726f76652066726f6d20746865207a65726f206164647265737345524332303a2064656372656173656420616c6c6f77616e63652062656c6f77207a65726fa264697066735822122001c615d5a99e70658ef44e140fd4f0c86305bbb69221c2b086ef0e63e1fc0a5564736f6c63430007060033",
  "devdoc": {
    "author": "Opyn team",
    "details": "CrabStrategyV2 contract",
    "kind": "dev",
    "methods": {
      "DOMAIN_SEPARATOR()": {
        "details": "view function to get the domain seperator used in signing"
      },
      "allowance(address,address)": {
        "details": "See {IERC20-allowance}."
      },
      "approve(address,uint256)": {
        "details": "See {IERC20-approve}. Requirements: - `spender` cannot be the zero address."
      },
      "balanceOf(address)": {
        "details": "See {IERC20-balanceOf}."
      },
      "checkPriceHedge()": {
        "returns": {
          "_0": "true if hedging is allowed"
        }
      },
      "checkTimeHedge()": {
        "returns": {
          "_0": "true if hedging is allowed"
        }
      },
      "constructor": {
        "details": "this will open a vault in the power token contract and store the vault ID",
        "params": {
          "_ethWSqueethPool": "eth:wSqueeth uniswap pool address",
          "_hedgePriceThreshold": "hedge price threshold (0.1*1e18 = 10%)",
          "_hedgeTimeThreshold": "hedge time threshold (seconds)",
          "_oracle": "oracle address",
          "_uniswapFactory": "uniswap factory address",
          "_wSqueethController": "power token controller address",
          "_weth": "weth address"
        }
      },
      "decimals()": {
        "details": "Returns the number of decimals used to get its user representation. For example, if `decimals` equals `2`, a balance of `505` tokens should be displayed to a user as `5,05` (`505 / 10 ** 2`). Tokens usually opt for a value of 18, imitating the relationship between Ether and Wei. This is the value {ERC20} uses, unless {_setupDecimals} is called. NOTE: This information is only used for _display_ purposes: it in no way affects any of the arithmetic of the contract, including {IERC20-balanceOf} and {IERC20-transfer}."
      },
      "decreaseAllowance(address,uint256)": {
        "details": "Atomically decreases the allowance granted to `spender` by the caller. This is an alternative to {approve} that can be used as a mitigation for problems described in {IERC20-approve}. Emits an {Approval} event indicating the updated allowance. Requirements: - `spender` cannot be the zero address. - `spender` must have allowance for the caller of at least `subtractedValue`."
      },
      "deposit()": {
        "details": "provide ETH, return wSqueeth and strategy token"
      },
      "flashDeposit(uint256)": {
        "details": "this function will execute a flash swap where it receives ETH, deposits and mints using flash swap proceeds and msg.value, and then repays the flash swap with wSqueeth_ethToDeposit must be less than msg.value plus the proceeds from the flash swapthe difference between _ethToDeposit and msg.value provides the minimum that a user can receive for their sold wSqueeth",
        "params": {
          "_ethToDeposit": "total ETH that will be deposited in to the strategy which is a combination of msg.value and flash swap proceeds"
        }
      },
      "flashWithdraw(uint256,uint256)": {
        "details": "this function will execute a flash swap where it receives wSqueeth, burns, withdraws ETH and then repays the flash swap with ETH",
        "params": {
          "_crabAmount": "strategy token amount to burn",
          "_maxEthToPay": "maximum ETH to pay to buy back the owed wSqueeth debt"
        }
      },
      "getStrategyVaultId()": {
        "returns": {
          "_0": "vault ID"
        }
      },
      "getVaultDetails()": {
        "returns": {
          "_0": "operator",
          "_1": "nft collateral id",
          "_2": "collateral amount",
          "_3": "short amount"
        }
      },
      "getWsqueethFromCrabAmount(uint256)": {
        "params": {
          "_crabAmount": "strategy token amount"
        },
        "returns": {
          "_0": "wSqueeth amount"
        }
      },
      "hedgeOTC(uint256,uint256,bool,(uint256,address,uint256,uint256,bool,uint256,uint256,uint8,bytes32,bytes32)[])": {
        "details": "hedge function to reduce delta using an array of signed orders",
        "params": {
          "_clearingPrice": "clearing price in weth",
          "_isHedgeBuying": "direction of hedge trade",
          "_orders": "an array of signed order to swap tokens",
          "_totalQuantity": "quantity the manager wants to trade"
        }
      },
      "increaseAllowance(address,uint256)": {
        "details": "Atomically increases the allowance granted to `spender` by the caller. This is an alternative to {approve} that can be used as a mitigation for problems described in {IERC20-approve}. Emits an {Approval} event indicating the updated allowance. Requirements: - `spender` cannot be the zero address."
      },
      "name()": {
        "details": "Returns the name of the token."
      },
      "nonces(address)": {
        "details": "get current nonce of the address",
        "params": {
          "_owner": "address of signer"
        },
        "returns": {
          "_0": "current the current nonce of the address"
        }
      },
      "owner()": {
        "details": "Returns the address of the current owner."
      },
      "redeemShortShutdown()": {
        "details": "needs to be called 1 time before users can exit the strategy using withdrawShutdown"
      },
      "renounceOwnership()": {
        "details": "Leaves the contract without owner. It will not be possible to call `onlyOwner` functions anymore. Can only be called by the current owner. NOTE: Renouncing ownership will leave the contract without an owner, thereby removing any functionality that is only available to the owner."
      },
      "setHedgePriceThreshold(uint256)": {
        "params": {
          "_hedgePriceThreshold": "the hedge price threshold, in percent, scaled by 1e18"
        }
      },
      "setHedgeTimeThreshold(uint256)": {
        "params": {
          "_hedgeTimeThreshold": "the hedge time threshold, in seconds"
        }
      },
      "setHedgingTwapPeriod(uint32)": {
        "params": {
          "_hedgingTwapPeriod": "the twap period, in seconds"
        }
      },
      "setOTCPriceTolerance(uint256)": {
        "params": {
          "_otcPriceTolerance": "the OTC price tolerance, in percent, scaled by 1e18"
        }
      },
      "setStrategyCap(uint256)": {
        "details": "deposits are rejected if it would put the strategy above the cap amountstrategy collateral can be above the cap amount due to hedging activities",
        "params": {
          "_capAmount": "the maximum strategy collateral in ETH, checked on deposits"
        }
      },
      "symbol()": {
        "details": "Returns the symbol of the token, usually a shorter version of the name."
      },
      "totalSupply()": {
        "details": "See {IERC20-totalSupply}."
      },
      "transfer(address,uint256)": {
        "details": "See {IERC20-transfer}. Requirements: - `recipient` cannot be the zero address. - the caller must have a balance of at least `amount`."
      },
      "transferFrom(address,address,uint256)": {
        "details": "See {IERC20-transferFrom}. Emits an {Approval} event indicating the updated allowance. This is not required by the EIP. See the note at the beginning of {ERC20}. Requirements: - `sender` and `recipient` cannot be the zero address. - `sender` must have a balance of at least `amount`. - the caller must have allowance for ``sender``'s tokens of at least `amount`."
      },
      "transferOwnership(address)": {
        "details": "Transfers ownership of the contract to a new account (`newOwner`). Can only be called by the current owner."
      },
      "transferVault(address)": {
        "details": "strategy cap is set to 0 to avoid future deposits."
      },
      "uniswapV3SwapCallback(int256,int256,bytes)": {
        "params": {
          "_data": "callback data encoded as SwapCallbackData struct",
          "amount0Delta": "amount of token0",
          "amount1Delta": "amount of token1"
        }
      },
      "withdraw(uint256)": {
        "details": "provide strategy tokens and wSqueeth, returns eth",
        "params": {
          "_crabAmount": "amount of strategy token to burn"
        }
      },
      "withdrawShutdown(uint256)": {
        "params": {
          "_crabAmount": "amount of strategy token to burn"
        }
      }
    },
    "stateVariables": {
      "ONE": {
        "details": "basic unit used for calculation"
      },
      "POWER_PERP_PERIOD": {
        "details": "the TWAP_PERIOD used in the PowerPerp Controller contract"
      },
      "_CRAB_BALANCE_TYPEHASH": {
        "details": "typehash for signed orders"
      },
      "_nonces": {
        "details": "store the current nonce for each address"
      },
      "ethWSqueethPool": {
        "details": "ETH:WSqueeth uniswap pool"
      },
      "hasRedeemedInShutdown": {
        "details": "set to true when redeemShortShutdown has been called"
      },
      "hedgePriceThreshold": {
        "details": "price movement to trigger a hedge (0.1*1e18 = 10%)"
      },
      "hedgeTimeThreshold": {
        "details": "time difference to trigger a hedge (seconds)"
      },
      "hedgingTwapPeriod": {
        "details": "twap period to use for hedge calculations"
      },
      "isInitialized": {
        "details": "true if CrabV2 was initialized"
      },
      "oracle": {
        "details": "strategy uniswap oracle"
      },
      "priceAtLastHedge": {
        "details": "WSqueeth/Eth price when last hedge executed"
      },
      "strategyCap": {
        "details": "the cap in ETH for the strategy, above which deposits will be rejected"
      },
      "timeAtLastHedge": {
        "details": "timestamp when last hedge executed"
      }
    },
    "version": 1
  },
  "userdoc": {
    "kind": "user",
    "methods": {
      "checkPriceHedge()": {
        "notice": "check if hedging based on price threshold is allowed"
      },
      "checkTimeHedge()": {
        "notice": "check if hedging based on time threshold is allowed"
      },
      "constructor": {
        "notice": "strategy constructor"
      },
      "deposit()": {
        "notice": "deposit ETH into strategy"
      },
      "flashDeposit(uint256)": {
        "notice": "flash deposit into strategy, providing ETH, selling wSqueeth and receiving strategy tokens"
      },
      "flashWithdraw(uint256,uint256)": {
        "notice": "flash withdraw from strategy, providing strategy tokens, buying wSqueeth, burning and receiving ETH"
      },
      "getStrategyVaultId()": {
        "notice": "get power token strategy vault ID "
      },
      "getVaultDetails()": {
        "notice": "get the vault composition of the strategy "
      },
      "getWsqueethFromCrabAmount(uint256)": {
        "notice": "get wSqueeth debt amount associated with strategy token amount"
      },
      "initialize(uint256,uint256,uint256,uint256)": {
        "notice": "initializes the collateral ratio upon the first migration"
      },
      "redeemShortShutdown()": {
        "notice": "called to redeem the net value of a vault post shutdown"
      },
      "setHedgePriceThreshold(uint256)": {
        "notice": "owner can set the hedge time threshold in percent, scaled by 1e18 that determines the deviation in wPowerPerp price that can trigger a rebalance"
      },
      "setHedgeTimeThreshold(uint256)": {
        "notice": "owner can set the hedge time threshold in seconds that determines how often the strategy can be hedged"
      },
      "setHedgingTwapPeriod(uint32)": {
        "notice": "owner can set the twap period in seconds that is used for calculating twaps for hedging"
      },
      "setOTCPriceTolerance(uint256)": {
        "notice": "owner can set a threshold, scaled by 1e18 that determines the maximum discount of a clearing sale price to the current uniswap twap price"
      },
      "setStrategyCap(uint256)": {
        "notice": "owner can set the strategy cap in ETH collateral terms"
      },
      "transferVault(address)": {
        "notice": "Tranfer vault NFT to new contract"
      },
      "uniswapV3SwapCallback(int256,int256,bytes)": {
        "notice": "uniswap swap callback function for flashes"
      },
      "withdraw(uint256)": {
        "notice": "withdraw WETH from strategy"
      },
      "withdrawShutdown(uint256)": {
        "notice": "called to exit a vault if the Squeeth Power Perp contracts are shutdown"
      }
    },
    "notice": "Contract for Crab strategy",
    "version": 1
  },
  "storageLayout": {
    "storage": [
      {
        "astId": 881,
        "contract": "contracts/strategy/CrabStrategyV2.sol:CrabStrategyV2",
        "label": "_balances",
        "offset": 0,
        "slot": "0",
        "type": "t_mapping(t_address,t_uint256)"
      },
      {
        "astId": 887,
        "contract": "contracts/strategy/CrabStrategyV2.sol:CrabStrategyV2",
        "label": "_allowances",
        "offset": 0,
        "slot": "1",
        "type": "t_mapping(t_address,t_mapping(t_address,t_uint256))"
      },
      {
        "astId": 889,
        "contract": "contracts/strategy/CrabStrategyV2.sol:CrabStrategyV2",
        "label": "_totalSupply",
        "offset": 0,
        "slot": "2",
        "type": "t_uint256"
      },
      {
        "astId": 891,
        "contract": "contracts/strategy/CrabStrategyV2.sol:CrabStrategyV2",
        "label": "_name",
        "offset": 0,
        "slot": "3",
        "type": "t_string_storage"
      },
      {
        "astId": 893,
        "contract": "contracts/strategy/CrabStrategyV2.sol:CrabStrategyV2",
        "label": "_symbol",
        "offset": 0,
        "slot": "4",
        "type": "t_string_storage"
      },
      {
        "astId": 895,
        "contract": "contracts/strategy/CrabStrategyV2.sol:CrabStrategyV2",
        "label": "_decimals",
        "offset": 0,
        "slot": "5",
        "type": "t_uint8"
      },
      {
        "astId": 27119,
        "contract": "contracts/strategy/CrabStrategyV2.sol:CrabStrategyV2",
        "label": "powerTokenController",
        "offset": 1,
        "slot": "5",
        "type": "t_contract(IController)11654"
      },
      {
        "astId": 4226,
        "contract": "contracts/strategy/CrabStrategyV2.sol:CrabStrategyV2",
        "label": "_status",
        "offset": 0,
        "slot": "6",
        "type": "t_uint256"
      },
      {
        "astId": 7,
        "contract": "contracts/strategy/CrabStrategyV2.sol:CrabStrategyV2",
        "label": "_owner",
        "offset": 0,
        "slot": "7",
        "type": "t_address"
      },
      {
        "astId": 25126,
        "contract": "contracts/strategy/CrabStrategyV2.sol:CrabStrategyV2",
        "label": "strategyCap",
        "offset": 0,
        "slot": "8",
        "type": "t_uint256"
      },
      {
        "astId": 25140,
        "contract": "contracts/strategy/CrabStrategyV2.sol:CrabStrategyV2",
        "label": "otcPriceTolerance",
        "offset": 0,
        "slot": "9",
        "type": "t_uint256"
      },
      {
        "astId": 25143,
        "contract": "contracts/strategy/CrabStrategyV2.sol:CrabStrategyV2",
        "label": "maxOTCPriceTolerance",
        "offset": 0,
        "slot": "10",
        "type": "t_uint256"
      },
      {
        "astId": 25147,
        "contract": "contracts/strategy/CrabStrategyV2.sol:CrabStrategyV2",
        "label": "hedgingTwapPeriod",
        "offset": 0,
        "slot": "11",
        "type": "t_uint32"
      },
      {
        "astId": 25150,
        "contract": "contracts/strategy/CrabStrategyV2.sol:CrabStrategyV2",
        "label": "isInitialized",
        "offset": 4,
        "slot": "11",
        "type": "t_bool"
      },
      {
        "astId": 25176,
        "contract": "contracts/strategy/CrabStrategyV2.sol:CrabStrategyV2",
        "label": "hedgeTimeThreshold",
        "offset": 0,
        "slot": "12",
        "type": "t_uint256"
      },
      {
        "astId": 25179,
        "contract": "contracts/strategy/CrabStrategyV2.sol:CrabStrategyV2",
        "label": "hedgePriceThreshold",
        "offset": 0,
        "slot": "13",
        "type": "t_uint256"
      },
      {
        "astId": 25182,
        "contract": "contracts/strategy/CrabStrategyV2.sol:CrabStrategyV2",
        "label": "timeAtLastHedge",
        "offset": 0,
        "slot": "14",
        "type": "t_uint256"
      },
      {
        "astId": 25185,
        "contract": "contracts/strategy/CrabStrategyV2.sol:CrabStrategyV2",
        "label": "priceAtLastHedge",
        "offset": 0,
        "slot": "15",
        "type": "t_uint256"
      },
      {
        "astId": 25188,
        "contract": "contracts/strategy/CrabStrategyV2.sol:CrabStrategyV2",
        "label": "hasRedeemedInShutdown",
        "offset": 0,
        "slot": "16",
        "type": "t_bool"
      },
      {
        "astId": 25193,
        "contract": "contracts/strategy/CrabStrategyV2.sol:CrabStrategyV2",
        "label": "_nonces",
        "offset": 0,
        "slot": "17",
        "type": "t_mapping(t_address,t_struct(Counter)3123_storage)"
      }
    ],
    "types": {
      "t_address": {
        "encoding": "inplace",
        "label": "address",
        "numberOfBytes": "20"
      },
      "t_bool": {
        "encoding": "inplace",
        "label": "bool",
        "numberOfBytes": "1"
      },
      "t_contract(IController)11654": {
        "encoding": "inplace",
        "label": "contract IController",
        "numberOfBytes": "20"
      },
      "t_mapping(t_address,t_mapping(t_address,t_uint256))": {
        "encoding": "mapping",
        "key": "t_address",
        "label": "mapping(address => mapping(address => uint256))",
        "numberOfBytes": "32",
        "value": "t_mapping(t_address,t_uint256)"
      },
      "t_mapping(t_address,t_struct(Counter)3123_storage)": {
        "encoding": "mapping",
        "key": "t_address",
        "label": "mapping(address => struct Counters.Counter)",
        "numberOfBytes": "32",
        "value": "t_struct(Counter)3123_storage"
      },
      "t_mapping(t_address,t_uint256)": {
        "encoding": "mapping",
        "key": "t_address",
        "label": "mapping(address => uint256)",
        "numberOfBytes": "32",
        "value": "t_uint256"
      },
      "t_string_storage": {
        "encoding": "bytes",
        "label": "string",
        "numberOfBytes": "32"
      },
      "t_struct(Counter)3123_storage": {
        "encoding": "inplace",
        "label": "struct Counters.Counter",
        "members": [
          {
            "astId": 3122,
            "contract": "contracts/strategy/CrabStrategyV2.sol:CrabStrategyV2",
            "label": "_value",
            "offset": 0,
            "slot": "0",
            "type": "t_uint256"
          }
        ],
        "numberOfBytes": "32"
      },
      "t_uint256": {
        "encoding": "inplace",
        "label": "uint256",
        "numberOfBytes": "32"
      },
      "t_uint32": {
        "encoding": "inplace",
        "label": "uint32",
        "numberOfBytes": "4"
      },
      "t_uint8": {
        "encoding": "inplace",
        "label": "uint8",
        "numberOfBytes": "1"
      }
    }
  }
}