{
  "address": "0x0637A9184cf4DD294F8AfA3963DeAC2Dfadfb00F",
  "abi": [
    {
      "inputs": [
        {
          "internalType": "address",
          "name": "_wSqueethController",
          "type": "address"
        },
        {
          "internalType": "address",
          "name": "_oracle",
          "type": "address"
        },
        {
          "internalType": "address",
          "name": "_weth",
          "type": "address"
        },
        {
          "internalType": "address",
          "name": "_uniswapFactory",
          "type": "address"
        },
        {
          "internalType": "address",
          "name": "_ethWSqueethPool",
          "type": "address"
        },
        {
          "internalType": "uint256",
          "name": "_hedgeTimeThreshold",
          "type": "uint256"
        },
        {
          "internalType": "uint256",
          "name": "_hedgePriceThreshold",
          "type": "uint256"
        },
        {
          "internalType": "uint256",
          "name": "_auctionTime",
          "type": "uint256"
        },
        {
          "internalType": "uint256",
          "name": "_minPriceMultiplier",
          "type": "uint256"
        },
        {
          "internalType": "uint256",
          "name": "_maxPriceMultiplier",
          "type": "uint256"
        }
      ],
      "stateMutability": "nonpayable",
      "type": "constructor"
    },
    {
      "anonymous": false,
      "inputs": [
        {
          "indexed": true,
          "internalType": "address",
          "name": "owner",
          "type": "address"
        },
        {
          "indexed": true,
          "internalType": "address",
          "name": "spender",
          "type": "address"
        },
        {
          "indexed": false,
          "internalType": "uint256",
          "name": "value",
          "type": "uint256"
        }
      ],
      "name": "Approval",
      "type": "event"
    },
    {
      "anonymous": false,
      "inputs": [
        {
          "indexed": true,
          "internalType": "address",
          "name": "depositor",
          "type": "address"
        },
        {
          "indexed": false,
          "internalType": "uint256",
          "name": "wSqueethAmount",
          "type": "uint256"
        },
        {
          "indexed": false,
          "internalType": "uint256",
          "name": "lpAmount",
          "type": "uint256"
        }
      ],
      "name": "Deposit",
      "type": "event"
    },
    {
      "anonymous": false,
      "inputs": [
        {
          "indexed": true,
          "internalType": "address",
          "name": "seller",
          "type": "address"
        },
        {
          "indexed": false,
          "internalType": "uint256",
          "name": "wSqueethBought",
          "type": "uint256"
        },
        {
          "indexed": false,
          "internalType": "uint256",
          "name": "ethSold",
          "type": "uint256"
        },
        {
          "indexed": false,
          "internalType": "bool",
          "name": "isHedgingOnUniswap",
          "type": "bool"
        }
      ],
      "name": "ExecuteBuyAuction",
      "type": "event"
    },
    {
      "anonymous": false,
      "inputs": [
        {
          "indexed": true,
          "internalType": "address",
          "name": "buyer",
          "type": "address"
        },
        {
          "indexed": false,
          "internalType": "uint256",
          "name": "wSqueethSold",
          "type": "uint256"
        },
        {
          "indexed": false,
          "internalType": "uint256",
          "name": "ethBought",
          "type": "uint256"
        },
        {
          "indexed": false,
          "internalType": "bool",
          "name": "isHedgingOnUniswap",
          "type": "bool"
        }
      ],
      "name": "ExecuteSellAuction",
      "type": "event"
    },
    {
      "anonymous": false,
      "inputs": [
        {
          "indexed": true,
          "internalType": "address",
          "name": "depositor",
          "type": "address"
        },
        {
          "indexed": false,
          "internalType": "uint256",
          "name": "depositedAmount",
          "type": "uint256"
        },
        {
          "indexed": false,
          "internalType": "uint256",
          "name": "tradedAmountOut",
          "type": "uint256"
        }
      ],
      "name": "FlashDeposit",
      "type": "event"
    },
    {
      "anonymous": false,
      "inputs": [
        {
          "indexed": true,
          "internalType": "address",
          "name": "depositor",
          "type": "address"
        },
        {
          "indexed": false,
          "internalType": "uint256",
          "name": "flashswapDebt",
          "type": "uint256"
        },
        {
          "indexed": false,
          "internalType": "uint256",
          "name": "excess",
          "type": "uint256"
        }
      ],
      "name": "FlashDepositCallback",
      "type": "event"
    },
    {
      "anonymous": false,
      "inputs": [
        {
          "indexed": true,
          "internalType": "address",
          "name": "withdrawer",
          "type": "address"
        },
        {
          "indexed": false,
          "internalType": "uint256",
          "name": "crabAmount",
          "type": "uint256"
        },
        {
          "indexed": false,
          "internalType": "uint256",
          "name": "wSqueethAmount",
          "type": "uint256"
        }
      ],
      "name": "FlashWithdraw",
      "type": "event"
    },
    {
      "anonymous": false,
      "inputs": [
        {
          "indexed": true,
          "internalType": "address",
          "name": "withdrawer",
          "type": "address"
        },
        {
          "indexed": false,
          "internalType": "uint256",
          "name": "flashswapDebt",
          "type": "uint256"
        },
        {
          "indexed": false,
          "internalType": "uint256",
          "name": "excess",
          "type": "uint256"
        }
      ],
      "name": "FlashWithdrawCallback",
      "type": "event"
    },
    {
      "anonymous": false,
      "inputs": [
        {
          "indexed": true,
          "internalType": "address",
          "name": "hedger",
          "type": "address"
        },
        {
          "indexed": false,
          "internalType": "bool",
          "name": "auctionType",
          "type": "bool"
        },
        {
          "indexed": false,
          "internalType": "uint256",
          "name": "hedgerPrice",
          "type": "uint256"
        },
        {
          "indexed": false,
          "internalType": "uint256",
          "name": "auctionPrice",
          "type": "uint256"
        },
        {
          "indexed": false,
          "internalType": "uint256",
          "name": "wSqueethHedgeTargetAmount",
          "type": "uint256"
        },
        {
          "indexed": false,
          "internalType": "uint256",
          "name": "ethHedgetargetAmount",
          "type": "uint256"
        }
      ],
      "name": "Hedge",
      "type": "event"
    },
    {
      "anonymous": false,
      "inputs": [
        {
          "indexed": true,
          "internalType": "address",
          "name": "hedger",
          "type": "address"
        },
        {
          "indexed": false,
          "internalType": "bool",
          "name": "auctionType",
          "type": "bool"
        },
        {
          "indexed": false,
          "internalType": "uint256",
          "name": "auctionPrice",
          "type": "uint256"
        },
        {
          "indexed": false,
          "internalType": "uint256",
          "name": "wSqueethHedgeTargetAmount",
          "type": "uint256"
        },
        {
          "indexed": false,
          "internalType": "uint256",
          "name": "ethHedgetargetAmount",
          "type": "uint256"
        }
      ],
      "name": "HedgeOnUniswap",
      "type": "event"
    },
    {
      "anonymous": false,
      "inputs": [
        {
          "indexed": true,
          "internalType": "address",
          "name": "previousOwner",
          "type": "address"
        },
        {
          "indexed": true,
          "internalType": "address",
          "name": "newOwner",
          "type": "address"
        }
      ],
      "name": "OwnershipTransferred",
      "type": "event"
    },
    {
      "anonymous": false,
      "inputs": [
        {
          "indexed": true,
          "internalType": "address",
          "name": "hedger",
          "type": "address"
        },
        {
          "indexed": false,
          "internalType": "bool",
          "name": "auctionType",
          "type": "bool"
        },
        {
          "indexed": false,
          "internalType": "uint256",
          "name": "hedgerPrice",
          "type": "uint256"
        },
        {
          "indexed": false,
          "internalType": "uint256",
          "name": "auctionTriggerTimestamp",
          "type": "uint256"
        }
      ],
      "name": "PriceHedge",
      "type": "event"
    },
    {
      "anonymous": false,
      "inputs": [
        {
          "indexed": true,
          "internalType": "address",
          "name": "hedger",
          "type": "address"
        },
        {
          "indexed": false,
          "internalType": "uint256",
          "name": "hedgeTimestamp",
          "type": "uint256"
        },
        {
          "indexed": false,
          "internalType": "uint256",
          "name": "auctionTriggerTimestamp",
          "type": "uint256"
        },
        {
          "indexed": false,
          "internalType": "uint256",
          "name": "minWSqueeth",
          "type": "uint256"
        },
        {
          "indexed": false,
          "internalType": "uint256",
          "name": "minEth",
          "type": "uint256"
        }
      ],
      "name": "PriceHedgeOnUniswap",
      "type": "event"
    },
    {
      "anonymous": false,
      "inputs": [
        {
          "indexed": false,
          "internalType": "uint256",
          "name": "newCapAmount",
          "type": "uint256"
        },
        {
          "indexed": false,
          "internalType": "uint256",
          "name": "oldCapAmount",
          "type": "uint256"
        }
      ],
      "name": "SetStrategyCap",
      "type": "event"
    },
    {
      "anonymous": false,
      "inputs": [
        {
          "indexed": true,
          "internalType": "address",
          "name": "hedger",
          "type": "address"
        },
        {
          "indexed": false,
          "internalType": "bool",
          "name": "auctionType",
          "type": "bool"
        },
        {
          "indexed": false,
          "internalType": "uint256",
          "name": "hedgerPrice",
          "type": "uint256"
        },
        {
          "indexed": false,
          "internalType": "uint256",
          "name": "auctionTriggerTimestamp",
          "type": "uint256"
        }
      ],
      "name": "TimeHedge",
      "type": "event"
    },
    {
      "anonymous": false,
      "inputs": [
        {
          "indexed": true,
          "internalType": "address",
          "name": "hedger",
          "type": "address"
        },
        {
          "indexed": false,
          "internalType": "uint256",
          "name": "hedgeTimestamp",
          "type": "uint256"
        },
        {
          "indexed": false,
          "internalType": "uint256",
          "name": "auctionTriggerTimestamp",
          "type": "uint256"
        },
        {
          "indexed": false,
          "internalType": "uint256",
          "name": "minWSqueeth",
          "type": "uint256"
        },
        {
          "indexed": false,
          "internalType": "uint256",
          "name": "minEth",
          "type": "uint256"
        }
      ],
      "name": "TimeHedgeOnUniswap",
      "type": "event"
    },
    {
      "anonymous": false,
      "inputs": [
        {
          "indexed": true,
          "internalType": "address",
          "name": "from",
          "type": "address"
        },
        {
          "indexed": true,
          "internalType": "address",
          "name": "to",
          "type": "address"
        },
        {
          "indexed": false,
          "internalType": "uint256",
          "name": "value",
          "type": "uint256"
        }
      ],
      "name": "Transfer",
      "type": "event"
    },
    {
      "anonymous": false,
      "inputs": [
        {
          "indexed": true,
          "internalType": "address",
          "name": "withdrawer",
          "type": "address"
        },
        {
          "indexed": false,
          "internalType": "uint256",
          "name": "crabAmount",
          "type": "uint256"
        },
        {
          "indexed": false,
          "internalType": "uint256",
          "name": "wSqueethAmount",
          "type": "uint256"
        },
        {
          "indexed": false,
          "internalType": "uint256",
          "name": "ethWithdrawn",
          "type": "uint256"
        }
      ],
      "name": "Withdraw",
      "type": "event"
    },
    {
      "anonymous": false,
      "inputs": [
        {
          "indexed": true,
          "internalType": "address",
          "name": "withdrawer",
          "type": "address"
        },
        {
          "indexed": false,
          "internalType": "uint256",
          "name": "crabAmount",
          "type": "uint256"
        },
        {
          "indexed": false,
          "internalType": "uint256",
          "name": "ethWithdrawn",
          "type": "uint256"
        }
      ],
      "name": "WithdrawShutdown",
      "type": "event"
    },
    {
      "inputs": [],
      "name": "DELTA_HEDGE_THRESHOLD",
      "outputs": [
        {
          "internalType": "uint256",
          "name": "",
          "type": "uint256"
        }
      ],
      "stateMutability": "view",
      "type": "function"
    },
    {
      "inputs": [],
      "name": "POWER_PERP_PERIOD",
      "outputs": [
        {
          "internalType": "uint32",
          "name": "",
          "type": "uint32"
        }
      ],
      "stateMutability": "view",
      "type": "function"
    },
    {
      "inputs": [],
      "name": "TWAP_PERIOD",
      "outputs": [
        {
          "internalType": "uint32",
          "name": "",
          "type": "uint32"
        }
      ],
      "stateMutability": "view",
      "type": "function"
    },
    {
      "inputs": [
        {
          "internalType": "address",
          "name": "owner",
          "type": "address"
        },
        {
          "internalType": "address",
          "name": "spender",
          "type": "address"
        }
      ],
      "name": "allowance",
      "outputs": [
        {
          "internalType": "uint256",
          "name": "",
          "type": "uint256"
        }
      ],
      "stateMutability": "view",
      "type": "function"
    },
    {
      "inputs": [
        {
          "internalType": "address",
          "name": "spender",
          "type": "address"
        },
        {
          "internalType": "uint256",
          "name": "amount",
          "type": "uint256"
        }
      ],
      "name": "approve",
      "outputs": [
        {
          "internalType": "bool",
          "name": "",
          "type": "bool"
        }
      ],
      "stateMutability": "nonpayable",
      "type": "function"
    },
    {
      "inputs": [],
      "name": "auctionStartTime",
      "outputs": [
        {
          "internalType": "uint256",
          "name": "",
          "type": "uint256"
        }
      ],
      "stateMutability": "view",
      "type": "function"
    },
    {
      "inputs": [],
      "name": "auctionTime",
      "outputs": [
        {
          "internalType": "uint256",
          "name": "",
          "type": "uint256"
        }
      ],
      "stateMutability": "view",
      "type": "function"
    },
    {
      "inputs": [
        {
          "internalType": "address",
          "name": "account",
          "type": "address"
        }
      ],
      "name": "balanceOf",
      "outputs": [
        {
          "internalType": "uint256",
          "name": "",
          "type": "uint256"
        }
      ],
      "stateMutability": "view",
      "type": "function"
    },
    {
      "inputs": [
        {
          "internalType": "uint256",
          "name": "_auctionTriggerTime",
          "type": "uint256"
        }
      ],
      "name": "canExecuteAuction",
      "outputs": [
        {
          "internalType": "bool",
          "name": "",
          "type": "bool"
        }
      ],
      "stateMutability": "view",
      "type": "function"
    },
    {
      "inputs": [
        {
          "internalType": "uint256",
          "name": "_auctionTriggerTime",
          "type": "uint256"
        }
      ],
      "name": "checkPriceHedge",
      "outputs": [
        {
          "internalType": "bool",
          "name": "",
          "type": "bool"
        }
      ],
      "stateMutability": "view",
      "type": "function"
    },
    {
      "inputs": [],
      "name": "checkTimeHedge",
      "outputs": [
        {
          "internalType": "bool",
          "name": "",
          "type": "bool"
        },
        {
          "internalType": "uint256",
          "name": "",
          "type": "uint256"
        }
      ],
      "stateMutability": "view",
      "type": "function"
    },
    {
      "inputs": [],
      "name": "decimals",
      "outputs": [
        {
          "internalType": "uint8",
          "name": "",
          "type": "uint8"
        }
      ],
      "stateMutability": "view",
      "type": "function"
    },
    {
      "inputs": [
        {
          "internalType": "address",
          "name": "spender",
          "type": "address"
        },
        {
          "internalType": "uint256",
          "name": "subtractedValue",
          "type": "uint256"
        }
      ],
      "name": "decreaseAllowance",
      "outputs": [
        {
          "internalType": "bool",
          "name": "",
          "type": "bool"
        }
      ],
      "stateMutability": "nonpayable",
      "type": "function"
    },
    {
      "inputs": [],
      "name": "deposit",
      "outputs": [
        {
          "internalType": "uint256",
          "name": "",
          "type": "uint256"
        },
        {
          "internalType": "uint256",
          "name": "",
          "type": "uint256"
        }
      ],
      "stateMutability": "payable",
      "type": "function"
    },
    {
      "inputs": [],
      "name": "ethQuoteCurrencyPool",
      "outputs": [
        {
          "internalType": "address",
          "name": "",
          "type": "address"
        }
      ],
      "stateMutability": "view",
      "type": "function"
    },
    {
      "inputs": [],
      "name": "ethWSqueethPool",
      "outputs": [
        {
          "internalType": "address",
          "name": "",
          "type": "address"
        }
      ],
      "stateMutability": "view",
      "type": "function"
    },
    {
      "inputs": [],
      "name": "factory",
      "outputs": [
        {
          "internalType": "address",
          "name": "",
          "type": "address"
        }
      ],
      "stateMutability": "view",
      "type": "function"
    },
    {
      "inputs": [
        {
          "internalType": "uint256",
          "name": "_ethToDeposit",
          "type": "uint256"
        }
      ],
      "name": "flashDeposit",
      "outputs": [],
      "stateMutability": "payable",
      "type": "function"
    },
    {
      "inputs": [
        {
          "internalType": "uint256",
          "name": "_crabAmount",
          "type": "uint256"
        },
        {
          "internalType": "uint256",
          "name": "_maxEthToPay",
          "type": "uint256"
        }
      ],
      "name": "flashWithdraw",
      "outputs": [],
      "stateMutability": "nonpayable",
      "type": "function"
    },
    {
      "inputs": [],
      "name": "getStrategyVaultId",
      "outputs": [
        {
          "internalType": "uint256",
          "name": "",
          "type": "uint256"
        }
      ],
      "stateMutability": "view",
      "type": "function"
    },
    {
      "inputs": [],
      "name": "getVaultDetails",
      "outputs": [
        {
          "internalType": "address",
          "name": "",
          "type": "address"
        },
        {
          "internalType": "uint256",
          "name": "",
          "type": "uint256"
        },
        {
          "internalType": "uint256",
          "name": "",
          "type": "uint256"
        },
        {
          "internalType": "uint256",
          "name": "",
          "type": "uint256"
        }
      ],
      "stateMutability": "view",
      "type": "function"
    },
    {
      "inputs": [
        {
          "internalType": "uint256",
          "name": "_crabAmount",
          "type": "uint256"
        }
      ],
      "name": "getWsqueethFromCrabAmount",
      "outputs": [
        {
          "internalType": "uint256",
          "name": "",
          "type": "uint256"
        }
      ],
      "stateMutability": "view",
      "type": "function"
    },
    {
      "inputs": [],
      "name": "hasRedeemedInShutdown",
      "outputs": [
        {
          "internalType": "bool",
          "name": "",
          "type": "bool"
        }
      ],
      "stateMutability": "view",
      "type": "function"
    },
    {
      "inputs": [],
      "name": "hedgePriceThreshold",
      "outputs": [
        {
          "internalType": "uint256",
          "name": "",
          "type": "uint256"
        }
      ],
      "stateMutability": "view",
      "type": "function"
    },
    {
      "inputs": [],
      "name": "hedgeTimeThreshold",
      "outputs": [
        {
          "internalType": "uint256",
          "name": "",
          "type": "uint256"
        }
      ],
      "stateMutability": "view",
      "type": "function"
    },
    {
      "inputs": [
        {
          "internalType": "address",
          "name": "spender",
          "type": "address"
        },
        {
          "internalType": "uint256",
          "name": "addedValue",
          "type": "uint256"
        }
      ],
      "name": "increaseAllowance",
      "outputs": [
        {
          "internalType": "bool",
          "name": "",
          "type": "bool"
        }
      ],
      "stateMutability": "nonpayable",
      "type": "function"
    },
    {
      "inputs": [],
      "name": "maxPriceMultiplier",
      "outputs": [
        {
          "internalType": "uint256",
          "name": "",
          "type": "uint256"
        }
      ],
      "stateMutability": "view",
      "type": "function"
    },
    {
      "inputs": [],
      "name": "minPriceMultiplier",
      "outputs": [
        {
          "internalType": "uint256",
          "name": "",
          "type": "uint256"
        }
      ],
      "stateMutability": "view",
      "type": "function"
    },
    {
      "inputs": [],
      "name": "name",
      "outputs": [
        {
          "internalType": "string",
          "name": "",
          "type": "string"
        }
      ],
      "stateMutability": "view",
      "type": "function"
    },
    {
      "inputs": [],
      "name": "oracle",
      "outputs": [
        {
          "internalType": "address",
          "name": "",
          "type": "address"
        }
      ],
      "stateMutability": "view",
      "type": "function"
    },
    {
      "inputs": [],
      "name": "owner",
      "outputs": [
        {
          "internalType": "address",
          "name": "",
          "type": "address"
        }
      ],
      "stateMutability": "view",
      "type": "function"
    },
    {
      "inputs": [],
      "name": "powerTokenController",
      "outputs": [
        {
          "internalType": "contract IController",
          "name": "",
          "type": "address"
        }
      ],
      "stateMutability": "view",
      "type": "function"
    },
    {
      "inputs": [],
      "name": "priceAtLastHedge",
      "outputs": [
        {
          "internalType": "uint256",
          "name": "",
          "type": "uint256"
        }
      ],
      "stateMutability": "view",
      "type": "function"
    },
    {
      "inputs": [
        {
          "internalType": "uint256",
          "name": "_auctionTriggerTime",
          "type": "uint256"
        },
        {
          "internalType": "bool",
          "name": "_isStrategySellingWSqueeth",
          "type": "bool"
        },
        {
          "internalType": "uint256",
          "name": "_limitPrice",
          "type": "uint256"
        }
      ],
      "name": "priceHedge",
      "outputs": [],
      "stateMutability": "payable",
      "type": "function"
    },
    {
      "inputs": [
        {
          "internalType": "uint256",
          "name": "_auctionTriggerTime",
          "type": "uint256"
        },
        {
          "internalType": "uint256",
          "name": "_minWSqueeth",
          "type": "uint256"
        },
        {
          "internalType": "uint256",
          "name": "_minEth",
          "type": "uint256"
        }
      ],
      "name": "priceHedgeOnUniswap",
      "outputs": [],
      "stateMutability": "payable",
      "type": "function"
    },
    {
      "inputs": [],
      "name": "quoteCurrency",
      "outputs": [
        {
          "internalType": "address",
          "name": "",
          "type": "address"
        }
      ],
      "stateMutability": "view",
      "type": "function"
    },
    {
      "inputs": [],
      "name": "redeemShortShutdown",
      "outputs": [],
      "stateMutability": "nonpayable",
      "type": "function"
    },
    {
      "inputs": [],
      "name": "renounceOwnership",
      "outputs": [],
      "stateMutability": "nonpayable",
      "type": "function"
    },
    {
      "inputs": [
        {
          "internalType": "uint256",
          "name": "_capAmount",
          "type": "uint256"
        }
      ],
      "name": "setStrategyCap",
      "outputs": [],
      "stateMutability": "nonpayable",
      "type": "function"
    },
    {
      "inputs": [],
      "name": "strategyCap",
      "outputs": [
        {
          "internalType": "uint256",
          "name": "",
          "type": "uint256"
        }
      ],
      "stateMutability": "view",
      "type": "function"
    },
    {
      "inputs": [],
      "name": "symbol",
      "outputs": [
        {
          "internalType": "string",
          "name": "",
          "type": "string"
        }
      ],
      "stateMutability": "view",
      "type": "function"
    },
    {
      "inputs": [],
      "name": "timeAtLastHedge",
      "outputs": [
        {
          "internalType": "uint256",
          "name": "",
          "type": "uint256"
        }
      ],
      "stateMutability": "view",
      "type": "function"
    },
    {
      "inputs": [
        {
          "internalType": "bool",
          "name": "_isStrategySellingWSqueeth",
          "type": "bool"
        },
        {
          "internalType": "uint256",
          "name": "_limitPrice",
          "type": "uint256"
        }
      ],
      "name": "timeHedge",
      "outputs": [],
      "stateMutability": "payable",
      "type": "function"
    },
    {
      "inputs": [
        {
          "internalType": "uint256",
          "name": "_minWSqueeth",
          "type": "uint256"
        },
        {
          "internalType": "uint256",
          "name": "_minEth",
          "type": "uint256"
        }
      ],
      "name": "timeHedgeOnUniswap",
      "outputs": [],
      "stateMutability": "nonpayable",
      "type": "function"
    },
    {
      "inputs": [],
      "name": "totalSupply",
      "outputs": [
        {
          "internalType": "uint256",
          "name": "",
          "type": "uint256"
        }
      ],
      "stateMutability": "view",
      "type": "function"
    },
    {
      "inputs": [
        {
          "internalType": "address",
          "name": "recipient",
          "type": "address"
        },
        {
          "internalType": "uint256",
          "name": "amount",
          "type": "uint256"
        }
      ],
      "name": "transfer",
      "outputs": [
        {
          "internalType": "bool",
          "name": "",
          "type": "bool"
        }
      ],
      "stateMutability": "nonpayable",
      "type": "function"
    },
    {
      "inputs": [
        {
          "internalType": "address",
          "name": "sender",
          "type": "address"
        },
        {
          "internalType": "address",
          "name": "recipient",
          "type": "address"
        },
        {
          "internalType": "uint256",
          "name": "amount",
          "type": "uint256"
        }
      ],
      "name": "transferFrom",
      "outputs": [
        {
          "internalType": "bool",
          "name": "",
          "type": "bool"
        }
      ],
      "stateMutability": "nonpayable",
      "type": "function"
    },
    {
      "inputs": [
        {
          "internalType": "address",
          "name": "newOwner",
          "type": "address"
        }
      ],
      "name": "transferOwnership",
      "outputs": [],
      "stateMutability": "nonpayable",
      "type": "function"
    },
    {
      "inputs": [
        {
          "internalType": "int256",
          "name": "amount0Delta",
          "type": "int256"
        },
        {
          "internalType": "int256",
          "name": "amount1Delta",
          "type": "int256"
        },
        {
          "internalType": "bytes",
          "name": "_data",
          "type": "bytes"
        }
      ],
      "name": "uniswapV3SwapCallback",
      "outputs": [],
      "stateMutability": "nonpayable",
      "type": "function"
    },
    {
      "inputs": [],
      "name": "vaultId",
      "outputs": [
        {
          "internalType": "uint256",
          "name": "",
          "type": "uint256"
        }
      ],
      "stateMutability": "view",
      "type": "function"
    },
    {
      "inputs": [],
      "name": "wPowerPerp",
      "outputs": [
        {
          "internalType": "address",
          "name": "",
          "type": "address"
        }
      ],
      "stateMutability": "view",
      "type": "function"
    },
    {
      "inputs": [],
      "name": "weth",
      "outputs": [
        {
          "internalType": "address",
          "name": "",
          "type": "address"
        }
      ],
      "stateMutability": "view",
      "type": "function"
    },
    {
      "inputs": [
        {
          "internalType": "uint256",
          "name": "_crabAmount",
          "type": "uint256"
        }
      ],
      "name": "withdraw",
      "outputs": [],
      "stateMutability": "payable",
      "type": "function"
    },
    {
      "inputs": [
        {
          "internalType": "uint256",
          "name": "_crabAmount",
          "type": "uint256"
        }
      ],
      "name": "withdrawShutdown",
      "outputs": [],
      "stateMutability": "nonpayable",
      "type": "function"
    },
    {
      "stateMutability": "payable",
      "type": "receive"
    }
  ],
  "transactionHash": "0x298774ab1bb90692e8f42ee98ac456d52b296fa826086de84166d7ede4b4d31b",
  "args": [
    "0x59F0c781a6eC387F09C40FAA22b7477a2950d209",
    "0xBD9F4bE886653177D22fA9c79FD0DFc41407fC89",
    "0xc778417e063141139fce010982780140aa0cd5ab",
    "0xa9C2f675FF8290494675dF5CFc2733319EaeeFDc",
    "0x921c384F79de1BAe96d6f33E3E5b8d0B2B34cb68",
    86400,
    "10000000000000000",
    3600,
    "950000000000000000",
    "1050000000000000000"
  ],
  "solcInputHash": "35c7170ef16c72e51fcfcf56e6ebe3eb",
  "bytecode": "0x6102206040523480156200001257600080fd5b50604051620066f1380380620066f1833981016040819052620000359162000698565b868a896040518060400160405280600d81526020016c4372616220537472617465677960981b8152506040518060400160405280600481526020016321b930b160e11b8152508181816003908051906020019062000095929190620005ab565b508051620000ab906004906020840190620005ab565b50506005805460ff19166012179055506001600160a01b038416620000ed5760405162461bcd60e51b8152600401620000e49062000768565b60405180910390fd5b6001600160a01b038316620001165760405162461bcd60e51b8152600401620000e4906200098e565b606083901b6001600160601b03191660805260058054610100600160a81b0319166101006001600160a01b0387811682029290921792839055604080516307f07b1360e41b815290519190930490911691637f07b130916004808301926020929190829003018186803b1580156200018d57600080fd5b505afa158015620001a2573d6000803e3d6000fd5b505050506040513d601f19601f82011682018060405250810190620001c8919062000674565b6001600160601b031960609190911b1660a052600554604051630728cf2360e31b81526101009091046001600160a01b03169063394679189062000216906000908190819060040162000752565b602060405180830381600087803b1580156200023157600080fd5b505af115801562000246573d6000803e3d6000fd5b505050506040513d601f19601f820116820180604052508101906200026c919062000739565b60c052505050506001600160a01b0381166200029c5760405162461bcd60e51b8152600401620000e49062000912565b60601b6001600160601b03191660e05260016006556000620002bd620005a7565b600780546001600160a01b0319166001600160a01b038316908117909155604051919250906000907f8be0079c531659141344cd1fd0a4f28419497f9722a3daafe3b4186f6b6457e0908290a3506001600160a01b038916620003345760405162461bcd60e51b8152600401620000e49062000853565b6001600160a01b0386166200035d5760405162461bcd60e51b8152600401620000e490620009c5565b60008511620003805760405162461bcd60e51b8152600401620000e4906200081c565b60008411620003a35760405162461bcd60e51b8152600401620000e490620007e5565b60008311620003c65760405162461bcd60e51b8152600401620000e490620007ae565b670de0b6b3a76400008210620003f05760405162461bcd60e51b8152600401620000e49062000949565b60008211620004135760405162461bcd60e51b8152600401620000e4906200088a565b670de0b6b3a764000081116200043d5760405162461bcd60e51b8152600401620000e490620008ce565b6001600160601b031960608a811b82166101205287901b16610100526101808590526101a08490526101c08390526101e082905261020081905260408051632234601160e11b815290516001600160a01b038c1691634468c022916004808301926020929190829003018186803b158015620004b857600080fd5b505afa158015620004cd573d6000803e3d6000fd5b505050506040513d601f19601f82011682018060405250810190620004f3919062000674565b6001600160a01b0316610140816001600160a01b031660601b81525050896001600160a01b03166382564bca6040518163ffffffff1660e01b815260040160206040518083038186803b1580156200054a57600080fd5b505afa1580156200055f573d6000803e3d6000fd5b505050506040513d601f19601f8201168201806040525081019062000585919062000674565b60601b6001600160601b0319166101605250620009fc98505050505050505050565b3390565b828054600181600116156101000203166002900490600052602060002090601f016020900481019282620005e357600085556200062e565b82601f10620005fe57805160ff19168380011785556200062e565b828001600101855582156200062e579182015b828111156200062e57825182559160200191906001019062000611565b506200063c92915062000640565b5090565b5b808211156200063c576000815560010162000641565b80516001600160a01b03811681146200066f57600080fd5b919050565b60006020828403121562000686578081fd5b620006918262000657565b9392505050565b6000806000806000806000806000806101408b8d031215620006b8578586fd5b620006c38b62000657565b9950620006d360208c0162000657565b9850620006e360408c0162000657565b9750620006f360608c0162000657565b96506200070360808c0162000657565b955060a08b0151945060c08b0151935060e08b015192506101008b015191506101208b015190509295989b9194979a5092959850565b6000602082840312156200074b578081fd5b5051919050565b9283526020830191909152604082015260600190565b60208082526026908201527f696e76616c696420706f77657220746f6b656e20636f6e74726f6c6c6572206160408201526564647265737360d01b606082015260800190565b60208082526014908201527f696e76616c69642061756374696f6e2074696d65000000000000000000000000604082015260600190565b6020808252601d908201527f696e76616c6964206865646765207072696365207468726573686f6c64000000604082015260600190565b6020808252601c908201527f696e76616c69642068656467652074696d65207468726573686f6c6400000000604082015260600190565b60208082526016908201527f696e76616c6964206f7261636c65206164647265737300000000000000000000604082015260600190565b60208082526024908201527f696e76616c69642061756374696f6e206d696e207072696365206d756c7469706040820152633634b2b960e11b606082015260800190565b60208082526024908201527f61756374696f6e206d6178207072696365206d756c7469706c69657220746f6f604082015263206c6f7760e01b606082015260800190565b60208082526017908201527f696e76616c696420666163746f72792061646472657373000000000000000000604082015260600190565b60208082526025908201527f61756374696f6e206d696e207072696365206d756c7469706c69657220746f6f604082015264040d0d2ced60db1b606082015260800190565b60208082526014908201527f696e76616c696420776574682061646472657373000000000000000000000000604082015260600190565b6020808252601c908201527f696e76616c6964204554483a5753717565657468206164647265737300000000604082015260600190565b60805160601c60a05160601c60c05160e05160601c6101005160601c6101205160601c6101405160601c6101605160601c610180516101a0516101c0516101e05161020051615ad962000c18600039806118fe5280612ffd528061304b52806130825250806110ed528061301e52806130a352806130c9525080610ab55280612f7c5280612fb0525080611c7f5280612b6152508061150a528061198d52806124e8525080611754525080611424525080610b8e528061170c5280611796528061200d5280612a045280612dc652806131d65280614006525080610bbb5280610cce5280610f16528061144852806117c5528061203a5280612a335280612bf05280612ce75280612de7528061320352806134c8528061374952806139f35280613c4f5280614035525080611b565280611e1352806149a05250806111dc52806115345280611a58528061293052806143775280614662525080610bdd5280610c8c5280610ef5528061173052806117e6528061205c5280612a545280612bae5280612cc65280612e085280613225528061349b52806135ee52806139c65280613a87528061405652806142be52806146fe5250806103695280610bff5280610cad5280610ed452806114005280611807528061207e5280612a755280612bcf5280612ca55280612e295280613247528061339752806136935280613719528061388a5280613b995280613c1f52806140775250615ad96000f3fe6080604052600436106103595760003560e01c806370a08231116101bb578063a457c2d7116100f7578063d22dbc5911610095578063f101d92f1161006f578063f101d92f146108d0578063f2fde38b146108e5578063f73e19c314610905578063fa461e3314610925576103cb565b8063d22dbc5914610886578063dd62ed3e1461089b578063eb54f9ec146108bb576103cb565b8063c2451689116100d1578063c245168914610823578063c45a015514610846578063cae740291461085b578063d0e30db014610870576103cb565b8063a457c2d7146107c3578063a9059cbb146107e3578063b0b9346114610803576103cb565b8063832c857f116101645780638ec4b7211161013e5780638ec4b7211461076457806395d89b41146107795780639c1ab1b81461078e578063a319b29f146107ae576103cb565b8063832c857f1461071a57806386e867721461072f5780638da5cb5b1461074f576103cb565b80637dc0d1d0116101955780637dc0d1d0146106db5780637f07b130146106f057806382564bca14610705576103cb565b806370a08231146106a6578063715018a6146106c65780637ca2518414610564576103cb565b80633950935111610295578063533092ef1161023357806366a91b761161020d57806366a91b761461065457806367b8c345146106695780636c1040a91461067e57806370749b4414610693576103cb565b8063533092ef146106075780635e5cdcd71461062c57806363bbc4b61461063f576103cb565b80633dcb0c5d1161026f5780633dcb0c5d146105a65780633fc8cef3146105c85780634468c022146105dd5780634d76e6fc146105f2576103cb565b80633950935114610544578063395ebb69146105645780633d3a62ee14610586576103cb565b806323b872dd116103025780632a340056116102dc5780632a340056146104e55780632e1a7d4d146104fa578063313ce5671461050d57806333194c0a1461052f576103cb565b806323b872dd1461049257806323ccafd9146104b257806325d7707c146104d2576103cb565b8063155f586d11610333578063155f586d1461044857806318160ddd1461046a5780631a5af3421461047f576103cb565b806306fdde03146103d0578063095ea7b3146103fb5780630ca514cd14610428576103cb565b366103cb57336001600160a01b037f00000000000000000000000000000000000000000000000000000000000000001614806103a4575060055461010090046001600160a01b031633145b6103c95760405162461bcd60e51b81526004016103c0906155f7565b60405180910390fd5b005b600080fd5b3480156103dc57600080fd5b506103e5610945565b6040516103f29190615366565b60405180910390f35b34801561040757600080fd5b5061041b610416366004614d79565b6109db565b6040516103f291906152f1565b34801561043457600080fd5b506103c961044336600461506a565b6109f9565b34801561045457600080fd5b5061045d610ab3565b6040516103f291906151aa565b34801561047657600080fd5b5061045d610ad7565b6103c961048d36600461506a565b610add565b34801561049e57600080fd5b5061041b6104ad366004614d39565b610ddd565b3480156104be57600080fd5b506103c96104cd3660046150c0565b610e65565b6103c96104e0366004614dc0565b61101b565b3480156104f157600080fd5b5061045d6110eb565b6103c961050836600461506a565b61110f565b34801561051957600080fd5b506105226111d1565b6040516103f291906158cb565b34801561053b57600080fd5b5061045d6111da565b34801561055057600080fd5b5061041b61055f366004614d79565b6111fe565b34801561057057600080fd5b5061057961124c565b6040516103f291906158ba565b34801561059257600080fd5b506103c96105a136600461506a565b611252565b3480156105b257600080fd5b506105bb6113ea565b6040516103f291906151ce565b3480156105d457600080fd5b506105bb6113fe565b3480156105e957600080fd5b506105bb611422565b3480156105fe57600080fd5b506105bb611446565b34801561061357600080fd5b5061061c61146a565b6040516103f294939291906152cb565b6103c961063a3660046150e1565b611486565b34801561064b57600080fd5b5061045d611502565b34801561066057600080fd5b5061045d611508565b34801561067557600080fd5b5061045d61152c565b34801561068a57600080fd5b5061045d611532565b6103c96106a136600461509a565b611556565b3480156106b257600080fd5b5061045d6106c1366004614ce5565b611620565b3480156106d257600080fd5b506103c961163f565b3480156106e757600080fd5b506105bb61170a565b3480156106fc57600080fd5b506105bb61172e565b34801561071157600080fd5b506105bb611752565b34801561072657600080fd5b5061045d611776565b34801561073b57600080fd5b5061041b61074a36600461506a565b611781565b34801561075b57600080fd5b506105bb6118ed565b34801561077057600080fd5b5061045d6118fc565b34801561078557600080fd5b506103e5611920565b34801561079a57600080fd5b506103c96107a93660046150c0565b611981565b3480156107ba57600080fd5b506103c9611a1d565b3480156107cf57600080fd5b5061041b6107de366004614d79565b611ab4565b3480156107ef57600080fd5b5061041b6107fe366004614d79565b611b1c565b34801561080f57600080fd5b5061041b61081e36600461506a565b611b30565b34801561082f57600080fd5b50610838611b3b565b6040516103f29291906152fc565b34801561085257600080fd5b506105bb611b54565b34801561086757600080fd5b5061045d611b78565b610878611b7e565b6040516103f292919061587e565b34801561089257600080fd5b5061041b611c43565b3480156108a757600080fd5b5061045d6108b6366004614d01565b611c4c565b3480156108c757600080fd5b5061045d611c77565b3480156108dc57600080fd5b5061045d611c7d565b3480156108f157600080fd5b506103c9610900366004614ce5565b611ca1565b34801561091157600080fd5b5061045d61092036600461506a565b611dc3565b34801561093157600080fd5b506103c9610940366004614e00565b611dce565b60038054604080516020601f60026000196101006001881615020190951694909404938401819004810282018101909252828152606093909290918301828280156109d15780601f106109a6576101008083540402835291602001916109d1565b820191906000526020600020905b8154815290600101906020018083116109b457829003601f168201915b5050505050905090565b60006109ef6109e8611e74565b8484611e78565b5060015b92915050565b610a01611e74565b6001600160a01b0316610a126118ed565b6001600160a01b031614610a6d576040805162461bcd60e51b815260206004820181905260248201527f4f776e61626c653a2063616c6c6572206973206e6f7420746865206f776e6572604482015290519081900360640190fd5b60088054908290556040517f543c6f21ac1fa8a080c6b447bc8f7e6e9e005b757bced81426dedeeb98e3a6b590610aa7908490849061587e565b60405180910390a15050565b7f000000000000000000000000000000000000000000000000000000000000000081565b60025490565b60026006541415610b35576040805162461bcd60e51b815260206004820152601f60248201527f5265656e7472616e637947756172643a207265656e7472616e742063616c6c00604482015290519081900360640190fd5b6002600655600080610b45611f64565b91509150610b538382611f7e565b6000610b60848484611fad565b50905082158015610b6f575081155b15610c875760405163cce79bd560e01b81526000906001600160a01b037f0000000000000000000000000000000000000000000000000000000000000000169063cce79bd590610c2e907f0000000000000000000000000000000000000000000000000000000000000000907f0000000000000000000000000000000000000000000000000000000000000000907f0000000000000000000000000000000000000000000000000000000000000000906101a4906001906004016151e2565b60206040518083038186803b158015610c4657600080fd5b505afa158015610c5a573d6000803e3d6000fd5b505050506040513d601f19601f82011682018060405250810190610c7e9190615082565b42600955600a55505b610d8f7f00000000000000000000000000000000000000000000000000000000000000007f00000000000000000000000000000000000000000000000000000000000000007f00000000000000000000000000000000000000000000000000000000000000006001600160a01b031663ddca3f436040518163ffffffff1660e01b815260040160206040518083038186803b158015610d2557600080fd5b505afa158015610d39573d6000803e3d6000fd5b505050506040513d601f19601f82011682018060405250810190610d5d9190615047565b84610d688934612177565b60008a604051602001610d7b91906151aa565b6040516020818303038152906040526121cf565b336001600160a01b03167f5d85169ff8329e90f3225f9798e0eba54d00c55d3bbfe201a0d1606febb23a8e8583604051610dca92919061587e565b60405180910390a2505060016006555050565b6000610dea848484612250565b610e5a84610df6611e74565b610e55856040518060600160405280602881526020016159ed602891396001600160a01b038a16600090815260016020526040812090610e34611e74565b6001600160a01b0316815260208101919091526040016000205491906123ab565b611e78565b5060015b9392505050565b60026006541415610ebd576040805162461bcd60e51b815260206004820152601f60248201527f5265656e7472616e637947756172643a207265656e7472616e742063616c6c00604482015290519081900360640190fd5b60026006556000610ecd83612442565b9050610fce7f00000000000000000000000000000000000000000000000000000000000000007f00000000000000000000000000000000000000000000000000000000000000007f00000000000000000000000000000000000000000000000000000000000000006001600160a01b031663ddca3f436040518163ffffffff1660e01b815260040160206040518083038186803b158015610f6d57600080fd5b505afa158015610f81573d6000803e3d6000fd5b505050506040513d601f19601f82011682018060405250810190610fa59190615047565b8486600189604051602001610fba91906151aa565b604051602081830303815290604052612467565b336001600160a01b03167fa13b272c1cf13ba724064d3d4809d9f557aab8da2bb582cba031a2f57e728e9d848360405161100992919061587e565b60405180910390a25050600160065550565b60026006541415611073576040805162461bcd60e51b815260206004820152601f60248201527f5265656e7472616e637947756172643a207265656e7472616e742063616c6c00604482015290519081900360640190fd5b60026006556000806110836124de565b91509150816110a45760405162461bcd60e51b81526004016103c0906155c0565b6110af818585612525565b336001600160a01b03167eb3acebad2d25b9626850dd370eadbf46d6a94dd0fab19c061f97e1dd4a9639858584604051610dca9392919061530c565b7f000000000000000000000000000000000000000000000000000000000000000081565b60026006541415611167576040805162461bcd60e51b815260206004820152601f60248201527f5265656e7472616e637947756172643a207265656e7472616e742063616c6c00604482015290519081900360640190fd5b6002600655600061117782612442565b905060006111883384846000612655565b905061119433826126a2565b336001600160a01b03167f02f25270a4d87bea75db541cdfe559334a275b4a233520ed6c0a2429667cca94848484604051611009939291906158a4565b60055460ff1690565b7f000000000000000000000000000000000000000000000000000000000000000081565b60006109ef61120b611e74565b84610e55856001600061121c611e74565b6001600160a01b03908116825260208083019390935260409182016000908120918c16815292529020549061278c565b6101a481565b600260065414156112aa576040805162461bcd60e51b815260206004820152601f60248201527f5265656e7472616e637947756172643a207265656e7472616e742063616c6c00604482015290519081900360640190fd5b6002600681905550600560019054906101000a90046001600160a01b03166001600160a01b031663ff9475256040518163ffffffff1660e01b8152600401602060405180830381600087803b15801561130257600080fd5b505af1158015611316573d6000803e3d6000fd5b505050506040513d601f19601f8201168201806040525081019061133a9190614da4565b6113565760405162461bcd60e51b81526004016103c090615546565b600c5460ff166113785760405162461bcd60e51b81526004016103c090615379565b600061138b82611386610ad7565b6127e6565b9050600061139982476127f2565b90506113a533846127fe565b6113af33826126a2565b336001600160a01b03167fe9ab9870b9093d99f8e981919f65ad09b7ae90ff80f1031639af9e0357eb9ed6848360405161100992919061587e565b60055461010090046001600160a01b031681565b7f000000000000000000000000000000000000000000000000000000000000000081565b7f000000000000000000000000000000000000000000000000000000000000000081565b7f000000000000000000000000000000000000000000000000000000000000000081565b6000806000806114786128fa565b935093509350935090919293565b61148f836129f1565b6114ab5760405162461bcd60e51b81526004016103c09061550f565b6114b6838383612b8c565b336001600160a01b03167ff99cce6ee3154fddfc55959dd136665c7351fe51c0ea58392ca454be8180dcd4428585856040516114f594939291906151b3565b60405180910390a2505050565b600a5481565b7f000000000000000000000000000000000000000000000000000000000000000081565b60095481565b7f000000000000000000000000000000000000000000000000000000000000000090565b600260065414156115ae576040805162461bcd60e51b815260206004820152601f60248201527f5265656e7472616e637947756172643a207265656e7472616e742063616c6c00604482015290519081900360640190fd5b60026006556115bc836129f1565b6115d85760405162461bcd60e51b81526004016103c09061550f565b6115e3838383612525565b336001600160a01b03167fa6806e5672ec1827d23bd4a25f4a41c8d0b055720c40081e3803f6b0a957f7978383866040516110099392919061530c565b6001600160a01b0381166000908152602081905260409020545b919050565b611647611e74565b6001600160a01b03166116586118ed565b6001600160a01b0316146116b3576040805162461bcd60e51b815260206004820181905260248201527f4f776e61626c653a2063616c6c6572206973206e6f7420746865206f776e6572604482015290519081900360640190fd5b6007546040516000916001600160a01b0316907f8be0079c531659141344cd1fd0a4f28419497f9722a3daafe3b4186f6b6457e0908390a36007805473ffffffffffffffffffffffffffffffffffffffff19169055565b7f000000000000000000000000000000000000000000000000000000000000000081565b7f000000000000000000000000000000000000000000000000000000000000000081565b7f000000000000000000000000000000000000000000000000000000000000000081565b66038d7ea4c6800081565b600080600061178e611f64565b9150915060007f00000000000000000000000000000000000000000000000000000000000000006001600160a01b031663cce79bd57f00000000000000000000000000000000000000000000000000000000000000007f00000000000000000000000000000000000000000000000000000000000000007f00000000000000000000000000000000000000000000000000000000000000006101a460016040518663ffffffff1660e01b815260040161184b9594939291906151e2565b60206040518083038186803b15801561186357600080fd5b505afa158015611877573d6000803e3d6000fd5b505050506040513d601f19601f8201168201806040525081019061189b9190615082565b905060006118a7612dbe565b905060006118b785858585612efb565b50905060006118c7888584612f77565b905060006118d787878487612efb565b5015159215159290921498975050505050505050565b6007546001600160a01b031690565b7f000000000000000000000000000000000000000000000000000000000000000081565b60048054604080516020601f60026000196101006001881615020190951694909404938401819004810282018101909252828152606093909290918301828280156109d15780601f106109a6576101008083540402835291602001916109d1565b6009546000906119b1907f0000000000000000000000000000000000000000000000000000000000000000613105565b9050804210156119d35760405162461bcd60e51b81526004016103c0906155c0565b6119de818484612b8c565b336001600160a01b03167f6c3a0d23de8295593e3e236062f9103f4a66c6d8de92b9425a2e17ae3baca677428386866040516114f594939291906151b3565b600c8054600160ff19909116179055600554604051634bf7d4a160e11b81526101009091046001600160a01b0316906397efa94290611a80907f0000000000000000000000000000000000000000000000000000000000000000906004016151aa565b600060405180830381600087803b158015611a9a57600080fd5b505af1158015611aae573d6000803e3d6000fd5b50505050565b60006109ef611ac1611e74565b84610e5585604051806060016040528060258152602001615a7f6025913960016000611aeb611e74565b6001600160a01b03908116825260208083019390935260409182016000908120918d168152925290205491906123ab565b60006109ef611b29611e74565b8484612250565b60006109f3826129f1565b600080600080611b496124de565b909450925050509091565b7f000000000000000000000000000000000000000000000000000000000000000081565b60085481565b60008060026006541415611bd9576040805162461bcd60e51b815260206004820152601f60248201527f5265656e7472616e637947756172643a207265656e7472616e742063616c6c00604482015290519081900360640190fd5b600260065534600080611bed33848361315d565b91509150336001600160a01b03167f90890809c654f11d6e72a28fa60149770a0d11ec6c92319d6ceb2bb0a4ea1a158383604051611c2c92919061587e565b60405180910390a290935091505060016006559091565b600c5460ff1681565b6001600160a01b03918216600090815260016020908152604080832093909416825291909152205490565b600b5481565b7f000000000000000000000000000000000000000000000000000000000000000081565b611ca9611e74565b6001600160a01b0316611cba6118ed565b6001600160a01b031614611d15576040805162461bcd60e51b815260206004820181905260248201527f4f776e61626c653a2063616c6c6572206973206e6f7420746865206f776e6572604482015290519081900360640190fd5b6001600160a01b038116611d5a5760405162461bcd60e51b81526004018080602001828103825260268152602001806159456026913960400191505060405180910390fd5b6007546040516001600160a01b038084169216907f8be0079c531659141344cd1fd0a4f28419497f9722a3daafe3b4186f6b6457e090600090a36007805473ffffffffffffffffffffffffffffffffffffffff19166001600160a01b0392909216919091179055565b60006109f382612442565b6000841380611ddd5750600083135b611de657600080fd5b6000611df482840184614ef5565b90506000806000611e0884600001516132f5565b925092509250611e3a7f0000000000000000000000000000000000000000000000000000000000000000848484613326565b506000808913611e4a5787611e4c565b885b9050611e698560200151858585858a606001518b60400151613345565b505050505050505050565b3390565b6001600160a01b038316611ebd5760405162461bcd60e51b8152600401808060200182810382526024815260200180615a5b6024913960400191505060405180910390fd5b6001600160a01b038216611f025760405162461bcd60e51b815260040180806020018281038252602281526020018061596b6022913960400191505060405180910390fd5b6001600160a01b03808416600081815260016020908152604080832094871680845294825291829020859055815185815291517f8c5be1e5ebec7d5bd14f71427d1e84f3dd0314c0f7b2291e5b200ac8c7c3b9259281900390910190a3505050565b600080600080611f726128fa565b96509450505050509091565b600854611f8b8284613105565b1115611fa95760405162461bcd60e51b81526004016103c09061562e565b5050565b600080600080611fbb612dbe565b905085158015611fc9575084155b1561213257611fd6610ad7565b15611ff35760405162461bcd60e51b81526004016103c09061576b565b60405163cce79bd560e01b81526000906001600160a01b037f0000000000000000000000000000000000000000000000000000000000000000169063cce79bd5906120ad907f0000000000000000000000000000000000000000000000000000000000000000907f0000000000000000000000000000000000000000000000000000000000000000907f0000000000000000000000000000000000000000000000000000000000000000906101a4906001906004016151e2565b60206040518083038186803b1580156120c557600080fd5b505afa1580156120d9573d6000803e3d6000fd5b505050506040513d601f19601f820116820180604052508101906120fd9190615082565b9050600061211382671bc16d674ec80000613ce8565b90506121296121228285613105565b8a90613d21565b9350505061215c565b6121596121496121428884613ce8565b8790613105565b6121538989613ce8565b90613d21565b91505b60006121688383613ce8565b92989297509195505050505050565b808203828111156109f3576040805162461bcd60e51b815260206004820152601560248201527f64732d6d6174682d7375622d756e646572666c6f770000000000000000000000604482015290519081900360640190fd5b60006122248530600060405180608001604052808d8c8e6040516020016121f893929190615157565b60408051601f1981840301815291815290825233602083015260ff8a1690820152606001879052613d41565b9050838110156122465760405162461bcd60e51b81526004016103c090615433565b5050505050505050565b6001600160a01b0383166122955760405162461bcd60e51b8152600401808060200182810382526025815260200180615a366025913960400191505060405180910390fd5b6001600160a01b0382166122da5760405162461bcd60e51b81526004018080602001828103825260238152602001806159006023913960400191505060405180910390fd5b6122e5838383612787565b6123228160405180606001604052806026815260200161598d602691396001600160a01b03861660009081526020819052604090205491906123ab565b6001600160a01b038085166000908152602081905260408082209390935590841681522054612351908261278c565b6001600160a01b038084166000818152602081815260409182902094909455805185815290519193928716927fddf252ad1be2c89b69c2b068fc378daa952ba7f163c4a11628f55a4df523b3ef92918290030190a3505050565b6000818484111561243a5760405162461bcd60e51b81526004018080602001828103825283818151815260200191508051906020019080838360005b838110156123ff5781810151838201526020016123e7565b50505050905090810190601f16801561242c5780820380516001836020036101000a031916815260200191505b509250505060405180910390fd5b505050900390565b60008061244d6128fa565b9350505050610e5e61245d610ad7565b6121538386613ce8565b60006124bc8530600060405180608001604052808c8c8f60405160200161249093929190615157565b60408051601f1981840301815291815290825233602083015260ff8a1690820152606001879052613e80565b9050838111156122465760405162461bcd60e51b81526004016103c0906154d8565b60008060006125187f000000000000000000000000000000000000000000000000000000000000000060095461310590919063ffffffff16565b4281111593509150509091565b60008060008061253487613fed565b93509350935093508315158615151461255f5760405162461bcd60e51b81526004016103c0906154a1565b83156125b857848111156125855760405162461bcd60e51b81526004016103c090615665565b813410156125a55760405162461bcd60e51b81526004016103c09061546a565b6125b3333485856000614199565b612603565b34156125d65760405162461bcd60e51b81526004016103c0906156b2565b848110156125f65760405162461bcd60e51b81526004016103c09061571e565b6126033384846000614233565b336001600160a01b03167f878fd3ca52ad322c7535f559ee7c91afc67363073783360ef1b1420589dc61748787848787604051612644959493929190615341565b60405180910390a250505050505050565b600080612660611f64565b915050600061267186611386610ad7565b9050600061267f82846127f2565b905061268d888783886142a2565b61269788886127fe565b979650505050505050565b804710156126f7576040805162461bcd60e51b815260206004820152601d60248201527f416464726573733a20696e73756666696369656e742062616c616e6365000000604482015290519081900360640190fd5b6040516000906001600160a01b0384169083908381818185875af1925050503d8060008114612742576040519150601f19603f3d011682016040523d82523d6000602084013e612747565b606091505b50509050806127875760405162461bcd60e51b815260040180806020018281038252603a8152602001806159b3603a913960400191505060405180910390fd5b505050565b600082820183811015610e5e576040805162461bcd60e51b815260206004820152601b60248201527f536166654d6174683a206164646974696f6e206f766572666c6f770000000000604482015290519081900360640190fd5b6000610e5e8383613d21565b6000610e5e8284613ce8565b6001600160a01b0382166128435760405162461bcd60e51b8152600401808060200182810382526021815260200180615a156021913960400191505060405180910390fd5b61284f82600083612787565b61288c81604051806060016040528060228152602001615923602291396001600160a01b03851660009081526020819052604090205491906123ab565b6001600160a01b0383166000908152602081905260409020556002546128b290826143d1565b6002556040805182815290516000916001600160a01b038516917fddf252ad1be2c89b69c2b068fc378daa952ba7f163c4a11628f55a4df523b3ef9181900360200190a35050565b600554604051634632752560e11b8152600091829182918291829161010090046001600160a01b031690638c64ea4a90612958907f0000000000000000000000000000000000000000000000000000000000000000906004016151aa565b60806040518083038186803b15801561297057600080fd5b505afa158015612984573d6000803e3d6000fd5b505050506040513d601f19601f820116820180604052508101906129a89190614fb3565b805160208201516040830151606090930151919863ffffffff90911697506bffffffffffffffffffffffff90921695506fffffffffffffffffffffffffffffffff169350915050565b6000806129fe4284612177565b905060007f00000000000000000000000000000000000000000000000000000000000000006001600160a01b0316634ac78d117f00000000000000000000000000000000000000000000000000000000000000007f00000000000000000000000000000000000000000000000000000000000000007f00000000000000000000000000000000000000000000000000000000000000006101a48701876040518663ffffffff1660e01b8152600401612aba95949392919061521b565b60206040518083038186803b158015612ad257600080fd5b505afa158015612ae6573d6000803e3d6000fd5b505050506040513d601f19601f82011682018060405250810190612b0a9190615082565b90506000612b23600a5483613d2190919063ffffffff16565b90506000670de0b6b3a76400008211612b4d57612b48670de0b6b3a764000083612177565b612b5f565b612b5f82670de0b6b3a7640000612177565b7f000000000000000000000000000000000000000000000000000000000000000011159695505050505050565b600080600080612b9b87613fed565b93509350935093508315612ca057612c9b7f00000000000000000000000000000000000000000000000000000000000000007f00000000000000000000000000000000000000000000000000000000000000007f00000000000000000000000000000000000000000000000000000000000000006001600160a01b031663ddca3f436040518163ffffffff1660e01b815260040160206040518083038186803b158015612c4757600080fd5b505afa158015612c5b573d6000803e3d6000fd5b505050506040513d601f19601f82011682018060405250810190612c7f9190615047565b858760025b89898e8e604051602001610fba94939291906151b3565b612d7f565b612d7f7f00000000000000000000000000000000000000000000000000000000000000007f00000000000000000000000000000000000000000000000000000000000000007f00000000000000000000000000000000000000000000000000000000000000006001600160a01b031663ddca3f436040518163ffffffff1660e01b815260040160206040518083038186803b158015612d3e57600080fd5b505afa158015612d52573d6000803e3d6000fd5b505050506040513d601f19601f82011682018060405250810190612d769190615047565b86866003612c84565b336001600160a01b03167f4c1a959210172325f5c6678421c3834b04ae8ce57f7a7c0c0bbfbb62bca37e34858386866040516126449493929190615324565b600080612e527f00000000000000000000000000000000000000000000000000000000000000007f00000000000000000000000000000000000000000000000000000000000000007f00000000000000000000000000000000000000000000000000000000000000007f00000000000000000000000000000000000000000000000000000000000000006101a4600061442e565b90506000600560019054906101000a90046001600160a01b03166001600160a01b031663978bbdb96040518163ffffffff1660e01b815260040160206040518083038186803b158015612ea457600080fd5b505afa158015612eb8573d6000803e3d6000fd5b505050506040513d601f19601f82011682018060405250810190612edc9190615082565b9050612ef4612710612eee84846144d4565b90614540565b9250505090565b60008080612f1b85612f1589671bc16d674ec80000613ce8565b90613ce8565b9050600080612f2c8389898961459f565b90925090506000612f4189612153858b613ce8565b905066038d7ea4c680008111612f695760405162461bcd60e51b81526004016103c0906157ee565b509890975095505050505050565b6000807f0000000000000000000000000000000000000000000000000000000000000000612fa54287612177565b1015612fde57612fd97f00000000000000000000000000000000000000000000000000000000000000006121534288612177565b612fe8565b670de0b6b3a76400005b905060008315613077576130706130496130427f00000000000000000000000000000000000000000000000000000000000000007f0000000000000000000000000000000000000000000000000000000000000000612177565b8490613ce8565b7f000000000000000000000000000000000000000000000000000000000000000090612177565b90506130f1565b6130ee6130c76130427f00000000000000000000000000000000000000000000000000000000000000007f0000000000000000000000000000000000000000000000000000000000000000612177565b7f000000000000000000000000000000000000000000000000000000000000000090613105565b90505b6130fb8582613ce8565b9695505050505050565b808201828110156109f3576040805162461bcd60e51b815260206004820152601460248201527f64732d6d6174682d6164642d6f766572666c6f77000000000000000000000000604482015290519081900360640190fd5b60008060008061316b611f64565b915091506131798682611f7e565b600080613187888585611fad565b909250905060006131a961319b8a84612177565b856131a4610ad7565b6145e5565b9050841580156131b7575083155b156132cf5760405163cce79bd560e01b81526000906001600160a01b037f0000000000000000000000000000000000000000000000000000000000000000169063cce79bd590613276907f0000000000000000000000000000000000000000000000000000000000000000907f0000000000000000000000000000000000000000000000000000000000000000907f0000000000000000000000000000000000000000000000000000000000000000906101a4906001906004016151e2565b60206040518083038186803b15801561328e57600080fd5b505afa1580156132a2573d6000803e3d6000fd5b505050506040513d601f19601f820116820180604052508101906132c69190615082565b42600955600a55505b6132db8a848b8b614634565b6132e58a8261478e565b9199919850909650505050505050565b600080806133038482614798565b9250613310846014614864565b905061331d846017614798565b91509193909250565b600061333c85613337868686614920565b614976565b95945050505050565b60008160ff16600381111561335657fe5b600381111561336157fe5b14156135a75760008280602001905181019061337d9190614e7b565b6040516370a0823160e01b81529091506001600160a01b037f00000000000000000000000000000000000000000000000000000000000000001690632e1a7d4d9082906370a08231906133d49030906004016151ce565b60206040518083038186803b1580156133ec57600080fd5b505afa158015613400573d6000803e3d6000fd5b505050506040513d601f19601f820116820180604052508101906134249190615082565b6040518263ffffffff1660e01b815260040161344091906151aa565b600060405180830381600087803b15801561345a57600080fd5b505af115801561346e573d6000803e3d6000fd5b50505050613482888260000151600161315d565b505060405163a9059cbb60e01b81526001600160a01b037f0000000000000000000000000000000000000000000000000000000000000000169063a9059cbb906134f2907f00000000000000000000000000000000000000000000000000000000000000009088906004016152b2565b602060405180830381600087803b15801561350c57600080fd5b505af1158015613520573d6000803e3d6000fd5b505050506040513d601f19601f820116820180604052508101906135449190614da4565b50876001600160a01b03167fc355ebece16d7e85e486911f0cde1074bc4bd3fec251c88cdddc7076d3e99adb854760405161358092919061587e565b60405180910390a247156135a1576135a16001600160a01b038916476126a2565b50613cdf565b60018160ff1660038111156135b857fe5b60038111156135c357fe5b1415613838576000828060200190518101906135df9190614e7b565b9050600061368f8983600001517f00000000000000000000000000000000000000000000000000000000000000006001600160a01b03166370a08231306040518263ffffffff1660e01b815260040161363891906151ce565b60206040518083038186803b15801561365057600080fd5b505afa158015613664573d6000803e3d6000fd5b505050506040513d601f19601f820116820180604052508101906136889190615082565b6001612655565b90507f00000000000000000000000000000000000000000000000000000000000000006001600160a01b031663d0e30db0866040518263ffffffff1660e01b81526004016000604051808303818588803b1580156136ec57600080fd5b505af1158015613700573d6000803e3d6000fd5b505060405163a9059cbb60e01b81526001600160a01b037f000000000000000000000000000000000000000000000000000000000000000016935063a9059cbb925061377391507f00000000000000000000000000000000000000000000000000000000000000009089906004016152b2565b602060405180830381600087803b15801561378d57600080fd5b505af11580156137a1573d6000803e3d6000fd5b505050506040513d601f19601f820116820180604052508101906137c59190614da4565b5060006137d28287612177565b9050896001600160a01b03167f6f3269a64126ef2a1959892f3d921e81865181e09a7f72f55d3a49550c53b48d878360405161380f92919061587e565b60405180910390a28015613830576138306001600160a01b038b16826126a2565b505050613cdf565b60028160ff16600381111561384957fe5b600381111561385457fe5b1415613b10576000828060200190518101906138709190614e96565b6040516370a0823160e01b81529091506001600160a01b037f00000000000000000000000000000000000000000000000000000000000000001690632e1a7d4d9082906370a08231906138c79030906004016151ce565b60206040518083038186803b1580156138df57600080fd5b505afa1580156138f3573d6000803e3d6000fd5b505050506040513d601f19601f820116820180604052508101906139179190615082565b6040518263ffffffff1660e01b815260040161393391906151aa565b600060405180830381600087803b15801561394d57600080fd5b505af1158015613961573d6000803e3d6000fd5b505050506020810151815161397a918a91816001614199565b80516000906139899086612177565b905081604001518110156139af5760405162461bcd60e51b81526004016103c0906156e9565b60405163a9059cbb60e01b81526001600160a01b037f0000000000000000000000000000000000000000000000000000000000000000169063a9059cbb90613a1d907f00000000000000000000000000000000000000000000000000000000000000009089906004016152b2565b602060405180830381600087803b158015613a3757600080fd5b505af1158015613a4b573d6000803e3d6000fd5b505050506040513d601f19601f82011682018060405250810190613a6f9190614da4565b5060405163a9059cbb60e01b81526001600160a01b037f0000000000000000000000000000000000000000000000000000000000000000169063a9059cbb90613abe908c9085906004016152b2565b602060405180830381600087803b158015613ad857600080fd5b505af1158015613aec573d6000803e3d6000fd5b505050506040513d601f19601f820116820180604052508101906138309190614da4565b60038160ff166003811115613b2157fe5b6003811115613b2c57fe5b1415613cdf57600082806020019051810190613b489190614e96565b9050613b5f88826000015183602001516001614233565b6020810151600090613b719086612177565b90508160600151811015613b975760405162461bcd60e51b81526004016103c090615589565b7f00000000000000000000000000000000000000000000000000000000000000006001600160a01b031663d0e30db0866040518263ffffffff1660e01b81526004016000604051808303818588803b158015613bf257600080fd5b505af1158015613c06573d6000803e3d6000fd5b505060405163a9059cbb60e01b81526001600160a01b037f000000000000000000000000000000000000000000000000000000000000000016935063a9059cbb9250613c7991507f00000000000000000000000000000000000000000000000000000000000000009089906004016152b2565b602060405180830381600087803b158015613c9357600080fd5b505af1158015613ca7573d6000803e3d6000fd5b505050506040513d601f19601f82011682018060405250810190613ccb9190614da4565b50611e696001600160a01b038a16826126a2565b50505050505050565b6000670de0b6b3a7640000613d12613d0085856144d4565b6002670de0b6b3a76400005b04613105565b81613d1957fe5b049392505050565b600081613d12613d3985670de0b6b3a76400006144d4565b600285613d0c565b600080600080613d5485600001516132f5565b919450925090506001600160a01b0380831690841610600080613d78868686614999565b6001600160a01b031663128acb088b85613d918f6149d7565b6001600160a01b038e1615613da6578d613dcc565b87613dc55773fffd8963efd1fc6a506488495d951d5263988d25613dcc565b6401000276a45b8d604051602001613ddd9190615825565b6040516020818303038152906040526040518663ffffffff1660e01b8152600401613e0c959493929190615278565b6040805180830381600087803b158015613e2557600080fd5b505af1158015613e39573d6000803e3d6000fd5b505050506040513d601f19601f82011682018060405250810190613e5d9190614ddd565b9150915082613e6c5781613e6e565b805b6000039b9a5050505050505050505050565b600080600080613e9385600001516132f5565b919450925090506001600160a01b0380841690831610600080613eb7858786614999565b6001600160a01b031663128acb088b85613ed08f6149d7565b6000036001600160a01b038e1615613ee8578d613f0e565b87613f075773fffd8963efd1fc6a506488495d951d5263988d25613f0e565b6401000276a45b8d604051602001613f1f9190615825565b6040516020818303038152906040526040518663ffffffff1660e01b8152600401613f4e959493929190615278565b6040805180830381600087803b158015613f6757600080fd5b505af1158015613f7b573d6000803e3d6000fd5b505050506040513d601f19601f82011682018060405250810190613f9f9190614ddd565b9150915060008084613fb5578284600003613fbb565b83836000035b915091508a6001600160a01b031660001415613fdd578c8114613fdd57600080fd5b509b9a5050505050505050505050565b600080600080600080613ffe611f64565b9150915060007f00000000000000000000000000000000000000000000000000000000000000006001600160a01b031663cce79bd57f00000000000000000000000000000000000000000000000000000000000000007f00000000000000000000000000000000000000000000000000000000000000007f00000000000000000000000000000000000000000000000000000000000000006101a460016040518663ffffffff1660e01b81526004016140bb9594939291906151e2565b60206040518083038186803b1580156140d357600080fd5b505afa1580156140e7573d6000803e3d6000fd5b505050506040513d601f19601f8201168201806040525081019061410b9190615082565b90506000614117612dbe565b9050600061412785858585612efb565b50905060006141378b8584612f77565b905060008061414888888588612efb565b915091508115158415151461416f5760405162461bcd60e51b81526004016103c0906153d6565b600061417b8285613ce8565b42600955600a9790975550929c929b50939950975095505050505050565b80156141b1576141ac8584846001614634565b6141e7565b6141be8584846000614634565b60006141ca8584612177565b905080156141e5576141e56001600160a01b038716826126a2565b505b846001600160a01b03167f2af3664d72ebbec5e92c3a487f09a4ecd9ef50177eced03cc2b05892b5e0c9158484846040516142249392919061588c565b60405180910390a25050505050565b61423f848484846142a2565b80614257576142576001600160a01b038516836126a2565b836001600160a01b03167fc7472bd0a757f40f801e047dd4f4ec901314e95afcbfed844e62af18401e0e6b8484846040516142949392919061588c565b60405180910390a250505050565b8061434b576040516323b872dd60e01b81526001600160a01b037f000000000000000000000000000000000000000000000000000000000000000016906323b872dd906142f790879030908890600401615254565b602060405180830381600087803b15801561431157600080fd5b505af1158015614325573d6000803e3d6000fd5b505050506040513d601f19601f820116820180604052508101906143499190614da4565b505b600554604051638632cb0360e01b81526101009091046001600160a01b031690638632cb03906143a3907f000000000000000000000000000000000000000000000000000000000000000090879087906004016158a4565b600060405180830381600087803b1580156143bd57600080fd5b505af1158015612246573d6000803e3d6000fd5b600082821115614428576040805162461bcd60e51b815260206004820152601e60248201527f536166654d6174683a207375627472616374696f6e206f766572666c6f770000604482015290519081900360640190fd5b50900390565b6040805163cce79bd560e01b81526001600160a01b0387811660048301528681166024830152858116604483015263ffffffff851660648301528315156084830152915160009289169163cce79bd59160a4808301926020929190829003018186803b15801561449d57600080fd5b505afa1580156144b1573d6000803e3d6000fd5b505050506040513d60208110156144c757600080fd5b5051979650505050505050565b60008115806144ef575050808202828282816144ec57fe5b04145b6109f3576040805162461bcd60e51b815260206004820152601460248201527f64732d6d6174682d6d756c2d6f766572666c6f77000000000000000000000000604482015290519081900360640190fd5b6000808211614596576040805162461bcd60e51b815260206004820152601a60248201527f536166654d6174683a206469766973696f6e206279207a65726f000000000000604482015290519081900360640190fd5b818381613d1957fe5b6000808486116145c7576145c06145b68585613105565b6121538789612177565b60016145d8565b6145d5846121538888612177565b60005b9150915094509492505050565b6000806145fc6145f58587613105565b8690613d21565b9050821561462b57614623614619670de0b6b3a764000083612177565b6121538584613ce8565b915050610e5e565b50929392505050565b600554604051630728cf2360e31b81526101009091046001600160a01b031690633946791890849061468f907f00000000000000000000000000000000000000000000000000000000000000009088906000906004016158a4565b6020604051808303818588803b1580156146a857600080fd5b505af11580156146bc573d6000803e3d6000fd5b50505050506040513d601f19601f820116820180604052508101906146e19190615082565b5080611aae5760405163a9059cbb60e01b81526001600160a01b037f0000000000000000000000000000000000000000000000000000000000000000169063a9059cbb9061473590879087906004016152b2565b602060405180830381600087803b15801561474f57600080fd5b505af1158015614763573d6000803e3d6000fd5b505050506040513d601f19601f820116820180604052508101906147879190614da4565b5050505050565b611fa982826149ed565b6000818260140110156147f2576040805162461bcd60e51b815260206004820152601260248201527f746f416464726573735f6f766572666c6f770000000000000000000000000000604482015290519081900360640190fd5b816014018351101561484b576040805162461bcd60e51b815260206004820152601560248201527f746f416464726573735f6f75744f66426f756e64730000000000000000000000604482015290519081900360640190fd5b5001602001516c01000000000000000000000000900490565b6000818260030110156148be576040805162461bcd60e51b815260206004820152601160248201527f746f55696e7432345f6f766572666c6f77000000000000000000000000000000604482015290519081900360640190fd5b8160030183511015614917576040805162461bcd60e51b815260206004820152601460248201527f746f55696e7432345f6f75744f66426f756e6473000000000000000000000000604482015290519081900360640190fd5b50016003015190565b614928614bd9565b826001600160a01b0316846001600160a01b03161115614946579192915b50604080516060810182526001600160a01b03948516815292909316602083015262ffffff169181019190915290565b60006149828383614add565b9050336001600160a01b038216146109f357600080fd5b60006149cf7f00000000000000000000000000000000000000000000000000000000000000006149ca868686614920565b614add565b949350505050565b6000600160ff1b82106149e957600080fd5b5090565b6001600160a01b038216614a48576040805162461bcd60e51b815260206004820152601f60248201527f45524332303a206d696e7420746f20746865207a65726f206164647265737300604482015290519081900360640190fd5b614a5460008383612787565b600254614a61908261278c565b6002556001600160a01b038216600090815260208190526040902054614a87908261278c565b6001600160a01b0383166000818152602081815260408083209490945583518581529351929391927fddf252ad1be2c89b69c2b068fc378daa952ba7f163c4a11628f55a4df523b3ef9281900390910190a35050565b600081602001516001600160a01b031682600001516001600160a01b031610614b0557600080fd5b50805160208083015160409384015184516001600160a01b0394851681850152939091168385015262ffffff166060808401919091528351808403820181526080840185528051908301207fff0000000000000000000000000000000000000000000000000000000000000060a085015294901b6bffffffffffffffffffffffff191660a183015260b58201939093527fe34f199b19b2b4f47f68442619d555527d244f78a3297ea89325f843f87b8b5460d5808301919091528251808303909101815260f5909101909152805191012090565b604080516060810182526000808252602082018190529181019190915290565b803561163a816158d9565b600082601f830112614c14578081fd5b813567ffffffffffffffff80821115614c2957fe5b604051601f8301601f191681016020018281118282101715614c4757fe5b604052828152848301602001861015614c5e578384fd5b82602086016020830137918201602001929092529392505050565b600060208284031215614c8a578081fd5b6040516020810181811067ffffffffffffffff82111715614ca757fe5b6040529151825250919050565b80516fffffffffffffffffffffffffffffffff8116811461163a57600080fd5b803560ff8116811461163a57600080fd5b600060208284031215614cf6578081fd5b8135610e5e816158d9565b60008060408385031215614d13578081fd5b8235614d1e816158d9565b91506020830135614d2e816158d9565b809150509250929050565b600080600060608486031215614d4d578081fd5b8335614d58816158d9565b92506020840135614d68816158d9565b929592945050506040919091013590565b60008060408385031215614d8b578182fd5b8235614d96816158d9565b946020939093013593505050565b600060208284031215614db5578081fd5b8151610e5e816158f1565b60008060408385031215614dd2578081fd5b8235614d96816158f1565b60008060408385031215614def578182fd5b505080516020909101519092909150565b60008060008060608587031215614e15578182fd5b8435935060208501359250604085013567ffffffffffffffff80821115614e3a578384fd5b818701915087601f830112614e4d578384fd5b813581811115614e5b578485fd5b886020828501011115614e6c578485fd5b95989497505060200194505050565b600060208284031215614e8c578081fd5b610e5e8383614c79565b600060808284031215614ea7578081fd5b6040516080810181811067ffffffffffffffff82111715614ec457fe5b8060405250825181526020830151602082015260408301516040820152606083015160608201528091505092915050565b600060208284031215614f06578081fd5b813567ffffffffffffffff80821115614f1d578283fd5b9083019060808286031215614f30578283fd5b604051608081018181108382111715614f4557fe5b604052823582811115614f56578485fd5b614f6287828601614c04565b825250614f7160208401614bf9565b6020820152614f8260408401614cd4565b6040820152606083013582811115614f98578485fd5b614fa487828601614c04565b60608301525095945050505050565b600060808284031215614fc4578081fd5b6040516080810181811067ffffffffffffffff82111715614fe157fe5b6040528251614fef816158d9565b8152602083015163ffffffff81168114615007578283fd5b602082015260408301516bffffffffffffffffffffffff8116811461502a578283fd5b604082015261503b60608401614cb4565b60608201529392505050565b600060208284031215615058578081fd5b815162ffffff81168114610e5e578182fd5b60006020828403121561507b578081fd5b5035919050565b600060208284031215615093578081fd5b5051919050565b6000806000606084860312156150ae578081fd5b833592506020840135614d68816158f1565b600080604083850312156150d2578182fd5b50508035926020909101359150565b6000806000606084860312156150f5578081fd5b505081359360208301359350604090920135919050565b60008151808452815b8181101561513157602081850181015186830182015201615115565b818111156151425782602083870101525b50601f01601f19169290920160200192915050565b606093841b6bffffffffffffffffffffffff19908116825260e89390931b7fffffff0000000000000000000000000000000000000000000000000000000000166014820152921b166017820152602b0190565b90815260200190565b93845260208401929092526040830152606082015260800190565b6001600160a01b0391909116815260200190565b6001600160a01b039586168152938516602085015291909316604083015263ffffffff9092166060820152901515608082015260a00190565b6001600160a01b039586168152938516602085015291909316604083015263ffffffff9283166060830152909116608082015260a00190565b6001600160a01b039384168152919092166020820152604081019190915260600190565b60006001600160a01b038088168352861515602084015285604084015280851660608401525060a0608083015261269760a083018461510c565b6001600160a01b03929092168252602082015260400190565b6001600160a01b0394909416845260208401929092526040830152606082015260800190565b901515815260200190565b9115158252602082015260400190565b92151583526020830191909152604082015260600190565b931515845260208401929092526040830152606082015260800190565b9415158552602085019390935260408401919091526060830152608082015260a00190565b600060208252610e5e602083018461510c565b60208082526028908201527f537472617465677920686173206e6f742072656465656d6564207661756c742060408201527f70726f6365656473000000000000000000000000000000000000000000000000606082015260800190565b60208082526035908201527f63616e206e6f7420657865637574652068656467696e6720747261646520617360408201527f2061756374696f6e2074797065206368616e6765640000000000000000000000606082015260800190565b60208082526018908201527f616d6f756e74206f7574206c657373207468616e206d696e0000000000000000604082015260600190565b60208082526017908201527f4c6f772045544820616d6f756e74207265636569766564000000000000000000604082015260600190565b60208082526012908201527f77726f6e672061756374696f6e20747970650000000000000000000000000000604082015260600190565b6020808252601a908201527f616d6f756e7420696e2067726561746572207468616e206d6178000000000000604082015260600190565b60208082526019908201527f50726963652068656467696e67206e6f7420616c6c6f77656400000000000000604082015260600190565b60208082526023908201527f5371756565746820636f6e74726163747320617265206e6f742073687574206460408201526237bbb760e91b606082015260800190565b6020808252601b908201527f70726f666974206973206c657373207468616e206d696e204554480000000000604082015260600190565b6020808252601b908201527f54696d652068656467696e67206973206e6f7420616c6c6f7765640000000000604082015260600190565b60208082526012908201527f43616e6e6f742072656365697665206574680000000000000000000000000000604082015260600190565b6020808252601c908201527f4465706f73697420657863656564732073747261746567792063617000000000604082015260600190565b6020808252602d908201527f41756374696f6e2070726963652067726561746572207468616e206d6178206160408201526c6363657074656420707269636560981b606082015260800190565b6020808252601c908201527f45544820617474616368656420666f72206275792061756374696f6e00000000604082015260600190565b6020808252818101527f70726f666974206973206c657373207468616e206d696e207753717565657468604082015260600190565b6020808252602d908201527f41756374696f6e2070726963652067726561746572207468616e206d696e206160408201526c6363657074656420707269636560981b606082015260800190565b60208082526050908201527f43726162207374726174656779207368757420646f776e2064756520746f206660408201527f756c6c206c69717569646174696f6e206f722073687574646f776e206f66207360608201527f71756565746820636f6e74726163747300000000000000000000000000000000608082015260a00190565b60208082526019908201527f73747261746567792069732064656c7461206e65757472616c00000000000000604082015260600190565b60006020825282516080602084015261584160a084018261510c565b90506001600160a01b03602085015116604084015260ff60408501511660608401526060840151601f1984830301608085015261333c828261510c565b918252602082015260400190565b92835260208301919091521515604082015260600190565b9283526020830191909152604082015260600190565b63ffffffff91909116815260200190565b60ff91909116815260200190565b6001600160a01b03811681146158ee57600080fd5b50565b80151581146158ee57600080fdfe45524332303a207472616e7366657220746f20746865207a65726f206164647265737345524332303a206275726e20616d6f756e7420657863656564732062616c616e63654f776e61626c653a206e6577206f776e657220697320746865207a65726f206164647265737345524332303a20617070726f766520746f20746865207a65726f206164647265737345524332303a207472616e7366657220616d6f756e7420657863656564732062616c616e6365416464726573733a20756e61626c6520746f2073656e642076616c75652c20726563697069656e74206d6179206861766520726576657274656445524332303a207472616e7366657220616d6f756e74206578636565647320616c6c6f77616e636545524332303a206275726e2066726f6d20746865207a65726f206164647265737345524332303a207472616e736665722066726f6d20746865207a65726f206164647265737345524332303a20617070726f76652066726f6d20746865207a65726f206164647265737345524332303a2064656372656173656420616c6c6f77616e63652062656c6f77207a65726fa2646970667358221220b1972285e63bdfb8208cc087c392f5dbbdca1910676c7d3fcc55b9136d1b0e8b64736f6c63430007060033",
  "devdoc": {
    "author": "Opyn team",
    "details": "CrabStrategy contract",
    "kind": "dev",
    "methods": {
      "allowance(address,address)": {
        "details": "See {IERC20-allowance}."
      },
      "approve(address,uint256)": {
        "details": "See {IERC20-approve}. Requirements: - `spender` cannot be the zero address."
      },
      "balanceOf(address)": {
        "details": "See {IERC20-balanceOf}."
      },
      "checkPriceHedge(uint256)": {
        "params": {
          "_auctionTriggerTime": "alleged timestamp where auction was triggered"
        },
        "returns": {
          "_0": "true if hedging is allowed"
        }
      },
      "checkTimeHedge()": {
        "returns": {
          "_0": "isTimeHedgeAllowed true if hedging is allowed",
          "_1": "auctionTriggertime auction trigger timestamp"
        }
      },
      "constructor": {
        "details": "this will open a vault in the power token contract and store the vault ID",
        "params": {
          "_auctionTime": "auction duration (seconds)",
          "_ethWSqueethPool": "eth:wSqueeth uniswap pool address",
          "_hedgePriceThreshold": "hedge price threshold (0.1*1e18 = 10%)",
          "_hedgeTimeThreshold": "hedge time threshold (seconds)",
          "_maxPriceMultiplier": "maximum auction price multiplier (1.1*1e18 = max auction price is 110% of twap)",
          "_minPriceMultiplier": "minimum auction price multiplier (0.9*1e18 = min auction price is 90% of twap)",
          "_oracle": "oracle address",
          "_uniswapFactory": "uniswap factory address",
          "_wSqueethController": "power token controller address",
          "_weth": "weth address"
        }
      },
      "decimals()": {
        "details": "Returns the number of decimals used to get its user representation. For example, if `decimals` equals `2`, a balance of `505` tokens should be displayed to a user as `5,05` (`505 / 10 ** 2`). Tokens usually opt for a value of 18, imitating the relationship between Ether and Wei. This is the value {ERC20} uses, unless {_setupDecimals} is called. NOTE: This information is only used for _display_ purposes: it in no way affects any of the arithmetic of the contract, including {IERC20-balanceOf} and {IERC20-transfer}."
      },
      "decreaseAllowance(address,uint256)": {
        "details": "Atomically decreases the allowance granted to `spender` by the caller. This is an alternative to {approve} that can be used as a mitigation for problems described in {IERC20-approve}. Emits an {Approval} event indicating the updated allowance. Requirements: - `spender` cannot be the zero address. - `spender` must have allowance for the caller of at least `subtractedValue`."
      },
      "deposit()": {
        "details": "provide ETH, return wSqueeth and strategy token",
        "returns": {
          "_0": "wSqueethToMint minted amount of wSqueeth",
          "_1": "depositorCrabAmount minted amount of strategy token"
        }
      },
      "flashDeposit(uint256)": {
        "details": "this function will execute a flash swap where it receives ETH, deposits and mints using flash swap proceeds and msg.value, and then repays the flash swap with wSqueeth_ethToDeposit must be less than msg.value plus the proceeds from the flash swapthe difference between _ethToDeposit and msg.value provides the minimum that a user can receive for their sold wSqueeth",
        "params": {
          "_ethToDeposit": "total ETH that will be deposited in to the strategy which is a combination of msg.value and flash swap proceeds"
        }
      },
      "flashWithdraw(uint256,uint256)": {
        "details": "this function will execute a flash swap where it receives wSqueeth, burns, withdraws ETH and then repays the flash swap with ETH",
        "params": {
          "_crabAmount": "strategy token amount to burn",
          "_maxEthToPay": "maximum ETH to pay to buy back the owed wSqueeth debt"
        }
      },
      "getStrategyVaultId()": {
        "returns": {
          "_0": "vault ID"
        }
      },
      "getVaultDetails()": {
        "returns": {
          "_0": "operator",
          "_1": "nft collateral id",
          "_2": "collateral amount",
          "_3": "short amount"
        }
      },
      "getWsqueethFromCrabAmount(uint256)": {
        "details": "_crabAmount strategy token amount",
        "returns": {
          "_0": "wSqueeth amount"
        }
      },
      "increaseAllowance(address,uint256)": {
        "details": "Atomically increases the allowance granted to `spender` by the caller. This is an alternative to {approve} that can be used as a mitigation for problems described in {IERC20-approve}. Emits an {Approval} event indicating the updated allowance. Requirements: - `spender` cannot be the zero address."
      },
      "name()": {
        "details": "Returns the name of the token."
      },
      "owner()": {
        "details": "Returns the address of the current owner."
      },
      "priceHedge(uint256,bool,uint256)": {
        "details": "need to attach msg.value if buying WSqueeth",
        "params": {
          "_auctionTriggerTime": "timestamp where auction started"
        }
      },
      "redeemShortShutdown()": {
        "details": "needs to be called 1 time before users can exit the strategy using withdrawShutdown"
      },
      "renounceOwnership()": {
        "details": "Leaves the contract without owner. It will not be possible to call `onlyOwner` functions anymore. Can only be called by the current owner. NOTE: Renouncing ownership will leave the contract without an owner, thereby removing any functionality that is only available to the owner."
      },
      "setStrategyCap(uint256)": {
        "details": "deposits are rejected if it would put the strategy above the cap amountstrategy collateral can be above the cap amount due to hedging activities",
        "params": {
          "_capAmount": "the maximum strategy collateral in ETH, checked on deposits"
        }
      },
      "symbol()": {
        "details": "Returns the symbol of the token, usually a shorter version of the name."
      },
      "timeHedge(bool,uint256)": {
        "details": "need to attach msg.value if buying WSqueeth",
        "params": {
          "_isStrategySellingWSqueeth": "sell or buy auction, true for sell auction",
          "_limitPrice": "hedger limit auction price, should be the max price when auction is sell auction, min price when it is a buy auction"
        }
      },
      "timeHedgeOnUniswap(uint256,uint256)": {
        "params": {
          "_minEth": "minimum ETH amount of profit if hedge auction is buying WSqueeth",
          "_minWSqueeth": "minimum WSqueeth amount of profit if hedge auction is selling WSqueeth"
        }
      },
      "totalSupply()": {
        "details": "See {IERC20-totalSupply}."
      },
      "transfer(address,uint256)": {
        "details": "See {IERC20-transfer}. Requirements: - `recipient` cannot be the zero address. - the caller must have a balance of at least `amount`."
      },
      "transferFrom(address,address,uint256)": {
        "details": "See {IERC20-transferFrom}. Emits an {Approval} event indicating the updated allowance. This is not required by the EIP. See the note at the beginning of {ERC20}. Requirements: - `sender` and `recipient` cannot be the zero address. - `sender` must have a balance of at least `amount`. - the caller must have allowance for ``sender``'s tokens of at least `amount`."
      },
      "transferOwnership(address)": {
        "details": "Transfers ownership of the contract to a new account (`newOwner`). Can only be called by the current owner."
      },
      "uniswapV3SwapCallback(int256,int256,bytes)": {
        "params": {
          "_data": "callback data encoded as SwapCallbackData struct",
          "amount0Delta": "amount of token0",
          "amount1Delta": "amount of token1"
        }
      },
      "withdraw(uint256)": {
        "details": "provide strategy tokens and wSqueeth, returns eth",
        "params": {
          "_crabAmount": "amount of strategy token to burn"
        }
      },
      "withdrawShutdown(uint256)": {
        "params": {
          "_crabAmount": "amount of strategy token to burn"
        }
      }
    },
    "stateVariables": {
      "auctionTime": {
        "details": "hedge auction duration (seconds)"
      },
      "ethWSqueethPool": {
        "details": "ETH:WSqueeth uniswap pool"
      },
      "hasRedeemedInShutdown": {
        "details": "set to true when redeemShortShutdown has been called"
      },
      "hedgePriceThreshold": {
        "details": "price movement to trigger a hedge (0.1*1e18 = 10%)"
      },
      "hedgeTimeThreshold": {
        "details": "time difference to trigger a hedge (seconds)"
      },
      "maxPriceMultiplier": {
        "details": "start auction price multiplier for hedge sell auction and reserve price for hedge buy auction (scaled 1e18)"
      },
      "minPriceMultiplier": {
        "details": "start auction price multiplier for hedge buy auction and reserve price for end sell auction (scaled 1e18)"
      },
      "oracle": {
        "details": "strategy uniswap oracle"
      },
      "priceAtLastHedge": {
        "details": "WSqueeth/Eth price when last hedge executed"
      },
      "timeAtLastHedge": {
        "details": "timestamp when last hedge executed"
      }
    },
    "version": 1
  },
  "userdoc": {
    "kind": "user",
    "methods": {
      "checkPriceHedge(uint256)": {
        "notice": "check if hedging based on price threshold is allowed"
      },
      "checkTimeHedge()": {
        "notice": "check if hedging based on time threshold is allowed"
      },
      "constructor": {
        "notice": "strategy constructor"
      },
      "deposit()": {
        "notice": "deposit ETH into strategy"
      },
      "flashDeposit(uint256)": {
        "notice": "flash deposit into strategy, providing ETH, selling wSqueeth and receiving strategy tokens"
      },
      "flashWithdraw(uint256,uint256)": {
        "notice": "flash deposit into strategy, providing strategy tokens, buying wSqueeth, burning and receiving ETH"
      },
      "getStrategyVaultId()": {
        "notice": "get power token strategy vault ID "
      },
      "getVaultDetails()": {
        "notice": "get the vault composition of the strategy "
      },
      "getWsqueethFromCrabAmount(uint256)": {
        "notice": "get wSqueeth debt amount associated with strategy token amount"
      },
      "priceHedge(uint256,bool,uint256)": {
        "notice": "strategy hedging based on price threshold"
      },
      "priceHedgeOnUniswap(uint256,uint256,uint256)": {
        "notice": "hedge startegy based on price threshold with uniswap arbing"
      },
      "redeemShortShutdown()": {
        "notice": "called to redeem the net value of a vault post shutdown"
      },
      "setStrategyCap(uint256)": {
        "notice": "owner can set the strategy cap in ETH collateral terms"
      },
      "timeHedge(bool,uint256)": {
        "notice": "strategy hedging based on time threshold"
      },
      "timeHedgeOnUniswap(uint256,uint256)": {
        "notice": "hedge startegy based on time threshold with uniswap arbing"
      },
      "uniswapV3SwapCallback(int256,int256,bytes)": {
        "notice": "uniswap swap callback function for flashes"
      },
      "withdraw(uint256)": {
        "notice": "withdraw WETH from strategy"
      },
      "withdrawShutdown(uint256)": {
        "notice": "called to exit a vault if the Squeeth Power Perp contracts are shutdown"
      }
    },
    "notice": "Contract for Crab strategy",
    "version": 1
  },
  "storageLayout": {
    "storage": [
      {
        "astId": 616,
        "contract": "contracts/strategy/CrabStrategy.sol:CrabStrategy",
        "label": "_balances",
        "offset": 0,
        "slot": "0",
        "type": "t_mapping(t_address,t_uint256)"
      },
      {
        "astId": 622,
        "contract": "contracts/strategy/CrabStrategy.sol:CrabStrategy",
        "label": "_allowances",
        "offset": 0,
        "slot": "1",
        "type": "t_mapping(t_address,t_mapping(t_address,t_uint256))"
      },
      {
        "astId": 624,
        "contract": "contracts/strategy/CrabStrategy.sol:CrabStrategy",
        "label": "_totalSupply",
        "offset": 0,
        "slot": "2",
        "type": "t_uint256"
      },
      {
        "astId": 626,
        "contract": "contracts/strategy/CrabStrategy.sol:CrabStrategy",
        "label": "_name",
        "offset": 0,
        "slot": "3",
        "type": "t_string_storage"
      },
      {
        "astId": 628,
        "contract": "contracts/strategy/CrabStrategy.sol:CrabStrategy",
        "label": "_symbol",
        "offset": 0,
        "slot": "4",
        "type": "t_string_storage"
      },
      {
        "astId": 630,
        "contract": "contracts/strategy/CrabStrategy.sol:CrabStrategy",
        "label": "_decimals",
        "offset": 0,
        "slot": "5",
        "type": "t_uint8"
      },
      {
        "astId": 18018,
        "contract": "contracts/strategy/CrabStrategy.sol:CrabStrategy",
        "label": "powerTokenController",
        "offset": 1,
        "slot": "5",
        "type": "t_contract(IController)10843"
      },
      {
        "astId": 3698,
        "contract": "contracts/strategy/CrabStrategy.sol:CrabStrategy",
        "label": "_status",
        "offset": 0,
        "slot": "6",
        "type": "t_uint256"
      },
      {
        "astId": 7,
        "contract": "contracts/strategy/CrabStrategy.sol:CrabStrategy",
        "label": "_owner",
        "offset": 0,
        "slot": "7",
        "type": "t_address"
      },
      {
        "astId": 15704,
        "contract": "contracts/strategy/CrabStrategy.sol:CrabStrategy",
        "label": "strategyCap",
        "offset": 0,
        "slot": "8",
        "type": "t_uint256"
      },
      {
        "astId": 15737,
        "contract": "contracts/strategy/CrabStrategy.sol:CrabStrategy",
        "label": "timeAtLastHedge",
        "offset": 0,
        "slot": "9",
        "type": "t_uint256"
      },
      {
        "astId": 15740,
        "contract": "contracts/strategy/CrabStrategy.sol:CrabStrategy",
        "label": "priceAtLastHedge",
        "offset": 0,
        "slot": "10",
        "type": "t_uint256"
      },
      {
        "astId": 15742,
        "contract": "contracts/strategy/CrabStrategy.sol:CrabStrategy",
        "label": "auctionStartTime",
        "offset": 0,
        "slot": "11",
        "type": "t_uint256"
      },
      {
        "astId": 15745,
        "contract": "contracts/strategy/CrabStrategy.sol:CrabStrategy",
        "label": "hasRedeemedInShutdown",
        "offset": 0,
        "slot": "12",
        "type": "t_bool"
      }
    ],
    "types": {
      "t_address": {
        "encoding": "inplace",
        "label": "address",
        "numberOfBytes": "20"
      },
      "t_bool": {
        "encoding": "inplace",
        "label": "bool",
        "numberOfBytes": "1"
      },
      "t_contract(IController)10843": {
        "encoding": "inplace",
        "label": "contract IController",
        "numberOfBytes": "20"
      },
      "t_mapping(t_address,t_mapping(t_address,t_uint256))": {
        "encoding": "mapping",
        "key": "t_address",
        "label": "mapping(address => mapping(address => uint256))",
        "numberOfBytes": "32",
        "value": "t_mapping(t_address,t_uint256)"
      },
      "t_mapping(t_address,t_uint256)": {
        "encoding": "mapping",
        "key": "t_address",
        "label": "mapping(address => uint256)",
        "numberOfBytes": "32",
        "value": "t_uint256"
      },
      "t_string_storage": {
        "encoding": "bytes",
        "label": "string",
        "numberOfBytes": "32"
      },
      "t_uint256": {
        "encoding": "inplace",
        "label": "uint256",
        "numberOfBytes": "32"
      },
      "t_uint8": {
        "encoding": "inplace",
        "label": "uint8",
        "numberOfBytes": "1"
      }
    }
  }
}