{
  "address": "0xBD9F4bE886653177D22fA9c79FD0DFc41407fC89",
  "abi": [
    {
      "inputs": [
        {
          "internalType": "address",
          "name": "_pool",
          "type": "address"
        },
        {
          "internalType": "address",
          "name": "_base",
          "type": "address"
        },
        {
          "internalType": "address",
          "name": "_quote",
          "type": "address"
        },
        {
          "internalType": "uint32",
          "name": "_secondsAgoToStartOfTwap",
          "type": "uint32"
        },
        {
          "internalType": "uint32",
          "name": "_secondsAgoToEndOfTwap",
          "type": "uint32"
        }
      ],
      "name": "getHistoricalTwap",
      "outputs": [
        {
          "internalType": "uint256",
          "name": "",
          "type": "uint256"
        }
      ],
      "stateMutability": "view",
      "type": "function"
    },
    {
      "inputs": [
        {
          "internalType": "address",
          "name": "_pool",
          "type": "address"
        }
      ],
      "name": "getMaxPeriod",
      "outputs": [
        {
          "internalType": "uint32",
          "name": "",
          "type": "uint32"
        }
      ],
      "stateMutability": "view",
      "type": "function"
    },
    {
      "inputs": [
        {
          "internalType": "address",
          "name": "_pool",
          "type": "address"
        },
        {
          "internalType": "uint32",
          "name": "_period",
          "type": "uint32"
        }
      ],
      "name": "getTimeWeightedAverageTickSafe",
      "outputs": [
        {
          "internalType": "int24",
          "name": "timeWeightedAverageTick",
          "type": "int24"
        }
      ],
      "stateMutability": "view",
      "type": "function"
    },
    {
      "inputs": [
        {
          "internalType": "address",
          "name": "_pool",
          "type": "address"
        },
        {
          "internalType": "address",
          "name": "_base",
          "type": "address"
        },
        {
          "internalType": "address",
          "name": "_quote",
          "type": "address"
        },
        {
          "internalType": "uint32",
          "name": "_period",
          "type": "uint32"
        },
        {
          "internalType": "bool",
          "name": "_checkPeriod",
          "type": "bool"
        }
      ],
      "name": "getTwap",
      "outputs": [
        {
          "internalType": "uint256",
          "name": "",
          "type": "uint256"
        }
      ],
      "stateMutability": "view",
      "type": "function"
    }
  ],
  "transactionHash": "0xbdc943e7539c8291bdc621977da530c276fbfc71876d2b05abe6854ef7754dba",
  "args": [],
  "solcInputHash": "5f450d03d2b8109eaf06de68c57d8c2b",
  "bytecode": "0x608060405234801561001057600080fd5b50610edc806100206000396000f3fe608060405234801561001057600080fd5b506004361061004c5760003560e01c80634a0a96eb146100515780634ac78d111461009a578063cce79bd5146100f6578063de5a6e2214610140575b600080fd5b6100836004803603604081101561006757600080fd5b5080356001600160a01b0316906020013563ffffffff1661017f565b6040805160029290920b8252519081900360200190f35b6100e4600480360360a08110156100b057600080fd5b506001600160a01b03813581169160208101358216916040820135169063ffffffff606082013581169160800135166101c3565b60408051918252519081900360200190f35b6100e4600480360360a081101561010c57600080fd5b506001600160a01b03813581169160208101358216916040820135169063ffffffff606082013516906080013515156101de565b6101666004803603602081101561015657600080fd5b50356001600160a01b031661023c565b6040805163ffffffff9092168252519081900360200190f35b60008061018b8461024f565b905060008163ffffffff168463ffffffff16116101a857836101aa565b815b90506101b8858260006103fb565b925050505b92915050565b60006101d28686868686610713565b90505b95945050505050565b6000816101f8576101f186868686610742565b90506101d5565b60006102038761024f565b905060008163ffffffff168563ffffffff16116102205784610222565b815b905061023088888884610742565b98975050505050505050565b60006102478261024f565b90505b919050565b600080829050600080826001600160a01b0316633850c7bd6040518163ffffffff1660e01b815260040160e06040518083038186803b15801561029157600080fd5b505afa1580156102a5573d6000803e3d6000fd5b505050506040513d60e08110156102bb57600080fd5b5060408101516060909101519092509050600061ffff808316906001850116816102e157fe5b069050600080856001600160a01b031663252c09d7846040518263ffffffff1660e01b8152600401808261ffff16815260200191505060806040518083038186803b15801561032f57600080fd5b505afa158015610343573d6000803e3d6000fd5b505050506040513d608081101561035957600080fd5b5080516060909101519092509050801561037c57504203945061024a9350505050565b856001600160a01b031663252c09d760006040518263ffffffff1660e01b81526004018082815260200191505060806040518083038186803b1580156103c157600080fd5b505afa1580156103d5573d6000803e3d6000fd5b505050506040513d60808110156103eb57600080fd5b5051420398975050505050505050565b60008163ffffffff168363ffffffff1611610442576040805162461bcd60e51b8152602060048201526002602482015261042560f41b604482015290519081900360640190fd5b6040805160028082526060820183526000928392919060208301908036833701905050905060008486039050858260008151811061047c57fe5b602002602001019063ffffffff16908163ffffffff168152505084826001815181106104a457fe5b63ffffffff90921660209283029190910182015260405163883bdbfd60e01b8152600481018281528451602483015284516000936001600160a01b038c169363883bdbfd938893909283926044019185820191028083838b5b838110156105155781810151838201526020016104fd565b505050509050019250505060006040518083038186803b15801561053857600080fd5b505afa15801561054c573d6000803e3d6000fd5b505050506040513d6000823e601f3d908101601f19168201604090815281101561057557600080fd5b810190808051604051939291908464010000000082111561059557600080fd5b9083019060208201858111156105aa57600080fd5b82518660208202830111640100000000821117156105c757600080fd5b82525081516020918201928201910280838360005b838110156105f45781810151838201526020016105dc565b505050509050016040526020018051604051939291908464010000000082111561061d57600080fd5b90830190602082018581111561063257600080fd5b825186602082028301116401000000008211171561064f57600080fd5b82525081516020918201928201910280838360005b8381101561067c578181015183820152602001610664565b5050505090500160405250505050905060008160008151811061069b57fe5b6020026020010151826001815181106106b057fe5b60200260200101510390508263ffffffff168160060b816106cd57fe5b05945060008160060b1280156106f757508263ffffffff168160060b816106f057fe5b0760060b15155b1561070457600019909401935b509293505050505b9392505050565b6000806107218785856103fb565b905061073781670de0b6b3a76400008888610891565b979650505050505050565b600080610751868686866109b5565b90506000856001600160a01b031663313ce5676040518163ffffffff1660e01b815260040160206040518083038186803b15801561078e57600080fd5b505afa1580156107a2573d6000803e3d6000fd5b505050506040513d60208110156107b857600080fd5b50516040805163313ce56760e01b815290519192506000916001600160a01b0388169163313ce567916004808301926020929190829003018186803b15801561080057600080fd5b505afa158015610814573d6000803e3d6000fd5b505050506040513d602081101561082a57600080fd5b5051905060ff828116908216141561084757829350505050610889565b8060ff168260ff161115610871576108678360ff83850316600a0a6109e4565b9350505050610889565b6108838360ff84840316600a0a610a3d565b93505050505b949350505050565b60008061089d86610aa4565b90506fffffffffffffffffffffffffffffffff6001600160a01b03821611610927576001600160a01b03808216800290848116908616106108fe576108f9600160c01b876fffffffffffffffffffffffffffffffff1683610dd6565b61091f565b61091f81876fffffffffffffffffffffffffffffffff16600160c01b610dd6565b9250506109ac565b60006109466001600160a01b0383168068010000000000000000610dd6565b9050836001600160a01b0316856001600160a01b03161061098757610982600160801b876fffffffffffffffffffffffffffffffff1683610dd6565b6109a8565b6109a881876fffffffffffffffffffffffffffffffff16600160801b610dd6565b9250505b50949350505050565b6000806109c4868460006103fb565b90506109da81670de0b6b3a76400008787610891565b9695505050505050565b6000826109f3575060006101bd565b82820282848281610a0057fe5b041461070c5760405162461bcd60e51b8152600401808060200182810382526021815260200180610e866021913960400191505060405180910390fd5b6000808211610a93576040805162461bcd60e51b815260206004820152601a60248201527f536166654d6174683a206469766973696f6e206279207a65726f000000000000604482015290519081900360640190fd5b818381610a9c57fe5b049392505050565b60008060008360020b12610abb578260020b610ac3565b8260020b6000035b9050620d89e8811115610b01576040805162461bcd60e51b81526020600482015260016024820152601560fa1b604482015290519081900360640190fd5b600060018216610b1557600160801b610b27565b6ffffcb933bd6fad37aa2d162d1a5940015b70ffffffffffffffffffffffffffffffffff1690506002821615610b5b576ffff97272373d413259a46990580e213a0260801c5b6004821615610b7a576ffff2e50f5f656932ef12357cf3c7fdcc0260801c5b6008821615610b99576fffe5caca7e10e4e61c3624eaa0941cd00260801c5b6010821615610bb8576fffcb9843d60f6159c9db58835c9266440260801c5b6020821615610bd7576fff973b41fa98c081472e6896dfb254c00260801c5b6040821615610bf6576fff2ea16466c96a3843ec78b326b528610260801c5b6080821615610c15576ffe5dee046a99a2a811c461f1969c30530260801c5b610100821615610c35576ffcbe86c7900a88aedcffc83b479aa3a40260801c5b610200821615610c55576ff987a7253ac413176f2b074cf7815e540260801c5b610400821615610c75576ff3392b0822b70005940c7a398e4b70f30260801c5b610800821615610c95576fe7159475a2c29b7443b29c7fa6e889d90260801c5b611000821615610cb5576fd097f3bdfd2022b8845ad8f792aa58250260801c5b612000821615610cd5576fa9f746462d870fdf8a65dc1f90e061e50260801c5b614000821615610cf5576f70d869a156d2a1b890bb3df62baf32f70260801c5b618000821615610d15576f31be135f97d08fd981231505542fcfa60260801c5b62010000821615610d36576f09aa508b5b7a84e1c677de54f3e99bc90260801c5b62020000821615610d56576e5d6af8dedb81196699c329225ee6040260801c5b62040000821615610d75576d2216e584f5fa1ea926041bedfe980260801c5b62080000821615610d92576b048a170391f7dc42444e8fa20260801c5b60008460020b1315610dad578060001981610da957fe5b0490505b640100000000810615610dc1576001610dc4565b60005b60ff16602082901c0192505050919050565b6000808060001985870986860292508281109083900303905080610e0c5760008411610e0157600080fd5b50829004905061070c565b808411610e1857600080fd5b6000848688096000868103871696879004966002600389028118808a02820302808a02820302808a02820302808a02820302808a02820302808a0290910302918190038190046001018684119095039490940291909403929092049190911791909102915050939250505056fe536166654d6174683a206d756c7469706c69636174696f6e206f766572666c6f77a2646970667358221220b1a443112ea45879a00fbc518b3cc36f190c9940d1022cd43a38928e460276ce64736f6c63430007060033",
  "devdoc": {
    "details": "if ETH price is $3000, both ETH/USDC price and ETH/DAI price will be reported as 3000 * 1e18 by this oracle",
    "kind": "dev",
    "methods": {
      "getHistoricalTwap(address,address,address,uint32,uint32)": {
        "details": "if the _secondsAgoToStartOfTwap period is longer than the current timestamp - first timestamp stored in the pool, this will revert with \"OLD\"",
        "params": {
          "_base": "base currency. to get eth/usd price, eth is base token",
          "_pool": "uniswap pool address",
          "_quote": "quote currency. to get eth/usd price, usd is the quote currency",
          "_secondsAgoToEndOfTwap": "amount of seconds in the past to end calculating time-weighted average",
          "_secondsAgoToStartOfTwap": "amount of seconds in the past to start calculating time-weighted average"
        },
        "returns": {
          "_0": "price of 1 base currency in quote currency. scaled by 1e18"
        }
      },
      "getMaxPeriod(address)": {
        "params": {
          "_pool": "uniswap pool address"
        },
        "returns": {
          "_0": "max period can be used to request twap"
        }
      },
      "getTimeWeightedAverageTickSafe(address,uint32)": {
        "details": "this function will not revert",
        "params": {
          "_period": "period in second that we want to calculate average on",
          "_pool": "address of the pool"
        },
        "returns": {
          "timeWeightedAverageTick": "the time weighted average tick"
        }
      },
      "getTwap(address,address,address,uint32,bool)": {
        "details": "if period is longer than the current timestamp - first timestamp stored in the pool, this will revert with \"OLD\"",
        "params": {
          "_base": "base currency. to get eth/usd price, eth is base token",
          "_period": "number of seconds in the past to start calculating time-weighted average",
          "_pool": "uniswap pool address",
          "_quote": "quote currency. to get eth/usd price, usd is the quote currency"
        },
        "returns": {
          "_0": "price of 1 base currency in quote currency. scaled by 1e18"
        }
      }
    },
    "version": 1
  },
  "userdoc": {
    "kind": "user",
    "methods": {
      "getHistoricalTwap(address,address,address,uint32,uint32)": {
        "notice": "get twap for a specific period of time, converted with base & quote token decimals"
      },
      "getMaxPeriod(address)": {
        "notice": "get the max period that can be used to request twap"
      },
      "getTimeWeightedAverageTickSafe(address,uint32)": {
        "notice": "get time weighed average tick, not converted to price"
      },
      "getTwap(address,address,address,uint32,bool)": {
        "notice": "get twap converted with base & quote token decimals"
      }
    },
    "notice": "read UniswapV3 pool TWAP prices, and convert to human readable term with (18 decimals)",
    "version": 1
  },
  "storageLayout": {
    "storage": [],
    "types": null
  }
}