{
  "address": "0x6A0451153CeD706f83f8104b2E0e3d8f465612Ff",
  "abi": [
    {
      "inputs": [
        {
          "internalType": "address",
          "name": "_pool",
          "type": "address"
        },
        {
          "internalType": "address",
          "name": "_base",
          "type": "address"
        },
        {
          "internalType": "address",
          "name": "_quote",
          "type": "address"
        },
        {
          "internalType": "uint32",
          "name": "_secondsAgoToStartOfTwap",
          "type": "uint32"
        },
        {
          "internalType": "uint32",
          "name": "_secondsAgoToEndOfTwap",
          "type": "uint32"
        }
      ],
      "name": "getHistoricalTwap",
      "outputs": [
        {
          "internalType": "uint256",
          "name": "",
          "type": "uint256"
        }
      ],
      "stateMutability": "view",
      "type": "function"
    },
    {
      "inputs": [
        {
          "internalType": "address",
          "name": "_pool",
          "type": "address"
        }
      ],
      "name": "getMaxPeriod",
      "outputs": [
        {
          "internalType": "uint32",
          "name": "",
          "type": "uint32"
        }
      ],
      "stateMutability": "view",
      "type": "function"
    },
    {
      "inputs": [
        {
          "internalType": "address",
          "name": "_pool",
          "type": "address"
        },
        {
          "internalType": "uint32",
          "name": "_period",
          "type": "uint32"
        }
      ],
      "name": "getTimeWeightedAverageTickSafe",
      "outputs": [
        {
          "internalType": "int24",
          "name": "timeWeightedAverageTick",
          "type": "int24"
        }
      ],
      "stateMutability": "view",
      "type": "function"
    },
    {
      "inputs": [
        {
          "internalType": "address",
          "name": "_pool",
          "type": "address"
        },
        {
          "internalType": "address",
          "name": "_base",
          "type": "address"
        },
        {
          "internalType": "address",
          "name": "_quote",
          "type": "address"
        },
        {
          "internalType": "uint32",
          "name": "_period",
          "type": "uint32"
        }
      ],
      "name": "getTwap",
      "outputs": [
        {
          "internalType": "uint256",
          "name": "",
          "type": "uint256"
        }
      ],
      "stateMutability": "view",
      "type": "function"
    },
    {
      "inputs": [
        {
          "internalType": "address",
          "name": "_pool",
          "type": "address"
        },
        {
          "internalType": "address",
          "name": "_base",
          "type": "address"
        },
        {
          "internalType": "address",
          "name": "_quote",
          "type": "address"
        },
        {
          "internalType": "uint32",
          "name": "_period",
          "type": "uint32"
        }
      ],
      "name": "getTwapSafe",
      "outputs": [
        {
          "internalType": "uint256",
          "name": "",
          "type": "uint256"
        }
      ],
      "stateMutability": "view",
      "type": "function"
    }
  ],
  "transactionHash": "0xfe1cbafd343ecfa5ce13fb0007ec8d3517f338e7ab40ee31a1ac956a1369e90f",
  "args": [],
  "solcInputHash": "564b64dd789f38eb408e7873b9437604",
  "bytecode": "0x608060405234801561001057600080fd5b5061133c806100206000396000f3fe608060405234801561001057600080fd5b50600436106100675760003560e01c8063821b972a11610050578063821b972a14610111578063d6906e6d14610154578063de5a6e221461019757610067565b80634a0a96eb1461006c5780634ac78d11146100b5575b600080fd5b61009e6004803603604081101561008257600080fd5b5080356001600160a01b0316906020013563ffffffff166101d6565b6040805160029290920b8252519081900360200190f35b6100ff600480360360a08110156100cb57600080fd5b506001600160a01b03813581169160208101358216916040820135169063ffffffff60608201358116916080013516610218565b60408051918252519081900360200190f35b6100ff6004803603608081101561012757600080fd5b5080356001600160a01b03908116916020810135821691604082013516906060013563ffffffff1661023a565b6100ff6004803603608081101561016a57600080fd5b5080356001600160a01b03908116916020810135821691604082013516906060013563ffffffff16610253565b6101bd600480360360208110156101ad57600080fd5b50356001600160a01b0316610261565b6040805163ffffffff9092168252519081900360200190f35b6000806101e284610274565b905060008163ffffffff168463ffffffff16116101ff5783610201565b815b905061020d8582610420565b925050505b92915050565b60006102308686868686670de0b6b3a7640000610754565b9695505050505050565b600061024885858585610784565b90505b949350505050565b6000610248858585856108e7565b600061026c82610274565b90505b919050565b600080829050600080826001600160a01b0316633850c7bd6040518163ffffffff1660e01b815260040160e06040518083038186803b1580156102b657600080fd5b505afa1580156102ca573d6000803e3d6000fd5b505050506040513d60e08110156102e057600080fd5b5060408101516060909101519092509050600061ffff8083169060018501168161030657fe5b069050600080856001600160a01b031663252c09d7846040518263ffffffff1660e01b8152600401808261ffff16815260200191505060806040518083038186803b15801561035457600080fd5b505afa158015610368573d6000803e3d6000fd5b505050506040513d608081101561037e57600080fd5b508051606090910151909250905080156103a157504203945061026f9350505050565b856001600160a01b031663252c09d760006040518263ffffffff1660e01b81526004018082815260200191505060806040518083038186803b1580156103e657600080fd5b505afa1580156103fa573d6000803e3d6000fd5b505050506040513d608081101561041057600080fd5b5051420398975050505050505050565b600063ffffffff821661047a576040805162461bcd60e51b815260206004820152600260248201527f4250000000000000000000000000000000000000000000000000000000000000604482015290519081900360640190fd5b60408051600280825260608201835260009260208301908036833701905050905082816000815181106104a957fe5b602002602001019063ffffffff16908163ffffffff16815250506000816001815181106104d257fe5b63ffffffff9092166020928302919091018201526040517f883bdbfd000000000000000000000000000000000000000000000000000000008152600481018281528351602483015283516000936001600160a01b0389169363883bdbfd938793909283926044019185820191028083838b5b8381101561055c578181015183820152602001610544565b505050509050019250505060006040518083038186803b15801561057f57600080fd5b505afa158015610593573d6000803e3d6000fd5b505050506040513d6000823e601f3d908101601f1916820160409081528110156105bc57600080fd5b81019080805160405193929190846401000000008211156105dc57600080fd5b9083019060208201858111156105f157600080fd5b825186602082028301116401000000008211171561060e57600080fd5b82525081516020918201928201910280838360005b8381101561063b578181015183820152602001610623565b505050509050016040526020018051604051939291908464010000000082111561066457600080fd5b90830190602082018581111561067957600080fd5b825186602082028301116401000000008211171561069657600080fd5b82525081516020918201928201910280838360005b838110156106c35781810151838201526020016106ab565b505050509050016040525050505090506000816000815181106106e257fe5b6020026020010151826001815181106106f757fe5b60200260200101510390508463ffffffff168160060b8161071457fe5b05935060008160060b12801561073e57508463ffffffff168160060b8161073757fe5b0760060b15155b1561074b57600019909301925b50505092915050565b60008061076288868661092b565b90506107788161077185610c2d565b8989610c94565b98975050505050505050565b60008061079c86868686670de0b6b3a7640000610df8565b90506000856001600160a01b031663313ce5676040518163ffffffff1660e01b815260040160206040518083038186803b1580156107d957600080fd5b505afa1580156107ed573d6000803e3d6000fd5b505050506040513d602081101561080357600080fd5b5051604080517f313ce56700000000000000000000000000000000000000000000000000000000815290519192506000916001600160a01b0388169163313ce567916004808301926020929190829003018186803b15801561086457600080fd5b505afa158015610878573d6000803e3d6000fd5b505050506040513d602081101561088e57600080fd5b5051905060ff82811690821614156108ab5782935050505061024b565b8060ff168260ff1611156108d5576108cb8360ff83850316600a0a610e1b565b935050505061024b565b6107788360ff84840316600a0a610e74565b6000806108f386610274565b905060008163ffffffff168463ffffffff16116109105783610912565b815b905061092087878784610784565b979650505050505050565b60408051600280825260608201835260009283928392909160208301908036833701905050905063ffffffff841661096e576109678686610420565b9150610c22565b848160008151811061097c57fe5b602002602001019063ffffffff16908163ffffffff168152505083816001815181106109a457fe5b63ffffffff9092166020928302919091018201526040517f883bdbfd000000000000000000000000000000000000000000000000000000008152600481018281528351602483015283516000936001600160a01b038b169363883bdbfd938793909283926044019185820191028083838b5b83811015610a2e578181015183820152602001610a16565b505050509050019250505060006040518083038186803b158015610a5157600080fd5b505afa158015610a65573d6000803e3d6000fd5b505050506040513d6000823e601f3d908101601f191682016040908152811015610a8e57600080fd5b8101908080516040519392919084640100000000821115610aae57600080fd5b908301906020820185811115610ac357600080fd5b8251866020820283011164010000000082111715610ae057600080fd5b82525081516020918201928201910280838360005b83811015610b0d578181015183820152602001610af5565b5050505090500160405260200180516040519392919084640100000000821115610b3657600080fd5b908301906020820185811115610b4b57600080fd5b8251866020820283011164010000000082111715610b6857600080fd5b82525081516020918201928201910280838360005b83811015610b95578181015183820152602001610b7d565b50505050905001604052505050509050600081600081518110610bb457fe5b602002602001015182600181518110610bc957fe5b602002602001015103905085870363ffffffff168160060b81610be857fe5b05935060008160060b128015610c1257508663ffffffff168160060b81610c0b57fe5b0760060b15155b15610c1f57600019909301925b50505b5090505b9392505050565b806fffffffffffffffffffffffffffffffff8116811461026f576040805162461bcd60e51b815260206004820152600860248201527f4f766572666c6f77000000000000000000000000000000000000000000000000604482015290519081900360640190fd5b600080610ca086610edb565b90506fffffffffffffffffffffffffffffffff6001600160a01b03821611610d54576001600160a01b0380821680029084811690861610610d1657610d117801000000000000000000000000000000000000000000000000876fffffffffffffffffffffffffffffffff1683611236565b610d4c565b610d4c81876fffffffffffffffffffffffffffffffff167801000000000000000000000000000000000000000000000000611236565b925050610def565b6000610d736001600160a01b0383168068010000000000000000611236565b9050836001600160a01b0316856001600160a01b031610610dc157610dbc700100000000000000000000000000000000876fffffffffffffffffffffffffffffffff1683611236565b610920565b61092081876fffffffffffffffffffffffffffffffff16700100000000000000000000000000000000611236565b50949350505050565b600080610e058785610420565b905061092081610e1485610c2d565b8888610c94565b600082610e2a57506000610212565b82820282848281610e3757fe5b0414610c265760405162461bcd60e51b81526004018080602001828103825260218152602001806112e66021913960400191505060405180910390fd5b6000808211610eca576040805162461bcd60e51b815260206004820152601a60248201527f536166654d6174683a206469766973696f6e206279207a65726f000000000000604482015290519081900360640190fd5b818381610ed357fe5b049392505050565b60008060008360020b12610ef2578260020b610efa565b8260020b6000035b9050620d89e8811115610f54576040805162461bcd60e51b815260206004820152600160248201527f5400000000000000000000000000000000000000000000000000000000000000604482015290519081900360640190fd5b600060018216610f7557700100000000000000000000000000000000610f87565b6ffffcb933bd6fad37aa2d162d1a5940015b70ffffffffffffffffffffffffffffffffff1690506002821615610fbb576ffff97272373d413259a46990580e213a0260801c5b6004821615610fda576ffff2e50f5f656932ef12357cf3c7fdcc0260801c5b6008821615610ff9576fffe5caca7e10e4e61c3624eaa0941cd00260801c5b6010821615611018576fffcb9843d60f6159c9db58835c9266440260801c5b6020821615611037576fff973b41fa98c081472e6896dfb254c00260801c5b6040821615611056576fff2ea16466c96a3843ec78b326b528610260801c5b6080821615611075576ffe5dee046a99a2a811c461f1969c30530260801c5b610100821615611095576ffcbe86c7900a88aedcffc83b479aa3a40260801c5b6102008216156110b5576ff987a7253ac413176f2b074cf7815e540260801c5b6104008216156110d5576ff3392b0822b70005940c7a398e4b70f30260801c5b6108008216156110f5576fe7159475a2c29b7443b29c7fa6e889d90260801c5b611000821615611115576fd097f3bdfd2022b8845ad8f792aa58250260801c5b612000821615611135576fa9f746462d870fdf8a65dc1f90e061e50260801c5b614000821615611155576f70d869a156d2a1b890bb3df62baf32f70260801c5b618000821615611175576f31be135f97d08fd981231505542fcfa60260801c5b62010000821615611196576f09aa508b5b7a84e1c677de54f3e99bc90260801c5b620200008216156111b6576e5d6af8dedb81196699c329225ee6040260801c5b620400008216156111d5576d2216e584f5fa1ea926041bedfe980260801c5b620800008216156111f2576b048a170391f7dc42444e8fa20260801c5b60008460020b131561120d57806000198161120957fe5b0490505b640100000000810615611221576001611224565b60005b60ff16602082901c0192505050919050565b600080806000198587098686029250828110908390030390508061126c576000841161126157600080fd5b508290049050610c26565b80841161127857600080fd5b6000848688096000868103871696879004966002600389028118808a02820302808a02820302808a02820302808a02820302808a02820302808a0290910302918190038190046001018684119095039490940291909403929092049190911791909102915050939250505056fe536166654d6174683a206d756c7469706c69636174696f6e206f766572666c6f77a2646970667358221220c808cac2ca1a5053afc898ec9e7fb174adfb83adda1056a65fd512f909c810a464736f6c63430007060033",
  "devdoc": {
    "details": "if ETH price is $3000, both ETH/USDC price and ETH/DAI price will be reported as 3000 * 1e18 by this oracle",
    "kind": "dev",
    "methods": {
      "getMaxPeriod(address)": {
        "params": {
          "_pool": "uniswap pool address"
        },
        "returns": {
          "_0": "max period can be used to request twap"
        }
      },
      "getTimeWeightedAverageTickSafe(address,uint32)": {
        "details": "this function will not revert",
        "params": {
          "_period": "period in second that we want to calculate average on",
          "_pool": "address of the pool"
        },
        "returns": {
          "timeWeightedAverageTick": "the time weighted average tick"
        }
      },
      "getTwap(address,address,address,uint32)": {
        "details": "if period is longer than the current timestamp - first timestamp stored in the pool, this will revert with \"OLD\"",
        "params": {
          "_base": "base currency. to get eth/usd price, eth is base token",
          "_period": "number of seconds in the past to start calculating time-weighted average",
          "_pool": "uniswap pool address",
          "_quote": "quote currency. to get eth/usd price, usd is the quote currency"
        },
        "returns": {
          "_0": "price of 1 base currency in quote currency. scaled by 1e18"
        }
      },
      "getTwapSafe(address,address,address,uint32)": {
        "params": {
          "_base": "base currency. to get eth/usd price, eth is base token",
          "_period": "number of seconds in the past to start calculating time-weighted average",
          "_pool": "uniswap pool address",
          "_quote": "quote currency. to get eth/usd price, usd is the quote currency"
        },
        "returns": {
          "_0": "price of 1 base currency in quote currency. scaled by 1e18"
        }
      }
    },
    "version": 1
  },
  "userdoc": {
    "kind": "user",
    "methods": {
      "getMaxPeriod(address)": {
        "notice": "get the max period that can be used to request twap"
      },
      "getTimeWeightedAverageTickSafe(address,uint32)": {
        "notice": "get time weighed average tick, not converted to price"
      },
      "getTwap(address,address,address,uint32)": {
        "notice": "get twap converted with base & quote token decimals"
      },
      "getTwapSafe(address,address,address,uint32)": {
        "notice": "get twap converted with base & quote token decimals, never reverts"
      }
    },
    "notice": "read UniswapV3 pool TWAP prices, and convert to human readable term with (18 decimals)",
    "version": 1
  },
  "storageLayout": {
    "storage": [],
    "types": null
  }
}