{
    "address": "0xCd658E838e52EF3B8a5AEf105C34e2C3Fdb0Bf52",
    "abi": [
        {
            "inputs": [
                {
                    "internalType": "string",
                    "name": "_name",
                    "type": "string"
                },
                {
                    "internalType": "string",
                    "name": "_symbol",
                    "type": "string"
                }
            ],
            "stateMutability": "nonpayable",
            "type": "constructor"
        },
        {
            "anonymous": false,
            "inputs": [
                {
                    "indexed": true,
                    "internalType": "address",
                    "name": "owner",
                    "type": "address"
                },
                {
                    "indexed": true,
                    "internalType": "address",
                    "name": "approved",
                    "type": "address"
                },
                {
                    "indexed": true,
                    "internalType": "uint256",
                    "name": "tokenId",
                    "type": "uint256"
                }
            ],
            "name": "Approval",
            "type": "event"
        },
        {
            "anonymous": false,
            "inputs": [
                {
                    "indexed": true,
                    "internalType": "address",
                    "name": "owner",
                    "type": "address"
                },
                {
                    "indexed": true,
                    "internalType": "address",
                    "name": "operator",
                    "type": "address"
                },
                {
                    "indexed": false,
                    "internalType": "bool",
                    "name": "approved",
                    "type": "bool"
                }
            ],
            "name": "ApprovalForAll",
            "type": "event"
        },
        {
            "anonymous": false,
            "inputs": [
                {
                    "indexed": true,
                    "internalType": "address",
                    "name": "from",
                    "type": "address"
                },
                {
                    "indexed": true,
                    "internalType": "address",
                    "name": "to",
                    "type": "address"
                },
                {
                    "indexed": true,
                    "internalType": "uint256",
                    "name": "tokenId",
                    "type": "uint256"
                }
            ],
            "name": "Transfer",
            "type": "event"
        },
        {
            "inputs": [
                {
                    "internalType": "address",
                    "name": "to",
                    "type": "address"
                },
                {
                    "internalType": "uint256",
                    "name": "tokenId",
                    "type": "uint256"
                }
            ],
            "name": "approve",
            "outputs": [],
            "stateMutability": "nonpayable",
            "type": "function"
        },
        {
            "inputs": [
                {
                    "internalType": "address",
                    "name": "owner",
                    "type": "address"
                }
            ],
            "name": "balanceOf",
            "outputs": [
                {
                    "internalType": "uint256",
                    "name": "",
                    "type": "uint256"
                }
            ],
            "stateMutability": "view",
            "type": "function"
        },
        {
            "inputs": [],
            "name": "baseURI",
            "outputs": [
                {
                    "internalType": "string",
                    "name": "",
                    "type": "string"
                }
            ],
            "stateMutability": "view",
            "type": "function"
        },
        {
            "inputs": [],
            "name": "controller",
            "outputs": [
                {
                    "internalType": "address",
                    "name": "",
                    "type": "address"
                }
            ],
            "stateMutability": "view",
            "type": "function"
        },
        {
            "inputs": [
                {
                    "internalType": "uint256",
                    "name": "tokenId",
                    "type": "uint256"
                }
            ],
            "name": "getApproved",
            "outputs": [
                {
                    "internalType": "address",
                    "name": "",
                    "type": "address"
                }
            ],
            "stateMutability": "view",
            "type": "function"
        },
        {
            "inputs": [
                {
                    "internalType": "address",
                    "name": "_controller",
                    "type": "address"
                }
            ],
            "name": "init",
            "outputs": [],
            "stateMutability": "nonpayable",
            "type": "function"
        },
        {
            "inputs": [
                {
                    "internalType": "address",
                    "name": "owner",
                    "type": "address"
                },
                {
                    "internalType": "address",
                    "name": "operator",
                    "type": "address"
                }
            ],
            "name": "isApprovedForAll",
            "outputs": [
                {
                    "internalType": "bool",
                    "name": "",
                    "type": "bool"
                }
            ],
            "stateMutability": "view",
            "type": "function"
        },
        {
            "inputs": [
                {
                    "internalType": "address",
                    "name": "_recipient",
                    "type": "address"
                }
            ],
            "name": "mintNFT",
            "outputs": [
                {
                    "internalType": "uint256",
                    "name": "tokenId",
                    "type": "uint256"
                }
            ],
            "stateMutability": "nonpayable",
            "type": "function"
        },
        {
            "inputs": [],
            "name": "name",
            "outputs": [
                {
                    "internalType": "string",
                    "name": "",
                    "type": "string"
                }
            ],
            "stateMutability": "view",
            "type": "function"
        },
        {
            "inputs": [],
            "name": "nextId",
            "outputs": [
                {
                    "internalType": "uint256",
                    "name": "",
                    "type": "uint256"
                }
            ],
            "stateMutability": "view",
            "type": "function"
        },
        {
            "inputs": [
                {
                    "internalType": "uint256",
                    "name": "tokenId",
                    "type": "uint256"
                }
            ],
            "name": "ownerOf",
            "outputs": [
                {
                    "internalType": "address",
                    "name": "",
                    "type": "address"
                }
            ],
            "stateMutability": "view",
            "type": "function"
        },
        {
            "inputs": [
                {
                    "internalType": "address",
                    "name": "from",
                    "type": "address"
                },
                {
                    "internalType": "address",
                    "name": "to",
                    "type": "address"
                },
                {
                    "internalType": "uint256",
                    "name": "tokenId",
                    "type": "uint256"
                }
            ],
            "name": "safeTransferFrom",
            "outputs": [],
            "stateMutability": "nonpayable",
            "type": "function"
        },
        {
            "inputs": [
                {
                    "internalType": "address",
                    "name": "from",
                    "type": "address"
                },
                {
                    "internalType": "address",
                    "name": "to",
                    "type": "address"
                },
                {
                    "internalType": "uint256",
                    "name": "tokenId",
                    "type": "uint256"
                },
                {
                    "internalType": "bytes",
                    "name": "_data",
                    "type": "bytes"
                }
            ],
            "name": "safeTransferFrom",
            "outputs": [],
            "stateMutability": "nonpayable",
            "type": "function"
        },
        {
            "inputs": [
                {
                    "internalType": "address",
                    "name": "operator",
                    "type": "address"
                },
                {
                    "internalType": "bool",
                    "name": "approved",
                    "type": "bool"
                }
            ],
            "name": "setApprovalForAll",
            "outputs": [],
            "stateMutability": "nonpayable",
            "type": "function"
        },
        {
            "inputs": [
                {
                    "internalType": "bytes4",
                    "name": "interfaceId",
                    "type": "bytes4"
                }
            ],
            "name": "supportsInterface",
            "outputs": [
                {
                    "internalType": "bool",
                    "name": "",
                    "type": "bool"
                }
            ],
            "stateMutability": "view",
            "type": "function"
        },
        {
            "inputs": [],
            "name": "symbol",
            "outputs": [
                {
                    "internalType": "string",
                    "name": "",
                    "type": "string"
                }
            ],
            "stateMutability": "view",
            "type": "function"
        },
        {
            "inputs": [
                {
                    "internalType": "uint256",
                    "name": "index",
                    "type": "uint256"
                }
            ],
            "name": "tokenByIndex",
            "outputs": [
                {
                    "internalType": "uint256",
                    "name": "",
                    "type": "uint256"
                }
            ],
            "stateMutability": "view",
            "type": "function"
        },
        {
            "inputs": [
                {
                    "internalType": "address",
                    "name": "owner",
                    "type": "address"
                },
                {
                    "internalType": "uint256",
                    "name": "index",
                    "type": "uint256"
                }
            ],
            "name": "tokenOfOwnerByIndex",
            "outputs": [
                {
                    "internalType": "uint256",
                    "name": "",
                    "type": "uint256"
                }
            ],
            "stateMutability": "view",
            "type": "function"
        },
        {
            "inputs": [
                {
                    "internalType": "uint256",
                    "name": "tokenId",
                    "type": "uint256"
                }
            ],
            "name": "tokenURI",
            "outputs": [
                {
                    "internalType": "string",
                    "name": "",
                    "type": "string"
                }
            ],
            "stateMutability": "view",
            "type": "function"
        },
        {
            "inputs": [],
            "name": "totalSupply",
            "outputs": [
                {
                    "internalType": "uint256",
                    "name": "",
                    "type": "uint256"
                }
            ],
            "stateMutability": "view",
            "type": "function"
        },
        {
            "inputs": [
                {
                    "internalType": "address",
                    "name": "from",
                    "type": "address"
                },
                {
                    "internalType": "address",
                    "name": "to",
                    "type": "address"
                },
                {
                    "internalType": "uint256",
                    "name": "tokenId",
                    "type": "uint256"
                }
            ],
            "name": "transferFrom",
            "outputs": [],
            "stateMutability": "nonpayable",
            "type": "function"
        }
    ],
    "transactionHash": "0xf4a8ffaf657235fe2a4d424d44a8aa52ae34b2f7b1e5d75476dee8227f25f22d",
    "args": [
        "short Squeeth",
        "sSQU"
    ],
    "solcInputHash": "38661c0131d479520e88e8a6577c6310",
    "bytecode": "0x60a06040526001600b553480156200001657600080fd5b506040516200222c3803806200222c833981810160405260408110156200003c57600080fd5b81019080805160405193929190846401000000008211156200005d57600080fd5b9083019060208201858111156200007357600080fd5b82516401000000008111828201881017156200008e57600080fd5b82525081516020918201929091019080838360005b83811015620000bd578181015183820152602001620000a3565b50505050905090810190601f168015620000eb5780820380516001836020036101000a031916815260200191505b50604052602001805160405193929190846401000000008211156200010f57600080fd5b9083019060208201858111156200012557600080fd5b82516401000000008111828201881017156200014057600080fd5b82525081516020918201929091019080838360005b838110156200016f57818101518382015260200162000155565b50505050905090810190601f1680156200019d5780820380516001836020036101000a031916815260200191505b5060405250839150829050620001ba6301ffc9a760e01b6200022d565b8151620001cf906006906020850190620002b2565b508051620001e5906007906020840190620002b2565b50620001f86380ac58cd60e01b6200022d565b6200020a635b5e139f60e01b6200022d565b6200021c63780e9d6360e01b6200022d565b5050503360601b608052506200035e565b6001600160e01b031980821614156200028d576040805162461bcd60e51b815260206004820152601c60248201527f4552433136353a20696e76616c696420696e7465726661636520696400000000604482015290519081900360640190fd5b6001600160e01b0319166000908152602081905260409020805460ff19166001179055565b828054600181600116156101000203166002900490600052602060002090601f016020900481019282620002ea576000855562000335565b82601f106200030557805160ff191683800117855562000335565b8280016001018555821562000335579182015b828111156200033557825182559160200191906001019062000318565b506200034392915062000347565b5090565b5b8082111562000343576000815560010162000348565b60805160601c611eb06200037c600039806107f75250611eb06000f3fe608060405234801561001057600080fd5b50600436106101775760003560e01c806354ba0f27116100d857806395d89b411161008c578063c87b56dd11610066578063c87b56dd14610505578063e985e9c514610522578063f77c47911461055057610177565b806395d89b4114610409578063a22cb46514610411578063b88d4fde1461043f57610177565b80636352211e116100bd5780636352211e146103be5780636c0360eb146103db57806370a08231146103e357610177565b806354ba0f271461039057806361b8ce8c146103b657610177565b806319ab453c1161012f5780632f745c59116101145780632f745c591461031157806342842e0e1461033d5780634f6ccce71461037357610177565b806319ab453c146102b557806323b872dd146102db57610177565b8063081812fc11610160578063081812fc14610234578063095ea7b31461026d57806318160ddd1461029b57610177565b806301ffc9a71461017c57806306fdde03146101b7575b600080fd5b6101a36004803603602081101561019257600080fd5b50356001600160e01b031916610558565b604080519115158252519081900360200190f35b6101bf61057b565b6040805160208082528351818301528351919283929083019185019080838360005b838110156101f95781810151838201526020016101e1565b50505050905090810190601f1680156102265780820380516001836020036101000a031916815260200191505b509250505060405180910390f35b6102516004803603602081101561024a57600080fd5b5035610611565b604080516001600160a01b039092168252519081900360200190f35b6102996004803603604081101561028357600080fd5b506001600160a01b038135169060200135610673565b005b6102a361074e565b60408051918252519081900360200190f35b610299600480360360208110156102cb57600080fd5b50356001600160a01b031661075f565b610299600480360360608110156102f157600080fd5b506001600160a01b03813581169160208101359091169060400135610902565b6102a36004803603604081101561032757600080fd5b506001600160a01b038135169060200135610959565b6102996004803603606081101561035357600080fd5b506001600160a01b03813581169160208101359091169060400135610984565b6102a36004803603602081101561038957600080fd5b503561099f565b6102a3600480360360208110156103a657600080fd5b50356001600160a01b03166109b5565b6102a3610a2d565b610251600480360360208110156103d457600080fd5b5035610a33565b6101bf610a5b565b6102a3600480360360208110156103f957600080fd5b50356001600160a01b0316610abc565b6101bf610b24565b6102996004803603604081101561042757600080fd5b506001600160a01b0381351690602001351515610b85565b6102996004803603608081101561045557600080fd5b6001600160a01b0382358116926020810135909116916040820135919081019060808101606082013564010000000081111561049057600080fd5b8201836020820111156104a257600080fd5b803590602001918460018302840111640100000000831117156104c457600080fd5b91908080601f016020809104026020016040519081016040528093929190818152602001838380828437600092019190915250929550610c8a945050505050565b6101bf6004803603602081101561051b57600080fd5b5035610ce8565b6101a36004803603604081101561053857600080fd5b506001600160a01b0381358116916020013516610f69565b610251610f97565b6001600160e01b0319811660009081526020819052604090205460ff165b919050565b60068054604080516020601f60026000196101006001881615020190951694909404938401819004810282018101909252828152606093909290918301828280156106075780601f106105dc57610100808354040283529160200191610607565b820191906000526020600020905b8154815290600101906020018083116105ea57829003601f168201915b5050505050905090565b600061061c82610fa6565b6106575760405162461bcd60e51b815260040180806020018281038252602c815260200180611da5602c913960400191505060405180910390fd5b506000908152600460205260409020546001600160a01b031690565b600061067e82610a33565b9050806001600160a01b0316836001600160a01b031614156106d15760405162461bcd60e51b8152600401808060200182810382526021815260200180611e296021913960400191505060405180910390fd5b806001600160a01b03166106e3610fb3565b6001600160a01b031614806107045750610704816106ff610fb3565b610f69565b61073f5760405162461bcd60e51b8152600401808060200182810382526038815260200180611cca6038913960400191505060405180910390fd5b6107498383610fb7565b505050565b600061075a6002611032565b905090565b600a54610100900460ff1680610778575061077861103d565b806107865750600a5460ff16155b6107c15760405162461bcd60e51b815260040180806020018281038252602e815260200180611d55602e913960400191505060405180910390fd5b600a54610100900460ff161580156107ec57600a805460ff1961ff0019909116610100171660011790555b336001600160a01b037f00000000000000000000000000000000000000000000000000000000000000001614610869576040805162461bcd60e51b815260206004820152601660248201527f496e76616c69642063616c6c6572206f6620696e697400000000000000000000604482015290519081900360640190fd5b6001600160a01b0382166108c4576040805162461bcd60e51b815260206004820152601a60248201527f496e76616c696420636f6e74726f6c6c65722061646472657373000000000000604482015290519081900360640190fd5b600c805473ffffffffffffffffffffffffffffffffffffffff19166001600160a01b03841617905580156108fe57600a805461ff00191690555b5050565b61091361090d610fb3565b8261104e565b61094e5760405162461bcd60e51b8152600401808060200182810382526031815260200180611e4a6031913960400191505060405180910390fd5b6107498383836110f2565b6001600160a01b038216600090815260016020526040812061097b908361123e565b90505b92915050565b61074983838360405180602001604052806000815250610c8a565b6000806109ad60028461124a565b509392505050565b600c546000906001600160a01b03163314610a17576040805162461bcd60e51b815260206004820152600e60248201527f4e6f7420636f6e74726f6c6c6572000000000000000000000000000000000000604482015290519081900360640190fd5b50600b8054600181019091556105768282611266565b600b5481565b600061097e82604051806060016040528060298152602001611d2c6029913960029190611280565b60098054604080516020601f60026000196101006001881615020190951694909404938401819004810282018101909252828152606093909290918301828280156106075780601f106105dc57610100808354040283529160200191610607565b60006001600160a01b038216610b035760405162461bcd60e51b815260040180806020018281038252602a815260200180611d02602a913960400191505060405180910390fd5b6001600160a01b038216600090815260016020526040902061097e90611032565b60078054604080516020601f60026000196101006001881615020190951694909404938401819004810282018101909252828152606093909290918301828280156106075780601f106105dc57610100808354040283529160200191610607565b610b8d610fb3565b6001600160a01b0316826001600160a01b03161415610bf3576040805162461bcd60e51b815260206004820152601960248201527f4552433732313a20617070726f766520746f2063616c6c657200000000000000604482015290519081900360640190fd5b8060056000610c00610fb3565b6001600160a01b03908116825260208083019390935260409182016000908120918716808252919093529120805460ff191692151592909217909155610c44610fb3565b6001600160a01b03167f17307eab39ab6107e8899845ad3d59bd9653f200f220920489ca2b5937696c318360405180821515815260200191505060405180910390a35050565b610c9b610c95610fb3565b8361104e565b610cd65760405162461bcd60e51b8152600401808060200182810382526031815260200180611e4a6031913960400191505060405180910390fd5b610ce284848484611297565b50505050565b6060610cf382610fa6565b610d2e5760405162461bcd60e51b815260040180806020018281038252602f815260200180611dfa602f913960400191505060405180910390fd5b60008281526008602090815260408083208054825160026001831615610100026000190190921691909104601f810185900485028201850190935282815292909190830182828015610dc15780601f10610d9657610100808354040283529160200191610dc1565b820191906000526020600020905b815481529060010190602001808311610da457829003601f168201915b505050505090506000610dd2610a5b565b9050805160001415610de657509050610576565b815115610ea75780826040516020018083805190602001908083835b60208310610e215780518252601f199092019160209182019101610e02565b51815160209384036101000a600019018019909216911617905285519190930192850191508083835b60208310610e695780518252601f199092019160209182019101610e4a565b6001836020036101000a0380198251168184511680821785525050505050509050019250505060405160208183030381529060405292505050610576565b80610eb1856112e9565b6040516020018083805190602001908083835b60208310610ee35780518252601f199092019160209182019101610ec4565b51815160209384036101000a600019018019909216911617905285519190930192850191508083835b60208310610f2b5780518252601f199092019160209182019101610f0c565b6001836020036101000a0380198251168184511680821785525050505050509050019250505060405160208183030381529060405292505050919050565b6001600160a01b03918216600090815260056020908152604080832093909416825291909152205460ff1690565b600c546001600160a01b031681565b600061097e6002836113dc565b3390565b6000818152600460205260409020805473ffffffffffffffffffffffffffffffffffffffff19166001600160a01b0384169081179091558190610ff982610a33565b6001600160a01b03167f8c5be1e5ebec7d5bd14f71427d1e84f3dd0314c0f7b2291e5b200ac8c7c3b92560405160405180910390a45050565b600061097e826113e8565b6000611048306113ec565b15905090565b600061105982610fa6565b6110945760405162461bcd60e51b815260040180806020018281038252602c815260200180611c9e602c913960400191505060405180910390fd5b600061109f83610a33565b9050806001600160a01b0316846001600160a01b031614806110da5750836001600160a01b03166110cf84610611565b6001600160a01b0316145b806110ea57506110ea8185610f69565b949350505050565b826001600160a01b031661110582610a33565b6001600160a01b03161461114a5760405162461bcd60e51b8152600401808060200182810382526029815260200180611dd16029913960400191505060405180910390fd5b6001600160a01b03821661118f5760405162461bcd60e51b8152600401808060200182810382526024815260200180611c7a6024913960400191505060405180910390fd5b61119a838383610749565b6111a5600082610fb7565b6001600160a01b03831660009081526001602052604090206111c790826113f2565b506001600160a01b03821660009081526001602052604090206111ea90826113fe565b506111f76002828461140a565b5080826001600160a01b0316846001600160a01b03167fddf252ad1be2c89b69c2b068fc378daa952ba7f163c4a11628f55a4df523b3ef60405160405180910390a4505050565b600061097b8383611420565b60008080806112598686611484565b9097909650945050505050565b6108fe8282604051806020016040528060008152506114ff565b600061128d848484611551565b90505b9392505050565b6112a28484846110f2565b6112ae8484848461161b565b610ce25760405162461bcd60e51b8152600401808060200182810382526032815260200180611c486032913960400191505060405180910390fd5b60608161130e57506040805180820190915260018152600360fc1b6020820152610576565b8160005b811561132657600101600a82049150611312565b60008167ffffffffffffffff8111801561133f57600080fd5b506040519080825280601f01601f19166020018201604052801561136a576020820181803683370190505b50859350905060001982015b83156113d357600a840660300160f81b8282806001900393508151811061139957fe5b60200101907effffffffffffffffffffffffffffffffffffffffffffffffffffffffffffff1916908160001a905350600a84049350611376565b50949350505050565b600061097b83836117ad565b5490565b3b151590565b600061097b83836117c5565b600061097b838361188b565b600061128d84846001600160a01b0385166118d5565b815460009082106114625760405162461bcd60e51b8152600401808060200182810382526022815260200180611c266022913960400191505060405180910390fd5b82600001828154811061147157fe5b9060005260206000200154905092915050565b8154600090819083106114c85760405162461bcd60e51b8152600401808060200182810382526022815260200180611d836022913960400191505060405180910390fd5b60008460000184815481106114d957fe5b906000526020600020906002020190508060000154816001015492509250509250929050565b611509838361196c565b611516600084848461161b565b6107495760405162461bcd60e51b8152600401808060200182810382526032815260200180611c486032913960400191505060405180910390fd5b600082815260018401602052604081205482816115ec5760405162461bcd60e51b81526004018080602001828103825283818151815260200191508051906020019080838360005b838110156115b1578181015183820152602001611599565b50505050905090810190601f1680156115de5780820380516001836020036101000a031916815260200191505b509250505060405180910390fd5b508460000160018203815481106115ff57fe5b9060005260206000209060020201600101549150509392505050565b600061162f846001600160a01b03166113ec565b61163b575060016110ea565b6000611773630a85bd0160e11b611650610fb3565b88878760405160240180856001600160a01b03168152602001846001600160a01b0316815260200183815260200180602001828103825283818151815260200191508051906020019080838360005b838110156116b757818101518382015260200161169f565b50505050905090810190601f1680156116e45780820380516001836020036101000a031916815260200191505b5095505050505050604051602081830303815290604052907bffffffffffffffffffffffffffffffffffffffffffffffffffffffff19166020820180517bffffffffffffffffffffffffffffffffffffffffffffffffffffffff8381831617835250505050604051806060016040528060328152602001611c48603291396001600160a01b0388169190611a9a565b9050600081806020019051602081101561178c57600080fd5b50516001600160e01b031916630a85bd0160e11b1492505050949350505050565b60009081526001919091016020526040902054151590565b6000818152600183016020526040812054801561188157835460001980830191908101906000908790839081106117f857fe5b906000526020600020015490508087600001848154811061181557fe5b60009182526020808320909101929092558281526001898101909252604090209084019055865487908061184557fe5b6001900381819060005260206000200160009055905586600101600087815260200190815260200160002060009055600194505050505061097e565b600091505061097e565b600061189783836117ad565b6118cd5750815460018181018455600084815260208082209093018490558454848252828601909352604090209190915561097e565b50600061097e565b60008281526001840160205260408120548061193a575050604080518082018252838152602080820184815286546001818101895560008981528481209551600290930290950191825591519082015586548684528188019092529290912055611290565b8285600001600183038154811061194d57fe5b9060005260206000209060020201600101819055506000915050611290565b6001600160a01b0382166119c7576040805162461bcd60e51b815260206004820181905260248201527f4552433732313a206d696e7420746f20746865207a65726f2061646472657373604482015290519081900360640190fd5b6119d081610fa6565b15611a22576040805162461bcd60e51b815260206004820152601c60248201527f4552433732313a20746f6b656e20616c7265616479206d696e74656400000000604482015290519081900360640190fd5b611a2e60008383610749565b6001600160a01b0382166000908152600160205260409020611a5090826113fe565b50611a5d6002828461140a565b5060405181906001600160a01b038416906000907fddf252ad1be2c89b69c2b068fc378daa952ba7f163c4a11628f55a4df523b3ef908290a45050565b606061128d848460008585611aae856113ec565b611aff576040805162461bcd60e51b815260206004820152601d60248201527f416464726573733a2063616c6c20746f206e6f6e2d636f6e7472616374000000604482015290519081900360640190fd5b600080866001600160a01b031685876040518082805190602001908083835b60208310611b3d5780518252601f199092019160209182019101611b1e565b6001836020036101000a03801982511681845116808217855250505050505090500191505060006040518083038185875af1925050503d8060008114611b9f576040519150601f19603f3d011682016040523d82523d6000602084013e611ba4565b606091505b5091509150611bb4828286611bbf565b979650505050505050565b60608315611bce575081611290565b825115611bde5782518084602001fd5b60405162461bcd60e51b81526020600482018181528451602484015284518593919283926044019190850190808383600083156115b157818101518382015260200161159956fe456e756d657261626c655365743a20696e646578206f7574206f6620626f756e64734552433732313a207472616e7366657220746f206e6f6e20455243373231526563656976657220696d706c656d656e7465724552433732313a207472616e7366657220746f20746865207a65726f20616464726573734552433732313a206f70657261746f7220717565727920666f72206e6f6e6578697374656e7420746f6b656e4552433732313a20617070726f76652063616c6c6572206973206e6f74206f776e6572206e6f7220617070726f76656420666f7220616c6c4552433732313a2062616c616e636520717565727920666f7220746865207a65726f20616464726573734552433732313a206f776e657220717565727920666f72206e6f6e6578697374656e7420746f6b656e496e697469616c697a61626c653a20636f6e747261637420697320616c726561647920696e697469616c697a6564456e756d657261626c654d61703a20696e646578206f7574206f6620626f756e64734552433732313a20617070726f76656420717565727920666f72206e6f6e6578697374656e7420746f6b656e4552433732313a207472616e73666572206f6620746f6b656e2074686174206973206e6f74206f776e4552433732314d657461646174613a2055524920717565727920666f72206e6f6e6578697374656e7420746f6b656e4552433732313a20617070726f76616c20746f2063757272656e74206f776e65724552433732313a207472616e736665722063616c6c6572206973206e6f74206f776e6572206e6f7220617070726f766564a2646970667358221220fe04d141bb6550e65576d0fda3cf31b2319da7354545d74e29ea10984368d2d264736f6c63430007060033",
    "devdoc": {
        "kind": "dev",
        "methods": {
            "approve(address,uint256)": {
                "details": "See {IERC721-approve}."
            },
            "balanceOf(address)": {
                "details": "See {IERC721-balanceOf}."
            },
            "baseURI()": {
                "details": "Returns the base URI set via {_setBaseURI}. This will be automatically added as a prefix in {tokenURI} to each token's URI, or to the token ID if no specific URI is set for that token ID."
            },
            "constructor": {
                "params": {
                    "_name": "token name for ERC721",
                    "_symbol": "token symbol for ERC721"
                }
            },
            "getApproved(uint256)": {
                "details": "See {IERC721-getApproved}."
            },
            "init(address)": {
                "params": {
                    "_controller": "controller address"
                }
            },
            "isApprovedForAll(address,address)": {
                "details": "See {IERC721-isApprovedForAll}."
            },
            "mintNFT(address)": {
                "details": "autoincrement tokenId starts at 1",
                "params": {
                    "_recipient": "recipient address for NFT"
                }
            },
            "name()": {
                "details": "See {IERC721Metadata-name}."
            },
            "ownerOf(uint256)": {
                "details": "See {IERC721-ownerOf}."
            },
            "safeTransferFrom(address,address,uint256)": {
                "details": "See {IERC721-safeTransferFrom}."
            },
            "safeTransferFrom(address,address,uint256,bytes)": {
                "details": "See {IERC721-safeTransferFrom}."
            },
            "setApprovalForAll(address,bool)": {
                "details": "See {IERC721-setApprovalForAll}."
            },
            "supportsInterface(bytes4)": {
                "details": "See {IERC165-supportsInterface}. Time complexity O(1), guaranteed to always use less than 30 000 gas."
            },
            "symbol()": {
                "details": "See {IERC721Metadata-symbol}."
            },
            "tokenByIndex(uint256)": {
                "details": "See {IERC721Enumerable-tokenByIndex}."
            },
            "tokenOfOwnerByIndex(address,uint256)": {
                "details": "See {IERC721Enumerable-tokenOfOwnerByIndex}."
            },
            "tokenURI(uint256)": {
                "details": "See {IERC721Metadata-tokenURI}."
            },
            "totalSupply()": {
                "details": "See {IERC721Enumerable-totalSupply}."
            },
            "transferFrom(address,address,uint256)": {
                "details": "See {IERC721-transferFrom}."
            }
        },
        "stateVariables": {
            "nextId": {
                "details": "tokenId for the next vault opened"
            }
        },
        "version": 1
    },
    "userdoc": {
        "kind": "user",
        "methods": {
            "constructor": {
                "notice": "short power perpetual constructor"
            },
            "init(address)": {
                "notice": "initialize short contract"
            },
            "mintNFT(address)": {
                "notice": "mint new NFT"
            }
        },
        "notice": "ERC721 NFT representing ownership of a vault (short position)",
        "version": 1
    },
    "storageLayout": {
        "storage": [
            {
                "astId": 123,
                "contract": "contracts/core/ShortPowerPerp.sol:ShortPowerPerp",
                "label": "_supportedInterfaces",
                "offset": 0,
                "slot": "0",
                "type": "t_mapping(t_bytes4,t_bool)"
            },
            {
                "astId": 1226,
                "contract": "contracts/core/ShortPowerPerp.sol:ShortPowerPerp",
                "label": "_holderTokens",
                "offset": 0,
                "slot": "1",
                "type": "t_mapping(t_address,t_struct(UintSet)3592_storage)"
            },
            {
                "astId": 1228,
                "contract": "contracts/core/ShortPowerPerp.sol:ShortPowerPerp",
                "label": "_tokenOwners",
                "offset": 0,
                "slot": "2",
                "type": "t_struct(UintToAddressMap)2969_storage"
            },
            {
                "astId": 1232,
                "contract": "contracts/core/ShortPowerPerp.sol:ShortPowerPerp",
                "label": "_tokenApprovals",
                "offset": 0,
                "slot": "4",
                "type": "t_mapping(t_uint256,t_address)"
            },
            {
                "astId": 1238,
                "contract": "contracts/core/ShortPowerPerp.sol:ShortPowerPerp",
                "label": "_operatorApprovals",
                "offset": 0,
                "slot": "5",
                "type": "t_mapping(t_address,t_mapping(t_address,t_bool))"
            },
            {
                "astId": 1240,
                "contract": "contracts/core/ShortPowerPerp.sol:ShortPowerPerp",
                "label": "_name",
                "offset": 0,
                "slot": "6",
                "type": "t_string_storage"
            },
            {
                "astId": 1242,
                "contract": "contracts/core/ShortPowerPerp.sol:ShortPowerPerp",
                "label": "_symbol",
                "offset": 0,
                "slot": "7",
                "type": "t_string_storage"
            },
            {
                "astId": 1246,
                "contract": "contracts/core/ShortPowerPerp.sol:ShortPowerPerp",
                "label": "_tokenURIs",
                "offset": 0,
                "slot": "8",
                "type": "t_mapping(t_uint256,t_string_storage)"
            },
            {
                "astId": 1248,
                "contract": "contracts/core/ShortPowerPerp.sol:ShortPowerPerp",
                "label": "_baseURI",
                "offset": 0,
                "slot": "9",
                "type": "t_string_storage"
            },
            {
                "astId": 540,
                "contract": "contracts/core/ShortPowerPerp.sol:ShortPowerPerp",
                "label": "_initialized",
                "offset": 0,
                "slot": "10",
                "type": "t_bool"
            },
            {
                "astId": 543,
                "contract": "contracts/core/ShortPowerPerp.sol:ShortPowerPerp",
                "label": "_initializing",
                "offset": 1,
                "slot": "10",
                "type": "t_bool"
            },
            {
                "astId": 10954,
                "contract": "contracts/core/ShortPowerPerp.sol:ShortPowerPerp",
                "label": "nextId",
                "offset": 0,
                "slot": "11",
                "type": "t_uint256"
            },
            {
                "astId": 10956,
                "contract": "contracts/core/ShortPowerPerp.sol:ShortPowerPerp",
                "label": "controller",
                "offset": 0,
                "slot": "12",
                "type": "t_address"
            }
        ],
        "types": {
            "t_address": {
                "encoding": "inplace",
                "label": "address",
                "numberOfBytes": "20"
            },
            "t_array(t_bytes32)dyn_storage": {
                "base": "t_bytes32",
                "encoding": "dynamic_array",
                "label": "bytes32[]",
                "numberOfBytes": "32"
            },
            "t_array(t_struct(MapEntry)2643_storage)dyn_storage": {
                "base": "t_struct(MapEntry)2643_storage",
                "encoding": "dynamic_array",
                "label": "struct EnumerableMap.MapEntry[]",
                "numberOfBytes": "32"
            },
            "t_bool": {
                "encoding": "inplace",
                "label": "bool",
                "numberOfBytes": "1"
            },
            "t_bytes32": {
                "encoding": "inplace",
                "label": "bytes32",
                "numberOfBytes": "32"
            },
            "t_bytes4": {
                "encoding": "inplace",
                "label": "bytes4",
                "numberOfBytes": "4"
            },
            "t_mapping(t_address,t_bool)": {
                "encoding": "mapping",
                "key": "t_address",
                "label": "mapping(address => bool)",
                "numberOfBytes": "32",
                "value": "t_bool"
            },
            "t_mapping(t_address,t_mapping(t_address,t_bool))": {
                "encoding": "mapping",
                "key": "t_address",
                "label": "mapping(address => mapping(address => bool))",
                "numberOfBytes": "32",
                "value": "t_mapping(t_address,t_bool)"
            },
            "t_mapping(t_address,t_struct(UintSet)3592_storage)": {
                "encoding": "mapping",
                "key": "t_address",
                "label": "mapping(address => struct EnumerableSet.UintSet)",
                "numberOfBytes": "32",
                "value": "t_struct(UintSet)3592_storage"
            },
            "t_mapping(t_bytes32,t_uint256)": {
                "encoding": "mapping",
                "key": "t_bytes32",
                "label": "mapping(bytes32 => uint256)",
                "numberOfBytes": "32",
                "value": "t_uint256"
            },
            "t_mapping(t_bytes4,t_bool)": {
                "encoding": "mapping",
                "key": "t_bytes4",
                "label": "mapping(bytes4 => bool)",
                "numberOfBytes": "32",
                "value": "t_bool"
            },
            "t_mapping(t_uint256,t_address)": {
                "encoding": "mapping",
                "key": "t_uint256",
                "label": "mapping(uint256 => address)",
                "numberOfBytes": "32",
                "value": "t_address"
            },
            "t_mapping(t_uint256,t_string_storage)": {
                "encoding": "mapping",
                "key": "t_uint256",
                "label": "mapping(uint256 => string)",
                "numberOfBytes": "32",
                "value": "t_string_storage"
            },
            "t_string_storage": {
                "encoding": "bytes",
                "label": "string",
                "numberOfBytes": "32"
            },
            "t_struct(Map)2651_storage": {
                "encoding": "inplace",
                "label": "struct EnumerableMap.Map",
                "members": [
                    {
                        "astId": 2646,
                        "contract": "contracts/core/ShortPowerPerp.sol:ShortPowerPerp",
                        "label": "_entries",
                        "offset": 0,
                        "slot": "0",
                        "type": "t_array(t_struct(MapEntry)2643_storage)dyn_storage"
                    },
                    {
                        "astId": 2650,
                        "contract": "contracts/core/ShortPowerPerp.sol:ShortPowerPerp",
                        "label": "_indexes",
                        "offset": 0,
                        "slot": "1",
                        "type": "t_mapping(t_bytes32,t_uint256)"
                    }
                ],
                "numberOfBytes": "64"
            },
            "t_struct(MapEntry)2643_storage": {
                "encoding": "inplace",
                "label": "struct EnumerableMap.MapEntry",
                "members": [
                    {
                        "astId": 2640,
                        "contract": "contracts/core/ShortPowerPerp.sol:ShortPowerPerp",
                        "label": "_key",
                        "offset": 0,
                        "slot": "0",
                        "type": "t_bytes32"
                    },
                    {
                        "astId": 2642,
                        "contract": "contracts/core/ShortPowerPerp.sol:ShortPowerPerp",
                        "label": "_value",
                        "offset": 0,
                        "slot": "1",
                        "type": "t_bytes32"
                    }
                ],
                "numberOfBytes": "64"
            },
            "t_struct(Set)3206_storage": {
                "encoding": "inplace",
                "label": "struct EnumerableSet.Set",
                "members": [
                    {
                        "astId": 3201,
                        "contract": "contracts/core/ShortPowerPerp.sol:ShortPowerPerp",
                        "label": "_values",
                        "offset": 0,
                        "slot": "0",
                        "type": "t_array(t_bytes32)dyn_storage"
                    },
                    {
                        "astId": 3205,
                        "contract": "contracts/core/ShortPowerPerp.sol:ShortPowerPerp",
                        "label": "_indexes",
                        "offset": 0,
                        "slot": "1",
                        "type": "t_mapping(t_bytes32,t_uint256)"
                    }
                ],
                "numberOfBytes": "64"
            },
            "t_struct(UintSet)3592_storage": {
                "encoding": "inplace",
                "label": "struct EnumerableSet.UintSet",
                "members": [
                    {
                        "astId": 3591,
                        "contract": "contracts/core/ShortPowerPerp.sol:ShortPowerPerp",
                        "label": "_inner",
                        "offset": 0,
                        "slot": "0",
                        "type": "t_struct(Set)3206_storage"
                    }
                ],
                "numberOfBytes": "64"
            },
            "t_struct(UintToAddressMap)2969_storage": {
                "encoding": "inplace",
                "label": "struct EnumerableMap.UintToAddressMap",
                "members": [
                    {
                        "astId": 2968,
                        "contract": "contracts/core/ShortPowerPerp.sol:ShortPowerPerp",
                        "label": "_inner",
                        "offset": 0,
                        "slot": "0",
                        "type": "t_struct(Map)2651_storage"
                    }
                ],
                "numberOfBytes": "64"
            },
            "t_uint256": {
                "encoding": "inplace",
                "label": "uint256",
                "numberOfBytes": "32"
            }
        }
    }
}