{
    "address": "0xe5F4Ae5f9549466Bd54fcc9d5f5Ac1FCfA10562a",
    "abi": [
        {
            "inputs": [
                {
                    "internalType": "address",
                    "name": "_controllerAddr",
                    "type": "address"
                },
                {
                    "internalType": "address",
                    "name": "_swapRouter",
                    "type": "address"
                },
                {
                    "internalType": "address",
                    "name": "_wethAddr",
                    "type": "address"
                }
            ],
            "stateMutability": "nonpayable",
            "type": "constructor"
        },
        {
            "inputs": [
                {
                    "internalType": "uint256",
                    "name": "_vaultId",
                    "type": "uint256"
                },
                {
                    "internalType": "uint256",
                    "name": "_burnSqueethAmount",
                    "type": "uint256"
                },
                {
                    "internalType": "uint128",
                    "name": "_withdrawAmount",
                    "type": "uint128"
                },
                {
                    "components": [
                        {
                            "internalType": "address",
                            "name": "tokenIn",
                            "type": "address"
                        },
                        {
                            "internalType": "address",
                            "name": "tokenOut",
                            "type": "address"
                        },
                        {
                            "internalType": "uint24",
                            "name": "fee",
                            "type": "uint24"
                        },
                        {
                            "internalType": "address",
                            "name": "recipient",
                            "type": "address"
                        },
                        {
                            "internalType": "uint256",
                            "name": "deadline",
                            "type": "uint256"
                        },
                        {
                            "internalType": "uint256",
                            "name": "amountOut",
                            "type": "uint256"
                        },
                        {
                            "internalType": "uint256",
                            "name": "amountInMaximum",
                            "type": "uint256"
                        },
                        {
                            "internalType": "uint160",
                            "name": "sqrtPriceLimitX96",
                            "type": "uint160"
                        }
                    ],
                    "internalType": "struct ISwapRouter.ExactOutputSingleParams",
                    "name": "_exactOutputParams",
                    "type": "tuple"
                }
            ],
            "name": "closeShort",
            "outputs": [],
            "stateMutability": "payable",
            "type": "function"
        },
        {
            "inputs": [],
            "name": "controller",
            "outputs": [
                {
                    "internalType": "contract IController",
                    "name": "",
                    "type": "address"
                }
            ],
            "stateMutability": "view",
            "type": "function"
        },
        {
            "inputs": [
                {
                    "internalType": "uint256",
                    "name": "_vaultId",
                    "type": "uint256"
                },
                {
                    "internalType": "uint128",
                    "name": "_shortSqueethAmount",
                    "type": "uint128"
                },
                {
                    "components": [
                        {
                            "internalType": "address",
                            "name": "tokenIn",
                            "type": "address"
                        },
                        {
                            "internalType": "address",
                            "name": "tokenOut",
                            "type": "address"
                        },
                        {
                            "internalType": "uint24",
                            "name": "fee",
                            "type": "uint24"
                        },
                        {
                            "internalType": "address",
                            "name": "recipient",
                            "type": "address"
                        },
                        {
                            "internalType": "uint256",
                            "name": "deadline",
                            "type": "uint256"
                        },
                        {
                            "internalType": "uint256",
                            "name": "amountIn",
                            "type": "uint256"
                        },
                        {
                            "internalType": "uint256",
                            "name": "amountOutMinimum",
                            "type": "uint256"
                        },
                        {
                            "internalType": "uint160",
                            "name": "sqrtPriceLimitX96",
                            "type": "uint160"
                        }
                    ],
                    "internalType": "struct ISwapRouter.ExactInputSingleParams",
                    "name": "_exactInputParams",
                    "type": "tuple"
                }
            ],
            "name": "openShort",
            "outputs": [],
            "stateMutability": "payable",
            "type": "function"
        },
        {
            "inputs": [],
            "name": "router",
            "outputs": [
                {
                    "internalType": "contract ISwapRouter",
                    "name": "",
                    "type": "address"
                }
            ],
            "stateMutability": "view",
            "type": "function"
        },
        {
            "inputs": [],
            "name": "squeeth",
            "outputs": [
                {
                    "internalType": "contract IWSqueeth",
                    "name": "",
                    "type": "address"
                }
            ],
            "stateMutability": "view",
            "type": "function"
        },
        {
            "inputs": [],
            "name": "vaultNFT",
            "outputs": [
                {
                    "internalType": "contract IVaultManagerNFT",
                    "name": "",
                    "type": "address"
                }
            ],
            "stateMutability": "view",
            "type": "function"
        },
        {
            "inputs": [],
            "name": "weth",
            "outputs": [
                {
                    "internalType": "contract IWETH9",
                    "name": "",
                    "type": "address"
                }
            ],
            "stateMutability": "view",
            "type": "function"
        },
        {
            "stateMutability": "payable",
            "type": "receive"
        }
    ],
    "transactionHash": "0x0a4ea3ddf6cd376ae29247dfc90cc9eb768ad7633ea233a7da3120d7f197133d",
    "args": [
        "0xD4ede688a1bfD5d3EF97ce12ECB490E0fbc263B9",
        "0xFc7525D5dc7F3D5CC8Ba8F2AD6a01C0A287A71fD",
        "0xc778417e063141139fce010982780140aa0cd5ab"
    ],
    "solcInputHash": "81fdad72c90f9f5a7dcc3003939ad17b",
    "bytecode": "0x6101206040523480156200001257600080fd5b5060405162000fab38038062000fab8339810160408190526200003591620002cd565b6000839050826001600160a01b031660a0816001600160a01b031660601b815250506000816001600160a01b031663d199cb026040518163ffffffff1660e01b815260040160206040518083038186803b1580156200009357600080fd5b505afa158015620000a8573d6000803e3d6000fd5b505050506040513d601f19601f82011682018060405250810190620000ce9190620002a9565b60405163095ea7b360e01b81526001600160a01b0386811660048301526000196024830152919250849183169063095ea7b390604401602060405180830381600087803b1580156200011f57600080fd5b505af115801562000134573d6000803e3d6000fd5b505050506040513d601f19601f820116820180604052508101906200015a919062000316565b5060405163095ea7b360e01b81526001600160a01b038681166004830152600019602483015282169063095ea7b390604401602060405180830381600087803b158015620001a757600080fd5b505af1158015620001bc573d6000803e3d6000fd5b505050506040513d601f19601f82011682018060405250810190620001e2919062000316565b50826001600160a01b03166384dea1a16040518163ffffffff1660e01b815260040160206040518083038186803b1580156200021d57600080fd5b505afa15801562000232573d6000803e3d6000fd5b505050506040513d601f19601f82011682018060405250810190620002589190620002a9565b6001600160601b0319606091821b81166101005291811b821660e05292831b8116608052911b1660c0525062000338915050565b80516001600160a01b0381168114620002a457600080fd5b919050565b600060208284031215620002bb578081fd5b620002c6826200028c565b9392505050565b600080600060608486031215620002e2578182fd5b620002ed846200028c565b9250620002fd602085016200028c565b91506200030d604085016200028c565b90509250925092565b60006020828403121562000328578081fd5b81518015158114620002c6578182fd5b60805160601c60a05160601c60c05160601c60e05160601c6101005160601c610bd4620003d76000396000818161019201526107a3015260008181608401528181610142015281816102780152818161045b0152818161068601526106f2015260006101ec0152600081816102540152818161031b01526105ce01526000818160b601528181610220015281816103f5015261054a0152610bd46000f3fe6080604052600436106100745760003560e01c8063c54095d61161004e578063c54095d6146101c7578063d199cb02146101da578063f77c47911461020e578063f887ea401461024257600080fd5b80633fc8cef31461013057806384dea1a114610180578063918e1cda146101b457600080fd5b3661012b57336001600160a01b037f00000000000000000000000000000000000000000000000000000000000000001614806100d85750336001600160a01b037f000000000000000000000000000000000000000000000000000000000000000016145b6101295760405162461bcd60e51b815260206004820152601160248201527f63616e277420726563656976652065746800000000000000000000000000000060448201526064015b60405180910390fd5b005b600080fd5b34801561013c57600080fd5b506101647f000000000000000000000000000000000000000000000000000000000000000081565b6040516001600160a01b03909116815260200160405180910390f35b34801561018c57600080fd5b506101647f000000000000000000000000000000000000000000000000000000000000000081565b6101296101c2366004610aa7565b610276565b6101296101d5366004610a6a565b6104f8565b3480156101e657600080fd5b506101647f000000000000000000000000000000000000000000000000000000000000000081565b34801561021a57600080fd5b506101647f000000000000000000000000000000000000000000000000000000000000000081565b34801561024e57600080fd5b506101647f000000000000000000000000000000000000000000000000000000000000000081565b7f00000000000000000000000000000000000000000000000000000000000000006001600160a01b031663d0e30db0346040518263ffffffff1660e01b81526004016000604051808303818588803b1580156102d157600080fd5b505af11580156102e5573d6000803e3d6000fd5b50506040517fdb3e2198000000000000000000000000000000000000000000000000000000008152600093506001600160a01b037f000000000000000000000000000000000000000000000000000000000000000016925063db3e21989150610352908590600401610aee565b602060405180830381600087803b15801561036c57600080fd5b505af1158015610380573d6000803e3d6000fd5b505050506040513d601f19601f820116820180604052508101906103a49190610a52565b6040517f05a1002800000000000000000000000000000000000000000000000000000000815260048101879052602481018690526fffffffffffffffffffffffffffffffff851660448201529091507f00000000000000000000000000000000000000000000000000000000000000006001600160a01b0316906305a1002890606401600060405180830381600087803b15801561044157600080fd5b505af1158015610455573d6000803e3d6000fd5b505050507f00000000000000000000000000000000000000000000000000000000000000006001600160a01b0316632e1a7d4d82346104949190610b62565b6040518263ffffffff1660e01b81526004016104b291815260200190565b600060405180830381600087803b1580156104cc57600080fd5b505af11580156104e0573d6000803e3d6000fd5b506104f1925033915047905061080e565b5050505050565b6040517f673cd401000000000000000000000000000000000000000000000000000000008152600481018490526fffffffffffffffffffffffffffffffff831660248201526000906001600160a01b037f0000000000000000000000000000000000000000000000000000000000000000169063673cd4019034906044016020604051808303818588803b15801561058f57600080fd5b505af11580156105a3573d6000803e3d6000fd5b50505050506040513d601f19601f820116820180604052508101906105c89190610a52565b905060007f00000000000000000000000000000000000000000000000000000000000000006001600160a01b031663414bf389846040518263ffffffff1660e01b81526004016106189190610aee565b602060405180830381600087803b15801561063257600080fd5b505af1158015610646573d6000803e3d6000fd5b505050506040513d601f19601f8201168201806040525081019061066a9190610a52565b60608401519091506001600160a01b0316301480156106be57507f00000000000000000000000000000000000000000000000000000000000000006001600160a01b031683602001516001600160a01b0316145b15610763576040517f2e1a7d4d000000000000000000000000000000000000000000000000000000008152600481018290527f00000000000000000000000000000000000000000000000000000000000000006001600160a01b031690632e1a7d4d90602401600060405180830381600087803b15801561073e57600080fd5b505af1158015610752573d6000803e3d6000fd5b50610763925033915083905061080e565b846104f1576040517f23b872dd000000000000000000000000000000000000000000000000000000008152306004820152336024820152604481018390527f00000000000000000000000000000000000000000000000000000000000000006001600160a01b0316906323b872dd90606401600060405180830381600087803b1580156107ef57600080fd5b505af1158015610803573d6000803e3d6000fd5b505050505050505050565b8047101561085e5760405162461bcd60e51b815260206004820152601d60248201527f416464726573733a20696e73756666696369656e742062616c616e63650000006044820152606401610120565b6000826001600160a01b03168260405160006040518083038185875af1925050503d80600081146108ab576040519150601f19603f3d011682016040523d82523d6000602084013e6108b0565b606091505b50509050806109275760405162461bcd60e51b815260206004820152603a60248201527f416464726573733a20756e61626c6520746f2073656e642076616c75652c207260448201527f6563697069656e74206d617920686176652072657665727465640000000000006064820152608401610120565b505050565b80356001600160a01b038116811461094357600080fd5b919050565b600061010080838503121561095b578182fd5b6040519081019067ffffffffffffffff821181831017156109a3577f4e487b710000000000000000000000000000000000000000000000000000000083526041600452602483fd5b816040528092506109b38461092c565b81526109c16020850161092c565b60208201526109d260408501610a3f565b60408201526109e36060850161092c565b60608201526080840135608082015260a084013560a082015260c084013560c0820152610a1260e0850161092c565b60e0820152505092915050565b80356fffffffffffffffffffffffffffffffff8116811461094357600080fd5b803562ffffff8116811461094357600080fd5b600060208284031215610a63578081fd5b5051919050565b60008060006101408486031215610a7f578182fd5b83359250610a8f60208501610a1f565b9150610a9e8560408601610948565b90509250925092565b6000806000806101608587031215610abd578081fd5b8435935060208501359250610ad460408601610a1f565b9150610ae38660608701610948565b905092959194509250565b6101008101610b5c82846001600160a01b0380825116835280602083015116602084015262ffffff60408301511660408401528060608301511660608401526080820151608084015260a082015160a084015260c082015160c08401528060e08301511660e0840152505050565b92915050565b600082821015610b99577f4e487b710000000000000000000000000000000000000000000000000000000081526011600452602481fd5b50039056fea2646970667358221220f4783e2736a46911d5f688d0c95c296552d06665509aa9dd4ad508ca9baee27964736f6c63430008040033",
    "devdoc": {
        "kind": "dev",
        "methods": {},
        "version": 1
    },
    "userdoc": {
        "kind": "user",
        "methods": {
            "closeShort(uint256,uint256,uint128,(address,address,uint24,address,uint256,uint256,uint256,uint160))": {
                "notice": "buy back some squeeth and close the position."
            },
            "openShort(uint256,uint128,(address,address,uint24,address,uint256,uint256,uint256,uint160))": {
                "notice": "mint squeeth, trade with uniswap and send back premium in eth."
            }
        },
        "version": 1
    },
    "storageLayout": {
        "storage": [],
        "types": null
    }
}