{
    "address": "0x9Ad3b5B9A4e0D95b764256B2E9fB59cce4a73919",
    "abi": [
        {
            "anonymous": false,
            "inputs": [
                {
                    "indexed": true,
                    "internalType": "address",
                    "name": "owner",
                    "type": "address"
                },
                {
                    "indexed": true,
                    "internalType": "address",
                    "name": "approved",
                    "type": "address"
                },
                {
                    "indexed": true,
                    "internalType": "uint256",
                    "name": "tokenId",
                    "type": "uint256"
                }
            ],
            "name": "Approval",
            "type": "event"
        },
        {
            "anonymous": false,
            "inputs": [
                {
                    "indexed": true,
                    "internalType": "address",
                    "name": "owner",
                    "type": "address"
                },
                {
                    "indexed": true,
                    "internalType": "address",
                    "name": "operator",
                    "type": "address"
                },
                {
                    "indexed": false,
                    "internalType": "bool",
                    "name": "approved",
                    "type": "bool"
                }
            ],
            "name": "ApprovalForAll",
            "type": "event"
        },
        {
            "anonymous": false,
            "inputs": [
                {
                    "indexed": true,
                    "internalType": "address",
                    "name": "from",
                    "type": "address"
                },
                {
                    "indexed": true,
                    "internalType": "address",
                    "name": "to",
                    "type": "address"
                },
                {
                    "indexed": true,
                    "internalType": "uint256",
                    "name": "tokenId",
                    "type": "uint256"
                }
            ],
            "name": "Transfer",
            "type": "event"
        },
        {
            "inputs": [
                {
                    "internalType": "address",
                    "name": "to",
                    "type": "address"
                },
                {
                    "internalType": "uint256",
                    "name": "tokenId",
                    "type": "uint256"
                }
            ],
            "name": "approve",
            "outputs": [],
            "stateMutability": "nonpayable",
            "type": "function"
        },
        {
            "inputs": [
                {
                    "internalType": "address",
                    "name": "owner",
                    "type": "address"
                }
            ],
            "name": "balanceOf",
            "outputs": [
                {
                    "internalType": "uint256",
                    "name": "",
                    "type": "uint256"
                }
            ],
            "stateMutability": "view",
            "type": "function"
        },
        {
            "inputs": [],
            "name": "controller",
            "outputs": [
                {
                    "internalType": "address",
                    "name": "",
                    "type": "address"
                }
            ],
            "stateMutability": "view",
            "type": "function"
        },
        {
            "inputs": [
                {
                    "internalType": "uint256",
                    "name": "tokenId",
                    "type": "uint256"
                }
            ],
            "name": "getApproved",
            "outputs": [
                {
                    "internalType": "address",
                    "name": "",
                    "type": "address"
                }
            ],
            "stateMutability": "view",
            "type": "function"
        },
        {
            "inputs": [
                {
                    "internalType": "address",
                    "name": "_controller",
                    "type": "address"
                }
            ],
            "name": "init",
            "outputs": [],
            "stateMutability": "nonpayable",
            "type": "function"
        },
        {
            "inputs": [
                {
                    "internalType": "address",
                    "name": "owner",
                    "type": "address"
                },
                {
                    "internalType": "address",
                    "name": "operator",
                    "type": "address"
                }
            ],
            "name": "isApprovedForAll",
            "outputs": [
                {
                    "internalType": "bool",
                    "name": "",
                    "type": "bool"
                }
            ],
            "stateMutability": "view",
            "type": "function"
        },
        {
            "inputs": [
                {
                    "internalType": "address",
                    "name": "_recipient",
                    "type": "address"
                }
            ],
            "name": "mintNFT",
            "outputs": [
                {
                    "internalType": "uint256",
                    "name": "tokenId",
                    "type": "uint256"
                }
            ],
            "stateMutability": "nonpayable",
            "type": "function"
        },
        {
            "inputs": [],
            "name": "name",
            "outputs": [
                {
                    "internalType": "string",
                    "name": "",
                    "type": "string"
                }
            ],
            "stateMutability": "view",
            "type": "function"
        },
        {
            "inputs": [],
            "name": "nextId",
            "outputs": [
                {
                    "internalType": "uint256",
                    "name": "",
                    "type": "uint256"
                }
            ],
            "stateMutability": "view",
            "type": "function"
        },
        {
            "inputs": [
                {
                    "internalType": "uint256",
                    "name": "tokenId",
                    "type": "uint256"
                }
            ],
            "name": "ownerOf",
            "outputs": [
                {
                    "internalType": "address",
                    "name": "",
                    "type": "address"
                }
            ],
            "stateMutability": "view",
            "type": "function"
        },
        {
            "inputs": [
                {
                    "internalType": "address",
                    "name": "from",
                    "type": "address"
                },
                {
                    "internalType": "address",
                    "name": "to",
                    "type": "address"
                },
                {
                    "internalType": "uint256",
                    "name": "tokenId",
                    "type": "uint256"
                }
            ],
            "name": "safeTransferFrom",
            "outputs": [],
            "stateMutability": "nonpayable",
            "type": "function"
        },
        {
            "inputs": [
                {
                    "internalType": "address",
                    "name": "from",
                    "type": "address"
                },
                {
                    "internalType": "address",
                    "name": "to",
                    "type": "address"
                },
                {
                    "internalType": "uint256",
                    "name": "tokenId",
                    "type": "uint256"
                },
                {
                    "internalType": "bytes",
                    "name": "_data",
                    "type": "bytes"
                }
            ],
            "name": "safeTransferFrom",
            "outputs": [],
            "stateMutability": "nonpayable",
            "type": "function"
        },
        {
            "inputs": [
                {
                    "internalType": "address",
                    "name": "operator",
                    "type": "address"
                },
                {
                    "internalType": "bool",
                    "name": "approved",
                    "type": "bool"
                }
            ],
            "name": "setApprovalForAll",
            "outputs": [],
            "stateMutability": "nonpayable",
            "type": "function"
        },
        {
            "inputs": [
                {
                    "internalType": "bytes4",
                    "name": "interfaceId",
                    "type": "bytes4"
                }
            ],
            "name": "supportsInterface",
            "outputs": [
                {
                    "internalType": "bool",
                    "name": "",
                    "type": "bool"
                }
            ],
            "stateMutability": "view",
            "type": "function"
        },
        {
            "inputs": [],
            "name": "symbol",
            "outputs": [
                {
                    "internalType": "string",
                    "name": "",
                    "type": "string"
                }
            ],
            "stateMutability": "view",
            "type": "function"
        },
        {
            "inputs": [
                {
                    "internalType": "uint256",
                    "name": "tokenId",
                    "type": "uint256"
                }
            ],
            "name": "tokenURI",
            "outputs": [
                {
                    "internalType": "string",
                    "name": "",
                    "type": "string"
                }
            ],
            "stateMutability": "view",
            "type": "function"
        },
        {
            "inputs": [
                {
                    "internalType": "address",
                    "name": "from",
                    "type": "address"
                },
                {
                    "internalType": "address",
                    "name": "to",
                    "type": "address"
                },
                {
                    "internalType": "uint256",
                    "name": "tokenId",
                    "type": "uint256"
                }
            ],
            "name": "transferFrom",
            "outputs": [],
            "stateMutability": "nonpayable",
            "type": "function"
        }
    ],
    "transactionHash": "0xcec83614f015d18c8c35220593e3da2fedfe8013bffb512d51a7ae5d26b2afee",
    "args": [],
    "solcInputHash": "085cf49655e4a271483bf957e5d7f0f0",
    "bytecode": "0x6080604052600160975534801561001557600080fd5b50611ba7806100256000396000f3fe608060405234801561001057600080fd5b506004361061011b5760003560e01c806361b8ce8c116100b2578063a22cb46511610081578063c87b56dd11610066578063c87b56dd14610254578063e985e9c514610267578063f77c4791146102a357600080fd5b8063a22cb4651461022e578063b88d4fde1461024157600080fd5b806361b8ce8c146101f75780636352211e1461020057806370a082311461021357806395d89b411461022657600080fd5b806319ab453c116100ee57806319ab453c1461019d57806323b872dd146101b057806342842e0e146101c357806354ba0f27146101d657600080fd5b806301ffc9a71461012057806306fdde0314610148578063081812fc1461015d578063095ea7b314610188575b600080fd5b61013361012e366004611910565b6102b6565b60405190151581526020015b60405180910390f35b61015061039b565b60405161013f91906119f7565b61017061016b366004611948565b61042d565b6040516001600160a01b03909116815260200161013f565b61019b6101963660046118e7565b6104d8565b005b61019b6101ab366004611751565b61060a565b61019b6101be36600461179d565b610769565b61019b6101d136600461179d565b6107f0565b6101e96101e4366004611751565b61080b565b60405190815260200161013f565b6101e960975481565b61017061020e366004611948565b61084c565b6101e9610221366004611751565b6108d7565b610150610971565b61019b61023c3660046118ad565b610980565b61019b61024f3660046117d8565b610a63565b610150610262366004611948565b610af1565b61013361027536600461176b565b6001600160a01b039182166000908152606a6020908152604080832093909416825291909152205460ff1690565b609854610170906001600160a01b031681565b60007fffffffff0000000000000000000000000000000000000000000000000000000082167f80ac58cd00000000000000000000000000000000000000000000000000000000148061034957507fffffffff0000000000000000000000000000000000000000000000000000000082167f5b5e139f00000000000000000000000000000000000000000000000000000000145b8061039557507f01ffc9a7000000000000000000000000000000000000000000000000000000007fffffffff000000000000000000000000000000000000000000000000000000008316145b92915050565b6060606580546103aa90611a79565b80601f01602080910402602001604051908101604052809291908181526020018280546103d690611a79565b80156104235780601f106103f857610100808354040283529160200191610423565b820191906000526020600020905b81548152906001019060200180831161040657829003601f168201915b5050505050905090565b6000818152606760205260408120546001600160a01b03166104bc5760405162461bcd60e51b815260206004820152602c60248201527f4552433732313a20617070726f76656420717565727920666f72206e6f6e657860448201527f697374656e7420746f6b656e000000000000000000000000000000000000000060648201526084015b60405180910390fd5b506000908152606960205260409020546001600160a01b031690565b60006104e38261084c565b9050806001600160a01b0316836001600160a01b0316141561056d5760405162461bcd60e51b815260206004820152602160248201527f4552433732313a20617070726f76616c20746f2063757272656e74206f776e6560448201527f720000000000000000000000000000000000000000000000000000000000000060648201526084016104b3565b336001600160a01b038216148061058957506105898133610275565b6105fb5760405162461bcd60e51b815260206004820152603860248201527f4552433732313a20617070726f76652063616c6c6572206973206e6f74206f7760448201527f6e6572206e6f7220617070726f76656420666f7220616c6c000000000000000060648201526084016104b3565b6106058383610be7565b505050565b600054610100900460ff1680610623575060005460ff16155b6106955760405162461bcd60e51b815260206004820152602e60248201527f496e697469616c697a61626c653a20636f6e747261637420697320616c72656160448201527f647920696e697469616c697a656400000000000000000000000000000000000060648201526084016104b3565b600054610100900460ff161580156106b7576000805461ffff19166101011790555b61072b6040518060400160405280601b81526020017f53686f7274204f70796e205371756565746820506f736974696f6e00000000008152506040518060400160405280600881526020017f7353717565657468000000000000000000000000000000000000000000000000815250610c62565b6098805473ffffffffffffffffffffffffffffffffffffffff19166001600160a01b0384161790558015610765576000805461ff00191690555b5050565b6107733382610d3f565b6107e55760405162461bcd60e51b815260206004820152603160248201527f4552433732313a207472616e736665722063616c6c6572206973206e6f74206f60448201527f776e6572206e6f7220617070726f76656400000000000000000000000000000060648201526084016104b3565b610605838383610e47565b61060583838360405180602001604052806000815250610a63565b6098546000906001600160a01b0316331461082557600080fd5b6097805461084791849190600061083b83611ab4565b91905055925082611021565b919050565b6000818152606760205260408120546001600160a01b0316806103955760405162461bcd60e51b815260206004820152602960248201527f4552433732313a206f776e657220717565727920666f72206e6f6e657869737460448201527f656e7420746f6b656e000000000000000000000000000000000000000000000060648201526084016104b3565b60006001600160a01b0382166109555760405162461bcd60e51b815260206004820152602a60248201527f4552433732313a2062616c616e636520717565727920666f7220746865207a6560448201527f726f20616464726573730000000000000000000000000000000000000000000060648201526084016104b3565b506001600160a01b031660009081526068602052604090205490565b6060606680546103aa90611a79565b6001600160a01b0382163314156109d95760405162461bcd60e51b815260206004820152601960248201527f4552433732313a20617070726f766520746f2063616c6c65720000000000000060448201526064016104b3565b336000818152606a602090815260408083206001600160a01b0387168085529083529281902080547fffffffffffffffffffffffffffffffffffffffffffffffffffffffffffffff001686151590811790915590519081529192917f17307eab39ab6107e8899845ad3d59bd9653f200f220920489ca2b5937696c31910160405180910390a35050565b610a6d3383610d3f565b610adf5760405162461bcd60e51b815260206004820152603160248201527f4552433732313a207472616e736665722063616c6c6572206973206e6f74206f60448201527f776e6572206e6f7220617070726f76656400000000000000000000000000000060648201526084016104b3565b610aeb84848484611170565b50505050565b6000818152606760205260409020546060906001600160a01b0316610b7e5760405162461bcd60e51b815260206004820152602f60248201527f4552433732314d657461646174613a2055524920717565727920666f72206e6f60448201527f6e6578697374656e7420746f6b656e000000000000000000000000000000000060648201526084016104b3565b6000610b9560408051602081019091526000815290565b90506000815111610bb55760405180602001604052806000815250610be0565b80610bbf846111f9565b604051602001610bd092919061198c565b6040516020818303038152906040525b9392505050565b6000818152606960205260409020805473ffffffffffffffffffffffffffffffffffffffff19166001600160a01b0384169081179091558190610c298261084c565b6001600160a01b03167f8c5be1e5ebec7d5bd14f71427d1e84f3dd0314c0f7b2291e5b200ac8c7c3b92560405160405180910390a45050565b600054610100900460ff1680610c7b575060005460ff16155b610ced5760405162461bcd60e51b815260206004820152602e60248201527f496e697469616c697a61626c653a20636f6e747261637420697320616c72656160448201527f647920696e697469616c697a656400000000000000000000000000000000000060648201526084016104b3565b600054610100900460ff16158015610d0f576000805461ffff19166101011790555b610d17611347565b610d1f611347565b610d298383611409565b8015610605576000805461ff0019169055505050565b6000818152606760205260408120546001600160a01b0316610dc95760405162461bcd60e51b815260206004820152602c60248201527f4552433732313a206f70657261746f7220717565727920666f72206e6f6e657860448201527f697374656e7420746f6b656e000000000000000000000000000000000000000060648201526084016104b3565b6000610dd48361084c565b9050806001600160a01b0316846001600160a01b03161480610e0f5750836001600160a01b0316610e048461042d565b6001600160a01b0316145b80610e3f57506001600160a01b038082166000908152606a602090815260408083209388168352929052205460ff165b949350505050565b826001600160a01b0316610e5a8261084c565b6001600160a01b031614610ed65760405162461bcd60e51b815260206004820152602960248201527f4552433732313a207472616e73666572206f6620746f6b656e2074686174206960448201527f73206e6f74206f776e000000000000000000000000000000000000000000000060648201526084016104b3565b6001600160a01b038216610f515760405162461bcd60e51b8152602060048201526024808201527f4552433732313a207472616e7366657220746f20746865207a65726f2061646460448201527f726573730000000000000000000000000000000000000000000000000000000060648201526084016104b3565b610f5c600082610be7565b6001600160a01b0383166000908152606860205260408120805460019290610f85908490611a36565b90915550506001600160a01b0382166000908152606860205260408120805460019290610fb3908490611a0a565b9091555050600081815260676020526040808220805473ffffffffffffffffffffffffffffffffffffffff19166001600160a01b0386811691821790925591518493918716917fddf252ad1be2c89b69c2b068fc378daa952ba7f163c4a11628f55a4df523b3ef91a4505050565b6001600160a01b0382166110775760405162461bcd60e51b815260206004820181905260248201527f4552433732313a206d696e7420746f20746865207a65726f206164647265737360448201526064016104b3565b6000818152606760205260409020546001600160a01b0316156110dc5760405162461bcd60e51b815260206004820152601c60248201527f4552433732313a20746f6b656e20616c7265616479206d696e7465640000000060448201526064016104b3565b6001600160a01b0382166000908152606860205260408120805460019290611105908490611a0a565b9091555050600081815260676020526040808220805473ffffffffffffffffffffffffffffffffffffffff19166001600160a01b03861690811790915590518392907fddf252ad1be2c89b69c2b068fc378daa952ba7f163c4a11628f55a4df523b3ef908290a45050565b61117b848484610e47565b611187848484846114f4565b610aeb5760405162461bcd60e51b815260206004820152603260248201527f4552433732313a207472616e7366657220746f206e6f6e20455243373231526560448201527f63656976657220696d706c656d656e746572000000000000000000000000000060648201526084016104b3565b60608161123957505060408051808201909152600181527f3000000000000000000000000000000000000000000000000000000000000000602082015290565b8160005b8115611263578061124d81611ab4565b915061125c9050600a83611a22565b915061123d565b60008167ffffffffffffffff81111561128c57634e487b7160e01b600052604160045260246000fd5b6040519080825280601f01601f1916602001820160405280156112b6576020820181803683370190505b5090505b8415610e3f576112cb600183611a36565b91506112d8600a86611aed565b6112e3906030611a0a565b60f81b81838151811061130657634e487b7160e01b600052603260045260246000fd5b60200101907effffffffffffffffffffffffffffffffffffffffffffffffffffffffffffff1916908160001a905350611340600a86611a22565b94506112ba565b600054610100900460ff1680611360575060005460ff16155b6113d25760405162461bcd60e51b815260206004820152602e60248201527f496e697469616c697a61626c653a20636f6e747261637420697320616c72656160448201527f647920696e697469616c697a656400000000000000000000000000000000000060648201526084016104b3565b600054610100900460ff161580156113f4576000805461ffff19166101011790555b8015611406576000805461ff00191690555b50565b600054610100900460ff1680611422575060005460ff16155b6114945760405162461bcd60e51b815260206004820152602e60248201527f496e697469616c697a61626c653a20636f6e747261637420697320616c72656160448201527f647920696e697469616c697a656400000000000000000000000000000000000060648201526084016104b3565b600054610100900460ff161580156114b6576000805461ffff19166101011790555b82516114c99060659060208601906116a1565b5081516114dd9060669060208501906116a1565b508015610605576000805461ff0019169055505050565b60006001600160a01b0384163b15611696576040517f150b7a020000000000000000000000000000000000000000000000000000000081526001600160a01b0385169063150b7a02906115519033908990889088906004016119bb565b602060405180830381600087803b15801561156b57600080fd5b505af192505050801561159b575060408051601f3d908101601f191682019092526115989181019061192c565b60015b61164b573d8080156115c9576040519150601f19603f3d011682016040523d82523d6000602084013e6115ce565b606091505b5080516116435760405162461bcd60e51b815260206004820152603260248201527f4552433732313a207472616e7366657220746f206e6f6e20455243373231526560448201527f63656976657220696d706c656d656e746572000000000000000000000000000060648201526084016104b3565b805181602001fd5b7fffffffff00000000000000000000000000000000000000000000000000000000167f150b7a0200000000000000000000000000000000000000000000000000000000149050610e3f565b506001949350505050565b8280546116ad90611a79565b90600052602060002090601f0160209004810192826116cf5760008555611715565b82601f106116e857805160ff1916838001178555611715565b82800160010185558215611715579182015b828111156117155782518255916020019190600101906116fa565b50611721929150611725565b5090565b5b808211156117215760008155600101611726565b80356001600160a01b038116811461084757600080fd5b600060208284031215611762578081fd5b610be08261173a565b6000806040838503121561177d578081fd5b6117868361173a565b91506117946020840161173a565b90509250929050565b6000806000606084860312156117b1578081fd5b6117ba8461173a565b92506117c86020850161173a565b9150604084013590509250925092565b600080600080608085870312156117ed578081fd5b6117f68561173a565b93506118046020860161173a565b925060408501359150606085013567ffffffffffffffff80821115611827578283fd5b818701915087601f83011261183a578283fd5b81358181111561184c5761184c611b2d565b604051601f8201601f19908116603f0116810190838211818310171561187457611874611b2d565b816040528281528a602084870101111561188c578586fd5b82602086016020830137918201602001949094529598949750929550505050565b600080604083850312156118bf578182fd5b6118c88361173a565b9150602083013580151581146118dc578182fd5b809150509250929050565b600080604083850312156118f9578182fd5b6119028361173a565b946020939093013593505050565b600060208284031215611921578081fd5b8135610be081611b43565b60006020828403121561193d578081fd5b8151610be081611b43565b600060208284031215611959578081fd5b5035919050565b60008151808452611978816020860160208601611a4d565b601f01601f19169290920160200192915050565b6000835161199e818460208801611a4d565b8351908301906119b2818360208801611a4d565b01949350505050565b60006001600160a01b038087168352808616602084015250836040830152608060608301526119ed6080830184611960565b9695505050505050565b602081526000610be06020830184611960565b60008219821115611a1d57611a1d611b01565b500190565b600082611a3157611a31611b17565b500490565b600082821015611a4857611a48611b01565b500390565b60005b83811015611a68578181015183820152602001611a50565b83811115610aeb5750506000910152565b600181811c90821680611a8d57607f821691505b60208210811415611aae57634e487b7160e01b600052602260045260246000fd5b50919050565b60007fffffffffffffffffffffffffffffffffffffffffffffffffffffffffffffffff821415611ae657611ae6611b01565b5060010190565b600082611afc57611afc611b17565b500690565b634e487b7160e01b600052601160045260246000fd5b634e487b7160e01b600052601260045260246000fd5b634e487b7160e01b600052604160045260246000fd5b7fffffffff000000000000000000000000000000000000000000000000000000008116811461140657600080fdfea2646970667358221220eec2a08d26c045b6ccee13586567ca83a8c75f5a3654eb90cf75d3bd4786c9dc64736f6c63430008040033",
    "devdoc": {
        "kind": "dev",
        "methods": {
            "approve(address,uint256)": {
                "details": "See {IERC721-approve}."
            },
            "balanceOf(address)": {
                "details": "See {IERC721-balanceOf}."
            },
            "getApproved(uint256)": {
                "details": "See {IERC721-getApproved}."
            },
            "isApprovedForAll(address,address)": {
                "details": "See {IERC721-isApprovedForAll}."
            },
            "name()": {
                "details": "See {IERC721Metadata-name}."
            },
            "ownerOf(uint256)": {
                "details": "See {IERC721-ownerOf}."
            },
            "safeTransferFrom(address,address,uint256)": {
                "details": "See {IERC721-safeTransferFrom}."
            },
            "safeTransferFrom(address,address,uint256,bytes)": {
                "details": "See {IERC721-safeTransferFrom}."
            },
            "setApprovalForAll(address,bool)": {
                "details": "See {IERC721-setApprovalForAll}."
            },
            "supportsInterface(bytes4)": {
                "details": "See {IERC165-supportsInterface}."
            },
            "symbol()": {
                "details": "See {IERC721Metadata-symbol}."
            },
            "tokenURI(uint256)": {
                "details": "See {IERC721Metadata-tokenURI}."
            },
            "transferFrom(address,address,uint256)": {
                "details": "See {IERC721-transferFrom}."
            }
        },
        "stateVariables": {
            "nextId": {
                "details": "tokenId for the next vault opened"
            }
        },
        "version": 1
    },
    "userdoc": {
        "kind": "user",
        "methods": {
            "mintNFT(address)": {
                "notice": "mint new NFT, create a new vault struct"
            }
        },
        "version": 1
    },
    "storageLayout": {
        "storage": [
            {
                "astId": 5,
                "contract": "contracts/core/VaultManagerNFT.sol:VaultNFTManager",
                "label": "_initialized",
                "offset": 0,
                "slot": "0",
                "type": "t_bool"
            },
            {
                "astId": 8,
                "contract": "contracts/core/VaultManagerNFT.sol:VaultNFTManager",
                "label": "_initializing",
                "offset": 1,
                "slot": "0",
                "type": "t_bool"
            },
            {
                "astId": 2016,
                "contract": "contracts/core/VaultManagerNFT.sol:VaultNFTManager",
                "label": "__gap",
                "offset": 0,
                "slot": "1",
                "type": "t_array(t_uint256)50_storage"
            },
            {
                "astId": 2265,
                "contract": "contracts/core/VaultManagerNFT.sol:VaultNFTManager",
                "label": "__gap",
                "offset": 0,
                "slot": "51",
                "type": "t_array(t_uint256)50_storage"
            },
            {
                "astId": 750,
                "contract": "contracts/core/VaultManagerNFT.sol:VaultNFTManager",
                "label": "_name",
                "offset": 0,
                "slot": "101",
                "type": "t_string_storage"
            },
            {
                "astId": 752,
                "contract": "contracts/core/VaultManagerNFT.sol:VaultNFTManager",
                "label": "_symbol",
                "offset": 0,
                "slot": "102",
                "type": "t_string_storage"
            },
            {
                "astId": 756,
                "contract": "contracts/core/VaultManagerNFT.sol:VaultNFTManager",
                "label": "_owners",
                "offset": 0,
                "slot": "103",
                "type": "t_mapping(t_uint256,t_address)"
            },
            {
                "astId": 760,
                "contract": "contracts/core/VaultManagerNFT.sol:VaultNFTManager",
                "label": "_balances",
                "offset": 0,
                "slot": "104",
                "type": "t_mapping(t_address,t_uint256)"
            },
            {
                "astId": 764,
                "contract": "contracts/core/VaultManagerNFT.sol:VaultNFTManager",
                "label": "_tokenApprovals",
                "offset": 0,
                "slot": "105",
                "type": "t_mapping(t_uint256,t_address)"
            },
            {
                "astId": 770,
                "contract": "contracts/core/VaultManagerNFT.sol:VaultNFTManager",
                "label": "_operatorApprovals",
                "offset": 0,
                "slot": "106",
                "type": "t_mapping(t_address,t_mapping(t_address,t_bool))"
            },
            {
                "astId": 1568,
                "contract": "contracts/core/VaultManagerNFT.sol:VaultNFTManager",
                "label": "__gap",
                "offset": 0,
                "slot": "107",
                "type": "t_array(t_uint256)44_storage"
            },
            {
                "astId": 5020,
                "contract": "contracts/core/VaultManagerNFT.sol:VaultNFTManager",
                "label": "nextId",
                "offset": 0,
                "slot": "151",
                "type": "t_uint256"
            },
            {
                "astId": 5022,
                "contract": "contracts/core/VaultManagerNFT.sol:VaultNFTManager",
                "label": "controller",
                "offset": 0,
                "slot": "152",
                "type": "t_address"
            }
        ],
        "types": {
            "t_address": {
                "encoding": "inplace",
                "label": "address",
                "numberOfBytes": "20"
            },
            "t_array(t_uint256)44_storage": {
                "base": "t_uint256",
                "encoding": "inplace",
                "label": "uint256[44]",
                "numberOfBytes": "1408"
            },
            "t_array(t_uint256)50_storage": {
                "base": "t_uint256",
                "encoding": "inplace",
                "label": "uint256[50]",
                "numberOfBytes": "1600"
            },
            "t_bool": {
                "encoding": "inplace",
                "label": "bool",
                "numberOfBytes": "1"
            },
            "t_mapping(t_address,t_bool)": {
                "encoding": "mapping",
                "key": "t_address",
                "label": "mapping(address => bool)",
                "numberOfBytes": "32",
                "value": "t_bool"
            },
            "t_mapping(t_address,t_mapping(t_address,t_bool))": {
                "encoding": "mapping",
                "key": "t_address",
                "label": "mapping(address => mapping(address => bool))",
                "numberOfBytes": "32",
                "value": "t_mapping(t_address,t_bool)"
            },
            "t_mapping(t_address,t_uint256)": {
                "encoding": "mapping",
                "key": "t_address",
                "label": "mapping(address => uint256)",
                "numberOfBytes": "32",
                "value": "t_uint256"
            },
            "t_mapping(t_uint256,t_address)": {
                "encoding": "mapping",
                "key": "t_uint256",
                "label": "mapping(uint256 => address)",
                "numberOfBytes": "32",
                "value": "t_address"
            },
            "t_string_storage": {
                "encoding": "bytes",
                "label": "string",
                "numberOfBytes": "32"
            },
            "t_uint256": {
                "encoding": "inplace",
                "label": "uint256",
                "numberOfBytes": "32"
            }
        }
    }
}